{
  "_format": "hh-sol-artifact-1",
  "contractName": "Process",
  "sourceName": "src/contracts/Process.sol",
  "abi": [
    {
      "inputs": [
        {
          "internalType": "address",
          "name": "_supplier",
          "type": "address"
        },
        {
          "internalType": "string",
          "name": "_name",
          "type": "string"
        },
        {
          "internalType": "address",
          "name": "_ownerAddress",
          "type": "address"
        }
      ],
      "stateMutability": "nonpayable",
      "type": "constructor"
    },
    {
      "anonymous": false,
      "inputs": [
        {
          "indexed": false,
          "internalType": "bytes32",
          "name": "hash",
          "type": "bytes32"
        }
      ],
      "name": "AddDocument",
      "type": "event"
    },
    {
      "inputs": [
        {
          "internalType": "string",
          "name": "_name",
          "type": "string"
        },
        {
          "internalType": "bytes32",
          "name": "_hash",
          "type": "bytes32"
        },
        {
          "internalType": "string",
          "name": "_latitude",
          "type": "string"
        },
        {
          "internalType": "string",
          "name": "_longitude",
          "type": "string"
        },
        {
          "internalType": "string",
          "name": "_comment",
          "type": "string"
        }
      ],
      "name": "addDocument",
      "outputs": [],
      "stateMutability": "nonpayable",
      "type": "function"
    },
    {
      "inputs": [
        {
          "internalType": "uint256",
          "name": "",
          "type": "uint256"
        }
      ],
      "name": "allDocuments",
      "outputs": [
        {
          "internalType": "bytes32",
          "name": "",
          "type": "bytes32"
        }
      ],
      "stateMutability": "view",
      "type": "function"
    },
    {
      "inputs": [
        {
          "internalType": "bytes32",
          "name": "c__0xc94874ed",
          "type": "bytes32"
        }
      ],
      "name": "c_0xc94874ed",
      "outputs": [],
      "stateMutability": "pure",
      "type": "function"
    },
    {
      "inputs": [],
      "name": "getDetails",
      "outputs": [
        {
          "internalType": "address",
          "name": "",
          "type": "address"
        },
        {
          "internalType": "string",
          "name": "",
          "type": "string"
        },
        {
          "internalType": "bytes32[]",
          "name": "",
          "type": "bytes32[]"
        },
        {
          "internalType": "address",
          "name": "",
          "type": "address"
        }
      ],
      "stateMutability": "view",
      "type": "function"
    },
    {
      "inputs": [
        {
          "internalType": "bytes32",
          "name": "_hash",
          "type": "bytes32"
        }
      ],
      "name": "getDocument",
      "outputs": [
        {
          "internalType": "string",
          "name": "",
          "type": "string"
        },
        {
          "internalType": "bytes32",
          "name": "",
          "type": "bytes32"
        },
        {
          "internalType": "string",
          "name": "",
          "type": "string"
        },
        {
          "internalType": "string",
          "name": "",
          "type": "string"
        },
        {
          "internalType": "uint256",
          "name": "",
          "type": "uint256"
        },
        {
          "internalType": "string",
          "name": "",
          "type": "string"
        }
      ],
      "stateMutability": "view",
      "type": "function"
    }
  ],
  "bytecode": "0x60806040523480156200001157600080fd5b506040516200173b3803806200173b833981810160405260608110156200003757600080fd5b8101908080519060200190929190805160405193929190846401000000008211156200006257600080fd5b838201915060208201858111156200007957600080fd5b82518660018202830111640100000000821117156200009757600080fd5b8083526020830192505050908051906020019080838360005b83811015620000cd578082015181840152602081019050620000b0565b50505050905090810190601f168015620000fb5780820380516001836020036101000a031916815260200191505b5060405260200180519060200190929190505050620001437fc61035df3395f7def1b65d7ccba3948498a8a9b0a05e0faa170a450076702bc160001b6200031f60201b60201c565b620001777ffd40ec6e417b79d7ced29a63b0b7fc086161cffe2c4ca3cf6a683b3489210b5360001b6200031f60201b60201c565b620001ab7f597f24924c7bd106b6a27087a631a237f6668570174c2a2b6709a400e02ff6cc60001b6200031f60201b60201c565b82600160006101000a81548173ffffffffffffffffffffffffffffffffffffffff021916908373ffffffffffffffffffffffffffffffffffffffff160217905550620002207f791cb8f289da776d4d2429b1bae6b568808ac3a54e901492db6806f3848c10bb60001b6200031f60201b60201c565b620002547fd0686e27299660f223673a6e134f35166f07a8ff919c736f4326c787114b3b5260001b6200031f60201b60201c565b81600090805190602001906200026c92919062000322565b50620002a17fdda7e7e989bd509d6f8701965368e0764746a0c7dad2172816d400c50b95865760001b6200031f60201b60201c565b620002d57f6a931986c20d6430e78236b0d85cb4a46a9c8e6a26c16b9ac516edb169104b3b60001b6200031f60201b60201c565b80600260006101000a81548173ffffffffffffffffffffffffffffffffffffffff021916908373ffffffffffffffffffffffffffffffffffffffff160217905550505050620003d1565b50565b828054600181600116156101000203166002900490600052602060002090601f016020900481019282601f106200036557805160ff191683800117855562000396565b8280016001018555821562000396579182015b828111156200039557825182559160200191906001019062000378565b5b509050620003a59190620003a9565b5090565b620003ce91905b80821115620003ca576000816000905550600101620003b0565b5090565b90565b61135a80620003e16000396000f3fe608060405234801561001057600080fd5b50600436106100575760003560e01c806328bf58a11461005c5780636d6705231461008a578063b10d6b411461020c578063cdee934e14610405578063fbbf93a014610447575b600080fd5b6100886004803603602081101561007257600080fd5b8101908080359060200190929190505050610578565b005b61020a600480360360a08110156100a057600080fd5b81019080803590602001906401000000008111156100bd57600080fd5b8201836020820111156100cf57600080fd5b803590602001918460018302840111640100000000831117156100f157600080fd5b9091929391929390803590602001909291908035906020019064010000000081111561011c57600080fd5b82018360208201111561012e57600080fd5b8035906020019184600183028401116401000000008311171561015057600080fd5b90919293919293908035906020019064010000000081111561017157600080fd5b82018360208201111561018357600080fd5b803590602001918460018302840111640100000000831117156101a557600080fd5b9091929391929390803590602001906401000000008111156101c657600080fd5b8201836020820111156101d857600080fd5b803590602001918460018302840111640100000000831117156101fa57600080fd5b909192939192939050505061057b565b005b6102386004803603602081101561022257600080fd5b8101908080359060200190929190505050610bce565b604051808060200187815260200180602001806020018681526020018060200185810385528b818151815260200191508051906020019080838360005b83811015610290578082015181840152602081019050610275565b50505050905090810190601f1680156102bd5780820380516001836020036101000a031916815260200191505b50858103845289818151815260200191508051906020019080838360005b838110156102f65780820151818401526020810190506102db565b50505050905090810190601f1680156103235780820380516001836020036101000a031916815260200191505b50858103835288818151815260200191508051906020019080838360005b8381101561035c578082015181840152602081019050610341565b50505050905090810190601f1680156103895780820380516001836020036101000a031916815260200191505b50858103825286818151815260200191508051906020019080838360005b838110156103c25780820151818401526020810190506103a7565b50505050905090810190601f1680156103ef5780820380516001836020036101000a031916815260200191505b509a505050505050505050505060405180910390f35b6104316004803603602081101561041b57600080fd5b810190808035906020019092919050505061108e565b6040518082815260200191505060405180910390f35b61044f6110af565b604051808573ffffffffffffffffffffffffffffffffffffffff1673ffffffffffffffffffffffffffffffffffffffff16815260200180602001806020018473ffffffffffffffffffffffffffffffffffffffff1673ffffffffffffffffffffffffffffffffffffffff168152602001838103835286818151815260200191508051906020019080838360005b838110156104f75780820151818401526020810190506104dc565b50505050905090810190601f1680156105245780820380516001836020036101000a031916815260200191505b50838103825285818151815260200191508051906020019060200280838360005b83811015610560578082015181840152602081019050610545565b50505050905001965050505050505060405180910390f35b50565b6105a77ff37b1ed718d6c6ad9a5d63d021912beef15b939787f5470dc594d41b72ef08f960001b610578565b6105d37f436185cf28c7f6d5203aa76fab0d7aea1aaa6e66a5bbb7854c90c0a6328f9fd860001b610578565b6105ff7fe748749287641f645be0fae7532c7db0d062b46fc67d44a4e18e9cf7adc06c9c60001b610578565b61062b7f29473c0ade6dad4cb4da8db543f4182495258c9297e9ad9d44da9c1b900e8e2160001b610578565b600160009054906101000a900473ffffffffffffffffffffffffffffffffffffffff1673ffffffffffffffffffffffffffffffffffffffff163373ffffffffffffffffffffffffffffffffffffffff16146106d1576040517f08c379a00000000000000000000000000000000000000000000000000000000081526004018080602001828103825260218152602001806113046021913960400191505060405180910390fd5b6106fd7f397b5e63fb19ac81cb60c0a3d3f3c802eed95acb38d25cc6da45e24d1e6894d460001b610578565b6107297fc7159e538ec9879431dc18cdab8fef126596733270d1bdacae74adb5097b074c60001b610578565b6107557f72703b8d91c8b0b69209ae52a8eb89078d472b2c9c6f72f8f9bfea6544108ec960001b610578565b6107817fa3d01735692cba6ca351e4cfa2b632b9e021677582a9dc25e726d19502a46d6c60001b610578565b6107ad7f4b267248efb0c7169174a9d8fdd3cf0f0745a1931e025ba4a3a11500a96403da60001b610578565b6107d97f5dedbb669714ea5b21ebe2b0715ebde26fe9ccaacbdf1f7b5da1b53e870b255160001b610578565b6000600460008981526020019081526020016000206003015414610865576040517f08c379a00000000000000000000000000000000000000000000000000000000081526004018080602001828103825260188152602001807f446f63756d656e7420616c72656164792063726561746564000000000000000081525060200191505060405180910390fd5b6108917ffb599c4a554483f27258a622e1f98fea61260b2f587c3272cf88065f16bdc61a60001b610578565b6108bd7fc2945dce44f08da2d187027127878e6252515643335b0fc647b61f7ffdca4ba560001b610578565b6108e97fca3ba516251217bcfc92375f9b02e7fc0e9cabde6d2ad6e9414267828a8ec6f960001b610578565b6040518060a001604052808a8a8080601f016020809104026020016040519081016040528093929190818152602001838380828437600081840152601f19601f82011690508083019250505050505050815260200187878080601f016020809104026020016040519081016040528093929190818152602001838380828437600081840152601f19601f82011690508083019250505050505050815260200185858080601f016020809104026020016040519081016040528093929190818152602001838380828437600081840152601f19601f82011690508083019250505050505050815260200142815260200183838080601f016020809104026020016040519081016040528093929190818152602001838380828437600081840152601f19601f82011690508083019250505050505050815250600460008981526020019081526020016000206000820151816000019080519060200190610a4f92919061125e565b506020820151816001019080519060200190610a6c92919061125e565b506040820151816002019080519060200190610a8992919061125e565b50606082015181600301556080820151816004019080519060200190610ab092919061125e565b50905050610adf7e829bc89d49080cc6b0f65ee0f98b3c40888f3510db1d5cf34048dcc43dfeae60001b610578565b610b0b7f04399771c4fdbb0791921ef585709fa22b5ab74250d2d5c7a8c4fff6347c4ce560001b610578565b6003879080600181540180825580915050600190039060005260206000200160009091909190915055610b607fcc27656acc41a497c2e6310b050ec6f761955e3a289f6fc0b1df8e5ce6d530e160001b610578565b610b8c7f29a2defffc1ead29ec93c3ae7edb391d2ca5076f65d6df5f8279d185d8faeafa60001b610578565b7fe0d778ff3686f51abf4d7fafe1aaceba6989e018f37c26d928ad7567aa2e71cb876040518082815260200191505060405180910390a1505050505050505050565b6060600060608060006060610c047e7e8502e0499f379ff9737b57d15d47b798c28a9165d21280b673faa4b86cbc60001b610578565b610c307fc48c1785f61dbd686cba90588519943f62ab9fee21209d997473bae6fbb8c94960001b610578565b610c5c7f7dcf359a97d83174da3c2bb0bf010c406b67dedb4cf30b795d8a41c7861e6e0f60001b610578565b610c887f4efe336fea825086c2985af2f730e967d93a7db1380d1ef5e6e9b4c054ebe8ed60001b610578565b600060046000898152602001908152602001600020600301541415610d15576040517f08c379a00000000000000000000000000000000000000000000000000000000081526004018080602001828103825260178152602001807f446f63756d656e7420646f6573206e6f7420657869737400000000000000000081525060200191505060405180910390fd5b610d417fc602ac61fe2d7fe2c39672ead9844d68fe9fbcef008cfe08a798dfc947d30b8f60001b610578565b610d6d7f1ca5853be6e721b5f6a77df18cc0e0bce129711f4351a3134870fa3e685b5df260001b610578565b610d997fff81f13334513c7e191a9558e637accbd4a890bb8aa91f20907bec304f18acd860001b610578565b6004600088815260200190815260200160002060000187600460008a8152602001908152602001600020600101600460008b8152602001908152602001600020600201600460008c815260200190815260200160002060030154600460008d8152602001908152602001600020600401858054600181600116156101000203166002900480601f016020809104026020016040519081016040528092919081815260200182805460018160011615610100020316600290048015610e9e5780601f10610e7357610100808354040283529160200191610e9e565b820191906000526020600020905b815481529060010190602001808311610e8157829003601f168201915b50505050509550838054600181600116156101000203166002900480601f016020809104026020016040519081016040528092919081815260200182805460018160011615610100020316600290048015610f3a5780601f10610f0f57610100808354040283529160200191610f3a565b820191906000526020600020905b815481529060010190602001808311610f1d57829003601f168201915b50505050509350828054600181600116156101000203166002900480601f016020809104026020016040519081016040528092919081815260200182805460018160011615610100020316600290048015610fd65780601f10610fab57610100808354040283529160200191610fd6565b820191906000526020600020905b815481529060010190602001808311610fb957829003601f168201915b50505050509250808054600181600116156101000203166002900480601f0160208091040260200160405190810160405280929190818152602001828054600181600116156101000203166002900480156110725780601f1061104757610100808354040283529160200191611072565b820191906000526020600020905b81548152906001019060200180831161105557829003601f168201915b5050505050905095509550955095509550955091939550919395565b6003818154811061109b57fe5b906000526020600020016000915090505481565b600060608060006110e27f7157164b96b97e8d8c01d0a955a6d66d36662a5cc68a9232ac943aafb97a2b7660001b610578565b61110e7fac319a87ee5a18fadf8089802724e2ddd558f26c4d30c3cac6f377def5bb437060001b610578565b61113a7fa0a28f4b88a2fcc152b98bfd3c7ae6f0435b8231380653ef9e4004e61b9fb64c60001b610578565b600160009054906101000a900473ffffffffffffffffffffffffffffffffffffffff166000600330828054600181600116156101000203166002900480601f0160208091040260200160405190810160405280929190818152602001828054600181600116156101000203166002900480156111f75780601f106111cc576101008083540402835291602001916111f7565b820191906000526020600020905b8154815290600101906020018083116111da57829003601f168201915b505050505092508180548060200260200160405190810160405280929190818152602001828054801561124957602002820191906000526020600020905b815481526020019060010190808311611235575b50505050509150935093509350935090919293565b828054600181600116156101000203166002900490600052602060002090601f016020900481019282601f1061129f57805160ff19168380011785556112cd565b828001600101855582156112cd579182015b828111156112cc5782518255916020019190600101906112b1565b5b5090506112da91906112de565b5090565b61130091905b808211156112fc5760008160009055506001016112e4565b5090565b9056fe53656e646572206973206e6f7420737570706c696572206f662070726f6a656374a26469706673582212203d81f737d5ef9da03ea9d66dcc8d8a1444891e3d5f33274c73ce535fcda8f2e464736f6c634300060b0033",
  "linkReferences": {},
  "deployedLinkReferences": {}
}