{
  "src/contracts/NuclearPoE.sol": {
    "NuclearPoE": {
      "abi": [
        {
          "inputs": [
            {
              "internalType": "string",
              "name": "_name",
              "type": "string"
            }
          ],
          "stateMutability": "nonpayable",
          "type": "constructor"
        },
        {
          "anonymous": false,
          "inputs": [
            {
              "indexed": false,
              "internalType": "uint256",
              "name": "project",
              "type": "uint256"
            },
            {
              "indexed": false,
              "internalType": "address",
              "name": "clientAddress",
              "type": "address"
            }
          ],
          "name": "AssignClient",
          "type": "event"
        },
        {
          "anonymous": false,
          "inputs": [
            {
              "indexed": false,
              "internalType": "uint256",
              "name": "project",
              "type": "uint256"
            },
            {
              "indexed": false,
              "internalType": "address",
              "name": "processContractAddress",
              "type": "address"
            }
          ],
          "name": "AssignProcess",
          "type": "event"
        },
        {
          "anonymous": false,
          "inputs": [
            {
              "indexed": false,
              "internalType": "address",
              "name": "processContractAddress",
              "type": "address"
            }
          ],
          "name": "CreateProcess",
          "type": "event"
        },
        {
          "anonymous": false,
          "inputs": [
            {
              "indexed": false,
              "internalType": "uint256",
              "name": "id",
              "type": "uint256"
            }
          ],
          "name": "CreateProject",
          "type": "event"
        },
        {
          "anonymous": false,
          "inputs": [
            {
              "indexed": false,
              "internalType": "address",
              "name": "userAddress",
              "type": "address"
            }
          ],
          "name": "CreateUser",
          "type": "event"
        },
        {
          "anonymous": false,
          "inputs": [
            {
              "indexed": true,
              "internalType": "address",
              "name": "previousOwner",
              "type": "address"
            },
            {
              "indexed": true,
              "internalType": "address",
              "name": "newOwner",
              "type": "address"
            }
          ],
          "name": "OwnershipTransferred",
          "type": "event"
        },
        {
          "anonymous": false,
          "inputs": [
            {
              "indexed": false,
              "internalType": "uint256",
              "name": "id",
              "type": "uint256"
            },
            {
              "indexed": false,
              "internalType": "enum NuclearPoE.State",
              "name": "newState",
              "type": "uint8"
            }
          ],
          "name": "ToggleProjectStatus",
          "type": "event"
        },
        {
          "anonymous": false,
          "inputs": [
            {
              "indexed": false,
              "internalType": "address",
              "name": "userAddress",
              "type": "address"
            },
            {
              "indexed": false,
              "internalType": "enum NuclearPoE.State",
              "name": "newState",
              "type": "uint8"
            }
          ],
          "name": "ToggleUserStatus",
          "type": "event"
        },
        {
          "inputs": [
            {
              "internalType": "uint256",
              "name": "_id",
              "type": "uint256"
            },
            {
              "internalType": "address",
              "name": "_processContract",
              "type": "address"
            }
          ],
          "name": "addProcessToProject",
          "outputs": [],
          "stateMutability": "nonpayable",
          "type": "function"
        },
        {
          "inputs": [
            {
              "internalType": "uint256",
              "name": "_id",
              "type": "uint256"
            },
            {
              "internalType": "address",
              "name": "_client",
              "type": "address"
            }
          ],
          "name": "assignClient",
          "outputs": [],
          "stateMutability": "nonpayable",
          "type": "function"
        },
        {
          "inputs": [
            {
              "internalType": "bytes32",
              "name": "c__0xa0c663c4",
              "type": "bytes32"
            }
          ],
          "name": "c_0xa0c663c4",
          "outputs": [],
          "stateMutability": "pure",
          "type": "function"
        },
        {
          "inputs": [
            {
              "internalType": "bytes32",
              "name": "c__0xfc4c55b1",
              "type": "bytes32"
            }
          ],
          "name": "c_0xfc4c55b1",
          "outputs": [],
          "stateMutability": "pure",
          "type": "function"
        },
        {
          "inputs": [
            {
              "internalType": "address",
              "name": "_supplier",
              "type": "address"
            },
            {
              "internalType": "string",
              "name": "_processName",
              "type": "string"
            }
          ],
          "name": "createProcess",
          "outputs": [],
          "stateMutability": "nonpayable",
          "type": "function"
        },
        {
          "inputs": [
            {
              "internalType": "uint256",
              "name": "_id",
              "type": "uint256"
            },
            {
              "internalType": "string",
              "name": "_title",
              "type": "string"
            },
            {
              "internalType": "string",
              "name": "_purchaseOrder",
              "type": "string"
            }
          ],
          "name": "createProject",
          "outputs": [],
          "stateMutability": "nonpayable",
          "type": "function"
        },
        {
          "inputs": [
            {
              "internalType": "enum NuclearPoE.Type",
              "name": "_type",
              "type": "uint8"
            },
            {
              "internalType": "address",
              "name": "_address",
              "type": "address"
            },
            {
              "internalType": "string",
              "name": "_name",
              "type": "string"
            }
          ],
          "name": "createUser",
          "outputs": [],
          "stateMutability": "nonpayable",
          "type": "function"
        },
        {
          "inputs": [],
          "name": "getAllUsers",
          "outputs": [
            {
              "internalType": "address[]",
              "name": "",
              "type": "address[]"
            }
          ],
          "stateMutability": "view",
          "type": "function"
        },
        {
          "inputs": [
            {
              "internalType": "uint256",
              "name": "_id",
              "type": "uint256"
            }
          ],
          "name": "getProcessContractsByProject",
          "outputs": [
            {
              "internalType": "address[]",
              "name": "",
              "type": "address[]"
            }
          ],
          "stateMutability": "view",
          "type": "function"
        },
        {
          "inputs": [],
          "name": "getProcessesByAddress",
          "outputs": [
            {
              "internalType": "address[]",
              "name": "",
              "type": "address[]"
            }
          ],
          "stateMutability": "view",
          "type": "function"
        },
        {
          "inputs": [
            {
              "internalType": "uint256",
              "name": "_id",
              "type": "uint256"
            }
          ],
          "name": "getProjectDetails",
          "outputs": [
            {
              "internalType": "enum NuclearPoE.State",
              "name": "",
              "type": "uint8"
            },
            {
              "internalType": "uint256",
              "name": "",
              "type": "uint256"
            },
            {
              "internalType": "address",
              "name": "",
              "type": "address"
            },
            {
              "internalType": "string",
              "name": "",
              "type": "string"
            },
            {
              "internalType": "string",
              "name": "",
              "type": "string"
            },
            {
              "internalType": "address[]",
              "name": "",
              "type": "address[]"
            }
          ],
          "stateMutability": "view",
          "type": "function"
        },
        {
          "inputs": [],
          "name": "getProjectsByAddress",
          "outputs": [
            {
              "internalType": "uint256[]",
              "name": "",
              "type": "uint256[]"
            }
          ],
          "stateMutability": "view",
          "type": "function"
        },
        {
          "inputs": [
            {
              "internalType": "address",
              "name": "_address",
              "type": "address"
            }
          ],
          "name": "getUser",
          "outputs": [
            {
              "internalType": "enum NuclearPoE.State",
              "name": "",
              "type": "uint8"
            },
            {
              "internalType": "enum NuclearPoE.Type",
              "name": "",
              "type": "uint8"
            },
            {
              "internalType": "string",
              "name": "",
              "type": "string"
            },
            {
              "internalType": "address",
              "name": "",
              "type": "address"
            }
          ],
          "stateMutability": "view",
          "type": "function"
        },
        {
          "inputs": [],
          "name": "owner",
          "outputs": [
            {
              "internalType": "address",
              "name": "",
              "type": "address"
            }
          ],
          "stateMutability": "view",
          "type": "function"
        },
        {
          "inputs": [
            {
              "internalType": "uint256",
              "name": "",
              "type": "uint256"
            }
          ],
          "name": "processContractsArray",
          "outputs": [
            {
              "internalType": "address",
              "name": "",
              "type": "address"
            }
          ],
          "stateMutability": "view",
          "type": "function"
        },
        {
          "inputs": [
            {
              "internalType": "address",
              "name": "",
              "type": "address"
            },
            {
              "internalType": "uint256",
              "name": "",
              "type": "uint256"
            }
          ],
          "name": "processesByAddress",
          "outputs": [
            {
              "internalType": "address",
              "name": "",
              "type": "address"
            }
          ],
          "stateMutability": "view",
          "type": "function"
        },
        {
          "inputs": [
            {
              "internalType": "uint256",
              "name": "",
              "type": "uint256"
            }
          ],
          "name": "projectsArray",
          "outputs": [
            {
              "internalType": "uint256",
              "name": "",
              "type": "uint256"
            }
          ],
          "stateMutability": "view",
          "type": "function"
        },
        {
          "inputs": [
            {
              "internalType": "address",
              "name": "",
              "type": "address"
            },
            {
              "internalType": "uint256",
              "name": "",
              "type": "uint256"
            }
          ],
          "name": "projectsByAddress",
          "outputs": [
            {
              "internalType": "uint256",
              "name": "",
              "type": "uint256"
            }
          ],
          "stateMutability": "view",
          "type": "function"
        },
        {
          "inputs": [],
          "name": "renounceOwnership",
          "outputs": [],
          "stateMutability": "nonpayable",
          "type": "function"
        },
        {
          "inputs": [
            {
              "internalType": "uint256",
              "name": "_id",
              "type": "uint256"
            }
          ],
          "name": "toggleProjectStatus",
          "outputs": [],
          "stateMutability": "nonpayable",
          "type": "function"
        },
        {
          "inputs": [
            {
              "internalType": "address",
              "name": "_address",
              "type": "address"
            }
          ],
          "name": "toggleUserStatus",
          "outputs": [],
          "stateMutability": "nonpayable",
          "type": "function"
        },
        {
          "inputs": [
            {
              "internalType": "address",
              "name": "newOwner",
              "type": "address"
            }
          ],
          "name": "transferOwnership",
          "outputs": [],
          "stateMutability": "nonpayable",
          "type": "function"
        }
      ],
      "evm": {
        "bytecode": {
          "linkReferences": {},
          "object": "60806040523480156200001157600080fd5b506040516200727f3803806200727f833981810160405260208110156200003757600080fd5b81019080805160405193929190846401000000008211156200005857600080fd5b838201915060208201858111156200006f57600080fd5b82518660018202830111640100000000821117156200008d57600080fd5b8083526020830192505050908051906020019080838360005b83811015620000c3578082015181840152602081019050620000a6565b50505050905090810190601f168015620000f15780820380516001836020036101000a031916815260200191505b506040525050506200012c7fd8b1b5d63ef23900e0bf1d5b4ce4e196c8bdaaa56b4512f239bd043f542dc3fd60001b620004ef60201b60201c565b620001607f7027398bb54727a62713efe58a784ec56bc6608a91d8cc5fa4f1b3e13e146bb360001b620004ef60201b60201c565b620001947fc43b3b3bab7c40d9098a9dc90071f958cb5a961134a905dbefbe8041a79ebfe060001b620004ef60201b60201c565b336000806101000a81548173ffffffffffffffffffffffffffffffffffffffff021916908373ffffffffffffffffffffffffffffffffffffffff160217905550620002087fd6543cf4fab2db5ede234c295aa3ececcc9e07c5e4200940d71344c8686162bc60001b620004ef60201b60201c565b6200023c7fb873d47502ab15aa4c81cae65aca06791b8ad21d5113fde4603086e20775092260001b620004ef60201b60201c565b3373ffffffffffffffffffffffffffffffffffffffff16600073ffffffffffffffffffffffffffffffffffffffff167f8be0079c531659141344cd1fd0a4f28419497f9722a3daafe3b4186f6b6457e060405160405180910390a3620002cb7f626d73be395cf385a6937c765870e281f1def544f29eaf4b4e838f03635b135260001b620004f260201b60201c565b620002ff7f4908064f143358bc7ec8a44935a2bf149b05983a3b899a66cf0b876ef87af26360001b620004f260201b60201c565b620003337f0eaab1e0d00d9cba3911b0e475d69abb31df684e0ffd2a1d2b196c8b0a8be09060001b620004f260201b60201c565b6040518060600160405280600160028111156200034c57fe5b8152602001600060028111156200035f57fe5b815260200182815250600660003373ffffffffffffffffffffffffffffffffffffffff1673ffffffffffffffffffffffffffffffffffffffff16815260200190815260200160002060008201518160000160006101000a81548160ff02191690836002811115620003cc57fe5b021790555060208201518160000160016101000a81548160ff02191690836002811115620003f657fe5b0217905550604082015181600101908051906020019062000419929190620004f5565b50905050620004517fceedd61bbca926deaa55d80a237f12fe074ff3116131cbb72f8ae357ec2be1e260001b620004f260201b60201c565b620004857f1996e7099adbd4f809ba8f13ad38e0367b799d7e8bd0735f82d492a4a534c72660001b620004f260201b60201c565b6002339080600181540180825580915050600190039060005260206000200160009091909190916101000a81548173ffffffffffffffffffffffffffffffffffffffff021916908373ffffffffffffffffffffffffffffffffffffffff16021790555050620005a4565b50565b50565b828054600181600116156101000203166002900490600052602060002090601f016020900481019282601f106200053857805160ff191683800117855562000569565b8280016001018555821562000569579182015b82811115620005685782518255916020019190600101906200054b565b5b5090506200057891906200057c565b5090565b620005a191905b808211156200059d57600081600090555060010162000583565b5090565b90565b616ccb80620005b46000396000f3fe60806040523480156200001157600080fd5b5060043610620001605760003560e01c806373f04d7f11620000c95780638da5cb5b11620000875780638da5cb5b1462000987578063b93ad1e514620009d3578063c70f07b41462000a7f578063e2842d791462000ac6578063e6c399301462000b29578063f2fde38b1462000b9a5762000160565b806373f04d7f14620007c2578063743d3d6a1462000813578063854dbe5814620008445780638659242814620009255780638b8a417e14620009565762000160565b806364b785fa116200012357806364b785fa14620004e857806364feff20146200052d5780636ccdd74614620005cc5780636f77926b146200063157806371198eb61462000753578063715018a614620007b65762000160565b80634cb7a7ba14620001655780635231de8314620001f65780635c6db28114620002595780635cad5bfd14620002e15780635f8439e31462000332575b600080fd5b620001b4600480360360408110156200017d57600080fd5b81019080803573ffffffffffffffffffffffffffffffffffffffff1690602001909291908035906020019092919050505062000be1565b604051808273ffffffffffffffffffffffffffffffffffffffff1673ffffffffffffffffffffffffffffffffffffffff16815260200191505060405180910390f35b6200020062000c2d565b6040518080602001828103825283818151815260200191508051906020019060200280838360005b838110156200024557808201518184015260208101905062000228565b505050509050019250505060405180910390f35b62000288600480360360208110156200027157600080fd5b810190808035906020019092919050505062000efc565b6040518080602001828103825283818151815260200191508051906020019060200280838360005b83811015620002cd578082015181840152602081019050620002b0565b505050509050019250505060405180910390f35b6200033060048036036040811015620002f957600080fd5b8101908080359060200190929190803573ffffffffffffffffffffffffffffffffffffffff169060200190929190505050620011fc565b005b62000361600480360360208110156200034a57600080fd5b81019080803590602001909291905050506200163f565b604051808760028111156200037257fe5b60ff1681526020018681526020018573ffffffffffffffffffffffffffffffffffffffff1673ffffffffffffffffffffffffffffffffffffffff168152602001806020018060200180602001848103845287818151815260200191508051906020019080838360005b83811015620003f8578082015181840152602081019050620003db565b50505050905090810190601f168015620004265780820380516001836020036101000a031916815260200191505b50848103835286818151815260200191508051906020019080838360005b838110156200046157808201518184015260208101905062000444565b50505050905090810190601f1680156200048f5780820380516001836020036101000a031916815260200191505b50848103825285818151815260200191508051906020019060200280838360005b83811015620004cd578082015181840152602081019050620004b0565b50505050905001995050505050505050505060405180910390f35b62000517600480360360208110156200050057600080fd5b810190808035906020019092919050505062001b04565b6040518082815260200191505060405180910390f35b620005ca600480360360408110156200054557600080fd5b81019080803573ffffffffffffffffffffffffffffffffffffffff169060200190929190803590602001906401000000008111156200058357600080fd5b8201836020820111156200059657600080fd5b80359060200191846001830284011164010000000083111715620005b957600080fd5b909192939192939050505062001b26565b005b6200061b60048036036040811015620005e457600080fd5b81019080803573ffffffffffffffffffffffffffffffffffffffff16906020019092919080359060200190929190505050620020df565b6040518082815260200191505060405180910390f35b62000676600480360360208110156200064957600080fd5b81019080803573ffffffffffffffffffffffffffffffffffffffff1690602001909291905050506200210e565b604051808560028111156200068757fe5b60ff1681526020018460028111156200069c57fe5b60ff168152602001806020018373ffffffffffffffffffffffffffffffffffffffff1673ffffffffffffffffffffffffffffffffffffffff168152602001828103825284818151815260200191508051906020019080838360005b8381101562000714578082015181840152602081019050620006f7565b50505050905090810190601f168015620007425780820380516001836020036101000a031916815260200191505b509550505050505060405180910390f35b6200075d62002523565b6040518080602001828103825283818151815260200191508051906020019060200280838360005b83811015620007a257808201518184015260208101905062000785565b505050509050019250505060405180910390f35b620007c06200285e565b005b6200081160048036036040811015620007da57600080fd5b8101908080359060200190929190803573ffffffffffffffffffffffffffffffffffffffff16906020019092919050505062002bda565b005b62000842600480360360208110156200082b57600080fd5b8101908080359060200190929190505050620030cb565b005b62000923600480360360608110156200085c57600080fd5b8101908080359060200190929190803590602001906401000000008111156200088457600080fd5b8201836020820111156200089757600080fd5b80359060200191846001830284011164010000000083111715620008ba57600080fd5b909192939192939080359060200190640100000000811115620008dc57600080fd5b820183602082011115620008ef57600080fd5b803590602001918460018302840111640100000000831117156200091257600080fd5b9091929391929390505050620030ce565b005b62000954600480360360208110156200093d57600080fd5b8101908080359060200190929190505050620037fe565b005b62000985600480360360208110156200096e57600080fd5b810190808035906020019092919050505062003801565b005b6200099162003e41565b604051808273ffffffffffffffffffffffffffffffffffffffff1673ffffffffffffffffffffffffffffffffffffffff16815260200191505060405180910390f35b62000a7d60048036036060811015620009eb57600080fd5b81019080803560ff169060200190929190803573ffffffffffffffffffffffffffffffffffffffff1690602001909291908035906020019064010000000081111562000a3657600080fd5b82018360208201111562000a4957600080fd5b8035906020019184600183028401116401000000008311171562000a6c57600080fd5b909192939192939050505062003ef4565b005b62000ac46004803603602081101562000a9757600080fd5b81019080803573ffffffffffffffffffffffffffffffffffffffff16906020019092919050505062004406565b005b62000ad062004b4e565b6040518080602001828103825283818151815260200191508051906020019060200280838360005b8381101562000b1557808201518184015260208101905062000af8565b505050509050019250505060405180910390f35b62000b586004803603602081101562000b4157600080fd5b810190808035906020019092919050505062004e3f565b604051808273ffffffffffffffffffffffffffffffffffffffff1673ffffffffffffffffffffffffffffffffffffffff16815260200191505060405180910390f35b62000bdf6004803603602081101562000bb257600080fd5b81019080803573ffffffffffffffffffffffffffffffffffffffff16906020019092919050505062004e7c565b005b6005602052816000526040600020818154811062000bfb57fe5b906000526020600020016000915091509054906101000a900473ffffffffffffffffffffffffffffffffffffffff1681565b606062000c5d7f10fb910a34f3ec79634bedda1318e94925166186cfe1fd70cc23dd4dcfa2189660001b620030cb565b62000c8b7fa9f2601cf57c0ed5955429fa4d2e15104482e7c5d3596c5e550f6ba49181273c60001b620030cb565b62000cb97f43fbcf51859196f62acdaabbbb8bfa17cff9f1c1aed4cbce0bc262b095799cfa60001b620030cb565b62000cc362003e41565b73ffffffffffffffffffffffffffffffffffffffff163373ffffffffffffffffffffffffffffffffffffffff16141562000ddc5762000d257fce93b258f250955dc0a64f12f1dd6020fc0d0fc76d00fc6adb7d7e99eb1e49ff60001b620030cb565b62000d537fb4d46d64324431d32a1ca509cd24fff17496c25d234f71b5f17d20684c8a480860001b620030cb565b62000d817ff9be7a620b290f84eb9bd8f476ff4446a5a2c39fa0ef860c882e4b018c4acdb060001b620030cb565b600380548060200260200160405190810160405280929190818152602001828054801562000dcf57602002820191906000526020600020905b81548152602001906001019080831162000dba575b5050505050905062000ef9565b62000e0a7f3439d65d75f465c15a919d240dd7feab68cab4f55b6233bba927c71a60a835ef60001b620030cb565b62000e387f2b51c168639b1170ef52347258c0e249a71efc37e62c14d31ba02bac2e8c8f7960001b620030cb565b62000e667f3541d6501cc383498f63f748b2712ccca814c3e0cfe049bfb7cdc07aeff76ef260001b620030cb565b600460003373ffffffffffffffffffffffffffffffffffffffff1673ffffffffffffffffffffffffffffffffffffffff16815260200190815260200160002080548060200260200160405190810160405280929190818152602001828054801562000ef157602002820191906000526020600020905b81548152602001906001019080831162000edc575b505050505090505b90565b606062000f2c7f4fb6993b73daa0043bb064fafe8d72cec3d82679aa615aaf1a4de3a560bb5b2d60001b620030cb565b62000f5a7f8fb8c5b02cab304b3abd97e6278737508365aa45be532d48ff597df5ae9cb52160001b620030cb565b62000f887f7bab9e92dcf85a8882ef374535095fb386e5981937bb0a699b09c76f3740f69360001b620030cb565b62000fb67f1cacfa678995863b8115fb3037eb16f0b2b05214879b44f3f2ac864a4e37602260001b620030cb565b3373ffffffffffffffffffffffffffffffffffffffff166007600084815260200190815260200160002060000160019054906101000a900473ffffffffffffffffffffffffffffffffffffffff1673ffffffffffffffffffffffffffffffffffffffff1614806200105b57506200102c62003e41565b73ffffffffffffffffffffffffffffffffffffffff163373ffffffffffffffffffffffffffffffffffffffff16145b620010ce576040517f08c379a000000000000000000000000000000000000000000000000000000000815260040180806020018281038252601f8152602001807f50726f6a65637420616e6420436c69656e7420646f206e6f74206d617463680081525060200191505060405180910390fd5b620010fc7fc21febdc3c800e119c68047bd6523d0878dc93f10e9ae061181172a7b47e235a60001b620030cb565b6200112a7f2562de67c5e55d711b373111ed1981223e46e6e54a72300282bb9cf40e4133a860001b620030cb565b620011587fd2917c5eb9e60362f1972a1c377b2e23fc637bbb3ef262f8e903ac54c6a4ea2260001b620030cb565b60076000838152602001908152602001600020600301805480602002602001604051908101604052809291908181526020018280548015620011f057602002820191906000526020600020905b8160009054906101000a900473ffffffffffffffffffffffffffffffffffffffff1673ffffffffffffffffffffffffffffffffffffffff1681526020019060010190808311620011a5575b50505050509050919050565b6200122a7fbbd3f355d77656a0f50aae973ab5793981ce48967d721219b0105f6db34d30ba60001b620037fe565b620012587fbc95bf17ca2009e2526d43c8992d6f4437bc5d005edae2988d77646f8582350160001b620037fe565b620012867f522f1571fb48ef6ea3e9e0b6f9dab138206492fec89844e7bf1ded65794e580660001b620037fe565b620012b47f6c41c5952a4021ee48db6814adc2fffc422ac8f2eb8425ec003f86ea58b3c86460001b620037fe565b3373ffffffffffffffffffffffffffffffffffffffff166000809054906101000a900473ffffffffffffffffffffffffffffffffffffffff1673ffffffffffffffffffffffffffffffffffffffff161462001377576040517f08c379a00000000000000000000000000000000000000000000000000000000081526004018080602001828103825260208152602001807f4f776e61626c653a2063616c6c6572206973206e6f7420746865206f776e657281525060200191505060405180910390fd5b620013a57f5a35e29a7cc84d55f7a9678e9dc2ede30fb5f67f6aff0b42bf6c4b23d0a937cc60001b620037fe565b620013d37f1c760e035c6926b5f9779dc98270deadf3392737a2366e2622768dc99f97ee8e60001b620037fe565b620014017ff0feb3870d447f71930e00f9ca97c9d6883a5d6d4b863e8dc4d69b5055cea79960001b620030cb565b6200142f7fe12d0b0c0765ddc037c2ff47ab613c4fa410a6b29c16fa4374ce07c6d2626b1f60001b620030cb565b6200145d7fa19ead6455640c33f4052d2394aafde53dd29c6cecb580fdb83021399ed88acd60001b620030cb565b600460008273ffffffffffffffffffffffffffffffffffffffff1673ffffffffffffffffffffffffffffffffffffffff168152602001908152602001600020829080600181540180825580915050600190039060005260206000200160009091909190915055620014f17f8d0a572a3573f918890ae83def72a56974d6a9b428892a1cd6a9f051f092a39260001b620030cb565b6200151f7fd1568d70c4e86347cf2cf64a3bfd4189b6aee7e2a5164ec8483c120755c1415660001b620030cb565b806007600084815260200190815260200160002060000160016101000a81548173ffffffffffffffffffffffffffffffffffffffff021916908373ffffffffffffffffffffffffffffffffffffffff160217905550620015a27fe47d3651bc7b210b850a5b6c2bfa83b59f92a8f8ea0762e3ceafca663bf2d46560001b620030cb565b620015d07f1a57ecf6837667910b19345876347e1c839c4665f0205a6b51d4aa02b1f1320860001b620030cb565b7f4256f31675358760da332c63daf619de7a463cd7afe585631a8f9a6a59cf08008282604051808381526020018273ffffffffffffffffffffffffffffffffffffffff1673ffffffffffffffffffffffffffffffffffffffff1681526020019250505060405180910390a15050565b60008060006060806060620016777fbbd43c7a6682c13aca97818cc2b9de0b8282c76ade9a1a5258033834b2b2fe4360001b620030cb565b620016a57fb17a1949dfe905638ee21f5e419469c217b97c70f4d44f422e081577cb86d7ce60001b620030cb565b620016d37f6918550fdf43e14aa9e64b5eb07cb953d7a304bb8e1df2c9db6941db12d8244e60001b620030cb565b620017017f4a1ec43d00e784560cb3fe567f4d12722070671cdddd09a6acd6a665e43a265560001b620030cb565b6007600088815260200190815260200160002060000160019054906101000a900473ffffffffffffffffffffffffffffffffffffffff1673ffffffffffffffffffffffffffffffffffffffff163373ffffffffffffffffffffffffffffffffffffffff161480620017a657506200177762003e41565b73ffffffffffffffffffffffffffffffffffffffff163373ffffffffffffffffffffffffffffffffffffffff16145b620017fd576040517f08c379a000000000000000000000000000000000000000000000000000000000815260040180806020018281038252602781526020018062006c6f6027913960400191505060405180910390fd5b6200182b7fe7e44bd0d42209ab238f27a349d3f37e1fb6e6938c817caacaf8aa73e99a381160001b620030cb565b620018597f482eda9c3b330b148759de90f11a05b3e3bccad2bf01223b5f9726cb7f2d810860001b620030cb565b620018877f370e07e59fbeda2b86a52e13136976b2bfcb387ae1c66bd442d466e6006e689060001b620030cb565b6007600088815260200190815260200160002060000160009054906101000a900460ff1687600760008a815260200190815260200160002060000160019054906101000a900473ffffffffffffffffffffffffffffffffffffffff16600760008b8152602001908152602001600020600101600760008c8152602001908152602001600020600201600760008d8152602001908152602001600020600301828054600181600116156101000203166002900480601f016020809104026020016040519081016040528092919081815260200182805460018160011615610100020316600290048015620019be5780601f106200199257610100808354040283529160200191620019be565b820191906000526020600020905b815481529060010190602001808311620019a057829003601f168201915b50505050509250818054600181600116156101000203166002900480601f01602080910402602001604051908101604052809291908181526020018280546001816001161561010002031660029004801562001a5e5780601f1062001a325761010080835404028352916020019162001a5e565b820191906000526020600020905b81548152906001019060200180831162001a4057829003601f168201915b505050505091508080548060200260200160405190810160405280929190818152602001828054801562001ae857602002820191906000526020600020905b8160009054906101000a900473ffffffffffffffffffffffffffffffffffffffff1673ffffffffffffffffffffffffffffffffffffffff168152602001906001019080831162001a9d575b5050505050905095509550955095509550955091939550919395565b6003818154811062001b1257fe5b906000526020600020016000915090505481565b62001b547fbbd3f355d77656a0f50aae973ab5793981ce48967d721219b0105f6db34d30ba60001b620037fe565b62001b827fbc95bf17ca2009e2526d43c8992d6f4437bc5d005edae2988d77646f8582350160001b620037fe565b62001bb07f522f1571fb48ef6ea3e9e0b6f9dab138206492fec89844e7bf1ded65794e580660001b620037fe565b62001bde7f6c41c5952a4021ee48db6814adc2fffc422ac8f2eb8425ec003f86ea58b3c86460001b620037fe565b3373ffffffffffffffffffffffffffffffffffffffff166000809054906101000a900473ffffffffffffffffffffffffffffffffffffffff1673ffffffffffffffffffffffffffffffffffffffff161462001ca1576040517f08c379a00000000000000000000000000000000000000000000000000000000081526004018080602001828103825260208152602001807f4f776e61626c653a2063616c6c6572206973206e6f7420746865206f776e657281525060200191505060405180910390fd5b62001ccf7f5a35e29a7cc84d55f7a9678e9dc2ede30fb5f67f6aff0b42bf6c4b23d0a937cc60001b620037fe565b62001cfd7f1c760e035c6926b5f9779dc98270deadf3392737a2366e2622768dc99f97ee8e60001b620037fe565b62001d2b7f1699fe0ca65388c7a4c86b1ae1c76b7cecc44d912f133218c0d4675ad6c11a1460001b620030cb565b62001d597f67a1baeb58619dce46bd67858226b4bae65fb57d5db4af92f965be8a6c99902a60001b620030cb565b62001d877fafde7d5ff9e18e490ee8525ff391033ea51b65208c0a398a4f27a34f13767e6860001b620030cb565b600083838362001d9662003e41565b60405162001da49062005337565b808573ffffffffffffffffffffffffffffffffffffffff1673ffffffffffffffffffffffffffffffffffffffff168152602001806020018373ffffffffffffffffffffffffffffffffffffffff1673ffffffffffffffffffffffffffffffffffffffff1681526020018281038252858582818152602001925080828437600081840152601f19601f82011690508083019250505095505050505050604051809103906000f08015801562001e5c573d6000803e3d6000fd5b50905062001e8d7f28010f28a9600fb8a9073f336f7321097904757b7395ab06446e70ee5e11b9c560001b620030cb565b62001ebb7fc0f346cafeacaadf1d0ffe48cbf1aaed3add051d36c1e339480705bd1f665a6260001b620030cb565b600560008573ffffffffffffffffffffffffffffffffffffffff1673ffffffffffffffffffffffffffffffffffffffff168152602001908152602001600020819080600181540180825580915050600190039060005260206000200160009091909190916101000a81548173ffffffffffffffffffffffffffffffffffffffff021916908373ffffffffffffffffffffffffffffffffffffffff16021790555062001f897f0f490ca6c687dbdf4786f3f8a121e4b0575ef29402b45b3e0a45038fcc8d1a7360001b620030cb565b62001fb77f3f34aaa7ad5f091ca856f3d893b5472bd3a395847c3c8a423e4ff3650e58e89f60001b620030cb565b6001819080600181540180825580915050600190039060005260206000200160009091909190916101000a81548173ffffffffffffffffffffffffffffffffffffffff021916908373ffffffffffffffffffffffffffffffffffffffff160217905550620020487f8bf2d89db2a161b13e0a4a66bd4a0fc710da3f680623b7661adfcd05ef126a2c60001b620030cb565b620020767f18864cc1f38c037a6de2a9b395dd3c89fa0ff8bd1464346d730a4aa7e02cc66460001b620030cb565b7f908a1d72896b3c6e31c2e9ac8d65ae9676a54dd26195d4496442c50ff1b0b79781604051808273ffffffffffffffffffffffffffffffffffffffff1673ffffffffffffffffffffffffffffffffffffffff16815260200191505060405180910390a150505050565b60046020528160005260406000208181548110620020f957fe5b90600052602060002001600091509150505481565b60008060606000620021437fe490a9cee36e189456752331938b426f9dabe38ed9cad9a22cca74a38d282f8c60001b620030cb565b620021717fbbe356c7a4acd7dcdb07eb8e4d60c9fb136e213d2f36e5adc3e9285a433b01a760001b620030cb565b6200219f7f992d0eca4c60721b51a38e4a13e2229fbb78dfa8be3e30025969ab7056ac616460001b620030cb565b620021cd7f3ab2fc008bcf97eb252c55d1d8d9e071124a1ac1da0708726e80370bfd6f885c60001b620030cb565b60016002811115620021db57fe5b600660003373ffffffffffffffffffffffffffffffffffffffff1673ffffffffffffffffffffffffffffffffffffffff16815260200190815260200160002060000160009054906101000a900460ff1660028111156200223757fe5b14620022ab576040517f08c379a00000000000000000000000000000000000000000000000000000000081526004018080602001828103825260198152602001807f53656e646572206973206e6f742077686974656c69737465640000000000000081525060200191505060405180910390fd5b620022d97fe90d50500ea6686f3c31179251e3f8feb79c0d3cd1ec0be62baad15f508401bb60001b620030cb565b620023077fafb3a32d5f6607b367bcad20ee394dbfb60676d182eaeb59db66ded6e5f1e27560001b620030cb565b620023357f8d4cd8211ca4c54d0d3ff17b591d6c4c8f9ca358b629b8a592d0bbd19f1bf83860001b620030cb565b620023637f8a9ec71c405d21b03da06a1e20e79784295d928da160d4fa8ce0680301a4448f60001b620030cb565b620023917f7c531c74d460ce5752b1129860de55198d4159a2b5cf67c22f86aa46268be22e60001b620030cb565b600660008673ffffffffffffffffffffffffffffffffffffffff1673ffffffffffffffffffffffffffffffffffffffff16815260200190815260200160002060000160009054906101000a900460ff16600660008773ffffffffffffffffffffffffffffffffffffffff1673ffffffffffffffffffffffffffffffffffffffff16815260200190815260200160002060000160019054906101000a900460ff16600660008873ffffffffffffffffffffffffffffffffffffffff1673ffffffffffffffffffffffffffffffffffffffff16815260200190815260200160002060010187818054600181600116156101000203166002900480601f0160208091040260200160405190810160405280929190818152602001828054600181600116156101000203166002900480156200250d5780601f10620024e1576101008083540402835291602001916200250d565b820191906000526020600020905b815481529060010190602001808311620024ef57829003601f168201915b5050505050915093509350935093509193509193565b6060620025537f5f07edcca9d290f45aa0593716a1d8013a261bd3fd73e1cfd5667613bd1d9c8f60001b620030cb565b620025817f7421976cd9fc6c2726027a6b2a34e73e038871059cc14515dd539f4fe261513260001b620030cb565b620025af7fbea3bb107dab8876876c2f9a7696c0a4c86993180c863fbaca9dcf5bf0246bba60001b620030cb565b620025b962003e41565b73ffffffffffffffffffffffffffffffffffffffff163373ffffffffffffffffffffffffffffffffffffffff16141562002708576200261b7f06d39f8c93fae9ab033767aab7c768e277fd140d862aa020cdd9c0a54a0f9ed960001b620030cb565b620026497ff021a938a8fe43d8747ff24bfee14e270a87b015b9b53f95dffa710f73fb6baa60001b620030cb565b620026777f150cc61e7184711791f958b0cce289d1fab5f8421d2c394d261dbd09aaa7300f60001b620030cb565b6001805480602002602001604051908101604052809291908181526020018280548015620026fb57602002820191906000526020600020905b8160009054906101000a900473ffffffffffffffffffffffffffffffffffffffff1673ffffffffffffffffffffffffffffffffffffffff1681526020019060010190808311620026b0575b505050505090506200285b565b620027367f15a0f70d294035b3f053708c8996b77abb697b47eb8bf96b18935a8e5e864a1e60001b620030cb565b620027647ff96d81bce6faf439e2ffeec7fe46946947a2e3b3ec5091c22972a846c649f11460001b620030cb565b620027927f41d7867c1f27214143e1b758dbcca59bb00e4d0031d46a385e7f11905c48dead60001b620030cb565b600560003373ffffffffffffffffffffffffffffffffffffffff1673ffffffffffffffffffffffffffffffffffffffff1681526020019081526020016000208054806020026020016040519081016040528092919081815260200182805480156200285357602002820191906000526020600020905b8160009054906101000a900473ffffffffffffffffffffffffffffffffffffffff1673ffffffffffffffffffffffffffffffffffffffff168152602001906001019080831162002808575b505050505090505b90565b6200288c7fbbd3f355d77656a0f50aae973ab5793981ce48967d721219b0105f6db34d30ba60001b620037fe565b620028ba7fbc95bf17ca2009e2526d43c8992d6f4437bc5d005edae2988d77646f8582350160001b620037fe565b620028e87f522f1571fb48ef6ea3e9e0b6f9dab138206492fec89844e7bf1ded65794e580660001b620037fe565b620029167f6c41c5952a4021ee48db6814adc2fffc422ac8f2eb8425ec003f86ea58b3c86460001b620037fe565b3373ffffffffffffffffffffffffffffffffffffffff166000809054906101000a900473ffffffffffffffffffffffffffffffffffffffff1673ffffffffffffffffffffffffffffffffffffffff1614620029d9576040517f08c379a00000000000000000000000000000000000000000000000000000000081526004018080602001828103825260208152602001807f4f776e61626c653a2063616c6c6572206973206e6f7420746865206f776e657281525060200191505060405180910390fd5b62002a077f5a35e29a7cc84d55f7a9678e9dc2ede30fb5f67f6aff0b42bf6c4b23d0a937cc60001b620037fe565b62002a357f1c760e035c6926b5f9779dc98270deadf3392737a2366e2622768dc99f97ee8e60001b620037fe565b62002a637ffd434ce63a5cfc7c9f33f307d1acf2d2c433b55ab6d6e581a3f51d9d16c1166360001b620037fe565b62002a917f5d9d1bcb622c1fd87aea34729e91527f413096bf03f2a783a0b6559e44b987c160001b620037fe565b62002abf7fe09d1f792c1e9d61df867dd9bf8a53f996e088f02d0431f62605424ed626516260001b620037fe565b600073ffffffffffffffffffffffffffffffffffffffff166000809054906101000a900473ffffffffffffffffffffffffffffffffffffffff1673ffffffffffffffffffffffffffffffffffffffff167f8be0079c531659141344cd1fd0a4f28419497f9722a3daafe3b4186f6b6457e060405160405180910390a362002b697fd77d13fda05eb234da425db383f986870bdef7b1aeda87f4551eec9a3c8cec7760001b620037fe565b62002b977fca7b2226d03a90ce152a52499168e2d16e1ada73d256ab0b0327ef1b564e88b260001b620037fe565b60008060006101000a81548173ffffffffffffffffffffffffffffffffffffffff021916908373ffffffffffffffffffffffffffffffffffffffff160217905550565b62002c087fbbd3f355d77656a0f50aae973ab5793981ce48967d721219b0105f6db34d30ba60001b620037fe565b62002c367fbc95bf17ca2009e2526d43c8992d6f4437bc5d005edae2988d77646f8582350160001b620037fe565b62002c647f522f1571fb48ef6ea3e9e0b6f9dab138206492fec89844e7bf1ded65794e580660001b620037fe565b62002c927f6c41c5952a4021ee48db6814adc2fffc422ac8f2eb8425ec003f86ea58b3c86460001b620037fe565b3373ffffffffffffffffffffffffffffffffffffffff166000809054906101000a900473ffffffffffffffffffffffffffffffffffffffff1673ffffffffffffffffffffffffffffffffffffffff161462002d55576040517f08c379a00000000000000000000000000000000000000000000000000000000081526004018080602001828103825260208152602001807f4f776e61626c653a2063616c6c6572206973206e6f7420746865206f776e657281525060200191505060405180910390fd5b62002d837f5a35e29a7cc84d55f7a9678e9dc2ede30fb5f67f6aff0b42bf6c4b23d0a937cc60001b620037fe565b62002db17f1c760e035c6926b5f9779dc98270deadf3392737a2366e2622768dc99f97ee8e60001b620037fe565b62002ddf7f7d4c1dde59ceecf4d44cc210675c1ce82accfac080b194cb4cdf75b6197ddb2a60001b620030cb565b62002e0d7f0db31003867339946498245586b1025d9f0de04049cbe6da1888aa99d2f494dc60001b620030cb565b62002e3b7fbcb68816d34648c52d2565d32d2d80e81e993118014eecaacf5cec31426b59c460001b620030cb565b62002e697f4a8393ab576ed99e1cc82f0a91aaa93462d9e3797f3dac6f1739f78bb9c74caf60001b620030cb565b6001600281111562002e7757fe5b6007600084815260200190815260200160002060000160009054906101000a900460ff16600281111562002ea757fe5b1462002eff576040517f08c379a000000000000000000000000000000000000000000000000000000000815260040180806020018281038252602381526020018062006c2b6023913960400191505060405180910390fd5b62002f2d7f988dadf207fdd9815b4d90e6a00706ab85fcfed2eda067178877818184e7bc9460001b620030cb565b62002f5b7f8f527810c4d7bba5015653d67ea4dcbb54c589262a92d08f17bc7e2024ff302b60001b620030cb565b62002f897f81510c448e1e74386d6f23a64ebdf5a77762f5abecf6538045b23c03d57ef2d960001b620030cb565b60076000838152602001908152602001600020600301819080600181540180825580915050600190039060005260206000200160009091909190916101000a81548173ffffffffffffffffffffffffffffffffffffffff021916908373ffffffffffffffffffffffffffffffffffffffff1602179055506200302e7ff15413d3788be6b6549cf789755a85caface7cd97d5a7e3d1878b158c7248efb60001b620030cb565b6200305c7ff0109df0435bb85b3e1f012cd43d0e7c286ac102082fff56f298d89707c39c7d60001b620030cb565b7f3692cddee3f850c6a39cfd231903164d5b29a337cad2a6763434d94a5ed4bb388282604051808381526020018273ffffffffffffffffffffffffffffffffffffffff1673ffffffffffffffffffffffffffffffffffffffff1681526020019250505060405180910390a15050565b50565b620030fc7fbbd3f355d77656a0f50aae973ab5793981ce48967d721219b0105f6db34d30ba60001b620037fe565b6200312a7fbc95bf17ca2009e2526d43c8992d6f4437bc5d005edae2988d77646f8582350160001b620037fe565b620031587f522f1571fb48ef6ea3e9e0b6f9dab138206492fec89844e7bf1ded65794e580660001b620037fe565b620031867f6c41c5952a4021ee48db6814adc2fffc422ac8f2eb8425ec003f86ea58b3c86460001b620037fe565b3373ffffffffffffffffffffffffffffffffffffffff166000809054906101000a900473ffffffffffffffffffffffffffffffffffffffff1673ffffffffffffffffffffffffffffffffffffffff161462003249576040517f08c379a00000000000000000000000000000000000000000000000000000000081526004018080602001828103825260208152602001807f4f776e61626c653a2063616c6c6572206973206e6f7420746865206f776e657281525060200191505060405180910390fd5b620032777f5a35e29a7cc84d55f7a9678e9dc2ede30fb5f67f6aff0b42bf6c4b23d0a937cc60001b620037fe565b620032a57f1c760e035c6926b5f9779dc98270deadf3392737a2366e2622768dc99f97ee8e60001b620037fe565b620032d37feb712b18b09f9b9d7ef14a1e36b12698cc88186060eac24fbeafbada836b220460001b620030cb565b620033017f79ae5319ead690dc01c0e237b40b48c58753d403c65f233fabcac77495df43d760001b620030cb565b6200332f7f707f9f1e0863acce6ce943384643666eb13e962077ac08ee91b305653ad4337d60001b620030cb565b6200335d7f463cea75d464829eed8c47594d793dcfac622f398bc740dfb256449c7f8639fc60001b620030cb565b600060028111156200336b57fe5b6007600087815260200190815260200160002060000160009054906101000a900460ff1660028111156200339b57fe5b14620033f3576040517f08c379a000000000000000000000000000000000000000000000000000000000815260040180806020018281038252602181526020018062006c4e6021913960400191505060405180910390fd5b620034217f8524063bb2b1978b8bd7ee1528c928f5ed8e2fa14d39ee042b73b693125cf48c60001b620030cb565b6200344f7f4032b642e80d500bb20298be71ec08350b92b950bc3c503655fed2e934d1c87360001b620030cb565b6200347d7f1a5253ccc42790cf2efa66c82aad189d0a4bb9f0b268b6a9e4e5c5bad75e362c60001b620030cb565b6060600067ffffffffffffffff811180156200349857600080fd5b50604051908082528060200260200182016040528015620034c85781602001602082028036833780820191505090505b509050620034f97fd474a61ebe0e1dc848efa88ff569e8994bf4e78971cdcd85cec205172123fc3760001b620030cb565b620035277f7768c4447863ad8a974bb9475c98a5f2a79f0784576bdffe897f8d261d34c05a60001b620030cb565b6040518060a00160405280600160028111156200354057fe5b8152602001600073ffffffffffffffffffffffffffffffffffffffff16815260200186868080601f016020809104026020016040519081016040528093929190818152602001838380828437600081840152601f19601f82011690508083019250505050505050815260200184848080601f016020809104026020016040519081016040528093929190818152602001838380828437600081840152601f19601f820116905080830192505050505050508152602001828152506007600088815260200190815260200160002060008201518160000160006101000a81548160ff021916908360028111156200363257fe5b021790555060208201518160000160016101000a81548173ffffffffffffffffffffffffffffffffffffffff021916908373ffffffffffffffffffffffffffffffffffffffff16021790555060408201518160010190805190602001906200369c92919062005345565b506060820151816002019080519060200190620036bb92919062005345565b506080820151816003019080519060200190620036da929190620053cc565b509050506200370c7f04b97e18d848adf7bdf1911044139bf94ccb7dd420b8732aabf28dcdd0b525ec60001b620030cb565b6200373a7f77db821c3d2632c087a02991842895a2ac907cba075f55800cadc44c55de2a1860001b620030cb565b6003869080600181540180825580915050600190039060005260206000200160009091909190915055620037917f09582e8cd6af387dc7edbb056ae8c289e56af335256b427dd3d2868dd8d3751960001b620030cb565b620037bf7f9555b1d07155da47ac45d0ba96c6ef8783b18530fd1739d50483995adc83efd060001b620030cb565b7f2a5ab9ec691fb839007cf12d3897d875d6526e4abb4c51b9d7a0fc8a98d05fdd866040518082815260200191505060405180910390a1505050505050565b50565b6200382f7fbbd3f355d77656a0f50aae973ab5793981ce48967d721219b0105f6db34d30ba60001b620037fe565b6200385d7fbc95bf17ca2009e2526d43c8992d6f4437bc5d005edae2988d77646f8582350160001b620037fe565b6200388b7f522f1571fb48ef6ea3e9e0b6f9dab138206492fec89844e7bf1ded65794e580660001b620037fe565b620038b97f6c41c5952a4021ee48db6814adc2fffc422ac8f2eb8425ec003f86ea58b3c86460001b620037fe565b3373ffffffffffffffffffffffffffffffffffffffff166000809054906101000a900473ffffffffffffffffffffffffffffffffffffffff1673ffffffffffffffffffffffffffffffffffffffff16146200397c576040517f08c379a00000000000000000000000000000000000000000000000000000000081526004018080602001828103825260208152602001807f4f776e61626c653a2063616c6c6572206973206e6f7420746865206f776e657281525060200191505060405180910390fd5b620039aa7f5a35e29a7cc84d55f7a9678e9dc2ede30fb5f67f6aff0b42bf6c4b23d0a937cc60001b620037fe565b620039d87f1c760e035c6926b5f9779dc98270deadf3392737a2366e2622768dc99f97ee8e60001b620037fe565b62003a067fd0bbff4d9b196274a79b73e905cbacfdb3dd336e51f765691a91de49df79845760001b620030cb565b62003a347fcfac9bc2fcdb09d3719122b1d0bfd122d069b6b054d9f3cb12d5a9465daf233860001b620030cb565b62003a627f0793b6c3f972bbae3afa9c5f64c9444bd113241f731701bf786b92037f5e642e60001b620030cb565b62003a907fa0a86a28f21b31dda3693dd6060b1f6ce741bcce0cb78d0077c141b9e6bffaa560001b620030cb565b6000600281111562003a9e57fe5b6007600083815260200190815260200160002060000160009054906101000a900460ff16600281111562003ace57fe5b141562003b43576040517f08c379a00000000000000000000000000000000000000000000000000000000081526004018080602001828103825260168152602001807f50726f6a65637420646f6573206e6f742065786973740000000000000000000081525060200191505060405180910390fd5b62003b717f87b2d6298fe9bb427c8a40d9c19523d9c813b706b0e629e4fadaab87e4f8c19060001b620030cb565b62003b9f7f4eaf205781e6768523b02862879bef590db31f1f0c171f63fe5ea71f7c26f99160001b620030cb565b62003bcd7f19d9f112f1f42cb63b8e19019a83fc8b9e8bf65a9c7f2a47f5e2d09a646511f760001b620030cb565b6001600281111562003bdb57fe5b6007600083815260200190815260200160002060000160009054906101000a900460ff16600281111562003c0b57fe5b141562003cdb5762003c407f0d976a840be9e8eaf5abc658f85fb2990dd9c4a33f9edefebc15e9ab8ff197ae60001b620030cb565b62003c6e7f401c679a1397365f3258413ff559b001d916f54bbe380f603e814d12048ab52f60001b620030cb565b62003c9c7f089a6b303d82a44703541bc237d8c29e465a053de0882771f20a5ca77a10cf7d60001b620030cb565b60026007600083815260200190815260200160002060000160006101000a81548160ff0219169083600281111562003cd057fe5b021790555062003d71565b62003d097fda3eb81fbe790715bd2907df4b033ac7aa487592266ea8a02ff0a3fcbc3dcf3760001b620030cb565b62003d377f50a05269f04d4688b4ec1c88e643b8b8bd4f3d5803af5b2ff3a1819680c11c4560001b620030cb565b60016007600083815260200190815260200160002060000160006101000a81548160ff0219169083600281111562003d6b57fe5b02179055505b62003d9f7fce5a2e9df95e042eb5d1c5441ef0914c81463306e2b18ee833404d07ce9f170c60001b620030cb565b62003dcd7f26c5b3bebc1ef489284077f6e98371757917803cd125bf886b9d2f32bfd687de60001b620030cb565b7f5d1817f0324e15d9b2f28fd0374b935f9c8ecb961c916140425d4c2936ed17be816007600084815260200190815260200160002060000160009054906101000a900460ff166040518083815260200182600281111562003e2a57fe5b60ff1681526020019250505060405180910390a150565b600062003e717f997c03ff3d60a17a89c98c193b8140f8ca6b8c408d964f1de9e87c5525a5c9ee60001b620037fe565b62003e9f7fa480be44f68b4e3f9ad8d7cfd0adf549adf540cada54dc05b640d03f41f2a5a760001b620037fe565b62003ecd7f2130671547929ecb1dfd61fdbe22b3260f088a8b752b444a52f115075a98ace560001b620037fe565b6000809054906101000a900473ffffffffffffffffffffffffffffffffffffffff16905090565b62003f227fbbd3f355d77656a0f50aae973ab5793981ce48967d721219b0105f6db34d30ba60001b620037fe565b62003f507fbc95bf17ca2009e2526d43c8992d6f4437bc5d005edae2988d77646f8582350160001b620037fe565b62003f7e7f522f1571fb48ef6ea3e9e0b6f9dab138206492fec89844e7bf1ded65794e580660001b620037fe565b62003fac7f6c41c5952a4021ee48db6814adc2fffc422ac8f2eb8425ec003f86ea58b3c86460001b620037fe565b3373ffffffffffffffffffffffffffffffffffffffff166000809054906101000a900473ffffffffffffffffffffffffffffffffffffffff1673ffffffffffffffffffffffffffffffffffffffff16146200406f576040517f08c379a00000000000000000000000000000000000000000000000000000000081526004018080602001828103825260208152602001807f4f776e61626c653a2063616c6c6572206973206e6f7420746865206f776e657281525060200191505060405180910390fd5b6200409d7f5a35e29a7cc84d55f7a9678e9dc2ede30fb5f67f6aff0b42bf6c4b23d0a937cc60001b620037fe565b620040cb7f1c760e035c6926b5f9779dc98270deadf3392737a2366e2622768dc99f97ee8e60001b620037fe565b620040f97fde076d19f1f2457370491d92eddb3ca09ec47ddd01c1275990ae178012ec5e8060001b620030cb565b620041277fbf2773a8cd02c34990f7c8e6c670eca80eea6143a68745e1b7dd601d561eddfd60001b620030cb565b620041557fd79815231035393d54351ec9b7c6410f993422252c63b3f60923c191bea968e160001b620030cb565b6040518060600160405280600160028111156200416e57fe5b81526020018560028111156200418057fe5b815260200183838080601f016020809104026020016040519081016040528093929190818152602001838380828437600081840152601f19601f82011690508083019250505050505050815250600660008573ffffffffffffffffffffffffffffffffffffffff1673ffffffffffffffffffffffffffffffffffffffff16815260200190815260200160002060008201518160000160006101000a81548160ff021916908360028111156200423157fe5b021790555060208201518160000160016101000a81548160ff021916908360028111156200425b57fe5b021790555060408201518160010190805190602001906200427e92919062005345565b50905050620042b07f0ac23b8bc7faae6d5c284fcfc3bb1950c0d5e69c4d2989d94b0b8a8eb02de16d60001b620030cb565b620042de7f2a70832fcdcab0db89eaa1725f22f59f3c3c800059509debe733e26f8a6397fd60001b620030cb565b6002839080600181540180825580915050600190039060005260206000200160009091909190916101000a81548173ffffffffffffffffffffffffffffffffffffffff021916908373ffffffffffffffffffffffffffffffffffffffff1602179055506200436f7f662a4e49821475c746590e9a83c85c77ecdcac8e8bf9e111c16e5cc3807107e960001b620030cb565b6200439d7fb112c40691d65c95766a8790f2c0f278f4ba6cfdd7f9d32a2a94027ab947571e60001b620030cb565b7fdf54227b669e96e69d8f583a07d577cb4081ab69c78dbcff8fce5af67e1ac54683604051808273ffffffffffffffffffffffffffffffffffffffff1673ffffffffffffffffffffffffffffffffffffffff16815260200191505060405180910390a150505050565b620044347fbbd3f355d77656a0f50aae973ab5793981ce48967d721219b0105f6db34d30ba60001b620037fe565b620044627fbc95bf17ca2009e2526d43c8992d6f4437bc5d005edae2988d77646f8582350160001b620037fe565b620044907f522f1571fb48ef6ea3e9e0b6f9dab138206492fec89844e7bf1ded65794e580660001b620037fe565b620044be7f6c41c5952a4021ee48db6814adc2fffc422ac8f2eb8425ec003f86ea58b3c86460001b620037fe565b3373ffffffffffffffffffffffffffffffffffffffff166000809054906101000a900473ffffffffffffffffffffffffffffffffffffffff1673ffffffffffffffffffffffffffffffffffffffff161462004581576040517f08c379a00000000000000000000000000000000000000000000000000000000081526004018080602001828103825260208152602001807f4f776e61626c653a2063616c6c6572206973206e6f7420746865206f776e657281525060200191505060405180910390fd5b620045af7f5a35e29a7cc84d55f7a9678e9dc2ede30fb5f67f6aff0b42bf6c4b23d0a937cc60001b620037fe565b620045dd7f1c760e035c6926b5f9779dc98270deadf3392737a2366e2622768dc99f97ee8e60001b620037fe565b6200460b7f69da91dc987251b150278a1b7a6b2441c01324ee9916c628970c69865c12a43960001b620030cb565b620046397fe34977de518b72d96c8d3185195e8a0a6dba5e5d5b4f0de3576e0d26469e9e2260001b620030cb565b620046677f38fe70868a49c5b0520c514a50b22dd0965e26141801ecfc9926d72fadaa5ac160001b620030cb565b620046957f899262ac84358e6459c8acbe6d51826175d18af3c028b2b0454f25d81712105b60001b620030cb565b60006002811115620046a357fe5b600660008373ffffffffffffffffffffffffffffffffffffffff1673ffffffffffffffffffffffffffffffffffffffff16815260200190815260200160002060000160009054906101000a900460ff166002811115620046ff57fe5b141562004774576040517f08c379a00000000000000000000000000000000000000000000000000000000081526004018080602001828103825260138152602001807f5573657220646f6573206e6f742065786973740000000000000000000000000081525060200191505060405180910390fd5b620047a27f3115861604cb6202d443cc47d5d01c8f96bc09ce2b93762462a4c0ef59f7de5d60001b620030cb565b620047d07f8e45ca98951eb88024b511f27f2417ba55e501cae725cec97aecb8ea813ebeed60001b620030cb565b620047fe7f84ccb55f7fcae4c197346c98b187f39f897fc892ba8621890bfa48be93361b7760001b620030cb565b600160028111156200480c57fe5b600660008373ffffffffffffffffffffffffffffffffffffffff1673ffffffffffffffffffffffffffffffffffffffff16815260200190815260200160002060000160009054906101000a900460ff1660028111156200486857fe5b141562004964576200489d7fbed1eadb35d2f53990aced3b05de7b752bf294151317d2f0dc5c397422e75fcd60001b620030cb565b620048cb7fbae77395790f2b6d952ffce434895afab45c196a3e2354b4b35c357a18f9bcaf60001b620030cb565b620048f97fa3e7ec08633215f336db487d2689a25227e1ef89a489912333394379bf77030760001b620030cb565b6002600660008373ffffffffffffffffffffffffffffffffffffffff1673ffffffffffffffffffffffffffffffffffffffff16815260200190815260200160002060000160006101000a81548160ff021916908360028111156200495957fe5b021790555062004a26565b620049927f2ea4a923bb57c5d24bd3fab433eaf639ad027a762bec7396c565281ffb128c5160001b620030cb565b620049c07f685cd515dcb0f9ae255ff774d4946a31901cb22db25c02536e05f9e5d415129d60001b620030cb565b6001600660008373ffffffffffffffffffffffffffffffffffffffff1673ffffffffffffffffffffffffffffffffffffffff16815260200190815260200160002060000160006101000a81548160ff0219169083600281111562004a2057fe5b02179055505b62004a547fd01f7404758d8dd4f6864d1972014da94eb7f1c7efa637df96e32e4d4711060160001b620030cb565b62004a827febfc81c0147a776a1a287e021b8b27d21dad9175dcd441450e92e84458ee1a1f60001b620030cb565b7f265ce5b4a01d5d792e85f3e35b7f36e9951dacac00dae63f48c9f813b9cc6d3081600660008473ffffffffffffffffffffffffffffffffffffffff1673ffffffffffffffffffffffffffffffffffffffff16815260200190815260200160002060000160009054906101000a900460ff16604051808373ffffffffffffffffffffffffffffffffffffffff1673ffffffffffffffffffffffffffffffffffffffff16815260200182600281111562004b3757fe5b60ff1681526020019250505060405180910390a150565b606062004b7e7fbbd3f355d77656a0f50aae973ab5793981ce48967d721219b0105f6db34d30ba60001b620037fe565b62004bac7fbc95bf17ca2009e2526d43c8992d6f4437bc5d005edae2988d77646f8582350160001b620037fe565b62004bda7f522f1571fb48ef6ea3e9e0b6f9dab138206492fec89844e7bf1ded65794e580660001b620037fe565b62004c087f6c41c5952a4021ee48db6814adc2fffc422ac8f2eb8425ec003f86ea58b3c86460001b620037fe565b3373ffffffffffffffffffffffffffffffffffffffff166000809054906101000a900473ffffffffffffffffffffffffffffffffffffffff1673ffffffffffffffffffffffffffffffffffffffff161462004ccb576040517f08c379a00000000000000000000000000000000000000000000000000000000081526004018080602001828103825260208152602001807f4f776e61626c653a2063616c6c6572206973206e6f7420746865206f776e657281525060200191505060405180910390fd5b62004cf97f5a35e29a7cc84d55f7a9678e9dc2ede30fb5f67f6aff0b42bf6c4b23d0a937cc60001b620037fe565b62004d277f1c760e035c6926b5f9779dc98270deadf3392737a2366e2622768dc99f97ee8e60001b620037fe565b62004d557fbd545fea5f50cfc148fd7859eec6f3f2d9e3f7bd8b8b31f0eedcef6a6fc3db2060001b620030cb565b62004d837f123ecbfe12b8b54aa7be28cb29b722a5fda255a6a77ee3fd860d3fbb9960e2f460001b620030cb565b62004db17f71662543729c4c961798a68364525492a939546e6a546871c288aee3fcea69f260001b620030cb565b600280548060200260200160405190810160405280929190818152602001828054801562004e3557602002820191906000526020600020905b8160009054906101000a900473ffffffffffffffffffffffffffffffffffffffff1673ffffffffffffffffffffffffffffffffffffffff168152602001906001019080831162004dea575b5050505050905090565b6001818154811062004e4d57fe5b906000526020600020016000915054906101000a900473ffffffffffffffffffffffffffffffffffffffff1681565b62004eaa7fbbd3f355d77656a0f50aae973ab5793981ce48967d721219b0105f6db34d30ba60001b620037fe565b62004ed87fbc95bf17ca2009e2526d43c8992d6f4437bc5d005edae2988d77646f8582350160001b620037fe565b62004f067f522f1571fb48ef6ea3e9e0b6f9dab138206492fec89844e7bf1ded65794e580660001b620037fe565b62004f347f6c41c5952a4021ee48db6814adc2fffc422ac8f2eb8425ec003f86ea58b3c86460001b620037fe565b3373ffffffffffffffffffffffffffffffffffffffff166000809054906101000a900473ffffffffffffffffffffffffffffffffffffffff1673ffffffffffffffffffffffffffffffffffffffff161462004ff7576040517f08c379a00000000000000000000000000000000000000000000000000000000081526004018080602001828103825260208152602001807f4f776e61626c653a2063616c6c6572206973206e6f7420746865206f776e657281525060200191505060405180910390fd5b620050257f5a35e29a7cc84d55f7a9678e9dc2ede30fb5f67f6aff0b42bf6c4b23d0a937cc60001b620037fe565b620050537f1c760e035c6926b5f9779dc98270deadf3392737a2366e2622768dc99f97ee8e60001b620037fe565b620050817fd4f14c82cd74a2bfe5b3a0e4e1ba79451934e1b76e4ad703adfb10c5abd62e3660001b620037fe565b620050af7ff13dde4cd98d07e58d1a0f963ea04362e404f2ab70211194834b635ce8b6688a60001b620037fe565b620050dd7f56839613ce74633642adb97a1d7a1b5f7b44f7733b8383d7edd34fdca9528b1d60001b620037fe565b6200510b7f02b8355901dbbc224c37290aa6e7356e6240f5dd862864386c05aaed68b8ec2060001b620037fe565b600073ffffffffffffffffffffffffffffffffffffffff168173ffffffffffffffffffffffffffffffffffffffff16141562005193576040517f08c379a000000000000000000000000000000000000000000000000000000000815260040180806020018281038252602681526020018062006c056026913960400191505060405180910390fd5b620051c17ffee8a2e5a662c7cd0da06767582a89ba462016d584883b0a6e9cd9654ded200060001b620037fe565b620051ef7f4c26170b2547024ce29198477eb8cdab571f0cff51aac763ce2173fb140ac5f760001b620037fe565b6200521d7f90ab5053d48d5051c8e125455ea462c5257b9a053f49ae5515c264ba41a7a40c60001b620037fe565b8073ffffffffffffffffffffffffffffffffffffffff166000809054906101000a900473ffffffffffffffffffffffffffffffffffffffff1673ffffffffffffffffffffffffffffffffffffffff167f8be0079c531659141344cd1fd0a4f28419497f9722a3daafe3b4186f6b6457e060405160405180910390a3620052c67fec3fa98c696c5487f30a86f6c3fa7690694fccb2d2b11e50e80c1a29fbb31e6060001b620037fe565b620052f47fa55e123eaf43bfb9e53855172d10c0b18da44ded7fff5f6b8a7e12bfb94208a560001b620037fe565b806000806101000a81548173ffffffffffffffffffffffffffffffffffffffff021916908373ffffffffffffffffffffffffffffffffffffffff16021790555050565b61173b80620054ca83390190565b828054600181600116156101000203166002900490600052602060002090601f016020900481019282601f106200538857805160ff1916838001178555620053b9565b82800160010185558215620053b9579182015b82811115620053b85782518255916020019190600101906200539b565b5b509050620053c891906200545b565b5090565b82805482825590600052602060002090810192821562005448579160200282015b82811115620054475782518260006101000a81548173ffffffffffffffffffffffffffffffffffffffff021916908373ffffffffffffffffffffffffffffffffffffffff16021790555091602001919060010190620053ed565b5b50905062005457919062005483565b5090565b6200548091905b808211156200547c57600081600090555060010162005462565b5090565b90565b620054c691905b80821115620054c257600081816101000a81549073ffffffffffffffffffffffffffffffffffffffff0219169055506001016200548a565b5090565b9056fe60806040523480156200001157600080fd5b506040516200173b3803806200173b833981810160405260608110156200003757600080fd5b8101908080519060200190929190805160405193929190846401000000008211156200006257600080fd5b838201915060208201858111156200007957600080fd5b82518660018202830111640100000000821117156200009757600080fd5b8083526020830192505050908051906020019080838360005b83811015620000cd578082015181840152602081019050620000b0565b50505050905090810190601f168015620000fb5780820380516001836020036101000a031916815260200191505b5060405260200180519060200190929190505050620001437fc61035df3395f7def1b65d7ccba3948498a8a9b0a05e0faa170a450076702bc160001b6200031f60201b60201c565b620001777ffd40ec6e417b79d7ced29a63b0b7fc086161cffe2c4ca3cf6a683b3489210b5360001b6200031f60201b60201c565b620001ab7f597f24924c7bd106b6a27087a631a237f6668570174c2a2b6709a400e02ff6cc60001b6200031f60201b60201c565b82600160006101000a81548173ffffffffffffffffffffffffffffffffffffffff021916908373ffffffffffffffffffffffffffffffffffffffff160217905550620002207f791cb8f289da776d4d2429b1bae6b568808ac3a54e901492db6806f3848c10bb60001b6200031f60201b60201c565b620002547fd0686e27299660f223673a6e134f35166f07a8ff919c736f4326c787114b3b5260001b6200031f60201b60201c565b81600090805190602001906200026c92919062000322565b50620002a17fdda7e7e989bd509d6f8701965368e0764746a0c7dad2172816d400c50b95865760001b6200031f60201b60201c565b620002d57f6a931986c20d6430e78236b0d85cb4a46a9c8e6a26c16b9ac516edb169104b3b60001b6200031f60201b60201c565b80600260006101000a81548173ffffffffffffffffffffffffffffffffffffffff021916908373ffffffffffffffffffffffffffffffffffffffff160217905550505050620003d1565b50565b828054600181600116156101000203166002900490600052602060002090601f016020900481019282601f106200036557805160ff191683800117855562000396565b8280016001018555821562000396579182015b828111156200039557825182559160200191906001019062000378565b5b509050620003a59190620003a9565b5090565b620003ce91905b80821115620003ca576000816000905550600101620003b0565b5090565b90565b61135a80620003e16000396000f3fe608060405234801561001057600080fd5b50600436106100575760003560e01c806328bf58a11461005c5780636d6705231461008a578063b10d6b411461020c578063cdee934e14610405578063fbbf93a014610447575b600080fd5b6100886004803603602081101561007257600080fd5b8101908080359060200190929190505050610578565b005b61020a600480360360a08110156100a057600080fd5b81019080803590602001906401000000008111156100bd57600080fd5b8201836020820111156100cf57600080fd5b803590602001918460018302840111640100000000831117156100f157600080fd5b9091929391929390803590602001909291908035906020019064010000000081111561011c57600080fd5b82018360208201111561012e57600080fd5b8035906020019184600183028401116401000000008311171561015057600080fd5b90919293919293908035906020019064010000000081111561017157600080fd5b82018360208201111561018357600080fd5b803590602001918460018302840111640100000000831117156101a557600080fd5b9091929391929390803590602001906401000000008111156101c657600080fd5b8201836020820111156101d857600080fd5b803590602001918460018302840111640100000000831117156101fa57600080fd5b909192939192939050505061057b565b005b6102386004803603602081101561022257600080fd5b8101908080359060200190929190505050610bce565b604051808060200187815260200180602001806020018681526020018060200185810385528b818151815260200191508051906020019080838360005b83811015610290578082015181840152602081019050610275565b50505050905090810190601f1680156102bd5780820380516001836020036101000a031916815260200191505b50858103845289818151815260200191508051906020019080838360005b838110156102f65780820151818401526020810190506102db565b50505050905090810190601f1680156103235780820380516001836020036101000a031916815260200191505b50858103835288818151815260200191508051906020019080838360005b8381101561035c578082015181840152602081019050610341565b50505050905090810190601f1680156103895780820380516001836020036101000a031916815260200191505b50858103825286818151815260200191508051906020019080838360005b838110156103c25780820151818401526020810190506103a7565b50505050905090810190601f1680156103ef5780820380516001836020036101000a031916815260200191505b509a505050505050505050505060405180910390f35b6104316004803603602081101561041b57600080fd5b810190808035906020019092919050505061108e565b6040518082815260200191505060405180910390f35b61044f6110af565b604051808573ffffffffffffffffffffffffffffffffffffffff1673ffffffffffffffffffffffffffffffffffffffff16815260200180602001806020018473ffffffffffffffffffffffffffffffffffffffff1673ffffffffffffffffffffffffffffffffffffffff168152602001838103835286818151815260200191508051906020019080838360005b838110156104f75780820151818401526020810190506104dc565b50505050905090810190601f1680156105245780820380516001836020036101000a031916815260200191505b50838103825285818151815260200191508051906020019060200280838360005b83811015610560578082015181840152602081019050610545565b50505050905001965050505050505060405180910390f35b50565b6105a77ff37b1ed718d6c6ad9a5d63d021912beef15b939787f5470dc594d41b72ef08f960001b610578565b6105d37f436185cf28c7f6d5203aa76fab0d7aea1aaa6e66a5bbb7854c90c0a6328f9fd860001b610578565b6105ff7fe748749287641f645be0fae7532c7db0d062b46fc67d44a4e18e9cf7adc06c9c60001b610578565b61062b7f29473c0ade6dad4cb4da8db543f4182495258c9297e9ad9d44da9c1b900e8e2160001b610578565b600160009054906101000a900473ffffffffffffffffffffffffffffffffffffffff1673ffffffffffffffffffffffffffffffffffffffff163373ffffffffffffffffffffffffffffffffffffffff16146106d1576040517f08c379a00000000000000000000000000000000000000000000000000000000081526004018080602001828103825260218152602001806113046021913960400191505060405180910390fd5b6106fd7f397b5e63fb19ac81cb60c0a3d3f3c802eed95acb38d25cc6da45e24d1e6894d460001b610578565b6107297fc7159e538ec9879431dc18cdab8fef126596733270d1bdacae74adb5097b074c60001b610578565b6107557f72703b8d91c8b0b69209ae52a8eb89078d472b2c9c6f72f8f9bfea6544108ec960001b610578565b6107817fa3d01735692cba6ca351e4cfa2b632b9e021677582a9dc25e726d19502a46d6c60001b610578565b6107ad7f4b267248efb0c7169174a9d8fdd3cf0f0745a1931e025ba4a3a11500a96403da60001b610578565b6107d97f5dedbb669714ea5b21ebe2b0715ebde26fe9ccaacbdf1f7b5da1b53e870b255160001b610578565b6000600460008981526020019081526020016000206003015414610865576040517f08c379a00000000000000000000000000000000000000000000000000000000081526004018080602001828103825260188152602001807f446f63756d656e7420616c72656164792063726561746564000000000000000081525060200191505060405180910390fd5b6108917ffb599c4a554483f27258a622e1f98fea61260b2f587c3272cf88065f16bdc61a60001b610578565b6108bd7fc2945dce44f08da2d187027127878e6252515643335b0fc647b61f7ffdca4ba560001b610578565b6108e97fca3ba516251217bcfc92375f9b02e7fc0e9cabde6d2ad6e9414267828a8ec6f960001b610578565b6040518060a001604052808a8a8080601f016020809104026020016040519081016040528093929190818152602001838380828437600081840152601f19601f82011690508083019250505050505050815260200187878080601f016020809104026020016040519081016040528093929190818152602001838380828437600081840152601f19601f82011690508083019250505050505050815260200185858080601f016020809104026020016040519081016040528093929190818152602001838380828437600081840152601f19601f82011690508083019250505050505050815260200142815260200183838080601f016020809104026020016040519081016040528093929190818152602001838380828437600081840152601f19601f82011690508083019250505050505050815250600460008981526020019081526020016000206000820151816000019080519060200190610a4f92919061125e565b506020820151816001019080519060200190610a6c92919061125e565b506040820151816002019080519060200190610a8992919061125e565b50606082015181600301556080820151816004019080519060200190610ab092919061125e565b50905050610adf7e829bc89d49080cc6b0f65ee0f98b3c40888f3510db1d5cf34048dcc43dfeae60001b610578565b610b0b7f04399771c4fdbb0791921ef585709fa22b5ab74250d2d5c7a8c4fff6347c4ce560001b610578565b6003879080600181540180825580915050600190039060005260206000200160009091909190915055610b607fcc27656acc41a497c2e6310b050ec6f761955e3a289f6fc0b1df8e5ce6d530e160001b610578565b610b8c7f29a2defffc1ead29ec93c3ae7edb391d2ca5076f65d6df5f8279d185d8faeafa60001b610578565b7fe0d778ff3686f51abf4d7fafe1aaceba6989e018f37c26d928ad7567aa2e71cb876040518082815260200191505060405180910390a1505050505050505050565b6060600060608060006060610c047e7e8502e0499f379ff9737b57d15d47b798c28a9165d21280b673faa4b86cbc60001b610578565b610c307fc48c1785f61dbd686cba90588519943f62ab9fee21209d997473bae6fbb8c94960001b610578565b610c5c7f7dcf359a97d83174da3c2bb0bf010c406b67dedb4cf30b795d8a41c7861e6e0f60001b610578565b610c887f4efe336fea825086c2985af2f730e967d93a7db1380d1ef5e6e9b4c054ebe8ed60001b610578565b600060046000898152602001908152602001600020600301541415610d15576040517f08c379a00000000000000000000000000000000000000000000000000000000081526004018080602001828103825260178152602001807f446f63756d656e7420646f6573206e6f7420657869737400000000000000000081525060200191505060405180910390fd5b610d417fc602ac61fe2d7fe2c39672ead9844d68fe9fbcef008cfe08a798dfc947d30b8f60001b610578565b610d6d7f1ca5853be6e721b5f6a77df18cc0e0bce129711f4351a3134870fa3e685b5df260001b610578565b610d997fff81f13334513c7e191a9558e637accbd4a890bb8aa91f20907bec304f18acd860001b610578565b6004600088815260200190815260200160002060000187600460008a8152602001908152602001600020600101600460008b8152602001908152602001600020600201600460008c815260200190815260200160002060030154600460008d8152602001908152602001600020600401858054600181600116156101000203166002900480601f016020809104026020016040519081016040528092919081815260200182805460018160011615610100020316600290048015610e9e5780601f10610e7357610100808354040283529160200191610e9e565b820191906000526020600020905b815481529060010190602001808311610e8157829003601f168201915b50505050509550838054600181600116156101000203166002900480601f016020809104026020016040519081016040528092919081815260200182805460018160011615610100020316600290048015610f3a5780601f10610f0f57610100808354040283529160200191610f3a565b820191906000526020600020905b815481529060010190602001808311610f1d57829003601f168201915b50505050509350828054600181600116156101000203166002900480601f016020809104026020016040519081016040528092919081815260200182805460018160011615610100020316600290048015610fd65780601f10610fab57610100808354040283529160200191610fd6565b820191906000526020600020905b815481529060010190602001808311610fb957829003601f168201915b50505050509250808054600181600116156101000203166002900480601f0160208091040260200160405190810160405280929190818152602001828054600181600116156101000203166002900480156110725780601f1061104757610100808354040283529160200191611072565b820191906000526020600020905b81548152906001019060200180831161105557829003601f168201915b5050505050905095509550955095509550955091939550919395565b6003818154811061109b57fe5b906000526020600020016000915090505481565b600060608060006110e27f7157164b96b97e8d8c01d0a955a6d66d36662a5cc68a9232ac943aafb97a2b7660001b610578565b61110e7fac319a87ee5a18fadf8089802724e2ddd558f26c4d30c3cac6f377def5bb437060001b610578565b61113a7fa0a28f4b88a2fcc152b98bfd3c7ae6f0435b8231380653ef9e4004e61b9fb64c60001b610578565b600160009054906101000a900473ffffffffffffffffffffffffffffffffffffffff166000600330828054600181600116156101000203166002900480601f0160208091040260200160405190810160405280929190818152602001828054600181600116156101000203166002900480156111f75780601f106111cc576101008083540402835291602001916111f7565b820191906000526020600020905b8154815290600101906020018083116111da57829003601f168201915b505050505092508180548060200260200160405190810160405280929190818152602001828054801561124957602002820191906000526020600020905b815481526020019060010190808311611235575b50505050509150935093509350935090919293565b828054600181600116156101000203166002900490600052602060002090601f016020900481019282601f1061129f57805160ff19168380011785556112cd565b828001600101855582156112cd579182015b828111156112cc5782518255916020019190600101906112b1565b5b5090506112da91906112de565b5090565b61130091905b808211156112fc5760008160009055506001016112e4565b5090565b9056fe53656e646572206973206e6f7420737570706c696572206f662070726f6a656374a26469706673582212203d81f737d5ef9da03ea9d66dcc8d8a1444891e3d5f33274c73ce535fcda8f2e464736f6c634300060b00334f776e61626c653a206e6577206f776e657220697320746865207a65726f206164647265737350726f6a65637420646f6573206e6f74206578697374206f7220697320636c6f73656450726f6a65637420616c72656164792063726561746564206f7220636c6f736564557365722068617320746f2062652061737369676e656420636c69656e74206f72206f776e6572a264697066735822122007269cf22df033c8010aba551cf207462f591152436270fd0e112e359b85f5f264736f6c634300060b0033",
          "opcodes": "PUSH1 0x80 PUSH1 0x40 MSTORE CALLVALUE DUP1 ISZERO PUSH3 0x11 JUMPI PUSH1 0x0 DUP1 REVERT JUMPDEST POP PUSH1 0x40 MLOAD PUSH3 0x727F CODESIZE SUB DUP1 PUSH3 0x727F DUP4 CODECOPY DUP2 DUP2 ADD PUSH1 0x40 MSTORE PUSH1 0x20 DUP2 LT ISZERO PUSH3 0x37 JUMPI PUSH1 0x0 DUP1 REVERT JUMPDEST DUP2 ADD SWAP1 DUP1 DUP1 MLOAD PUSH1 0x40 MLOAD SWAP4 SWAP3 SWAP2 SWAP1 DUP5 PUSH5 0x100000000 DUP3 GT ISZERO PUSH3 0x58 JUMPI PUSH1 0x0 DUP1 REVERT JUMPDEST DUP4 DUP3 ADD SWAP2 POP PUSH1 0x20 DUP3 ADD DUP6 DUP2 GT ISZERO PUSH3 0x6F JUMPI PUSH1 0x0 DUP1 REVERT JUMPDEST DUP3 MLOAD DUP7 PUSH1 0x1 DUP3 MUL DUP4 ADD GT PUSH5 0x100000000 DUP3 GT OR ISZERO PUSH3 0x8D JUMPI PUSH1 0x0 DUP1 REVERT JUMPDEST DUP1 DUP4 MSTORE PUSH1 0x20 DUP4 ADD SWAP3 POP POP POP SWAP1 DUP1 MLOAD SWAP1 PUSH1 0x20 ADD SWAP1 DUP1 DUP4 DUP4 PUSH1 0x0 JUMPDEST DUP4 DUP2 LT ISZERO PUSH3 0xC3 JUMPI DUP1 DUP3 ADD MLOAD DUP2 DUP5 ADD MSTORE PUSH1 0x20 DUP2 ADD SWAP1 POP PUSH3 0xA6 JUMP JUMPDEST POP POP POP POP SWAP1 POP SWAP1 DUP2 ADD SWAP1 PUSH1 0x1F AND DUP1 ISZERO PUSH3 0xF1 JUMPI DUP1 DUP3 SUB DUP1 MLOAD PUSH1 0x1 DUP4 PUSH1 0x20 SUB PUSH2 0x100 EXP SUB NOT AND DUP2 MSTORE PUSH1 0x20 ADD SWAP2 POP JUMPDEST POP PUSH1 0x40 MSTORE POP POP POP PUSH3 0x12C PUSH32 0xD8B1B5D63EF23900E0BF1D5B4CE4E196C8BDAAA56B4512F239BD043F542DC3FD PUSH1 0x0 SHL PUSH3 0x4EF PUSH1 0x20 SHL PUSH1 0x20 SHR JUMP JUMPDEST PUSH3 0x160 PUSH32 0x7027398BB54727A62713EFE58A784EC56BC6608A91D8CC5FA4F1B3E13E146BB3 PUSH1 0x0 SHL PUSH3 0x4EF PUSH1 0x20 SHL PUSH1 0x20 SHR JUMP JUMPDEST PUSH3 0x194 PUSH32 0xC43B3B3BAB7C40D9098A9DC90071F958CB5A961134A905DBEFBE8041A79EBFE0 PUSH1 0x0 SHL PUSH3 0x4EF PUSH1 0x20 SHL PUSH1 0x20 SHR JUMP JUMPDEST CALLER PUSH1 0x0 DUP1 PUSH2 0x100 EXP DUP2 SLOAD DUP2 PUSH20 0xFFFFFFFFFFFFFFFFFFFFFFFFFFFFFFFFFFFFFFFF MUL NOT AND SWAP1 DUP4 PUSH20 0xFFFFFFFFFFFFFFFFFFFFFFFFFFFFFFFFFFFFFFFF AND MUL OR SWAP1 SSTORE POP PUSH3 0x208 PUSH32 0xD6543CF4FAB2DB5EDE234C295AA3ECECCC9E07C5E4200940D71344C8686162BC PUSH1 0x0 SHL PUSH3 0x4EF PUSH1 0x20 SHL PUSH1 0x20 SHR JUMP JUMPDEST PUSH3 0x23C PUSH32 0xB873D47502AB15AA4C81CAE65ACA06791B8AD21D5113FDE4603086E207750922 PUSH1 0x0 SHL PUSH3 0x4EF PUSH1 0x20 SHL PUSH1 0x20 SHR JUMP JUMPDEST CALLER PUSH20 0xFFFFFFFFFFFFFFFFFFFFFFFFFFFFFFFFFFFFFFFF AND PUSH1 0x0 PUSH20 0xFFFFFFFFFFFFFFFFFFFFFFFFFFFFFFFFFFFFFFFF AND PUSH32 0x8BE0079C531659141344CD1FD0A4F28419497F9722A3DAAFE3B4186F6B6457E0 PUSH1 0x40 MLOAD PUSH1 0x40 MLOAD DUP1 SWAP2 SUB SWAP1 LOG3 PUSH3 0x2CB PUSH32 0x626D73BE395CF385A6937C765870E281F1DEF544F29EAF4B4E838F03635B1352 PUSH1 0x0 SHL PUSH3 0x4F2 PUSH1 0x20 SHL PUSH1 0x20 SHR JUMP JUMPDEST PUSH3 0x2FF PUSH32 0x4908064F143358BC7EC8A44935A2BF149B05983A3B899A66CF0B876EF87AF263 PUSH1 0x0 SHL PUSH3 0x4F2 PUSH1 0x20 SHL PUSH1 0x20 SHR JUMP JUMPDEST PUSH3 0x333 PUSH32 0xEAAB1E0D00D9CBA3911B0E475D69ABB31DF684E0FFD2A1D2B196C8B0A8BE090 PUSH1 0x0 SHL PUSH3 0x4F2 PUSH1 0x20 SHL PUSH1 0x20 SHR JUMP JUMPDEST PUSH1 0x40 MLOAD DUP1 PUSH1 0x60 ADD PUSH1 0x40 MSTORE DUP1 PUSH1 0x1 PUSH1 0x2 DUP2 GT ISZERO PUSH3 0x34C JUMPI INVALID JUMPDEST DUP2 MSTORE PUSH1 0x20 ADD PUSH1 0x0 PUSH1 0x2 DUP2 GT ISZERO PUSH3 0x35F JUMPI INVALID JUMPDEST DUP2 MSTORE PUSH1 0x20 ADD DUP3 DUP2 MSTORE POP PUSH1 0x6 PUSH1 0x0 CALLER PUSH20 0xFFFFFFFFFFFFFFFFFFFFFFFFFFFFFFFFFFFFFFFF AND PUSH20 0xFFFFFFFFFFFFFFFFFFFFFFFFFFFFFFFFFFFFFFFF AND DUP2 MSTORE PUSH1 0x20 ADD SWAP1 DUP2 MSTORE PUSH1 0x20 ADD PUSH1 0x0 KECCAK256 PUSH1 0x0 DUP3 ADD MLOAD DUP2 PUSH1 0x0 ADD PUSH1 0x0 PUSH2 0x100 EXP DUP2 SLOAD DUP2 PUSH1 0xFF MUL NOT AND SWAP1 DUP4 PUSH1 0x2 DUP2 GT ISZERO PUSH3 0x3CC JUMPI INVALID JUMPDEST MUL OR SWAP1 SSTORE POP PUSH1 0x20 DUP3 ADD MLOAD DUP2 PUSH1 0x0 ADD PUSH1 0x1 PUSH2 0x100 EXP DUP2 SLOAD DUP2 PUSH1 0xFF MUL NOT AND SWAP1 DUP4 PUSH1 0x2 DUP2 GT ISZERO PUSH3 0x3F6 JUMPI INVALID JUMPDEST MUL OR SWAP1 SSTORE POP PUSH1 0x40 DUP3 ADD MLOAD DUP2 PUSH1 0x1 ADD SWAP1 DUP1 MLOAD SWAP1 PUSH1 0x20 ADD SWAP1 PUSH3 0x419 SWAP3 SWAP2 SWAP1 PUSH3 0x4F5 JUMP JUMPDEST POP SWAP1 POP POP PUSH3 0x451 PUSH32 0xCEEDD61BBCA926DEAA55D80A237F12FE074FF3116131CBB72F8AE357EC2BE1E2 PUSH1 0x0 SHL PUSH3 0x4F2 PUSH1 0x20 SHL PUSH1 0x20 SHR JUMP JUMPDEST PUSH3 0x485 PUSH32 0x1996E7099ADBD4F809BA8F13AD38E0367B799D7E8BD0735F82D492A4A534C726 PUSH1 0x0 SHL PUSH3 0x4F2 PUSH1 0x20 SHL PUSH1 0x20 SHR JUMP JUMPDEST PUSH1 0x2 CALLER SWAP1 DUP1 PUSH1 0x1 DUP2 SLOAD ADD DUP1 DUP3 SSTORE DUP1 SWAP2 POP POP PUSH1 0x1 SWAP1 SUB SWAP1 PUSH1 0x0 MSTORE PUSH1 0x20 PUSH1 0x0 KECCAK256 ADD PUSH1 0x0 SWAP1 SWAP2 SWAP1 SWAP2 SWAP1 SWAP2 PUSH2 0x100 EXP DUP2 SLOAD DUP2 PUSH20 0xFFFFFFFFFFFFFFFFFFFFFFFFFFFFFFFFFFFFFFFF MUL NOT AND SWAP1 DUP4 PUSH20 0xFFFFFFFFFFFFFFFFFFFFFFFFFFFFFFFFFFFFFFFF AND MUL OR SWAP1 SSTORE POP POP PUSH3 0x5A4 JUMP JUMPDEST POP JUMP JUMPDEST POP JUMP JUMPDEST DUP3 DUP1 SLOAD PUSH1 0x1 DUP2 PUSH1 0x1 AND ISZERO PUSH2 0x100 MUL SUB AND PUSH1 0x2 SWAP1 DIV SWAP1 PUSH1 0x0 MSTORE PUSH1 0x20 PUSH1 0x0 KECCAK256 SWAP1 PUSH1 0x1F ADD PUSH1 0x20 SWAP1 DIV DUP2 ADD SWAP3 DUP3 PUSH1 0x1F LT PUSH3 0x538 JUMPI DUP1 MLOAD PUSH1 0xFF NOT AND DUP4 DUP1 ADD OR DUP6 SSTORE PUSH3 0x569 JUMP JUMPDEST DUP3 DUP1 ADD PUSH1 0x1 ADD DUP6 SSTORE DUP3 ISZERO PUSH3 0x569 JUMPI SWAP2 DUP3 ADD JUMPDEST DUP3 DUP2 GT ISZERO PUSH3 0x568 JUMPI DUP3 MLOAD DUP3 SSTORE SWAP2 PUSH1 0x20 ADD SWAP2 SWAP1 PUSH1 0x1 ADD SWAP1 PUSH3 0x54B JUMP JUMPDEST JUMPDEST POP SWAP1 POP PUSH3 0x578 SWAP2 SWAP1 PUSH3 0x57C JUMP JUMPDEST POP SWAP1 JUMP JUMPDEST PUSH3 0x5A1 SWAP2 SWAP1 JUMPDEST DUP1 DUP3 GT ISZERO PUSH3 0x59D JUMPI PUSH1 0x0 DUP2 PUSH1 0x0 SWAP1 SSTORE POP PUSH1 0x1 ADD PUSH3 0x583 JUMP JUMPDEST POP SWAP1 JUMP JUMPDEST SWAP1 JUMP JUMPDEST PUSH2 0x6CCB DUP1 PUSH3 0x5B4 PUSH1 0x0 CODECOPY PUSH1 0x0 RETURN INVALID PUSH1 0x80 PUSH1 0x40 MSTORE CALLVALUE DUP1 ISZERO PUSH3 0x11 JUMPI PUSH1 0x0 DUP1 REVERT JUMPDEST POP PUSH1 0x4 CALLDATASIZE LT PUSH3 0x160 JUMPI PUSH1 0x0 CALLDATALOAD PUSH1 0xE0 SHR DUP1 PUSH4 0x73F04D7F GT PUSH3 0xC9 JUMPI DUP1 PUSH4 0x8DA5CB5B GT PUSH3 0x87 JUMPI DUP1 PUSH4 0x8DA5CB5B EQ PUSH3 0x987 JUMPI DUP1 PUSH4 0xB93AD1E5 EQ PUSH3 0x9D3 JUMPI DUP1 PUSH4 0xC70F07B4 EQ PUSH3 0xA7F JUMPI DUP1 PUSH4 0xE2842D79 EQ PUSH3 0xAC6 JUMPI DUP1 PUSH4 0xE6C39930 EQ PUSH3 0xB29 JUMPI DUP1 PUSH4 0xF2FDE38B EQ PUSH3 0xB9A JUMPI PUSH3 0x160 JUMP JUMPDEST DUP1 PUSH4 0x73F04D7F EQ PUSH3 0x7C2 JUMPI DUP1 PUSH4 0x743D3D6A EQ PUSH3 0x813 JUMPI DUP1 PUSH4 0x854DBE58 EQ PUSH3 0x844 JUMPI DUP1 PUSH4 0x86592428 EQ PUSH3 0x925 JUMPI DUP1 PUSH4 0x8B8A417E EQ PUSH3 0x956 JUMPI PUSH3 0x160 JUMP JUMPDEST DUP1 PUSH4 0x64B785FA GT PUSH3 0x123 JUMPI DUP1 PUSH4 0x64B785FA EQ PUSH3 0x4E8 JUMPI DUP1 PUSH4 0x64FEFF20 EQ PUSH3 0x52D JUMPI DUP1 PUSH4 0x6CCDD746 EQ PUSH3 0x5CC JUMPI DUP1 PUSH4 0x6F77926B EQ PUSH3 0x631 JUMPI DUP1 PUSH4 0x71198EB6 EQ PUSH3 0x753 JUMPI DUP1 PUSH4 0x715018A6 EQ PUSH3 0x7B6 JUMPI PUSH3 0x160 JUMP JUMPDEST DUP1 PUSH4 0x4CB7A7BA EQ PUSH3 0x165 JUMPI DUP1 PUSH4 0x5231DE83 EQ PUSH3 0x1F6 JUMPI DUP1 PUSH4 0x5C6DB281 EQ PUSH3 0x259 JUMPI DUP1 PUSH4 0x5CAD5BFD EQ PUSH3 0x2E1 JUMPI DUP1 PUSH4 0x5F8439E3 EQ PUSH3 0x332 JUMPI JUMPDEST PUSH1 0x0 DUP1 REVERT JUMPDEST PUSH3 0x1B4 PUSH1 0x4 DUP1 CALLDATASIZE SUB PUSH1 0x40 DUP2 LT ISZERO PUSH3 0x17D JUMPI PUSH1 0x0 DUP1 REVERT JUMPDEST DUP2 ADD SWAP1 DUP1 DUP1 CALLDATALOAD PUSH20 0xFFFFFFFFFFFFFFFFFFFFFFFFFFFFFFFFFFFFFFFF AND SWAP1 PUSH1 0x20 ADD SWAP1 SWAP3 SWAP2 SWAP1 DUP1 CALLDATALOAD SWAP1 PUSH1 0x20 ADD SWAP1 SWAP3 SWAP2 SWAP1 POP POP POP PUSH3 0xBE1 JUMP JUMPDEST PUSH1 0x40 MLOAD DUP1 DUP3 PUSH20 0xFFFFFFFFFFFFFFFFFFFFFFFFFFFFFFFFFFFFFFFF AND PUSH20 0xFFFFFFFFFFFFFFFFFFFFFFFFFFFFFFFFFFFFFFFF AND DUP2 MSTORE PUSH1 0x20 ADD SWAP2 POP POP PUSH1 0x40 MLOAD DUP1 SWAP2 SUB SWAP1 RETURN JUMPDEST PUSH3 0x200 PUSH3 0xC2D JUMP JUMPDEST PUSH1 0x40 MLOAD DUP1 DUP1 PUSH1 0x20 ADD DUP3 DUP2 SUB DUP3 MSTORE DUP4 DUP2 DUP2 MLOAD DUP2 MSTORE PUSH1 0x20 ADD SWAP2 POP DUP1 MLOAD SWAP1 PUSH1 0x20 ADD SWAP1 PUSH1 0x20 MUL DUP1 DUP4 DUP4 PUSH1 0x0 JUMPDEST DUP4 DUP2 LT ISZERO PUSH3 0x245 JUMPI DUP1 DUP3 ADD MLOAD DUP2 DUP5 ADD MSTORE PUSH1 0x20 DUP2 ADD SWAP1 POP PUSH3 0x228 JUMP JUMPDEST POP POP POP POP SWAP1 POP ADD SWAP3 POP POP POP PUSH1 0x40 MLOAD DUP1 SWAP2 SUB SWAP1 RETURN JUMPDEST PUSH3 0x288 PUSH1 0x4 DUP1 CALLDATASIZE SUB PUSH1 0x20 DUP2 LT ISZERO PUSH3 0x271 JUMPI PUSH1 0x0 DUP1 REVERT JUMPDEST DUP2 ADD SWAP1 DUP1 DUP1 CALLDATALOAD SWAP1 PUSH1 0x20 ADD SWAP1 SWAP3 SWAP2 SWAP1 POP POP POP PUSH3 0xEFC JUMP JUMPDEST PUSH1 0x40 MLOAD DUP1 DUP1 PUSH1 0x20 ADD DUP3 DUP2 SUB DUP3 MSTORE DUP4 DUP2 DUP2 MLOAD DUP2 MSTORE PUSH1 0x20 ADD SWAP2 POP DUP1 MLOAD SWAP1 PUSH1 0x20 ADD SWAP1 PUSH1 0x20 MUL DUP1 DUP4 DUP4 PUSH1 0x0 JUMPDEST DUP4 DUP2 LT ISZERO PUSH3 0x2CD JUMPI DUP1 DUP3 ADD MLOAD DUP2 DUP5 ADD MSTORE PUSH1 0x20 DUP2 ADD SWAP1 POP PUSH3 0x2B0 JUMP JUMPDEST POP POP POP POP SWAP1 POP ADD SWAP3 POP POP POP PUSH1 0x40 MLOAD DUP1 SWAP2 SUB SWAP1 RETURN JUMPDEST PUSH3 0x330 PUSH1 0x4 DUP1 CALLDATASIZE SUB PUSH1 0x40 DUP2 LT ISZERO PUSH3 0x2F9 JUMPI PUSH1 0x0 DUP1 REVERT JUMPDEST DUP2 ADD SWAP1 DUP1 DUP1 CALLDATALOAD SWAP1 PUSH1 0x20 ADD SWAP1 SWAP3 SWAP2 SWAP1 DUP1 CALLDATALOAD PUSH20 0xFFFFFFFFFFFFFFFFFFFFFFFFFFFFFFFFFFFFFFFF AND SWAP1 PUSH1 0x20 ADD SWAP1 SWAP3 SWAP2 SWAP1 POP POP POP PUSH3 0x11FC JUMP JUMPDEST STOP JUMPDEST PUSH3 0x361 PUSH1 0x4 DUP1 CALLDATASIZE SUB PUSH1 0x20 DUP2 LT ISZERO PUSH3 0x34A JUMPI PUSH1 0x0 DUP1 REVERT JUMPDEST DUP2 ADD SWAP1 DUP1 DUP1 CALLDATALOAD SWAP1 PUSH1 0x20 ADD SWAP1 SWAP3 SWAP2 SWAP1 POP POP POP PUSH3 0x163F JUMP JUMPDEST PUSH1 0x40 MLOAD DUP1 DUP8 PUSH1 0x2 DUP2 GT ISZERO PUSH3 0x372 JUMPI INVALID JUMPDEST PUSH1 0xFF AND DUP2 MSTORE PUSH1 0x20 ADD DUP7 DUP2 MSTORE PUSH1 0x20 ADD DUP6 PUSH20 0xFFFFFFFFFFFFFFFFFFFFFFFFFFFFFFFFFFFFFFFF AND PUSH20 0xFFFFFFFFFFFFFFFFFFFFFFFFFFFFFFFFFFFFFFFF AND DUP2 MSTORE PUSH1 0x20 ADD DUP1 PUSH1 0x20 ADD DUP1 PUSH1 0x20 ADD DUP1 PUSH1 0x20 ADD DUP5 DUP2 SUB DUP5 MSTORE DUP8 DUP2 DUP2 MLOAD DUP2 MSTORE PUSH1 0x20 ADD SWAP2 POP DUP1 MLOAD SWAP1 PUSH1 0x20 ADD SWAP1 DUP1 DUP4 DUP4 PUSH1 0x0 JUMPDEST DUP4 DUP2 LT ISZERO PUSH3 0x3F8 JUMPI DUP1 DUP3 ADD MLOAD DUP2 DUP5 ADD MSTORE PUSH1 0x20 DUP2 ADD SWAP1 POP PUSH3 0x3DB JUMP JUMPDEST POP POP POP POP SWAP1 POP SWAP1 DUP2 ADD SWAP1 PUSH1 0x1F AND DUP1 ISZERO PUSH3 0x426 JUMPI DUP1 DUP3 SUB DUP1 MLOAD PUSH1 0x1 DUP4 PUSH1 0x20 SUB PUSH2 0x100 EXP SUB NOT AND DUP2 MSTORE PUSH1 0x20 ADD SWAP2 POP JUMPDEST POP DUP5 DUP2 SUB DUP4 MSTORE DUP7 DUP2 DUP2 MLOAD DUP2 MSTORE PUSH1 0x20 ADD SWAP2 POP DUP1 MLOAD SWAP1 PUSH1 0x20 ADD SWAP1 DUP1 DUP4 DUP4 PUSH1 0x0 JUMPDEST DUP4 DUP2 LT ISZERO PUSH3 0x461 JUMPI DUP1 DUP3 ADD MLOAD DUP2 DUP5 ADD MSTORE PUSH1 0x20 DUP2 ADD SWAP1 POP PUSH3 0x444 JUMP JUMPDEST POP POP POP POP SWAP1 POP SWAP1 DUP2 ADD SWAP1 PUSH1 0x1F AND DUP1 ISZERO PUSH3 0x48F JUMPI DUP1 DUP3 SUB DUP1 MLOAD PUSH1 0x1 DUP4 PUSH1 0x20 SUB PUSH2 0x100 EXP SUB NOT AND DUP2 MSTORE PUSH1 0x20 ADD SWAP2 POP JUMPDEST POP DUP5 DUP2 SUB DUP3 MSTORE DUP6 DUP2 DUP2 MLOAD DUP2 MSTORE PUSH1 0x20 ADD SWAP2 POP DUP1 MLOAD SWAP1 PUSH1 0x20 ADD SWAP1 PUSH1 0x20 MUL DUP1 DUP4 DUP4 PUSH1 0x0 JUMPDEST DUP4 DUP2 LT ISZERO PUSH3 0x4CD JUMPI DUP1 DUP3 ADD MLOAD DUP2 DUP5 ADD MSTORE PUSH1 0x20 DUP2 ADD SWAP1 POP PUSH3 0x4B0 JUMP JUMPDEST POP POP POP POP SWAP1 POP ADD SWAP10 POP POP POP POP POP POP POP POP POP POP PUSH1 0x40 MLOAD DUP1 SWAP2 SUB SWAP1 RETURN JUMPDEST PUSH3 0x517 PUSH1 0x4 DUP1 CALLDATASIZE SUB PUSH1 0x20 DUP2 LT ISZERO PUSH3 0x500 JUMPI PUSH1 0x0 DUP1 REVERT JUMPDEST DUP2 ADD SWAP1 DUP1 DUP1 CALLDATALOAD SWAP1 PUSH1 0x20 ADD SWAP1 SWAP3 SWAP2 SWAP1 POP POP POP PUSH3 0x1B04 JUMP JUMPDEST PUSH1 0x40 MLOAD DUP1 DUP3 DUP2 MSTORE PUSH1 0x20 ADD SWAP2 POP POP PUSH1 0x40 MLOAD DUP1 SWAP2 SUB SWAP1 RETURN JUMPDEST PUSH3 0x5CA PUSH1 0x4 DUP1 CALLDATASIZE SUB PUSH1 0x40 DUP2 LT ISZERO PUSH3 0x545 JUMPI PUSH1 0x0 DUP1 REVERT JUMPDEST DUP2 ADD SWAP1 DUP1 DUP1 CALLDATALOAD PUSH20 0xFFFFFFFFFFFFFFFFFFFFFFFFFFFFFFFFFFFFFFFF AND SWAP1 PUSH1 0x20 ADD SWAP1 SWAP3 SWAP2 SWAP1 DUP1 CALLDATALOAD SWAP1 PUSH1 0x20 ADD SWAP1 PUSH5 0x100000000 DUP2 GT ISZERO PUSH3 0x583 JUMPI PUSH1 0x0 DUP1 REVERT JUMPDEST DUP3 ADD DUP4 PUSH1 0x20 DUP3 ADD GT ISZERO PUSH3 0x596 JUMPI PUSH1 0x0 DUP1 REVERT JUMPDEST DUP1 CALLDATALOAD SWAP1 PUSH1 0x20 ADD SWAP2 DUP5 PUSH1 0x1 DUP4 MUL DUP5 ADD GT PUSH5 0x100000000 DUP4 GT OR ISZERO PUSH3 0x5B9 JUMPI PUSH1 0x0 DUP1 REVERT JUMPDEST SWAP1 SWAP2 SWAP3 SWAP4 SWAP2 SWAP3 SWAP4 SWAP1 POP POP POP PUSH3 0x1B26 JUMP JUMPDEST STOP JUMPDEST PUSH3 0x61B PUSH1 0x4 DUP1 CALLDATASIZE SUB PUSH1 0x40 DUP2 LT ISZERO PUSH3 0x5E4 JUMPI PUSH1 0x0 DUP1 REVERT JUMPDEST DUP2 ADD SWAP1 DUP1 DUP1 CALLDATALOAD PUSH20 0xFFFFFFFFFFFFFFFFFFFFFFFFFFFFFFFFFFFFFFFF AND SWAP1 PUSH1 0x20 ADD SWAP1 SWAP3 SWAP2 SWAP1 DUP1 CALLDATALOAD SWAP1 PUSH1 0x20 ADD SWAP1 SWAP3 SWAP2 SWAP1 POP POP POP PUSH3 0x20DF JUMP JUMPDEST PUSH1 0x40 MLOAD DUP1 DUP3 DUP2 MSTORE PUSH1 0x20 ADD SWAP2 POP POP PUSH1 0x40 MLOAD DUP1 SWAP2 SUB SWAP1 RETURN JUMPDEST PUSH3 0x676 PUSH1 0x4 DUP1 CALLDATASIZE SUB PUSH1 0x20 DUP2 LT ISZERO PUSH3 0x649 JUMPI PUSH1 0x0 DUP1 REVERT JUMPDEST DUP2 ADD SWAP1 DUP1 DUP1 CALLDATALOAD PUSH20 0xFFFFFFFFFFFFFFFFFFFFFFFFFFFFFFFFFFFFFFFF AND SWAP1 PUSH1 0x20 ADD SWAP1 SWAP3 SWAP2 SWAP1 POP POP POP PUSH3 0x210E JUMP JUMPDEST PUSH1 0x40 MLOAD DUP1 DUP6 PUSH1 0x2 DUP2 GT ISZERO PUSH3 0x687 JUMPI INVALID JUMPDEST PUSH1 0xFF AND DUP2 MSTORE PUSH1 0x20 ADD DUP5 PUSH1 0x2 DUP2 GT ISZERO PUSH3 0x69C JUMPI INVALID JUMPDEST PUSH1 0xFF AND DUP2 MSTORE PUSH1 0x20 ADD DUP1 PUSH1 0x20 ADD DUP4 PUSH20 0xFFFFFFFFFFFFFFFFFFFFFFFFFFFFFFFFFFFFFFFF AND PUSH20 0xFFFFFFFFFFFFFFFFFFFFFFFFFFFFFFFFFFFFFFFF AND DUP2 MSTORE PUSH1 0x20 ADD DUP3 DUP2 SUB DUP3 MSTORE DUP5 DUP2 DUP2 MLOAD DUP2 MSTORE PUSH1 0x20 ADD SWAP2 POP DUP1 MLOAD SWAP1 PUSH1 0x20 ADD SWAP1 DUP1 DUP4 DUP4 PUSH1 0x0 JUMPDEST DUP4 DUP2 LT ISZERO PUSH3 0x714 JUMPI DUP1 DUP3 ADD MLOAD DUP2 DUP5 ADD MSTORE PUSH1 0x20 DUP2 ADD SWAP1 POP PUSH3 0x6F7 JUMP JUMPDEST POP POP POP POP SWAP1 POP SWAP1 DUP2 ADD SWAP1 PUSH1 0x1F AND DUP1 ISZERO PUSH3 0x742 JUMPI DUP1 DUP3 SUB DUP1 MLOAD PUSH1 0x1 DUP4 PUSH1 0x20 SUB PUSH2 0x100 EXP SUB NOT AND DUP2 MSTORE PUSH1 0x20 ADD SWAP2 POP JUMPDEST POP SWAP6 POP POP POP POP POP POP PUSH1 0x40 MLOAD DUP1 SWAP2 SUB SWAP1 RETURN JUMPDEST PUSH3 0x75D PUSH3 0x2523 JUMP JUMPDEST PUSH1 0x40 MLOAD DUP1 DUP1 PUSH1 0x20 ADD DUP3 DUP2 SUB DUP3 MSTORE DUP4 DUP2 DUP2 MLOAD DUP2 MSTORE PUSH1 0x20 ADD SWAP2 POP DUP1 MLOAD SWAP1 PUSH1 0x20 ADD SWAP1 PUSH1 0x20 MUL DUP1 DUP4 DUP4 PUSH1 0x0 JUMPDEST DUP4 DUP2 LT ISZERO PUSH3 0x7A2 JUMPI DUP1 DUP3 ADD MLOAD DUP2 DUP5 ADD MSTORE PUSH1 0x20 DUP2 ADD SWAP1 POP PUSH3 0x785 JUMP JUMPDEST POP POP POP POP SWAP1 POP ADD SWAP3 POP POP POP PUSH1 0x40 MLOAD DUP1 SWAP2 SUB SWAP1 RETURN JUMPDEST PUSH3 0x7C0 PUSH3 0x285E JUMP JUMPDEST STOP JUMPDEST PUSH3 0x811 PUSH1 0x4 DUP1 CALLDATASIZE SUB PUSH1 0x40 DUP2 LT ISZERO PUSH3 0x7DA JUMPI PUSH1 0x0 DUP1 REVERT JUMPDEST DUP2 ADD SWAP1 DUP1 DUP1 CALLDATALOAD SWAP1 PUSH1 0x20 ADD SWAP1 SWAP3 SWAP2 SWAP1 DUP1 CALLDATALOAD PUSH20 0xFFFFFFFFFFFFFFFFFFFFFFFFFFFFFFFFFFFFFFFF AND SWAP1 PUSH1 0x20 ADD SWAP1 SWAP3 SWAP2 SWAP1 POP POP POP PUSH3 0x2BDA JUMP JUMPDEST STOP JUMPDEST PUSH3 0x842 PUSH1 0x4 DUP1 CALLDATASIZE SUB PUSH1 0x20 DUP2 LT ISZERO PUSH3 0x82B JUMPI PUSH1 0x0 DUP1 REVERT JUMPDEST DUP2 ADD SWAP1 DUP1 DUP1 CALLDATALOAD SWAP1 PUSH1 0x20 ADD SWAP1 SWAP3 SWAP2 SWAP1 POP POP POP PUSH3 0x30CB JUMP JUMPDEST STOP JUMPDEST PUSH3 0x923 PUSH1 0x4 DUP1 CALLDATASIZE SUB PUSH1 0x60 DUP2 LT ISZERO PUSH3 0x85C JUMPI PUSH1 0x0 DUP1 REVERT JUMPDEST DUP2 ADD SWAP1 DUP1 DUP1 CALLDATALOAD SWAP1 PUSH1 0x20 ADD SWAP1 SWAP3 SWAP2 SWAP1 DUP1 CALLDATALOAD SWAP1 PUSH1 0x20 ADD SWAP1 PUSH5 0x100000000 DUP2 GT ISZERO PUSH3 0x884 JUMPI PUSH1 0x0 DUP1 REVERT JUMPDEST DUP3 ADD DUP4 PUSH1 0x20 DUP3 ADD GT ISZERO PUSH3 0x897 JUMPI PUSH1 0x0 DUP1 REVERT JUMPDEST DUP1 CALLDATALOAD SWAP1 PUSH1 0x20 ADD SWAP2 DUP5 PUSH1 0x1 DUP4 MUL DUP5 ADD GT PUSH5 0x100000000 DUP4 GT OR ISZERO PUSH3 0x8BA JUMPI PUSH1 0x0 DUP1 REVERT JUMPDEST SWAP1 SWAP2 SWAP3 SWAP4 SWAP2 SWAP3 SWAP4 SWAP1 DUP1 CALLDATALOAD SWAP1 PUSH1 0x20 ADD SWAP1 PUSH5 0x100000000 DUP2 GT ISZERO PUSH3 0x8DC JUMPI PUSH1 0x0 DUP1 REVERT JUMPDEST DUP3 ADD DUP4 PUSH1 0x20 DUP3 ADD GT ISZERO PUSH3 0x8EF JUMPI PUSH1 0x0 DUP1 REVERT JUMPDEST DUP1 CALLDATALOAD SWAP1 PUSH1 0x20 ADD SWAP2 DUP5 PUSH1 0x1 DUP4 MUL DUP5 ADD GT PUSH5 0x100000000 DUP4 GT OR ISZERO PUSH3 0x912 JUMPI PUSH1 0x0 DUP1 REVERT JUMPDEST SWAP1 SWAP2 SWAP3 SWAP4 SWAP2 SWAP3 SWAP4 SWAP1 POP POP POP PUSH3 0x30CE JUMP JUMPDEST STOP JUMPDEST PUSH3 0x954 PUSH1 0x4 DUP1 CALLDATASIZE SUB PUSH1 0x20 DUP2 LT ISZERO PUSH3 0x93D JUMPI PUSH1 0x0 DUP1 REVERT JUMPDEST DUP2 ADD SWAP1 DUP1 DUP1 CALLDATALOAD SWAP1 PUSH1 0x20 ADD SWAP1 SWAP3 SWAP2 SWAP1 POP POP POP PUSH3 0x37FE JUMP JUMPDEST STOP JUMPDEST PUSH3 0x985 PUSH1 0x4 DUP1 CALLDATASIZE SUB PUSH1 0x20 DUP2 LT ISZERO PUSH3 0x96E JUMPI PUSH1 0x0 DUP1 REVERT JUMPDEST DUP2 ADD SWAP1 DUP1 DUP1 CALLDATALOAD SWAP1 PUSH1 0x20 ADD SWAP1 SWAP3 SWAP2 SWAP1 POP POP POP PUSH3 0x3801 JUMP JUMPDEST STOP JUMPDEST PUSH3 0x991 PUSH3 0x3E41 JUMP JUMPDEST PUSH1 0x40 MLOAD DUP1 DUP3 PUSH20 0xFFFFFFFFFFFFFFFFFFFFFFFFFFFFFFFFFFFFFFFF AND PUSH20 0xFFFFFFFFFFFFFFFFFFFFFFFFFFFFFFFFFFFFFFFF AND DUP2 MSTORE PUSH1 0x20 ADD SWAP2 POP POP PUSH1 0x40 MLOAD DUP1 SWAP2 SUB SWAP1 RETURN JUMPDEST PUSH3 0xA7D PUSH1 0x4 DUP1 CALLDATASIZE SUB PUSH1 0x60 DUP2 LT ISZERO PUSH3 0x9EB JUMPI PUSH1 0x0 DUP1 REVERT JUMPDEST DUP2 ADD SWAP1 DUP1 DUP1 CALLDATALOAD PUSH1 0xFF AND SWAP1 PUSH1 0x20 ADD SWAP1 SWAP3 SWAP2 SWAP1 DUP1 CALLDATALOAD PUSH20 0xFFFFFFFFFFFFFFFFFFFFFFFFFFFFFFFFFFFFFFFF AND SWAP1 PUSH1 0x20 ADD SWAP1 SWAP3 SWAP2 SWAP1 DUP1 CALLDATALOAD SWAP1 PUSH1 0x20 ADD SWAP1 PUSH5 0x100000000 DUP2 GT ISZERO PUSH3 0xA36 JUMPI PUSH1 0x0 DUP1 REVERT JUMPDEST DUP3 ADD DUP4 PUSH1 0x20 DUP3 ADD GT ISZERO PUSH3 0xA49 JUMPI PUSH1 0x0 DUP1 REVERT JUMPDEST DUP1 CALLDATALOAD SWAP1 PUSH1 0x20 ADD SWAP2 DUP5 PUSH1 0x1 DUP4 MUL DUP5 ADD GT PUSH5 0x100000000 DUP4 GT OR ISZERO PUSH3 0xA6C JUMPI PUSH1 0x0 DUP1 REVERT JUMPDEST SWAP1 SWAP2 SWAP3 SWAP4 SWAP2 SWAP3 SWAP4 SWAP1 POP POP POP PUSH3 0x3EF4 JUMP JUMPDEST STOP JUMPDEST PUSH3 0xAC4 PUSH1 0x4 DUP1 CALLDATASIZE SUB PUSH1 0x20 DUP2 LT ISZERO PUSH3 0xA97 JUMPI PUSH1 0x0 DUP1 REVERT JUMPDEST DUP2 ADD SWAP1 DUP1 DUP1 CALLDATALOAD PUSH20 0xFFFFFFFFFFFFFFFFFFFFFFFFFFFFFFFFFFFFFFFF AND SWAP1 PUSH1 0x20 ADD SWAP1 SWAP3 SWAP2 SWAP1 POP POP POP PUSH3 0x4406 JUMP JUMPDEST STOP JUMPDEST PUSH3 0xAD0 PUSH3 0x4B4E JUMP JUMPDEST PUSH1 0x40 MLOAD DUP1 DUP1 PUSH1 0x20 ADD DUP3 DUP2 SUB DUP3 MSTORE DUP4 DUP2 DUP2 MLOAD DUP2 MSTORE PUSH1 0x20 ADD SWAP2 POP DUP1 MLOAD SWAP1 PUSH1 0x20 ADD SWAP1 PUSH1 0x20 MUL DUP1 DUP4 DUP4 PUSH1 0x0 JUMPDEST DUP4 DUP2 LT ISZERO PUSH3 0xB15 JUMPI DUP1 DUP3 ADD MLOAD DUP2 DUP5 ADD MSTORE PUSH1 0x20 DUP2 ADD SWAP1 POP PUSH3 0xAF8 JUMP JUMPDEST POP POP POP POP SWAP1 POP ADD SWAP3 POP POP POP PUSH1 0x40 MLOAD DUP1 SWAP2 SUB SWAP1 RETURN JUMPDEST PUSH3 0xB58 PUSH1 0x4 DUP1 CALLDATASIZE SUB PUSH1 0x20 DUP2 LT ISZERO PUSH3 0xB41 JUMPI PUSH1 0x0 DUP1 REVERT JUMPDEST DUP2 ADD SWAP1 DUP1 DUP1 CALLDATALOAD SWAP1 PUSH1 0x20 ADD SWAP1 SWAP3 SWAP2 SWAP1 POP POP POP PUSH3 0x4E3F JUMP JUMPDEST PUSH1 0x40 MLOAD DUP1 DUP3 PUSH20 0xFFFFFFFFFFFFFFFFFFFFFFFFFFFFFFFFFFFFFFFF AND PUSH20 0xFFFFFFFFFFFFFFFFFFFFFFFFFFFFFFFFFFFFFFFF AND DUP2 MSTORE PUSH1 0x20 ADD SWAP2 POP POP PUSH1 0x40 MLOAD DUP1 SWAP2 SUB SWAP1 RETURN JUMPDEST PUSH3 0xBDF PUSH1 0x4 DUP1 CALLDATASIZE SUB PUSH1 0x20 DUP2 LT ISZERO PUSH3 0xBB2 JUMPI PUSH1 0x0 DUP1 REVERT JUMPDEST DUP2 ADD SWAP1 DUP1 DUP1 CALLDATALOAD PUSH20 0xFFFFFFFFFFFFFFFFFFFFFFFFFFFFFFFFFFFFFFFF AND SWAP1 PUSH1 0x20 ADD SWAP1 SWAP3 SWAP2 SWAP1 POP POP POP PUSH3 0x4E7C JUMP JUMPDEST STOP JUMPDEST PUSH1 0x5 PUSH1 0x20 MSTORE DUP2 PUSH1 0x0 MSTORE PUSH1 0x40 PUSH1 0x0 KECCAK256 DUP2 DUP2 SLOAD DUP2 LT PUSH3 0xBFB JUMPI INVALID JUMPDEST SWAP1 PUSH1 0x0 MSTORE PUSH1 0x20 PUSH1 0x0 KECCAK256 ADD PUSH1 0x0 SWAP2 POP SWAP2 POP SWAP1 SLOAD SWAP1 PUSH2 0x100 EXP SWAP1 DIV PUSH20 0xFFFFFFFFFFFFFFFFFFFFFFFFFFFFFFFFFFFFFFFF AND DUP2 JUMP JUMPDEST PUSH1 0x60 PUSH3 0xC5D PUSH32 0x10FB910A34F3EC79634BEDDA1318E94925166186CFE1FD70CC23DD4DCFA21896 PUSH1 0x0 SHL PUSH3 0x30CB JUMP JUMPDEST PUSH3 0xC8B PUSH32 0xA9F2601CF57C0ED5955429FA4D2E15104482E7C5D3596C5E550F6BA49181273C PUSH1 0x0 SHL PUSH3 0x30CB JUMP JUMPDEST PUSH3 0xCB9 PUSH32 0x43FBCF51859196F62ACDAABBBB8BFA17CFF9F1C1AED4CBCE0BC262B095799CFA PUSH1 0x0 SHL PUSH3 0x30CB JUMP JUMPDEST PUSH3 0xCC3 PUSH3 0x3E41 JUMP JUMPDEST PUSH20 0xFFFFFFFFFFFFFFFFFFFFFFFFFFFFFFFFFFFFFFFF AND CALLER PUSH20 0xFFFFFFFFFFFFFFFFFFFFFFFFFFFFFFFFFFFFFFFF AND EQ ISZERO PUSH3 0xDDC JUMPI PUSH3 0xD25 PUSH32 0xCE93B258F250955DC0A64F12F1DD6020FC0D0FC76D00FC6ADB7D7E99EB1E49FF PUSH1 0x0 SHL PUSH3 0x30CB JUMP JUMPDEST PUSH3 0xD53 PUSH32 0xB4D46D64324431D32A1CA509CD24FFF17496C25D234F71B5F17D20684C8A4808 PUSH1 0x0 SHL PUSH3 0x30CB JUMP JUMPDEST PUSH3 0xD81 PUSH32 0xF9BE7A620B290F84EB9BD8F476FF4446A5A2C39FA0EF860C882E4B018C4ACDB0 PUSH1 0x0 SHL PUSH3 0x30CB JUMP JUMPDEST PUSH1 0x3 DUP1 SLOAD DUP1 PUSH1 0x20 MUL PUSH1 0x20 ADD PUSH1 0x40 MLOAD SWAP1 DUP2 ADD PUSH1 0x40 MSTORE DUP1 SWAP3 SWAP2 SWAP1 DUP2 DUP2 MSTORE PUSH1 0x20 ADD DUP3 DUP1 SLOAD DUP1 ISZERO PUSH3 0xDCF JUMPI PUSH1 0x20 MUL DUP3 ADD SWAP2 SWAP1 PUSH1 0x0 MSTORE PUSH1 0x20 PUSH1 0x0 KECCAK256 SWAP1 JUMPDEST DUP2 SLOAD DUP2 MSTORE PUSH1 0x20 ADD SWAP1 PUSH1 0x1 ADD SWAP1 DUP1 DUP4 GT PUSH3 0xDBA JUMPI JUMPDEST POP POP POP POP POP SWAP1 POP PUSH3 0xEF9 JUMP JUMPDEST PUSH3 0xE0A PUSH32 0x3439D65D75F465C15A919D240DD7FEAB68CAB4F55B6233BBA927C71A60A835EF PUSH1 0x0 SHL PUSH3 0x30CB JUMP JUMPDEST PUSH3 0xE38 PUSH32 0x2B51C168639B1170EF52347258C0E249A71EFC37E62C14D31BA02BAC2E8C8F79 PUSH1 0x0 SHL PUSH3 0x30CB JUMP JUMPDEST PUSH3 0xE66 PUSH32 0x3541D6501CC383498F63F748B2712CCCA814C3E0CFE049BFB7CDC07AEFF76EF2 PUSH1 0x0 SHL PUSH3 0x30CB JUMP JUMPDEST PUSH1 0x4 PUSH1 0x0 CALLER PUSH20 0xFFFFFFFFFFFFFFFFFFFFFFFFFFFFFFFFFFFFFFFF AND PUSH20 0xFFFFFFFFFFFFFFFFFFFFFFFFFFFFFFFFFFFFFFFF AND DUP2 MSTORE PUSH1 0x20 ADD SWAP1 DUP2 MSTORE PUSH1 0x20 ADD PUSH1 0x0 KECCAK256 DUP1 SLOAD DUP1 PUSH1 0x20 MUL PUSH1 0x20 ADD PUSH1 0x40 MLOAD SWAP1 DUP2 ADD PUSH1 0x40 MSTORE DUP1 SWAP3 SWAP2 SWAP1 DUP2 DUP2 MSTORE PUSH1 0x20 ADD DUP3 DUP1 SLOAD DUP1 ISZERO PUSH3 0xEF1 JUMPI PUSH1 0x20 MUL DUP3 ADD SWAP2 SWAP1 PUSH1 0x0 MSTORE PUSH1 0x20 PUSH1 0x0 KECCAK256 SWAP1 JUMPDEST DUP2 SLOAD DUP2 MSTORE PUSH1 0x20 ADD SWAP1 PUSH1 0x1 ADD SWAP1 DUP1 DUP4 GT PUSH3 0xEDC JUMPI JUMPDEST POP POP POP POP POP SWAP1 POP JUMPDEST SWAP1 JUMP JUMPDEST PUSH1 0x60 PUSH3 0xF2C PUSH32 0x4FB6993B73DAA0043BB064FAFE8D72CEC3D82679AA615AAF1A4DE3A560BB5B2D PUSH1 0x0 SHL PUSH3 0x30CB JUMP JUMPDEST PUSH3 0xF5A PUSH32 0x8FB8C5B02CAB304B3ABD97E6278737508365AA45BE532D48FF597DF5AE9CB521 PUSH1 0x0 SHL PUSH3 0x30CB JUMP JUMPDEST PUSH3 0xF88 PUSH32 0x7BAB9E92DCF85A8882EF374535095FB386E5981937BB0A699B09C76F3740F693 PUSH1 0x0 SHL PUSH3 0x30CB JUMP JUMPDEST PUSH3 0xFB6 PUSH32 0x1CACFA678995863B8115FB3037EB16F0B2B05214879B44F3F2AC864A4E376022 PUSH1 0x0 SHL PUSH3 0x30CB JUMP JUMPDEST CALLER PUSH20 0xFFFFFFFFFFFFFFFFFFFFFFFFFFFFFFFFFFFFFFFF AND PUSH1 0x7 PUSH1 0x0 DUP5 DUP2 MSTORE PUSH1 0x20 ADD SWAP1 DUP2 MSTORE PUSH1 0x20 ADD PUSH1 0x0 KECCAK256 PUSH1 0x0 ADD PUSH1 0x1 SWAP1 SLOAD SWAP1 PUSH2 0x100 EXP SWAP1 DIV PUSH20 0xFFFFFFFFFFFFFFFFFFFFFFFFFFFFFFFFFFFFFFFF AND PUSH20 0xFFFFFFFFFFFFFFFFFFFFFFFFFFFFFFFFFFFFFFFF AND EQ DUP1 PUSH3 0x105B JUMPI POP PUSH3 0x102C PUSH3 0x3E41 JUMP JUMPDEST PUSH20 0xFFFFFFFFFFFFFFFFFFFFFFFFFFFFFFFFFFFFFFFF AND CALLER PUSH20 0xFFFFFFFFFFFFFFFFFFFFFFFFFFFFFFFFFFFFFFFF AND EQ JUMPDEST PUSH3 0x10CE JUMPI PUSH1 0x40 MLOAD PUSH32 0x8C379A000000000000000000000000000000000000000000000000000000000 DUP2 MSTORE PUSH1 0x4 ADD DUP1 DUP1 PUSH1 0x20 ADD DUP3 DUP2 SUB DUP3 MSTORE PUSH1 0x1F DUP2 MSTORE PUSH1 0x20 ADD DUP1 PUSH32 0x50726F6A65637420616E6420436C69656E7420646F206E6F74206D6174636800 DUP2 MSTORE POP PUSH1 0x20 ADD SWAP2 POP POP PUSH1 0x40 MLOAD DUP1 SWAP2 SUB SWAP1 REVERT JUMPDEST PUSH3 0x10FC PUSH32 0xC21FEBDC3C800E119C68047BD6523D0878DC93F10E9AE061181172A7B47E235A PUSH1 0x0 SHL PUSH3 0x30CB JUMP JUMPDEST PUSH3 0x112A PUSH32 0x2562DE67C5E55D711B373111ED1981223E46E6E54A72300282BB9CF40E4133A8 PUSH1 0x0 SHL PUSH3 0x30CB JUMP JUMPDEST PUSH3 0x1158 PUSH32 0xD2917C5EB9E60362F1972A1C377B2E23FC637BBB3EF262F8E903AC54C6A4EA22 PUSH1 0x0 SHL PUSH3 0x30CB JUMP JUMPDEST PUSH1 0x7 PUSH1 0x0 DUP4 DUP2 MSTORE PUSH1 0x20 ADD SWAP1 DUP2 MSTORE PUSH1 0x20 ADD PUSH1 0x0 KECCAK256 PUSH1 0x3 ADD DUP1 SLOAD DUP1 PUSH1 0x20 MUL PUSH1 0x20 ADD PUSH1 0x40 MLOAD SWAP1 DUP2 ADD PUSH1 0x40 MSTORE DUP1 SWAP3 SWAP2 SWAP1 DUP2 DUP2 MSTORE PUSH1 0x20 ADD DUP3 DUP1 SLOAD DUP1 ISZERO PUSH3 0x11F0 JUMPI PUSH1 0x20 MUL DUP3 ADD SWAP2 SWAP1 PUSH1 0x0 MSTORE PUSH1 0x20 PUSH1 0x0 KECCAK256 SWAP1 JUMPDEST DUP2 PUSH1 0x0 SWAP1 SLOAD SWAP1 PUSH2 0x100 EXP SWAP1 DIV PUSH20 0xFFFFFFFFFFFFFFFFFFFFFFFFFFFFFFFFFFFFFFFF AND PUSH20 0xFFFFFFFFFFFFFFFFFFFFFFFFFFFFFFFFFFFFFFFF AND DUP2 MSTORE PUSH1 0x20 ADD SWAP1 PUSH1 0x1 ADD SWAP1 DUP1 DUP4 GT PUSH3 0x11A5 JUMPI JUMPDEST POP POP POP POP POP SWAP1 POP SWAP2 SWAP1 POP JUMP JUMPDEST PUSH3 0x122A PUSH32 0xBBD3F355D77656A0F50AAE973AB5793981CE48967D721219B0105F6DB34D30BA PUSH1 0x0 SHL PUSH3 0x37FE JUMP JUMPDEST PUSH3 0x1258 PUSH32 0xBC95BF17CA2009E2526D43C8992D6F4437BC5D005EDAE2988D77646F85823501 PUSH1 0x0 SHL PUSH3 0x37FE JUMP JUMPDEST PUSH3 0x1286 PUSH32 0x522F1571FB48EF6EA3E9E0B6F9DAB138206492FEC89844E7BF1DED65794E5806 PUSH1 0x0 SHL PUSH3 0x37FE JUMP JUMPDEST PUSH3 0x12B4 PUSH32 0x6C41C5952A4021EE48DB6814ADC2FFFC422AC8F2EB8425EC003F86EA58B3C864 PUSH1 0x0 SHL PUSH3 0x37FE JUMP JUMPDEST CALLER PUSH20 0xFFFFFFFFFFFFFFFFFFFFFFFFFFFFFFFFFFFFFFFF AND PUSH1 0x0 DUP1 SWAP1 SLOAD SWAP1 PUSH2 0x100 EXP SWAP1 DIV PUSH20 0xFFFFFFFFFFFFFFFFFFFFFFFFFFFFFFFFFFFFFFFF AND PUSH20 0xFFFFFFFFFFFFFFFFFFFFFFFFFFFFFFFFFFFFFFFF AND EQ PUSH3 0x1377 JUMPI PUSH1 0x40 MLOAD PUSH32 0x8C379A000000000000000000000000000000000000000000000000000000000 DUP2 MSTORE PUSH1 0x4 ADD DUP1 DUP1 PUSH1 0x20 ADD DUP3 DUP2 SUB DUP3 MSTORE PUSH1 0x20 DUP2 MSTORE PUSH1 0x20 ADD DUP1 PUSH32 0x4F776E61626C653A2063616C6C6572206973206E6F7420746865206F776E6572 DUP2 MSTORE POP PUSH1 0x20 ADD SWAP2 POP POP PUSH1 0x40 MLOAD DUP1 SWAP2 SUB SWAP1 REVERT JUMPDEST PUSH3 0x13A5 PUSH32 0x5A35E29A7CC84D55F7A9678E9DC2EDE30FB5F67F6AFF0B42BF6C4B23D0A937CC PUSH1 0x0 SHL PUSH3 0x37FE JUMP JUMPDEST PUSH3 0x13D3 PUSH32 0x1C760E035C6926B5F9779DC98270DEADF3392737A2366E2622768DC99F97EE8E PUSH1 0x0 SHL PUSH3 0x37FE JUMP JUMPDEST PUSH3 0x1401 PUSH32 0xF0FEB3870D447F71930E00F9CA97C9D6883A5D6D4B863E8DC4D69B5055CEA799 PUSH1 0x0 SHL PUSH3 0x30CB JUMP JUMPDEST PUSH3 0x142F PUSH32 0xE12D0B0C0765DDC037C2FF47AB613C4FA410A6B29C16FA4374CE07C6D2626B1F PUSH1 0x0 SHL PUSH3 0x30CB JUMP JUMPDEST PUSH3 0x145D PUSH32 0xA19EAD6455640C33F4052D2394AAFDE53DD29C6CECB580FDB83021399ED88ACD PUSH1 0x0 SHL PUSH3 0x30CB JUMP JUMPDEST PUSH1 0x4 PUSH1 0x0 DUP3 PUSH20 0xFFFFFFFFFFFFFFFFFFFFFFFFFFFFFFFFFFFFFFFF AND PUSH20 0xFFFFFFFFFFFFFFFFFFFFFFFFFFFFFFFFFFFFFFFF AND DUP2 MSTORE PUSH1 0x20 ADD SWAP1 DUP2 MSTORE PUSH1 0x20 ADD PUSH1 0x0 KECCAK256 DUP3 SWAP1 DUP1 PUSH1 0x1 DUP2 SLOAD ADD DUP1 DUP3 SSTORE DUP1 SWAP2 POP POP PUSH1 0x1 SWAP1 SUB SWAP1 PUSH1 0x0 MSTORE PUSH1 0x20 PUSH1 0x0 KECCAK256 ADD PUSH1 0x0 SWAP1 SWAP2 SWAP1 SWAP2 SWAP1 SWAP2 POP SSTORE PUSH3 0x14F1 PUSH32 0x8D0A572A3573F918890AE83DEF72A56974D6A9B428892A1CD6A9F051F092A392 PUSH1 0x0 SHL PUSH3 0x30CB JUMP JUMPDEST PUSH3 0x151F PUSH32 0xD1568D70C4E86347CF2CF64A3BFD4189B6AEE7E2A5164EC8483C120755C14156 PUSH1 0x0 SHL PUSH3 0x30CB JUMP JUMPDEST DUP1 PUSH1 0x7 PUSH1 0x0 DUP5 DUP2 MSTORE PUSH1 0x20 ADD SWAP1 DUP2 MSTORE PUSH1 0x20 ADD PUSH1 0x0 KECCAK256 PUSH1 0x0 ADD PUSH1 0x1 PUSH2 0x100 EXP DUP2 SLOAD DUP2 PUSH20 0xFFFFFFFFFFFFFFFFFFFFFFFFFFFFFFFFFFFFFFFF MUL NOT AND SWAP1 DUP4 PUSH20 0xFFFFFFFFFFFFFFFFFFFFFFFFFFFFFFFFFFFFFFFF AND MUL OR SWAP1 SSTORE POP PUSH3 0x15A2 PUSH32 0xE47D3651BC7B210B850A5B6C2BFA83B59F92A8F8EA0762E3CEAFCA663BF2D465 PUSH1 0x0 SHL PUSH3 0x30CB JUMP JUMPDEST PUSH3 0x15D0 PUSH32 0x1A57ECF6837667910B19345876347E1C839C4665F0205A6B51D4AA02B1F13208 PUSH1 0x0 SHL PUSH3 0x30CB JUMP JUMPDEST PUSH32 0x4256F31675358760DA332C63DAF619DE7A463CD7AFE585631A8F9A6A59CF0800 DUP3 DUP3 PUSH1 0x40 MLOAD DUP1 DUP4 DUP2 MSTORE PUSH1 0x20 ADD DUP3 PUSH20 0xFFFFFFFFFFFFFFFFFFFFFFFFFFFFFFFFFFFFFFFF AND PUSH20 0xFFFFFFFFFFFFFFFFFFFFFFFFFFFFFFFFFFFFFFFF AND DUP2 MSTORE PUSH1 0x20 ADD SWAP3 POP POP POP PUSH1 0x40 MLOAD DUP1 SWAP2 SUB SWAP1 LOG1 POP POP JUMP JUMPDEST PUSH1 0x0 DUP1 PUSH1 0x0 PUSH1 0x60 DUP1 PUSH1 0x60 PUSH3 0x1677 PUSH32 0xBBD43C7A6682C13ACA97818CC2B9DE0B8282C76ADE9A1A5258033834B2B2FE43 PUSH1 0x0 SHL PUSH3 0x30CB JUMP JUMPDEST PUSH3 0x16A5 PUSH32 0xB17A1949DFE905638EE21F5E419469C217B97C70F4D44F422E081577CB86D7CE PUSH1 0x0 SHL PUSH3 0x30CB JUMP JUMPDEST PUSH3 0x16D3 PUSH32 0x6918550FDF43E14AA9E64B5EB07CB953D7A304BB8E1DF2C9DB6941DB12D8244E PUSH1 0x0 SHL PUSH3 0x30CB JUMP JUMPDEST PUSH3 0x1701 PUSH32 0x4A1EC43D00E784560CB3FE567F4D12722070671CDDDD09A6ACD6A665E43A2655 PUSH1 0x0 SHL PUSH3 0x30CB JUMP JUMPDEST PUSH1 0x7 PUSH1 0x0 DUP9 DUP2 MSTORE PUSH1 0x20 ADD SWAP1 DUP2 MSTORE PUSH1 0x20 ADD PUSH1 0x0 KECCAK256 PUSH1 0x0 ADD PUSH1 0x1 SWAP1 SLOAD SWAP1 PUSH2 0x100 EXP SWAP1 DIV PUSH20 0xFFFFFFFFFFFFFFFFFFFFFFFFFFFFFFFFFFFFFFFF AND PUSH20 0xFFFFFFFFFFFFFFFFFFFFFFFFFFFFFFFFFFFFFFFF AND CALLER PUSH20 0xFFFFFFFFFFFFFFFFFFFFFFFFFFFFFFFFFFFFFFFF AND EQ DUP1 PUSH3 0x17A6 JUMPI POP PUSH3 0x1777 PUSH3 0x3E41 JUMP JUMPDEST PUSH20 0xFFFFFFFFFFFFFFFFFFFFFFFFFFFFFFFFFFFFFFFF AND CALLER PUSH20 0xFFFFFFFFFFFFFFFFFFFFFFFFFFFFFFFFFFFFFFFF AND EQ JUMPDEST PUSH3 0x17FD JUMPI PUSH1 0x40 MLOAD PUSH32 0x8C379A000000000000000000000000000000000000000000000000000000000 DUP2 MSTORE PUSH1 0x4 ADD DUP1 DUP1 PUSH1 0x20 ADD DUP3 DUP2 SUB DUP3 MSTORE PUSH1 0x27 DUP2 MSTORE PUSH1 0x20 ADD DUP1 PUSH3 0x6C6F PUSH1 0x27 SWAP2 CODECOPY PUSH1 0x40 ADD SWAP2 POP POP PUSH1 0x40 MLOAD DUP1 SWAP2 SUB SWAP1 REVERT JUMPDEST PUSH3 0x182B PUSH32 0xE7E44BD0D42209AB238F27A349D3F37E1FB6E6938C817CAACAF8AA73E99A3811 PUSH1 0x0 SHL PUSH3 0x30CB JUMP JUMPDEST PUSH3 0x1859 PUSH32 0x482EDA9C3B330B148759DE90F11A05B3E3BCCAD2BF01223B5F9726CB7F2D8108 PUSH1 0x0 SHL PUSH3 0x30CB JUMP JUMPDEST PUSH3 0x1887 PUSH32 0x370E07E59FBEDA2B86A52E13136976B2BFCB387AE1C66BD442D466E6006E6890 PUSH1 0x0 SHL PUSH3 0x30CB JUMP JUMPDEST PUSH1 0x7 PUSH1 0x0 DUP9 DUP2 MSTORE PUSH1 0x20 ADD SWAP1 DUP2 MSTORE PUSH1 0x20 ADD PUSH1 0x0 KECCAK256 PUSH1 0x0 ADD PUSH1 0x0 SWAP1 SLOAD SWAP1 PUSH2 0x100 EXP SWAP1 DIV PUSH1 0xFF AND DUP8 PUSH1 0x7 PUSH1 0x0 DUP11 DUP2 MSTORE PUSH1 0x20 ADD SWAP1 DUP2 MSTORE PUSH1 0x20 ADD PUSH1 0x0 KECCAK256 PUSH1 0x0 ADD PUSH1 0x1 SWAP1 SLOAD SWAP1 PUSH2 0x100 EXP SWAP1 DIV PUSH20 0xFFFFFFFFFFFFFFFFFFFFFFFFFFFFFFFFFFFFFFFF AND PUSH1 0x7 PUSH1 0x0 DUP12 DUP2 MSTORE PUSH1 0x20 ADD SWAP1 DUP2 MSTORE PUSH1 0x20 ADD PUSH1 0x0 KECCAK256 PUSH1 0x1 ADD PUSH1 0x7 PUSH1 0x0 DUP13 DUP2 MSTORE PUSH1 0x20 ADD SWAP1 DUP2 MSTORE PUSH1 0x20 ADD PUSH1 0x0 KECCAK256 PUSH1 0x2 ADD PUSH1 0x7 PUSH1 0x0 DUP14 DUP2 MSTORE PUSH1 0x20 ADD SWAP1 DUP2 MSTORE PUSH1 0x20 ADD PUSH1 0x0 KECCAK256 PUSH1 0x3 ADD DUP3 DUP1 SLOAD PUSH1 0x1 DUP2 PUSH1 0x1 AND ISZERO PUSH2 0x100 MUL SUB AND PUSH1 0x2 SWAP1 DIV DUP1 PUSH1 0x1F ADD PUSH1 0x20 DUP1 SWAP2 DIV MUL PUSH1 0x20 ADD PUSH1 0x40 MLOAD SWAP1 DUP2 ADD PUSH1 0x40 MSTORE DUP1 SWAP3 SWAP2 SWAP1 DUP2 DUP2 MSTORE PUSH1 0x20 ADD DUP3 DUP1 SLOAD PUSH1 0x1 DUP2 PUSH1 0x1 AND ISZERO PUSH2 0x100 MUL SUB AND PUSH1 0x2 SWAP1 DIV DUP1 ISZERO PUSH3 0x19BE JUMPI DUP1 PUSH1 0x1F LT PUSH3 0x1992 JUMPI PUSH2 0x100 DUP1 DUP4 SLOAD DIV MUL DUP4 MSTORE SWAP2 PUSH1 0x20 ADD SWAP2 PUSH3 0x19BE JUMP JUMPDEST DUP3 ADD SWAP2 SWAP1 PUSH1 0x0 MSTORE PUSH1 0x20 PUSH1 0x0 KECCAK256 SWAP1 JUMPDEST DUP2 SLOAD DUP2 MSTORE SWAP1 PUSH1 0x1 ADD SWAP1 PUSH1 0x20 ADD DUP1 DUP4 GT PUSH3 0x19A0 JUMPI DUP3 SWAP1 SUB PUSH1 0x1F AND DUP3 ADD SWAP2 JUMPDEST POP POP POP POP POP SWAP3 POP DUP2 DUP1 SLOAD PUSH1 0x1 DUP2 PUSH1 0x1 AND ISZERO PUSH2 0x100 MUL SUB AND PUSH1 0x2 SWAP1 DIV DUP1 PUSH1 0x1F ADD PUSH1 0x20 DUP1 SWAP2 DIV MUL PUSH1 0x20 ADD PUSH1 0x40 MLOAD SWAP1 DUP2 ADD PUSH1 0x40 MSTORE DUP1 SWAP3 SWAP2 SWAP1 DUP2 DUP2 MSTORE PUSH1 0x20 ADD DUP3 DUP1 SLOAD PUSH1 0x1 DUP2 PUSH1 0x1 AND ISZERO PUSH2 0x100 MUL SUB AND PUSH1 0x2 SWAP1 DIV DUP1 ISZERO PUSH3 0x1A5E JUMPI DUP1 PUSH1 0x1F LT PUSH3 0x1A32 JUMPI PUSH2 0x100 DUP1 DUP4 SLOAD DIV MUL DUP4 MSTORE SWAP2 PUSH1 0x20 ADD SWAP2 PUSH3 0x1A5E JUMP JUMPDEST DUP3 ADD SWAP2 SWAP1 PUSH1 0x0 MSTORE PUSH1 0x20 PUSH1 0x0 KECCAK256 SWAP1 JUMPDEST DUP2 SLOAD DUP2 MSTORE SWAP1 PUSH1 0x1 ADD SWAP1 PUSH1 0x20 ADD DUP1 DUP4 GT PUSH3 0x1A40 JUMPI DUP3 SWAP1 SUB PUSH1 0x1F AND DUP3 ADD SWAP2 JUMPDEST POP POP POP POP POP SWAP2 POP DUP1 DUP1 SLOAD DUP1 PUSH1 0x20 MUL PUSH1 0x20 ADD PUSH1 0x40 MLOAD SWAP1 DUP2 ADD PUSH1 0x40 MSTORE DUP1 SWAP3 SWAP2 SWAP1 DUP2 DUP2 MSTORE PUSH1 0x20 ADD DUP3 DUP1 SLOAD DUP1 ISZERO PUSH3 0x1AE8 JUMPI PUSH1 0x20 MUL DUP3 ADD SWAP2 SWAP1 PUSH1 0x0 MSTORE PUSH1 0x20 PUSH1 0x0 KECCAK256 SWAP1 JUMPDEST DUP2 PUSH1 0x0 SWAP1 SLOAD SWAP1 PUSH2 0x100 EXP SWAP1 DIV PUSH20 0xFFFFFFFFFFFFFFFFFFFFFFFFFFFFFFFFFFFFFFFF AND PUSH20 0xFFFFFFFFFFFFFFFFFFFFFFFFFFFFFFFFFFFFFFFF AND DUP2 MSTORE PUSH1 0x20 ADD SWAP1 PUSH1 0x1 ADD SWAP1 DUP1 DUP4 GT PUSH3 0x1A9D JUMPI JUMPDEST POP POP POP POP POP SWAP1 POP SWAP6 POP SWAP6 POP SWAP6 POP SWAP6 POP SWAP6 POP SWAP6 POP SWAP2 SWAP4 SWAP6 POP SWAP2 SWAP4 SWAP6 JUMP JUMPDEST PUSH1 0x3 DUP2 DUP2 SLOAD DUP2 LT PUSH3 0x1B12 JUMPI INVALID JUMPDEST SWAP1 PUSH1 0x0 MSTORE PUSH1 0x20 PUSH1 0x0 KECCAK256 ADD PUSH1 0x0 SWAP2 POP SWAP1 POP SLOAD DUP2 JUMP JUMPDEST PUSH3 0x1B54 PUSH32 0xBBD3F355D77656A0F50AAE973AB5793981CE48967D721219B0105F6DB34D30BA PUSH1 0x0 SHL PUSH3 0x37FE JUMP JUMPDEST PUSH3 0x1B82 PUSH32 0xBC95BF17CA2009E2526D43C8992D6F4437BC5D005EDAE2988D77646F85823501 PUSH1 0x0 SHL PUSH3 0x37FE JUMP JUMPDEST PUSH3 0x1BB0 PUSH32 0x522F1571FB48EF6EA3E9E0B6F9DAB138206492FEC89844E7BF1DED65794E5806 PUSH1 0x0 SHL PUSH3 0x37FE JUMP JUMPDEST PUSH3 0x1BDE PUSH32 0x6C41C5952A4021EE48DB6814ADC2FFFC422AC8F2EB8425EC003F86EA58B3C864 PUSH1 0x0 SHL PUSH3 0x37FE JUMP JUMPDEST CALLER PUSH20 0xFFFFFFFFFFFFFFFFFFFFFFFFFFFFFFFFFFFFFFFF AND PUSH1 0x0 DUP1 SWAP1 SLOAD SWAP1 PUSH2 0x100 EXP SWAP1 DIV PUSH20 0xFFFFFFFFFFFFFFFFFFFFFFFFFFFFFFFFFFFFFFFF AND PUSH20 0xFFFFFFFFFFFFFFFFFFFFFFFFFFFFFFFFFFFFFFFF AND EQ PUSH3 0x1CA1 JUMPI PUSH1 0x40 MLOAD PUSH32 0x8C379A000000000000000000000000000000000000000000000000000000000 DUP2 MSTORE PUSH1 0x4 ADD DUP1 DUP1 PUSH1 0x20 ADD DUP3 DUP2 SUB DUP3 MSTORE PUSH1 0x20 DUP2 MSTORE PUSH1 0x20 ADD DUP1 PUSH32 0x4F776E61626C653A2063616C6C6572206973206E6F7420746865206F776E6572 DUP2 MSTORE POP PUSH1 0x20 ADD SWAP2 POP POP PUSH1 0x40 MLOAD DUP1 SWAP2 SUB SWAP1 REVERT JUMPDEST PUSH3 0x1CCF PUSH32 0x5A35E29A7CC84D55F7A9678E9DC2EDE30FB5F67F6AFF0B42BF6C4B23D0A937CC PUSH1 0x0 SHL PUSH3 0x37FE JUMP JUMPDEST PUSH3 0x1CFD PUSH32 0x1C760E035C6926B5F9779DC98270DEADF3392737A2366E2622768DC99F97EE8E PUSH1 0x0 SHL PUSH3 0x37FE JUMP JUMPDEST PUSH3 0x1D2B PUSH32 0x1699FE0CA65388C7A4C86B1AE1C76B7CECC44D912F133218C0D4675AD6C11A14 PUSH1 0x0 SHL PUSH3 0x30CB JUMP JUMPDEST PUSH3 0x1D59 PUSH32 0x67A1BAEB58619DCE46BD67858226B4BAE65FB57D5DB4AF92F965BE8A6C99902A PUSH1 0x0 SHL PUSH3 0x30CB JUMP JUMPDEST PUSH3 0x1D87 PUSH32 0xAFDE7D5FF9E18E490EE8525FF391033EA51B65208C0A398A4F27A34F13767E68 PUSH1 0x0 SHL PUSH3 0x30CB JUMP JUMPDEST PUSH1 0x0 DUP4 DUP4 DUP4 PUSH3 0x1D96 PUSH3 0x3E41 JUMP JUMPDEST PUSH1 0x40 MLOAD PUSH3 0x1DA4 SWAP1 PUSH3 0x5337 JUMP JUMPDEST DUP1 DUP6 PUSH20 0xFFFFFFFFFFFFFFFFFFFFFFFFFFFFFFFFFFFFFFFF AND PUSH20 0xFFFFFFFFFFFFFFFFFFFFFFFFFFFFFFFFFFFFFFFF AND DUP2 MSTORE PUSH1 0x20 ADD DUP1 PUSH1 0x20 ADD DUP4 PUSH20 0xFFFFFFFFFFFFFFFFFFFFFFFFFFFFFFFFFFFFFFFF AND PUSH20 0xFFFFFFFFFFFFFFFFFFFFFFFFFFFFFFFFFFFFFFFF AND DUP2 MSTORE PUSH1 0x20 ADD DUP3 DUP2 SUB DUP3 MSTORE DUP6 DUP6 DUP3 DUP2 DUP2 MSTORE PUSH1 0x20 ADD SWAP3 POP DUP1 DUP3 DUP5 CALLDATACOPY PUSH1 0x0 DUP2 DUP5 ADD MSTORE PUSH1 0x1F NOT PUSH1 0x1F DUP3 ADD AND SWAP1 POP DUP1 DUP4 ADD SWAP3 POP POP POP SWAP6 POP POP POP POP POP POP PUSH1 0x40 MLOAD DUP1 SWAP2 SUB SWAP1 PUSH1 0x0 CREATE DUP1 ISZERO DUP1 ISZERO PUSH3 0x1E5C JUMPI RETURNDATASIZE PUSH1 0x0 DUP1 RETURNDATACOPY RETURNDATASIZE PUSH1 0x0 REVERT JUMPDEST POP SWAP1 POP PUSH3 0x1E8D PUSH32 0x28010F28A9600FB8A9073F336F7321097904757B7395AB06446E70EE5E11B9C5 PUSH1 0x0 SHL PUSH3 0x30CB JUMP JUMPDEST PUSH3 0x1EBB PUSH32 0xC0F346CAFEACAADF1D0FFE48CBF1AAED3ADD051D36C1E339480705BD1F665A62 PUSH1 0x0 SHL PUSH3 0x30CB JUMP JUMPDEST PUSH1 0x5 PUSH1 0x0 DUP6 PUSH20 0xFFFFFFFFFFFFFFFFFFFFFFFFFFFFFFFFFFFFFFFF AND PUSH20 0xFFFFFFFFFFFFFFFFFFFFFFFFFFFFFFFFFFFFFFFF AND DUP2 MSTORE PUSH1 0x20 ADD SWAP1 DUP2 MSTORE PUSH1 0x20 ADD PUSH1 0x0 KECCAK256 DUP2 SWAP1 DUP1 PUSH1 0x1 DUP2 SLOAD ADD DUP1 DUP3 SSTORE DUP1 SWAP2 POP POP PUSH1 0x1 SWAP1 SUB SWAP1 PUSH1 0x0 MSTORE PUSH1 0x20 PUSH1 0x0 KECCAK256 ADD PUSH1 0x0 SWAP1 SWAP2 SWAP1 SWAP2 SWAP1 SWAP2 PUSH2 0x100 EXP DUP2 SLOAD DUP2 PUSH20 0xFFFFFFFFFFFFFFFFFFFFFFFFFFFFFFFFFFFFFFFF MUL NOT AND SWAP1 DUP4 PUSH20 0xFFFFFFFFFFFFFFFFFFFFFFFFFFFFFFFFFFFFFFFF AND MUL OR SWAP1 SSTORE POP PUSH3 0x1F89 PUSH32 0xF490CA6C687DBDF4786F3F8A121E4B0575EF29402B45B3E0A45038FCC8D1A73 PUSH1 0x0 SHL PUSH3 0x30CB JUMP JUMPDEST PUSH3 0x1FB7 PUSH32 0x3F34AAA7AD5F091CA856F3D893B5472BD3A395847C3C8A423E4FF3650E58E89F PUSH1 0x0 SHL PUSH3 0x30CB JUMP JUMPDEST PUSH1 0x1 DUP2 SWAP1 DUP1 PUSH1 0x1 DUP2 SLOAD ADD DUP1 DUP3 SSTORE DUP1 SWAP2 POP POP PUSH1 0x1 SWAP1 SUB SWAP1 PUSH1 0x0 MSTORE PUSH1 0x20 PUSH1 0x0 KECCAK256 ADD PUSH1 0x0 SWAP1 SWAP2 SWAP1 SWAP2 SWAP1 SWAP2 PUSH2 0x100 EXP DUP2 SLOAD DUP2 PUSH20 0xFFFFFFFFFFFFFFFFFFFFFFFFFFFFFFFFFFFFFFFF MUL NOT AND SWAP1 DUP4 PUSH20 0xFFFFFFFFFFFFFFFFFFFFFFFFFFFFFFFFFFFFFFFF AND MUL OR SWAP1 SSTORE POP PUSH3 0x2048 PUSH32 0x8BF2D89DB2A161B13E0A4A66BD4A0FC710DA3F680623B7661ADFCD05EF126A2C PUSH1 0x0 SHL PUSH3 0x30CB JUMP JUMPDEST PUSH3 0x2076 PUSH32 0x18864CC1F38C037A6DE2A9B395DD3C89FA0FF8BD1464346D730A4AA7E02CC664 PUSH1 0x0 SHL PUSH3 0x30CB JUMP JUMPDEST PUSH32 0x908A1D72896B3C6E31C2E9AC8D65AE9676A54DD26195D4496442C50FF1B0B797 DUP2 PUSH1 0x40 MLOAD DUP1 DUP3 PUSH20 0xFFFFFFFFFFFFFFFFFFFFFFFFFFFFFFFFFFFFFFFF AND PUSH20 0xFFFFFFFFFFFFFFFFFFFFFFFFFFFFFFFFFFFFFFFF AND DUP2 MSTORE PUSH1 0x20 ADD SWAP2 POP POP PUSH1 0x40 MLOAD DUP1 SWAP2 SUB SWAP1 LOG1 POP POP POP POP JUMP JUMPDEST PUSH1 0x4 PUSH1 0x20 MSTORE DUP2 PUSH1 0x0 MSTORE PUSH1 0x40 PUSH1 0x0 KECCAK256 DUP2 DUP2 SLOAD DUP2 LT PUSH3 0x20F9 JUMPI INVALID JUMPDEST SWAP1 PUSH1 0x0 MSTORE PUSH1 0x20 PUSH1 0x0 KECCAK256 ADD PUSH1 0x0 SWAP2 POP SWAP2 POP POP SLOAD DUP2 JUMP JUMPDEST PUSH1 0x0 DUP1 PUSH1 0x60 PUSH1 0x0 PUSH3 0x2143 PUSH32 0xE490A9CEE36E189456752331938B426F9DABE38ED9CAD9A22CCA74A38D282F8C PUSH1 0x0 SHL PUSH3 0x30CB JUMP JUMPDEST PUSH3 0x2171 PUSH32 0xBBE356C7A4ACD7DCDB07EB8E4D60C9FB136E213D2F36E5ADC3E9285A433B01A7 PUSH1 0x0 SHL PUSH3 0x30CB JUMP JUMPDEST PUSH3 0x219F PUSH32 0x992D0ECA4C60721B51A38E4A13E2229FBB78DFA8BE3E30025969AB7056AC6164 PUSH1 0x0 SHL PUSH3 0x30CB JUMP JUMPDEST PUSH3 0x21CD PUSH32 0x3AB2FC008BCF97EB252C55D1D8D9E071124A1AC1DA0708726E80370BFD6F885C PUSH1 0x0 SHL PUSH3 0x30CB JUMP JUMPDEST PUSH1 0x1 PUSH1 0x2 DUP2 GT ISZERO PUSH3 0x21DB JUMPI INVALID JUMPDEST PUSH1 0x6 PUSH1 0x0 CALLER PUSH20 0xFFFFFFFFFFFFFFFFFFFFFFFFFFFFFFFFFFFFFFFF AND PUSH20 0xFFFFFFFFFFFFFFFFFFFFFFFFFFFFFFFFFFFFFFFF AND DUP2 MSTORE PUSH1 0x20 ADD SWAP1 DUP2 MSTORE PUSH1 0x20 ADD PUSH1 0x0 KECCAK256 PUSH1 0x0 ADD PUSH1 0x0 SWAP1 SLOAD SWAP1 PUSH2 0x100 EXP SWAP1 DIV PUSH1 0xFF AND PUSH1 0x2 DUP2 GT ISZERO PUSH3 0x2237 JUMPI INVALID JUMPDEST EQ PUSH3 0x22AB JUMPI PUSH1 0x40 MLOAD PUSH32 0x8C379A000000000000000000000000000000000000000000000000000000000 DUP2 MSTORE PUSH1 0x4 ADD DUP1 DUP1 PUSH1 0x20 ADD DUP3 DUP2 SUB DUP3 MSTORE PUSH1 0x19 DUP2 MSTORE PUSH1 0x20 ADD DUP1 PUSH32 0x53656E646572206973206E6F742077686974656C697374656400000000000000 DUP2 MSTORE POP PUSH1 0x20 ADD SWAP2 POP POP PUSH1 0x40 MLOAD DUP1 SWAP2 SUB SWAP1 REVERT JUMPDEST PUSH3 0x22D9 PUSH32 0xE90D50500EA6686F3C31179251E3F8FEB79C0D3CD1EC0BE62BAAD15F508401BB PUSH1 0x0 SHL PUSH3 0x30CB JUMP JUMPDEST PUSH3 0x2307 PUSH32 0xAFB3A32D5F6607B367BCAD20EE394DBFB60676D182EAEB59DB66DED6E5F1E275 PUSH1 0x0 SHL PUSH3 0x30CB JUMP JUMPDEST PUSH3 0x2335 PUSH32 0x8D4CD8211CA4C54D0D3FF17B591D6C4C8F9CA358B629B8A592D0BBD19F1BF838 PUSH1 0x0 SHL PUSH3 0x30CB JUMP JUMPDEST PUSH3 0x2363 PUSH32 0x8A9EC71C405D21B03DA06A1E20E79784295D928DA160D4FA8CE0680301A4448F PUSH1 0x0 SHL PUSH3 0x30CB JUMP JUMPDEST PUSH3 0x2391 PUSH32 0x7C531C74D460CE5752B1129860DE55198D4159A2B5CF67C22F86AA46268BE22E PUSH1 0x0 SHL PUSH3 0x30CB JUMP JUMPDEST PUSH1 0x6 PUSH1 0x0 DUP7 PUSH20 0xFFFFFFFFFFFFFFFFFFFFFFFFFFFFFFFFFFFFFFFF AND PUSH20 0xFFFFFFFFFFFFFFFFFFFFFFFFFFFFFFFFFFFFFFFF AND DUP2 MSTORE PUSH1 0x20 ADD SWAP1 DUP2 MSTORE PUSH1 0x20 ADD PUSH1 0x0 KECCAK256 PUSH1 0x0 ADD PUSH1 0x0 SWAP1 SLOAD SWAP1 PUSH2 0x100 EXP SWAP1 DIV PUSH1 0xFF AND PUSH1 0x6 PUSH1 0x0 DUP8 PUSH20 0xFFFFFFFFFFFFFFFFFFFFFFFFFFFFFFFFFFFFFFFF AND PUSH20 0xFFFFFFFFFFFFFFFFFFFFFFFFFFFFFFFFFFFFFFFF AND DUP2 MSTORE PUSH1 0x20 ADD SWAP1 DUP2 MSTORE PUSH1 0x20 ADD PUSH1 0x0 KECCAK256 PUSH1 0x0 ADD PUSH1 0x1 SWAP1 SLOAD SWAP1 PUSH2 0x100 EXP SWAP1 DIV PUSH1 0xFF AND PUSH1 0x6 PUSH1 0x0 DUP9 PUSH20 0xFFFFFFFFFFFFFFFFFFFFFFFFFFFFFFFFFFFFFFFF AND PUSH20 0xFFFFFFFFFFFFFFFFFFFFFFFFFFFFFFFFFFFFFFFF AND DUP2 MSTORE PUSH1 0x20 ADD SWAP1 DUP2 MSTORE PUSH1 0x20 ADD PUSH1 0x0 KECCAK256 PUSH1 0x1 ADD DUP8 DUP2 DUP1 SLOAD PUSH1 0x1 DUP2 PUSH1 0x1 AND ISZERO PUSH2 0x100 MUL SUB AND PUSH1 0x2 SWAP1 DIV DUP1 PUSH1 0x1F ADD PUSH1 0x20 DUP1 SWAP2 DIV MUL PUSH1 0x20 ADD PUSH1 0x40 MLOAD SWAP1 DUP2 ADD PUSH1 0x40 MSTORE DUP1 SWAP3 SWAP2 SWAP1 DUP2 DUP2 MSTORE PUSH1 0x20 ADD DUP3 DUP1 SLOAD PUSH1 0x1 DUP2 PUSH1 0x1 AND ISZERO PUSH2 0x100 MUL SUB AND PUSH1 0x2 SWAP1 DIV DUP1 ISZERO PUSH3 0x250D JUMPI DUP1 PUSH1 0x1F LT PUSH3 0x24E1 JUMPI PUSH2 0x100 DUP1 DUP4 SLOAD DIV MUL DUP4 MSTORE SWAP2 PUSH1 0x20 ADD SWAP2 PUSH3 0x250D JUMP JUMPDEST DUP3 ADD SWAP2 SWAP1 PUSH1 0x0 MSTORE PUSH1 0x20 PUSH1 0x0 KECCAK256 SWAP1 JUMPDEST DUP2 SLOAD DUP2 MSTORE SWAP1 PUSH1 0x1 ADD SWAP1 PUSH1 0x20 ADD DUP1 DUP4 GT PUSH3 0x24EF JUMPI DUP3 SWAP1 SUB PUSH1 0x1F AND DUP3 ADD SWAP2 JUMPDEST POP POP POP POP POP SWAP2 POP SWAP4 POP SWAP4 POP SWAP4 POP SWAP4 POP SWAP2 SWAP4 POP SWAP2 SWAP4 JUMP JUMPDEST PUSH1 0x60 PUSH3 0x2553 PUSH32 0x5F07EDCCA9D290F45AA0593716A1D8013A261BD3FD73E1CFD5667613BD1D9C8F PUSH1 0x0 SHL PUSH3 0x30CB JUMP JUMPDEST PUSH3 0x2581 PUSH32 0x7421976CD9FC6C2726027A6B2A34E73E038871059CC14515DD539F4FE2615132 PUSH1 0x0 SHL PUSH3 0x30CB JUMP JUMPDEST PUSH3 0x25AF PUSH32 0xBEA3BB107DAB8876876C2F9A7696C0A4C86993180C863FBACA9DCF5BF0246BBA PUSH1 0x0 SHL PUSH3 0x30CB JUMP JUMPDEST PUSH3 0x25B9 PUSH3 0x3E41 JUMP JUMPDEST PUSH20 0xFFFFFFFFFFFFFFFFFFFFFFFFFFFFFFFFFFFFFFFF AND CALLER PUSH20 0xFFFFFFFFFFFFFFFFFFFFFFFFFFFFFFFFFFFFFFFF AND EQ ISZERO PUSH3 0x2708 JUMPI PUSH3 0x261B PUSH32 0x6D39F8C93FAE9AB033767AAB7C768E277FD140D862AA020CDD9C0A54A0F9ED9 PUSH1 0x0 SHL PUSH3 0x30CB JUMP JUMPDEST PUSH3 0x2649 PUSH32 0xF021A938A8FE43D8747FF24BFEE14E270A87B015B9B53F95DFFA710F73FB6BAA PUSH1 0x0 SHL PUSH3 0x30CB JUMP JUMPDEST PUSH3 0x2677 PUSH32 0x150CC61E7184711791F958B0CCE289D1FAB5F8421D2C394D261DBD09AAA7300F PUSH1 0x0 SHL PUSH3 0x30CB JUMP JUMPDEST PUSH1 0x1 DUP1 SLOAD DUP1 PUSH1 0x20 MUL PUSH1 0x20 ADD PUSH1 0x40 MLOAD SWAP1 DUP2 ADD PUSH1 0x40 MSTORE DUP1 SWAP3 SWAP2 SWAP1 DUP2 DUP2 MSTORE PUSH1 0x20 ADD DUP3 DUP1 SLOAD DUP1 ISZERO PUSH3 0x26FB JUMPI PUSH1 0x20 MUL DUP3 ADD SWAP2 SWAP1 PUSH1 0x0 MSTORE PUSH1 0x20 PUSH1 0x0 KECCAK256 SWAP1 JUMPDEST DUP2 PUSH1 0x0 SWAP1 SLOAD SWAP1 PUSH2 0x100 EXP SWAP1 DIV PUSH20 0xFFFFFFFFFFFFFFFFFFFFFFFFFFFFFFFFFFFFFFFF AND PUSH20 0xFFFFFFFFFFFFFFFFFFFFFFFFFFFFFFFFFFFFFFFF AND DUP2 MSTORE PUSH1 0x20 ADD SWAP1 PUSH1 0x1 ADD SWAP1 DUP1 DUP4 GT PUSH3 0x26B0 JUMPI JUMPDEST POP POP POP POP POP SWAP1 POP PUSH3 0x285B JUMP JUMPDEST PUSH3 0x2736 PUSH32 0x15A0F70D294035B3F053708C8996B77ABB697B47EB8BF96B18935A8E5E864A1E PUSH1 0x0 SHL PUSH3 0x30CB JUMP JUMPDEST PUSH3 0x2764 PUSH32 0xF96D81BCE6FAF439E2FFEEC7FE46946947A2E3B3EC5091C22972A846C649F114 PUSH1 0x0 SHL PUSH3 0x30CB JUMP JUMPDEST PUSH3 0x2792 PUSH32 0x41D7867C1F27214143E1B758DBCCA59BB00E4D0031D46A385E7F11905C48DEAD PUSH1 0x0 SHL PUSH3 0x30CB JUMP JUMPDEST PUSH1 0x5 PUSH1 0x0 CALLER PUSH20 0xFFFFFFFFFFFFFFFFFFFFFFFFFFFFFFFFFFFFFFFF AND PUSH20 0xFFFFFFFFFFFFFFFFFFFFFFFFFFFFFFFFFFFFFFFF AND DUP2 MSTORE PUSH1 0x20 ADD SWAP1 DUP2 MSTORE PUSH1 0x20 ADD PUSH1 0x0 KECCAK256 DUP1 SLOAD DUP1 PUSH1 0x20 MUL PUSH1 0x20 ADD PUSH1 0x40 MLOAD SWAP1 DUP2 ADD PUSH1 0x40 MSTORE DUP1 SWAP3 SWAP2 SWAP1 DUP2 DUP2 MSTORE PUSH1 0x20 ADD DUP3 DUP1 SLOAD DUP1 ISZERO PUSH3 0x2853 JUMPI PUSH1 0x20 MUL DUP3 ADD SWAP2 SWAP1 PUSH1 0x0 MSTORE PUSH1 0x20 PUSH1 0x0 KECCAK256 SWAP1 JUMPDEST DUP2 PUSH1 0x0 SWAP1 SLOAD SWAP1 PUSH2 0x100 EXP SWAP1 DIV PUSH20 0xFFFFFFFFFFFFFFFFFFFFFFFFFFFFFFFFFFFFFFFF AND PUSH20 0xFFFFFFFFFFFFFFFFFFFFFFFFFFFFFFFFFFFFFFFF AND DUP2 MSTORE PUSH1 0x20 ADD SWAP1 PUSH1 0x1 ADD SWAP1 DUP1 DUP4 GT PUSH3 0x2808 JUMPI JUMPDEST POP POP POP POP POP SWAP1 POP JUMPDEST SWAP1 JUMP JUMPDEST PUSH3 0x288C PUSH32 0xBBD3F355D77656A0F50AAE973AB5793981CE48967D721219B0105F6DB34D30BA PUSH1 0x0 SHL PUSH3 0x37FE JUMP JUMPDEST PUSH3 0x28BA PUSH32 0xBC95BF17CA2009E2526D43C8992D6F4437BC5D005EDAE2988D77646F85823501 PUSH1 0x0 SHL PUSH3 0x37FE JUMP JUMPDEST PUSH3 0x28E8 PUSH32 0x522F1571FB48EF6EA3E9E0B6F9DAB138206492FEC89844E7BF1DED65794E5806 PUSH1 0x0 SHL PUSH3 0x37FE JUMP JUMPDEST PUSH3 0x2916 PUSH32 0x6C41C5952A4021EE48DB6814ADC2FFFC422AC8F2EB8425EC003F86EA58B3C864 PUSH1 0x0 SHL PUSH3 0x37FE JUMP JUMPDEST CALLER PUSH20 0xFFFFFFFFFFFFFFFFFFFFFFFFFFFFFFFFFFFFFFFF AND PUSH1 0x0 DUP1 SWAP1 SLOAD SWAP1 PUSH2 0x100 EXP SWAP1 DIV PUSH20 0xFFFFFFFFFFFFFFFFFFFFFFFFFFFFFFFFFFFFFFFF AND PUSH20 0xFFFFFFFFFFFFFFFFFFFFFFFFFFFFFFFFFFFFFFFF AND EQ PUSH3 0x29D9 JUMPI PUSH1 0x40 MLOAD PUSH32 0x8C379A000000000000000000000000000000000000000000000000000000000 DUP2 MSTORE PUSH1 0x4 ADD DUP1 DUP1 PUSH1 0x20 ADD DUP3 DUP2 SUB DUP3 MSTORE PUSH1 0x20 DUP2 MSTORE PUSH1 0x20 ADD DUP1 PUSH32 0x4F776E61626C653A2063616C6C6572206973206E6F7420746865206F776E6572 DUP2 MSTORE POP PUSH1 0x20 ADD SWAP2 POP POP PUSH1 0x40 MLOAD DUP1 SWAP2 SUB SWAP1 REVERT JUMPDEST PUSH3 0x2A07 PUSH32 0x5A35E29A7CC84D55F7A9678E9DC2EDE30FB5F67F6AFF0B42BF6C4B23D0A937CC PUSH1 0x0 SHL PUSH3 0x37FE JUMP JUMPDEST PUSH3 0x2A35 PUSH32 0x1C760E035C6926B5F9779DC98270DEADF3392737A2366E2622768DC99F97EE8E PUSH1 0x0 SHL PUSH3 0x37FE JUMP JUMPDEST PUSH3 0x2A63 PUSH32 0xFD434CE63A5CFC7C9F33F307D1ACF2D2C433B55AB6D6E581A3F51D9D16C11663 PUSH1 0x0 SHL PUSH3 0x37FE JUMP JUMPDEST PUSH3 0x2A91 PUSH32 0x5D9D1BCB622C1FD87AEA34729E91527F413096BF03F2A783A0B6559E44B987C1 PUSH1 0x0 SHL PUSH3 0x37FE JUMP JUMPDEST PUSH3 0x2ABF PUSH32 0xE09D1F792C1E9D61DF867DD9BF8A53F996E088F02D0431F62605424ED6265162 PUSH1 0x0 SHL PUSH3 0x37FE JUMP JUMPDEST PUSH1 0x0 PUSH20 0xFFFFFFFFFFFFFFFFFFFFFFFFFFFFFFFFFFFFFFFF AND PUSH1 0x0 DUP1 SWAP1 SLOAD SWAP1 PUSH2 0x100 EXP SWAP1 DIV PUSH20 0xFFFFFFFFFFFFFFFFFFFFFFFFFFFFFFFFFFFFFFFF AND PUSH20 0xFFFFFFFFFFFFFFFFFFFFFFFFFFFFFFFFFFFFFFFF AND PUSH32 0x8BE0079C531659141344CD1FD0A4F28419497F9722A3DAAFE3B4186F6B6457E0 PUSH1 0x40 MLOAD PUSH1 0x40 MLOAD DUP1 SWAP2 SUB SWAP1 LOG3 PUSH3 0x2B69 PUSH32 0xD77D13FDA05EB234DA425DB383F986870BDEF7B1AEDA87F4551EEC9A3C8CEC77 PUSH1 0x0 SHL PUSH3 0x37FE JUMP JUMPDEST PUSH3 0x2B97 PUSH32 0xCA7B2226D03A90CE152A52499168E2D16E1ADA73D256AB0B0327EF1B564E88B2 PUSH1 0x0 SHL PUSH3 0x37FE JUMP JUMPDEST PUSH1 0x0 DUP1 PUSH1 0x0 PUSH2 0x100 EXP DUP2 SLOAD DUP2 PUSH20 0xFFFFFFFFFFFFFFFFFFFFFFFFFFFFFFFFFFFFFFFF MUL NOT AND SWAP1 DUP4 PUSH20 0xFFFFFFFFFFFFFFFFFFFFFFFFFFFFFFFFFFFFFFFF AND MUL OR SWAP1 SSTORE POP JUMP JUMPDEST PUSH3 0x2C08 PUSH32 0xBBD3F355D77656A0F50AAE973AB5793981CE48967D721219B0105F6DB34D30BA PUSH1 0x0 SHL PUSH3 0x37FE JUMP JUMPDEST PUSH3 0x2C36 PUSH32 0xBC95BF17CA2009E2526D43C8992D6F4437BC5D005EDAE2988D77646F85823501 PUSH1 0x0 SHL PUSH3 0x37FE JUMP JUMPDEST PUSH3 0x2C64 PUSH32 0x522F1571FB48EF6EA3E9E0B6F9DAB138206492FEC89844E7BF1DED65794E5806 PUSH1 0x0 SHL PUSH3 0x37FE JUMP JUMPDEST PUSH3 0x2C92 PUSH32 0x6C41C5952A4021EE48DB6814ADC2FFFC422AC8F2EB8425EC003F86EA58B3C864 PUSH1 0x0 SHL PUSH3 0x37FE JUMP JUMPDEST CALLER PUSH20 0xFFFFFFFFFFFFFFFFFFFFFFFFFFFFFFFFFFFFFFFF AND PUSH1 0x0 DUP1 SWAP1 SLOAD SWAP1 PUSH2 0x100 EXP SWAP1 DIV PUSH20 0xFFFFFFFFFFFFFFFFFFFFFFFFFFFFFFFFFFFFFFFF AND PUSH20 0xFFFFFFFFFFFFFFFFFFFFFFFFFFFFFFFFFFFFFFFF AND EQ PUSH3 0x2D55 JUMPI PUSH1 0x40 MLOAD PUSH32 0x8C379A000000000000000000000000000000000000000000000000000000000 DUP2 MSTORE PUSH1 0x4 ADD DUP1 DUP1 PUSH1 0x20 ADD DUP3 DUP2 SUB DUP3 MSTORE PUSH1 0x20 DUP2 MSTORE PUSH1 0x20 ADD DUP1 PUSH32 0x4F776E61626C653A2063616C6C6572206973206E6F7420746865206F776E6572 DUP2 MSTORE POP PUSH1 0x20 ADD SWAP2 POP POP PUSH1 0x40 MLOAD DUP1 SWAP2 SUB SWAP1 REVERT JUMPDEST PUSH3 0x2D83 PUSH32 0x5A35E29A7CC84D55F7A9678E9DC2EDE30FB5F67F6AFF0B42BF6C4B23D0A937CC PUSH1 0x0 SHL PUSH3 0x37FE JUMP JUMPDEST PUSH3 0x2DB1 PUSH32 0x1C760E035C6926B5F9779DC98270DEADF3392737A2366E2622768DC99F97EE8E PUSH1 0x0 SHL PUSH3 0x37FE JUMP JUMPDEST PUSH3 0x2DDF PUSH32 0x7D4C1DDE59CEECF4D44CC210675C1CE82ACCFAC080B194CB4CDF75B6197DDB2A PUSH1 0x0 SHL PUSH3 0x30CB JUMP JUMPDEST PUSH3 0x2E0D PUSH32 0xDB31003867339946498245586B1025D9F0DE04049CBE6DA1888AA99D2F494DC PUSH1 0x0 SHL PUSH3 0x30CB JUMP JUMPDEST PUSH3 0x2E3B PUSH32 0xBCB68816D34648C52D2565D32D2D80E81E993118014EECAACF5CEC31426B59C4 PUSH1 0x0 SHL PUSH3 0x30CB JUMP JUMPDEST PUSH3 0x2E69 PUSH32 0x4A8393AB576ED99E1CC82F0A91AAA93462D9E3797F3DAC6F1739F78BB9C74CAF PUSH1 0x0 SHL PUSH3 0x30CB JUMP JUMPDEST PUSH1 0x1 PUSH1 0x2 DUP2 GT ISZERO PUSH3 0x2E77 JUMPI INVALID JUMPDEST PUSH1 0x7 PUSH1 0x0 DUP5 DUP2 MSTORE PUSH1 0x20 ADD SWAP1 DUP2 MSTORE PUSH1 0x20 ADD PUSH1 0x0 KECCAK256 PUSH1 0x0 ADD PUSH1 0x0 SWAP1 SLOAD SWAP1 PUSH2 0x100 EXP SWAP1 DIV PUSH1 0xFF AND PUSH1 0x2 DUP2 GT ISZERO PUSH3 0x2EA7 JUMPI INVALID JUMPDEST EQ PUSH3 0x2EFF JUMPI PUSH1 0x40 MLOAD PUSH32 0x8C379A000000000000000000000000000000000000000000000000000000000 DUP2 MSTORE PUSH1 0x4 ADD DUP1 DUP1 PUSH1 0x20 ADD DUP3 DUP2 SUB DUP3 MSTORE PUSH1 0x23 DUP2 MSTORE PUSH1 0x20 ADD DUP1 PUSH3 0x6C2B PUSH1 0x23 SWAP2 CODECOPY PUSH1 0x40 ADD SWAP2 POP POP PUSH1 0x40 MLOAD DUP1 SWAP2 SUB SWAP1 REVERT JUMPDEST PUSH3 0x2F2D PUSH32 0x988DADF207FDD9815B4D90E6A00706AB85FCFED2EDA067178877818184E7BC94 PUSH1 0x0 SHL PUSH3 0x30CB JUMP JUMPDEST PUSH3 0x2F5B PUSH32 0x8F527810C4D7BBA5015653D67EA4DCBB54C589262A92D08F17BC7E2024FF302B PUSH1 0x0 SHL PUSH3 0x30CB JUMP JUMPDEST PUSH3 0x2F89 PUSH32 0x81510C448E1E74386D6F23A64EBDF5A77762F5ABECF6538045B23C03D57EF2D9 PUSH1 0x0 SHL PUSH3 0x30CB JUMP JUMPDEST PUSH1 0x7 PUSH1 0x0 DUP4 DUP2 MSTORE PUSH1 0x20 ADD SWAP1 DUP2 MSTORE PUSH1 0x20 ADD PUSH1 0x0 KECCAK256 PUSH1 0x3 ADD DUP2 SWAP1 DUP1 PUSH1 0x1 DUP2 SLOAD ADD DUP1 DUP3 SSTORE DUP1 SWAP2 POP POP PUSH1 0x1 SWAP1 SUB SWAP1 PUSH1 0x0 MSTORE PUSH1 0x20 PUSH1 0x0 KECCAK256 ADD PUSH1 0x0 SWAP1 SWAP2 SWAP1 SWAP2 SWAP1 SWAP2 PUSH2 0x100 EXP DUP2 SLOAD DUP2 PUSH20 0xFFFFFFFFFFFFFFFFFFFFFFFFFFFFFFFFFFFFFFFF MUL NOT AND SWAP1 DUP4 PUSH20 0xFFFFFFFFFFFFFFFFFFFFFFFFFFFFFFFFFFFFFFFF AND MUL OR SWAP1 SSTORE POP PUSH3 0x302E PUSH32 0xF15413D3788BE6B6549CF789755A85CAFACE7CD97D5A7E3D1878B158C7248EFB PUSH1 0x0 SHL PUSH3 0x30CB JUMP JUMPDEST PUSH3 0x305C PUSH32 0xF0109DF0435BB85B3E1F012CD43D0E7C286AC102082FFF56F298D89707C39C7D PUSH1 0x0 SHL PUSH3 0x30CB JUMP JUMPDEST PUSH32 0x3692CDDEE3F850C6A39CFD231903164D5B29A337CAD2A6763434D94A5ED4BB38 DUP3 DUP3 PUSH1 0x40 MLOAD DUP1 DUP4 DUP2 MSTORE PUSH1 0x20 ADD DUP3 PUSH20 0xFFFFFFFFFFFFFFFFFFFFFFFFFFFFFFFFFFFFFFFF AND PUSH20 0xFFFFFFFFFFFFFFFFFFFFFFFFFFFFFFFFFFFFFFFF AND DUP2 MSTORE PUSH1 0x20 ADD SWAP3 POP POP POP PUSH1 0x40 MLOAD DUP1 SWAP2 SUB SWAP1 LOG1 POP POP JUMP JUMPDEST POP JUMP JUMPDEST PUSH3 0x30FC PUSH32 0xBBD3F355D77656A0F50AAE973AB5793981CE48967D721219B0105F6DB34D30BA PUSH1 0x0 SHL PUSH3 0x37FE JUMP JUMPDEST PUSH3 0x312A PUSH32 0xBC95BF17CA2009E2526D43C8992D6F4437BC5D005EDAE2988D77646F85823501 PUSH1 0x0 SHL PUSH3 0x37FE JUMP JUMPDEST PUSH3 0x3158 PUSH32 0x522F1571FB48EF6EA3E9E0B6F9DAB138206492FEC89844E7BF1DED65794E5806 PUSH1 0x0 SHL PUSH3 0x37FE JUMP JUMPDEST PUSH3 0x3186 PUSH32 0x6C41C5952A4021EE48DB6814ADC2FFFC422AC8F2EB8425EC003F86EA58B3C864 PUSH1 0x0 SHL PUSH3 0x37FE JUMP JUMPDEST CALLER PUSH20 0xFFFFFFFFFFFFFFFFFFFFFFFFFFFFFFFFFFFFFFFF AND PUSH1 0x0 DUP1 SWAP1 SLOAD SWAP1 PUSH2 0x100 EXP SWAP1 DIV PUSH20 0xFFFFFFFFFFFFFFFFFFFFFFFFFFFFFFFFFFFFFFFF AND PUSH20 0xFFFFFFFFFFFFFFFFFFFFFFFFFFFFFFFFFFFFFFFF AND EQ PUSH3 0x3249 JUMPI PUSH1 0x40 MLOAD PUSH32 0x8C379A000000000000000000000000000000000000000000000000000000000 DUP2 MSTORE PUSH1 0x4 ADD DUP1 DUP1 PUSH1 0x20 ADD DUP3 DUP2 SUB DUP3 MSTORE PUSH1 0x20 DUP2 MSTORE PUSH1 0x20 ADD DUP1 PUSH32 0x4F776E61626C653A2063616C6C6572206973206E6F7420746865206F776E6572 DUP2 MSTORE POP PUSH1 0x20 ADD SWAP2 POP POP PUSH1 0x40 MLOAD DUP1 SWAP2 SUB SWAP1 REVERT JUMPDEST PUSH3 0x3277 PUSH32 0x5A35E29A7CC84D55F7A9678E9DC2EDE30FB5F67F6AFF0B42BF6C4B23D0A937CC PUSH1 0x0 SHL PUSH3 0x37FE JUMP JUMPDEST PUSH3 0x32A5 PUSH32 0x1C760E035C6926B5F9779DC98270DEADF3392737A2366E2622768DC99F97EE8E PUSH1 0x0 SHL PUSH3 0x37FE JUMP JUMPDEST PUSH3 0x32D3 PUSH32 0xEB712B18B09F9B9D7EF14A1E36B12698CC88186060EAC24FBEAFBADA836B2204 PUSH1 0x0 SHL PUSH3 0x30CB JUMP JUMPDEST PUSH3 0x3301 PUSH32 0x79AE5319EAD690DC01C0E237B40B48C58753D403C65F233FABCAC77495DF43D7 PUSH1 0x0 SHL PUSH3 0x30CB JUMP JUMPDEST PUSH3 0x332F PUSH32 0x707F9F1E0863ACCE6CE943384643666EB13E962077AC08EE91B305653AD4337D PUSH1 0x0 SHL PUSH3 0x30CB JUMP JUMPDEST PUSH3 0x335D PUSH32 0x463CEA75D464829EED8C47594D793DCFAC622F398BC740DFB256449C7F8639FC PUSH1 0x0 SHL PUSH3 0x30CB JUMP JUMPDEST PUSH1 0x0 PUSH1 0x2 DUP2 GT ISZERO PUSH3 0x336B JUMPI INVALID JUMPDEST PUSH1 0x7 PUSH1 0x0 DUP8 DUP2 MSTORE PUSH1 0x20 ADD SWAP1 DUP2 MSTORE PUSH1 0x20 ADD PUSH1 0x0 KECCAK256 PUSH1 0x0 ADD PUSH1 0x0 SWAP1 SLOAD SWAP1 PUSH2 0x100 EXP SWAP1 DIV PUSH1 0xFF AND PUSH1 0x2 DUP2 GT ISZERO PUSH3 0x339B JUMPI INVALID JUMPDEST EQ PUSH3 0x33F3 JUMPI PUSH1 0x40 MLOAD PUSH32 0x8C379A000000000000000000000000000000000000000000000000000000000 DUP2 MSTORE PUSH1 0x4 ADD DUP1 DUP1 PUSH1 0x20 ADD DUP3 DUP2 SUB DUP3 MSTORE PUSH1 0x21 DUP2 MSTORE PUSH1 0x20 ADD DUP1 PUSH3 0x6C4E PUSH1 0x21 SWAP2 CODECOPY PUSH1 0x40 ADD SWAP2 POP POP PUSH1 0x40 MLOAD DUP1 SWAP2 SUB SWAP1 REVERT JUMPDEST PUSH3 0x3421 PUSH32 0x8524063BB2B1978B8BD7EE1528C928F5ED8E2FA14D39EE042B73B693125CF48C PUSH1 0x0 SHL PUSH3 0x30CB JUMP JUMPDEST PUSH3 0x344F PUSH32 0x4032B642E80D500BB20298BE71EC08350B92B950BC3C503655FED2E934D1C873 PUSH1 0x0 SHL PUSH3 0x30CB JUMP JUMPDEST PUSH3 0x347D PUSH32 0x1A5253CCC42790CF2EFA66C82AAD189D0A4BB9F0B268B6A9E4E5C5BAD75E362C PUSH1 0x0 SHL PUSH3 0x30CB JUMP JUMPDEST PUSH1 0x60 PUSH1 0x0 PUSH8 0xFFFFFFFFFFFFFFFF DUP2 GT DUP1 ISZERO PUSH3 0x3498 JUMPI PUSH1 0x0 DUP1 REVERT JUMPDEST POP PUSH1 0x40 MLOAD SWAP1 DUP1 DUP3 MSTORE DUP1 PUSH1 0x20 MUL PUSH1 0x20 ADD DUP3 ADD PUSH1 0x40 MSTORE DUP1 ISZERO PUSH3 0x34C8 JUMPI DUP2 PUSH1 0x20 ADD PUSH1 0x20 DUP3 MUL DUP1 CALLDATASIZE DUP4 CALLDATACOPY DUP1 DUP3 ADD SWAP2 POP POP SWAP1 POP JUMPDEST POP SWAP1 POP PUSH3 0x34F9 PUSH32 0xD474A61EBE0E1DC848EFA88FF569E8994BF4E78971CDCD85CEC205172123FC37 PUSH1 0x0 SHL PUSH3 0x30CB JUMP JUMPDEST PUSH3 0x3527 PUSH32 0x7768C4447863AD8A974BB9475C98A5F2A79F0784576BDFFE897F8D261D34C05A PUSH1 0x0 SHL PUSH3 0x30CB JUMP JUMPDEST PUSH1 0x40 MLOAD DUP1 PUSH1 0xA0 ADD PUSH1 0x40 MSTORE DUP1 PUSH1 0x1 PUSH1 0x2 DUP2 GT ISZERO PUSH3 0x3540 JUMPI INVALID JUMPDEST DUP2 MSTORE PUSH1 0x20 ADD PUSH1 0x0 PUSH20 0xFFFFFFFFFFFFFFFFFFFFFFFFFFFFFFFFFFFFFFFF AND DUP2 MSTORE PUSH1 0x20 ADD DUP7 DUP7 DUP1 DUP1 PUSH1 0x1F ADD PUSH1 0x20 DUP1 SWAP2 DIV MUL PUSH1 0x20 ADD PUSH1 0x40 MLOAD SWAP1 DUP2 ADD PUSH1 0x40 MSTORE DUP1 SWAP4 SWAP3 SWAP2 SWAP1 DUP2 DUP2 MSTORE PUSH1 0x20 ADD DUP4 DUP4 DUP1 DUP3 DUP5 CALLDATACOPY PUSH1 0x0 DUP2 DUP5 ADD MSTORE PUSH1 0x1F NOT PUSH1 0x1F DUP3 ADD AND SWAP1 POP DUP1 DUP4 ADD SWAP3 POP POP POP POP POP POP POP DUP2 MSTORE PUSH1 0x20 ADD DUP5 DUP5 DUP1 DUP1 PUSH1 0x1F ADD PUSH1 0x20 DUP1 SWAP2 DIV MUL PUSH1 0x20 ADD PUSH1 0x40 MLOAD SWAP1 DUP2 ADD PUSH1 0x40 MSTORE DUP1 SWAP4 SWAP3 SWAP2 SWAP1 DUP2 DUP2 MSTORE PUSH1 0x20 ADD DUP4 DUP4 DUP1 DUP3 DUP5 CALLDATACOPY PUSH1 0x0 DUP2 DUP5 ADD MSTORE PUSH1 0x1F NOT PUSH1 0x1F DUP3 ADD AND SWAP1 POP DUP1 DUP4 ADD SWAP3 POP POP POP POP POP POP POP DUP2 MSTORE PUSH1 0x20 ADD DUP3 DUP2 MSTORE POP PUSH1 0x7 PUSH1 0x0 DUP9 DUP2 MSTORE PUSH1 0x20 ADD SWAP1 DUP2 MSTORE PUSH1 0x20 ADD PUSH1 0x0 KECCAK256 PUSH1 0x0 DUP3 ADD MLOAD DUP2 PUSH1 0x0 ADD PUSH1 0x0 PUSH2 0x100 EXP DUP2 SLOAD DUP2 PUSH1 0xFF MUL NOT AND SWAP1 DUP4 PUSH1 0x2 DUP2 GT ISZERO PUSH3 0x3632 JUMPI INVALID JUMPDEST MUL OR SWAP1 SSTORE POP PUSH1 0x20 DUP3 ADD MLOAD DUP2 PUSH1 0x0 ADD PUSH1 0x1 PUSH2 0x100 EXP DUP2 SLOAD DUP2 PUSH20 0xFFFFFFFFFFFFFFFFFFFFFFFFFFFFFFFFFFFFFFFF MUL NOT AND SWAP1 DUP4 PUSH20 0xFFFFFFFFFFFFFFFFFFFFFFFFFFFFFFFFFFFFFFFF AND MUL OR SWAP1 SSTORE POP PUSH1 0x40 DUP3 ADD MLOAD DUP2 PUSH1 0x1 ADD SWAP1 DUP1 MLOAD SWAP1 PUSH1 0x20 ADD SWAP1 PUSH3 0x369C SWAP3 SWAP2 SWAP1 PUSH3 0x5345 JUMP JUMPDEST POP PUSH1 0x60 DUP3 ADD MLOAD DUP2 PUSH1 0x2 ADD SWAP1 DUP1 MLOAD SWAP1 PUSH1 0x20 ADD SWAP1 PUSH3 0x36BB SWAP3 SWAP2 SWAP1 PUSH3 0x5345 JUMP JUMPDEST POP PUSH1 0x80 DUP3 ADD MLOAD DUP2 PUSH1 0x3 ADD SWAP1 DUP1 MLOAD SWAP1 PUSH1 0x20 ADD SWAP1 PUSH3 0x36DA SWAP3 SWAP2 SWAP1 PUSH3 0x53CC JUMP JUMPDEST POP SWAP1 POP POP PUSH3 0x370C PUSH32 0x4B97E18D848ADF7BDF1911044139BF94CCB7DD420B8732AABF28DCDD0B525EC PUSH1 0x0 SHL PUSH3 0x30CB JUMP JUMPDEST PUSH3 0x373A PUSH32 0x77DB821C3D2632C087A02991842895A2AC907CBA075F55800CADC44C55DE2A18 PUSH1 0x0 SHL PUSH3 0x30CB JUMP JUMPDEST PUSH1 0x3 DUP7 SWAP1 DUP1 PUSH1 0x1 DUP2 SLOAD ADD DUP1 DUP3 SSTORE DUP1 SWAP2 POP POP PUSH1 0x1 SWAP1 SUB SWAP1 PUSH1 0x0 MSTORE PUSH1 0x20 PUSH1 0x0 KECCAK256 ADD PUSH1 0x0 SWAP1 SWAP2 SWAP1 SWAP2 SWAP1 SWAP2 POP SSTORE PUSH3 0x3791 PUSH32 0x9582E8CD6AF387DC7EDBB056AE8C289E56AF335256B427DD3D2868DD8D37519 PUSH1 0x0 SHL PUSH3 0x30CB JUMP JUMPDEST PUSH3 0x37BF PUSH32 0x9555B1D07155DA47AC45D0BA96C6EF8783B18530FD1739D50483995ADC83EFD0 PUSH1 0x0 SHL PUSH3 0x30CB JUMP JUMPDEST PUSH32 0x2A5AB9EC691FB839007CF12D3897D875D6526E4ABB4C51B9D7A0FC8A98D05FDD DUP7 PUSH1 0x40 MLOAD DUP1 DUP3 DUP2 MSTORE PUSH1 0x20 ADD SWAP2 POP POP PUSH1 0x40 MLOAD DUP1 SWAP2 SUB SWAP1 LOG1 POP POP POP POP POP POP JUMP JUMPDEST POP JUMP JUMPDEST PUSH3 0x382F PUSH32 0xBBD3F355D77656A0F50AAE973AB5793981CE48967D721219B0105F6DB34D30BA PUSH1 0x0 SHL PUSH3 0x37FE JUMP JUMPDEST PUSH3 0x385D PUSH32 0xBC95BF17CA2009E2526D43C8992D6F4437BC5D005EDAE2988D77646F85823501 PUSH1 0x0 SHL PUSH3 0x37FE JUMP JUMPDEST PUSH3 0x388B PUSH32 0x522F1571FB48EF6EA3E9E0B6F9DAB138206492FEC89844E7BF1DED65794E5806 PUSH1 0x0 SHL PUSH3 0x37FE JUMP JUMPDEST PUSH3 0x38B9 PUSH32 0x6C41C5952A4021EE48DB6814ADC2FFFC422AC8F2EB8425EC003F86EA58B3C864 PUSH1 0x0 SHL PUSH3 0x37FE JUMP JUMPDEST CALLER PUSH20 0xFFFFFFFFFFFFFFFFFFFFFFFFFFFFFFFFFFFFFFFF AND PUSH1 0x0 DUP1 SWAP1 SLOAD SWAP1 PUSH2 0x100 EXP SWAP1 DIV PUSH20 0xFFFFFFFFFFFFFFFFFFFFFFFFFFFFFFFFFFFFFFFF AND PUSH20 0xFFFFFFFFFFFFFFFFFFFFFFFFFFFFFFFFFFFFFFFF AND EQ PUSH3 0x397C JUMPI PUSH1 0x40 MLOAD PUSH32 0x8C379A000000000000000000000000000000000000000000000000000000000 DUP2 MSTORE PUSH1 0x4 ADD DUP1 DUP1 PUSH1 0x20 ADD DUP3 DUP2 SUB DUP3 MSTORE PUSH1 0x20 DUP2 MSTORE PUSH1 0x20 ADD DUP1 PUSH32 0x4F776E61626C653A2063616C6C6572206973206E6F7420746865206F776E6572 DUP2 MSTORE POP PUSH1 0x20 ADD SWAP2 POP POP PUSH1 0x40 MLOAD DUP1 SWAP2 SUB SWAP1 REVERT JUMPDEST PUSH3 0x39AA PUSH32 0x5A35E29A7CC84D55F7A9678E9DC2EDE30FB5F67F6AFF0B42BF6C4B23D0A937CC PUSH1 0x0 SHL PUSH3 0x37FE JUMP JUMPDEST PUSH3 0x39D8 PUSH32 0x1C760E035C6926B5F9779DC98270DEADF3392737A2366E2622768DC99F97EE8E PUSH1 0x0 SHL PUSH3 0x37FE JUMP JUMPDEST PUSH3 0x3A06 PUSH32 0xD0BBFF4D9B196274A79B73E905CBACFDB3DD336E51F765691A91DE49DF798457 PUSH1 0x0 SHL PUSH3 0x30CB JUMP JUMPDEST PUSH3 0x3A34 PUSH32 0xCFAC9BC2FCDB09D3719122B1D0BFD122D069B6B054D9F3CB12D5A9465DAF2338 PUSH1 0x0 SHL PUSH3 0x30CB JUMP JUMPDEST PUSH3 0x3A62 PUSH32 0x793B6C3F972BBAE3AFA9C5F64C9444BD113241F731701BF786B92037F5E642E PUSH1 0x0 SHL PUSH3 0x30CB JUMP JUMPDEST PUSH3 0x3A90 PUSH32 0xA0A86A28F21B31DDA3693DD6060B1F6CE741BCCE0CB78D0077C141B9E6BFFAA5 PUSH1 0x0 SHL PUSH3 0x30CB JUMP JUMPDEST PUSH1 0x0 PUSH1 0x2 DUP2 GT ISZERO PUSH3 0x3A9E JUMPI INVALID JUMPDEST PUSH1 0x7 PUSH1 0x0 DUP4 DUP2 MSTORE PUSH1 0x20 ADD SWAP1 DUP2 MSTORE PUSH1 0x20 ADD PUSH1 0x0 KECCAK256 PUSH1 0x0 ADD PUSH1 0x0 SWAP1 SLOAD SWAP1 PUSH2 0x100 EXP SWAP1 DIV PUSH1 0xFF AND PUSH1 0x2 DUP2 GT ISZERO PUSH3 0x3ACE JUMPI INVALID JUMPDEST EQ ISZERO PUSH3 0x3B43 JUMPI PUSH1 0x40 MLOAD PUSH32 0x8C379A000000000000000000000000000000000000000000000000000000000 DUP2 MSTORE PUSH1 0x4 ADD DUP1 DUP1 PUSH1 0x20 ADD DUP3 DUP2 SUB DUP3 MSTORE PUSH1 0x16 DUP2 MSTORE PUSH1 0x20 ADD DUP1 PUSH32 0x50726F6A65637420646F6573206E6F7420657869737400000000000000000000 DUP2 MSTORE POP PUSH1 0x20 ADD SWAP2 POP POP PUSH1 0x40 MLOAD DUP1 SWAP2 SUB SWAP1 REVERT JUMPDEST PUSH3 0x3B71 PUSH32 0x87B2D6298FE9BB427C8A40D9C19523D9C813B706B0E629E4FADAAB87E4F8C190 PUSH1 0x0 SHL PUSH3 0x30CB JUMP JUMPDEST PUSH3 0x3B9F PUSH32 0x4EAF205781E6768523B02862879BEF590DB31F1F0C171F63FE5EA71F7C26F991 PUSH1 0x0 SHL PUSH3 0x30CB JUMP JUMPDEST PUSH3 0x3BCD PUSH32 0x19D9F112F1F42CB63B8E19019A83FC8B9E8BF65A9C7F2A47F5E2D09A646511F7 PUSH1 0x0 SHL PUSH3 0x30CB JUMP JUMPDEST PUSH1 0x1 PUSH1 0x2 DUP2 GT ISZERO PUSH3 0x3BDB JUMPI INVALID JUMPDEST PUSH1 0x7 PUSH1 0x0 DUP4 DUP2 MSTORE PUSH1 0x20 ADD SWAP1 DUP2 MSTORE PUSH1 0x20 ADD PUSH1 0x0 KECCAK256 PUSH1 0x0 ADD PUSH1 0x0 SWAP1 SLOAD SWAP1 PUSH2 0x100 EXP SWAP1 DIV PUSH1 0xFF AND PUSH1 0x2 DUP2 GT ISZERO PUSH3 0x3C0B JUMPI INVALID JUMPDEST EQ ISZERO PUSH3 0x3CDB JUMPI PUSH3 0x3C40 PUSH32 0xD976A840BE9E8EAF5ABC658F85FB2990DD9C4A33F9EDEFEBC15E9AB8FF197AE PUSH1 0x0 SHL PUSH3 0x30CB JUMP JUMPDEST PUSH3 0x3C6E PUSH32 0x401C679A1397365F3258413FF559B001D916F54BBE380F603E814D12048AB52F PUSH1 0x0 SHL PUSH3 0x30CB JUMP JUMPDEST PUSH3 0x3C9C PUSH32 0x89A6B303D82A44703541BC237D8C29E465A053DE0882771F20A5CA77A10CF7D PUSH1 0x0 SHL PUSH3 0x30CB JUMP JUMPDEST PUSH1 0x2 PUSH1 0x7 PUSH1 0x0 DUP4 DUP2 MSTORE PUSH1 0x20 ADD SWAP1 DUP2 MSTORE PUSH1 0x20 ADD PUSH1 0x0 KECCAK256 PUSH1 0x0 ADD PUSH1 0x0 PUSH2 0x100 EXP DUP2 SLOAD DUP2 PUSH1 0xFF MUL NOT AND SWAP1 DUP4 PUSH1 0x2 DUP2 GT ISZERO PUSH3 0x3CD0 JUMPI INVALID JUMPDEST MUL OR SWAP1 SSTORE POP PUSH3 0x3D71 JUMP JUMPDEST PUSH3 0x3D09 PUSH32 0xDA3EB81FBE790715BD2907DF4B033AC7AA487592266EA8A02FF0A3FCBC3DCF37 PUSH1 0x0 SHL PUSH3 0x30CB JUMP JUMPDEST PUSH3 0x3D37 PUSH32 0x50A05269F04D4688B4EC1C88E643B8B8BD4F3D5803AF5B2FF3A1819680C11C45 PUSH1 0x0 SHL PUSH3 0x30CB JUMP JUMPDEST PUSH1 0x1 PUSH1 0x7 PUSH1 0x0 DUP4 DUP2 MSTORE PUSH1 0x20 ADD SWAP1 DUP2 MSTORE PUSH1 0x20 ADD PUSH1 0x0 KECCAK256 PUSH1 0x0 ADD PUSH1 0x0 PUSH2 0x100 EXP DUP2 SLOAD DUP2 PUSH1 0xFF MUL NOT AND SWAP1 DUP4 PUSH1 0x2 DUP2 GT ISZERO PUSH3 0x3D6B JUMPI INVALID JUMPDEST MUL OR SWAP1 SSTORE POP JUMPDEST PUSH3 0x3D9F PUSH32 0xCE5A2E9DF95E042EB5D1C5441EF0914C81463306E2B18EE833404D07CE9F170C PUSH1 0x0 SHL PUSH3 0x30CB JUMP JUMPDEST PUSH3 0x3DCD PUSH32 0x26C5B3BEBC1EF489284077F6E98371757917803CD125BF886B9D2F32BFD687DE PUSH1 0x0 SHL PUSH3 0x30CB JUMP JUMPDEST PUSH32 0x5D1817F0324E15D9B2F28FD0374B935F9C8ECB961C916140425D4C2936ED17BE DUP2 PUSH1 0x7 PUSH1 0x0 DUP5 DUP2 MSTORE PUSH1 0x20 ADD SWAP1 DUP2 MSTORE PUSH1 0x20 ADD PUSH1 0x0 KECCAK256 PUSH1 0x0 ADD PUSH1 0x0 SWAP1 SLOAD SWAP1 PUSH2 0x100 EXP SWAP1 DIV PUSH1 0xFF AND PUSH1 0x40 MLOAD DUP1 DUP4 DUP2 MSTORE PUSH1 0x20 ADD DUP3 PUSH1 0x2 DUP2 GT ISZERO PUSH3 0x3E2A JUMPI INVALID JUMPDEST PUSH1 0xFF AND DUP2 MSTORE PUSH1 0x20 ADD SWAP3 POP POP POP PUSH1 0x40 MLOAD DUP1 SWAP2 SUB SWAP1 LOG1 POP JUMP JUMPDEST PUSH1 0x0 PUSH3 0x3E71 PUSH32 0x997C03FF3D60A17A89C98C193B8140F8CA6B8C408D964F1DE9E87C5525A5C9EE PUSH1 0x0 SHL PUSH3 0x37FE JUMP JUMPDEST PUSH3 0x3E9F PUSH32 0xA480BE44F68B4E3F9AD8D7CFD0ADF549ADF540CADA54DC05B640D03F41F2A5A7 PUSH1 0x0 SHL PUSH3 0x37FE JUMP JUMPDEST PUSH3 0x3ECD PUSH32 0x2130671547929ECB1DFD61FDBE22B3260F088A8B752B444A52F115075A98ACE5 PUSH1 0x0 SHL PUSH3 0x37FE JUMP JUMPDEST PUSH1 0x0 DUP1 SWAP1 SLOAD SWAP1 PUSH2 0x100 EXP SWAP1 DIV PUSH20 0xFFFFFFFFFFFFFFFFFFFFFFFFFFFFFFFFFFFFFFFF AND SWAP1 POP SWAP1 JUMP JUMPDEST PUSH3 0x3F22 PUSH32 0xBBD3F355D77656A0F50AAE973AB5793981CE48967D721219B0105F6DB34D30BA PUSH1 0x0 SHL PUSH3 0x37FE JUMP JUMPDEST PUSH3 0x3F50 PUSH32 0xBC95BF17CA2009E2526D43C8992D6F4437BC5D005EDAE2988D77646F85823501 PUSH1 0x0 SHL PUSH3 0x37FE JUMP JUMPDEST PUSH3 0x3F7E PUSH32 0x522F1571FB48EF6EA3E9E0B6F9DAB138206492FEC89844E7BF1DED65794E5806 PUSH1 0x0 SHL PUSH3 0x37FE JUMP JUMPDEST PUSH3 0x3FAC PUSH32 0x6C41C5952A4021EE48DB6814ADC2FFFC422AC8F2EB8425EC003F86EA58B3C864 PUSH1 0x0 SHL PUSH3 0x37FE JUMP JUMPDEST CALLER PUSH20 0xFFFFFFFFFFFFFFFFFFFFFFFFFFFFFFFFFFFFFFFF AND PUSH1 0x0 DUP1 SWAP1 SLOAD SWAP1 PUSH2 0x100 EXP SWAP1 DIV PUSH20 0xFFFFFFFFFFFFFFFFFFFFFFFFFFFFFFFFFFFFFFFF AND PUSH20 0xFFFFFFFFFFFFFFFFFFFFFFFFFFFFFFFFFFFFFFFF AND EQ PUSH3 0x406F JUMPI PUSH1 0x40 MLOAD PUSH32 0x8C379A000000000000000000000000000000000000000000000000000000000 DUP2 MSTORE PUSH1 0x4 ADD DUP1 DUP1 PUSH1 0x20 ADD DUP3 DUP2 SUB DUP3 MSTORE PUSH1 0x20 DUP2 MSTORE PUSH1 0x20 ADD DUP1 PUSH32 0x4F776E61626C653A2063616C6C6572206973206E6F7420746865206F776E6572 DUP2 MSTORE POP PUSH1 0x20 ADD SWAP2 POP POP PUSH1 0x40 MLOAD DUP1 SWAP2 SUB SWAP1 REVERT JUMPDEST PUSH3 0x409D PUSH32 0x5A35E29A7CC84D55F7A9678E9DC2EDE30FB5F67F6AFF0B42BF6C4B23D0A937CC PUSH1 0x0 SHL PUSH3 0x37FE JUMP JUMPDEST PUSH3 0x40CB PUSH32 0x1C760E035C6926B5F9779DC98270DEADF3392737A2366E2622768DC99F97EE8E PUSH1 0x0 SHL PUSH3 0x37FE JUMP JUMPDEST PUSH3 0x40F9 PUSH32 0xDE076D19F1F2457370491D92EDDB3CA09EC47DDD01C1275990AE178012EC5E80 PUSH1 0x0 SHL PUSH3 0x30CB JUMP JUMPDEST PUSH3 0x4127 PUSH32 0xBF2773A8CD02C34990F7C8E6C670ECA80EEA6143A68745E1B7DD601D561EDDFD PUSH1 0x0 SHL PUSH3 0x30CB JUMP JUMPDEST PUSH3 0x4155 PUSH32 0xD79815231035393D54351EC9B7C6410F993422252C63B3F60923C191BEA968E1 PUSH1 0x0 SHL PUSH3 0x30CB JUMP JUMPDEST PUSH1 0x40 MLOAD DUP1 PUSH1 0x60 ADD PUSH1 0x40 MSTORE DUP1 PUSH1 0x1 PUSH1 0x2 DUP2 GT ISZERO PUSH3 0x416E JUMPI INVALID JUMPDEST DUP2 MSTORE PUSH1 0x20 ADD DUP6 PUSH1 0x2 DUP2 GT ISZERO PUSH3 0x4180 JUMPI INVALID JUMPDEST DUP2 MSTORE PUSH1 0x20 ADD DUP4 DUP4 DUP1 DUP1 PUSH1 0x1F ADD PUSH1 0x20 DUP1 SWAP2 DIV MUL PUSH1 0x20 ADD PUSH1 0x40 MLOAD SWAP1 DUP2 ADD PUSH1 0x40 MSTORE DUP1 SWAP4 SWAP3 SWAP2 SWAP1 DUP2 DUP2 MSTORE PUSH1 0x20 ADD DUP4 DUP4 DUP1 DUP3 DUP5 CALLDATACOPY PUSH1 0x0 DUP2 DUP5 ADD MSTORE PUSH1 0x1F NOT PUSH1 0x1F DUP3 ADD AND SWAP1 POP DUP1 DUP4 ADD SWAP3 POP POP POP POP POP POP POP DUP2 MSTORE POP PUSH1 0x6 PUSH1 0x0 DUP6 PUSH20 0xFFFFFFFFFFFFFFFFFFFFFFFFFFFFFFFFFFFFFFFF AND PUSH20 0xFFFFFFFFFFFFFFFFFFFFFFFFFFFFFFFFFFFFFFFF AND DUP2 MSTORE PUSH1 0x20 ADD SWAP1 DUP2 MSTORE PUSH1 0x20 ADD PUSH1 0x0 KECCAK256 PUSH1 0x0 DUP3 ADD MLOAD DUP2 PUSH1 0x0 ADD PUSH1 0x0 PUSH2 0x100 EXP DUP2 SLOAD DUP2 PUSH1 0xFF MUL NOT AND SWAP1 DUP4 PUSH1 0x2 DUP2 GT ISZERO PUSH3 0x4231 JUMPI INVALID JUMPDEST MUL OR SWAP1 SSTORE POP PUSH1 0x20 DUP3 ADD MLOAD DUP2 PUSH1 0x0 ADD PUSH1 0x1 PUSH2 0x100 EXP DUP2 SLOAD DUP2 PUSH1 0xFF MUL NOT AND SWAP1 DUP4 PUSH1 0x2 DUP2 GT ISZERO PUSH3 0x425B JUMPI INVALID JUMPDEST MUL OR SWAP1 SSTORE POP PUSH1 0x40 DUP3 ADD MLOAD DUP2 PUSH1 0x1 ADD SWAP1 DUP1 MLOAD SWAP1 PUSH1 0x20 ADD SWAP1 PUSH3 0x427E SWAP3 SWAP2 SWAP1 PUSH3 0x5345 JUMP JUMPDEST POP SWAP1 POP POP PUSH3 0x42B0 PUSH32 0xAC23B8BC7FAAE6D5C284FCFC3BB1950C0D5E69C4D2989D94B0B8A8EB02DE16D PUSH1 0x0 SHL PUSH3 0x30CB JUMP JUMPDEST PUSH3 0x42DE PUSH32 0x2A70832FCDCAB0DB89EAA1725F22F59F3C3C800059509DEBE733E26F8A6397FD PUSH1 0x0 SHL PUSH3 0x30CB JUMP JUMPDEST PUSH1 0x2 DUP4 SWAP1 DUP1 PUSH1 0x1 DUP2 SLOAD ADD DUP1 DUP3 SSTORE DUP1 SWAP2 POP POP PUSH1 0x1 SWAP1 SUB SWAP1 PUSH1 0x0 MSTORE PUSH1 0x20 PUSH1 0x0 KECCAK256 ADD PUSH1 0x0 SWAP1 SWAP2 SWAP1 SWAP2 SWAP1 SWAP2 PUSH2 0x100 EXP DUP2 SLOAD DUP2 PUSH20 0xFFFFFFFFFFFFFFFFFFFFFFFFFFFFFFFFFFFFFFFF MUL NOT AND SWAP1 DUP4 PUSH20 0xFFFFFFFFFFFFFFFFFFFFFFFFFFFFFFFFFFFFFFFF AND MUL OR SWAP1 SSTORE POP PUSH3 0x436F PUSH32 0x662A4E49821475C746590E9A83C85C77ECDCAC8E8BF9E111C16E5CC3807107E9 PUSH1 0x0 SHL PUSH3 0x30CB JUMP JUMPDEST PUSH3 0x439D PUSH32 0xB112C40691D65C95766A8790F2C0F278F4BA6CFDD7F9D32A2A94027AB947571E PUSH1 0x0 SHL PUSH3 0x30CB JUMP JUMPDEST PUSH32 0xDF54227B669E96E69D8F583A07D577CB4081AB69C78DBCFF8FCE5AF67E1AC546 DUP4 PUSH1 0x40 MLOAD DUP1 DUP3 PUSH20 0xFFFFFFFFFFFFFFFFFFFFFFFFFFFFFFFFFFFFFFFF AND PUSH20 0xFFFFFFFFFFFFFFFFFFFFFFFFFFFFFFFFFFFFFFFF AND DUP2 MSTORE PUSH1 0x20 ADD SWAP2 POP POP PUSH1 0x40 MLOAD DUP1 SWAP2 SUB SWAP1 LOG1 POP POP POP POP JUMP JUMPDEST PUSH3 0x4434 PUSH32 0xBBD3F355D77656A0F50AAE973AB5793981CE48967D721219B0105F6DB34D30BA PUSH1 0x0 SHL PUSH3 0x37FE JUMP JUMPDEST PUSH3 0x4462 PUSH32 0xBC95BF17CA2009E2526D43C8992D6F4437BC5D005EDAE2988D77646F85823501 PUSH1 0x0 SHL PUSH3 0x37FE JUMP JUMPDEST PUSH3 0x4490 PUSH32 0x522F1571FB48EF6EA3E9E0B6F9DAB138206492FEC89844E7BF1DED65794E5806 PUSH1 0x0 SHL PUSH3 0x37FE JUMP JUMPDEST PUSH3 0x44BE PUSH32 0x6C41C5952A4021EE48DB6814ADC2FFFC422AC8F2EB8425EC003F86EA58B3C864 PUSH1 0x0 SHL PUSH3 0x37FE JUMP JUMPDEST CALLER PUSH20 0xFFFFFFFFFFFFFFFFFFFFFFFFFFFFFFFFFFFFFFFF AND PUSH1 0x0 DUP1 SWAP1 SLOAD SWAP1 PUSH2 0x100 EXP SWAP1 DIV PUSH20 0xFFFFFFFFFFFFFFFFFFFFFFFFFFFFFFFFFFFFFFFF AND PUSH20 0xFFFFFFFFFFFFFFFFFFFFFFFFFFFFFFFFFFFFFFFF AND EQ PUSH3 0x4581 JUMPI PUSH1 0x40 MLOAD PUSH32 0x8C379A000000000000000000000000000000000000000000000000000000000 DUP2 MSTORE PUSH1 0x4 ADD DUP1 DUP1 PUSH1 0x20 ADD DUP3 DUP2 SUB DUP3 MSTORE PUSH1 0x20 DUP2 MSTORE PUSH1 0x20 ADD DUP1 PUSH32 0x4F776E61626C653A2063616C6C6572206973206E6F7420746865206F776E6572 DUP2 MSTORE POP PUSH1 0x20 ADD SWAP2 POP POP PUSH1 0x40 MLOAD DUP1 SWAP2 SUB SWAP1 REVERT JUMPDEST PUSH3 0x45AF PUSH32 0x5A35E29A7CC84D55F7A9678E9DC2EDE30FB5F67F6AFF0B42BF6C4B23D0A937CC PUSH1 0x0 SHL PUSH3 0x37FE JUMP JUMPDEST PUSH3 0x45DD PUSH32 0x1C760E035C6926B5F9779DC98270DEADF3392737A2366E2622768DC99F97EE8E PUSH1 0x0 SHL PUSH3 0x37FE JUMP JUMPDEST PUSH3 0x460B PUSH32 0x69DA91DC987251B150278A1B7A6B2441C01324EE9916C628970C69865C12A439 PUSH1 0x0 SHL PUSH3 0x30CB JUMP JUMPDEST PUSH3 0x4639 PUSH32 0xE34977DE518B72D96C8D3185195E8A0A6DBA5E5D5B4F0DE3576E0D26469E9E22 PUSH1 0x0 SHL PUSH3 0x30CB JUMP JUMPDEST PUSH3 0x4667 PUSH32 0x38FE70868A49C5B0520C514A50B22DD0965E26141801ECFC9926D72FADAA5AC1 PUSH1 0x0 SHL PUSH3 0x30CB JUMP JUMPDEST PUSH3 0x4695 PUSH32 0x899262AC84358E6459C8ACBE6D51826175D18AF3C028B2B0454F25D81712105B PUSH1 0x0 SHL PUSH3 0x30CB JUMP JUMPDEST PUSH1 0x0 PUSH1 0x2 DUP2 GT ISZERO PUSH3 0x46A3 JUMPI INVALID JUMPDEST PUSH1 0x6 PUSH1 0x0 DUP4 PUSH20 0xFFFFFFFFFFFFFFFFFFFFFFFFFFFFFFFFFFFFFFFF AND PUSH20 0xFFFFFFFFFFFFFFFFFFFFFFFFFFFFFFFFFFFFFFFF AND DUP2 MSTORE PUSH1 0x20 ADD SWAP1 DUP2 MSTORE PUSH1 0x20 ADD PUSH1 0x0 KECCAK256 PUSH1 0x0 ADD PUSH1 0x0 SWAP1 SLOAD SWAP1 PUSH2 0x100 EXP SWAP1 DIV PUSH1 0xFF AND PUSH1 0x2 DUP2 GT ISZERO PUSH3 0x46FF JUMPI INVALID JUMPDEST EQ ISZERO PUSH3 0x4774 JUMPI PUSH1 0x40 MLOAD PUSH32 0x8C379A000000000000000000000000000000000000000000000000000000000 DUP2 MSTORE PUSH1 0x4 ADD DUP1 DUP1 PUSH1 0x20 ADD DUP3 DUP2 SUB DUP3 MSTORE PUSH1 0x13 DUP2 MSTORE PUSH1 0x20 ADD DUP1 PUSH32 0x5573657220646F6573206E6F7420657869737400000000000000000000000000 DUP2 MSTORE POP PUSH1 0x20 ADD SWAP2 POP POP PUSH1 0x40 MLOAD DUP1 SWAP2 SUB SWAP1 REVERT JUMPDEST PUSH3 0x47A2 PUSH32 0x3115861604CB6202D443CC47D5D01C8F96BC09CE2B93762462A4C0EF59F7DE5D PUSH1 0x0 SHL PUSH3 0x30CB JUMP JUMPDEST PUSH3 0x47D0 PUSH32 0x8E45CA98951EB88024B511F27F2417BA55E501CAE725CEC97AECB8EA813EBEED PUSH1 0x0 SHL PUSH3 0x30CB JUMP JUMPDEST PUSH3 0x47FE PUSH32 0x84CCB55F7FCAE4C197346C98B187F39F897FC892BA8621890BFA48BE93361B77 PUSH1 0x0 SHL PUSH3 0x30CB JUMP JUMPDEST PUSH1 0x1 PUSH1 0x2 DUP2 GT ISZERO PUSH3 0x480C JUMPI INVALID JUMPDEST PUSH1 0x6 PUSH1 0x0 DUP4 PUSH20 0xFFFFFFFFFFFFFFFFFFFFFFFFFFFFFFFFFFFFFFFF AND PUSH20 0xFFFFFFFFFFFFFFFFFFFFFFFFFFFFFFFFFFFFFFFF AND DUP2 MSTORE PUSH1 0x20 ADD SWAP1 DUP2 MSTORE PUSH1 0x20 ADD PUSH1 0x0 KECCAK256 PUSH1 0x0 ADD PUSH1 0x0 SWAP1 SLOAD SWAP1 PUSH2 0x100 EXP SWAP1 DIV PUSH1 0xFF AND PUSH1 0x2 DUP2 GT ISZERO PUSH3 0x4868 JUMPI INVALID JUMPDEST EQ ISZERO PUSH3 0x4964 JUMPI PUSH3 0x489D PUSH32 0xBED1EADB35D2F53990ACED3B05DE7B752BF294151317D2F0DC5C397422E75FCD PUSH1 0x0 SHL PUSH3 0x30CB JUMP JUMPDEST PUSH3 0x48CB PUSH32 0xBAE77395790F2B6D952FFCE434895AFAB45C196A3E2354B4B35C357A18F9BCAF PUSH1 0x0 SHL PUSH3 0x30CB JUMP JUMPDEST PUSH3 0x48F9 PUSH32 0xA3E7EC08633215F336DB487D2689A25227E1EF89A489912333394379BF770307 PUSH1 0x0 SHL PUSH3 0x30CB JUMP JUMPDEST PUSH1 0x2 PUSH1 0x6 PUSH1 0x0 DUP4 PUSH20 0xFFFFFFFFFFFFFFFFFFFFFFFFFFFFFFFFFFFFFFFF AND PUSH20 0xFFFFFFFFFFFFFFFFFFFFFFFFFFFFFFFFFFFFFFFF AND DUP2 MSTORE PUSH1 0x20 ADD SWAP1 DUP2 MSTORE PUSH1 0x20 ADD PUSH1 0x0 KECCAK256 PUSH1 0x0 ADD PUSH1 0x0 PUSH2 0x100 EXP DUP2 SLOAD DUP2 PUSH1 0xFF MUL NOT AND SWAP1 DUP4 PUSH1 0x2 DUP2 GT ISZERO PUSH3 0x4959 JUMPI INVALID JUMPDEST MUL OR SWAP1 SSTORE POP PUSH3 0x4A26 JUMP JUMPDEST PUSH3 0x4992 PUSH32 0x2EA4A923BB57C5D24BD3FAB433EAF639AD027A762BEC7396C565281FFB128C51 PUSH1 0x0 SHL PUSH3 0x30CB JUMP JUMPDEST PUSH3 0x49C0 PUSH32 0x685CD515DCB0F9AE255FF774D4946A31901CB22DB25C02536E05F9E5D415129D PUSH1 0x0 SHL PUSH3 0x30CB JUMP JUMPDEST PUSH1 0x1 PUSH1 0x6 PUSH1 0x0 DUP4 PUSH20 0xFFFFFFFFFFFFFFFFFFFFFFFFFFFFFFFFFFFFFFFF AND PUSH20 0xFFFFFFFFFFFFFFFFFFFFFFFFFFFFFFFFFFFFFFFF AND DUP2 MSTORE PUSH1 0x20 ADD SWAP1 DUP2 MSTORE PUSH1 0x20 ADD PUSH1 0x0 KECCAK256 PUSH1 0x0 ADD PUSH1 0x0 PUSH2 0x100 EXP DUP2 SLOAD DUP2 PUSH1 0xFF MUL NOT AND SWAP1 DUP4 PUSH1 0x2 DUP2 GT ISZERO PUSH3 0x4A20 JUMPI INVALID JUMPDEST MUL OR SWAP1 SSTORE POP JUMPDEST PUSH3 0x4A54 PUSH32 0xD01F7404758D8DD4F6864D1972014DA94EB7F1C7EFA637DF96E32E4D47110601 PUSH1 0x0 SHL PUSH3 0x30CB JUMP JUMPDEST PUSH3 0x4A82 PUSH32 0xEBFC81C0147A776A1A287E021B8B27D21DAD9175DCD441450E92E84458EE1A1F PUSH1 0x0 SHL PUSH3 0x30CB JUMP JUMPDEST PUSH32 0x265CE5B4A01D5D792E85F3E35B7F36E9951DACAC00DAE63F48C9F813B9CC6D30 DUP2 PUSH1 0x6 PUSH1 0x0 DUP5 PUSH20 0xFFFFFFFFFFFFFFFFFFFFFFFFFFFFFFFFFFFFFFFF AND PUSH20 0xFFFFFFFFFFFFFFFFFFFFFFFFFFFFFFFFFFFFFFFF AND DUP2 MSTORE PUSH1 0x20 ADD SWAP1 DUP2 MSTORE PUSH1 0x20 ADD PUSH1 0x0 KECCAK256 PUSH1 0x0 ADD PUSH1 0x0 SWAP1 SLOAD SWAP1 PUSH2 0x100 EXP SWAP1 DIV PUSH1 0xFF AND PUSH1 0x40 MLOAD DUP1 DUP4 PUSH20 0xFFFFFFFFFFFFFFFFFFFFFFFFFFFFFFFFFFFFFFFF AND PUSH20 0xFFFFFFFFFFFFFFFFFFFFFFFFFFFFFFFFFFFFFFFF AND DUP2 MSTORE PUSH1 0x20 ADD DUP3 PUSH1 0x2 DUP2 GT ISZERO PUSH3 0x4B37 JUMPI INVALID JUMPDEST PUSH1 0xFF AND DUP2 MSTORE PUSH1 0x20 ADD SWAP3 POP POP POP PUSH1 0x40 MLOAD DUP1 SWAP2 SUB SWAP1 LOG1 POP JUMP JUMPDEST PUSH1 0x60 PUSH3 0x4B7E PUSH32 0xBBD3F355D77656A0F50AAE973AB5793981CE48967D721219B0105F6DB34D30BA PUSH1 0x0 SHL PUSH3 0x37FE JUMP JUMPDEST PUSH3 0x4BAC PUSH32 0xBC95BF17CA2009E2526D43C8992D6F4437BC5D005EDAE2988D77646F85823501 PUSH1 0x0 SHL PUSH3 0x37FE JUMP JUMPDEST PUSH3 0x4BDA PUSH32 0x522F1571FB48EF6EA3E9E0B6F9DAB138206492FEC89844E7BF1DED65794E5806 PUSH1 0x0 SHL PUSH3 0x37FE JUMP JUMPDEST PUSH3 0x4C08 PUSH32 0x6C41C5952A4021EE48DB6814ADC2FFFC422AC8F2EB8425EC003F86EA58B3C864 PUSH1 0x0 SHL PUSH3 0x37FE JUMP JUMPDEST CALLER PUSH20 0xFFFFFFFFFFFFFFFFFFFFFFFFFFFFFFFFFFFFFFFF AND PUSH1 0x0 DUP1 SWAP1 SLOAD SWAP1 PUSH2 0x100 EXP SWAP1 DIV PUSH20 0xFFFFFFFFFFFFFFFFFFFFFFFFFFFFFFFFFFFFFFFF AND PUSH20 0xFFFFFFFFFFFFFFFFFFFFFFFFFFFFFFFFFFFFFFFF AND EQ PUSH3 0x4CCB JUMPI PUSH1 0x40 MLOAD PUSH32 0x8C379A000000000000000000000000000000000000000000000000000000000 DUP2 MSTORE PUSH1 0x4 ADD DUP1 DUP1 PUSH1 0x20 ADD DUP3 DUP2 SUB DUP3 MSTORE PUSH1 0x20 DUP2 MSTORE PUSH1 0x20 ADD DUP1 PUSH32 0x4F776E61626C653A2063616C6C6572206973206E6F7420746865206F776E6572 DUP2 MSTORE POP PUSH1 0x20 ADD SWAP2 POP POP PUSH1 0x40 MLOAD DUP1 SWAP2 SUB SWAP1 REVERT JUMPDEST PUSH3 0x4CF9 PUSH32 0x5A35E29A7CC84D55F7A9678E9DC2EDE30FB5F67F6AFF0B42BF6C4B23D0A937CC PUSH1 0x0 SHL PUSH3 0x37FE JUMP JUMPDEST PUSH3 0x4D27 PUSH32 0x1C760E035C6926B5F9779DC98270DEADF3392737A2366E2622768DC99F97EE8E PUSH1 0x0 SHL PUSH3 0x37FE JUMP JUMPDEST PUSH3 0x4D55 PUSH32 0xBD545FEA5F50CFC148FD7859EEC6F3F2D9E3F7BD8B8B31F0EEDCEF6A6FC3DB20 PUSH1 0x0 SHL PUSH3 0x30CB JUMP JUMPDEST PUSH3 0x4D83 PUSH32 0x123ECBFE12B8B54AA7BE28CB29B722A5FDA255A6A77EE3FD860D3FBB9960E2F4 PUSH1 0x0 SHL PUSH3 0x30CB JUMP JUMPDEST PUSH3 0x4DB1 PUSH32 0x71662543729C4C961798A68364525492A939546E6A546871C288AEE3FCEA69F2 PUSH1 0x0 SHL PUSH3 0x30CB JUMP JUMPDEST PUSH1 0x2 DUP1 SLOAD DUP1 PUSH1 0x20 MUL PUSH1 0x20 ADD PUSH1 0x40 MLOAD SWAP1 DUP2 ADD PUSH1 0x40 MSTORE DUP1 SWAP3 SWAP2 SWAP1 DUP2 DUP2 MSTORE PUSH1 0x20 ADD DUP3 DUP1 SLOAD DUP1 ISZERO PUSH3 0x4E35 JUMPI PUSH1 0x20 MUL DUP3 ADD SWAP2 SWAP1 PUSH1 0x0 MSTORE PUSH1 0x20 PUSH1 0x0 KECCAK256 SWAP1 JUMPDEST DUP2 PUSH1 0x0 SWAP1 SLOAD SWAP1 PUSH2 0x100 EXP SWAP1 DIV PUSH20 0xFFFFFFFFFFFFFFFFFFFFFFFFFFFFFFFFFFFFFFFF AND PUSH20 0xFFFFFFFFFFFFFFFFFFFFFFFFFFFFFFFFFFFFFFFF AND DUP2 MSTORE PUSH1 0x20 ADD SWAP1 PUSH1 0x1 ADD SWAP1 DUP1 DUP4 GT PUSH3 0x4DEA JUMPI JUMPDEST POP POP POP POP POP SWAP1 POP SWAP1 JUMP JUMPDEST PUSH1 0x1 DUP2 DUP2 SLOAD DUP2 LT PUSH3 0x4E4D JUMPI INVALID JUMPDEST SWAP1 PUSH1 0x0 MSTORE PUSH1 0x20 PUSH1 0x0 KECCAK256 ADD PUSH1 0x0 SWAP2 POP SLOAD SWAP1 PUSH2 0x100 EXP SWAP1 DIV PUSH20 0xFFFFFFFFFFFFFFFFFFFFFFFFFFFFFFFFFFFFFFFF AND DUP2 JUMP JUMPDEST PUSH3 0x4EAA PUSH32 0xBBD3F355D77656A0F50AAE973AB5793981CE48967D721219B0105F6DB34D30BA PUSH1 0x0 SHL PUSH3 0x37FE JUMP JUMPDEST PUSH3 0x4ED8 PUSH32 0xBC95BF17CA2009E2526D43C8992D6F4437BC5D005EDAE2988D77646F85823501 PUSH1 0x0 SHL PUSH3 0x37FE JUMP JUMPDEST PUSH3 0x4F06 PUSH32 0x522F1571FB48EF6EA3E9E0B6F9DAB138206492FEC89844E7BF1DED65794E5806 PUSH1 0x0 SHL PUSH3 0x37FE JUMP JUMPDEST PUSH3 0x4F34 PUSH32 0x6C41C5952A4021EE48DB6814ADC2FFFC422AC8F2EB8425EC003F86EA58B3C864 PUSH1 0x0 SHL PUSH3 0x37FE JUMP JUMPDEST CALLER PUSH20 0xFFFFFFFFFFFFFFFFFFFFFFFFFFFFFFFFFFFFFFFF AND PUSH1 0x0 DUP1 SWAP1 SLOAD SWAP1 PUSH2 0x100 EXP SWAP1 DIV PUSH20 0xFFFFFFFFFFFFFFFFFFFFFFFFFFFFFFFFFFFFFFFF AND PUSH20 0xFFFFFFFFFFFFFFFFFFFFFFFFFFFFFFFFFFFFFFFF AND EQ PUSH3 0x4FF7 JUMPI PUSH1 0x40 MLOAD PUSH32 0x8C379A000000000000000000000000000000000000000000000000000000000 DUP2 MSTORE PUSH1 0x4 ADD DUP1 DUP1 PUSH1 0x20 ADD DUP3 DUP2 SUB DUP3 MSTORE PUSH1 0x20 DUP2 MSTORE PUSH1 0x20 ADD DUP1 PUSH32 0x4F776E61626C653A2063616C6C6572206973206E6F7420746865206F776E6572 DUP2 MSTORE POP PUSH1 0x20 ADD SWAP2 POP POP PUSH1 0x40 MLOAD DUP1 SWAP2 SUB SWAP1 REVERT JUMPDEST PUSH3 0x5025 PUSH32 0x5A35E29A7CC84D55F7A9678E9DC2EDE30FB5F67F6AFF0B42BF6C4B23D0A937CC PUSH1 0x0 SHL PUSH3 0x37FE JUMP JUMPDEST PUSH3 0x5053 PUSH32 0x1C760E035C6926B5F9779DC98270DEADF3392737A2366E2622768DC99F97EE8E PUSH1 0x0 SHL PUSH3 0x37FE JUMP JUMPDEST PUSH3 0x5081 PUSH32 0xD4F14C82CD74A2BFE5B3A0E4E1BA79451934E1B76E4AD703ADFB10C5ABD62E36 PUSH1 0x0 SHL PUSH3 0x37FE JUMP JUMPDEST PUSH3 0x50AF PUSH32 0xF13DDE4CD98D07E58D1A0F963EA04362E404F2AB70211194834B635CE8B6688A PUSH1 0x0 SHL PUSH3 0x37FE JUMP JUMPDEST PUSH3 0x50DD PUSH32 0x56839613CE74633642ADB97A1D7A1B5F7B44F7733B8383D7EDD34FDCA9528B1D PUSH1 0x0 SHL PUSH3 0x37FE JUMP JUMPDEST PUSH3 0x510B PUSH32 0x2B8355901DBBC224C37290AA6E7356E6240F5DD862864386C05AAED68B8EC20 PUSH1 0x0 SHL PUSH3 0x37FE JUMP JUMPDEST PUSH1 0x0 PUSH20 0xFFFFFFFFFFFFFFFFFFFFFFFFFFFFFFFFFFFFFFFF AND DUP2 PUSH20 0xFFFFFFFFFFFFFFFFFFFFFFFFFFFFFFFFFFFFFFFF AND EQ ISZERO PUSH3 0x5193 JUMPI PUSH1 0x40 MLOAD PUSH32 0x8C379A000000000000000000000000000000000000000000000000000000000 DUP2 MSTORE PUSH1 0x4 ADD DUP1 DUP1 PUSH1 0x20 ADD DUP3 DUP2 SUB DUP3 MSTORE PUSH1 0x26 DUP2 MSTORE PUSH1 0x20 ADD DUP1 PUSH3 0x6C05 PUSH1 0x26 SWAP2 CODECOPY PUSH1 0x40 ADD SWAP2 POP POP PUSH1 0x40 MLOAD DUP1 SWAP2 SUB SWAP1 REVERT JUMPDEST PUSH3 0x51C1 PUSH32 0xFEE8A2E5A662C7CD0DA06767582A89BA462016D584883B0A6E9CD9654DED2000 PUSH1 0x0 SHL PUSH3 0x37FE JUMP JUMPDEST PUSH3 0x51EF PUSH32 0x4C26170B2547024CE29198477EB8CDAB571F0CFF51AAC763CE2173FB140AC5F7 PUSH1 0x0 SHL PUSH3 0x37FE JUMP JUMPDEST PUSH3 0x521D PUSH32 0x90AB5053D48D5051C8E125455EA462C5257B9A053F49AE5515C264BA41A7A40C PUSH1 0x0 SHL PUSH3 0x37FE JUMP JUMPDEST DUP1 PUSH20 0xFFFFFFFFFFFFFFFFFFFFFFFFFFFFFFFFFFFFFFFF AND PUSH1 0x0 DUP1 SWAP1 SLOAD SWAP1 PUSH2 0x100 EXP SWAP1 DIV PUSH20 0xFFFFFFFFFFFFFFFFFFFFFFFFFFFFFFFFFFFFFFFF AND PUSH20 0xFFFFFFFFFFFFFFFFFFFFFFFFFFFFFFFFFFFFFFFF AND PUSH32 0x8BE0079C531659141344CD1FD0A4F28419497F9722A3DAAFE3B4186F6B6457E0 PUSH1 0x40 MLOAD PUSH1 0x40 MLOAD DUP1 SWAP2 SUB SWAP1 LOG3 PUSH3 0x52C6 PUSH32 0xEC3FA98C696C5487F30A86F6C3FA7690694FCCB2D2B11E50E80C1A29FBB31E60 PUSH1 0x0 SHL PUSH3 0x37FE JUMP JUMPDEST PUSH3 0x52F4 PUSH32 0xA55E123EAF43BFB9E53855172D10C0B18DA44DED7FFF5F6B8A7E12BFB94208A5 PUSH1 0x0 SHL PUSH3 0x37FE JUMP JUMPDEST DUP1 PUSH1 0x0 DUP1 PUSH2 0x100 EXP DUP2 SLOAD DUP2 PUSH20 0xFFFFFFFFFFFFFFFFFFFFFFFFFFFFFFFFFFFFFFFF MUL NOT AND SWAP1 DUP4 PUSH20 0xFFFFFFFFFFFFFFFFFFFFFFFFFFFFFFFFFFFFFFFF AND MUL OR SWAP1 SSTORE POP POP JUMP JUMPDEST PUSH2 0x173B DUP1 PUSH3 0x54CA DUP4 CODECOPY ADD SWAP1 JUMP JUMPDEST DUP3 DUP1 SLOAD PUSH1 0x1 DUP2 PUSH1 0x1 AND ISZERO PUSH2 0x100 MUL SUB AND PUSH1 0x2 SWAP1 DIV SWAP1 PUSH1 0x0 MSTORE PUSH1 0x20 PUSH1 0x0 KECCAK256 SWAP1 PUSH1 0x1F ADD PUSH1 0x20 SWAP1 DIV DUP2 ADD SWAP3 DUP3 PUSH1 0x1F LT PUSH3 0x5388 JUMPI DUP1 MLOAD PUSH1 0xFF NOT AND DUP4 DUP1 ADD OR DUP6 SSTORE PUSH3 0x53B9 JUMP JUMPDEST DUP3 DUP1 ADD PUSH1 0x1 ADD DUP6 SSTORE DUP3 ISZERO PUSH3 0x53B9 JUMPI SWAP2 DUP3 ADD JUMPDEST DUP3 DUP2 GT ISZERO PUSH3 0x53B8 JUMPI DUP3 MLOAD DUP3 SSTORE SWAP2 PUSH1 0x20 ADD SWAP2 SWAP1 PUSH1 0x1 ADD SWAP1 PUSH3 0x539B JUMP JUMPDEST JUMPDEST POP SWAP1 POP PUSH3 0x53C8 SWAP2 SWAP1 PUSH3 0x545B JUMP JUMPDEST POP SWAP1 JUMP JUMPDEST DUP3 DUP1 SLOAD DUP3 DUP3 SSTORE SWAP1 PUSH1 0x0 MSTORE PUSH1 0x20 PUSH1 0x0 KECCAK256 SWAP1 DUP2 ADD SWAP3 DUP3 ISZERO PUSH3 0x5448 JUMPI SWAP2 PUSH1 0x20 MUL DUP3 ADD JUMPDEST DUP3 DUP2 GT ISZERO PUSH3 0x5447 JUMPI DUP3 MLOAD DUP3 PUSH1 0x0 PUSH2 0x100 EXP DUP2 SLOAD DUP2 PUSH20 0xFFFFFFFFFFFFFFFFFFFFFFFFFFFFFFFFFFFFFFFF MUL NOT AND SWAP1 DUP4 PUSH20 0xFFFFFFFFFFFFFFFFFFFFFFFFFFFFFFFFFFFFFFFF AND MUL OR SWAP1 SSTORE POP SWAP2 PUSH1 0x20 ADD SWAP2 SWAP1 PUSH1 0x1 ADD SWAP1 PUSH3 0x53ED JUMP JUMPDEST JUMPDEST POP SWAP1 POP PUSH3 0x5457 SWAP2 SWAP1 PUSH3 0x5483 JUMP JUMPDEST POP SWAP1 JUMP JUMPDEST PUSH3 0x5480 SWAP2 SWAP1 JUMPDEST DUP1 DUP3 GT ISZERO PUSH3 0x547C JUMPI PUSH1 0x0 DUP2 PUSH1 0x0 SWAP1 SSTORE POP PUSH1 0x1 ADD PUSH3 0x5462 JUMP JUMPDEST POP SWAP1 JUMP JUMPDEST SWAP1 JUMP JUMPDEST PUSH3 0x54C6 SWAP2 SWAP1 JUMPDEST DUP1 DUP3 GT ISZERO PUSH3 0x54C2 JUMPI PUSH1 0x0 DUP2 DUP2 PUSH2 0x100 EXP DUP2 SLOAD SWAP1 PUSH20 0xFFFFFFFFFFFFFFFFFFFFFFFFFFFFFFFFFFFFFFFF MUL NOT AND SWAP1 SSTORE POP PUSH1 0x1 ADD PUSH3 0x548A JUMP JUMPDEST POP SWAP1 JUMP JUMPDEST SWAP1 JUMP INVALID PUSH1 0x80 PUSH1 0x40 MSTORE CALLVALUE DUP1 ISZERO PUSH3 0x11 JUMPI PUSH1 0x0 DUP1 REVERT JUMPDEST POP PUSH1 0x40 MLOAD PUSH3 0x173B CODESIZE SUB DUP1 PUSH3 0x173B DUP4 CODECOPY DUP2 DUP2 ADD PUSH1 0x40 MSTORE PUSH1 0x60 DUP2 LT ISZERO PUSH3 0x37 JUMPI PUSH1 0x0 DUP1 REVERT JUMPDEST DUP2 ADD SWAP1 DUP1 DUP1 MLOAD SWAP1 PUSH1 0x20 ADD SWAP1 SWAP3 SWAP2 SWAP1 DUP1 MLOAD PUSH1 0x40 MLOAD SWAP4 SWAP3 SWAP2 SWAP1 DUP5 PUSH5 0x100000000 DUP3 GT ISZERO PUSH3 0x62 JUMPI PUSH1 0x0 DUP1 REVERT JUMPDEST DUP4 DUP3 ADD SWAP2 POP PUSH1 0x20 DUP3 ADD DUP6 DUP2 GT ISZERO PUSH3 0x79 JUMPI PUSH1 0x0 DUP1 REVERT JUMPDEST DUP3 MLOAD DUP7 PUSH1 0x1 DUP3 MUL DUP4 ADD GT PUSH5 0x100000000 DUP3 GT OR ISZERO PUSH3 0x97 JUMPI PUSH1 0x0 DUP1 REVERT JUMPDEST DUP1 DUP4 MSTORE PUSH1 0x20 DUP4 ADD SWAP3 POP POP POP SWAP1 DUP1 MLOAD SWAP1 PUSH1 0x20 ADD SWAP1 DUP1 DUP4 DUP4 PUSH1 0x0 JUMPDEST DUP4 DUP2 LT ISZERO PUSH3 0xCD JUMPI DUP1 DUP3 ADD MLOAD DUP2 DUP5 ADD MSTORE PUSH1 0x20 DUP2 ADD SWAP1 POP PUSH3 0xB0 JUMP JUMPDEST POP POP POP POP SWAP1 POP SWAP1 DUP2 ADD SWAP1 PUSH1 0x1F AND DUP1 ISZERO PUSH3 0xFB JUMPI DUP1 DUP3 SUB DUP1 MLOAD PUSH1 0x1 DUP4 PUSH1 0x20 SUB PUSH2 0x100 EXP SUB NOT AND DUP2 MSTORE PUSH1 0x20 ADD SWAP2 POP JUMPDEST POP PUSH1 0x40 MSTORE PUSH1 0x20 ADD DUP1 MLOAD SWAP1 PUSH1 0x20 ADD SWAP1 SWAP3 SWAP2 SWAP1 POP POP POP PUSH3 0x143 PUSH32 0xC61035DF3395F7DEF1B65D7CCBA3948498A8A9B0A05E0FAA170A450076702BC1 PUSH1 0x0 SHL PUSH3 0x31F PUSH1 0x20 SHL PUSH1 0x20 SHR JUMP JUMPDEST PUSH3 0x177 PUSH32 0xFD40EC6E417B79D7CED29A63B0B7FC086161CFFE2C4CA3CF6A683B3489210B53 PUSH1 0x0 SHL PUSH3 0x31F PUSH1 0x20 SHL PUSH1 0x20 SHR JUMP JUMPDEST PUSH3 0x1AB PUSH32 0x597F24924C7BD106B6A27087A631A237F6668570174C2A2B6709A400E02FF6CC PUSH1 0x0 SHL PUSH3 0x31F PUSH1 0x20 SHL PUSH1 0x20 SHR JUMP JUMPDEST DUP3 PUSH1 0x1 PUSH1 0x0 PUSH2 0x100 EXP DUP2 SLOAD DUP2 PUSH20 0xFFFFFFFFFFFFFFFFFFFFFFFFFFFFFFFFFFFFFFFF MUL NOT AND SWAP1 DUP4 PUSH20 0xFFFFFFFFFFFFFFFFFFFFFFFFFFFFFFFFFFFFFFFF AND MUL OR SWAP1 SSTORE POP PUSH3 0x220 PUSH32 0x791CB8F289DA776D4D2429B1BAE6B568808AC3A54E901492DB6806F3848C10BB PUSH1 0x0 SHL PUSH3 0x31F PUSH1 0x20 SHL PUSH1 0x20 SHR JUMP JUMPDEST PUSH3 0x254 PUSH32 0xD0686E27299660F223673A6E134F35166F07A8FF919C736F4326C787114B3B52 PUSH1 0x0 SHL PUSH3 0x31F PUSH1 0x20 SHL PUSH1 0x20 SHR JUMP JUMPDEST DUP2 PUSH1 0x0 SWAP1 DUP1 MLOAD SWAP1 PUSH1 0x20 ADD SWAP1 PUSH3 0x26C SWAP3 SWAP2 SWAP1 PUSH3 0x322 JUMP JUMPDEST POP PUSH3 0x2A1 PUSH32 0xDDA7E7E989BD509D6F8701965368E0764746A0C7DAD2172816D400C50B958657 PUSH1 0x0 SHL PUSH3 0x31F PUSH1 0x20 SHL PUSH1 0x20 SHR JUMP JUMPDEST PUSH3 0x2D5 PUSH32 0x6A931986C20D6430E78236B0D85CB4A46A9C8E6A26C16B9AC516EDB169104B3B PUSH1 0x0 SHL PUSH3 0x31F PUSH1 0x20 SHL PUSH1 0x20 SHR JUMP JUMPDEST DUP1 PUSH1 0x2 PUSH1 0x0 PUSH2 0x100 EXP DUP2 SLOAD DUP2 PUSH20 0xFFFFFFFFFFFFFFFFFFFFFFFFFFFFFFFFFFFFFFFF MUL NOT AND SWAP1 DUP4 PUSH20 0xFFFFFFFFFFFFFFFFFFFFFFFFFFFFFFFFFFFFFFFF AND MUL OR SWAP1 SSTORE POP POP POP POP PUSH3 0x3D1 JUMP JUMPDEST POP JUMP JUMPDEST DUP3 DUP1 SLOAD PUSH1 0x1 DUP2 PUSH1 0x1 AND ISZERO PUSH2 0x100 MUL SUB AND PUSH1 0x2 SWAP1 DIV SWAP1 PUSH1 0x0 MSTORE PUSH1 0x20 PUSH1 0x0 KECCAK256 SWAP1 PUSH1 0x1F ADD PUSH1 0x20 SWAP1 DIV DUP2 ADD SWAP3 DUP3 PUSH1 0x1F LT PUSH3 0x365 JUMPI DUP1 MLOAD PUSH1 0xFF NOT AND DUP4 DUP1 ADD OR DUP6 SSTORE PUSH3 0x396 JUMP JUMPDEST DUP3 DUP1 ADD PUSH1 0x1 ADD DUP6 SSTORE DUP3 ISZERO PUSH3 0x396 JUMPI SWAP2 DUP3 ADD JUMPDEST DUP3 DUP2 GT ISZERO PUSH3 0x395 JUMPI DUP3 MLOAD DUP3 SSTORE SWAP2 PUSH1 0x20 ADD SWAP2 SWAP1 PUSH1 0x1 ADD SWAP1 PUSH3 0x378 JUMP JUMPDEST JUMPDEST POP SWAP1 POP PUSH3 0x3A5 SWAP2 SWAP1 PUSH3 0x3A9 JUMP JUMPDEST POP SWAP1 JUMP JUMPDEST PUSH3 0x3CE SWAP2 SWAP1 JUMPDEST DUP1 DUP3 GT ISZERO PUSH3 0x3CA JUMPI PUSH1 0x0 DUP2 PUSH1 0x0 SWAP1 SSTORE POP PUSH1 0x1 ADD PUSH3 0x3B0 JUMP JUMPDEST POP SWAP1 JUMP JUMPDEST SWAP1 JUMP JUMPDEST PUSH2 0x135A DUP1 PUSH3 0x3E1 PUSH1 0x0 CODECOPY PUSH1 0x0 RETURN INVALID PUSH1 0x80 PUSH1 0x40 MSTORE CALLVALUE DUP1 ISZERO PUSH2 0x10 JUMPI PUSH1 0x0 DUP1 REVERT JUMPDEST POP PUSH1 0x4 CALLDATASIZE LT PUSH2 0x57 JUMPI PUSH1 0x0 CALLDATALOAD PUSH1 0xE0 SHR DUP1 PUSH4 0x28BF58A1 EQ PUSH2 0x5C JUMPI DUP1 PUSH4 0x6D670523 EQ PUSH2 0x8A JUMPI DUP1 PUSH4 0xB10D6B41 EQ PUSH2 0x20C JUMPI DUP1 PUSH4 0xCDEE934E EQ PUSH2 0x405 JUMPI DUP1 PUSH4 0xFBBF93A0 EQ PUSH2 0x447 JUMPI JUMPDEST PUSH1 0x0 DUP1 REVERT JUMPDEST PUSH2 0x88 PUSH1 0x4 DUP1 CALLDATASIZE SUB PUSH1 0x20 DUP2 LT ISZERO PUSH2 0x72 JUMPI PUSH1 0x0 DUP1 REVERT JUMPDEST DUP2 ADD SWAP1 DUP1 DUP1 CALLDATALOAD SWAP1 PUSH1 0x20 ADD SWAP1 SWAP3 SWAP2 SWAP1 POP POP POP PUSH2 0x578 JUMP JUMPDEST STOP JUMPDEST PUSH2 0x20A PUSH1 0x4 DUP1 CALLDATASIZE SUB PUSH1 0xA0 DUP2 LT ISZERO PUSH2 0xA0 JUMPI PUSH1 0x0 DUP1 REVERT JUMPDEST DUP2 ADD SWAP1 DUP1 DUP1 CALLDATALOAD SWAP1 PUSH1 0x20 ADD SWAP1 PUSH5 0x100000000 DUP2 GT ISZERO PUSH2 0xBD JUMPI PUSH1 0x0 DUP1 REVERT JUMPDEST DUP3 ADD DUP4 PUSH1 0x20 DUP3 ADD GT ISZERO PUSH2 0xCF JUMPI PUSH1 0x0 DUP1 REVERT JUMPDEST DUP1 CALLDATALOAD SWAP1 PUSH1 0x20 ADD SWAP2 DUP5 PUSH1 0x1 DUP4 MUL DUP5 ADD GT PUSH5 0x100000000 DUP4 GT OR ISZERO PUSH2 0xF1 JUMPI PUSH1 0x0 DUP1 REVERT JUMPDEST SWAP1 SWAP2 SWAP3 SWAP4 SWAP2 SWAP3 SWAP4 SWAP1 DUP1 CALLDATALOAD SWAP1 PUSH1 0x20 ADD SWAP1 SWAP3 SWAP2 SWAP1 DUP1 CALLDATALOAD SWAP1 PUSH1 0x20 ADD SWAP1 PUSH5 0x100000000 DUP2 GT ISZERO PUSH2 0x11C JUMPI PUSH1 0x0 DUP1 REVERT JUMPDEST DUP3 ADD DUP4 PUSH1 0x20 DUP3 ADD GT ISZERO PUSH2 0x12E JUMPI PUSH1 0x0 DUP1 REVERT JUMPDEST DUP1 CALLDATALOAD SWAP1 PUSH1 0x20 ADD SWAP2 DUP5 PUSH1 0x1 DUP4 MUL DUP5 ADD GT PUSH5 0x100000000 DUP4 GT OR ISZERO PUSH2 0x150 JUMPI PUSH1 0x0 DUP1 REVERT JUMPDEST SWAP1 SWAP2 SWAP3 SWAP4 SWAP2 SWAP3 SWAP4 SWAP1 DUP1 CALLDATALOAD SWAP1 PUSH1 0x20 ADD SWAP1 PUSH5 0x100000000 DUP2 GT ISZERO PUSH2 0x171 JUMPI PUSH1 0x0 DUP1 REVERT JUMPDEST DUP3 ADD DUP4 PUSH1 0x20 DUP3 ADD GT ISZERO PUSH2 0x183 JUMPI PUSH1 0x0 DUP1 REVERT JUMPDEST DUP1 CALLDATALOAD SWAP1 PUSH1 0x20 ADD SWAP2 DUP5 PUSH1 0x1 DUP4 MUL DUP5 ADD GT PUSH5 0x100000000 DUP4 GT OR ISZERO PUSH2 0x1A5 JUMPI PUSH1 0x0 DUP1 REVERT JUMPDEST SWAP1 SWAP2 SWAP3 SWAP4 SWAP2 SWAP3 SWAP4 SWAP1 DUP1 CALLDATALOAD SWAP1 PUSH1 0x20 ADD SWAP1 PUSH5 0x100000000 DUP2 GT ISZERO PUSH2 0x1C6 JUMPI PUSH1 0x0 DUP1 REVERT JUMPDEST DUP3 ADD DUP4 PUSH1 0x20 DUP3 ADD GT ISZERO PUSH2 0x1D8 JUMPI PUSH1 0x0 DUP1 REVERT JUMPDEST DUP1 CALLDATALOAD SWAP1 PUSH1 0x20 ADD SWAP2 DUP5 PUSH1 0x1 DUP4 MUL DUP5 ADD GT PUSH5 0x100000000 DUP4 GT OR ISZERO PUSH2 0x1FA JUMPI PUSH1 0x0 DUP1 REVERT JUMPDEST SWAP1 SWAP2 SWAP3 SWAP4 SWAP2 SWAP3 SWAP4 SWAP1 POP POP POP PUSH2 0x57B JUMP JUMPDEST STOP JUMPDEST PUSH2 0x238 PUSH1 0x4 DUP1 CALLDATASIZE SUB PUSH1 0x20 DUP2 LT ISZERO PUSH2 0x222 JUMPI PUSH1 0x0 DUP1 REVERT JUMPDEST DUP2 ADD SWAP1 DUP1 DUP1 CALLDATALOAD SWAP1 PUSH1 0x20 ADD SWAP1 SWAP3 SWAP2 SWAP1 POP POP POP PUSH2 0xBCE JUMP JUMPDEST PUSH1 0x40 MLOAD DUP1 DUP1 PUSH1 0x20 ADD DUP8 DUP2 MSTORE PUSH1 0x20 ADD DUP1 PUSH1 0x20 ADD DUP1 PUSH1 0x20 ADD DUP7 DUP2 MSTORE PUSH1 0x20 ADD DUP1 PUSH1 0x20 ADD DUP6 DUP2 SUB DUP6 MSTORE DUP12 DUP2 DUP2 MLOAD DUP2 MSTORE PUSH1 0x20 ADD SWAP2 POP DUP1 MLOAD SWAP1 PUSH1 0x20 ADD SWAP1 DUP1 DUP4 DUP4 PUSH1 0x0 JUMPDEST DUP4 DUP2 LT ISZERO PUSH2 0x290 JUMPI DUP1 DUP3 ADD MLOAD DUP2 DUP5 ADD MSTORE PUSH1 0x20 DUP2 ADD SWAP1 POP PUSH2 0x275 JUMP JUMPDEST POP POP POP POP SWAP1 POP SWAP1 DUP2 ADD SWAP1 PUSH1 0x1F AND DUP1 ISZERO PUSH2 0x2BD JUMPI DUP1 DUP3 SUB DUP1 MLOAD PUSH1 0x1 DUP4 PUSH1 0x20 SUB PUSH2 0x100 EXP SUB NOT AND DUP2 MSTORE PUSH1 0x20 ADD SWAP2 POP JUMPDEST POP DUP6 DUP2 SUB DUP5 MSTORE DUP10 DUP2 DUP2 MLOAD DUP2 MSTORE PUSH1 0x20 ADD SWAP2 POP DUP1 MLOAD SWAP1 PUSH1 0x20 ADD SWAP1 DUP1 DUP4 DUP4 PUSH1 0x0 JUMPDEST DUP4 DUP2 LT ISZERO PUSH2 0x2F6 JUMPI DUP1 DUP3 ADD MLOAD DUP2 DUP5 ADD MSTORE PUSH1 0x20 DUP2 ADD SWAP1 POP PUSH2 0x2DB JUMP JUMPDEST POP POP POP POP SWAP1 POP SWAP1 DUP2 ADD SWAP1 PUSH1 0x1F AND DUP1 ISZERO PUSH2 0x323 JUMPI DUP1 DUP3 SUB DUP1 MLOAD PUSH1 0x1 DUP4 PUSH1 0x20 SUB PUSH2 0x100 EXP SUB NOT AND DUP2 MSTORE PUSH1 0x20 ADD SWAP2 POP JUMPDEST POP DUP6 DUP2 SUB DUP4 MSTORE DUP9 DUP2 DUP2 MLOAD DUP2 MSTORE PUSH1 0x20 ADD SWAP2 POP DUP1 MLOAD SWAP1 PUSH1 0x20 ADD SWAP1 DUP1 DUP4 DUP4 PUSH1 0x0 JUMPDEST DUP4 DUP2 LT ISZERO PUSH2 0x35C JUMPI DUP1 DUP3 ADD MLOAD DUP2 DUP5 ADD MSTORE PUSH1 0x20 DUP2 ADD SWAP1 POP PUSH2 0x341 JUMP JUMPDEST POP POP POP POP SWAP1 POP SWAP1 DUP2 ADD SWAP1 PUSH1 0x1F AND DUP1 ISZERO PUSH2 0x389 JUMPI DUP1 DUP3 SUB DUP1 MLOAD PUSH1 0x1 DUP4 PUSH1 0x20 SUB PUSH2 0x100 EXP SUB NOT AND DUP2 MSTORE PUSH1 0x20 ADD SWAP2 POP JUMPDEST POP DUP6 DUP2 SUB DUP3 MSTORE DUP7 DUP2 DUP2 MLOAD DUP2 MSTORE PUSH1 0x20 ADD SWAP2 POP DUP1 MLOAD SWAP1 PUSH1 0x20 ADD SWAP1 DUP1 DUP4 DUP4 PUSH1 0x0 JUMPDEST DUP4 DUP2 LT ISZERO PUSH2 0x3C2 JUMPI DUP1 DUP3 ADD MLOAD DUP2 DUP5 ADD MSTORE PUSH1 0x20 DUP2 ADD SWAP1 POP PUSH2 0x3A7 JUMP JUMPDEST POP POP POP POP SWAP1 POP SWAP1 DUP2 ADD SWAP1 PUSH1 0x1F AND DUP1 ISZERO PUSH2 0x3EF JUMPI DUP1 DUP3 SUB DUP1 MLOAD PUSH1 0x1 DUP4 PUSH1 0x20 SUB PUSH2 0x100 EXP SUB NOT AND DUP2 MSTORE PUSH1 0x20 ADD SWAP2 POP JUMPDEST POP SWAP11 POP POP POP POP POP POP POP POP POP POP POP PUSH1 0x40 MLOAD DUP1 SWAP2 SUB SWAP1 RETURN JUMPDEST PUSH2 0x431 PUSH1 0x4 DUP1 CALLDATASIZE SUB PUSH1 0x20 DUP2 LT ISZERO PUSH2 0x41B JUMPI PUSH1 0x0 DUP1 REVERT JUMPDEST DUP2 ADD SWAP1 DUP1 DUP1 CALLDATALOAD SWAP1 PUSH1 0x20 ADD SWAP1 SWAP3 SWAP2 SWAP1 POP POP POP PUSH2 0x108E JUMP JUMPDEST PUSH1 0x40 MLOAD DUP1 DUP3 DUP2 MSTORE PUSH1 0x20 ADD SWAP2 POP POP PUSH1 0x40 MLOAD DUP1 SWAP2 SUB SWAP1 RETURN JUMPDEST PUSH2 0x44F PUSH2 0x10AF JUMP JUMPDEST PUSH1 0x40 MLOAD DUP1 DUP6 PUSH20 0xFFFFFFFFFFFFFFFFFFFFFFFFFFFFFFFFFFFFFFFF AND PUSH20 0xFFFFFFFFFFFFFFFFFFFFFFFFFFFFFFFFFFFFFFFF AND DUP2 MSTORE PUSH1 0x20 ADD DUP1 PUSH1 0x20 ADD DUP1 PUSH1 0x20 ADD DUP5 PUSH20 0xFFFFFFFFFFFFFFFFFFFFFFFFFFFFFFFFFFFFFFFF AND PUSH20 0xFFFFFFFFFFFFFFFFFFFFFFFFFFFFFFFFFFFFFFFF AND DUP2 MSTORE PUSH1 0x20 ADD DUP4 DUP2 SUB DUP4 MSTORE DUP7 DUP2 DUP2 MLOAD DUP2 MSTORE PUSH1 0x20 ADD SWAP2 POP DUP1 MLOAD SWAP1 PUSH1 0x20 ADD SWAP1 DUP1 DUP4 DUP4 PUSH1 0x0 JUMPDEST DUP4 DUP2 LT ISZERO PUSH2 0x4F7 JUMPI DUP1 DUP3 ADD MLOAD DUP2 DUP5 ADD MSTORE PUSH1 0x20 DUP2 ADD SWAP1 POP PUSH2 0x4DC JUMP JUMPDEST POP POP POP POP SWAP1 POP SWAP1 DUP2 ADD SWAP1 PUSH1 0x1F AND DUP1 ISZERO PUSH2 0x524 JUMPI DUP1 DUP3 SUB DUP1 MLOAD PUSH1 0x1 DUP4 PUSH1 0x20 SUB PUSH2 0x100 EXP SUB NOT AND DUP2 MSTORE PUSH1 0x20 ADD SWAP2 POP JUMPDEST POP DUP4 DUP2 SUB DUP3 MSTORE DUP6 DUP2 DUP2 MLOAD DUP2 MSTORE PUSH1 0x20 ADD SWAP2 POP DUP1 MLOAD SWAP1 PUSH1 0x20 ADD SWAP1 PUSH1 0x20 MUL DUP1 DUP4 DUP4 PUSH1 0x0 JUMPDEST DUP4 DUP2 LT ISZERO PUSH2 0x560 JUMPI DUP1 DUP3 ADD MLOAD DUP2 DUP5 ADD MSTORE PUSH1 0x20 DUP2 ADD SWAP1 POP PUSH2 0x545 JUMP JUMPDEST POP POP POP POP SWAP1 POP ADD SWAP7 POP POP POP POP POP POP POP PUSH1 0x40 MLOAD DUP1 SWAP2 SUB SWAP1 RETURN JUMPDEST POP JUMP JUMPDEST PUSH2 0x5A7 PUSH32 0xF37B1ED718D6C6AD9A5D63D021912BEEF15B939787F5470DC594D41B72EF08F9 PUSH1 0x0 SHL PUSH2 0x578 JUMP JUMPDEST PUSH2 0x5D3 PUSH32 0x436185CF28C7F6D5203AA76FAB0D7AEA1AAA6E66A5BBB7854C90C0A6328F9FD8 PUSH1 0x0 SHL PUSH2 0x578 JUMP JUMPDEST PUSH2 0x5FF PUSH32 0xE748749287641F645BE0FAE7532C7DB0D062B46FC67D44A4E18E9CF7ADC06C9C PUSH1 0x0 SHL PUSH2 0x578 JUMP JUMPDEST PUSH2 0x62B PUSH32 0x29473C0ADE6DAD4CB4DA8DB543F4182495258C9297E9AD9D44DA9C1B900E8E21 PUSH1 0x0 SHL PUSH2 0x578 JUMP JUMPDEST PUSH1 0x1 PUSH1 0x0 SWAP1 SLOAD SWAP1 PUSH2 0x100 EXP SWAP1 DIV PUSH20 0xFFFFFFFFFFFFFFFFFFFFFFFFFFFFFFFFFFFFFFFF AND PUSH20 0xFFFFFFFFFFFFFFFFFFFFFFFFFFFFFFFFFFFFFFFF AND CALLER PUSH20 0xFFFFFFFFFFFFFFFFFFFFFFFFFFFFFFFFFFFFFFFF AND EQ PUSH2 0x6D1 JUMPI PUSH1 0x40 MLOAD PUSH32 0x8C379A000000000000000000000000000000000000000000000000000000000 DUP2 MSTORE PUSH1 0x4 ADD DUP1 DUP1 PUSH1 0x20 ADD DUP3 DUP2 SUB DUP3 MSTORE PUSH1 0x21 DUP2 MSTORE PUSH1 0x20 ADD DUP1 PUSH2 0x1304 PUSH1 0x21 SWAP2 CODECOPY PUSH1 0x40 ADD SWAP2 POP POP PUSH1 0x40 MLOAD DUP1 SWAP2 SUB SWAP1 REVERT JUMPDEST PUSH2 0x6FD PUSH32 0x397B5E63FB19AC81CB60C0A3D3F3C802EED95ACB38D25CC6DA45E24D1E6894D4 PUSH1 0x0 SHL PUSH2 0x578 JUMP JUMPDEST PUSH2 0x729 PUSH32 0xC7159E538EC9879431DC18CDAB8FEF126596733270D1BDACAE74ADB5097B074C PUSH1 0x0 SHL PUSH2 0x578 JUMP JUMPDEST PUSH2 0x755 PUSH32 0x72703B8D91C8B0B69209AE52A8EB89078D472B2C9C6F72F8F9BFEA6544108EC9 PUSH1 0x0 SHL PUSH2 0x578 JUMP JUMPDEST PUSH2 0x781 PUSH32 0xA3D01735692CBA6CA351E4CFA2B632B9E021677582A9DC25E726D19502A46D6C PUSH1 0x0 SHL PUSH2 0x578 JUMP JUMPDEST PUSH2 0x7AD PUSH32 0x4B267248EFB0C7169174A9D8FDD3CF0F0745A1931E025BA4A3A11500A96403DA PUSH1 0x0 SHL PUSH2 0x578 JUMP JUMPDEST PUSH2 0x7D9 PUSH32 0x5DEDBB669714EA5B21EBE2B0715EBDE26FE9CCAACBDF1F7B5DA1B53E870B2551 PUSH1 0x0 SHL PUSH2 0x578 JUMP JUMPDEST PUSH1 0x0 PUSH1 0x4 PUSH1 0x0 DUP10 DUP2 MSTORE PUSH1 0x20 ADD SWAP1 DUP2 MSTORE PUSH1 0x20 ADD PUSH1 0x0 KECCAK256 PUSH1 0x3 ADD SLOAD EQ PUSH2 0x865 JUMPI PUSH1 0x40 MLOAD PUSH32 0x8C379A000000000000000000000000000000000000000000000000000000000 DUP2 MSTORE PUSH1 0x4 ADD DUP1 DUP1 PUSH1 0x20 ADD DUP3 DUP2 SUB DUP3 MSTORE PUSH1 0x18 DUP2 MSTORE PUSH1 0x20 ADD DUP1 PUSH32 0x446F63756D656E7420616C726561647920637265617465640000000000000000 DUP2 MSTORE POP PUSH1 0x20 ADD SWAP2 POP POP PUSH1 0x40 MLOAD DUP1 SWAP2 SUB SWAP1 REVERT JUMPDEST PUSH2 0x891 PUSH32 0xFB599C4A554483F27258A622E1F98FEA61260B2F587C3272CF88065F16BDC61A PUSH1 0x0 SHL PUSH2 0x578 JUMP JUMPDEST PUSH2 0x8BD PUSH32 0xC2945DCE44F08DA2D187027127878E6252515643335B0FC647B61F7FFDCA4BA5 PUSH1 0x0 SHL PUSH2 0x578 JUMP JUMPDEST PUSH2 0x8E9 PUSH32 0xCA3BA516251217BCFC92375F9B02E7FC0E9CABDE6D2AD6E9414267828A8EC6F9 PUSH1 0x0 SHL PUSH2 0x578 JUMP JUMPDEST PUSH1 0x40 MLOAD DUP1 PUSH1 0xA0 ADD PUSH1 0x40 MSTORE DUP1 DUP11 DUP11 DUP1 DUP1 PUSH1 0x1F ADD PUSH1 0x20 DUP1 SWAP2 DIV MUL PUSH1 0x20 ADD PUSH1 0x40 MLOAD SWAP1 DUP2 ADD PUSH1 0x40 MSTORE DUP1 SWAP4 SWAP3 SWAP2 SWAP1 DUP2 DUP2 MSTORE PUSH1 0x20 ADD DUP4 DUP4 DUP1 DUP3 DUP5 CALLDATACOPY PUSH1 0x0 DUP2 DUP5 ADD MSTORE PUSH1 0x1F NOT PUSH1 0x1F DUP3 ADD AND SWAP1 POP DUP1 DUP4 ADD SWAP3 POP POP POP POP POP POP POP DUP2 MSTORE PUSH1 0x20 ADD DUP8 DUP8 DUP1 DUP1 PUSH1 0x1F ADD PUSH1 0x20 DUP1 SWAP2 DIV MUL PUSH1 0x20 ADD PUSH1 0x40 MLOAD SWAP1 DUP2 ADD PUSH1 0x40 MSTORE DUP1 SWAP4 SWAP3 SWAP2 SWAP1 DUP2 DUP2 MSTORE PUSH1 0x20 ADD DUP4 DUP4 DUP1 DUP3 DUP5 CALLDATACOPY PUSH1 0x0 DUP2 DUP5 ADD MSTORE PUSH1 0x1F NOT PUSH1 0x1F DUP3 ADD AND SWAP1 POP DUP1 DUP4 ADD SWAP3 POP POP POP POP POP POP POP DUP2 MSTORE PUSH1 0x20 ADD DUP6 DUP6 DUP1 DUP1 PUSH1 0x1F ADD PUSH1 0x20 DUP1 SWAP2 DIV MUL PUSH1 0x20 ADD PUSH1 0x40 MLOAD SWAP1 DUP2 ADD PUSH1 0x40 MSTORE DUP1 SWAP4 SWAP3 SWAP2 SWAP1 DUP2 DUP2 MSTORE PUSH1 0x20 ADD DUP4 DUP4 DUP1 DUP3 DUP5 CALLDATACOPY PUSH1 0x0 DUP2 DUP5 ADD MSTORE PUSH1 0x1F NOT PUSH1 0x1F DUP3 ADD AND SWAP1 POP DUP1 DUP4 ADD SWAP3 POP POP POP POP POP POP POP DUP2 MSTORE PUSH1 0x20 ADD TIMESTAMP DUP2 MSTORE PUSH1 0x20 ADD DUP4 DUP4 DUP1 DUP1 PUSH1 0x1F ADD PUSH1 0x20 DUP1 SWAP2 DIV MUL PUSH1 0x20 ADD PUSH1 0x40 MLOAD SWAP1 DUP2 ADD PUSH1 0x40 MSTORE DUP1 SWAP4 SWAP3 SWAP2 SWAP1 DUP2 DUP2 MSTORE PUSH1 0x20 ADD DUP4 DUP4 DUP1 DUP3 DUP5 CALLDATACOPY PUSH1 0x0 DUP2 DUP5 ADD MSTORE PUSH1 0x1F NOT PUSH1 0x1F DUP3 ADD AND SWAP1 POP DUP1 DUP4 ADD SWAP3 POP POP POP POP POP POP POP DUP2 MSTORE POP PUSH1 0x4 PUSH1 0x0 DUP10 DUP2 MSTORE PUSH1 0x20 ADD SWAP1 DUP2 MSTORE PUSH1 0x20 ADD PUSH1 0x0 KECCAK256 PUSH1 0x0 DUP3 ADD MLOAD DUP2 PUSH1 0x0 ADD SWAP1 DUP1 MLOAD SWAP1 PUSH1 0x20 ADD SWAP1 PUSH2 0xA4F SWAP3 SWAP2 SWAP1 PUSH2 0x125E JUMP JUMPDEST POP PUSH1 0x20 DUP3 ADD MLOAD DUP2 PUSH1 0x1 ADD SWAP1 DUP1 MLOAD SWAP1 PUSH1 0x20 ADD SWAP1 PUSH2 0xA6C SWAP3 SWAP2 SWAP1 PUSH2 0x125E JUMP JUMPDEST POP PUSH1 0x40 DUP3 ADD MLOAD DUP2 PUSH1 0x2 ADD SWAP1 DUP1 MLOAD SWAP1 PUSH1 0x20 ADD SWAP1 PUSH2 0xA89 SWAP3 SWAP2 SWAP1 PUSH2 0x125E JUMP JUMPDEST POP PUSH1 0x60 DUP3 ADD MLOAD DUP2 PUSH1 0x3 ADD SSTORE PUSH1 0x80 DUP3 ADD MLOAD DUP2 PUSH1 0x4 ADD SWAP1 DUP1 MLOAD SWAP1 PUSH1 0x20 ADD SWAP1 PUSH2 0xAB0 SWAP3 SWAP2 SWAP1 PUSH2 0x125E JUMP JUMPDEST POP SWAP1 POP POP PUSH2 0xADF PUSH31 0x829BC89D49080CC6B0F65EE0F98B3C40888F3510DB1D5CF34048DCC43DFEAE PUSH1 0x0 SHL PUSH2 0x578 JUMP JUMPDEST PUSH2 0xB0B PUSH32 0x4399771C4FDBB0791921EF585709FA22B5AB74250D2D5C7A8C4FFF6347C4CE5 PUSH1 0x0 SHL PUSH2 0x578 JUMP JUMPDEST PUSH1 0x3 DUP8 SWAP1 DUP1 PUSH1 0x1 DUP2 SLOAD ADD DUP1 DUP3 SSTORE DUP1 SWAP2 POP POP PUSH1 0x1 SWAP1 SUB SWAP1 PUSH1 0x0 MSTORE PUSH1 0x20 PUSH1 0x0 KECCAK256 ADD PUSH1 0x0 SWAP1 SWAP2 SWAP1 SWAP2 SWAP1 SWAP2 POP SSTORE PUSH2 0xB60 PUSH32 0xCC27656ACC41A497C2E6310B050EC6F761955E3A289F6FC0B1DF8E5CE6D530E1 PUSH1 0x0 SHL PUSH2 0x578 JUMP JUMPDEST PUSH2 0xB8C PUSH32 0x29A2DEFFFC1EAD29EC93C3AE7EDB391D2CA5076F65D6DF5F8279D185D8FAEAFA PUSH1 0x0 SHL PUSH2 0x578 JUMP JUMPDEST PUSH32 0xE0D778FF3686F51ABF4D7FAFE1AACEBA6989E018F37C26D928AD7567AA2E71CB DUP8 PUSH1 0x40 MLOAD DUP1 DUP3 DUP2 MSTORE PUSH1 0x20 ADD SWAP2 POP POP PUSH1 0x40 MLOAD DUP1 SWAP2 SUB SWAP1 LOG1 POP POP POP POP POP POP POP POP POP JUMP JUMPDEST PUSH1 0x60 PUSH1 0x0 PUSH1 0x60 DUP1 PUSH1 0x0 PUSH1 0x60 PUSH2 0xC04 PUSH31 0x7E8502E0499F379FF9737B57D15D47B798C28A9165D21280B673FAA4B86CBC PUSH1 0x0 SHL PUSH2 0x578 JUMP JUMPDEST PUSH2 0xC30 PUSH32 0xC48C1785F61DBD686CBA90588519943F62AB9FEE21209D997473BAE6FBB8C949 PUSH1 0x0 SHL PUSH2 0x578 JUMP JUMPDEST PUSH2 0xC5C PUSH32 0x7DCF359A97D83174DA3C2BB0BF010C406B67DEDB4CF30B795D8A41C7861E6E0F PUSH1 0x0 SHL PUSH2 0x578 JUMP JUMPDEST PUSH2 0xC88 PUSH32 0x4EFE336FEA825086C2985AF2F730E967D93A7DB1380D1EF5E6E9B4C054EBE8ED PUSH1 0x0 SHL PUSH2 0x578 JUMP JUMPDEST PUSH1 0x0 PUSH1 0x4 PUSH1 0x0 DUP10 DUP2 MSTORE PUSH1 0x20 ADD SWAP1 DUP2 MSTORE PUSH1 0x20 ADD PUSH1 0x0 KECCAK256 PUSH1 0x3 ADD SLOAD EQ ISZERO PUSH2 0xD15 JUMPI PUSH1 0x40 MLOAD PUSH32 0x8C379A000000000000000000000000000000000000000000000000000000000 DUP2 MSTORE PUSH1 0x4 ADD DUP1 DUP1 PUSH1 0x20 ADD DUP3 DUP2 SUB DUP3 MSTORE PUSH1 0x17 DUP2 MSTORE PUSH1 0x20 ADD DUP1 PUSH32 0x446F63756D656E7420646F6573206E6F74206578697374000000000000000000 DUP2 MSTORE POP PUSH1 0x20 ADD SWAP2 POP POP PUSH1 0x40 MLOAD DUP1 SWAP2 SUB SWAP1 REVERT JUMPDEST PUSH2 0xD41 PUSH32 0xC602AC61FE2D7FE2C39672EAD9844D68FE9FBCEF008CFE08A798DFC947D30B8F PUSH1 0x0 SHL PUSH2 0x578 JUMP JUMPDEST PUSH2 0xD6D PUSH32 0x1CA5853BE6E721B5F6A77DF18CC0E0BCE129711F4351A3134870FA3E685B5DF2 PUSH1 0x0 SHL PUSH2 0x578 JUMP JUMPDEST PUSH2 0xD99 PUSH32 0xFF81F13334513C7E191A9558E637ACCBD4A890BB8AA91F20907BEC304F18ACD8 PUSH1 0x0 SHL PUSH2 0x578 JUMP JUMPDEST PUSH1 0x4 PUSH1 0x0 DUP9 DUP2 MSTORE PUSH1 0x20 ADD SWAP1 DUP2 MSTORE PUSH1 0x20 ADD PUSH1 0x0 KECCAK256 PUSH1 0x0 ADD DUP8 PUSH1 0x4 PUSH1 0x0 DUP11 DUP2 MSTORE PUSH1 0x20 ADD SWAP1 DUP2 MSTORE PUSH1 0x20 ADD PUSH1 0x0 KECCAK256 PUSH1 0x1 ADD PUSH1 0x4 PUSH1 0x0 DUP12 DUP2 MSTORE PUSH1 0x20 ADD SWAP1 DUP2 MSTORE PUSH1 0x20 ADD PUSH1 0x0 KECCAK256 PUSH1 0x2 ADD PUSH1 0x4 PUSH1 0x0 DUP13 DUP2 MSTORE PUSH1 0x20 ADD SWAP1 DUP2 MSTORE PUSH1 0x20 ADD PUSH1 0x0 KECCAK256 PUSH1 0x3 ADD SLOAD PUSH1 0x4 PUSH1 0x0 DUP14 DUP2 MSTORE PUSH1 0x20 ADD SWAP1 DUP2 MSTORE PUSH1 0x20 ADD PUSH1 0x0 KECCAK256 PUSH1 0x4 ADD DUP6 DUP1 SLOAD PUSH1 0x1 DUP2 PUSH1 0x1 AND ISZERO PUSH2 0x100 MUL SUB AND PUSH1 0x2 SWAP1 DIV DUP1 PUSH1 0x1F ADD PUSH1 0x20 DUP1 SWAP2 DIV MUL PUSH1 0x20 ADD PUSH1 0x40 MLOAD SWAP1 DUP2 ADD PUSH1 0x40 MSTORE DUP1 SWAP3 SWAP2 SWAP1 DUP2 DUP2 MSTORE PUSH1 0x20 ADD DUP3 DUP1 SLOAD PUSH1 0x1 DUP2 PUSH1 0x1 AND ISZERO PUSH2 0x100 MUL SUB AND PUSH1 0x2 SWAP1 DIV DUP1 ISZERO PUSH2 0xE9E JUMPI DUP1 PUSH1 0x1F LT PUSH2 0xE73 JUMPI PUSH2 0x100 DUP1 DUP4 SLOAD DIV MUL DUP4 MSTORE SWAP2 PUSH1 0x20 ADD SWAP2 PUSH2 0xE9E JUMP JUMPDEST DUP3 ADD SWAP2 SWAP1 PUSH1 0x0 MSTORE PUSH1 0x20 PUSH1 0x0 KECCAK256 SWAP1 JUMPDEST DUP2 SLOAD DUP2 MSTORE SWAP1 PUSH1 0x1 ADD SWAP1 PUSH1 0x20 ADD DUP1 DUP4 GT PUSH2 0xE81 JUMPI DUP3 SWAP1 SUB PUSH1 0x1F AND DUP3 ADD SWAP2 JUMPDEST POP POP POP POP POP SWAP6 POP DUP4 DUP1 SLOAD PUSH1 0x1 DUP2 PUSH1 0x1 AND ISZERO PUSH2 0x100 MUL SUB AND PUSH1 0x2 SWAP1 DIV DUP1 PUSH1 0x1F ADD PUSH1 0x20 DUP1 SWAP2 DIV MUL PUSH1 0x20 ADD PUSH1 0x40 MLOAD SWAP1 DUP2 ADD PUSH1 0x40 MSTORE DUP1 SWAP3 SWAP2 SWAP1 DUP2 DUP2 MSTORE PUSH1 0x20 ADD DUP3 DUP1 SLOAD PUSH1 0x1 DUP2 PUSH1 0x1 AND ISZERO PUSH2 0x100 MUL SUB AND PUSH1 0x2 SWAP1 DIV DUP1 ISZERO PUSH2 0xF3A JUMPI DUP1 PUSH1 0x1F LT PUSH2 0xF0F JUMPI PUSH2 0x100 DUP1 DUP4 SLOAD DIV MUL DUP4 MSTORE SWAP2 PUSH1 0x20 ADD SWAP2 PUSH2 0xF3A JUMP JUMPDEST DUP3 ADD SWAP2 SWAP1 PUSH1 0x0 MSTORE PUSH1 0x20 PUSH1 0x0 KECCAK256 SWAP1 JUMPDEST DUP2 SLOAD DUP2 MSTORE SWAP1 PUSH1 0x1 ADD SWAP1 PUSH1 0x20 ADD DUP1 DUP4 GT PUSH2 0xF1D JUMPI DUP3 SWAP1 SUB PUSH1 0x1F AND DUP3 ADD SWAP2 JUMPDEST POP POP POP POP POP SWAP4 POP DUP3 DUP1 SLOAD PUSH1 0x1 DUP2 PUSH1 0x1 AND ISZERO PUSH2 0x100 MUL SUB AND PUSH1 0x2 SWAP1 DIV DUP1 PUSH1 0x1F ADD PUSH1 0x20 DUP1 SWAP2 DIV MUL PUSH1 0x20 ADD PUSH1 0x40 MLOAD SWAP1 DUP2 ADD PUSH1 0x40 MSTORE DUP1 SWAP3 SWAP2 SWAP1 DUP2 DUP2 MSTORE PUSH1 0x20 ADD DUP3 DUP1 SLOAD PUSH1 0x1 DUP2 PUSH1 0x1 AND ISZERO PUSH2 0x100 MUL SUB AND PUSH1 0x2 SWAP1 DIV DUP1 ISZERO PUSH2 0xFD6 JUMPI DUP1 PUSH1 0x1F LT PUSH2 0xFAB JUMPI PUSH2 0x100 DUP1 DUP4 SLOAD DIV MUL DUP4 MSTORE SWAP2 PUSH1 0x20 ADD SWAP2 PUSH2 0xFD6 JUMP JUMPDEST DUP3 ADD SWAP2 SWAP1 PUSH1 0x0 MSTORE PUSH1 0x20 PUSH1 0x0 KECCAK256 SWAP1 JUMPDEST DUP2 SLOAD DUP2 MSTORE SWAP1 PUSH1 0x1 ADD SWAP1 PUSH1 0x20 ADD DUP1 DUP4 GT PUSH2 0xFB9 JUMPI DUP3 SWAP1 SUB PUSH1 0x1F AND DUP3 ADD SWAP2 JUMPDEST POP POP POP POP POP SWAP3 POP DUP1 DUP1 SLOAD PUSH1 0x1 DUP2 PUSH1 0x1 AND ISZERO PUSH2 0x100 MUL SUB AND PUSH1 0x2 SWAP1 DIV DUP1 PUSH1 0x1F ADD PUSH1 0x20 DUP1 SWAP2 DIV MUL PUSH1 0x20 ADD PUSH1 0x40 MLOAD SWAP1 DUP2 ADD PUSH1 0x40 MSTORE DUP1 SWAP3 SWAP2 SWAP1 DUP2 DUP2 MSTORE PUSH1 0x20 ADD DUP3 DUP1 SLOAD PUSH1 0x1 DUP2 PUSH1 0x1 AND ISZERO PUSH2 0x100 MUL SUB AND PUSH1 0x2 SWAP1 DIV DUP1 ISZERO PUSH2 0x1072 JUMPI DUP1 PUSH1 0x1F LT PUSH2 0x1047 JUMPI PUSH2 0x100 DUP1 DUP4 SLOAD DIV MUL DUP4 MSTORE SWAP2 PUSH1 0x20 ADD SWAP2 PUSH2 0x1072 JUMP JUMPDEST DUP3 ADD SWAP2 SWAP1 PUSH1 0x0 MSTORE PUSH1 0x20 PUSH1 0x0 KECCAK256 SWAP1 JUMPDEST DUP2 SLOAD DUP2 MSTORE SWAP1 PUSH1 0x1 ADD SWAP1 PUSH1 0x20 ADD DUP1 DUP4 GT PUSH2 0x1055 JUMPI DUP3 SWAP1 SUB PUSH1 0x1F AND DUP3 ADD SWAP2 JUMPDEST POP POP POP POP POP SWAP1 POP SWAP6 POP SWAP6 POP SWAP6 POP SWAP6 POP SWAP6 POP SWAP6 POP SWAP2 SWAP4 SWAP6 POP SWAP2 SWAP4 SWAP6 JUMP JUMPDEST PUSH1 0x3 DUP2 DUP2 SLOAD DUP2 LT PUSH2 0x109B JUMPI INVALID JUMPDEST SWAP1 PUSH1 0x0 MSTORE PUSH1 0x20 PUSH1 0x0 KECCAK256 ADD PUSH1 0x0 SWAP2 POP SWAP1 POP SLOAD DUP2 JUMP JUMPDEST PUSH1 0x0 PUSH1 0x60 DUP1 PUSH1 0x0 PUSH2 0x10E2 PUSH32 0x7157164B96B97E8D8C01D0A955A6D66D36662A5CC68A9232AC943AAFB97A2B76 PUSH1 0x0 SHL PUSH2 0x578 JUMP JUMPDEST PUSH2 0x110E PUSH32 0xAC319A87EE5A18FADF8089802724E2DDD558F26C4D30C3CAC6F377DEF5BB4370 PUSH1 0x0 SHL PUSH2 0x578 JUMP JUMPDEST PUSH2 0x113A PUSH32 0xA0A28F4B88A2FCC152B98BFD3C7AE6F0435B8231380653EF9E4004E61B9FB64C PUSH1 0x0 SHL PUSH2 0x578 JUMP JUMPDEST PUSH1 0x1 PUSH1 0x0 SWAP1 SLOAD SWAP1 PUSH2 0x100 EXP SWAP1 DIV PUSH20 0xFFFFFFFFFFFFFFFFFFFFFFFFFFFFFFFFFFFFFFFF AND PUSH1 0x0 PUSH1 0x3 ADDRESS DUP3 DUP1 SLOAD PUSH1 0x1 DUP2 PUSH1 0x1 AND ISZERO PUSH2 0x100 MUL SUB AND PUSH1 0x2 SWAP1 DIV DUP1 PUSH1 0x1F ADD PUSH1 0x20 DUP1 SWAP2 DIV MUL PUSH1 0x20 ADD PUSH1 0x40 MLOAD SWAP1 DUP2 ADD PUSH1 0x40 MSTORE DUP1 SWAP3 SWAP2 SWAP1 DUP2 DUP2 MSTORE PUSH1 0x20 ADD DUP3 DUP1 SLOAD PUSH1 0x1 DUP2 PUSH1 0x1 AND ISZERO PUSH2 0x100 MUL SUB AND PUSH1 0x2 SWAP1 DIV DUP1 ISZERO PUSH2 0x11F7 JUMPI DUP1 PUSH1 0x1F LT PUSH2 0x11CC JUMPI PUSH2 0x100 DUP1 DUP4 SLOAD DIV MUL DUP4 MSTORE SWAP2 PUSH1 0x20 ADD SWAP2 PUSH2 0x11F7 JUMP JUMPDEST DUP3 ADD SWAP2 SWAP1 PUSH1 0x0 MSTORE PUSH1 0x20 PUSH1 0x0 KECCAK256 SWAP1 JUMPDEST DUP2 SLOAD DUP2 MSTORE SWAP1 PUSH1 0x1 ADD SWAP1 PUSH1 0x20 ADD DUP1 DUP4 GT PUSH2 0x11DA JUMPI DUP3 SWAP1 SUB PUSH1 0x1F AND DUP3 ADD SWAP2 JUMPDEST POP POP POP POP POP SWAP3 POP DUP2 DUP1 SLOAD DUP1 PUSH1 0x20 MUL PUSH1 0x20 ADD PUSH1 0x40 MLOAD SWAP1 DUP2 ADD PUSH1 0x40 MSTORE DUP1 SWAP3 SWAP2 SWAP1 DUP2 DUP2 MSTORE PUSH1 0x20 ADD DUP3 DUP1 SLOAD DUP1 ISZERO PUSH2 0x1249 JUMPI PUSH1 0x20 MUL DUP3 ADD SWAP2 SWAP1 PUSH1 0x0 MSTORE PUSH1 0x20 PUSH1 0x0 KECCAK256 SWAP1 JUMPDEST DUP2 SLOAD DUP2 MSTORE PUSH1 0x20 ADD SWAP1 PUSH1 0x1 ADD SWAP1 DUP1 DUP4 GT PUSH2 0x1235 JUMPI JUMPDEST POP POP POP POP POP SWAP2 POP SWAP4 POP SWAP4 POP SWAP4 POP SWAP4 POP SWAP1 SWAP2 SWAP3 SWAP4 JUMP JUMPDEST DUP3 DUP1 SLOAD PUSH1 0x1 DUP2 PUSH1 0x1 AND ISZERO PUSH2 0x100 MUL SUB AND PUSH1 0x2 SWAP1 DIV SWAP1 PUSH1 0x0 MSTORE PUSH1 0x20 PUSH1 0x0 KECCAK256 SWAP1 PUSH1 0x1F ADD PUSH1 0x20 SWAP1 DIV DUP2 ADD SWAP3 DUP3 PUSH1 0x1F LT PUSH2 0x129F JUMPI DUP1 MLOAD PUSH1 0xFF NOT AND DUP4 DUP1 ADD OR DUP6 SSTORE PUSH2 0x12CD JUMP JUMPDEST DUP3 DUP1 ADD PUSH1 0x1 ADD DUP6 SSTORE DUP3 ISZERO PUSH2 0x12CD JUMPI SWAP2 DUP3 ADD JUMPDEST DUP3 DUP2 GT ISZERO PUSH2 0x12CC JUMPI DUP3 MLOAD DUP3 SSTORE SWAP2 PUSH1 0x20 ADD SWAP2 SWAP1 PUSH1 0x1 ADD SWAP1 PUSH2 0x12B1 JUMP JUMPDEST JUMPDEST POP SWAP1 POP PUSH2 0x12DA SWAP2 SWAP1 PUSH2 0x12DE JUMP JUMPDEST POP SWAP1 JUMP JUMPDEST PUSH2 0x1300 SWAP2 SWAP1 JUMPDEST DUP1 DUP3 GT ISZERO PUSH2 0x12FC JUMPI PUSH1 0x0 DUP2 PUSH1 0x0 SWAP1 SSTORE POP PUSH1 0x1 ADD PUSH2 0x12E4 JUMP JUMPDEST POP SWAP1 JUMP JUMPDEST SWAP1 JUMP INVALID MSTORE8 PUSH6 0x6E6465722069 PUSH20 0x206E6F7420737570706C696572206F662070726F PUSH11 0x656374A264697066735822 SLT KECCAK256 RETURNDATASIZE DUP2 0xF7 CALLDATACOPY 0xD5 0xEF SWAP14 LOG0 RETURNDATACOPY 0xA9 0xD6 PUSH14 0xCC8D8A1444891E3D5F33274C73CE MSTORE8 0x5F 0xCD 0xA8 CALLCODE 0xE4 PUSH5 0x736F6C6343 STOP MOD SIGNEXTEND STOP CALLER 0x4F PUSH24 0x6E61626C653A206E6577206F776E65722069732074686520 PUSH27 0x65726F206164647265737350726F6A65637420646F6573206E6F74 KECCAK256 PUSH6 0x78697374206F PUSH19 0x20697320636C6F73656450726F6A6563742061 PUSH13 0x72656164792063726561746564 KECCAK256 PUSH16 0x7220636C6F7365645573657220686173 KECCAK256 PUSH21 0x6F2062652061737369676E656420636C69656E7420 PUSH16 0x72206F776E6572A26469706673582212 KECCAK256 SMOD 0x26 SWAP13 CALLCODE 0x2D CREATE CALLER 0xC8 ADD EXP 0xBA SSTORE SHR CALLCODE SMOD CHAINID 0x2F MSIZE GT MSTORE NUMBER PUSH3 0x70FD0E GT 0x2E CALLDATALOAD SWAP12 DUP6 CREATE2 CALLCODE PUSH5 0x736F6C6343 STOP MOD SIGNEXTEND STOP CALLER "
        },
        "methodIdentifiers": {
          "addProcessToProject(uint256,address)": "73f04d7f",
          "assignClient(uint256,address)": "5cad5bfd",
          "c_0xa0c663c4(bytes32)": "743d3d6a",
          "c_0xfc4c55b1(bytes32)": "86592428",
          "createProcess(address,string)": "64feff20",
          "createProject(uint256,string,string)": "854dbe58",
          "createUser(uint8,address,string)": "b93ad1e5",
          "getAllUsers()": "e2842d79",
          "getProcessContractsByProject(uint256)": "5c6db281",
          "getProcessesByAddress()": "71198eb6",
          "getProjectDetails(uint256)": "5f8439e3",
          "getProjectsByAddress()": "5231de83",
          "getUser(address)": "6f77926b",
          "owner()": "8da5cb5b",
          "processContractsArray(uint256)": "e6c39930",
          "processesByAddress(address,uint256)": "4cb7a7ba",
          "projectsArray(uint256)": "64b785fa",
          "projectsByAddress(address,uint256)": "6ccdd746",
          "renounceOwnership()": "715018a6",
          "toggleProjectStatus(uint256)": "8b8a417e",
          "toggleUserStatus(address)": "c70f07b4",
          "transferOwnership(address)": "f2fde38b"
        }
      }
    }
  }
}