{
  "contractName": "NuclearPoE",
  "abi": [
    {
      "inputs": [
        {
          "internalType": "bytes32",
          "name": "_name",
          "type": "bytes32"
        }
      ],
      "stateMutability": "nonpayable",
      "type": "constructor"
    },
    {
      "anonymous": false,
      "inputs": [
        {
          "indexed": false,
          "internalType": "uint256",
          "name": "project",
          "type": "uint256"
        },
        {
          "indexed": false,
          "internalType": "address",
          "name": "ProcessContractAddress",
          "type": "address"
        }
      ],
      "name": "AssignProcess",
      "type": "event"
    },
    {
      "anonymous": false,
      "inputs": [
        {
          "indexed": false,
          "internalType": "uint256",
          "name": "id",
          "type": "uint256"
        },
        {
          "indexed": false,
          "internalType": "enum NuclearPoE.State",
          "name": "newState",
          "type": "uint8"
        }
      ],
      "name": "ChangeProjectStatus",
      "type": "event"
    },
    {
      "anonymous": false,
      "inputs": [
        {
          "indexed": false,
          "internalType": "address",
          "name": "ProcessContractAddress",
          "type": "address"
        }
      ],
      "name": "CreateProcess",
      "type": "event"
    },
    {
      "anonymous": false,
      "inputs": [
        {
          "indexed": false,
          "internalType": "uint256",
          "name": "id",
          "type": "uint256"
        }
      ],
      "name": "CreateProject",
      "type": "event"
    },
    {
      "anonymous": false,
      "inputs": [
        {
          "indexed": false,
          "internalType": "address",
          "name": "userAddress",
          "type": "address"
        }
      ],
      "name": "CreateUser",
      "type": "event"
    },
    {
      "anonymous": false,
      "inputs": [
        {
          "indexed": true,
          "internalType": "address",
          "name": "previousOwner",
          "type": "address"
        },
        {
          "indexed": true,
          "internalType": "address",
          "name": "newOwner",
          "type": "address"
        }
      ],
      "name": "OwnershipTransferred",
      "type": "event"
    },
    {
      "inputs": [],
      "name": "owner",
      "outputs": [
        {
          "internalType": "address",
          "name": "",
          "type": "address"
        }
      ],
      "stateMutability": "view",
      "type": "function"
    },
    {
      "inputs": [
        {
          "internalType": "uint256",
          "name": "",
          "type": "uint256"
        }
      ],
      "name": "processContractsArray",
      "outputs": [
        {
          "internalType": "address",
          "name": "",
          "type": "address"
        }
      ],
      "stateMutability": "view",
      "type": "function"
    },
    {
      "inputs": [
        {
          "internalType": "address",
          "name": "",
          "type": "address"
        },
        {
          "internalType": "uint256",
          "name": "",
          "type": "uint256"
        }
      ],
      "name": "processesByAddress",
      "outputs": [
        {
          "internalType": "address",
          "name": "",
          "type": "address"
        }
      ],
      "stateMutability": "view",
      "type": "function"
    },
    {
      "inputs": [
        {
          "internalType": "uint256",
          "name": "",
          "type": "uint256"
        }
      ],
      "name": "projectsArray",
      "outputs": [
        {
          "internalType": "uint256",
          "name": "",
          "type": "uint256"
        }
      ],
      "stateMutability": "view",
      "type": "function"
    },
    {
      "inputs": [
        {
          "internalType": "address",
          "name": "",
          "type": "address"
        },
        {
          "internalType": "uint256",
          "name": "",
          "type": "uint256"
        }
      ],
      "name": "projectsByAddress",
      "outputs": [
        {
          "internalType": "uint256",
          "name": "",
          "type": "uint256"
        }
      ],
      "stateMutability": "view",
      "type": "function"
    },
    {
      "inputs": [],
      "name": "renounceOwnership",
      "outputs": [],
      "stateMutability": "nonpayable",
      "type": "function"
    },
    {
      "inputs": [
        {
          "internalType": "address",
          "name": "newOwner",
          "type": "address"
        }
      ],
      "name": "transferOwnership",
      "outputs": [],
      "stateMutability": "nonpayable",
      "type": "function"
    },
    {
      "inputs": [
        {
          "internalType": "uint256",
          "name": "_id",
          "type": "uint256"
        },
        {
          "internalType": "address",
          "name": "_client",
          "type": "address"
        },
        {
          "internalType": "bytes32",
          "name": "_title",
          "type": "bytes32"
        },
        {
          "internalType": "bytes32",
          "name": "_purchaseOrder",
          "type": "bytes32"
        }
      ],
      "name": "createProject",
      "outputs": [],
      "stateMutability": "nonpayable",
      "type": "function"
    },
    {
      "inputs": [
        {
          "internalType": "enum NuclearPoE.Type",
          "name": "_type",
          "type": "uint8"
        },
        {
          "internalType": "address",
          "name": "_address",
          "type": "address"
        },
        {
          "internalType": "bytes32",
          "name": "_name",
          "type": "bytes32"
        }
      ],
      "name": "createUser",
      "outputs": [],
      "stateMutability": "nonpayable",
      "type": "function"
    },
    {
      "inputs": [
        {
          "internalType": "address",
          "name": "_address",
          "type": "address"
        }
      ],
      "name": "getUser",
      "outputs": [
        {
          "internalType": "enum NuclearPoE.State",
          "name": "",
          "type": "uint8"
        },
        {
          "internalType": "enum NuclearPoE.Type",
          "name": "",
          "type": "uint8"
        },
        {
          "internalType": "bytes32",
          "name": "",
          "type": "bytes32"
        },
        {
          "internalType": "address",
          "name": "",
          "type": "address"
        }
      ],
      "stateMutability": "view",
      "type": "function"
    },
    {
      "inputs": [],
      "name": "getAllUsers",
      "outputs": [
        {
          "internalType": "address[]",
          "name": "",
          "type": "address[]"
        }
      ],
      "stateMutability": "view",
      "type": "function"
    },
    {
      "inputs": [
        {
          "internalType": "address",
          "name": "_address",
          "type": "address"
        }
      ],
      "name": "changeUserStatus",
      "outputs": [],
      "stateMutability": "nonpayable",
      "type": "function"
    },
    {
      "inputs": [
        {
          "internalType": "address",
          "name": "_supplier",
          "type": "address"
        },
        {
          "internalType": "bytes32",
          "name": "_processName",
          "type": "bytes32"
        }
      ],
      "name": "createProcess",
      "outputs": [],
      "stateMutability": "nonpayable",
      "type": "function"
    },
    {
      "inputs": [
        {
          "internalType": "uint256",
          "name": "_id",
          "type": "uint256"
        },
        {
          "internalType": "address",
          "name": "_processContract",
          "type": "address"
        }
      ],
      "name": "addProcessToProject",
      "outputs": [],
      "stateMutability": "nonpayable",
      "type": "function"
    },
    {
      "inputs": [
        {
          "internalType": "uint256",
          "name": "_id",
          "type": "uint256"
        }
      ],
      "name": "changeProjectStatus",
      "outputs": [],
      "stateMutability": "nonpayable",
      "type": "function"
    },
    {
      "inputs": [
        {
          "internalType": "uint256",
          "name": "_id",
          "type": "uint256"
        }
      ],
      "name": "getProcessContractsByProject",
      "outputs": [
        {
          "internalType": "address[]",
          "name": "",
          "type": "address[]"
        }
      ],
      "stateMutability": "view",
      "type": "function"
    },
    {
      "inputs": [
        {
          "internalType": "address",
          "name": "_address",
          "type": "address"
        }
      ],
      "name": "getProcessesByAddress",
      "outputs": [
        {
          "internalType": "address[]",
          "name": "",
          "type": "address[]"
        }
      ],
      "stateMutability": "view",
      "type": "function"
    },
    {
      "inputs": [
        {
          "internalType": "address",
          "name": "_address",
          "type": "address"
        }
      ],
      "name": "getProjectsByAddress",
      "outputs": [
        {
          "internalType": "uint256[]",
          "name": "",
          "type": "uint256[]"
        }
      ],
      "stateMutability": "view",
      "type": "function"
    },
    {
      "inputs": [
        {
          "internalType": "uint256",
          "name": "_id",
          "type": "uint256"
        }
      ],
      "name": "getProjectDetails",
      "outputs": [
        {
          "internalType": "enum NuclearPoE.State",
          "name": "",
          "type": "uint8"
        },
        {
          "internalType": "address",
          "name": "",
          "type": "address"
        },
        {
          "internalType": "bytes32",
          "name": "",
          "type": "bytes32"
        },
        {
          "internalType": "bytes32",
          "name": "",
          "type": "bytes32"
        },
        {
          "internalType": "address[]",
          "name": "",
          "type": "address[]"
        }
      ],
      "stateMutability": "view",
      "type": "function"
    }
  ],
  "bytecode": "0x60806040523480156200001157600080fd5b50604051620038e3380380620038e3833981810160405260208110156200003757600080fd5b810190808051906020019092919050505060006200005a6200023760201b60201c565b9050806000806101000a81548173ffffffffffffffffffffffffffffffffffffffff021916908373ffffffffffffffffffffffffffffffffffffffff1602179055508073ffffffffffffffffffffffffffffffffffffffff16600073ffffffffffffffffffffffffffffffffffffffff167f8be0079c531659141344cd1fd0a4f28419497f9722a3daafe3b4186f6b6457e060405160405180910390a3506040518060600160405280600160028111156200011157fe5b8152602001600060028111156200012457fe5b815260200182815250600660003373ffffffffffffffffffffffffffffffffffffffff1673ffffffffffffffffffffffffffffffffffffffff16815260200190815260200160002060008201518160000160006101000a81548160ff021916908360028111156200019157fe5b021790555060208201518160000160016101000a81548160ff02191690836002811115620001bb57fe5b0217905550604082015181600101559050506002339080600181540180825580915050600190039060005260206000200160009091909190916101000a81548173ffffffffffffffffffffffffffffffffffffffff021916908373ffffffffffffffffffffffffffffffffffffffff160217905550506200023f565b600033905090565b613694806200024f6000396000f3fe608060405234801561001057600080fd5b50600436106101215760003560e01c8063715018a6116100ad578063e2842d7911610071578063e2842d791461073e578063e6c399301461079d578063f136229a1461080b578063f2fde38b14610839578063fb4e2c791461087d57610121565b8063715018a6146105a857806373f04d7f146105b25780638da5cb5b14610600578063d5842c8b1461064a578063d761ed93146106e357610121565b80635f8439e3116100f45780635f8439e31461031457806364b785fa146103ed57806366c3e8611461042f5780636ccdd746146104915780636f77926b146104f357610121565b80631c35c53f146101265780631da5e56f146101bf5780634cb7a7ba146102035780635c6db28114610291575b600080fd5b6101686004803603602081101561013c57600080fd5b81019080803573ffffffffffffffffffffffffffffffffffffffff1690602001909291905050506108cb565b6040518080602001828103825283818151815260200191508051906020019060200280838360005b838110156101ab578082015181840152602081019050610190565b505050509050019250505060405180910390f35b610201600480360360208110156101d557600080fd5b81019080803573ffffffffffffffffffffffffffffffffffffffff169060200190929190505050610ada565b005b61024f6004803603604081101561021957600080fd5b81019080803573ffffffffffffffffffffffffffffffffffffffff16906020019092919080359060200190929190505050610da0565b604051808273ffffffffffffffffffffffffffffffffffffffff1673ffffffffffffffffffffffffffffffffffffffff16815260200191505060405180910390f35b6102bd600480360360208110156102a757600080fd5b8101908080359060200190929190505050610deb565b6040518080602001828103825283818151815260200191508051906020019060200280838360005b838110156103005780820151818401526020810190506102e5565b505050509050019250505060405180910390f35b6103406004803603602081101561032a57600080fd5b81019080803590602001909291905050506110bb565b6040518086600281111561035057fe5b60ff1681526020018573ffffffffffffffffffffffffffffffffffffffff1673ffffffffffffffffffffffffffffffffffffffff16815260200184815260200183815260200180602001828103825283818151815260200191508051906020019060200280838360005b838110156103d55780820151818401526020810190506103ba565b50505050905001965050505050505060405180910390f35b6104196004803603602081101561040357600080fd5b81019080803590602001909291905050506112fb565b6040518082815260200191505060405180910390f35b61048f6004803603608081101561044557600080fd5b8101908080359060200190929190803573ffffffffffffffffffffffffffffffffffffffff169060200190929190803590602001909291908035906020019092919050505061131c565b005b6104dd600480360360408110156104a757600080fd5b81019080803573ffffffffffffffffffffffffffffffffffffffff16906020019092919080359060200190929190505050611679565b6040518082815260200191505060405180910390f35b6105356004803603602081101561050957600080fd5b81019080803573ffffffffffffffffffffffffffffffffffffffff1690602001909291905050506116a7565b6040518085600281111561054557fe5b60ff16815260200184600281111561055957fe5b60ff1681526020018381526020018273ffffffffffffffffffffffffffffffffffffffff1673ffffffffffffffffffffffffffffffffffffffff16815260200194505050505060405180910390f35b6105b0611907565b005b6105fe600480360360408110156105c857600080fd5b8101908080359060200190929190803573ffffffffffffffffffffffffffffffffffffffff169060200190929190505050611a8f565b005b610608611cd0565b604051808273ffffffffffffffffffffffffffffffffffffffff1673ffffffffffffffffffffffffffffffffffffffff16815260200191505060405180910390f35b61068c6004803603602081101561066057600080fd5b81019080803573ffffffffffffffffffffffffffffffffffffffff169060200190929190505050611cf9565b6040518080602001828103825283818151815260200191508051906020019060200280838360005b838110156106cf5780820151818401526020810190506106b4565b505050509050019250505060405180910390f35b61073c600480360360608110156106f957600080fd5b81019080803560ff169060200190929190803573ffffffffffffffffffffffffffffffffffffffff16906020019092919080359060200190929190505050611e9d565b005b610746612101565b6040518080602001828103825283818151815260200191508051906020019060200280838360005b8381101561078957808201518184015260208101905061076e565b505050509050019250505060405180910390f35b6107c9600480360360208110156107b357600080fd5b8101908080359060200190929190505050612258565b604051808273ffffffffffffffffffffffffffffffffffffffff1673ffffffffffffffffffffffffffffffffffffffff16815260200191505060405180910390f35b6108376004803603602081101561082157600080fd5b8101908080359060200190929190505050612294565b005b61087b6004803603602081101561084f57600080fd5b81019080803573ffffffffffffffffffffffffffffffffffffffff16906020019092919050505061251a565b005b6108c96004803603604081101561089357600080fd5b81019080803573ffffffffffffffffffffffffffffffffffffffff16906020019092919080359060200190929190505050612727565b005b60606108d5611cd0565b73ffffffffffffffffffffffffffffffffffffffff163373ffffffffffffffffffffffffffffffffffffffff16141561099657600180548060200260200160405190810160405280929190818152602001828054801561098a57602002820191906000526020600020905b8160009054906101000a900473ffffffffffffffffffffffffffffffffffffffff1673ffffffffffffffffffffffffffffffffffffffff1681526020019060010190808311610940575b50505050509050610ad5565b6002808111156109a257fe5b600660003373ffffffffffffffffffffffffffffffffffffffff1673ffffffffffffffffffffffffffffffffffffffff16815260200190815260200160002060000160019054906101000a900460ff1660028111156109fd57fe5b1415610ace57600560008373ffffffffffffffffffffffffffffffffffffffff1673ffffffffffffffffffffffffffffffffffffffff168152602001908152602001600020805480602002602001604051908101604052809291908181526020018280548015610ac257602002820191906000526020600020905b8160009054906101000a900473ffffffffffffffffffffffffffffffffffffffff1673ffffffffffffffffffffffffffffffffffffffff1681526020019060010190808311610a78575b50505050509050610ad5565b6060809150505b919050565b610ae26129c7565b73ffffffffffffffffffffffffffffffffffffffff166000809054906101000a900473ffffffffffffffffffffffffffffffffffffffff1673ffffffffffffffffffffffffffffffffffffffff1614610ba3576040517f08c379a00000000000000000000000000000000000000000000000000000000081526004018080602001828103825260208152602001807f4f776e61626c653a2063616c6c6572206973206e6f7420746865206f776e657281525060200191505060405180910390fd5b60016002811115610bb057fe5b600660008373ffffffffffffffffffffffffffffffffffffffff1673ffffffffffffffffffffffffffffffffffffffff16815260200190815260200160002060000160009054906101000a900460ff166002811115610c0b57fe5b14610c61576040517f08c379a00000000000000000000000000000000000000000000000000000000081526004018080602001828103825260288152602001806136166028913960400191505060405180910390fd5b60016002811115610c6e57fe5b600660008373ffffffffffffffffffffffffffffffffffffffff1673ffffffffffffffffffffffffffffffffffffffff16815260200190815260200160002060000160009054906101000a900460ff166002811115610cc957fe5b1415610d38576002600660008373ffffffffffffffffffffffffffffffffffffffff1673ffffffffffffffffffffffffffffffffffffffff16815260200190815260200160002060000160006101000a81548160ff02191690836002811115610d2e57fe5b0217905550610d9d565b6001600660008373ffffffffffffffffffffffffffffffffffffffff1673ffffffffffffffffffffffffffffffffffffffff16815260200190815260200160002060000160006101000a81548160ff02191690836002811115610d9757fe5b02179055505b50565b60056020528160005260406000208181548110610db957fe5b906000526020600020016000915091509054906101000a900473ffffffffffffffffffffffffffffffffffffffff1681565b606060016002811115610dfa57fe5b600660003373ffffffffffffffffffffffffffffffffffffffff1673ffffffffffffffffffffffffffffffffffffffff16815260200190815260200160002060000160019054906101000a900460ff166002811115610e5557fe5b1480610e935750610e64611cd0565b73ffffffffffffffffffffffffffffffffffffffff163373ffffffffffffffffffffffffffffffffffffffff16145b610f05576040517f08c379a000000000000000000000000000000000000000000000000000000000815260040180806020018281038252601e8152602001807f557365722068617320746f20626520636c69656e74206f72206f776e6572000081525060200191505060405180910390fd5b3373ffffffffffffffffffffffffffffffffffffffff166007600084815260200190815260200160002060000160019054906101000a900473ffffffffffffffffffffffffffffffffffffffff1673ffffffffffffffffffffffffffffffffffffffff161480610fa75750610f78611cd0565b73ffffffffffffffffffffffffffffffffffffffff163373ffffffffffffffffffffffffffffffffffffffff16145b611019576040517f08c379a000000000000000000000000000000000000000000000000000000000815260040180806020018281038252601f8152602001807f50726f6a65637420616e6420436c69656e7420646f206e6f74206d617463680081525060200191505060405180910390fd5b600760008381526020019081526020016000206003018054806020026020016040519081016040528092919081815260200182805480156110af57602002820191906000526020600020905b8160009054906101000a900473ffffffffffffffffffffffffffffffffffffffff1673ffffffffffffffffffffffffffffffffffffffff1681526020019060010190808311611065575b50505050509050919050565b60008060008060606007600087815260200190815260200160002060000160019054906101000a900473ffffffffffffffffffffffffffffffffffffffff1673ffffffffffffffffffffffffffffffffffffffff166111186129c7565b73ffffffffffffffffffffffffffffffffffffffff16148061116c575061113d611cd0565b73ffffffffffffffffffffffffffffffffffffffff163373ffffffffffffffffffffffffffffffffffffffff16145b6111c1576040517f08c379a000000000000000000000000000000000000000000000000000000000815260040180806020018281038252602781526020018061357b6027913960400191505060405180910390fd5b6007600087815260200190815260200160002060000160009054906101000a900460ff166007600088815260200190815260200160002060000160019054906101000a900473ffffffffffffffffffffffffffffffffffffffff166007600089815260200190815260200160002060010154600760008a815260200190815260200160002060020154600760008b8152602001908152602001600020600301808054806020026020016040519081016040528092919081815260200182805480156112e157602002820191906000526020600020905b8160009054906101000a900473ffffffffffffffffffffffffffffffffffffffff1673ffffffffffffffffffffffffffffffffffffffff1681526020019060010190808311611297575b505050505090509450945094509450945091939590929450565b6003818154811061130857fe5b906000526020600020016000915090505481565b6113246129c7565b73ffffffffffffffffffffffffffffffffffffffff166000809054906101000a900473ffffffffffffffffffffffffffffffffffffffff1673ffffffffffffffffffffffffffffffffffffffff16146113e5576040517f08c379a00000000000000000000000000000000000000000000000000000000081526004018080602001828103825260208152602001807f4f776e61626c653a2063616c6c6572206973206e6f7420746865206f776e657281525060200191505060405180910390fd5b600060028111156113f257fe5b6007600086815260200190815260200160002060000160009054906101000a900460ff16600281111561142157fe5b14611477576040517f08c379a000000000000000000000000000000000000000000000000000000000815260040180806020018281038252602181526020018061363e6021913960400191505060405180910390fd5b606060006040519080825280602002602001820160405280156114a95781602001602082028038833980820191505090505b5090506040518060a00160405280600160028111156114c457fe5b81526020018573ffffffffffffffffffffffffffffffffffffffff168152602001848152602001838152602001828152506007600087815260200190815260200160002060008201518160000160006101000a81548160ff0219169083600281111561152c57fe5b021790555060208201518160000160016101000a81548173ffffffffffffffffffffffffffffffffffffffff021916908373ffffffffffffffffffffffffffffffffffffffff160217905550604082015181600101556060820151816002015560808201518160030190805190602001906115a89291906129cf565b50905050600460008573ffffffffffffffffffffffffffffffffffffffff1673ffffffffffffffffffffffffffffffffffffffff16815260200190815260200160002085908060018154018082558091505060019003906000526020600020016000909190919091505560038590806001815401808255809150506001900390600052602060002001600090919091909150557f2a5ab9ec691fb839007cf12d3897d875d6526e4abb4c51b9d7a0fc8a98d05fdd856040518082815260200191505060405180910390a15050505050565b6004602052816000526040600020818154811061169257fe5b90600052602060002001600091509150505481565b600080600080600160028111156116ba57fe5b600660003373ffffffffffffffffffffffffffffffffffffffff1673ffffffffffffffffffffffffffffffffffffffff16815260200190815260200160002060000160009054906101000a900460ff16600281111561171557fe5b14611788576040517f08c379a00000000000000000000000000000000000000000000000000000000081526004018080602001828103825260198152602001807f53656e646572206973206e6f742077686974656c69737465640000000000000081525060200191505060405180910390fd5b6001600281111561179557fe5b600660008773ffffffffffffffffffffffffffffffffffffffff1673ffffffffffffffffffffffffffffffffffffffff16815260200190815260200160002060000160009054906101000a900460ff1660028111156117f057fe5b14156118e757600660008673ffffffffffffffffffffffffffffffffffffffff1673ffffffffffffffffffffffffffffffffffffffff16815260200190815260200160002060000160009054906101000a900460ff16600660008773ffffffffffffffffffffffffffffffffffffffff1673ffffffffffffffffffffffffffffffffffffffff16815260200190815260200160002060000160019054906101000a900460ff16600660008873ffffffffffffffffffffffffffffffffffffffff1673ffffffffffffffffffffffffffffffffffffffff16815260200190815260200160002060010154879350935093509350611900565b600060016000808160001b915080905093509350935093505b9193509193565b61190f6129c7565b73ffffffffffffffffffffffffffffffffffffffff166000809054906101000a900473ffffffffffffffffffffffffffffffffffffffff1673ffffffffffffffffffffffffffffffffffffffff16146119d0576040517f08c379a00000000000000000000000000000000000000000000000000000000081526004018080602001828103825260208152602001807f4f776e61626c653a2063616c6c6572206973206e6f7420746865206f776e657281525060200191505060405180910390fd5b600073ffffffffffffffffffffffffffffffffffffffff166000809054906101000a900473ffffffffffffffffffffffffffffffffffffffff1673ffffffffffffffffffffffffffffffffffffffff167f8be0079c531659141344cd1fd0a4f28419497f9722a3daafe3b4186f6b6457e060405160405180910390a360008060006101000a81548173ffffffffffffffffffffffffffffffffffffffff021916908373ffffffffffffffffffffffffffffffffffffffff160217905550565b611a976129c7565b73ffffffffffffffffffffffffffffffffffffffff166000809054906101000a900473ffffffffffffffffffffffffffffffffffffffff1673ffffffffffffffffffffffffffffffffffffffff1614611b58576040517f08c379a00000000000000000000000000000000000000000000000000000000081526004018080602001828103825260208152602001807f4f776e61626c653a2063616c6c6572206973206e6f7420746865206f776e657281525060200191505060405180910390fd5b60016002811115611b6557fe5b6007600084815260200190815260200160002060000160009054906101000a900460ff166002811115611b9457fe5b14611bea576040517f08c379a00000000000000000000000000000000000000000000000000000000081526004018080602001828103825260238152602001806135f36023913960400191505060405180910390fd5b60076000838152602001908152602001600020600301819080600181540180825580915050600190039060005260206000200160009091909190916101000a81548173ffffffffffffffffffffffffffffffffffffffff021916908373ffffffffffffffffffffffffffffffffffffffff1602179055507f3692cddee3f850c6a39cfd231903164d5b29a337cad2a6763434d94a5ed4bb388282604051808381526020018273ffffffffffffffffffffffffffffffffffffffff1673ffffffffffffffffffffffffffffffffffffffff1681526020019250505060405180910390a15050565b60008060009054906101000a900473ffffffffffffffffffffffffffffffffffffffff16905090565b6060611d03611cd0565b73ffffffffffffffffffffffffffffffffffffffff163373ffffffffffffffffffffffffffffffffffffffff161415611d8e576003805480602002602001604051908101604052809291908181526020018280548015611d8257602002820191906000526020600020905b815481526020019060010190808311611d6e575b50505050509050611e98565b60016002811115611d9b57fe5b600660003373ffffffffffffffffffffffffffffffffffffffff1673ffffffffffffffffffffffffffffffffffffffff16815260200190815260200160002060000160019054906101000a900460ff166002811115611df657fe5b1415611e9157600460008373ffffffffffffffffffffffffffffffffffffffff1673ffffffffffffffffffffffffffffffffffffffff168152602001908152602001600020805480602002602001604051908101604052809291908181526020018280548015611e8557602002820191906000526020600020905b815481526020019060010190808311611e71575b50505050509050611e98565b6060809150505b919050565b611ea56129c7565b73ffffffffffffffffffffffffffffffffffffffff166000809054906101000a900473ffffffffffffffffffffffffffffffffffffffff1673ffffffffffffffffffffffffffffffffffffffff1614611f66576040517f08c379a00000000000000000000000000000000000000000000000000000000081526004018080602001828103825260208152602001807f4f776e61626c653a2063616c6c6572206973206e6f7420746865206f776e657281525060200191505060405180910390fd5b604051806060016040528060016002811115611f7e57fe5b8152602001846002811115611f8f57fe5b815260200182815250600660008473ffffffffffffffffffffffffffffffffffffffff1673ffffffffffffffffffffffffffffffffffffffff16815260200190815260200160002060008201518160000160006101000a81548160ff02191690836002811115611ffb57fe5b021790555060208201518160000160016101000a81548160ff0219169083600281111561202457fe5b0217905550604082015181600101559050506002829080600181540180825580915050600190039060005260206000200160009091909190916101000a81548173ffffffffffffffffffffffffffffffffffffffff021916908373ffffffffffffffffffffffffffffffffffffffff1602179055507fdf54227b669e96e69d8f583a07d577cb4081ab69c78dbcff8fce5af67e1ac54682604051808273ffffffffffffffffffffffffffffffffffffffff1673ffffffffffffffffffffffffffffffffffffffff16815260200191505060405180910390a1505050565b606061210b6129c7565b73ffffffffffffffffffffffffffffffffffffffff166000809054906101000a900473ffffffffffffffffffffffffffffffffffffffff1673ffffffffffffffffffffffffffffffffffffffff16146121cc576040517f08c379a00000000000000000000000000000000000000000000000000000000081526004018080602001828103825260208152602001807f4f776e61626c653a2063616c6c6572206973206e6f7420746865206f776e657281525060200191505060405180910390fd5b600280548060200260200160405190810160405280929190818152602001828054801561224e57602002820191906000526020600020905b8160009054906101000a900473ffffffffffffffffffffffffffffffffffffffff1673ffffffffffffffffffffffffffffffffffffffff1681526020019060010190808311612204575b5050505050905090565b6001818154811061226557fe5b906000526020600020016000915054906101000a900473ffffffffffffffffffffffffffffffffffffffff1681565b61229c6129c7565b73ffffffffffffffffffffffffffffffffffffffff166000809054906101000a900473ffffffffffffffffffffffffffffffffffffffff1673ffffffffffffffffffffffffffffffffffffffff161461235d576040517f08c379a00000000000000000000000000000000000000000000000000000000081526004018080602001828103825260208152602001807f4f776e61626c653a2063616c6c6572206973206e6f7420746865206f776e657281525060200191505060405180910390fd5b6001600281111561236a57fe5b6007600083815260200190815260200160002060000160009054906101000a900460ff16600281111561239957fe5b146123ef576040517f08c379a000000000000000000000000000000000000000000000000000000000815260040180806020018281038252602b8152602001806135c8602b913960400191505060405180910390fd5b600160028111156123fc57fe5b6007600083815260200190815260200160002060000160009054906101000a900460ff16600281111561242b57fe5b141561246e5760026007600083815260200190815260200160002060000160006101000a81548160ff0219169083600281111561246457fe5b02179055506124a7565b60016007600083815260200190815260200160002060000160006101000a81548160ff021916908360028111156124a157fe5b02179055505b7f57fd5f07b64d688e5bfdf791cd8abb019a103207c23920d4b77873c6a2b9d312816007600084815260200190815260200160002060000160009054906101000a900460ff166040518083815260200182600281111561250357fe5b60ff1681526020019250505060405180910390a150565b6125226129c7565b73ffffffffffffffffffffffffffffffffffffffff166000809054906101000a900473ffffffffffffffffffffffffffffffffffffffff1673ffffffffffffffffffffffffffffffffffffffff16146125e3576040517f08c379a00000000000000000000000000000000000000000000000000000000081526004018080602001828103825260208152602001807f4f776e61626c653a2063616c6c6572206973206e6f7420746865206f776e657281525060200191505060405180910390fd5b600073ffffffffffffffffffffffffffffffffffffffff168173ffffffffffffffffffffffffffffffffffffffff161415612669576040517f08c379a00000000000000000000000000000000000000000000000000000000081526004018080602001828103825260268152602001806135a26026913960400191505060405180910390fd5b8073ffffffffffffffffffffffffffffffffffffffff166000809054906101000a900473ffffffffffffffffffffffffffffffffffffffff1673ffffffffffffffffffffffffffffffffffffffff167f8be0079c531659141344cd1fd0a4f28419497f9722a3daafe3b4186f6b6457e060405160405180910390a3806000806101000a81548173ffffffffffffffffffffffffffffffffffffffff021916908373ffffffffffffffffffffffffffffffffffffffff16021790555050565b61272f6129c7565b73ffffffffffffffffffffffffffffffffffffffff166000809054906101000a900473ffffffffffffffffffffffffffffffffffffffff1673ffffffffffffffffffffffffffffffffffffffff16146127f0576040517f08c379a00000000000000000000000000000000000000000000000000000000081526004018080602001828103825260208152602001807f4f776e61626c653a2063616c6c6572206973206e6f7420746865206f776e657281525060200191505060405180910390fd5b6000828260405161280090612a59565b808373ffffffffffffffffffffffffffffffffffffffff1673ffffffffffffffffffffffffffffffffffffffff16815260200182815260200192505050604051809103906000f080158015612859573d6000803e3d6000fd5b509050600560008473ffffffffffffffffffffffffffffffffffffffff1673ffffffffffffffffffffffffffffffffffffffff168152602001908152602001600020819080600181540180825580915050600190039060005260206000200160009091909190916101000a81548173ffffffffffffffffffffffffffffffffffffffff021916908373ffffffffffffffffffffffffffffffffffffffff1602179055506001819080600181540180825580915050600190039060005260206000200160009091909190916101000a81548173ffffffffffffffffffffffffffffffffffffffff021916908373ffffffffffffffffffffffffffffffffffffffff1602179055507f908a1d72896b3c6e31c2e9ac8d65ae9676a54dd26195d4496442c50ff1b0b79781604051808273ffffffffffffffffffffffffffffffffffffffff1673ffffffffffffffffffffffffffffffffffffffff16815260200191505060405180910390a1505050565b600033905090565b828054828255906000526020600020908101928215612a48579160200282015b82811115612a475782518260006101000a81548173ffffffffffffffffffffffffffffffffffffffff021916908373ffffffffffffffffffffffffffffffffffffffff160217905550916020019190600101906129ef565b5b509050612a559190612a66565b5090565b610ad180612aaa83390190565b612aa691905b80821115612aa257600081816101000a81549073ffffffffffffffffffffffffffffffffffffffff021916905550600101612a6c565b5090565b9056fe608060405234801561001057600080fd5b50604051610ad1380380610ad18339818101604052604081101561003357600080fd5b81019080805190602001909291908051906020019092919050505081600160006101000a81548173ffffffffffffffffffffffffffffffffffffffff021916908373ffffffffffffffffffffffffffffffffffffffff160217905550806000819055505050610a2a806100a76000396000f3fe608060405234801561001057600080fd5b506004361061004c5760003560e01c8063b00d2a1a14610051578063b10d6b411461013d578063cdee934e14610265578063fbbf93a0146102a7575b600080fd5b61013b600480360360a081101561006757600080fd5b810190808035906020019064010000000081111561008457600080fd5b82018360208201111561009657600080fd5b803590602001918460018302840111640100000000831117156100b857600080fd5b9091929391929390803590602001909291908035906020019092919080359060200190929190803590602001906401000000008111156100f757600080fd5b82018360208201111561010957600080fd5b8035906020019184600183028401116401000000008311171561012b57600080fd5b9091929391929390505050610373565b005b6101696004803603602081101561015357600080fd5b810190808035906020019092919050505061062b565b604051808060200186815260200185815260200184815260200180602001838103835288818151815260200191508051906020019080838360005b838110156101bf5780820151818401526020810190506101a4565b50505050905090810190601f1680156101ec5780820380516001836020036101000a031916815260200191505b50838103825284818151815260200191508051906020019080838360005b8381101561022557808201518184015260208101905061020a565b50505050905090810190601f1680156102525780820380516001836020036101000a031916815260200191505b5097505050505050505060405180910390f35b6102916004803603602081101561027b57600080fd5b810190808035906020019092919050505061087d565b6040518082815260200191505060405180910390f35b6102af61089e565b604051808573ffffffffffffffffffffffffffffffffffffffff1673ffffffffffffffffffffffffffffffffffffffff168152602001848152602001806020018373ffffffffffffffffffffffffffffffffffffffff1673ffffffffffffffffffffffffffffffffffffffff168152602001828103825284818151815260200191508051906020019060200280838360005b8381101561035c578082015181840152602081019050610341565b505050509050019550505050505060405180910390f35b600160009054906101000a900473ffffffffffffffffffffffffffffffffffffffff1673ffffffffffffffffffffffffffffffffffffffff163373ffffffffffffffffffffffffffffffffffffffff1614610419576040517f08c379a00000000000000000000000000000000000000000000000000000000081526004018080602001828103825260218152602001806109d46021913960400191505060405180910390fd5b60006003600087815260200190815260200160002060030154146104a5576040517f08c379a00000000000000000000000000000000000000000000000000000000081526004018080602001828103825260188152602001807f446f63756d656e7420616c72656164792063726561746564000000000000000081525060200191505060405180910390fd5b6040518060a0016040528088888080601f016020809104026020016040519081016040528093929190818152602001838380828437600081840152601f19601f82011690508083019250505050505050815260200185815260200184815260200142815260200183838080601f016020809104026020016040519081016040528093929190818152602001838380828437600081840152601f19601f8201169050808301925050505050505081525060036000878152602001908152602001600020600082015181600001908051906020019061058392919061092e565b5060208201518160010155604082015181600201556060820151816003015560808201518160040190805190602001906105be92919061092e565b5090505060028590806001815401808255809150506001900390600052602060002001600090919091909150557fe0d778ff3686f51abf4d7fafe1aaceba6989e018f37c26d928ad7567aa2e71cb856040518082815260200191505060405180910390a150505050505050565b6060600080600060606000600360008881526020019081526020016000206003015414156106c1576040517f08c379a00000000000000000000000000000000000000000000000000000000081526004018080602001828103825260178152602001807f446f63756d656e7420646f6573206e6f7420657869737400000000000000000081525060200191505060405180910390fd5b6003600087815260200190815260200160002060000160036000888152602001908152602001600020600101546003600089815260200190815260200160002060020154600360008a815260200190815260200160002060030154600360008b8152602001908152602001600020600401848054600181600116156101000203166002900480601f0160208091040260200160405190810160405280929190818152602001828054600181600116156101000203166002900480156107c75780601f1061079c576101008083540402835291602001916107c7565b820191906000526020600020905b8154815290600101906020018083116107aa57829003601f168201915b50505050509450808054600181600116156101000203166002900480601f0160208091040260200160405190810160405280929190818152602001828054600181600116156101000203166002900480156108635780601f1061083857610100808354040283529160200191610863565b820191906000526020600020905b81548152906001019060200180831161084657829003601f168201915b505050505090509450945094509450945091939590929450565b6002818154811061088a57fe5b906000526020600020016000915090505481565b60008060606000600160009054906101000a900473ffffffffffffffffffffffffffffffffffffffff166000546002308180548060200260200160405190810160405280929190818152602001828054801561091957602002820191906000526020600020905b815481526020019060010190808311610905575b50505050509150935093509350935090919293565b828054600181600116156101000203166002900490600052602060002090601f016020900481019282601f1061096f57805160ff191683800117855561099d565b8280016001018555821561099d579182015b8281111561099c578251825591602001919060010190610981565b5b5090506109aa91906109ae565b5090565b6109d091905b808211156109cc5760008160009055506001016109b4565b5090565b9056fe53656e646572206973206e6f7420737570706c696572206f662070726f6a656374a26469706673582212203525816329d6cadad79c02d3767a8bfe83ffd59e675586a57ddd7c321e7ab23964736f6c63430006000033557365722068617320746f2062652061737369676e656420636c69656e74206f722061646d696e4f776e61626c653a206e6577206f776e657220697320746865207a65726f206164647265737350726f6a65637420646f6573206e6f74206578697374206f7220697320616c726561647920636c6f73656450726f6a65637420646f6573206e6f74206578697374206f7220697320636c6f7365645573657220646f6573206e6f74206578697374206f7220697320616c72656164792070617573656450726f6a65637420616c72656164792063726561746564206f7220636c6f736564a2646970667358221220241b1593e301d510ef8329137ba5c2bbf10e586db811c1e6bc9f4a0b25a22ca564736f6c63430006000033",
  "source": "// SPDX-License-Identifier: UNLICENSED\r\npragma solidity ^0.6.0;\r\n\r\nimport './Process.sol';\r\nimport './Ownable.sol';\r\n\r\n/// @title Main Contract for Nuclearis Track\r\n/// @author Sebastian A. Martinez\r\n/// @notice This contract is the main entrypoint for the Nuclearis Track Platform\r\ncontract NuclearPoE is Ownable {\r\n    enum State {Null, Created, Closed}\r\n    enum Type {Admin, Client, Supplier}\r\n\r\n    struct Project {\r\n        State status;\r\n        address clientAddress;\r\n        bytes32 title;\r\n        bytes32 purchaseOrder;\r\n        address[] processContracts;\r\n    }\r\n    struct User {\r\n        State status;\r\n        Type userType;\r\n        bytes32 name;\r\n    }\r\n\r\n    address[] public processContractsArray;\r\n    address[] private users;\r\n    uint256[] public projectsArray;\r\n\r\n    mapping(address => uint256[]) public projectsByAddress;\r\n    mapping(address => address[]) public processesByAddress;\r\n    mapping(address => User) private user;\r\n    mapping(uint256 => Project) private project;\r\n\r\n    event CreateProject(uint256 id);\r\n    event CreateUser(address userAddress);\r\n    event CreateProcess(address ProcessContractAddress);\r\n    event AssignProcess(uint256 project, address ProcessContractAddress);\r\n    event ChangeProjectStatus(uint256 id, State newState);\r\n\r\n    modifier onlyUser() {\r\n        require(\r\n            user[msg.sender].status == State.Created,\r\n            'Sender is not whitelisted'\r\n        );\r\n        _;\r\n    }\r\n\r\n    constructor(bytes32 _name) public {\r\n        // Creates the admin user, similar to an owner\r\n        user[msg.sender] = User(State.Created, Type.Admin, _name);\r\n        users.push(msg.sender);\r\n    }\r\n\r\n    /// @notice Creates a new project\r\n    /// @param _id Id of a new project\r\n    /// @param _client Address of client\r\n    /// @param _title Title of new project\r\n    /// @param _purchaseOrder Purchase Order Id of project\r\n    function createProject(\r\n        uint256 _id,\r\n        address _client,\r\n        bytes32 _title,\r\n        bytes32 _purchaseOrder\r\n    ) external onlyOwner {\r\n        require(\r\n            project[_id].status == State.Null,\r\n            'Project already created or closed'\r\n        );\r\n\r\n        address[] memory processContracts = new address[](0);\r\n        project[_id] = Project(\r\n            State.Created,\r\n            _client,\r\n            _title,\r\n            _purchaseOrder,\r\n            processContracts\r\n        );\r\n        projectsByAddress[_client].push(_id);\r\n        projectsArray.push(_id);\r\n\r\n        emit CreateProject(_id);\r\n    }\r\n\r\n    /// @notice Creates a new user\r\n    /// @param _type Type of user\r\n    /// @param _address Address of user\r\n    /// @param _name Name of user\r\n    function createUser(\r\n        Type _type,\r\n        address _address,\r\n        bytes32 _name\r\n    ) external onlyOwner {\r\n        user[_address] = User(State.Created, _type, _name);\r\n        users.push(_address);\r\n        emit CreateUser(_address);\r\n    }\r\n\r\n    /// @notice Returns specific information about one user\r\n    /// @param _address User Address\r\n    /// @return Type User Type (supplier or client)\r\n    /// @return bytes32 Name of user\r\n    function getUser(address _address)\r\n        external\r\n        view\r\n        onlyUser\r\n        returns (\r\n            State,\r\n            Type,\r\n            bytes32,\r\n            address\r\n        )\r\n    {\r\n        if (user[_address].status == State.Created)\r\n            return (\r\n                user[_address].status,\r\n                user[_address].userType,\r\n                user[_address].name,\r\n                _address\r\n            );\r\n        else return (State.Null, Type.Client, 0, address(0));\r\n    }\r\n\r\n    /// @notice Returns all saved users\r\n    /// @return address[] Returns array of all created users\r\n    function getAllUsers() external view onlyOwner returns (address[] memory) {\r\n        return users;\r\n    }\r\n\r\n    /// @notice Toggles a user status\r\n    /// @param _address Address of user to be toggled\r\n    function changeUserStatus(address _address) external onlyOwner {\r\n        require(\r\n            user[_address].status == State.Created,\r\n            'User does not exist or is already paused'\r\n        );\r\n\r\n        if (user[_address].status == State.Created)\r\n            user[_address].status = State.Closed;\r\n        else user[_address].status = State.Created;\r\n    }\r\n\r\n    /// @notice Creates a new process and deploys contract\r\n    /// @param _supplier Supplier Address\r\n    /// @param _processName Name of supplier of process\r\n    function createProcess(address _supplier, bytes32 _processName)\r\n        external\r\n        onlyOwner\r\n    {\r\n        address ProcessContractAddress = address(\r\n            new Process(_supplier, _processName)\r\n        );\r\n        processesByAddress[_supplier].push(ProcessContractAddress);\r\n        processContractsArray.push(ProcessContractAddress);\r\n\r\n        emit CreateProcess(ProcessContractAddress);\r\n    }\r\n\r\n    /// @notice Adds a process address to a specific project\r\n    /// @param _id The id of a project\r\n    /// @param _processContract The address of a process contract\r\n    function addProcessToProject(uint256 _id, address _processContract)\r\n        external\r\n        onlyOwner\r\n    {\r\n        require(\r\n            project[_id].status == State.Created,\r\n            'Project does not exist or is closed'\r\n        );\r\n\r\n        project[_id].processContracts.push(_processContract);\r\n\r\n        emit AssignProcess(_id, _processContract);\r\n    }\r\n\r\n    /// @notice Toggles a project status\r\n    /// @param _id The id of a project\r\n    function changeProjectStatus(uint256 _id) external onlyOwner {\r\n        require(\r\n            project[_id].status == State.Created,\r\n            'Project does not exist or is already closed'\r\n        );\r\n\r\n        if (project[_id].status == State.Created)\r\n            project[_id].status = State.Closed;\r\n        else project[_id].status = State.Created;\r\n\r\n        emit ChangeProjectStatus(_id, project[_id].status);\r\n    }\r\n\r\n    /// @notice Returns all processes\r\n    /// @return address[] Array of all process contracts\r\n    function getProcessContractsByProject(uint256 _id)\r\n        external\r\n        view\r\n        returns (address[] memory)\r\n    {\r\n        require(\r\n            user[msg.sender].userType == Type.Client || msg.sender == owner(),\r\n            'User has to be client or owner'\r\n        );\r\n        require(\r\n            project[_id].clientAddress == msg.sender || msg.sender == owner(),\r\n            'Project and Client do not match'\r\n        );\r\n        return project[_id].processContracts;\r\n    }\r\n\r\n    /// @notice Returns processes assigned to a supplier\r\n    /// @param _address The address of the supplier\r\n    /// @return address[] Array of process contract addresses specified to a supplier\r\n    function getProcessesByAddress(address _address)\r\n        external\r\n        view\r\n        returns (address[] memory)\r\n    {\r\n        if (msg.sender == owner()) {\r\n            return processContractsArray;\r\n        } else if (user[msg.sender].userType == Type.Supplier) {\r\n            return (processesByAddress[_address]);\r\n        } else {\r\n            address[] memory empty;\r\n            return empty;\r\n        }\r\n    }\r\n\r\n    /// @notice Returns projects assigned to a client\r\n    /// @param _address The address of the supplier\r\n    /// @return uint256[] Array of projects ids specified to a client\r\n    function getProjectsByAddress(address _address)\r\n        external\r\n        view\r\n        returns (uint256[] memory)\r\n    {\r\n        if (msg.sender == owner()) {\r\n            return projectsArray;\r\n        } else if (user[msg.sender].userType == Type.Client) {\r\n            return (projectsByAddress[_address]);\r\n        } else {\r\n            uint256[] memory empty;\r\n            return empty;\r\n        }\r\n    }\r\n\r\n    /// @notice Returns details of a project id\r\n    /// @param _id The id of the project\r\n    /// @return status Current State of project\r\n    /// @return address Client assigned to project\r\n    /// @return bytes32 Title of project\r\n    /// @return bytes32 Purchase order of project\r\n    /// @return address[] Array of process contract addresses assigned to project\r\n    function getProjectDetails(uint256 _id)\r\n        external\r\n        view\r\n        returns (\r\n            State,\r\n            address,\r\n            bytes32,\r\n            bytes32,\r\n            address[] memory\r\n        )\r\n    {\r\n        require(\r\n            _msgSender() == project[_id].clientAddress || msg.sender == owner(),\r\n            'User has to be assigned client or admin'\r\n        );\r\n        return (\r\n            project[_id].status,\r\n            project[_id].clientAddress,\r\n            project[_id].title,\r\n            project[_id].purchaseOrder,\r\n            project[_id].processContracts\r\n        );\r\n    }\r\n}\r\n",
  "sourcePath": "C:\\Users\\smartinez.nuclearis\\Documents\\GitHub\\work\\poe\\src\\contracts\\NuclearPoE.sol",
  "compiler": {
    "name": "solc",
    "version": "0.6.0+commit.26b70077.Emscripten.clang"
  },
  "schemaVersion": "3.2.0",
  "updatedAt": "2020-06-29T11:45:30.246Z",
  "devdoc": {
    "author": "Sebastian A. Martinez",
    "methods": {
      "addProcessToProject(uint256,address)": {
        "params": {
          "_id": "The id of a project",
          "_processContract": "The address of a process contract"
        }
      },
      "changeProjectStatus(uint256)": {
        "params": {
          "_id": "The id of a project"
        }
      },
      "changeUserStatus(address)": {
        "params": {
          "_address": "Address of user to be toggled"
        }
      },
      "createProcess(address,bytes32)": {
        "params": {
          "_processName": "Name of supplier of process",
          "_supplier": "Supplier Address"
        }
      },
      "createProject(uint256,address,bytes32,bytes32)": {
        "params": {
          "_client": "Address of client",
          "_id": "Id of a new project",
          "_purchaseOrder": "Purchase Order Id of project",
          "_title": "Title of new project"
        }
      },
      "createUser(uint8,address,bytes32)": {
        "params": {
          "_address": "Address of user",
          "_name": "Name of user",
          "_type": "Type of user"
        }
      },
      "getProcessesByAddress(address)": {
        "params": {
          "_address": "The address of the supplier"
        },
        "returns": {
          "_0": "address[] Array of process contract addresses specified to a supplier"
        }
      },
      "getProjectDetails(uint256)": {
        "params": {
          "_id": "The id of the project"
        },
        "returns": {
          "_0": "status Current State of project",
          "_1": "address Client assigned to project",
          "_2": "bytes32 Title of project",
          "_3": "bytes32 Purchase order of project",
          "_4": "address[] Array of process contract addresses assigned to project"
        }
      },
      "getProjectsByAddress(address)": {
        "params": {
          "_address": "The address of the supplier"
        },
        "returns": {
          "_0": "uint256[] Array of projects ids specified to a client"
        }
      },
      "getUser(address)": {
        "params": {
          "_address": "User Address"
        },
        "returns": {
          "_0": "Type User Type (supplier or client)",
          "_1": "bytes32 Name of user"
        }
      },
      "owner()": {
        "details": "Returns the address of the current owner."
      },
      "renounceOwnership()": {
        "details": "Leaves the contract without owner. It will not be possible to call `onlyOwner` functions anymore. Can only be called by the current owner.      * NOTE: Renouncing ownership will leave the contract without an owner, thereby removing any functionality that is only available to the owner."
      },
      "transferOwnership(address)": {
        "details": "Transfers ownership of the contract to a new account (`newOwner`). Can only be called by the current owner."
      }
    },
    "title": "Main Contract for Nuclearis Track"
  },
  "userdoc": {
    "methods": {
      "addProcessToProject(uint256,address)": {
        "notice": "Adds a process address to a specific project"
      },
      "changeProjectStatus(uint256)": {
        "notice": "Toggles a project status"
      },
      "changeUserStatus(address)": {
        "notice": "Toggles a user status"
      },
      "createProcess(address,bytes32)": {
        "notice": "Creates a new process and deploys contract"
      },
      "createProject(uint256,address,bytes32,bytes32)": {
        "notice": "Creates a new project"
      },
      "createUser(uint8,address,bytes32)": {
        "notice": "Creates a new user"
      },
      "getAllUsers()": {
        "notice": "Returns all saved users"
      },
      "getProcessContractsByProject(uint256)": {
        "notice": "Returns all processes"
      },
      "getProcessesByAddress(address)": {
        "notice": "Returns processes assigned to a supplier"
      },
      "getProjectDetails(uint256)": {
        "notice": "Returns details of a project id"
      },
      "getProjectsByAddress(address)": {
        "notice": "Returns projects assigned to a client"
      },
      "getUser(address)": {
        "notice": "Returns specific information about one user"
      }
    },
    "notice": "This contract is the main entrypoint for the Nuclearis Track Platform"
  }
}