{
  "contractName": "NuclearPoE",
  "abi": [
    {
      "inputs": [
        {
          "internalType": "string",
          "name": "_name",
          "type": "string"
        }
      ],
      "stateMutability": "nonpayable",
      "type": "constructor"
    },
    {
      "anonymous": false,
      "inputs": [
        {
          "indexed": false,
          "internalType": "uint256",
          "name": "project",
          "type": "uint256"
        },
        {
          "indexed": false,
          "internalType": "address",
          "name": "clientAddress",
          "type": "address"
        }
      ],
      "name": "AssignClient",
      "type": "event"
    },
    {
      "anonymous": false,
      "inputs": [
        {
          "indexed": false,
          "internalType": "uint256",
          "name": "project",
          "type": "uint256"
        },
        {
          "indexed": false,
          "internalType": "address",
          "name": "processContractAddress",
          "type": "address"
        }
      ],
      "name": "AssignProcess",
      "type": "event"
    },
    {
      "anonymous": false,
      "inputs": [
        {
          "indexed": false,
          "internalType": "address",
          "name": "processContractAddress",
          "type": "address"
        }
      ],
      "name": "CreateProcess",
      "type": "event"
    },
    {
      "anonymous": false,
      "inputs": [
        {
          "indexed": false,
          "internalType": "uint256",
          "name": "id",
          "type": "uint256"
        }
      ],
      "name": "CreateProject",
      "type": "event"
    },
    {
      "anonymous": false,
      "inputs": [
        {
          "indexed": false,
          "internalType": "address",
          "name": "userAddress",
          "type": "address"
        }
      ],
      "name": "CreateUser",
      "type": "event"
    },
    {
      "anonymous": false,
      "inputs": [
        {
          "indexed": true,
          "internalType": "address",
          "name": "previousOwner",
          "type": "address"
        },
        {
          "indexed": true,
          "internalType": "address",
          "name": "newOwner",
          "type": "address"
        }
      ],
      "name": "OwnershipTransferred",
      "type": "event"
    },
    {
      "anonymous": false,
      "inputs": [
        {
          "indexed": false,
          "internalType": "uint256",
          "name": "id",
          "type": "uint256"
        },
        {
          "indexed": false,
          "internalType": "enum NuclearPoE.State",
          "name": "newState",
          "type": "uint8"
        }
      ],
      "name": "ToggleProjectStatus",
      "type": "event"
    },
    {
      "anonymous": false,
      "inputs": [
        {
          "indexed": false,
          "internalType": "address",
          "name": "userAddress",
          "type": "address"
        },
        {
          "indexed": false,
          "internalType": "enum NuclearPoE.State",
          "name": "newState",
          "type": "uint8"
        }
      ],
      "name": "ToggleUserStatus",
      "type": "event"
    },
    {
      "inputs": [],
      "name": "owner",
      "outputs": [
        {
          "internalType": "address",
          "name": "",
          "type": "address"
        }
      ],
      "stateMutability": "view",
      "type": "function"
    },
    {
      "inputs": [
        {
          "internalType": "uint256",
          "name": "",
          "type": "uint256"
        }
      ],
      "name": "processContractsArray",
      "outputs": [
        {
          "internalType": "address",
          "name": "",
          "type": "address"
        }
      ],
      "stateMutability": "view",
      "type": "function"
    },
    {
      "inputs": [
        {
          "internalType": "address",
          "name": "",
          "type": "address"
        },
        {
          "internalType": "uint256",
          "name": "",
          "type": "uint256"
        }
      ],
      "name": "processesByAddress",
      "outputs": [
        {
          "internalType": "address",
          "name": "",
          "type": "address"
        }
      ],
      "stateMutability": "view",
      "type": "function"
    },
    {
      "inputs": [
        {
          "internalType": "uint256",
          "name": "",
          "type": "uint256"
        }
      ],
      "name": "projectsArray",
      "outputs": [
        {
          "internalType": "uint256",
          "name": "",
          "type": "uint256"
        }
      ],
      "stateMutability": "view",
      "type": "function"
    },
    {
      "inputs": [
        {
          "internalType": "address",
          "name": "",
          "type": "address"
        },
        {
          "internalType": "uint256",
          "name": "",
          "type": "uint256"
        }
      ],
      "name": "projectsByAddress",
      "outputs": [
        {
          "internalType": "uint256",
          "name": "",
          "type": "uint256"
        }
      ],
      "stateMutability": "view",
      "type": "function"
    },
    {
      "inputs": [],
      "name": "renounceOwnership",
      "outputs": [],
      "stateMutability": "nonpayable",
      "type": "function"
    },
    {
      "inputs": [
        {
          "internalType": "address",
          "name": "newOwner",
          "type": "address"
        }
      ],
      "name": "transferOwnership",
      "outputs": [],
      "stateMutability": "nonpayable",
      "type": "function"
    },
    {
      "inputs": [
        {
          "internalType": "uint256",
          "name": "_id",
          "type": "uint256"
        },
        {
          "internalType": "string",
          "name": "_title",
          "type": "string"
        },
        {
          "internalType": "string",
          "name": "_purchaseOrder",
          "type": "string"
        }
      ],
      "name": "createProject",
      "outputs": [],
      "stateMutability": "nonpayable",
      "type": "function"
    },
    {
      "inputs": [
        {
          "internalType": "uint256",
          "name": "_id",
          "type": "uint256"
        },
        {
          "internalType": "address",
          "name": "_client",
          "type": "address"
        }
      ],
      "name": "assignClient",
      "outputs": [],
      "stateMutability": "nonpayable",
      "type": "function"
    },
    {
      "inputs": [
        {
          "internalType": "enum NuclearPoE.Type",
          "name": "_type",
          "type": "uint8"
        },
        {
          "internalType": "address",
          "name": "_address",
          "type": "address"
        },
        {
          "internalType": "string",
          "name": "_name",
          "type": "string"
        }
      ],
      "name": "createUser",
      "outputs": [],
      "stateMutability": "nonpayable",
      "type": "function"
    },
    {
      "inputs": [
        {
          "internalType": "address",
          "name": "_address",
          "type": "address"
        }
      ],
      "name": "toggleUserStatus",
      "outputs": [],
      "stateMutability": "nonpayable",
      "type": "function"
    },
    {
      "inputs": [
        {
          "internalType": "address",
          "name": "_supplier",
          "type": "address"
        },
        {
          "internalType": "string",
          "name": "_processName",
          "type": "string"
        }
      ],
      "name": "createProcess",
      "outputs": [],
      "stateMutability": "nonpayable",
      "type": "function"
    },
    {
      "inputs": [
        {
          "internalType": "uint256",
          "name": "_id",
          "type": "uint256"
        },
        {
          "internalType": "address",
          "name": "_processContract",
          "type": "address"
        }
      ],
      "name": "addProcessToProject",
      "outputs": [],
      "stateMutability": "nonpayable",
      "type": "function"
    },
    {
      "inputs": [
        {
          "internalType": "uint256",
          "name": "_id",
          "type": "uint256"
        }
      ],
      "name": "toggleProjectStatus",
      "outputs": [],
      "stateMutability": "nonpayable",
      "type": "function"
    },
    {
      "inputs": [
        {
          "internalType": "address",
          "name": "_address",
          "type": "address"
        }
      ],
      "name": "getUser",
      "outputs": [
        {
          "internalType": "enum NuclearPoE.State",
          "name": "",
          "type": "uint8"
        },
        {
          "internalType": "enum NuclearPoE.Type",
          "name": "",
          "type": "uint8"
        },
        {
          "internalType": "string",
          "name": "",
          "type": "string"
        },
        {
          "internalType": "address",
          "name": "",
          "type": "address"
        }
      ],
      "stateMutability": "view",
      "type": "function"
    },
    {
      "inputs": [],
      "name": "getAllUsers",
      "outputs": [
        {
          "internalType": "address[]",
          "name": "",
          "type": "address[]"
        }
      ],
      "stateMutability": "view",
      "type": "function"
    },
    {
      "inputs": [
        {
          "internalType": "uint256",
          "name": "_id",
          "type": "uint256"
        }
      ],
      "name": "getProcessContractsByProject",
      "outputs": [
        {
          "internalType": "address[]",
          "name": "",
          "type": "address[]"
        }
      ],
      "stateMutability": "view",
      "type": "function"
    },
    {
      "inputs": [],
      "name": "getProcessesByAddress",
      "outputs": [
        {
          "internalType": "address[]",
          "name": "",
          "type": "address[]"
        }
      ],
      "stateMutability": "view",
      "type": "function"
    },
    {
      "inputs": [],
      "name": "getProjectsByAddress",
      "outputs": [
        {
          "internalType": "uint256[]",
          "name": "",
          "type": "uint256[]"
        }
      ],
      "stateMutability": "view",
      "type": "function"
    },
    {
      "inputs": [
        {
          "internalType": "uint256",
          "name": "_id",
          "type": "uint256"
        }
      ],
      "name": "getProjectDetails",
      "outputs": [
        {
          "internalType": "enum NuclearPoE.State",
          "name": "",
          "type": "uint8"
        },
        {
          "internalType": "uint256",
          "name": "",
          "type": "uint256"
        },
        {
          "internalType": "address",
          "name": "",
          "type": "address"
        },
        {
          "internalType": "string",
          "name": "",
          "type": "string"
        },
        {
          "internalType": "string",
          "name": "",
          "type": "string"
        },
        {
          "internalType": "address[]",
          "name": "",
          "type": "address[]"
        }
      ],
      "stateMutability": "view",
      "type": "function"
    }
  ],
  "bytecode": "0x60806040523480156200001157600080fd5b50604051620046b0380380620046b0833981810160405260208110156200003757600080fd5b81019080805160405193929190846401000000008211156200005857600080fd5b838201915060208201858111156200006f57600080fd5b82518660018202830111640100000000821117156200008d57600080fd5b8083526020830192505050908051906020019080838360005b83811015620000c3578082015181840152602081019050620000a6565b50505050905090810190601f168015620000f15780820380516001836020036101000a031916815260200191505b50604052505050336000806101000a81548173ffffffffffffffffffffffffffffffffffffffff021916908373ffffffffffffffffffffffffffffffffffffffff1602179055503373ffffffffffffffffffffffffffffffffffffffff16600073ffffffffffffffffffffffffffffffffffffffff167f8be0079c531659141344cd1fd0a4f28419497f9722a3daafe3b4186f6b6457e060405160405180910390a3604051806060016040528060016002811115620001ac57fe5b815260200160006002811115620001bf57fe5b815260200182815250600660003373ffffffffffffffffffffffffffffffffffffffff1673ffffffffffffffffffffffffffffffffffffffff16815260200190815260200160002060008201518160000160006101000a81548160ff021916908360028111156200022c57fe5b021790555060208201518160000160016101000a81548160ff021916908360028111156200025657fe5b0217905550604082015181600101908051906020019062000279929190620002e7565b509050506002339080600181540180825580915050600190039060005260206000200160009091909190916101000a81548173ffffffffffffffffffffffffffffffffffffffff021916908373ffffffffffffffffffffffffffffffffffffffff1602179055505062000396565b828054600181600116156101000203166002900490600052602060002090601f016020900481019282601f106200032a57805160ff19168380011785556200035b565b828001600101855582156200035b579182015b828111156200035a5782518255916020019190600101906200033d565b5b5090506200036a91906200036e565b5090565b6200039391905b808211156200038f57600081600090555060010162000375565b5090565b90565b61430a80620003a66000396000f3fe60806040523480156200001157600080fd5b5060043610620001485760003560e01c8063715018a611620000bd578063b93ad1e5116200007b578063b93ad1e51462000959578063c70f07b41462000a05578063e2842d791462000a4c578063e6c399301462000aaf578063f2fde38b1462000b205762000148565b8063715018a6146200079e57806373f04d7f14620007aa578063854dbe5814620007fb5780638b8a417e14620008dc5780638da5cb5b146200090d5762000148565b806364b785fa116200010b57806364b785fa14620004d057806364feff2014620005155780636ccdd74614620005b45780636f77926b146200061957806371198eb6146200073b5762000148565b80634cb7a7ba146200014d5780635231de8314620001de5780635c6db28114620002415780635cad5bfd14620002c95780635f8439e3146200031a575b600080fd5b6200019c600480360360408110156200016557600080fd5b81019080803573ffffffffffffffffffffffffffffffffffffffff1690602001909291908035906020019092919050505062000b67565b604051808273ffffffffffffffffffffffffffffffffffffffff1673ffffffffffffffffffffffffffffffffffffffff16815260200191505060405180910390f35b620001e862000bb3565b6040518080602001828103825283818151815260200191508051906020019060200280838360005b838110156200022d57808201518184015260208101905062000210565b505050509050019250505060405180910390f35b62000270600480360360208110156200025957600080fd5b810190808035906020019092919050505062000ce4565b6040518080602001828103825283818151815260200191508051906020019060200280838360005b83811015620002b557808201518184015260208101905062000298565b505050509050019250505060405180910390f35b6200031860048036036040811015620002e157600080fd5b8101908080359060200190929190803573ffffffffffffffffffffffffffffffffffffffff16906020019092919050505062000ea2565b005b62000349600480360360208110156200033257600080fd5b81019080803590602001909291905050506200108f565b604051808760028111156200035a57fe5b60ff1681526020018681526020018573ffffffffffffffffffffffffffffffffffffffff1673ffffffffffffffffffffffffffffffffffffffff168152602001806020018060200180602001848103845287818151815260200191508051906020019080838360005b83811015620003e0578082015181840152602081019050620003c3565b50505050905090810190601f1680156200040e5780820380516001836020036101000a031916815260200191505b50848103835286818151815260200191508051906020019080838360005b83811015620004495780820151818401526020810190506200042c565b50505050905090810190601f168015620004775780820380516001836020036101000a031916815260200191505b50848103825285818151815260200191508051906020019060200280838360005b83811015620004b557808201518184015260208101905062000498565b50505050905001995050505050505050505060405180910390f35b620004ff60048036036020811015620004e857600080fd5b810190808035906020019092919050505062001412565b6040518082815260200191505060405180910390f35b620005b2600480360360408110156200052d57600080fd5b81019080803573ffffffffffffffffffffffffffffffffffffffff169060200190929190803590602001906401000000008111156200056b57600080fd5b8201836020820111156200057e57600080fd5b80359060200191846001830284011164010000000083111715620005a157600080fd5b909192939192939050505062001434565b005b6200060360048036036040811015620005cc57600080fd5b81019080803573ffffffffffffffffffffffffffffffffffffffff169060200190929190803590602001909291905050506200173b565b6040518082815260200191505060405180910390f35b6200065e600480360360208110156200063157600080fd5b81019080803573ffffffffffffffffffffffffffffffffffffffff1690602001909291905050506200176a565b604051808560028111156200066f57fe5b60ff1681526020018460028111156200068457fe5b60ff168152602001806020018373ffffffffffffffffffffffffffffffffffffffff1673ffffffffffffffffffffffffffffffffffffffff168152602001828103825284818151815260200191508051906020019080838360005b83811015620006fc578082015181840152602081019050620006df565b50505050905090810190601f1680156200072a5780820380516001836020036101000a031916815260200191505b509550505050505060405180910390f35b62000745620019e1565b6040518080602001828103825283818151815260200191508051906020019060200280838360005b838110156200078a5780820151818401526020810190506200076d565b505050509050019250505060405180910390f35b620007a862001b7e565b005b620007f960048036036040811015620007c257600080fd5b8101908080359060200190929190803573ffffffffffffffffffffffffffffffffffffffff16906020019092919050505062001d00565b005b620008da600480360360608110156200081357600080fd5b8101908080359060200190929190803590602001906401000000008111156200083b57600080fd5b8201836020820111156200084e57600080fd5b803590602001918460018302840111640100000000831117156200087157600080fd5b9091929391929390803590602001906401000000008111156200089357600080fd5b820183602082011115620008a657600080fd5b80359060200191846001830284011164010000000083111715620008c957600080fd5b909192939192939050505062001f3f565b005b6200090b60048036036020811015620008f457600080fd5b8101908080359060200190929190505050620022ed565b005b6200091762002595565b604051808273ffffffffffffffffffffffffffffffffffffffff1673ffffffffffffffffffffffffffffffffffffffff16815260200191505060405180910390f35b62000a03600480360360608110156200097157600080fd5b81019080803560ff169060200190929190803573ffffffffffffffffffffffffffffffffffffffff16906020019092919080359060200190640100000000811115620009bc57600080fd5b820183602082011115620009cf57600080fd5b80359060200191846001830284011164010000000083111715620009f257600080fd5b9091929391929390505050620025be565b005b62000a4a6004803603602081101562000a1d57600080fd5b81019080803573ffffffffffffffffffffffffffffffffffffffff1690602001909291905050506200287a565b005b62000a5662002c2a565b6040518080602001828103825283818151815260200191508051906020019060200280838360005b8381101562000a9b57808201518184015260208101905062000a7e565b505050509050019250505060405180910390f35b62000ade6004803603602081101562000ac757600080fd5b810190808035906020019092919050505062002d7d565b604051808273ffffffffffffffffffffffffffffffffffffffff1673ffffffffffffffffffffffffffffffffffffffff16815260200191505060405180910390f35b62000b656004803603602081101562000b3857600080fd5b81019080803573ffffffffffffffffffffffffffffffffffffffff16906020019092919050505062002dba565b005b6005602052816000526040600020818154811062000b8157fe5b906000526020600020016000915091509054906101000a900473ffffffffffffffffffffffffffffffffffffffff1681565b606062000bbf62002595565b73ffffffffffffffffffffffffffffffffffffffff163373ffffffffffffffffffffffffffffffffffffffff16141562000c4e57600380548060200260200160405190810160405280929190818152602001828054801562000c4157602002820191906000526020600020905b81548152602001906001019080831162000c2c575b5050505050905062000ce1565b600460003373ffffffffffffffffffffffffffffffffffffffff1673ffffffffffffffffffffffffffffffffffffffff16815260200190815260200160002080548060200260200160405190810160405280929190818152602001828054801562000cd957602002820191906000526020600020905b81548152602001906001019080831162000cc4575b505050505090505b90565b60603373ffffffffffffffffffffffffffffffffffffffff166007600084815260200190815260200160002060000160019054906101000a900473ffffffffffffffffffffffffffffffffffffffff1673ffffffffffffffffffffffffffffffffffffffff16148062000d8b575062000d5c62002595565b73ffffffffffffffffffffffffffffffffffffffff163373ffffffffffffffffffffffffffffffffffffffff16145b62000dfe576040517f08c379a000000000000000000000000000000000000000000000000000000000815260040180806020018281038252601f8152602001807f50726f6a65637420616e6420436c69656e7420646f206e6f74206d617463680081525060200191505060405180910390fd5b6007600083815260200190815260200160002060030180548060200260200160405190810160405280929190818152602001828054801562000e9657602002820191906000526020600020905b8160009054906101000a900473ffffffffffffffffffffffffffffffffffffffff1673ffffffffffffffffffffffffffffffffffffffff168152602001906001019080831162000e4b575b50505050509050919050565b3373ffffffffffffffffffffffffffffffffffffffff166000809054906101000a900473ffffffffffffffffffffffffffffffffffffffff1673ffffffffffffffffffffffffffffffffffffffff161462000f65576040517f08c379a00000000000000000000000000000000000000000000000000000000081526004018080602001828103825260208152602001807f4f776e61626c653a2063616c6c6572206973206e6f7420746865206f776e657281525060200191505060405180910390fd5b600460008273ffffffffffffffffffffffffffffffffffffffff1673ffffffffffffffffffffffffffffffffffffffff168152602001908152602001600020829080600181540180825580915050600190039060005260206000200160009091909190915055806007600084815260200190815260200160002060000160016101000a81548173ffffffffffffffffffffffffffffffffffffffff021916908373ffffffffffffffffffffffffffffffffffffffff1602179055507f4256f31675358760da332c63daf619de7a463cd7afe585631a8f9a6a59cf08008282604051808381526020018273ffffffffffffffffffffffffffffffffffffffff1673ffffffffffffffffffffffffffffffffffffffff1681526020019250505060405180910390a15050565b600080600060608060606007600088815260200190815260200160002060000160019054906101000a900473ffffffffffffffffffffffffffffffffffffffff1673ffffffffffffffffffffffffffffffffffffffff163373ffffffffffffffffffffffffffffffffffffffff1614806200113e57506200110f62002595565b73ffffffffffffffffffffffffffffffffffffffff163373ffffffffffffffffffffffffffffffffffffffff16145b62001195576040517f08c379a0000000000000000000000000000000000000000000000000000000008152600401808060200182810382526027815260200180620042ae6027913960400191505060405180910390fd5b6007600088815260200190815260200160002060000160009054906101000a900460ff1687600760008a815260200190815260200160002060000160019054906101000a900473ffffffffffffffffffffffffffffffffffffffff16600760008b8152602001908152602001600020600101600760008c8152602001908152602001600020600201600760008d8152602001908152602001600020600301828054600181600116156101000203166002900480601f016020809104026020016040519081016040528092919081815260200182805460018160011615610100020316600290048015620012cc5780601f10620012a057610100808354040283529160200191620012cc565b820191906000526020600020905b815481529060010190602001808311620012ae57829003601f168201915b50505050509250818054600181600116156101000203166002900480601f0160208091040260200160405190810160405280929190818152602001828054600181600116156101000203166002900480156200136c5780601f1062001340576101008083540402835291602001916200136c565b820191906000526020600020905b8154815290600101906020018083116200134e57829003601f168201915b5050505050915080805480602002602001604051908101604052809291908181526020018280548015620013f657602002820191906000526020600020905b8160009054906101000a900473ffffffffffffffffffffffffffffffffffffffff1673ffffffffffffffffffffffffffffffffffffffff1681526020019060010190808311620013ab575b5050505050905095509550955095509550955091939550919395565b600381815481106200142057fe5b906000526020600020016000915090505481565b3373ffffffffffffffffffffffffffffffffffffffff166000809054906101000a900473ffffffffffffffffffffffffffffffffffffffff1673ffffffffffffffffffffffffffffffffffffffff1614620014f7576040517f08c379a00000000000000000000000000000000000000000000000000000000081526004018080602001828103825260208152602001807f4f776e61626c653a2063616c6c6572206973206e6f7420746865206f776e657281525060200191505060405180910390fd5b60008383836200150662002595565b604051620015149062002fc3565b808573ffffffffffffffffffffffffffffffffffffffff1673ffffffffffffffffffffffffffffffffffffffff168152602001806020018373ffffffffffffffffffffffffffffffffffffffff1673ffffffffffffffffffffffffffffffffffffffff1681526020018281038252858582818152602001925080828437600081840152601f19601f82011690508083019250505095505050505050604051809103906000f080158015620015cc573d6000803e3d6000fd5b509050600560008573ffffffffffffffffffffffffffffffffffffffff1673ffffffffffffffffffffffffffffffffffffffff168152602001908152602001600020819080600181540180825580915050600190039060005260206000200160009091909190916101000a81548173ffffffffffffffffffffffffffffffffffffffff021916908373ffffffffffffffffffffffffffffffffffffffff1602179055506001819080600181540180825580915050600190039060005260206000200160009091909190916101000a81548173ffffffffffffffffffffffffffffffffffffffff021916908373ffffffffffffffffffffffffffffffffffffffff1602179055507f908a1d72896b3c6e31c2e9ac8d65ae9676a54dd26195d4496442c50ff1b0b79781604051808273ffffffffffffffffffffffffffffffffffffffff1673ffffffffffffffffffffffffffffffffffffffff16815260200191505060405180910390a150505050565b600460205281600052604060002081815481106200175557fe5b90600052602060002001600091509150505481565b60008060606000600160028111156200177f57fe5b600660003373ffffffffffffffffffffffffffffffffffffffff1673ffffffffffffffffffffffffffffffffffffffff16815260200190815260200160002060000160009054906101000a900460ff166002811115620017db57fe5b146200184f576040517f08c379a00000000000000000000000000000000000000000000000000000000081526004018080602001828103825260198152602001807f53656e646572206973206e6f742077686974656c69737465640000000000000081525060200191505060405180910390fd5b600660008673ffffffffffffffffffffffffffffffffffffffff1673ffffffffffffffffffffffffffffffffffffffff16815260200190815260200160002060000160009054906101000a900460ff16600660008773ffffffffffffffffffffffffffffffffffffffff1673ffffffffffffffffffffffffffffffffffffffff16815260200190815260200160002060000160019054906101000a900460ff16600660008873ffffffffffffffffffffffffffffffffffffffff1673ffffffffffffffffffffffffffffffffffffffff16815260200190815260200160002060010187818054600181600116156101000203166002900480601f016020809104026020016040519081016040528092919081815260200182805460018160011615610100020316600290048015620019cb5780601f106200199f57610100808354040283529160200191620019cb565b820191906000526020600020905b815481529060010190602001808311620019ad57829003601f168201915b5050505050915093509350935093509193509193565b6060620019ed62002595565b73ffffffffffffffffffffffffffffffffffffffff163373ffffffffffffffffffffffffffffffffffffffff16141562001ab257600180548060200260200160405190810160405280929190818152602001828054801562001aa557602002820191906000526020600020905b8160009054906101000a900473ffffffffffffffffffffffffffffffffffffffff1673ffffffffffffffffffffffffffffffffffffffff168152602001906001019080831162001a5a575b5050505050905062001b7b565b600560003373ffffffffffffffffffffffffffffffffffffffff1673ffffffffffffffffffffffffffffffffffffffff16815260200190815260200160002080548060200260200160405190810160405280929190818152602001828054801562001b7357602002820191906000526020600020905b8160009054906101000a900473ffffffffffffffffffffffffffffffffffffffff1673ffffffffffffffffffffffffffffffffffffffff168152602001906001019080831162001b28575b505050505090505b90565b3373ffffffffffffffffffffffffffffffffffffffff166000809054906101000a900473ffffffffffffffffffffffffffffffffffffffff1673ffffffffffffffffffffffffffffffffffffffff161462001c41576040517f08c379a00000000000000000000000000000000000000000000000000000000081526004018080602001828103825260208152602001807f4f776e61626c653a2063616c6c6572206973206e6f7420746865206f776e657281525060200191505060405180910390fd5b600073ffffffffffffffffffffffffffffffffffffffff166000809054906101000a900473ffffffffffffffffffffffffffffffffffffffff1673ffffffffffffffffffffffffffffffffffffffff167f8be0079c531659141344cd1fd0a4f28419497f9722a3daafe3b4186f6b6457e060405160405180910390a360008060006101000a81548173ffffffffffffffffffffffffffffffffffffffff021916908373ffffffffffffffffffffffffffffffffffffffff160217905550565b3373ffffffffffffffffffffffffffffffffffffffff166000809054906101000a900473ffffffffffffffffffffffffffffffffffffffff1673ffffffffffffffffffffffffffffffffffffffff161462001dc3576040517f08c379a00000000000000000000000000000000000000000000000000000000081526004018080602001828103825260208152602001807f4f776e61626c653a2063616c6c6572206973206e6f7420746865206f776e657281525060200191505060405180910390fd5b6001600281111562001dd157fe5b6007600084815260200190815260200160002060000160009054906101000a900460ff16600281111562001e0157fe5b1462001e59576040517f08c379a00000000000000000000000000000000000000000000000000000000081526004018080602001828103825260238152602001806200426a6023913960400191505060405180910390fd5b60076000838152602001908152602001600020600301819080600181540180825580915050600190039060005260206000200160009091909190916101000a81548173ffffffffffffffffffffffffffffffffffffffff021916908373ffffffffffffffffffffffffffffffffffffffff1602179055507f3692cddee3f850c6a39cfd231903164d5b29a337cad2a6763434d94a5ed4bb388282604051808381526020018273ffffffffffffffffffffffffffffffffffffffff1673ffffffffffffffffffffffffffffffffffffffff1681526020019250505060405180910390a15050565b3373ffffffffffffffffffffffffffffffffffffffff166000809054906101000a900473ffffffffffffffffffffffffffffffffffffffff1673ffffffffffffffffffffffffffffffffffffffff161462002002576040517f08c379a00000000000000000000000000000000000000000000000000000000081526004018080602001828103825260208152602001807f4f776e61626c653a2063616c6c6572206973206e6f7420746865206f776e657281525060200191505060405180910390fd5b600060028111156200201057fe5b6007600087815260200190815260200160002060000160009054906101000a900460ff1660028111156200204057fe5b1462002098576040517f08c379a00000000000000000000000000000000000000000000000000000000081526004018080602001828103825260218152602001806200428d6021913960400191505060405180910390fd5b60606000604051908082528060200260200182016040528015620020cb5781602001602082028038833980820191505090505b5090506040518060a0016040528060016002811115620020e757fe5b8152602001600073ffffffffffffffffffffffffffffffffffffffff16815260200186868080601f016020809104026020016040519081016040528093929190818152602001838380828437600081840152601f19601f82011690508083019250505050505050815260200184848080601f016020809104026020016040519081016040528093929190818152602001838380828437600081840152601f19601f820116905080830192505050505050508152602001828152506007600088815260200190815260200160002060008201518160000160006101000a81548160ff02191690836002811115620021d957fe5b021790555060208201518160000160016101000a81548173ffffffffffffffffffffffffffffffffffffffff021916908373ffffffffffffffffffffffffffffffffffffffff16021790555060408201518160010190805190602001906200224392919062002fd1565b5060608201518160020190805190602001906200226292919062002fd1565b5060808201518160030190805190602001906200228192919062003058565b5090505060038690806001815401808255809150506001900390600052602060002001600090919091909150557f2a5ab9ec691fb839007cf12d3897d875d6526e4abb4c51b9d7a0fc8a98d05fdd866040518082815260200191505060405180910390a1505050505050565b3373ffffffffffffffffffffffffffffffffffffffff166000809054906101000a900473ffffffffffffffffffffffffffffffffffffffff1673ffffffffffffffffffffffffffffffffffffffff1614620023b0576040517f08c379a00000000000000000000000000000000000000000000000000000000081526004018080602001828103825260208152602001807f4f776e61626c653a2063616c6c6572206973206e6f7420746865206f776e657281525060200191505060405180910390fd5b60006002811115620023be57fe5b6007600083815260200190815260200160002060000160009054906101000a900460ff166002811115620023ee57fe5b141562002463576040517f08c379a00000000000000000000000000000000000000000000000000000000081526004018080602001828103825260168152602001807f50726f6a65637420646f6573206e6f742065786973740000000000000000000081525060200191505060405180910390fd5b600160028111156200247157fe5b6007600083815260200190815260200160002060000160009054906101000a900460ff166002811115620024a157fe5b1415620024e75760026007600083815260200190815260200160002060000160006101000a81548160ff02191690836002811115620024dc57fe5b021790555062002521565b60016007600083815260200190815260200160002060000160006101000a81548160ff021916908360028111156200251b57fe5b02179055505b7f5d1817f0324e15d9b2f28fd0374b935f9c8ecb961c916140425d4c2936ed17be816007600084815260200190815260200160002060000160009054906101000a900460ff16604051808381526020018260028111156200257e57fe5b60ff1681526020019250505060405180910390a150565b60008060009054906101000a900473ffffffffffffffffffffffffffffffffffffffff16905090565b3373ffffffffffffffffffffffffffffffffffffffff166000809054906101000a900473ffffffffffffffffffffffffffffffffffffffff1673ffffffffffffffffffffffffffffffffffffffff161462002681576040517f08c379a00000000000000000000000000000000000000000000000000000000081526004018080602001828103825260208152602001807f4f776e61626c653a2063616c6c6572206973206e6f7420746865206f776e657281525060200191505060405180910390fd5b6040518060600160405280600160028111156200269a57fe5b8152602001856002811115620026ac57fe5b815260200183838080601f016020809104026020016040519081016040528093929190818152602001838380828437600081840152601f19601f82011690508083019250505050505050815250600660008573ffffffffffffffffffffffffffffffffffffffff1673ffffffffffffffffffffffffffffffffffffffff16815260200190815260200160002060008201518160000160006101000a81548160ff021916908360028111156200275d57fe5b021790555060208201518160000160016101000a81548160ff021916908360028111156200278757fe5b02179055506040820151816001019080519060200190620027aa92919062002fd1565b509050506002839080600181540180825580915050600190039060005260206000200160009091909190916101000a81548173ffffffffffffffffffffffffffffffffffffffff021916908373ffffffffffffffffffffffffffffffffffffffff1602179055507fdf54227b669e96e69d8f583a07d577cb4081ab69c78dbcff8fce5af67e1ac54683604051808273ffffffffffffffffffffffffffffffffffffffff1673ffffffffffffffffffffffffffffffffffffffff16815260200191505060405180910390a150505050565b3373ffffffffffffffffffffffffffffffffffffffff166000809054906101000a900473ffffffffffffffffffffffffffffffffffffffff1673ffffffffffffffffffffffffffffffffffffffff16146200293d576040517f08c379a00000000000000000000000000000000000000000000000000000000081526004018080602001828103825260208152602001807f4f776e61626c653a2063616c6c6572206973206e6f7420746865206f776e657281525060200191505060405180910390fd5b600060028111156200294b57fe5b600660008373ffffffffffffffffffffffffffffffffffffffff1673ffffffffffffffffffffffffffffffffffffffff16815260200190815260200160002060000160009054906101000a900460ff166002811115620029a757fe5b141562002a1c576040517f08c379a00000000000000000000000000000000000000000000000000000000081526004018080602001828103825260138152602001807f5573657220646f6573206e6f742065786973740000000000000000000000000081525060200191505060405180910390fd5b6001600281111562002a2a57fe5b600660008373ffffffffffffffffffffffffffffffffffffffff1673ffffffffffffffffffffffffffffffffffffffff16815260200190815260200160002060000160009054906101000a900460ff16600281111562002a8657fe5b141562002af8576002600660008373ffffffffffffffffffffffffffffffffffffffff1673ffffffffffffffffffffffffffffffffffffffff16815260200190815260200160002060000160006101000a81548160ff0219169083600281111562002aed57fe5b021790555062002b5e565b6001600660008373ffffffffffffffffffffffffffffffffffffffff1673ffffffffffffffffffffffffffffffffffffffff16815260200190815260200160002060000160006101000a81548160ff0219169083600281111562002b5857fe5b02179055505b7f265ce5b4a01d5d792e85f3e35b7f36e9951dacac00dae63f48c9f813b9cc6d3081600660008473ffffffffffffffffffffffffffffffffffffffff1673ffffffffffffffffffffffffffffffffffffffff16815260200190815260200160002060000160009054906101000a900460ff16604051808373ffffffffffffffffffffffffffffffffffffffff1673ffffffffffffffffffffffffffffffffffffffff16815260200182600281111562002c1357fe5b60ff1681526020019250505060405180910390a150565b60603373ffffffffffffffffffffffffffffffffffffffff166000809054906101000a900473ffffffffffffffffffffffffffffffffffffffff1673ffffffffffffffffffffffffffffffffffffffff161462002cef576040517f08c379a00000000000000000000000000000000000000000000000000000000081526004018080602001828103825260208152602001807f4f776e61626c653a2063616c6c6572206973206e6f7420746865206f776e657281525060200191505060405180910390fd5b600280548060200260200160405190810160405280929190818152602001828054801562002d7357602002820191906000526020600020905b8160009054906101000a900473ffffffffffffffffffffffffffffffffffffffff1673ffffffffffffffffffffffffffffffffffffffff168152602001906001019080831162002d28575b5050505050905090565b6001818154811062002d8b57fe5b906000526020600020016000915054906101000a900473ffffffffffffffffffffffffffffffffffffffff1681565b3373ffffffffffffffffffffffffffffffffffffffff166000809054906101000a900473ffffffffffffffffffffffffffffffffffffffff1673ffffffffffffffffffffffffffffffffffffffff161462002e7d576040517f08c379a00000000000000000000000000000000000000000000000000000000081526004018080602001828103825260208152602001807f4f776e61626c653a2063616c6c6572206973206e6f7420746865206f776e657281525060200191505060405180910390fd5b600073ffffffffffffffffffffffffffffffffffffffff168173ffffffffffffffffffffffffffffffffffffffff16141562002f05576040517f08c379a0000000000000000000000000000000000000000000000000000000008152600401808060200182810382526026815260200180620042446026913960400191505060405180910390fd5b8073ffffffffffffffffffffffffffffffffffffffff166000809054906101000a900473ffffffffffffffffffffffffffffffffffffffff1673ffffffffffffffffffffffffffffffffffffffff167f8be0079c531659141344cd1fd0a4f28419497f9722a3daafe3b4186f6b6457e060405160405180910390a3806000806101000a81548173ffffffffffffffffffffffffffffffffffffffff021916908373ffffffffffffffffffffffffffffffffffffffff16021790555050565b6110ee806200315683390190565b828054600181600116156101000203166002900490600052602060002090601f016020900481019282601f106200301457805160ff191683800117855562003045565b8280016001018555821562003045579182015b828111156200304457825182559160200191906001019062003027565b5b509050620030549190620030e7565b5090565b828054828255906000526020600020908101928215620030d4579160200282015b82811115620030d35782518260006101000a81548173ffffffffffffffffffffffffffffffffffffffff021916908373ffffffffffffffffffffffffffffffffffffffff1602179055509160200191906001019062003079565b5b509050620030e391906200310f565b5090565b6200310c91905b8082111562003108576000816000905550600101620030ee565b5090565b90565b6200315291905b808211156200314e57600081816101000a81549073ffffffffffffffffffffffffffffffffffffffff02191690555060010162003116565b5090565b9056fe60806040523480156200001157600080fd5b50604051620010ee380380620010ee833981810160405260608110156200003757600080fd5b8101908080519060200190929190805160405193929190846401000000008211156200006257600080fd5b838201915060208201858111156200007957600080fd5b82518660018202830111640100000000821117156200009757600080fd5b8083526020830192505050908051906020019080838360005b83811015620000cd578082015181840152602081019050620000b0565b50505050905090810190601f168015620000fb5780820380516001836020036101000a031916815260200191505b506040526020018051906020019092919050505082600160006101000a81548173ffffffffffffffffffffffffffffffffffffffff021916908373ffffffffffffffffffffffffffffffffffffffff160217905550816000908051906020019062000168929190620001b3565b5080600260006101000a81548173ffffffffffffffffffffffffffffffffffffffff021916908373ffffffffffffffffffffffffffffffffffffffff16021790555050505062000262565b828054600181600116156101000203166002900490600052602060002090601f016020900481019282601f10620001f657805160ff191683800117855562000227565b8280016001018555821562000227579182015b828111156200022657825182559160200191906001019062000209565b5b5090506200023691906200023a565b5090565b6200025f91905b808211156200025b57600081600090555060010162000241565b5090565b90565b610e7c80620002726000396000f3fe608060405234801561001057600080fd5b506004361061004c5760003560e01c80636d67052314610051578063b10d6b41146101d3578063cdee934e146103cc578063fbbf93a01461040e575b600080fd5b6101d1600480360360a081101561006757600080fd5b810190808035906020019064010000000081111561008457600080fd5b82018360208201111561009657600080fd5b803590602001918460018302840111640100000000831117156100b857600080fd5b909192939192939080359060200190929190803590602001906401000000008111156100e357600080fd5b8201836020820111156100f557600080fd5b8035906020019184600183028401116401000000008311171561011757600080fd5b90919293919293908035906020019064010000000081111561013857600080fd5b82018360208201111561014a57600080fd5b8035906020019184600183028401116401000000008311171561016c57600080fd5b90919293919293908035906020019064010000000081111561018d57600080fd5b82018360208201111561019f57600080fd5b803590602001918460018302840111640100000000831117156101c157600080fd5b909192939192939050505061053f565b005b6101ff600480360360208110156101e957600080fd5b81019080803590602001909291905050506108a7565b604051808060200187815260200180602001806020018681526020018060200185810385528b818151815260200191508051906020019080838360005b8381101561025757808201518184015260208101905061023c565b50505050905090810190601f1680156102845780820380516001836020036101000a031916815260200191505b50858103845289818151815260200191508051906020019080838360005b838110156102bd5780820151818401526020810190506102a2565b50505050905090810190601f1680156102ea5780820380516001836020036101000a031916815260200191505b50858103835288818151815260200191508051906020019080838360005b83811015610323578082015181840152602081019050610308565b50505050905090810190601f1680156103505780820380516001836020036101000a031916815260200191505b50858103825286818151815260200191508051906020019080838360005b8381101561038957808201518184015260208101905061036e565b50505050905090810190601f1680156103b65780820380516001836020036101000a031916815260200191505b509a505050505050505050505060405180910390f35b6103f8600480360360208110156103e257600080fd5b8101908080359060200190929190505050610c34565b6040518082815260200191505060405180910390f35b610416610c55565b604051808573ffffffffffffffffffffffffffffffffffffffff1673ffffffffffffffffffffffffffffffffffffffff16815260200180602001806020018473ffffffffffffffffffffffffffffffffffffffff1673ffffffffffffffffffffffffffffffffffffffff168152602001838103835286818151815260200191508051906020019080838360005b838110156104be5780820151818401526020810190506104a3565b50505050905090810190601f1680156104eb5780820380516001836020036101000a031916815260200191505b50838103825285818151815260200191508051906020019060200280838360005b8381101561052757808201518184015260208101905061050c565b50505050905001965050505050505060405180910390f35b600160009054906101000a900473ffffffffffffffffffffffffffffffffffffffff1673ffffffffffffffffffffffffffffffffffffffff163373ffffffffffffffffffffffffffffffffffffffff16146105e5576040517f08c379a0000000000000000000000000000000000000000000000000000000008152600401808060200182810382526021815260200180610e266021913960400191505060405180910390fd5b6000600460008981526020019081526020016000206003015414610671576040517f08c379a00000000000000000000000000000000000000000000000000000000081526004018080602001828103825260188152602001807f446f63756d656e7420616c72656164792063726561746564000000000000000081525060200191505060405180910390fd5b6040518060a001604052808a8a8080601f016020809104026020016040519081016040528093929190818152602001838380828437600081840152601f19601f82011690508083019250505050505050815260200187878080601f016020809104026020016040519081016040528093929190818152602001838380828437600081840152601f19601f82011690508083019250505050505050815260200185858080601f016020809104026020016040519081016040528093929190818152602001838380828437600081840152601f19601f82011690508083019250505050505050815260200142815260200183838080601f016020809104026020016040519081016040528093929190818152602001838380828437600081840152601f19601f820116905080830192505050505050508152506004600089815260200190815260200160002060008201518160000190805190602001906107d7929190610d80565b5060208201518160010190805190602001906107f4929190610d80565b506040820151816002019080519060200190610811929190610d80565b50606082015181600301556080820151816004019080519060200190610838929190610d80565b5090505060038790806001815401808255809150506001900390600052602060002001600090919091909150557fe0d778ff3686f51abf4d7fafe1aaceba6989e018f37c26d928ad7567aa2e71cb876040518082815260200191505060405180910390a1505050505050505050565b606060006060806000606060006004600089815260200190815260200160002060030154141561093f576040517f08c379a00000000000000000000000000000000000000000000000000000000081526004018080602001828103825260178152602001807f446f63756d656e7420646f6573206e6f7420657869737400000000000000000081525060200191505060405180910390fd5b6004600088815260200190815260200160002060000187600460008a8152602001908152602001600020600101600460008b8152602001908152602001600020600201600460008c815260200190815260200160002060030154600460008d8152602001908152602001600020600401858054600181600116156101000203166002900480601f016020809104026020016040519081016040528092919081815260200182805460018160011615610100020316600290048015610a445780601f10610a1957610100808354040283529160200191610a44565b820191906000526020600020905b815481529060010190602001808311610a2757829003601f168201915b50505050509550838054600181600116156101000203166002900480601f016020809104026020016040519081016040528092919081815260200182805460018160011615610100020316600290048015610ae05780601f10610ab557610100808354040283529160200191610ae0565b820191906000526020600020905b815481529060010190602001808311610ac357829003601f168201915b50505050509350828054600181600116156101000203166002900480601f016020809104026020016040519081016040528092919081815260200182805460018160011615610100020316600290048015610b7c5780601f10610b5157610100808354040283529160200191610b7c565b820191906000526020600020905b815481529060010190602001808311610b5f57829003601f168201915b50505050509250808054600181600116156101000203166002900480601f016020809104026020016040519081016040528092919081815260200182805460018160011615610100020316600290048015610c185780601f10610bed57610100808354040283529160200191610c18565b820191906000526020600020905b815481529060010190602001808311610bfb57829003601f168201915b5050505050905095509550955095509550955091939550919395565b60038181548110610c4157fe5b906000526020600020016000915090505481565b60006060806000600160009054906101000a900473ffffffffffffffffffffffffffffffffffffffff166000600330828054600181600116156101000203166002900480601f016020809104026020016040519081016040528092919081815260200182805460018160011615610100020316600290048015610d195780601f10610cee57610100808354040283529160200191610d19565b820191906000526020600020905b815481529060010190602001808311610cfc57829003601f168201915b5050505050925081805480602002602001604051908101604052809291908181526020018280548015610d6b57602002820191906000526020600020905b815481526020019060010190808311610d57575b50505050509150935093509350935090919293565b828054600181600116156101000203166002900490600052602060002090601f016020900481019282601f10610dc157805160ff1916838001178555610def565b82800160010185558215610def579182015b82811115610dee578251825591602001919060010190610dd3565b5b509050610dfc9190610e00565b5090565b610e2291905b80821115610e1e576000816000905550600101610e06565b5090565b9056fe53656e646572206973206e6f7420737570706c696572206f662070726f6a656374a2646970667358221220f3efd12aa694dc81d2aec04a99cd164cbb9f8133e40f24a73d4a9b3dbc20fedb64736f6c634300060000334f776e61626c653a206e6577206f776e657220697320746865207a65726f206164647265737350726f6a65637420646f6573206e6f74206578697374206f7220697320636c6f73656450726f6a65637420616c72656164792063726561746564206f7220636c6f736564557365722068617320746f2062652061737369676e656420636c69656e74206f72206f776e6572a26469706673582212203252081f4125717c362dc05011d300d6d97d21d9b6ba14390a37e35ba201336b64736f6c63430006000033",
  "source": "// SPDX-License-Identifier: UNLICENSED\r\npragma solidity ^0.6.0;\r\n\r\nimport './Process.sol';\r\nimport './Ownable.sol';\r\n\r\n/// @title Main Contract for Nuclearis Track\r\n/// @author Sebastian A. Martinez\r\n/// @notice This contract is the main entrypoint for the Nuclearistrack Platform\r\ncontract NuclearPoE is Ownable {\r\n    enum State {Null, Created, Closed}\r\n    enum Type {Admin, Client, Supplier}\r\n\r\n    struct Project {\r\n        State status;\r\n        address clientAddress;\r\n        string title;\r\n        string purchaseOrder;\r\n        address[] processContracts;\r\n    }\r\n    struct User {\r\n        State status;\r\n        Type userType;\r\n        string name;\r\n    }\r\n\r\n    address[] public processContractsArray;\r\n    address[] private _users;\r\n    uint256[] public projectsArray;\r\n\r\n    mapping(address => uint256[]) public projectsByAddress;\r\n    mapping(address => address[]) public processesByAddress;\r\n    mapping(address => User) private _user;\r\n    mapping(uint256 => Project) private _project;\r\n\r\n    event CreateProject(uint256 id);\r\n    event CreateUser(address userAddress);\r\n    event CreateProcess(address processContractAddress);\r\n    event AssignProcess(uint256 project, address processContractAddress);\r\n    event AssignClient(uint256 project, address clientAddress);\r\n    event ToggleProjectStatus(uint256 id, State newState);\r\n    event ToggleUserStatus(address userAddress, State newState);\r\n\r\n    modifier onlyUser() {\r\n        require(\r\n            _user[msg.sender].status == State.Created,\r\n            'Sender is not whitelisted'\r\n        );\r\n        _;\r\n    }\r\n\r\n    constructor(string memory _name) public {\r\n        // Creates the admin _user, similar to an owner\r\n        _user[msg.sender] = User(State.Created, Type.Admin, _name);\r\n        _users.push(msg.sender);\r\n    }\r\n\r\n    /// @notice Creates a new project\r\n    /// @param _id Id of a new project\r\n    /// @param _title Title of new project\r\n    /// @param _purchaseOrder Purchase Order Id of project\r\n    function createProject(\r\n        uint256 _id,\r\n        string calldata _title,\r\n        string calldata _purchaseOrder\r\n    ) external onlyOwner {\r\n        require(\r\n            _project[_id].status == State.Null,\r\n            'Project already created or closed'\r\n        );\r\n\r\n        address[] memory processContracts = new address[](0);\r\n        _project[_id] = Project(\r\n            State.Created,\r\n            address(0),\r\n            _title,\r\n            _purchaseOrder,\r\n            processContracts\r\n        );\r\n        projectsArray.push(_id);\r\n\r\n        emit CreateProject(_id);\r\n    }\r\n\r\n    function assignClient(uint256 _id, address _client) external onlyOwner {\r\n        projectsByAddress[_client].push(_id);\r\n        _project[_id].clientAddress = _client;\r\n\r\n        emit AssignClient(_id, _client);\r\n    }\r\n\r\n    /// @notice Creates a new _user\r\n    /// @param _type Type of _user\r\n    /// @param _address Address of _user\r\n    /// @param _name Name of _user\r\n    function createUser(\r\n        Type _type,\r\n        address _address,\r\n        string calldata _name\r\n    ) external onlyOwner {\r\n        _user[_address] = User(State.Created, _type, _name);\r\n        _users.push(_address);\r\n\r\n        emit CreateUser(_address);\r\n    }\r\n\r\n    /// @notice Toggles a _user status\r\n    /// @param _address Address of _user to be toggled\r\n    function toggleUserStatus(address _address) external onlyOwner {\r\n        require(_user[_address].status != State.Null, 'User does not exist');\r\n\r\n        if (_user[_address].status == State.Created)\r\n            _user[_address].status = State.Closed;\r\n        else _user[_address].status = State.Created;\r\n\r\n        emit ToggleUserStatus(_address, _user[_address].status);\r\n    }\r\n\r\n    /// @notice Creates a new process and deploys contract\r\n    /// @param _supplier Supplier Address\r\n    /// @param _processName Name of supplier of process\r\n    /// @param _processName Name of supplier of process\r\n    function createProcess(address _supplier, string calldata _processName)\r\n        external\r\n        onlyOwner\r\n    {\r\n        address processContractAddress = address(\r\n            new Process(_supplier, _processName, owner())\r\n        );\r\n        processesByAddress[_supplier].push(processContractAddress);\r\n        processContractsArray.push(processContractAddress);\r\n\r\n        emit CreateProcess(processContractAddress);\r\n    }\r\n\r\n    /// @notice Adds a process address to a specific project\r\n    /// @param _id The id of a project\r\n    /// @param _processContract The address of a process contract\r\n    function addProcessToProject(uint256 _id, address _processContract)\r\n        external\r\n        onlyOwner\r\n    {\r\n        require(\r\n            _project[_id].status == State.Created,\r\n            'Project does not exist or is closed'\r\n        );\r\n\r\n        _project[_id].processContracts.push(_processContract);\r\n\r\n        emit AssignProcess(_id, _processContract);\r\n    }\r\n\r\n    /// @notice Toggles a project status\r\n    /// @param _id The id of a project\r\n    function toggleProjectStatus(uint256 _id) external onlyOwner {\r\n        require(_project[_id].status != State.Null, 'Project does not exist');\r\n\r\n        if (_project[_id].status == State.Created)\r\n            _project[_id].status = State.Closed;\r\n        else _project[_id].status = State.Created;\r\n\r\n        emit ToggleProjectStatus(_id, _project[_id].status);\r\n    }\r\n\r\n    /// @notice Returns specific information about one _user\r\n    /// @param _address User Address\r\n    /// @return Type User Type (supplier or client)\r\n    /// @return string Name of _user\r\n    function getUser(address _address)\r\n        external\r\n        view\r\n        onlyUser\r\n        returns (\r\n            State,\r\n            Type,\r\n            string memory,\r\n            address\r\n        )\r\n    {\r\n        return (\r\n            _user[_address].status,\r\n            _user[_address].userType,\r\n            _user[_address].name,\r\n            _address\r\n        );\r\n    }\r\n\r\n    /// @notice Returns all saved _users\r\n    /// @return address[] Returns array of all created _users\r\n    function getAllUsers() external view onlyOwner returns (address[] memory) {\r\n        return _users;\r\n    }\r\n\r\n    /// @notice Returns all processes\r\n    /// @return address[] Array of all process contracts\r\n    function getProcessContractsByProject(uint256 _id)\r\n        external\r\n        view\r\n        returns (address[] memory)\r\n    {\r\n        require(\r\n            _project[_id].clientAddress == msg.sender || msg.sender == owner(),\r\n            'Project and Client do not match'\r\n        );\r\n        return _project[_id].processContracts;\r\n    }\r\n\r\n    /// @notice Returns processes assigned to a supplier\r\n    /// @return address[] Array of process contract addresses specified to a supplier\r\n    function getProcessesByAddress() external view returns (address[] memory) {\r\n        if (msg.sender == owner()) {\r\n            return processContractsArray;\r\n        } else {\r\n            return (processesByAddress[msg.sender]);\r\n        }\r\n    }\r\n\r\n    /// @notice Returns projects assigned to a client\r\n    /// @return uint256[] Array of projects ids specified to a client\r\n    function getProjectsByAddress() external view returns (uint256[] memory) {\r\n        if (msg.sender == owner()) {\r\n            return projectsArray;\r\n        } else {\r\n            return (projectsByAddress[msg.sender]);\r\n        }\r\n    }\r\n\r\n    /// @notice Returns details of a project id\r\n    /// @param _id The id of the project\r\n    /// @return status Current State of project\r\n    /// @return address Client assigned to project\r\n    /// @return string Title of project\r\n    /// @return string Purchase order of project\r\n    /// @return address[] Array of process contract addresses assigned to project\r\n    function getProjectDetails(uint256 _id)\r\n        external\r\n        view\r\n        returns (\r\n            State,\r\n            uint256,\r\n            address,\r\n            string memory,\r\n            string memory,\r\n            address[] memory\r\n        )\r\n    {\r\n        require(\r\n            msg.sender == _project[_id].clientAddress || msg.sender == owner(),\r\n            'User has to be assigned client or owner'\r\n        );\r\n        return (\r\n            _project[_id].status,\r\n            _id,\r\n            _project[_id].clientAddress,\r\n            _project[_id].title,\r\n            _project[_id].purchaseOrder,\r\n            _project[_id].processContracts\r\n        );\r\n    }\r\n}\r\n",
  "sourcePath": "C:\\Users\\smartinez.nuclearis\\Documents\\GitHub\\work\\poe\\src\\contracts\\NuclearPoE.sol",
  "compiler": {
    "name": "solc",
    "version": "0.6.0+commit.26b70077.Emscripten.clang"
  },
  "schemaVersion": "3.2.0",
  "updatedAt": "2020-07-21T13:30:20.028Z",
  "devdoc": {
    "author": "Sebastian A. Martinez",
    "methods": {
      "addProcessToProject(uint256,address)": {
        "params": {
          "_id": "The id of a project",
          "_processContract": "The address of a process contract"
        }
      },
      "createProcess(address,string)": {
        "params": {
          "_processName": "Name of supplier of process",
          "_supplier": "Supplier Address"
        }
      },
      "createProject(uint256,string,string)": {
        "params": {
          "_id": "Id of a new project",
          "_purchaseOrder": "Purchase Order Id of project",
          "_title": "Title of new project"
        }
      },
      "createUser(uint8,address,string)": {
        "params": {
          "_address": "Address of _user",
          "_name": "Name of _user",
          "_type": "Type of _user"
        }
      },
      "getProjectDetails(uint256)": {
        "params": {
          "_id": "The id of the project"
        },
        "returns": {
          "_0": "status Current State of project",
          "_1": "address Client assigned to project",
          "_2": "string Title of project",
          "_3": "string Purchase order of project",
          "_4": "address[] Array of process contract addresses assigned to project"
        }
      },
      "getUser(address)": {
        "params": {
          "_address": "User Address"
        },
        "returns": {
          "_0": "Type User Type (supplier or client)",
          "_1": "string Name of _user"
        }
      },
      "owner()": {
        "details": "Returns the address of the current owner."
      },
      "renounceOwnership()": {
        "details": "Leaves the contract without owner. It will not be possible to call `onlyOwner` functions anymore. Can only be called by the current owner.      * NOTE: Renouncing ownership will leave the contract without an owner, thereby removing any functionality that is only available to the owner."
      },
      "toggleProjectStatus(uint256)": {
        "params": {
          "_id": "The id of a project"
        }
      },
      "toggleUserStatus(address)": {
        "params": {
          "_address": "Address of _user to be toggled"
        }
      },
      "transferOwnership(address)": {
        "details": "Transfers ownership of the contract to a new account (`newOwner`). Can only be called by the current owner."
      }
    },
    "title": "Main Contract for Nuclearis Track"
  },
  "userdoc": {
    "methods": {
      "addProcessToProject(uint256,address)": {
        "notice": "Adds a process address to a specific project"
      },
      "createProcess(address,string)": {
        "notice": "Creates a new process and deploys contract"
      },
      "createProject(uint256,string,string)": {
        "notice": "Creates a new project"
      },
      "createUser(uint8,address,string)": {
        "notice": "Creates a new _user"
      },
      "getAllUsers()": {
        "notice": "Returns all saved _users"
      },
      "getProcessContractsByProject(uint256)": {
        "notice": "Returns all processes"
      },
      "getProcessesByAddress()": {
        "notice": "Returns processes assigned to a supplier"
      },
      "getProjectDetails(uint256)": {
        "notice": "Returns details of a project id"
      },
      "getProjectsByAddress()": {
        "notice": "Returns projects assigned to a client"
      },
      "getUser(address)": {
        "notice": "Returns specific information about one _user"
      },
      "toggleProjectStatus(uint256)": {
        "notice": "Toggles a project status"
      },
      "toggleUserStatus(address)": {
        "notice": "Toggles a _user status"
      }
    },
    "notice": "This contract is the main entrypoint for the Nuclearistrack Platform"
  }
}