{
  "contractName": "NuclearPoE",
  "abi": [
    {
      "inputs": [
        {
          "internalType": "bytes32",
          "name": "_name",
          "type": "bytes32"
        }
      ],
      "stateMutability": "nonpayable",
      "type": "constructor"
    },
    {
      "anonymous": false,
      "inputs": [
        {
          "indexed": false,
          "internalType": "uint256",
          "name": "project",
          "type": "uint256"
        },
        {
          "indexed": false,
          "internalType": "address",
          "name": "ProcessContractAddress",
          "type": "address"
        }
      ],
      "name": "AssignProcess",
      "type": "event"
    },
    {
      "anonymous": false,
      "inputs": [
        {
          "indexed": false,
          "internalType": "uint256",
          "name": "id",
          "type": "uint256"
        },
        {
          "indexed": false,
          "internalType": "enum NuclearPoE.State",
          "name": "newState",
          "type": "uint8"
        }
      ],
      "name": "ChangeProjectStatus",
      "type": "event"
    },
    {
      "anonymous": false,
      "inputs": [
        {
          "indexed": false,
          "internalType": "address",
          "name": "ProcessContractAddress",
          "type": "address"
        }
      ],
      "name": "CreateProcess",
      "type": "event"
    },
    {
      "anonymous": false,
      "inputs": [
        {
          "indexed": false,
          "internalType": "uint256",
          "name": "id",
          "type": "uint256"
        }
      ],
      "name": "CreateProject",
      "type": "event"
    },
    {
      "anonymous": false,
      "inputs": [
        {
          "indexed": false,
          "internalType": "address",
          "name": "userAddress",
          "type": "address"
        }
      ],
      "name": "CreateUser",
      "type": "event"
    },
    {
      "anonymous": false,
      "inputs": [
        {
          "indexed": true,
          "internalType": "address",
          "name": "previousOwner",
          "type": "address"
        },
        {
          "indexed": true,
          "internalType": "address",
          "name": "newOwner",
          "type": "address"
        }
      ],
      "name": "OwnershipTransferred",
      "type": "event"
    },
    {
      "inputs": [],
      "name": "owner",
      "outputs": [
        {
          "internalType": "address",
          "name": "",
          "type": "address"
        }
      ],
      "stateMutability": "view",
      "type": "function",
      "constant": true
    },
    {
      "inputs": [
        {
          "internalType": "uint256",
          "name": "",
          "type": "uint256"
        }
      ],
      "name": "processContractsArray",
      "outputs": [
        {
          "internalType": "address",
          "name": "",
          "type": "address"
        }
      ],
      "stateMutability": "view",
      "type": "function",
      "constant": true
    },
    {
      "inputs": [
        {
          "internalType": "address",
          "name": "",
          "type": "address"
        },
        {
          "internalType": "uint256",
          "name": "",
          "type": "uint256"
        }
      ],
      "name": "processesByAddress",
      "outputs": [
        {
          "internalType": "address",
          "name": "",
          "type": "address"
        }
      ],
      "stateMutability": "view",
      "type": "function",
      "constant": true
    },
    {
      "inputs": [
        {
          "internalType": "uint256",
          "name": "",
          "type": "uint256"
        }
      ],
      "name": "projectsArray",
      "outputs": [
        {
          "internalType": "uint256",
          "name": "",
          "type": "uint256"
        }
      ],
      "stateMutability": "view",
      "type": "function",
      "constant": true
    },
    {
      "inputs": [
        {
          "internalType": "address",
          "name": "",
          "type": "address"
        },
        {
          "internalType": "uint256",
          "name": "",
          "type": "uint256"
        }
      ],
      "name": "projectsByAddress",
      "outputs": [
        {
          "internalType": "uint256",
          "name": "",
          "type": "uint256"
        }
      ],
      "stateMutability": "view",
      "type": "function",
      "constant": true
    },
    {
      "inputs": [],
      "name": "renounceOwnership",
      "outputs": [],
      "stateMutability": "nonpayable",
      "type": "function"
    },
    {
      "inputs": [
        {
          "internalType": "address",
          "name": "newOwner",
          "type": "address"
        }
      ],
      "name": "transferOwnership",
      "outputs": [],
      "stateMutability": "nonpayable",
      "type": "function"
    },
    {
      "inputs": [
        {
          "internalType": "uint256",
          "name": "_id",
          "type": "uint256"
        },
        {
          "internalType": "address",
          "name": "_client",
          "type": "address"
        },
        {
          "internalType": "bytes32",
          "name": "_title",
          "type": "bytes32"
        },
        {
          "internalType": "bytes32",
          "name": "_purchaseOrder",
          "type": "bytes32"
        }
      ],
      "name": "createProject",
      "outputs": [],
      "stateMutability": "nonpayable",
      "type": "function"
    },
    {
      "inputs": [
        {
          "internalType": "enum NuclearPoE.Type",
          "name": "_type",
          "type": "uint8"
        },
        {
          "internalType": "address",
          "name": "_address",
          "type": "address"
        },
        {
          "internalType": "bytes32",
          "name": "_name",
          "type": "bytes32"
        }
      ],
      "name": "createUser",
      "outputs": [],
      "stateMutability": "nonpayable",
      "type": "function"
    },
    {
      "inputs": [
        {
          "internalType": "address",
          "name": "_address",
          "type": "address"
        }
      ],
      "name": "getUser",
      "outputs": [
        {
          "internalType": "enum NuclearPoE.State",
          "name": "",
          "type": "uint8"
        },
        {
          "internalType": "enum NuclearPoE.Type",
          "name": "",
          "type": "uint8"
        },
        {
          "internalType": "bytes32",
          "name": "",
          "type": "bytes32"
        },
        {
          "internalType": "address",
          "name": "",
          "type": "address"
        }
      ],
      "stateMutability": "view",
      "type": "function",
      "constant": true
    },
    {
      "inputs": [],
      "name": "getAllUsers",
      "outputs": [
        {
          "internalType": "address[]",
          "name": "",
          "type": "address[]"
        }
      ],
      "stateMutability": "view",
      "type": "function",
      "constant": true
    },
    {
      "inputs": [
        {
          "internalType": "address",
          "name": "_address",
          "type": "address"
        }
      ],
      "name": "changeUserStatus",
      "outputs": [],
      "stateMutability": "nonpayable",
      "type": "function"
    },
    {
      "inputs": [
        {
          "internalType": "address",
          "name": "_supplier",
          "type": "address"
        },
        {
          "internalType": "bytes32",
          "name": "_processName",
          "type": "bytes32"
        }
      ],
      "name": "createProcess",
      "outputs": [],
      "stateMutability": "nonpayable",
      "type": "function"
    },
    {
      "inputs": [
        {
          "internalType": "uint256",
          "name": "_id",
          "type": "uint256"
        },
        {
          "internalType": "address",
          "name": "_processContract",
          "type": "address"
        }
      ],
      "name": "addProcessToProject",
      "outputs": [],
      "stateMutability": "nonpayable",
      "type": "function"
    },
    {
      "inputs": [
        {
          "internalType": "uint256",
          "name": "_id",
          "type": "uint256"
        }
      ],
      "name": "changeProjectStatus",
      "outputs": [],
      "stateMutability": "nonpayable",
      "type": "function"
    },
    {
      "inputs": [],
      "name": "getAllProcessContracts",
      "outputs": [
        {
          "internalType": "address[]",
          "name": "",
          "type": "address[]"
        }
      ],
      "stateMutability": "view",
      "type": "function",
      "constant": true
    },
    {
      "inputs": [
        {
          "internalType": "uint256",
          "name": "_id",
          "type": "uint256"
        }
      ],
      "name": "getProcessContractsByProject",
      "outputs": [
        {
          "internalType": "address[]",
          "name": "",
          "type": "address[]"
        }
      ],
      "stateMutability": "view",
      "type": "function",
      "constant": true
    },
    {
      "inputs": [
        {
          "internalType": "address",
          "name": "_address",
          "type": "address"
        }
      ],
      "name": "getProcessesByAddress",
      "outputs": [
        {
          "internalType": "address[]",
          "name": "",
          "type": "address[]"
        }
      ],
      "stateMutability": "view",
      "type": "function",
      "constant": true
    },
    {
      "inputs": [
        {
          "internalType": "address",
          "name": "_address",
          "type": "address"
        }
      ],
      "name": "getProjectsByAddress",
      "outputs": [
        {
          "internalType": "uint256[]",
          "name": "",
          "type": "uint256[]"
        }
      ],
      "stateMutability": "view",
      "type": "function",
      "constant": true
    },
    {
      "inputs": [
        {
          "internalType": "uint256",
          "name": "_id",
          "type": "uint256"
        }
      ],
      "name": "getProjectDetails",
      "outputs": [
        {
          "internalType": "enum NuclearPoE.State",
          "name": "",
          "type": "uint8"
        },
        {
          "internalType": "address",
          "name": "",
          "type": "address"
        },
        {
          "internalType": "bytes32",
          "name": "",
          "type": "bytes32"
        },
        {
          "internalType": "bytes32",
          "name": "",
          "type": "bytes32"
        },
        {
          "internalType": "address[]",
          "name": "",
          "type": "address[]"
        }
      ],
      "stateMutability": "view",
      "type": "function",
      "constant": true
    }
  ],
  "bytecode": "0x60806040523480156200001157600080fd5b50604051620038f2380380620038f2833981810160405260208110156200003757600080fd5b810190808051906020019092919050505060006200005a6200023760201b60201c565b9050806000806101000a81548173ffffffffffffffffffffffffffffffffffffffff021916908373ffffffffffffffffffffffffffffffffffffffff1602179055508073ffffffffffffffffffffffffffffffffffffffff16600073ffffffffffffffffffffffffffffffffffffffff167f8be0079c531659141344cd1fd0a4f28419497f9722a3daafe3b4186f6b6457e060405160405180910390a3506040518060600160405280600160028111156200011157fe5b8152602001600060028111156200012457fe5b815260200182815250600660003373ffffffffffffffffffffffffffffffffffffffff1673ffffffffffffffffffffffffffffffffffffffff16815260200190815260200160002060008201518160000160006101000a81548160ff021916908360028111156200019157fe5b021790555060208201518160000160016101000a81548160ff02191690836002811115620001bb57fe5b0217905550604082015181600101559050506002339080600181540180825580915050600190039060005260206000200160009091909190916101000a81548173ffffffffffffffffffffffffffffffffffffffff021916908373ffffffffffffffffffffffffffffffffffffffff160217905550506200023f565b600033905090565b6136a3806200024f6000396000f3fe608060405234801561001057600080fd5b506004361061012c5760003560e01c806373f04d7f116100ad578063e2842d7911610071578063e2842d79146107a8578063e6c3993014610807578063f136229a14610875578063f2fde38b146108a3578063fb4e2c79146108e75761012c565b806373f04d7f146105bd57806375cae8c01461060b5780638da5cb5b1461066a578063d5842c8b146106b4578063d761ed931461074d5761012c565b806364b785fa116100f457806364b785fa146103f857806366c3e8611461043a5780636ccdd7461461049c5780636f77926b146104fe578063715018a6146105b35761012c565b80631c35c53f146101315780631da5e56f146101ca5780634cb7a7ba1461020e5780635c6db2811461029c5780635f8439e31461031f575b600080fd5b6101736004803603602081101561014757600080fd5b81019080803573ffffffffffffffffffffffffffffffffffffffff169060200190929190505050610935565b6040518080602001828103825283818151815260200191508051906020019060200280838360005b838110156101b657808201518184015260208101905061019b565b505050509050019250505060405180910390f35b61020c600480360360208110156101e057600080fd5b81019080803573ffffffffffffffffffffffffffffffffffffffff169060200190929190505050610adc565b005b61025a6004803603604081101561022457600080fd5b81019080803573ffffffffffffffffffffffffffffffffffffffff16906020019092919080359060200190929190505050610da2565b604051808273ffffffffffffffffffffffffffffffffffffffff1673ffffffffffffffffffffffffffffffffffffffff16815260200191505060405180910390f35b6102c8600480360360208110156102b257600080fd5b8101908080359060200190929190505050610ded565b6040518080602001828103825283818151815260200191508051906020019060200280838360005b8381101561030b5780820151818401526020810190506102f0565b505050509050019250505060405180910390f35b61034b6004803603602081101561033557600080fd5b8101908080359060200190929190505050610f73565b6040518086600281111561035b57fe5b60ff1681526020018573ffffffffffffffffffffffffffffffffffffffff1673ffffffffffffffffffffffffffffffffffffffff16815260200184815260200183815260200180602001828103825283818151815260200191508051906020019060200280838360005b838110156103e05780820151818401526020810190506103c5565b50505050905001965050505050505060405180910390f35b6104246004803603602081101561040e57600080fd5b81019080803590602001909291905050506111b3565b6040518082815260200191505060405180910390f35b61049a6004803603608081101561045057600080fd5b8101908080359060200190929190803573ffffffffffffffffffffffffffffffffffffffff16906020019092919080359060200190929190803590602001909291905050506111d4565b005b6104e8600480360360408110156104b257600080fd5b81019080803573ffffffffffffffffffffffffffffffffffffffff16906020019092919080359060200190929190505050611531565b6040518082815260200191505060405180910390f35b6105406004803603602081101561051457600080fd5b81019080803573ffffffffffffffffffffffffffffffffffffffff16906020019092919050505061155f565b6040518085600281111561055057fe5b60ff16815260200184600281111561056457fe5b60ff1681526020018381526020018273ffffffffffffffffffffffffffffffffffffffff1673ffffffffffffffffffffffffffffffffffffffff16815260200194505050505060405180910390f35b6105bb6117bf565b005b610609600480360360408110156105d357600080fd5b8101908080359060200190929190803573ffffffffffffffffffffffffffffffffffffffff169060200190929190505050611947565b005b610613611b88565b6040518080602001828103825283818151815260200191508051906020019060200280838360005b8381101561065657808201518184015260208101905061063b565b505050509050019250505060405180910390f35b610672611cdf565b604051808273ffffffffffffffffffffffffffffffffffffffff1673ffffffffffffffffffffffffffffffffffffffff16815260200191505060405180910390f35b6106f6600480360360208110156106ca57600080fd5b81019080803573ffffffffffffffffffffffffffffffffffffffff169060200190929190505050611d08565b6040518080602001828103825283818151815260200191508051906020019060200280838360005b8381101561073957808201518184015260208101905061071e565b505050509050019250505060405180910390f35b6107a66004803603606081101561076357600080fd5b81019080803560ff169060200190929190803573ffffffffffffffffffffffffffffffffffffffff16906020019092919080359060200190929190505050611eac565b005b6107b0612110565b6040518080602001828103825283818151815260200191508051906020019060200280838360005b838110156107f35780820151818401526020810190506107d8565b505050509050019250505060405180910390f35b6108336004803603602081101561081d57600080fd5b8101908080359060200190929190505050612267565b604051808273ffffffffffffffffffffffffffffffffffffffff1673ffffffffffffffffffffffffffffffffffffffff16815260200191505060405180910390f35b6108a16004803603602081101561088b57600080fd5b81019080803590602001909291905050506122a3565b005b6108e5600480360360208110156108b957600080fd5b81019080803573ffffffffffffffffffffffffffffffffffffffff169060200190929190505050612529565b005b610933600480360360408110156108fd57600080fd5b81019080803573ffffffffffffffffffffffffffffffffffffffff16906020019092919080359060200190929190505050612736565b005b606060028081111561094357fe5b600660003373ffffffffffffffffffffffffffffffffffffffff1673ffffffffffffffffffffffffffffffffffffffff16815260200190815260200160002060000160019054906101000a900460ff16600281111561099e57fe5b14610a11576040517f08c379a00000000000000000000000000000000000000000000000000000000081526004018080602001828103825260178152602001807f557365722068617320746f20626520737570706c69657200000000000000000081525060200191505060405180910390fd5b600560008373ffffffffffffffffffffffffffffffffffffffff1673ffffffffffffffffffffffffffffffffffffffff168152602001908152602001600020805480602002602001604051908101604052809291908181526020018280548015610ad057602002820191906000526020600020905b8160009054906101000a900473ffffffffffffffffffffffffffffffffffffffff1673ffffffffffffffffffffffffffffffffffffffff1681526020019060010190808311610a86575b50505050509050919050565b610ae46129d6565b73ffffffffffffffffffffffffffffffffffffffff166000809054906101000a900473ffffffffffffffffffffffffffffffffffffffff1673ffffffffffffffffffffffffffffffffffffffff1614610ba5576040517f08c379a00000000000000000000000000000000000000000000000000000000081526004018080602001828103825260208152602001807f4f776e61626c653a2063616c6c6572206973206e6f7420746865206f776e657281525060200191505060405180910390fd5b60016002811115610bb257fe5b600660008373ffffffffffffffffffffffffffffffffffffffff1673ffffffffffffffffffffffffffffffffffffffff16815260200190815260200160002060000160009054906101000a900460ff166002811115610c0d57fe5b14610c63576040517f08c379a00000000000000000000000000000000000000000000000000000000081526004018080602001828103825260288152602001806136256028913960400191505060405180910390fd5b60016002811115610c7057fe5b600660008373ffffffffffffffffffffffffffffffffffffffff1673ffffffffffffffffffffffffffffffffffffffff16815260200190815260200160002060000160009054906101000a900460ff166002811115610ccb57fe5b1415610d3a576002600660008373ffffffffffffffffffffffffffffffffffffffff1673ffffffffffffffffffffffffffffffffffffffff16815260200190815260200160002060000160006101000a81548160ff02191690836002811115610d3057fe5b0217905550610d9f565b6001600660008373ffffffffffffffffffffffffffffffffffffffff1673ffffffffffffffffffffffffffffffffffffffff16815260200190815260200160002060000160006101000a81548160ff02191690836002811115610d9957fe5b02179055505b50565b60056020528160005260406000208181548110610dbb57fe5b906000526020600020016000915091509054906101000a900473ffffffffffffffffffffffffffffffffffffffff1681565b606060016002811115610dfc57fe5b60066000610e086129d6565b73ffffffffffffffffffffffffffffffffffffffff1673ffffffffffffffffffffffffffffffffffffffff16815260200190815260200160002060000160019054906101000a900460ff166002811115610e5e57fe5b14610ed1576040517f08c379a00000000000000000000000000000000000000000000000000000000081526004018080602001828103825260158152602001807f557365722068617320746f20626520636c69656e74000000000000000000000081525060200191505060405180910390fd5b60076000838152602001908152602001600020600301805480602002602001604051908101604052809291908181526020018280548015610f6757602002820191906000526020600020905b8160009054906101000a900473ffffffffffffffffffffffffffffffffffffffff1673ffffffffffffffffffffffffffffffffffffffff1681526020019060010190808311610f1d575b50505050509050919050565b60008060008060606007600087815260200190815260200160002060000160019054906101000a900473ffffffffffffffffffffffffffffffffffffffff1673ffffffffffffffffffffffffffffffffffffffff16610fd06129d6565b73ffffffffffffffffffffffffffffffffffffffff1614806110245750610ff5611cdf565b73ffffffffffffffffffffffffffffffffffffffff163373ffffffffffffffffffffffffffffffffffffffff16145b611079576040517f08c379a000000000000000000000000000000000000000000000000000000000815260040180806020018281038252602781526020018061358a6027913960400191505060405180910390fd5b6007600087815260200190815260200160002060000160009054906101000a900460ff166007600088815260200190815260200160002060000160019054906101000a900473ffffffffffffffffffffffffffffffffffffffff166007600089815260200190815260200160002060010154600760008a815260200190815260200160002060020154600760008b81526020019081526020016000206003018080548060200260200160405190810160405280929190818152602001828054801561119957602002820191906000526020600020905b8160009054906101000a900473ffffffffffffffffffffffffffffffffffffffff1673ffffffffffffffffffffffffffffffffffffffff168152602001906001019080831161114f575b505050505090509450945094509450945091939590929450565b600381815481106111c057fe5b906000526020600020016000915090505481565b6111dc6129d6565b73ffffffffffffffffffffffffffffffffffffffff166000809054906101000a900473ffffffffffffffffffffffffffffffffffffffff1673ffffffffffffffffffffffffffffffffffffffff161461129d576040517f08c379a00000000000000000000000000000000000000000000000000000000081526004018080602001828103825260208152602001807f4f776e61626c653a2063616c6c6572206973206e6f7420746865206f776e657281525060200191505060405180910390fd5b600060028111156112aa57fe5b6007600086815260200190815260200160002060000160009054906101000a900460ff1660028111156112d957fe5b1461132f576040517f08c379a000000000000000000000000000000000000000000000000000000000815260040180806020018281038252602181526020018061364d6021913960400191505060405180910390fd5b606060006040519080825280602002602001820160405280156113615781602001602082028038833980820191505090505b5090506040518060a001604052806001600281111561137c57fe5b81526020018573ffffffffffffffffffffffffffffffffffffffff168152602001848152602001838152602001828152506007600087815260200190815260200160002060008201518160000160006101000a81548160ff021916908360028111156113e457fe5b021790555060208201518160000160016101000a81548173ffffffffffffffffffffffffffffffffffffffff021916908373ffffffffffffffffffffffffffffffffffffffff160217905550604082015181600101556060820151816002015560808201518160030190805190602001906114609291906129de565b50905050600460008573ffffffffffffffffffffffffffffffffffffffff1673ffffffffffffffffffffffffffffffffffffffff16815260200190815260200160002085908060018154018082558091505060019003906000526020600020016000909190919091505560038590806001815401808255809150506001900390600052602060002001600090919091909150557f2a5ab9ec691fb839007cf12d3897d875d6526e4abb4c51b9d7a0fc8a98d05fdd856040518082815260200191505060405180910390a15050505050565b6004602052816000526040600020818154811061154a57fe5b90600052602060002001600091509150505481565b6000806000806001600281111561157257fe5b600660003373ffffffffffffffffffffffffffffffffffffffff1673ffffffffffffffffffffffffffffffffffffffff16815260200190815260200160002060000160009054906101000a900460ff1660028111156115cd57fe5b14611640576040517f08c379a00000000000000000000000000000000000000000000000000000000081526004018080602001828103825260198152602001807f53656e646572206973206e6f742077686974656c69737465640000000000000081525060200191505060405180910390fd5b6001600281111561164d57fe5b600660008773ffffffffffffffffffffffffffffffffffffffff1673ffffffffffffffffffffffffffffffffffffffff16815260200190815260200160002060000160009054906101000a900460ff1660028111156116a857fe5b141561179f57600660008673ffffffffffffffffffffffffffffffffffffffff1673ffffffffffffffffffffffffffffffffffffffff16815260200190815260200160002060000160009054906101000a900460ff16600660008773ffffffffffffffffffffffffffffffffffffffff1673ffffffffffffffffffffffffffffffffffffffff16815260200190815260200160002060000160019054906101000a900460ff16600660008873ffffffffffffffffffffffffffffffffffffffff1673ffffffffffffffffffffffffffffffffffffffff168152602001908152602001600020600101548793509350935093506117b8565b600060016000808160001b915080905093509350935093505b9193509193565b6117c76129d6565b73ffffffffffffffffffffffffffffffffffffffff166000809054906101000a900473ffffffffffffffffffffffffffffffffffffffff1673ffffffffffffffffffffffffffffffffffffffff1614611888576040517f08c379a00000000000000000000000000000000000000000000000000000000081526004018080602001828103825260208152602001807f4f776e61626c653a2063616c6c6572206973206e6f7420746865206f776e657281525060200191505060405180910390fd5b600073ffffffffffffffffffffffffffffffffffffffff166000809054906101000a900473ffffffffffffffffffffffffffffffffffffffff1673ffffffffffffffffffffffffffffffffffffffff167f8be0079c531659141344cd1fd0a4f28419497f9722a3daafe3b4186f6b6457e060405160405180910390a360008060006101000a81548173ffffffffffffffffffffffffffffffffffffffff021916908373ffffffffffffffffffffffffffffffffffffffff160217905550565b61194f6129d6565b73ffffffffffffffffffffffffffffffffffffffff166000809054906101000a900473ffffffffffffffffffffffffffffffffffffffff1673ffffffffffffffffffffffffffffffffffffffff1614611a10576040517f08c379a00000000000000000000000000000000000000000000000000000000081526004018080602001828103825260208152602001807f4f776e61626c653a2063616c6c6572206973206e6f7420746865206f776e657281525060200191505060405180910390fd5b60016002811115611a1d57fe5b6007600084815260200190815260200160002060000160009054906101000a900460ff166002811115611a4c57fe5b14611aa2576040517f08c379a00000000000000000000000000000000000000000000000000000000081526004018080602001828103825260238152602001806136026023913960400191505060405180910390fd5b60076000838152602001908152602001600020600301819080600181540180825580915050600190039060005260206000200160009091909190916101000a81548173ffffffffffffffffffffffffffffffffffffffff021916908373ffffffffffffffffffffffffffffffffffffffff1602179055507f3692cddee3f850c6a39cfd231903164d5b29a337cad2a6763434d94a5ed4bb388282604051808381526020018273ffffffffffffffffffffffffffffffffffffffff1673ffffffffffffffffffffffffffffffffffffffff1681526020019250505060405180910390a15050565b6060611b926129d6565b73ffffffffffffffffffffffffffffffffffffffff166000809054906101000a900473ffffffffffffffffffffffffffffffffffffffff1673ffffffffffffffffffffffffffffffffffffffff1614611c53576040517f08c379a00000000000000000000000000000000000000000000000000000000081526004018080602001828103825260208152602001807f4f776e61626c653a2063616c6c6572206973206e6f7420746865206f776e657281525060200191505060405180910390fd5b6001805480602002602001604051908101604052809291908181526020018280548015611cd557602002820191906000526020600020905b8160009054906101000a900473ffffffffffffffffffffffffffffffffffffffff1673ffffffffffffffffffffffffffffffffffffffff1681526020019060010190808311611c8b575b5050505050905090565b60008060009054906101000a900473ffffffffffffffffffffffffffffffffffffffff16905090565b6060611d12611cdf565b73ffffffffffffffffffffffffffffffffffffffff163373ffffffffffffffffffffffffffffffffffffffff161415611d9d576003805480602002602001604051908101604052809291908181526020018280548015611d9157602002820191906000526020600020905b815481526020019060010190808311611d7d575b50505050509050611ea7565b60016002811115611daa57fe5b600660003373ffffffffffffffffffffffffffffffffffffffff1673ffffffffffffffffffffffffffffffffffffffff16815260200190815260200160002060000160019054906101000a900460ff166002811115611e0557fe5b1415611ea057600460008373ffffffffffffffffffffffffffffffffffffffff1673ffffffffffffffffffffffffffffffffffffffff168152602001908152602001600020805480602002602001604051908101604052809291908181526020018280548015611e9457602002820191906000526020600020905b815481526020019060010190808311611e80575b50505050509050611ea7565b6060809150505b919050565b611eb46129d6565b73ffffffffffffffffffffffffffffffffffffffff166000809054906101000a900473ffffffffffffffffffffffffffffffffffffffff1673ffffffffffffffffffffffffffffffffffffffff1614611f75576040517f08c379a00000000000000000000000000000000000000000000000000000000081526004018080602001828103825260208152602001807f4f776e61626c653a2063616c6c6572206973206e6f7420746865206f776e657281525060200191505060405180910390fd5b604051806060016040528060016002811115611f8d57fe5b8152602001846002811115611f9e57fe5b815260200182815250600660008473ffffffffffffffffffffffffffffffffffffffff1673ffffffffffffffffffffffffffffffffffffffff16815260200190815260200160002060008201518160000160006101000a81548160ff0219169083600281111561200a57fe5b021790555060208201518160000160016101000a81548160ff0219169083600281111561203357fe5b0217905550604082015181600101559050506002829080600181540180825580915050600190039060005260206000200160009091909190916101000a81548173ffffffffffffffffffffffffffffffffffffffff021916908373ffffffffffffffffffffffffffffffffffffffff1602179055507fdf54227b669e96e69d8f583a07d577cb4081ab69c78dbcff8fce5af67e1ac54682604051808273ffffffffffffffffffffffffffffffffffffffff1673ffffffffffffffffffffffffffffffffffffffff16815260200191505060405180910390a1505050565b606061211a6129d6565b73ffffffffffffffffffffffffffffffffffffffff166000809054906101000a900473ffffffffffffffffffffffffffffffffffffffff1673ffffffffffffffffffffffffffffffffffffffff16146121db576040517f08c379a00000000000000000000000000000000000000000000000000000000081526004018080602001828103825260208152602001807f4f776e61626c653a2063616c6c6572206973206e6f7420746865206f776e657281525060200191505060405180910390fd5b600280548060200260200160405190810160405280929190818152602001828054801561225d57602002820191906000526020600020905b8160009054906101000a900473ffffffffffffffffffffffffffffffffffffffff1673ffffffffffffffffffffffffffffffffffffffff1681526020019060010190808311612213575b5050505050905090565b6001818154811061227457fe5b906000526020600020016000915054906101000a900473ffffffffffffffffffffffffffffffffffffffff1681565b6122ab6129d6565b73ffffffffffffffffffffffffffffffffffffffff166000809054906101000a900473ffffffffffffffffffffffffffffffffffffffff1673ffffffffffffffffffffffffffffffffffffffff161461236c576040517f08c379a00000000000000000000000000000000000000000000000000000000081526004018080602001828103825260208152602001807f4f776e61626c653a2063616c6c6572206973206e6f7420746865206f776e657281525060200191505060405180910390fd5b6001600281111561237957fe5b6007600083815260200190815260200160002060000160009054906101000a900460ff1660028111156123a857fe5b146123fe576040517f08c379a000000000000000000000000000000000000000000000000000000000815260040180806020018281038252602b8152602001806135d7602b913960400191505060405180910390fd5b6001600281111561240b57fe5b6007600083815260200190815260200160002060000160009054906101000a900460ff16600281111561243a57fe5b141561247d5760026007600083815260200190815260200160002060000160006101000a81548160ff0219169083600281111561247357fe5b02179055506124b6565b60016007600083815260200190815260200160002060000160006101000a81548160ff021916908360028111156124b057fe5b02179055505b7f57fd5f07b64d688e5bfdf791cd8abb019a103207c23920d4b77873c6a2b9d312816007600084815260200190815260200160002060000160009054906101000a900460ff166040518083815260200182600281111561251257fe5b60ff1681526020019250505060405180910390a150565b6125316129d6565b73ffffffffffffffffffffffffffffffffffffffff166000809054906101000a900473ffffffffffffffffffffffffffffffffffffffff1673ffffffffffffffffffffffffffffffffffffffff16146125f2576040517f08c379a00000000000000000000000000000000000000000000000000000000081526004018080602001828103825260208152602001807f4f776e61626c653a2063616c6c6572206973206e6f7420746865206f776e657281525060200191505060405180910390fd5b600073ffffffffffffffffffffffffffffffffffffffff168173ffffffffffffffffffffffffffffffffffffffff161415612678576040517f08c379a00000000000000000000000000000000000000000000000000000000081526004018080602001828103825260268152602001806135b16026913960400191505060405180910390fd5b8073ffffffffffffffffffffffffffffffffffffffff166000809054906101000a900473ffffffffffffffffffffffffffffffffffffffff1673ffffffffffffffffffffffffffffffffffffffff167f8be0079c531659141344cd1fd0a4f28419497f9722a3daafe3b4186f6b6457e060405160405180910390a3806000806101000a81548173ffffffffffffffffffffffffffffffffffffffff021916908373ffffffffffffffffffffffffffffffffffffffff16021790555050565b61273e6129d6565b73ffffffffffffffffffffffffffffffffffffffff166000809054906101000a900473ffffffffffffffffffffffffffffffffffffffff1673ffffffffffffffffffffffffffffffffffffffff16146127ff576040517f08c379a00000000000000000000000000000000000000000000000000000000081526004018080602001828103825260208152602001807f4f776e61626c653a2063616c6c6572206973206e6f7420746865206f776e657281525060200191505060405180910390fd5b6000828260405161280f90612a68565b808373ffffffffffffffffffffffffffffffffffffffff1673ffffffffffffffffffffffffffffffffffffffff16815260200182815260200192505050604051809103906000f080158015612868573d6000803e3d6000fd5b509050600560008473ffffffffffffffffffffffffffffffffffffffff1673ffffffffffffffffffffffffffffffffffffffff168152602001908152602001600020819080600181540180825580915050600190039060005260206000200160009091909190916101000a81548173ffffffffffffffffffffffffffffffffffffffff021916908373ffffffffffffffffffffffffffffffffffffffff1602179055506001819080600181540180825580915050600190039060005260206000200160009091909190916101000a81548173ffffffffffffffffffffffffffffffffffffffff021916908373ffffffffffffffffffffffffffffffffffffffff1602179055507f908a1d72896b3c6e31c2e9ac8d65ae9676a54dd26195d4496442c50ff1b0b79781604051808273ffffffffffffffffffffffffffffffffffffffff1673ffffffffffffffffffffffffffffffffffffffff16815260200191505060405180910390a1505050565b600033905090565b828054828255906000526020600020908101928215612a57579160200282015b82811115612a565782518260006101000a81548173ffffffffffffffffffffffffffffffffffffffff021916908373ffffffffffffffffffffffffffffffffffffffff160217905550916020019190600101906129fe565b5b509050612a649190612a75565b5090565b610ad180612ab983390190565b612ab591905b80821115612ab157600081816101000a81549073ffffffffffffffffffffffffffffffffffffffff021916905550600101612a7b565b5090565b9056fe608060405234801561001057600080fd5b50604051610ad1380380610ad18339818101604052604081101561003357600080fd5b81019080805190602001909291908051906020019092919050505081600160006101000a81548173ffffffffffffffffffffffffffffffffffffffff021916908373ffffffffffffffffffffffffffffffffffffffff160217905550806000819055505050610a2a806100a76000396000f3fe608060405234801561001057600080fd5b506004361061004c5760003560e01c8063b00d2a1a14610051578063b10d6b411461013d578063cdee934e14610265578063fbbf93a0146102a7575b600080fd5b61013b600480360360a081101561006757600080fd5b810190808035906020019064010000000081111561008457600080fd5b82018360208201111561009657600080fd5b803590602001918460018302840111640100000000831117156100b857600080fd5b9091929391929390803590602001909291908035906020019092919080359060200190929190803590602001906401000000008111156100f757600080fd5b82018360208201111561010957600080fd5b8035906020019184600183028401116401000000008311171561012b57600080fd5b9091929391929390505050610373565b005b6101696004803603602081101561015357600080fd5b810190808035906020019092919050505061062b565b604051808060200186815260200185815260200184815260200180602001838103835288818151815260200191508051906020019080838360005b838110156101bf5780820151818401526020810190506101a4565b50505050905090810190601f1680156101ec5780820380516001836020036101000a031916815260200191505b50838103825284818151815260200191508051906020019080838360005b8381101561022557808201518184015260208101905061020a565b50505050905090810190601f1680156102525780820380516001836020036101000a031916815260200191505b5097505050505050505060405180910390f35b6102916004803603602081101561027b57600080fd5b810190808035906020019092919050505061087d565b6040518082815260200191505060405180910390f35b6102af61089e565b604051808573ffffffffffffffffffffffffffffffffffffffff1673ffffffffffffffffffffffffffffffffffffffff168152602001848152602001806020018373ffffffffffffffffffffffffffffffffffffffff1673ffffffffffffffffffffffffffffffffffffffff168152602001828103825284818151815260200191508051906020019060200280838360005b8381101561035c578082015181840152602081019050610341565b505050509050019550505050505060405180910390f35b600160009054906101000a900473ffffffffffffffffffffffffffffffffffffffff1673ffffffffffffffffffffffffffffffffffffffff163373ffffffffffffffffffffffffffffffffffffffff1614610419576040517f08c379a00000000000000000000000000000000000000000000000000000000081526004018080602001828103825260218152602001806109d46021913960400191505060405180910390fd5b60006003600087815260200190815260200160002060030154146104a5576040517f08c379a00000000000000000000000000000000000000000000000000000000081526004018080602001828103825260188152602001807f446f63756d656e7420616c72656164792063726561746564000000000000000081525060200191505060405180910390fd5b6040518060a0016040528088888080601f016020809104026020016040519081016040528093929190818152602001838380828437600081840152601f19601f82011690508083019250505050505050815260200185815260200184815260200142815260200183838080601f016020809104026020016040519081016040528093929190818152602001838380828437600081840152601f19601f8201169050808301925050505050505081525060036000878152602001908152602001600020600082015181600001908051906020019061058392919061092e565b5060208201518160010155604082015181600201556060820151816003015560808201518160040190805190602001906105be92919061092e565b5090505060028590806001815401808255809150506001900390600052602060002001600090919091909150557fe0d778ff3686f51abf4d7fafe1aaceba6989e018f37c26d928ad7567aa2e71cb856040518082815260200191505060405180910390a150505050505050565b6060600080600060606000600360008881526020019081526020016000206003015414156106c1576040517f08c379a00000000000000000000000000000000000000000000000000000000081526004018080602001828103825260178152602001807f446f63756d656e7420646f6573206e6f7420657869737400000000000000000081525060200191505060405180910390fd5b6003600087815260200190815260200160002060000160036000888152602001908152602001600020600101546003600089815260200190815260200160002060020154600360008a815260200190815260200160002060030154600360008b8152602001908152602001600020600401848054600181600116156101000203166002900480601f0160208091040260200160405190810160405280929190818152602001828054600181600116156101000203166002900480156107c75780601f1061079c576101008083540402835291602001916107c7565b820191906000526020600020905b8154815290600101906020018083116107aa57829003601f168201915b50505050509450808054600181600116156101000203166002900480601f0160208091040260200160405190810160405280929190818152602001828054600181600116156101000203166002900480156108635780601f1061083857610100808354040283529160200191610863565b820191906000526020600020905b81548152906001019060200180831161084657829003601f168201915b505050505090509450945094509450945091939590929450565b6002818154811061088a57fe5b906000526020600020016000915090505481565b60008060606000600160009054906101000a900473ffffffffffffffffffffffffffffffffffffffff166000546002308180548060200260200160405190810160405280929190818152602001828054801561091957602002820191906000526020600020905b815481526020019060010190808311610905575b50505050509150935093509350935090919293565b828054600181600116156101000203166002900490600052602060002090601f016020900481019282601f1061096f57805160ff191683800117855561099d565b8280016001018555821561099d579182015b8281111561099c578251825591602001919060010190610981565b5b5090506109aa91906109ae565b5090565b6109d091905b808211156109cc5760008160009055506001016109b4565b5090565b9056fe53656e646572206973206e6f7420737570706c696572206f662070726f6a656374a264697066735822122036e5805b4ae8da337723e67909eef804a8fe2850b42fb28e31029f7b32d741ee64736f6c63430006000033557365722068617320746f2062652061737369676e656420636c69656e74206f722061646d696e4f776e61626c653a206e6577206f776e657220697320746865207a65726f206164647265737350726f6a65637420646f6573206e6f74206578697374206f7220697320616c726561647920636c6f73656450726f6a65637420646f6573206e6f74206578697374206f7220697320636c6f7365645573657220646f6573206e6f74206578697374206f7220697320616c72656164792070617573656450726f6a65637420616c72656164792063726561746564206f7220636c6f736564a2646970667358221220452fe6dd42254c3dfe946b05ecc7cbd4fb5e135dfe67980ccf06797e045ec0a864736f6c63430006000033",
  "source": "// SPDX-License-Identifier: UNLICENSED\npragma solidity ^0.6.0;\n\nimport './Process.sol';\nimport './Ownable.sol';\n\n/// @title Main Contract for Nuclearis Track\n/// @author Sebastian A. Martinez\n/// @notice This contract is the main entrypoint for the Nuclearis Track Platform\ncontract NuclearPoE is Ownable {\n    enum State {Null, Created, Closed}\n    enum Type {Admin, Client, Supplier}\n\n    struct Project {\n        State status;\n        address clientAddress;\n        bytes32 title;\n        bytes32 purchaseOrder;\n        address[] processContracts;\n    }\n    struct User {\n        State status;\n        Type userType;\n        bytes32 name;\n    }\n\n    address[] public processContractsArray;\n    address[] private users;\n    uint256[] public projectsArray;\n\n    mapping(address => uint256[]) public projectsByAddress;\n    mapping(address => address[]) public processesByAddress;\n    mapping(address => User) private user;\n    mapping(uint256 => Project) private project;\n\n    event CreateProject(uint256 id);\n    event CreateUser(address userAddress);\n    event CreateProcess(address ProcessContractAddress);\n    event AssignProcess(uint256 project, address ProcessContractAddress);\n    event ChangeProjectStatus(uint256 id, State newState);\n\n    modifier onlyUser() {\n        require(\n            user[msg.sender].status == State.Created,\n            'Sender is not whitelisted'\n        );\n        _;\n    }\n\n    constructor(bytes32 _name) public {\n        // Creates the admin user, similar to an owner\n        user[msg.sender] = User(State.Created, Type.Admin, _name);\n        users.push(msg.sender);\n    }\n\n    /// @notice Creates a new project\n    /// @param _id Id of a new project\n    /// @param _client Address of client\n    /// @param _title Title of new project\n    /// @param _purchaseOrder Purchase Order Id of project\n    function createProject(\n        uint256 _id,\n        address _client,\n        bytes32 _title,\n        bytes32 _purchaseOrder\n    ) external onlyOwner {\n        require(\n            project[_id].status == State.Null,\n            'Project already created or closed'\n        );\n\n        address[] memory processContracts = new address[](0);\n        project[_id] = Project(\n            State.Created,\n            _client,\n            _title,\n            _purchaseOrder,\n            processContracts\n        );\n        projectsByAddress[_client].push(_id);\n        projectsArray.push(_id);\n\n        emit CreateProject(_id);\n    }\n\n    /// @notice Creates a new user\n    /// @param _type Type of user\n    /// @param _address Address of user\n    /// @param _name Name of user\n    function createUser(\n        Type _type,\n        address _address,\n        bytes32 _name\n    ) external onlyOwner {\n        user[_address] = User(State.Created, _type, _name);\n        users.push(_address);\n        emit CreateUser(_address);\n    }\n\n    /// @notice Returns specific information about one user\n    /// @param _address User Address\n    /// @return Type User Type (supplier or client)\n    /// @return bytes32 Name of user\n    function getUser(address _address)\n        external\n        view\n        onlyUser\n        returns (\n            State,\n            Type,\n            bytes32,\n            address\n        )\n    {\n        if (user[_address].status == State.Created)\n            return (\n                user[_address].status,\n                user[_address].userType,\n                user[_address].name,\n                _address\n            );\n        else return (State.Null, Type.Client, 0, address(0));\n    }\n\n    /// @notice Returns all saved users\n    /// @return address[] Returns array of all created users\n    function getAllUsers() external view onlyOwner returns (address[] memory) {\n        return users;\n    }\n\n    /// @notice Toggles a user status\n    /// @param _address Address of user to be toggled\n    function changeUserStatus(address _address) external onlyOwner {\n        require(\n            user[_address].status == State.Created,\n            'User does not exist or is already paused'\n        );\n\n        if (user[_address].status == State.Created)\n            user[_address].status = State.Closed;\n        else user[_address].status = State.Created;\n    }\n\n    /// @notice Creates a new process and deploys contract\n    /// @param _supplier Supplier Address\n    /// @param _processName Name of supplier of process\n    function createProcess(address _supplier, bytes32 _processName)\n        external\n        onlyOwner\n    {\n        address ProcessContractAddress = address(\n            new Process(_supplier, _processName)\n        );\n        processesByAddress[_supplier].push(ProcessContractAddress);\n        processContractsArray.push(ProcessContractAddress);\n\n        emit CreateProcess(ProcessContractAddress);\n    }\n\n    /// @notice Adds a process address to a specific project\n    /// @param _id The id of a project\n    /// @param _processContract The address of a process contract\n    function addProcessToProject(uint256 _id, address _processContract)\n        external\n        onlyOwner\n    {\n        require(\n            project[_id].status == State.Created,\n            'Project does not exist or is closed'\n        );\n\n        project[_id].processContracts.push(_processContract);\n\n        emit AssignProcess(_id, _processContract);\n    }\n\n    /// @notice Toggles a project status\n    /// @param _id The id of a project\n    function changeProjectStatus(uint256 _id) external onlyOwner {\n        require(\n            project[_id].status == State.Created,\n            'Project does not exist or is already closed'\n        );\n\n        if (project[_id].status == State.Created)\n            project[_id].status = State.Closed;\n        else project[_id].status = State.Created;\n\n        emit ChangeProjectStatus(_id, project[_id].status);\n    }\n\n    /// @notice Returns all process contract addresses\n    /// @return address[] Array of process contract addresses\n    function getAllProcessContracts()\n        external\n        view\n        onlyOwner\n        returns (address[] memory)\n    {\n        return processContractsArray;\n    }\n\n    /// @notice Returns all processes\n    /// @return address[] Array of all process contracts\n    function getProcessContractsByProject(uint256 _id)\n        external\n        view\n        returns (address[] memory)\n    {\n        require(\n            user[_msgSender()].userType == Type.Client,\n            'User has to be client'\n        );\n        return project[_id].processContracts;\n    }\n\n    /// @notice Returns processes assigned to a supplier\n    /// @param _address The address of the supplier\n    /// @return address[] Array of process contract addresses specified to a supplier\n    function getProcessesByAddress(address _address)\n        external\n        view\n        returns (address[] memory)\n    {\n        require(\n            user[msg.sender].userType == Type.Supplier,\n            'User has to be supplier'\n        );\n        return (processesByAddress[_address]);\n    }\n\n    /// @notice Returns projects assigned to a client\n    /// @param _address The address of the supplier\n    /// @return uint256[] Array of projects ids specified to a client\n    function getProjectsByAddress(address _address)\n        external\n        view\n        returns (uint256[] memory)\n    {\n        if(msg.sender == owner()) {\n            return projectsArray;\n        }\n        else if(user[msg.sender].userType == Type.Client) {\n            return (projectsByAddress[_address]);\n        }\n\n        else {\n            uint256[] memory empty;\n            return empty;\n        }\n    }\n\n    /// @notice Returns details of a project id\n    /// @param _id The id of the project\n    /// @return status Current State of project\n    /// @return address Client assigned to project\n    /// @return bytes32 Title of project\n    /// @return bytes32 Purchase order of project\n    /// @return address[] Array of process contract addresses assigned to project\n    function getProjectDetails(uint256 _id)\n        external\n        view\n        returns (\n            State,\n            address,\n            bytes32,\n            bytes32,\n            address[] memory\n        )\n    {\n        require(\n            _msgSender() == project[_id].clientAddress || msg.sender == owner(),\n            'User has to be assigned client or admin'\n        );\n        return (\n            project[_id].status,\n            project[_id].clientAddress,\n            project[_id].title,\n            project[_id].purchaseOrder,\n            project[_id].processContracts\n        );\n    }\n}\n",
  "sourcePath": "/Users/sebastinez/Documents/GitHub/work/poe/src/contracts/NuclearPoE.sol",
  "compiler": {
    "name": "solc",
    "version": "0.6.0+commit.26b70077.Emscripten.clang"
  },
  "schemaVersion": "3.0.23",
  "updatedAt": "2020-06-28T11:47:25.199Z",
  "networkType": "ethereum",
  "devdoc": {
    "author": "Sebastian A. Martinez",
    "methods": {
      "addProcessToProject(uint256,address)": {
        "params": {
          "_id": "The id of a project",
          "_processContract": "The address of a process contract"
        }
      },
      "changeProjectStatus(uint256)": {
        "params": {
          "_id": "The id of a project"
        }
      },
      "changeUserStatus(address)": {
        "params": {
          "_address": "Address of user to be toggled"
        }
      },
      "createProcess(address,bytes32)": {
        "params": {
          "_processName": "Name of supplier of process",
          "_supplier": "Supplier Address"
        }
      },
      "createProject(uint256,address,bytes32,bytes32)": {
        "params": {
          "_client": "Address of client",
          "_id": "Id of a new project",
          "_purchaseOrder": "Purchase Order Id of project",
          "_title": "Title of new project"
        }
      },
      "createUser(uint8,address,bytes32)": {
        "params": {
          "_address": "Address of user",
          "_name": "Name of user",
          "_type": "Type of user"
        }
      },
      "getProcessesByAddress(address)": {
        "params": {
          "_address": "The address of the supplier"
        },
        "returns": {
          "_0": "address[] Array of process contract addresses specified to a supplier"
        }
      },
      "getProjectDetails(uint256)": {
        "params": {
          "_id": "The id of the project"
        },
        "returns": {
          "_0": "status Current State of project",
          "_1": "address Client assigned to project",
          "_2": "bytes32 Title of project",
          "_3": "bytes32 Purchase order of project",
          "_4": "address[] Array of process contract addresses assigned to project"
        }
      },
      "getProjectsByAddress(address)": {
        "params": {
          "_address": "The address of the supplier"
        },
        "returns": {
          "_0": "uint256[] Array of projects ids specified to a client"
        }
      },
      "getUser(address)": {
        "params": {
          "_address": "User Address"
        },
        "returns": {
          "_0": "Type User Type (supplier or client)",
          "_1": "bytes32 Name of user"
        }
      },
      "owner()": {
        "details": "Returns the address of the current owner."
      },
      "renounceOwnership()": {
        "details": "Leaves the contract without owner. It will not be possible to call `onlyOwner` functions anymore. Can only be called by the current owner.     * NOTE: Renouncing ownership will leave the contract without an owner, thereby removing any functionality that is only available to the owner."
      },
      "transferOwnership(address)": {
        "details": "Transfers ownership of the contract to a new account (`newOwner`). Can only be called by the current owner."
      }
    },
    "title": "Main Contract for Nuclearis Track"
  },
  "userdoc": {
    "methods": {
      "addProcessToProject(uint256,address)": {
        "notice": "Adds a process address to a specific project"
      },
      "changeProjectStatus(uint256)": {
        "notice": "Toggles a project status"
      },
      "changeUserStatus(address)": {
        "notice": "Toggles a user status"
      },
      "createProcess(address,bytes32)": {
        "notice": "Creates a new process and deploys contract"
      },
      "createProject(uint256,address,bytes32,bytes32)": {
        "notice": "Creates a new project"
      },
      "createUser(uint8,address,bytes32)": {
        "notice": "Creates a new user"
      },
      "getAllProcessContracts()": {
        "notice": "Returns all process contract addresses"
      },
      "getAllUsers()": {
        "notice": "Returns all saved users"
      },
      "getProcessContractsByProject(uint256)": {
        "notice": "Returns all processes"
      },
      "getProcessesByAddress(address)": {
        "notice": "Returns processes assigned to a supplier"
      },
      "getProjectDetails(uint256)": {
        "notice": "Returns details of a project id"
      },
      "getProjectsByAddress(address)": {
        "notice": "Returns projects assigned to a client"
      },
      "getUser(address)": {
        "notice": "Returns specific information about one user"
      }
    },
    "notice": "This contract is the main entrypoint for the Nuclearis Track Platform"
  }
}