{
  "contractName": "NuclearPoE",
  "abi": [
    {
      "inputs": [
        {
          "internalType": "bytes32",
          "name": "_name",
          "type": "bytes32"
        }
      ],
      "stateMutability": "nonpayable",
      "type": "constructor"
    },
    {
      "anonymous": false,
      "inputs": [
        {
          "indexed": false,
          "internalType": "uint256",
          "name": "project",
          "type": "uint256"
        },
        {
          "indexed": false,
          "internalType": "address",
          "name": "ProcessContractAddress",
          "type": "address"
        }
      ],
      "name": "AssignProcess",
      "type": "event"
    },
    {
      "anonymous": false,
      "inputs": [
        {
          "indexed": false,
          "internalType": "address",
          "name": "ProcessContractAddress",
          "type": "address"
        }
      ],
      "name": "CreateProcess",
      "type": "event"
    },
    {
      "anonymous": false,
      "inputs": [
        {
          "indexed": false,
          "internalType": "uint256",
          "name": "id",
          "type": "uint256"
        }
      ],
      "name": "CreateProject",
      "type": "event"
    },
    {
      "anonymous": false,
      "inputs": [
        {
          "indexed": false,
          "internalType": "address",
          "name": "userAddress",
          "type": "address"
        }
      ],
      "name": "CreateUser",
      "type": "event"
    },
    {
      "anonymous": false,
      "inputs": [
        {
          "indexed": true,
          "internalType": "address",
          "name": "previousOwner",
          "type": "address"
        },
        {
          "indexed": true,
          "internalType": "address",
          "name": "newOwner",
          "type": "address"
        }
      ],
      "name": "OwnershipTransferred",
      "type": "event"
    },
    {
      "anonymous": false,
      "inputs": [
        {
          "indexed": false,
          "internalType": "uint256",
          "name": "id",
          "type": "uint256"
        },
        {
          "indexed": false,
          "internalType": "enum NuclearPoE.State",
          "name": "newState",
          "type": "uint8"
        }
      ],
      "name": "ToggleProjectStatus",
      "type": "event"
    },
    {
      "inputs": [],
      "name": "owner",
      "outputs": [
        {
          "internalType": "address",
          "name": "",
          "type": "address"
        }
      ],
      "stateMutability": "view",
      "type": "function",
      "constant": true
    },
    {
      "inputs": [
        {
          "internalType": "uint256",
          "name": "",
          "type": "uint256"
        }
      ],
      "name": "processContractsArray",
      "outputs": [
        {
          "internalType": "address",
          "name": "",
          "type": "address"
        }
      ],
      "stateMutability": "view",
      "type": "function",
      "constant": true
    },
    {
      "inputs": [
        {
          "internalType": "address",
          "name": "",
          "type": "address"
        },
        {
          "internalType": "uint256",
          "name": "",
          "type": "uint256"
        }
      ],
      "name": "processesByAddress",
      "outputs": [
        {
          "internalType": "address",
          "name": "",
          "type": "address"
        }
      ],
      "stateMutability": "view",
      "type": "function",
      "constant": true
    },
    {
      "inputs": [
        {
          "internalType": "uint256",
          "name": "",
          "type": "uint256"
        }
      ],
      "name": "projectsArray",
      "outputs": [
        {
          "internalType": "uint256",
          "name": "",
          "type": "uint256"
        }
      ],
      "stateMutability": "view",
      "type": "function",
      "constant": true
    },
    {
      "inputs": [
        {
          "internalType": "address",
          "name": "",
          "type": "address"
        },
        {
          "internalType": "uint256",
          "name": "",
          "type": "uint256"
        }
      ],
      "name": "projectsByAddress",
      "outputs": [
        {
          "internalType": "uint256",
          "name": "",
          "type": "uint256"
        }
      ],
      "stateMutability": "view",
      "type": "function",
      "constant": true
    },
    {
      "inputs": [],
      "name": "renounceOwnership",
      "outputs": [],
      "stateMutability": "nonpayable",
      "type": "function"
    },
    {
      "inputs": [
        {
          "internalType": "address",
          "name": "newOwner",
          "type": "address"
        }
      ],
      "name": "transferOwnership",
      "outputs": [],
      "stateMutability": "nonpayable",
      "type": "function"
    },
    {
      "inputs": [
        {
          "internalType": "uint256",
          "name": "_id",
          "type": "uint256"
        },
        {
          "internalType": "address",
          "name": "_client",
          "type": "address"
        },
        {
          "internalType": "bytes32",
          "name": "_title",
          "type": "bytes32"
        },
        {
          "internalType": "bytes32",
          "name": "_purchaseOrder",
          "type": "bytes32"
        }
      ],
      "name": "createProject",
      "outputs": [],
      "stateMutability": "nonpayable",
      "type": "function"
    },
    {
      "inputs": [
        {
          "internalType": "enum NuclearPoE.Type",
          "name": "_type",
          "type": "uint8"
        },
        {
          "internalType": "address",
          "name": "_address",
          "type": "address"
        },
        {
          "internalType": "bytes32",
          "name": "_name",
          "type": "bytes32"
        }
      ],
      "name": "createUser",
      "outputs": [],
      "stateMutability": "nonpayable",
      "type": "function"
    },
    {
      "inputs": [
        {
          "internalType": "address",
          "name": "_address",
          "type": "address"
        }
      ],
      "name": "getUser",
      "outputs": [
        {
          "internalType": "enum NuclearPoE.State",
          "name": "",
          "type": "uint8"
        },
        {
          "internalType": "enum NuclearPoE.Type",
          "name": "",
          "type": "uint8"
        },
        {
          "internalType": "bytes32",
          "name": "",
          "type": "bytes32"
        },
        {
          "internalType": "address",
          "name": "",
          "type": "address"
        }
      ],
      "stateMutability": "view",
      "type": "function",
      "constant": true
    },
    {
      "inputs": [],
      "name": "getAllUsers",
      "outputs": [
        {
          "internalType": "address[]",
          "name": "",
          "type": "address[]"
        }
      ],
      "stateMutability": "view",
      "type": "function",
      "constant": true
    },
    {
      "inputs": [
        {
          "internalType": "address",
          "name": "_address",
          "type": "address"
        }
      ],
      "name": "toggleUserStatus",
      "outputs": [],
      "stateMutability": "nonpayable",
      "type": "function"
    },
    {
      "inputs": [
        {
          "internalType": "address",
          "name": "_supplier",
          "type": "address"
        },
        {
          "internalType": "bytes32",
          "name": "_processName",
          "type": "bytes32"
        }
      ],
      "name": "createProcess",
      "outputs": [],
      "stateMutability": "nonpayable",
      "type": "function"
    },
    {
      "inputs": [
        {
          "internalType": "uint256",
          "name": "_id",
          "type": "uint256"
        },
        {
          "internalType": "address",
          "name": "_processContract",
          "type": "address"
        }
      ],
      "name": "addProcessToProject",
      "outputs": [],
      "stateMutability": "nonpayable",
      "type": "function"
    },
    {
      "inputs": [
        {
          "internalType": "uint256",
          "name": "_id",
          "type": "uint256"
        }
      ],
      "name": "toggleProjectStatus",
      "outputs": [],
      "stateMutability": "nonpayable",
      "type": "function"
    },
    {
      "inputs": [
        {
          "internalType": "uint256",
          "name": "_id",
          "type": "uint256"
        }
      ],
      "name": "getProcessContractsByProject",
      "outputs": [
        {
          "internalType": "address[]",
          "name": "",
          "type": "address[]"
        }
      ],
      "stateMutability": "view",
      "type": "function",
      "constant": true
    },
    {
      "inputs": [],
      "name": "getProcessesByAddress",
      "outputs": [
        {
          "internalType": "address[]",
          "name": "",
          "type": "address[]"
        }
      ],
      "stateMutability": "view",
      "type": "function",
      "constant": true
    },
    {
      "inputs": [],
      "name": "getProjectsByAddress",
      "outputs": [
        {
          "internalType": "uint256[]",
          "name": "",
          "type": "uint256[]"
        }
      ],
      "stateMutability": "view",
      "type": "function",
      "constant": true
    },
    {
      "inputs": [
        {
          "internalType": "uint256",
          "name": "_id",
          "type": "uint256"
        }
      ],
      "name": "getProjectDetails",
      "outputs": [
        {
          "internalType": "enum NuclearPoE.State",
          "name": "",
          "type": "uint8"
        },
        {
          "internalType": "uint256",
          "name": "",
          "type": "uint256"
        },
        {
          "internalType": "address",
          "name": "",
          "type": "address"
        },
        {
          "internalType": "bytes32",
          "name": "",
          "type": "bytes32"
        },
        {
          "internalType": "bytes32",
          "name": "",
          "type": "bytes32"
        },
        {
          "internalType": "address[]",
          "name": "",
          "type": "address[]"
        }
      ],
      "stateMutability": "view",
      "type": "function",
      "constant": true
    }
  ],
  "bytecode": "0x60806040523480156200001157600080fd5b50604051620036e2380380620036e2833981810160405260208110156200003757600080fd5b810190808051906020019092919050505060006200005a6200023760201b60201c565b9050806000806101000a81548173ffffffffffffffffffffffffffffffffffffffff021916908373ffffffffffffffffffffffffffffffffffffffff1602179055508073ffffffffffffffffffffffffffffffffffffffff16600073ffffffffffffffffffffffffffffffffffffffff167f8be0079c531659141344cd1fd0a4f28419497f9722a3daafe3b4186f6b6457e060405160405180910390a3506040518060600160405280600160028111156200011157fe5b8152602001600060028111156200012457fe5b815260200182815250600660003373ffffffffffffffffffffffffffffffffffffffff1673ffffffffffffffffffffffffffffffffffffffff16815260200190815260200160002060008201518160000160006101000a81548160ff021916908360028111156200019157fe5b021790555060208201518160000160016101000a81548160ff02191690836002811115620001bb57fe5b0217905550604082015181600101559050506002339080600181540180825580915050600190039060005260206000200160009091909190916101000a81548173ffffffffffffffffffffffffffffffffffffffff021916908373ffffffffffffffffffffffffffffffffffffffff160217905550506200023f565b600033905090565b613493806200024f6000396000f3fe608060405234801561001057600080fd5b50600436106101215760003560e01c8063715018a6116100ad578063d761ed9311610071578063d761ed93146106a4578063e2842d79146106ff578063e6c399301461075e578063f2fde38b146107cc578063fb4e2c791461081057610121565b8063715018a61461059057806373f04d7f1461059a5780638b8a417e146105e85780638da5cb5b14610616578063c70f07b41461066057610121565b806364b785fa116100f457806364b785fa1461037657806366c3e861146103b85780636ccdd7461461041a5780636f77926b1461047c57806371198eb61461053157610121565b80634cb7a7ba146101265780635231de83146101b45780635c6db281146102135780635f8439e314610296575b600080fd5b6101726004803603604081101561013c57600080fd5b81019080803573ffffffffffffffffffffffffffffffffffffffff1690602001909291908035906020019092919050505061085e565b604051808273ffffffffffffffffffffffffffffffffffffffff1673ffffffffffffffffffffffffffffffffffffffff16815260200191505060405180910390f35b6101bc6108a9565b6040518080602001828103825283818151815260200191508051906020019060200280838360005b838110156101ff5780820151818401526020810190506101e4565b505050509050019250505060405180910390f35b61023f6004803603602081101561022957600080fd5b81019080803590602001909291905050506109d2565b6040518080602001828103825283818151815260200191508051906020019060200280838360005b83811015610282578082015181840152602081019050610267565b505050509050019250505060405180910390f35b6102c2600480360360208110156102ac57600080fd5b8101908080359060200190929190505050610b8a565b604051808760028111156102d257fe5b60ff1681526020018681526020018573ffffffffffffffffffffffffffffffffffffffff1673ffffffffffffffffffffffffffffffffffffffff16815260200184815260200183815260200180602001828103825283818151815260200191508051906020019060200280838360005b8381101561035d578082015181840152602081019050610342565b5050505090500197505050505050505060405180910390f35b6103a26004803603602081101561038c57600080fd5b8101908080359060200190929190505050610dc8565b6040518082815260200191505060405180910390f35b610418600480360360808110156103ce57600080fd5b8101908080359060200190929190803573ffffffffffffffffffffffffffffffffffffffff1690602001909291908035906020019092919080359060200190929190505050610de9565b005b6104666004803603604081101561043057600080fd5b81019080803573ffffffffffffffffffffffffffffffffffffffff16906020019092919080359060200190929190505050611146565b6040518082815260200191505060405180910390f35b6104be6004803603602081101561049257600080fd5b81019080803573ffffffffffffffffffffffffffffffffffffffff169060200190929190505050611174565b604051808560028111156104ce57fe5b60ff1681526020018460028111156104e257fe5b60ff1681526020018381526020018273ffffffffffffffffffffffffffffffffffffffff1673ffffffffffffffffffffffffffffffffffffffff16815260200194505050505060405180910390f35b6105396113d4565b6040518080602001828103825283818151815260200191508051906020019060200280838360005b8381101561057c578082015181840152602081019050610561565b505050509050019250505060405180910390f35b610598611569565b005b6105e6600480360360408110156105b057600080fd5b8101908080359060200190929190803573ffffffffffffffffffffffffffffffffffffffff1690602001909291905050506116f1565b005b610614600480360360208110156105fe57600080fd5b8101908080359060200190929190505050611932565b005b61061e611bd6565b604051808273ffffffffffffffffffffffffffffffffffffffff1673ffffffffffffffffffffffffffffffffffffffff16815260200191505060405180910390f35b6106a26004803603602081101561067657600080fd5b81019080803573ffffffffffffffffffffffffffffffffffffffff169060200190929190505050611bff565b005b6106fd600480360360608110156106ba57600080fd5b81019080803560ff169060200190929190803573ffffffffffffffffffffffffffffffffffffffff16906020019092919080359060200190929190505050611ee3565b005b610707612147565b6040518080602001828103825283818151815260200191508051906020019060200280838360005b8381101561074a57808201518184015260208101905061072f565b505050509050019250505060405180910390f35b61078a6004803603602081101561077457600080fd5b810190808035906020019092919050505061229e565b604051808273ffffffffffffffffffffffffffffffffffffffff1673ffffffffffffffffffffffffffffffffffffffff16815260200191505060405180910390f35b61080e600480360360208110156107e257600080fd5b81019080803573ffffffffffffffffffffffffffffffffffffffff1690602001909291905050506122da565b005b61085c6004803603604081101561082657600080fd5b81019080803573ffffffffffffffffffffffffffffffffffffffff169060200190929190803590602001909291905050506124e7565b005b6005602052816000526040600020818154811061087757fe5b906000526020600020016000915091509054906101000a900473ffffffffffffffffffffffffffffffffffffffff1681565b60606108b3611bd6565b73ffffffffffffffffffffffffffffffffffffffff163373ffffffffffffffffffffffffffffffffffffffff16141561093e57600380548060200260200160405190810160405280929190818152602001828054801561093257602002820191906000526020600020905b81548152602001906001019080831161091e575b505050505090506109cf565b600460003373ffffffffffffffffffffffffffffffffffffffff1673ffffffffffffffffffffffffffffffffffffffff1681526020019081526020016000208054806020026020016040519081016040528092919081815260200182805480156109c757602002820191906000526020600020905b8154815260200190600101908083116109b3575b505050505090505b90565b60603373ffffffffffffffffffffffffffffffffffffffff166007600084815260200190815260200160002060000160019054906101000a900473ffffffffffffffffffffffffffffffffffffffff1673ffffffffffffffffffffffffffffffffffffffff161480610a765750610a47611bd6565b73ffffffffffffffffffffffffffffffffffffffff163373ffffffffffffffffffffffffffffffffffffffff16145b610ae8576040517f08c379a000000000000000000000000000000000000000000000000000000000815260040180806020018281038252601f8152602001807f50726f6a65637420616e6420436c69656e7420646f206e6f74206d617463680081525060200191505060405180910390fd5b60076000838152602001908152602001600020600301805480602002602001604051908101604052809291908181526020018280548015610b7e57602002820191906000526020600020905b8160009054906101000a900473ffffffffffffffffffffffffffffffffffffffff1673ffffffffffffffffffffffffffffffffffffffff1681526020019060010190808311610b34575b50505050509050919050565b600080600080600060606007600088815260200190815260200160002060000160019054906101000a900473ffffffffffffffffffffffffffffffffffffffff1673ffffffffffffffffffffffffffffffffffffffff163373ffffffffffffffffffffffffffffffffffffffff161480610c365750610c07611bd6565b73ffffffffffffffffffffffffffffffffffffffff163373ffffffffffffffffffffffffffffffffffffffff16145b610c8b576040517f08c379a00000000000000000000000000000000000000000000000000000000081526004018080602001828103825260278152602001806134376027913960400191505060405180910390fd5b6007600088815260200190815260200160002060000160009054906101000a900460ff1687600760008a815260200190815260200160002060000160019054906101000a900473ffffffffffffffffffffffffffffffffffffffff16600760008b815260200190815260200160002060010154600760008c815260200190815260200160002060020154600760008d815260200190815260200160002060030180805480602002602001604051908101604052809291908181526020018280548015610dac57602002820191906000526020600020905b8160009054906101000a900473ffffffffffffffffffffffffffffffffffffffff1673ffffffffffffffffffffffffffffffffffffffff1681526020019060010190808311610d62575b5050505050905095509550955095509550955091939550919395565b60038181548110610dd557fe5b906000526020600020016000915090505481565b610df16127c2565b73ffffffffffffffffffffffffffffffffffffffff166000809054906101000a900473ffffffffffffffffffffffffffffffffffffffff1673ffffffffffffffffffffffffffffffffffffffff1614610eb2576040517f08c379a00000000000000000000000000000000000000000000000000000000081526004018080602001828103825260208152602001807f4f776e61626c653a2063616c6c6572206973206e6f7420746865206f776e657281525060200191505060405180910390fd5b60006002811115610ebf57fe5b6007600086815260200190815260200160002060000160009054906101000a900460ff166002811115610eee57fe5b14610f44576040517f08c379a00000000000000000000000000000000000000000000000000000000081526004018080602001828103825260218152602001806134166021913960400191505060405180910390fd5b60606000604051908082528060200260200182016040528015610f765781602001602082028038833980820191505090505b5090506040518060a0016040528060016002811115610f9157fe5b81526020018573ffffffffffffffffffffffffffffffffffffffff168152602001848152602001838152602001828152506007600087815260200190815260200160002060008201518160000160006101000a81548160ff02191690836002811115610ff957fe5b021790555060208201518160000160016101000a81548173ffffffffffffffffffffffffffffffffffffffff021916908373ffffffffffffffffffffffffffffffffffffffff160217905550604082015181600101556060820151816002015560808201518160030190805190602001906110759291906127ca565b50905050600460008573ffffffffffffffffffffffffffffffffffffffff1673ffffffffffffffffffffffffffffffffffffffff16815260200190815260200160002085908060018154018082558091505060019003906000526020600020016000909190919091505560038590806001815401808255809150506001900390600052602060002001600090919091909150557f2a5ab9ec691fb839007cf12d3897d875d6526e4abb4c51b9d7a0fc8a98d05fdd856040518082815260200191505060405180910390a15050505050565b6004602052816000526040600020818154811061115f57fe5b90600052602060002001600091509150505481565b6000806000806001600281111561118757fe5b600660003373ffffffffffffffffffffffffffffffffffffffff1673ffffffffffffffffffffffffffffffffffffffff16815260200190815260200160002060000160009054906101000a900460ff1660028111156111e257fe5b14611255576040517f08c379a00000000000000000000000000000000000000000000000000000000081526004018080602001828103825260198152602001807f53656e646572206973206e6f742077686974656c69737465640000000000000081525060200191505060405180910390fd5b6001600281111561126257fe5b600660008773ffffffffffffffffffffffffffffffffffffffff1673ffffffffffffffffffffffffffffffffffffffff16815260200190815260200160002060000160009054906101000a900460ff1660028111156112bd57fe5b14156113b457600660008673ffffffffffffffffffffffffffffffffffffffff1673ffffffffffffffffffffffffffffffffffffffff16815260200190815260200160002060000160009054906101000a900460ff16600660008773ffffffffffffffffffffffffffffffffffffffff1673ffffffffffffffffffffffffffffffffffffffff16815260200190815260200160002060000160019054906101000a900460ff16600660008873ffffffffffffffffffffffffffffffffffffffff1673ffffffffffffffffffffffffffffffffffffffff168152602001908152602001600020600101548793509350935093506113cd565b600060016000808160001b915080905093509350935093505b9193509193565b60606113de611bd6565b73ffffffffffffffffffffffffffffffffffffffff163373ffffffffffffffffffffffffffffffffffffffff16141561149f57600180548060200260200160405190810160405280929190818152602001828054801561149357602002820191906000526020600020905b8160009054906101000a900473ffffffffffffffffffffffffffffffffffffffff1673ffffffffffffffffffffffffffffffffffffffff1681526020019060010190808311611449575b50505050509050611566565b600560003373ffffffffffffffffffffffffffffffffffffffff1673ffffffffffffffffffffffffffffffffffffffff16815260200190815260200160002080548060200260200160405190810160405280929190818152602001828054801561155e57602002820191906000526020600020905b8160009054906101000a900473ffffffffffffffffffffffffffffffffffffffff1673ffffffffffffffffffffffffffffffffffffffff1681526020019060010190808311611514575b505050505090505b90565b6115716127c2565b73ffffffffffffffffffffffffffffffffffffffff166000809054906101000a900473ffffffffffffffffffffffffffffffffffffffff1673ffffffffffffffffffffffffffffffffffffffff1614611632576040517f08c379a00000000000000000000000000000000000000000000000000000000081526004018080602001828103825260208152602001807f4f776e61626c653a2063616c6c6572206973206e6f7420746865206f776e657281525060200191505060405180910390fd5b600073ffffffffffffffffffffffffffffffffffffffff166000809054906101000a900473ffffffffffffffffffffffffffffffffffffffff1673ffffffffffffffffffffffffffffffffffffffff167f8be0079c531659141344cd1fd0a4f28419497f9722a3daafe3b4186f6b6457e060405160405180910390a360008060006101000a81548173ffffffffffffffffffffffffffffffffffffffff021916908373ffffffffffffffffffffffffffffffffffffffff160217905550565b6116f96127c2565b73ffffffffffffffffffffffffffffffffffffffff166000809054906101000a900473ffffffffffffffffffffffffffffffffffffffff1673ffffffffffffffffffffffffffffffffffffffff16146117ba576040517f08c379a00000000000000000000000000000000000000000000000000000000081526004018080602001828103825260208152602001807f4f776e61626c653a2063616c6c6572206973206e6f7420746865206f776e657281525060200191505060405180910390fd5b600160028111156117c757fe5b6007600084815260200190815260200160002060000160009054906101000a900460ff1660028111156117f657fe5b1461184c576040517f08c379a00000000000000000000000000000000000000000000000000000000081526004018080602001828103825260238152602001806133f36023913960400191505060405180910390fd5b60076000838152602001908152602001600020600301819080600181540180825580915050600190039060005260206000200160009091909190916101000a81548173ffffffffffffffffffffffffffffffffffffffff021916908373ffffffffffffffffffffffffffffffffffffffff1602179055507f3692cddee3f850c6a39cfd231903164d5b29a337cad2a6763434d94a5ed4bb388282604051808381526020018273ffffffffffffffffffffffffffffffffffffffff1673ffffffffffffffffffffffffffffffffffffffff1681526020019250505060405180910390a15050565b61193a6127c2565b73ffffffffffffffffffffffffffffffffffffffff166000809054906101000a900473ffffffffffffffffffffffffffffffffffffffff1673ffffffffffffffffffffffffffffffffffffffff16146119fb576040517f08c379a00000000000000000000000000000000000000000000000000000000081526004018080602001828103825260208152602001807f4f776e61626c653a2063616c6c6572206973206e6f7420746865206f776e657281525060200191505060405180910390fd5b60006002811115611a0857fe5b6007600083815260200190815260200160002060000160009054906101000a900460ff166002811115611a3757fe5b1415611aab576040517f08c379a00000000000000000000000000000000000000000000000000000000081526004018080602001828103825260168152602001807f50726f6a65637420646f6573206e6f742065786973740000000000000000000081525060200191505060405180910390fd5b60016002811115611ab857fe5b6007600083815260200190815260200160002060000160009054906101000a900460ff166002811115611ae757fe5b1415611b2a5760026007600083815260200190815260200160002060000160006101000a81548160ff02191690836002811115611b2057fe5b0217905550611b63565b60016007600083815260200190815260200160002060000160006101000a81548160ff02191690836002811115611b5d57fe5b02179055505b7f5d1817f0324e15d9b2f28fd0374b935f9c8ecb961c916140425d4c2936ed17be816007600084815260200190815260200160002060000160009054906101000a900460ff1660405180838152602001826002811115611bbf57fe5b60ff1681526020019250505060405180910390a150565b60008060009054906101000a900473ffffffffffffffffffffffffffffffffffffffff16905090565b611c076127c2565b73ffffffffffffffffffffffffffffffffffffffff166000809054906101000a900473ffffffffffffffffffffffffffffffffffffffff1673ffffffffffffffffffffffffffffffffffffffff1614611cc8576040517f08c379a00000000000000000000000000000000000000000000000000000000081526004018080602001828103825260208152602001807f4f776e61626c653a2063616c6c6572206973206e6f7420746865206f776e657281525060200191505060405180910390fd5b60006002811115611cd557fe5b600660008373ffffffffffffffffffffffffffffffffffffffff1673ffffffffffffffffffffffffffffffffffffffff16815260200190815260200160002060000160009054906101000a900460ff166002811115611d3057fe5b1415611da4576040517f08c379a00000000000000000000000000000000000000000000000000000000081526004018080602001828103825260138152602001807f5573657220646f6573206e6f742065786973740000000000000000000000000081525060200191505060405180910390fd5b60016002811115611db157fe5b600660008373ffffffffffffffffffffffffffffffffffffffff1673ffffffffffffffffffffffffffffffffffffffff16815260200190815260200160002060000160009054906101000a900460ff166002811115611e0c57fe5b1415611e7b576002600660008373ffffffffffffffffffffffffffffffffffffffff1673ffffffffffffffffffffffffffffffffffffffff16815260200190815260200160002060000160006101000a81548160ff02191690836002811115611e7157fe5b0217905550611ee0565b6001600660008373ffffffffffffffffffffffffffffffffffffffff1673ffffffffffffffffffffffffffffffffffffffff16815260200190815260200160002060000160006101000a81548160ff02191690836002811115611eda57fe5b02179055505b50565b611eeb6127c2565b73ffffffffffffffffffffffffffffffffffffffff166000809054906101000a900473ffffffffffffffffffffffffffffffffffffffff1673ffffffffffffffffffffffffffffffffffffffff1614611fac576040517f08c379a00000000000000000000000000000000000000000000000000000000081526004018080602001828103825260208152602001807f4f776e61626c653a2063616c6c6572206973206e6f7420746865206f776e657281525060200191505060405180910390fd5b604051806060016040528060016002811115611fc457fe5b8152602001846002811115611fd557fe5b815260200182815250600660008473ffffffffffffffffffffffffffffffffffffffff1673ffffffffffffffffffffffffffffffffffffffff16815260200190815260200160002060008201518160000160006101000a81548160ff0219169083600281111561204157fe5b021790555060208201518160000160016101000a81548160ff0219169083600281111561206a57fe5b0217905550604082015181600101559050506002829080600181540180825580915050600190039060005260206000200160009091909190916101000a81548173ffffffffffffffffffffffffffffffffffffffff021916908373ffffffffffffffffffffffffffffffffffffffff1602179055507fdf54227b669e96e69d8f583a07d577cb4081ab69c78dbcff8fce5af67e1ac54682604051808273ffffffffffffffffffffffffffffffffffffffff1673ffffffffffffffffffffffffffffffffffffffff16815260200191505060405180910390a1505050565b60606121516127c2565b73ffffffffffffffffffffffffffffffffffffffff166000809054906101000a900473ffffffffffffffffffffffffffffffffffffffff1673ffffffffffffffffffffffffffffffffffffffff1614612212576040517f08c379a00000000000000000000000000000000000000000000000000000000081526004018080602001828103825260208152602001807f4f776e61626c653a2063616c6c6572206973206e6f7420746865206f776e657281525060200191505060405180910390fd5b600280548060200260200160405190810160405280929190818152602001828054801561229457602002820191906000526020600020905b8160009054906101000a900473ffffffffffffffffffffffffffffffffffffffff1673ffffffffffffffffffffffffffffffffffffffff168152602001906001019080831161224a575b5050505050905090565b600181815481106122ab57fe5b906000526020600020016000915054906101000a900473ffffffffffffffffffffffffffffffffffffffff1681565b6122e26127c2565b73ffffffffffffffffffffffffffffffffffffffff166000809054906101000a900473ffffffffffffffffffffffffffffffffffffffff1673ffffffffffffffffffffffffffffffffffffffff16146123a3576040517f08c379a00000000000000000000000000000000000000000000000000000000081526004018080602001828103825260208152602001807f4f776e61626c653a2063616c6c6572206973206e6f7420746865206f776e657281525060200191505060405180910390fd5b600073ffffffffffffffffffffffffffffffffffffffff168173ffffffffffffffffffffffffffffffffffffffff161415612429576040517f08c379a00000000000000000000000000000000000000000000000000000000081526004018080602001828103825260268152602001806133cd6026913960400191505060405180910390fd5b8073ffffffffffffffffffffffffffffffffffffffff166000809054906101000a900473ffffffffffffffffffffffffffffffffffffffff1673ffffffffffffffffffffffffffffffffffffffff167f8be0079c531659141344cd1fd0a4f28419497f9722a3daafe3b4186f6b6457e060405160405180910390a3806000806101000a81548173ffffffffffffffffffffffffffffffffffffffff021916908373ffffffffffffffffffffffffffffffffffffffff16021790555050565b6124ef6127c2565b73ffffffffffffffffffffffffffffffffffffffff166000809054906101000a900473ffffffffffffffffffffffffffffffffffffffff1673ffffffffffffffffffffffffffffffffffffffff16146125b0576040517f08c379a00000000000000000000000000000000000000000000000000000000081526004018080602001828103825260208152602001807f4f776e61626c653a2063616c6c6572206973206e6f7420746865206f776e657281525060200191505060405180910390fd5b600082826125bc611bd6565b6040516125c890612854565b808473ffffffffffffffffffffffffffffffffffffffff1673ffffffffffffffffffffffffffffffffffffffff1681526020018381526020018273ffffffffffffffffffffffffffffffffffffffff1673ffffffffffffffffffffffffffffffffffffffff1681526020019350505050604051809103906000f080158015612654573d6000803e3d6000fd5b509050600560008473ffffffffffffffffffffffffffffffffffffffff1673ffffffffffffffffffffffffffffffffffffffff168152602001908152602001600020819080600181540180825580915050600190039060005260206000200160009091909190916101000a81548173ffffffffffffffffffffffffffffffffffffffff021916908373ffffffffffffffffffffffffffffffffffffffff1602179055506001819080600181540180825580915050600190039060005260206000200160009091909190916101000a81548173ffffffffffffffffffffffffffffffffffffffff021916908373ffffffffffffffffffffffffffffffffffffffff1602179055507f908a1d72896b3c6e31c2e9ac8d65ae9676a54dd26195d4496442c50ff1b0b79781604051808273ffffffffffffffffffffffffffffffffffffffff1673ffffffffffffffffffffffffffffffffffffffff16815260200191505060405180910390a1505050565b600033905090565b828054828255906000526020600020908101928215612843579160200282015b828111156128425782518260006101000a81548173ffffffffffffffffffffffffffffffffffffffff021916908373ffffffffffffffffffffffffffffffffffffffff160217905550916020019190600101906127ea565b5b5090506128509190612861565b5090565b610b28806128a583390190565b6128a191905b8082111561289d57600081816101000a81549073ffffffffffffffffffffffffffffffffffffffff021916905550600101612867565b5090565b9056fe608060405234801561001057600080fd5b50604051610b28380380610b288339818101604052606081101561003357600080fd5b8101908080519060200190929190805190602001909291908051906020019092919050505082600160006101000a81548173ffffffffffffffffffffffffffffffffffffffff021916908373ffffffffffffffffffffffffffffffffffffffff1602179055508160008190555080600260006101000a81548173ffffffffffffffffffffffffffffffffffffffff021916908373ffffffffffffffffffffffffffffffffffffffff160217905550505050610a35806100f36000396000f3fe608060405234801561001057600080fd5b506004361061004c5760003560e01c8063b00d2a1a14610051578063b10d6b411461013d578063cdee934e1461026c578063fbbf93a0146102ae575b600080fd5b61013b600480360360a081101561006757600080fd5b810190808035906020019064010000000081111561008457600080fd5b82018360208201111561009657600080fd5b803590602001918460018302840111640100000000831117156100b857600080fd5b9091929391929390803590602001909291908035906020019092919080359060200190929190803590602001906401000000008111156100f757600080fd5b82018360208201111561010957600080fd5b8035906020019184600183028401116401000000008311171561012b57600080fd5b909192939192939050505061037a565b005b6101696004803603602081101561015357600080fd5b8101908080359060200190929190505050610632565b604051808060200187815260200186815260200185815260200184815260200180602001838103835289818151815260200191508051906020019080838360005b838110156101c55780820151818401526020810190506101aa565b50505050905090810190601f1680156101f25780820380516001836020036101000a031916815260200191505b50838103825284818151815260200191508051906020019080838360005b8381101561022b578082015181840152602081019050610210565b50505050905090810190601f1680156102585780820380516001836020036101000a031916815260200191505b509850505050505050505060405180910390f35b6102986004803603602081101561028257600080fd5b8101908080359060200190929190505050610888565b6040518082815260200191505060405180910390f35b6102b66108a9565b604051808573ffffffffffffffffffffffffffffffffffffffff1673ffffffffffffffffffffffffffffffffffffffff168152602001848152602001806020018373ffffffffffffffffffffffffffffffffffffffff1673ffffffffffffffffffffffffffffffffffffffff168152602001828103825284818151815260200191508051906020019060200280838360005b83811015610363578082015181840152602081019050610348565b505050509050019550505050505060405180910390f35b600160009054906101000a900473ffffffffffffffffffffffffffffffffffffffff1673ffffffffffffffffffffffffffffffffffffffff163373ffffffffffffffffffffffffffffffffffffffff1614610420576040517f08c379a00000000000000000000000000000000000000000000000000000000081526004018080602001828103825260218152602001806109df6021913960400191505060405180910390fd5b60006004600087815260200190815260200160002060030154146104ac576040517f08c379a00000000000000000000000000000000000000000000000000000000081526004018080602001828103825260188152602001807f446f63756d656e7420616c72656164792063726561746564000000000000000081525060200191505060405180910390fd5b6040518060a0016040528088888080601f016020809104026020016040519081016040528093929190818152602001838380828437600081840152601f19601f82011690508083019250505050505050815260200185815260200184815260200142815260200183838080601f016020809104026020016040519081016040528093929190818152602001838380828437600081840152601f19601f8201169050808301925050505050505081525060046000878152602001908152602001600020600082015181600001908051906020019061058a929190610939565b5060208201518160010155604082015181600201556060820151816003015560808201518160040190805190602001906105c5929190610939565b5090505060038590806001815401808255809150506001900390600052602060002001600090919091909150557fe0d778ff3686f51abf4d7fafe1aaceba6989e018f37c26d928ad7567aa2e71cb856040518082815260200191505060405180910390a150505050505050565b606060008060008060606000600460008981526020019081526020016000206003015414156106c9576040517f08c379a00000000000000000000000000000000000000000000000000000000081526004018080602001828103825260178152602001807f446f63756d656e7420646f6573206e6f7420657869737400000000000000000081525060200191505060405180910390fd5b6004600088815260200190815260200160002060000187600460008a815260200190815260200160002060010154600460008b815260200190815260200160002060020154600460008c815260200190815260200160002060030154600460008d8152602001908152602001600020600401858054600181600116156101000203166002900480601f0160208091040260200160405190810160405280929190818152602001828054600181600116156101000203166002900480156107d05780601f106107a5576101008083540402835291602001916107d0565b820191906000526020600020905b8154815290600101906020018083116107b357829003601f168201915b50505050509550808054600181600116156101000203166002900480601f01602080910402602001604051908101604052809291908181526020018280546001816001161561010002031660029004801561086c5780601f106108415761010080835404028352916020019161086c565b820191906000526020600020905b81548152906001019060200180831161084f57829003601f168201915b5050505050905095509550955095509550955091939550919395565b6003818154811061089557fe5b906000526020600020016000915090505481565b60008060606000600160009054906101000a900473ffffffffffffffffffffffffffffffffffffffff166000546003308180548060200260200160405190810160405280929190818152602001828054801561092457602002820191906000526020600020905b815481526020019060010190808311610910575b50505050509150935093509350935090919293565b828054600181600116156101000203166002900490600052602060002090601f016020900481019282601f1061097a57805160ff19168380011785556109a8565b828001600101855582156109a8579182015b828111156109a757825182559160200191906001019061098c565b5b5090506109b591906109b9565b5090565b6109db91905b808211156109d75760008160009055506001016109bf565b5090565b9056fe53656e646572206973206e6f7420737570706c696572206f662070726f6a656374a26469706673582212204abb7c00117df1deccb27f0b3daabbb689eb765b5dae1acacaa6b8c6924351e964736f6c634300060000334f776e61626c653a206e6577206f776e657220697320746865207a65726f206164647265737350726f6a65637420646f6573206e6f74206578697374206f7220697320636c6f73656450726f6a65637420616c72656164792063726561746564206f7220636c6f736564557365722068617320746f2062652061737369676e656420636c69656e74206f72206f776e6572a2646970667358221220696d36d9cc40c6bcdbd0e8143d40b37eb38605b68f3112f757df832a77ebe07864736f6c63430006000033",
  "source": "// SPDX-License-Identifier: UNLICENSED\r\npragma solidity ^0.6.0;\r\n\r\nimport './Process.sol';\r\nimport './Ownable.sol';\r\n\r\n/// @title Main Contract for Nuclearis Track\r\n/// @author Sebastian A. Martinez\r\n/// @notice This contract is the main entrypoint for the Nuclearis Track Platform\r\ncontract NuclearPoE is Ownable {\r\n    enum State {Null, Created, Closed}\r\n    enum Type {Admin, Client, Supplier}\r\n\r\n    struct Project {\r\n        State status;\r\n        address clientAddress;\r\n        bytes32 title;\r\n        bytes32 purchaseOrder;\r\n        address[] processContracts;\r\n    }\r\n    struct User {\r\n        State status;\r\n        Type userType;\r\n        bytes32 name;\r\n    }\r\n\r\n    address[] public processContractsArray;\r\n    address[] private users;\r\n    uint256[] public projectsArray;\r\n\r\n    mapping(address => uint256[]) public projectsByAddress;\r\n    mapping(address => address[]) public processesByAddress;\r\n    mapping(address => User) private user;\r\n    mapping(uint256 => Project) private project;\r\n\r\n    event CreateProject(uint256 id);\r\n    event CreateUser(address userAddress);\r\n    event CreateProcess(address ProcessContractAddress);\r\n    event AssignProcess(uint256 project, address ProcessContractAddress);\r\n    event ToggleProjectStatus(uint256 id, State newState);\r\n\r\n    modifier onlyUser() {\r\n        require(\r\n            user[msg.sender].status == State.Created,\r\n            'Sender is not whitelisted'\r\n        );\r\n        _;\r\n    }\r\n\r\n    constructor(bytes32 _name) public {\r\n        // Creates the admin user, similar to an owner\r\n        user[msg.sender] = User(State.Created, Type.Admin, _name);\r\n        users.push(msg.sender);\r\n    }\r\n\r\n    /// @notice Creates a new project\r\n    /// @param _id Id of a new project\r\n    /// @param _client Address of client\r\n    /// @param _title Title of new project\r\n    /// @param _purchaseOrder Purchase Order Id of project\r\n    function createProject(\r\n        uint256 _id,\r\n        address _client,\r\n        bytes32 _title,\r\n        bytes32 _purchaseOrder\r\n    ) external onlyOwner {\r\n        require(\r\n            project[_id].status == State.Null,\r\n            'Project already created or closed'\r\n        );\r\n\r\n        address[] memory processContracts = new address[](0);\r\n        project[_id] = Project(\r\n            State.Created,\r\n            _client,\r\n            _title,\r\n            _purchaseOrder,\r\n            processContracts\r\n        );\r\n        projectsByAddress[_client].push(_id);\r\n        projectsArray.push(_id);\r\n\r\n        emit CreateProject(_id);\r\n    }\r\n\r\n    /// @notice Creates a new user\r\n    /// @param _type Type of user\r\n    /// @param _address Address of user\r\n    /// @param _name Name of user\r\n    function createUser(\r\n        Type _type,\r\n        address _address,\r\n        bytes32 _name\r\n    ) external onlyOwner {\r\n        user[_address] = User(State.Created, _type, _name);\r\n        users.push(_address);\r\n        emit CreateUser(_address);\r\n    }\r\n\r\n    /// @notice Returns specific information about one user\r\n    /// @param _address User Address\r\n    /// @return Type User Type (supplier or client)\r\n    /// @return bytes32 Name of user\r\n    function getUser(address _address)\r\n        external\r\n        view\r\n        onlyUser\r\n        returns (\r\n            State,\r\n            Type,\r\n            bytes32,\r\n            address\r\n        )\r\n    {\r\n        if (user[_address].status == State.Created)\r\n            return (\r\n                user[_address].status,\r\n                user[_address].userType,\r\n                user[_address].name,\r\n                _address\r\n            );\r\n        else return (State.Null, Type.Client, 0, address(0));\r\n    }\r\n\r\n    /// @notice Returns all saved users\r\n    /// @return address[] Returns array of all created users\r\n    function getAllUsers() external view onlyOwner returns (address[] memory) {\r\n        return users;\r\n    }\r\n\r\n    /// @notice Toggles a user status\r\n    /// @param _address Address of user to be toggled\r\n    function toggleUserStatus(address _address) external onlyOwner {\r\n        require(user[_address].status != State.Null, 'User does not exist');\r\n\r\n        if (user[_address].status == State.Created)\r\n            user[_address].status = State.Closed;\r\n        else user[_address].status = State.Created;\r\n    }\r\n\r\n    /// @notice Creates a new process and deploys contract\r\n    /// @param _supplier Supplier Address\r\n    /// @param _processName Name of supplier of process\r\n    /// @param _processName Name of supplier of process\r\n    function createProcess(address _supplier, bytes32 _processName)\r\n        external\r\n        onlyOwner\r\n    {\r\n        address ProcessContractAddress = address(\r\n            new Process(_supplier, _processName, owner())\r\n        );\r\n        processesByAddress[_supplier].push(ProcessContractAddress);\r\n        processContractsArray.push(ProcessContractAddress);\r\n\r\n        emit CreateProcess(ProcessContractAddress);\r\n    }\r\n\r\n    /// @notice Adds a process address to a specific project\r\n    /// @param _id The id of a project\r\n    /// @param _processContract The address of a process contract\r\n    function addProcessToProject(uint256 _id, address _processContract)\r\n        external\r\n        onlyOwner\r\n    {\r\n        require(\r\n            project[_id].status == State.Created,\r\n            'Project does not exist or is closed'\r\n        );\r\n\r\n        project[_id].processContracts.push(_processContract);\r\n\r\n        emit AssignProcess(_id, _processContract);\r\n    }\r\n\r\n    /// @notice Toggles a project status\r\n    /// @param _id The id of a project\r\n    function toggleProjectStatus(uint256 _id) external onlyOwner {\r\n        require(project[_id].status != State.Null, 'Project does not exist');\r\n\r\n        if (project[_id].status == State.Created)\r\n            project[_id].status = State.Closed;\r\n        else project[_id].status = State.Created;\r\n\r\n        emit ToggleProjectStatus(_id, project[_id].status);\r\n    }\r\n\r\n    /// @notice Returns all processes\r\n    /// @return address[] Array of all process contracts\r\n    function getProcessContractsByProject(uint256 _id)\r\n        external\r\n        view\r\n        returns (address[] memory)\r\n    {\r\n        require(\r\n            project[_id].clientAddress == msg.sender || msg.sender == owner(),\r\n            'Project and Client do not match'\r\n        );\r\n        return project[_id].processContracts;\r\n    }\r\n\r\n    /// @notice Returns processes assigned to a supplier\r\n    /// @return address[] Array of process contract addresses specified to a supplier\r\n    function getProcessesByAddress() external view returns (address[] memory) {\r\n        if (msg.sender == owner()) {\r\n            return processContractsArray;\r\n        } else {\r\n            return (processesByAddress[msg.sender]);\r\n        }\r\n    }\r\n\r\n    /// @notice Returns projects assigned to a client\r\n    /// @return uint256[] Array of projects ids specified to a client\r\n    function getProjectsByAddress() external view returns (uint256[] memory) {\r\n        if (msg.sender == owner()) {\r\n            return projectsArray;\r\n        } else {\r\n            return (projectsByAddress[msg.sender]);\r\n        }\r\n    }\r\n\r\n    /// @notice Returns details of a project id\r\n    /// @param _id The id of the project\r\n    /// @return status Current State of project\r\n    /// @return address Client assigned to project\r\n    /// @return bytes32 Title of project\r\n    /// @return bytes32 Purchase order of project\r\n    /// @return address[] Array of process contract addresses assigned to project\r\n    function getProjectDetails(uint256 _id)\r\n        external\r\n        view\r\n        returns (\r\n            State,\r\n            uint256,\r\n            address,\r\n            bytes32,\r\n            bytes32,\r\n            address[] memory\r\n        )\r\n    {\r\n        require(\r\n            msg.sender == project[_id].clientAddress || msg.sender == owner(),\r\n            'User has to be assigned client or owner'\r\n        );\r\n        return (\r\n            project[_id].status,\r\n            _id,\r\n            project[_id].clientAddress,\r\n            project[_id].title,\r\n            project[_id].purchaseOrder,\r\n            project[_id].processContracts\r\n        );\r\n    }\r\n}\r\n",
  "sourcePath": "C:\\Users\\smartinez.nuclearis\\Documents\\GitHub\\work\\poe\\src\\contracts\\NuclearPoE.sol",
  "compiler": {
    "name": "solc",
    "version": "0.6.0+commit.26b70077.Emscripten.clang"
  },
  "schemaVersion": "3.2.0",
  "updatedAt": "2020-07-02T20:24:17.533Z",
  "networkType": "ethereum",
  "devdoc": {
    "author": "Sebastian A. Martinez",
    "methods": {
      "addProcessToProject(uint256,address)": {
        "params": {
          "_id": "The id of a project",
          "_processContract": "The address of a process contract"
        }
      },
      "createProcess(address,bytes32)": {
        "params": {
          "_processName": "Name of supplier of process",
          "_supplier": "Supplier Address"
        }
      },
      "createProject(uint256,address,bytes32,bytes32)": {
        "params": {
          "_client": "Address of client",
          "_id": "Id of a new project",
          "_purchaseOrder": "Purchase Order Id of project",
          "_title": "Title of new project"
        }
      },
      "createUser(uint8,address,bytes32)": {
        "params": {
          "_address": "Address of user",
          "_name": "Name of user",
          "_type": "Type of user"
        }
      },
      "getProjectDetails(uint256)": {
        "params": {
          "_id": "The id of the project"
        },
        "returns": {
          "_0": "status Current State of project",
          "_1": "address Client assigned to project",
          "_2": "bytes32 Title of project",
          "_3": "bytes32 Purchase order of project",
          "_4": "address[] Array of process contract addresses assigned to project"
        }
      },
      "getUser(address)": {
        "params": {
          "_address": "User Address"
        },
        "returns": {
          "_0": "Type User Type (supplier or client)",
          "_1": "bytes32 Name of user"
        }
      },
      "owner()": {
        "details": "Returns the address of the current owner."
      },
      "renounceOwnership()": {
        "details": "Leaves the contract without owner. It will not be possible to call `onlyOwner` functions anymore. Can only be called by the current owner.      * NOTE: Renouncing ownership will leave the contract without an owner, thereby removing any functionality that is only available to the owner."
      },
      "toggleProjectStatus(uint256)": {
        "params": {
          "_id": "The id of a project"
        }
      },
      "toggleUserStatus(address)": {
        "params": {
          "_address": "Address of user to be toggled"
        }
      },
      "transferOwnership(address)": {
        "details": "Transfers ownership of the contract to a new account (`newOwner`). Can only be called by the current owner."
      }
    },
    "title": "Main Contract for Nuclearis Track"
  },
  "userdoc": {
    "methods": {
      "addProcessToProject(uint256,address)": {
        "notice": "Adds a process address to a specific project"
      },
      "createProcess(address,bytes32)": {
        "notice": "Creates a new process and deploys contract"
      },
      "createProject(uint256,address,bytes32,bytes32)": {
        "notice": "Creates a new project"
      },
      "createUser(uint8,address,bytes32)": {
        "notice": "Creates a new user"
      },
      "getAllUsers()": {
        "notice": "Returns all saved users"
      },
      "getProcessContractsByProject(uint256)": {
        "notice": "Returns all processes"
      },
      "getProcessesByAddress()": {
        "notice": "Returns processes assigned to a supplier"
      },
      "getProjectDetails(uint256)": {
        "notice": "Returns details of a project id"
      },
      "getProjectsByAddress()": {
        "notice": "Returns projects assigned to a client"
      },
      "getUser(address)": {
        "notice": "Returns specific information about one user"
      },
      "toggleProjectStatus(uint256)": {
        "notice": "Toggles a project status"
      },
      "toggleUserStatus(address)": {
        "notice": "Toggles a user status"
      }
    },
    "notice": "This contract is the main entrypoint for the Nuclearis Track Platform"
  }
}