{
  "contractName": "Process",
  "abi": [
    {
      "inputs": [
        {
          "internalType": "address",
          "name": "_supplierAddress",
          "type": "address"
        },
        {
          "internalType": "bytes32",
          "name": "_processName",
          "type": "bytes32"
        },
        {
          "internalType": "address",
          "name": "_ownerAddress",
          "type": "address"
        }
      ],
      "stateMutability": "nonpayable",
      "type": "constructor"
    },
    {
      "anonymous": false,
      "inputs": [
        {
          "indexed": false,
          "internalType": "bytes32",
          "name": "hash",
          "type": "bytes32"
        }
      ],
      "name": "AddDocument",
      "type": "event"
    },
    {
      "inputs": [
        {
          "internalType": "uint256",
          "name": "",
          "type": "uint256"
        }
      ],
      "name": "allDocuments",
      "outputs": [
        {
          "internalType": "bytes32",
          "name": "",
          "type": "bytes32"
        }
      ],
      "stateMutability": "view",
      "type": "function"
    },
    {
      "inputs": [
        {
          "internalType": "string",
          "name": "_name",
          "type": "string"
        },
        {
          "internalType": "bytes32",
          "name": "_hash",
          "type": "bytes32"
        },
        {
          "internalType": "bytes32",
          "name": "_latitude",
          "type": "bytes32"
        },
        {
          "internalType": "bytes32",
          "name": "_longitude",
          "type": "bytes32"
        },
        {
          "internalType": "string",
          "name": "_comment",
          "type": "string"
        }
      ],
      "name": "addDocument",
      "outputs": [],
      "stateMutability": "nonpayable",
      "type": "function"
    },
    {
      "inputs": [
        {
          "internalType": "bytes32",
          "name": "_hash",
          "type": "bytes32"
        }
      ],
      "name": "getDocument",
      "outputs": [
        {
          "internalType": "string",
          "name": "",
          "type": "string"
        },
        {
          "internalType": "bytes32",
          "name": "",
          "type": "bytes32"
        },
        {
          "internalType": "bytes32",
          "name": "",
          "type": "bytes32"
        },
        {
          "internalType": "bytes32",
          "name": "",
          "type": "bytes32"
        },
        {
          "internalType": "uint256",
          "name": "",
          "type": "uint256"
        },
        {
          "internalType": "string",
          "name": "",
          "type": "string"
        }
      ],
      "stateMutability": "view",
      "type": "function"
    },
    {
      "inputs": [],
      "name": "getDetails",
      "outputs": [
        {
          "internalType": "address",
          "name": "",
          "type": "address"
        },
        {
          "internalType": "bytes32",
          "name": "",
          "type": "bytes32"
        },
        {
          "internalType": "bytes32[]",
          "name": "",
          "type": "bytes32[]"
        },
        {
          "internalType": "address",
          "name": "",
          "type": "address"
        }
      ],
      "stateMutability": "view",
      "type": "function"
    }
  ],
  "bytecode": "0x608060405234801561001057600080fd5b50604051610c4d380380610c4d8339818101604052606081101561003357600080fd5b8101908080519060200190929190805190602001909291908051906020019092919050505082600160006101000a81548173ffffffffffffffffffffffffffffffffffffffff021916908373ffffffffffffffffffffffffffffffffffffffff1602179055508160008190555080600260006101000a81548173ffffffffffffffffffffffffffffffffffffffff021916908373ffffffffffffffffffffffffffffffffffffffff160217905550505050610b5a806100f36000396000f3fe608060405234801561001057600080fd5b506004361061004c5760003560e01c8063b00d2a1a14610051578063b10d6b411461013d578063cdee934e1461026c578063fbbf93a0146102ae575b600080fd5b61013b600480360360a081101561006757600080fd5b810190808035906020019064010000000081111561008457600080fd5b82018360208201111561009657600080fd5b803590602001918460018302840111640100000000831117156100b857600080fd5b9091929391929390803590602001909291908035906020019092919080359060200190929190803590602001906401000000008111156100f757600080fd5b82018360208201111561010957600080fd5b8035906020019184600183028401116401000000008311171561012b57600080fd5b909192939192939050505061037a565b005b6101696004803603602081101561015357600080fd5b8101908080359060200190929190505050610632565b604051808060200187815260200186815260200185815260200184815260200180602001838103835289818151815260200191508051906020019080838360005b838110156101c55780820151818401526020810190506101aa565b50505050905090810190601f1680156101f25780820380516001836020036101000a031916815260200191505b50838103825284818151815260200191508051906020019080838360005b8381101561022b578082015181840152602081019050610210565b50505050905090810190601f1680156102585780820380516001836020036101000a031916815260200191505b509850505050505050505060405180910390f35b6102986004803603602081101561028257600080fd5b8101908080359060200190929190505050610888565b6040518082815260200191505060405180910390f35b6102b66108a9565b604051808573ffffffffffffffffffffffffffffffffffffffff1673ffffffffffffffffffffffffffffffffffffffff168152602001848152602001806020018373ffffffffffffffffffffffffffffffffffffffff1673ffffffffffffffffffffffffffffffffffffffff168152602001828103825284818151815260200191508051906020019060200280838360005b83811015610363578082015181840152602081019050610348565b505050509050019550505050505060405180910390f35b600160009054906101000a900473ffffffffffffffffffffffffffffffffffffffff1673ffffffffffffffffffffffffffffffffffffffff163373ffffffffffffffffffffffffffffffffffffffff1614610420576040517f08c379a0000000000000000000000000000000000000000000000000000000008152600401808060200182810382526021815260200180610add6021913960400191505060405180910390fd5b60006004600087815260200190815260200160002060030154146104ac576040517f08c379a00000000000000000000000000000000000000000000000000000000081526004018080602001828103825260188152602001807f446f63756d656e7420616c72656164792063726561746564000000000000000081525060200191505060405180910390fd5b6040518060a0016040528088888080601f016020809104026020016040519081016040528093929190818152602001838380828437600081840152601f19601f82011690508083019250505050505050815260200185815260200184815260200142815260200183838080601f016020809104026020016040519081016040528093929190818152602001838380828437600081840152601f19601f8201169050808301925050505050505081525060046000878152602001908152602001600020600082015181600001908051906020019061058a929190610a37565b5060208201518160010155604082015181600201556060820151816003015560808201518160040190805190602001906105c5929190610a37565b5090505060038590806001815401808255809150506001900390600052602060002001600090919091909150557fe0d778ff3686f51abf4d7fafe1aaceba6989e018f37c26d928ad7567aa2e71cb856040518082815260200191505060405180910390a150505050505050565b606060008060008060606000600460008981526020019081526020016000206003015414156106c9576040517f08c379a00000000000000000000000000000000000000000000000000000000081526004018080602001828103825260178152602001807f446f63756d656e7420646f6573206e6f7420657869737400000000000000000081525060200191505060405180910390fd5b6004600088815260200190815260200160002060000187600460008a815260200190815260200160002060010154600460008b815260200190815260200160002060020154600460008c815260200190815260200160002060030154600460008d8152602001908152602001600020600401858054600181600116156101000203166002900480601f0160208091040260200160405190810160405280929190818152602001828054600181600116156101000203166002900480156107d05780601f106107a5576101008083540402835291602001916107d0565b820191906000526020600020905b8154815290600101906020018083116107b357829003601f168201915b50505050509550808054600181600116156101000203166002900480601f01602080910402602001604051908101604052809291908181526020018280546001816001161561010002031660029004801561086c5780601f106108415761010080835404028352916020019161086c565b820191906000526020600020905b81548152906001019060200180831161084f57829003601f168201915b5050505050905095509550955095509550955091939550919395565b6003818154811061089557fe5b906000526020600020016000915090505481565b60008060606000600160009054906101000a900473ffffffffffffffffffffffffffffffffffffffff1673ffffffffffffffffffffffffffffffffffffffff163373ffffffffffffffffffffffffffffffffffffffff1614806109595750600260009054906101000a900473ffffffffffffffffffffffffffffffffffffffff1673ffffffffffffffffffffffffffffffffffffffff163373ffffffffffffffffffffffffffffffffffffffff16145b6109ae576040517f08c379a0000000000000000000000000000000000000000000000000000000008152600401808060200182810382526027815260200180610afe6027913960400191505060405180910390fd5b600160009054906101000a900473ffffffffffffffffffffffffffffffffffffffff1660005460033081805480602002602001604051908101604052809291908181526020018280548015610a2257602002820191906000526020600020905b815481526020019060010190808311610a0e575b50505050509150935093509350935090919293565b828054600181600116156101000203166002900490600052602060002090601f016020900481019282601f10610a7857805160ff1916838001178555610aa6565b82800160010185558215610aa6579182015b82811115610aa5578251825591602001919060010190610a8a565b5b509050610ab39190610ab7565b5090565b610ad991905b80821115610ad5576000816000905550600101610abd565b5090565b9056fe53656e646572206973206e6f7420737570706c696572206f662070726f6a656374557365722068617320746f2062652061737369676e656420636c69656e74206f72206f776e6572a2646970667358221220d77b65ee5113c51d55a1e5e4ec7c4e47bf3448c2c8cc618a6134933504dfbcca64736f6c63430006000033",
  "source": "// SPDX-License-Identifier: UNLICENSED\r\npragma solidity ^0.6.0;\r\n\r\nimport './NuclearPoE.sol';\r\n\r\n/// @title Process Contract\r\n/// @author Sebastian A. Martinez\r\n/// @notice This contract is responsible for each process and its corresponding documents\r\ncontract Process {\r\n    bytes32 private processName;\r\n    address private supplierAddress;\r\n    address private owner;\r\n\r\n    struct Document {\r\n        string name;\r\n        bytes32 latitude;\r\n        bytes32 longitude;\r\n        uint256 mineTime;\r\n        string comment;\r\n    }\r\n\r\n    bytes32[] public allDocuments;\r\n    mapping(bytes32 => Document) private document;\r\n\r\n    event AddDocument(bytes32 hash);\r\n\r\n    modifier onlySupplier() {\r\n        require(\r\n            msg.sender == supplierAddress,\r\n            'Sender is not supplier of project'\r\n        );\r\n        _;\r\n    }\r\n\r\n    constructor(\r\n        address _supplierAddress,\r\n        bytes32 _processName,\r\n        address _ownerAddress\r\n    ) public {\r\n        supplierAddress = _supplierAddress;\r\n        processName = _processName;\r\n        owner = _ownerAddress;\r\n    }\r\n\r\n    /// @notice Creates a new document\r\n    /// @param _name Name of new document\r\n    /// @param _hash Hash of document\r\n    /// @param _latitude Latitude\r\n    /// @param _longitude Longitude\r\n    /// @param _comment Comment\r\n    function addDocument(\r\n        string calldata _name,\r\n        bytes32 _hash,\r\n        bytes32 _latitude,\r\n        bytes32 _longitude,\r\n        string calldata _comment\r\n    ) external onlySupplier() {\r\n        require(document[_hash].mineTime == 0, 'Document already created');\r\n\r\n        document[_hash] = Document(_name, _latitude, _longitude, now, _comment);\r\n        allDocuments.push(_hash);\r\n\r\n        emit AddDocument(_hash);\r\n    }\r\n\r\n    /// @notice Gets document metadata by hash\r\n    /// @param _hash Hash of document\r\n    /// @return string Name of document\r\n    /// @return bytes32 Latitude\r\n    /// @return bytes32 Longitude\r\n    /// @return uint256 mineTime Moment the transaction got mined\r\n    /// @return string Comment\r\n    function getDocument(bytes32 _hash)\r\n        external\r\n        view\r\n        returns (\r\n            string memory,\r\n            bytes32,\r\n            bytes32,\r\n            bytes32,\r\n            uint256,\r\n            string memory\r\n        )\r\n    {\r\n        require(document[_hash].mineTime != 0, 'Document does not exist');\r\n        return (\r\n            document[_hash].name,\r\n            _hash,\r\n            document[_hash].latitude,\r\n            document[_hash].longitude,\r\n            document[_hash].mineTime,\r\n            document[_hash].comment\r\n        );\r\n    }\r\n\r\n    /// @notice Gets details about this contract\r\n    /// @return address Address of supplier of this process\r\n    /// @return bytes32 Name of process\r\n    /// @return bytes32[] Array of all document hashes in this process\r\n    /// @return address Address of contract\r\n    function getDetails()\r\n        external\r\n        view\r\n        returns (\r\n            address,\r\n            bytes32,\r\n            bytes32[] memory,\r\n            address\r\n        )\r\n    {\r\n        require(\r\n            msg.sender == supplierAddress || msg.sender == owner,\r\n            'User has to be assigned client or owner'\r\n        );\r\n        return (supplierAddress, processName, allDocuments, address(this));\r\n    }\r\n}\r\n",
  "sourcePath": "C:\\Users\\smartinez.nuclearis\\Documents\\GitHub\\work\\poe\\src\\contracts\\Process.sol",
  "compiler": {
    "name": "solc",
    "version": "0.6.0+commit.26b70077.Emscripten.clang"
  },
  "schemaVersion": "3.2.0",
  "updatedAt": "2020-06-29T17:24:55.194Z",
  "devdoc": {
    "author": "Sebastian A. Martinez",
    "methods": {
      "addDocument(string,bytes32,bytes32,bytes32,string)": {
        "params": {
          "_comment": "Comment",
          "_hash": "Hash of document",
          "_latitude": "Latitude",
          "_longitude": "Longitude",
          "_name": "Name of new document"
        }
      },
      "getDocument(bytes32)": {
        "params": {
          "_hash": "Hash of document"
        },
        "returns": {
          "_0": "string Name of document",
          "_1": "bytes32 Latitude",
          "_2": "bytes32 Longitude",
          "_3": "uint256 mineTime Moment the transaction got mined",
          "_4": "string Comment"
        }
      }
    },
    "title": "Process Contract"
  },
  "userdoc": {
    "methods": {
      "addDocument(string,bytes32,bytes32,bytes32,string)": {
        "notice": "Creates a new document"
      },
      "getDetails()": {
        "notice": "Gets details about this contract"
      },
      "getDocument(bytes32)": {
        "notice": "Gets document metadata by hash"
      }
    },
    "notice": "This contract is responsible for each process and its corresponding documents"
  }
}