{
  "contractName": "Process",
  "abi": [
    {
      "inputs": [
        {
          "internalType": "address",
          "name": "_supplier",
          "type": "address"
        },
        {
          "internalType": "string",
          "name": "_name",
          "type": "string"
        },
        {
          "internalType": "address",
          "name": "_ownerAddress",
          "type": "address"
        }
      ],
      "stateMutability": "nonpayable",
      "type": "constructor"
    },
    {
      "anonymous": false,
      "inputs": [
        {
          "indexed": false,
          "internalType": "bytes32",
          "name": "hash",
          "type": "bytes32"
        }
      ],
      "name": "AddDocument",
      "type": "event"
    },
    {
      "inputs": [
        {
          "internalType": "uint256",
          "name": "",
          "type": "uint256"
        }
      ],
      "name": "allDocuments",
      "outputs": [
        {
          "internalType": "bytes32",
          "name": "",
          "type": "bytes32"
        }
      ],
      "stateMutability": "view",
      "type": "function"
    },
    {
      "inputs": [
        {
          "internalType": "string",
          "name": "_name",
          "type": "string"
        },
        {
          "internalType": "bytes32",
          "name": "_hash",
          "type": "bytes32"
        },
        {
          "internalType": "string",
          "name": "_latitude",
          "type": "string"
        },
        {
          "internalType": "string",
          "name": "_longitude",
          "type": "string"
        },
        {
          "internalType": "string",
          "name": "_comment",
          "type": "string"
        }
      ],
      "name": "addDocument",
      "outputs": [],
      "stateMutability": "nonpayable",
      "type": "function"
    },
    {
      "inputs": [
        {
          "internalType": "bytes32",
          "name": "_hash",
          "type": "bytes32"
        }
      ],
      "name": "getDocument",
      "outputs": [
        {
          "internalType": "string",
          "name": "",
          "type": "string"
        },
        {
          "internalType": "bytes32",
          "name": "",
          "type": "bytes32"
        },
        {
          "internalType": "string",
          "name": "",
          "type": "string"
        },
        {
          "internalType": "string",
          "name": "",
          "type": "string"
        },
        {
          "internalType": "uint256",
          "name": "",
          "type": "uint256"
        },
        {
          "internalType": "string",
          "name": "",
          "type": "string"
        }
      ],
      "stateMutability": "view",
      "type": "function"
    },
    {
      "inputs": [],
      "name": "getDetails",
      "outputs": [
        {
          "internalType": "address",
          "name": "",
          "type": "address"
        },
        {
          "internalType": "string",
          "name": "",
          "type": "string"
        },
        {
          "internalType": "bytes32[]",
          "name": "",
          "type": "bytes32[]"
        },
        {
          "internalType": "address",
          "name": "",
          "type": "address"
        }
      ],
      "stateMutability": "view",
      "type": "function"
    }
  ],
  "bytecode": "0x60806040523480156200001157600080fd5b50604051620010ee380380620010ee833981810160405260608110156200003757600080fd5b8101908080519060200190929190805160405193929190846401000000008211156200006257600080fd5b838201915060208201858111156200007957600080fd5b82518660018202830111640100000000821117156200009757600080fd5b8083526020830192505050908051906020019080838360005b83811015620000cd578082015181840152602081019050620000b0565b50505050905090810190601f168015620000fb5780820380516001836020036101000a031916815260200191505b506040526020018051906020019092919050505082600160006101000a81548173ffffffffffffffffffffffffffffffffffffffff021916908373ffffffffffffffffffffffffffffffffffffffff160217905550816000908051906020019062000168929190620001b3565b5080600260006101000a81548173ffffffffffffffffffffffffffffffffffffffff021916908373ffffffffffffffffffffffffffffffffffffffff16021790555050505062000262565b828054600181600116156101000203166002900490600052602060002090601f016020900481019282601f10620001f657805160ff191683800117855562000227565b8280016001018555821562000227579182015b828111156200022657825182559160200191906001019062000209565b5b5090506200023691906200023a565b5090565b6200025f91905b808211156200025b57600081600090555060010162000241565b5090565b90565b610e7c80620002726000396000f3fe608060405234801561001057600080fd5b506004361061004c5760003560e01c80636d67052314610051578063b10d6b41146101d3578063cdee934e146103cc578063fbbf93a01461040e575b600080fd5b6101d1600480360360a081101561006757600080fd5b810190808035906020019064010000000081111561008457600080fd5b82018360208201111561009657600080fd5b803590602001918460018302840111640100000000831117156100b857600080fd5b909192939192939080359060200190929190803590602001906401000000008111156100e357600080fd5b8201836020820111156100f557600080fd5b8035906020019184600183028401116401000000008311171561011757600080fd5b90919293919293908035906020019064010000000081111561013857600080fd5b82018360208201111561014a57600080fd5b8035906020019184600183028401116401000000008311171561016c57600080fd5b90919293919293908035906020019064010000000081111561018d57600080fd5b82018360208201111561019f57600080fd5b803590602001918460018302840111640100000000831117156101c157600080fd5b909192939192939050505061053f565b005b6101ff600480360360208110156101e957600080fd5b81019080803590602001909291905050506108a7565b604051808060200187815260200180602001806020018681526020018060200185810385528b818151815260200191508051906020019080838360005b8381101561025757808201518184015260208101905061023c565b50505050905090810190601f1680156102845780820380516001836020036101000a031916815260200191505b50858103845289818151815260200191508051906020019080838360005b838110156102bd5780820151818401526020810190506102a2565b50505050905090810190601f1680156102ea5780820380516001836020036101000a031916815260200191505b50858103835288818151815260200191508051906020019080838360005b83811015610323578082015181840152602081019050610308565b50505050905090810190601f1680156103505780820380516001836020036101000a031916815260200191505b50858103825286818151815260200191508051906020019080838360005b8381101561038957808201518184015260208101905061036e565b50505050905090810190601f1680156103b65780820380516001836020036101000a031916815260200191505b509a505050505050505050505060405180910390f35b6103f8600480360360208110156103e257600080fd5b8101908080359060200190929190505050610c34565b6040518082815260200191505060405180910390f35b610416610c55565b604051808573ffffffffffffffffffffffffffffffffffffffff1673ffffffffffffffffffffffffffffffffffffffff16815260200180602001806020018473ffffffffffffffffffffffffffffffffffffffff1673ffffffffffffffffffffffffffffffffffffffff168152602001838103835286818151815260200191508051906020019080838360005b838110156104be5780820151818401526020810190506104a3565b50505050905090810190601f1680156104eb5780820380516001836020036101000a031916815260200191505b50838103825285818151815260200191508051906020019060200280838360005b8381101561052757808201518184015260208101905061050c565b50505050905001965050505050505060405180910390f35b600160009054906101000a900473ffffffffffffffffffffffffffffffffffffffff1673ffffffffffffffffffffffffffffffffffffffff163373ffffffffffffffffffffffffffffffffffffffff16146105e5576040517f08c379a0000000000000000000000000000000000000000000000000000000008152600401808060200182810382526021815260200180610e266021913960400191505060405180910390fd5b6000600460008981526020019081526020016000206003015414610671576040517f08c379a00000000000000000000000000000000000000000000000000000000081526004018080602001828103825260188152602001807f446f63756d656e7420616c72656164792063726561746564000000000000000081525060200191505060405180910390fd5b6040518060a001604052808a8a8080601f016020809104026020016040519081016040528093929190818152602001838380828437600081840152601f19601f82011690508083019250505050505050815260200187878080601f016020809104026020016040519081016040528093929190818152602001838380828437600081840152601f19601f82011690508083019250505050505050815260200185858080601f016020809104026020016040519081016040528093929190818152602001838380828437600081840152601f19601f82011690508083019250505050505050815260200142815260200183838080601f016020809104026020016040519081016040528093929190818152602001838380828437600081840152601f19601f820116905080830192505050505050508152506004600089815260200190815260200160002060008201518160000190805190602001906107d7929190610d80565b5060208201518160010190805190602001906107f4929190610d80565b506040820151816002019080519060200190610811929190610d80565b50606082015181600301556080820151816004019080519060200190610838929190610d80565b5090505060038790806001815401808255809150506001900390600052602060002001600090919091909150557fe0d778ff3686f51abf4d7fafe1aaceba6989e018f37c26d928ad7567aa2e71cb876040518082815260200191505060405180910390a1505050505050505050565b606060006060806000606060006004600089815260200190815260200160002060030154141561093f576040517f08c379a00000000000000000000000000000000000000000000000000000000081526004018080602001828103825260178152602001807f446f63756d656e7420646f6573206e6f7420657869737400000000000000000081525060200191505060405180910390fd5b6004600088815260200190815260200160002060000187600460008a8152602001908152602001600020600101600460008b8152602001908152602001600020600201600460008c815260200190815260200160002060030154600460008d8152602001908152602001600020600401858054600181600116156101000203166002900480601f016020809104026020016040519081016040528092919081815260200182805460018160011615610100020316600290048015610a445780601f10610a1957610100808354040283529160200191610a44565b820191906000526020600020905b815481529060010190602001808311610a2757829003601f168201915b50505050509550838054600181600116156101000203166002900480601f016020809104026020016040519081016040528092919081815260200182805460018160011615610100020316600290048015610ae05780601f10610ab557610100808354040283529160200191610ae0565b820191906000526020600020905b815481529060010190602001808311610ac357829003601f168201915b50505050509350828054600181600116156101000203166002900480601f016020809104026020016040519081016040528092919081815260200182805460018160011615610100020316600290048015610b7c5780601f10610b5157610100808354040283529160200191610b7c565b820191906000526020600020905b815481529060010190602001808311610b5f57829003601f168201915b50505050509250808054600181600116156101000203166002900480601f016020809104026020016040519081016040528092919081815260200182805460018160011615610100020316600290048015610c185780601f10610bed57610100808354040283529160200191610c18565b820191906000526020600020905b815481529060010190602001808311610bfb57829003601f168201915b5050505050905095509550955095509550955091939550919395565b60038181548110610c4157fe5b906000526020600020016000915090505481565b60006060806000600160009054906101000a900473ffffffffffffffffffffffffffffffffffffffff166000600330828054600181600116156101000203166002900480601f016020809104026020016040519081016040528092919081815260200182805460018160011615610100020316600290048015610d195780601f10610cee57610100808354040283529160200191610d19565b820191906000526020600020905b815481529060010190602001808311610cfc57829003601f168201915b5050505050925081805480602002602001604051908101604052809291908181526020018280548015610d6b57602002820191906000526020600020905b815481526020019060010190808311610d57575b50505050509150935093509350935090919293565b828054600181600116156101000203166002900490600052602060002090601f016020900481019282601f10610dc157805160ff1916838001178555610def565b82800160010185558215610def579182015b82811115610dee578251825591602001919060010190610dd3565b5b509050610dfc9190610e00565b5090565b610e2291905b80821115610e1e576000816000905550600101610e06565b5090565b9056fe53656e646572206973206e6f7420737570706c696572206f662070726f6a656374a26469706673582212201121adef5ba8554b926c43b448ab8e35e7d5e7638ade89d80d611206cde60b8564736f6c634300060b0033",
  "immutableReferences": {},
  "source": "// SPDX-License-Identifier: UNLICENSED\r\npragma solidity 0.6.11;\r\n\r\nimport './NuclearPoE.sol';\r\n\r\n/// @title Process Contract\r\n/// @author Sebastian A. Martinez\r\n/// @notice This contract is responsible for each process and its corresponding documents\r\ncontract Process {\r\n    string private _processName;\r\n    address private _supplierAddress;\r\n    address private _owner;\r\n\r\n    struct Document {\r\n        string name;\r\n        string latitude;\r\n        string longitude;\r\n        uint256 mineTime;\r\n        string comment;\r\n    }\r\n\r\n    bytes32[] public allDocuments;\r\n    mapping(bytes32 => Document) private _document;\r\n\r\n    event AddDocument(bytes32 hash);\r\n\r\n    modifier onlySupplier() {\r\n        require(\r\n            msg.sender == _supplierAddress,\r\n            'Sender is not supplier of project'\r\n        );\r\n        _;\r\n    }\r\n\r\n    constructor(\r\n        address _supplier,\r\n        string memory _name,\r\n        address _ownerAddress\r\n    ) public {\r\n        _supplierAddress = _supplier;\r\n        _processName = _name;\r\n        _owner = _ownerAddress;\r\n    }\r\n\r\n    /// @notice Creates a new document\r\n    /// @param _name Name of new document\r\n    /// @param _hash Hash of document\r\n    /// @param _latitude Latitude\r\n    /// @param _longitude Longitude\r\n    /// @param _comment Comment\r\n    function addDocument(\r\n        string calldata _name,\r\n        bytes32 _hash,\r\n        string calldata _latitude,\r\n        string calldata _longitude,\r\n        string calldata _comment\r\n    ) external onlySupplier() {\r\n        require(_document[_hash].mineTime == 0, 'Document already created');\r\n\r\n        _document[_hash] = Document(\r\n            _name,\r\n            _latitude,\r\n            _longitude,\r\n            now, //solhint-disable-line not-rely-on-time\r\n            _comment\r\n        );\r\n        allDocuments.push(_hash);\r\n\r\n        emit AddDocument(_hash);\r\n    }\r\n\r\n    /// @notice Gets document metadata by hash\r\n    /// @param _hash Hash of document\r\n    /// @return string Name of document\r\n    /// @return string Latitude\r\n    /// @return string Longitude\r\n    /// @return uint256 mineTime Moment the transaction got mined\r\n    /// @return string Comment\r\n    function getDocument(bytes32 _hash)\r\n        external\r\n        view\r\n        returns (\r\n            string memory,\r\n            bytes32,\r\n            string memory,\r\n            string memory,\r\n            uint256,\r\n            string memory\r\n        )\r\n    {\r\n        require(_document[_hash].mineTime != 0, 'Document does not exist');\r\n        return (\r\n            _document[_hash].name,\r\n            _hash,\r\n            _document[_hash].latitude,\r\n            _document[_hash].longitude,\r\n            _document[_hash].mineTime,\r\n            _document[_hash].comment\r\n        );\r\n    }\r\n\r\n    /// @notice Gets details about this contract\r\n    /// @return address Address of supplier of this process\r\n    /// @return string Name of process\r\n    /// @return bytes32[] Array of all document hashes in this process\r\n    /// @return address Address of contract\r\n    function getDetails()\r\n        external\r\n        view\r\n        returns (\r\n            address,\r\n            string memory,\r\n            bytes32[] memory,\r\n            address\r\n        )\r\n    {\r\n        return (_supplierAddress, _processName, allDocuments, address(this));\r\n    }\r\n}\r\n",
  "sourcePath": "C:\\Users\\smartinez.nuclearis\\Documents\\GitHub\\work\\poe\\src\\contracts\\Process.sol",
  "compiler": {
    "name": "solc",
    "version": "0.6.11+commit.5ef660b1.Emscripten.clang"
  },
  "schemaVersion": "3.2.0",
  "updatedAt": "2020-07-22T17:51:55.338Z",
  "devdoc": {
    "author": "Sebastian A. Martinez",
    "kind": "dev",
    "methods": {
      "addDocument(string,bytes32,string,string,string)": {
        "params": {
          "_comment": "Comment",
          "_hash": "Hash of document",
          "_latitude": "Latitude",
          "_longitude": "Longitude",
          "_name": "Name of new document"
        }
      },
      "getDetails()": {
        "returns": {
          "_0": "address Address of supplier of this process",
          "_1": "string Name of process",
          "_2": "bytes32[] Array of all document hashes in this process",
          "_3": "address Address of contract"
        }
      },
      "getDocument(bytes32)": {
        "params": {
          "_hash": "Hash of document"
        },
        "returns": {
          "_0": "string Name of document",
          "_1": "string Latitude",
          "_2": "string Longitude",
          "_3": "uint256 mineTime Moment the transaction got mined",
          "_4": "string Comment"
        }
      }
    },
    "title": "Process Contract",
    "version": 1
  },
  "userdoc": {
    "kind": "user",
    "methods": {
      "addDocument(string,bytes32,string,string,string)": {
        "notice": "Creates a new document"
      },
      "getDetails()": {
        "notice": "Gets details about this contract"
      },
      "getDocument(bytes32)": {
        "notice": "Gets document metadata by hash"
      }
    },
    "notice": "This contract is responsible for each process and its corresponding documents",
    "version": 1
  }
}