{
  "contractName": "Process",
  "abi": [
    {
      "inputs": [
        {
          "internalType": "address",
          "name": "_supplierAddress",
          "type": "address"
        },
        {
          "internalType": "bytes32",
          "name": "_processName",
          "type": "bytes32"
        }
      ],
      "stateMutability": "nonpayable",
      "type": "constructor"
    },
    {
      "anonymous": false,
      "inputs": [
        {
          "indexed": false,
          "internalType": "bytes32",
          "name": "hash",
          "type": "bytes32"
        }
      ],
      "name": "AddDocument",
      "type": "event"
    },
    {
      "inputs": [
        {
          "internalType": "uint256",
          "name": "",
          "type": "uint256"
        }
      ],
      "name": "allDocuments",
      "outputs": [
        {
          "internalType": "bytes32",
          "name": "",
          "type": "bytes32"
        }
      ],
      "stateMutability": "view",
      "type": "function"
    },
    {
      "inputs": [
        {
          "internalType": "string",
          "name": "_name",
          "type": "string"
        },
        {
          "internalType": "bytes32",
          "name": "_hash",
          "type": "bytes32"
        },
        {
          "internalType": "bytes32",
          "name": "_latitude",
          "type": "bytes32"
        },
        {
          "internalType": "bytes32",
          "name": "_longitude",
          "type": "bytes32"
        },
        {
          "internalType": "string",
          "name": "_comment",
          "type": "string"
        }
      ],
      "name": "addDocument",
      "outputs": [],
      "stateMutability": "nonpayable",
      "type": "function"
    },
    {
      "inputs": [
        {
          "internalType": "bytes32",
          "name": "_hash",
          "type": "bytes32"
        }
      ],
      "name": "getDocument",
      "outputs": [
        {
          "internalType": "string",
          "name": "",
          "type": "string"
        },
        {
          "internalType": "bytes32",
          "name": "",
          "type": "bytes32"
        },
        {
          "internalType": "bytes32",
          "name": "",
          "type": "bytes32"
        },
        {
          "internalType": "uint256",
          "name": "",
          "type": "uint256"
        },
        {
          "internalType": "string",
          "name": "",
          "type": "string"
        }
      ],
      "stateMutability": "view",
      "type": "function"
    },
    {
      "inputs": [],
      "name": "getDetails",
      "outputs": [
        {
          "internalType": "address",
          "name": "",
          "type": "address"
        },
        {
          "internalType": "bytes32",
          "name": "",
          "type": "bytes32"
        },
        {
          "internalType": "bytes32[]",
          "name": "",
          "type": "bytes32[]"
        },
        {
          "internalType": "address",
          "name": "",
          "type": "address"
        }
      ],
      "stateMutability": "view",
      "type": "function"
    }
  ],
  "bytecode": "0x608060405234801561001057600080fd5b50604051610ad1380380610ad18339818101604052604081101561003357600080fd5b81019080805190602001909291908051906020019092919050505081600160006101000a81548173ffffffffffffffffffffffffffffffffffffffff021916908373ffffffffffffffffffffffffffffffffffffffff160217905550806000819055505050610a2a806100a76000396000f3fe608060405234801561001057600080fd5b506004361061004c5760003560e01c8063b00d2a1a14610051578063b10d6b411461013d578063cdee934e14610265578063fbbf93a0146102a7575b600080fd5b61013b600480360360a081101561006757600080fd5b810190808035906020019064010000000081111561008457600080fd5b82018360208201111561009657600080fd5b803590602001918460018302840111640100000000831117156100b857600080fd5b9091929391929390803590602001909291908035906020019092919080359060200190929190803590602001906401000000008111156100f757600080fd5b82018360208201111561010957600080fd5b8035906020019184600183028401116401000000008311171561012b57600080fd5b9091929391929390505050610373565b005b6101696004803603602081101561015357600080fd5b810190808035906020019092919050505061062b565b604051808060200186815260200185815260200184815260200180602001838103835288818151815260200191508051906020019080838360005b838110156101bf5780820151818401526020810190506101a4565b50505050905090810190601f1680156101ec5780820380516001836020036101000a031916815260200191505b50838103825284818151815260200191508051906020019080838360005b8381101561022557808201518184015260208101905061020a565b50505050905090810190601f1680156102525780820380516001836020036101000a031916815260200191505b5097505050505050505060405180910390f35b6102916004803603602081101561027b57600080fd5b810190808035906020019092919050505061087d565b6040518082815260200191505060405180910390f35b6102af61089e565b604051808573ffffffffffffffffffffffffffffffffffffffff1673ffffffffffffffffffffffffffffffffffffffff168152602001848152602001806020018373ffffffffffffffffffffffffffffffffffffffff1673ffffffffffffffffffffffffffffffffffffffff168152602001828103825284818151815260200191508051906020019060200280838360005b8381101561035c578082015181840152602081019050610341565b505050509050019550505050505060405180910390f35b600160009054906101000a900473ffffffffffffffffffffffffffffffffffffffff1673ffffffffffffffffffffffffffffffffffffffff163373ffffffffffffffffffffffffffffffffffffffff1614610419576040517f08c379a00000000000000000000000000000000000000000000000000000000081526004018080602001828103825260218152602001806109d46021913960400191505060405180910390fd5b60006003600087815260200190815260200160002060030154146104a5576040517f08c379a00000000000000000000000000000000000000000000000000000000081526004018080602001828103825260188152602001807f446f63756d656e7420616c72656164792063726561746564000000000000000081525060200191505060405180910390fd5b6040518060a0016040528088888080601f016020809104026020016040519081016040528093929190818152602001838380828437600081840152601f19601f82011690508083019250505050505050815260200185815260200184815260200142815260200183838080601f016020809104026020016040519081016040528093929190818152602001838380828437600081840152601f19601f8201169050808301925050505050505081525060036000878152602001908152602001600020600082015181600001908051906020019061058392919061092e565b5060208201518160010155604082015181600201556060820151816003015560808201518160040190805190602001906105be92919061092e565b5090505060028590806001815401808255809150506001900390600052602060002001600090919091909150557fe0d778ff3686f51abf4d7fafe1aaceba6989e018f37c26d928ad7567aa2e71cb856040518082815260200191505060405180910390a150505050505050565b6060600080600060606000600360008881526020019081526020016000206003015414156106c1576040517f08c379a00000000000000000000000000000000000000000000000000000000081526004018080602001828103825260178152602001807f446f63756d656e7420646f6573206e6f7420657869737400000000000000000081525060200191505060405180910390fd5b6003600087815260200190815260200160002060000160036000888152602001908152602001600020600101546003600089815260200190815260200160002060020154600360008a815260200190815260200160002060030154600360008b8152602001908152602001600020600401848054600181600116156101000203166002900480601f0160208091040260200160405190810160405280929190818152602001828054600181600116156101000203166002900480156107c75780601f1061079c576101008083540402835291602001916107c7565b820191906000526020600020905b8154815290600101906020018083116107aa57829003601f168201915b50505050509450808054600181600116156101000203166002900480601f0160208091040260200160405190810160405280929190818152602001828054600181600116156101000203166002900480156108635780601f1061083857610100808354040283529160200191610863565b820191906000526020600020905b81548152906001019060200180831161084657829003601f168201915b505050505090509450945094509450945091939590929450565b6002818154811061088a57fe5b906000526020600020016000915090505481565b60008060606000600160009054906101000a900473ffffffffffffffffffffffffffffffffffffffff166000546002308180548060200260200160405190810160405280929190818152602001828054801561091957602002820191906000526020600020905b815481526020019060010190808311610905575b50505050509150935093509350935090919293565b828054600181600116156101000203166002900490600052602060002090601f016020900481019282601f1061096f57805160ff191683800117855561099d565b8280016001018555821561099d579182015b8281111561099c578251825591602001919060010190610981565b5b5090506109aa91906109ae565b5090565b6109d091905b808211156109cc5760008160009055506001016109b4565b5090565b9056fe53656e646572206973206e6f7420737570706c696572206f662070726f6a656374a264697066735822122036e5805b4ae8da337723e67909eef804a8fe2850b42fb28e31029f7b32d741ee64736f6c63430006000033",
  "source": "// SPDX-License-Identifier: UNLICENSED\npragma solidity ^0.6.0;\n\nimport './NuclearPoE.sol';\nimport './Ownable.sol';\n\n/// @title Process Contract\n/// @author Sebastian A. Martinez\n/// @notice This contract is responsible for each process and its corresponding documents\ncontract Process {\n    bytes32 private processName;\n    address private supplierAddress;\n\n    struct Document {\n        string name;\n        bytes32 latitude;\n        bytes32 longitude;\n        uint256 mineTime;\n        string comment;\n    }\n\n    bytes32[] public allDocuments;\n    mapping(bytes32 => Document) private document;\n\n    event AddDocument(bytes32 hash);\n\n    modifier onlySupplier() {\n        require(\n            msg.sender == supplierAddress,\n            'Sender is not supplier of project'\n        );\n        _;\n    }\n\n    constructor(address _supplierAddress, bytes32 _processName) public {\n        supplierAddress = _supplierAddress;\n        processName = _processName;\n    }\n\n    /// @notice Creates a new document\n    /// @param _name Name of new document\n    /// @param _hash Hash of document\n    /// @param _latitude Latitude\n    /// @param _longitude Longitude\n    /// @param _comment Comment\n    function addDocument(\n        string calldata _name,\n        bytes32 _hash,\n        bytes32 _latitude,\n        bytes32 _longitude,\n        string calldata _comment\n    ) external onlySupplier() {\n        require(document[_hash].mineTime == 0, 'Document already created');\n\n        document[_hash] = Document(_name, _latitude, _longitude, now, _comment);\n        allDocuments.push(_hash);\n\n        emit AddDocument(_hash);\n    }\n\n    /// @notice Gets document metadata by hash\n    /// @param _hash Hash of document\n    /// @return string Name of document\n    /// @return bytes32 Latitude\n    /// @return bytes32 Longitude\n    /// @return uint256 mineTime Moment the transaction got mined\n    /// @return string Comment\n    function getDocument(bytes32 _hash)\n        external\n        view\n        returns (\n            string memory,\n            bytes32,\n            bytes32,\n            uint256,\n            string memory\n        )\n    {\n        require(document[_hash].mineTime != 0, 'Document does not exist');\n        return (\n            document[_hash].name,\n            document[_hash].latitude,\n            document[_hash].longitude,\n            document[_hash].mineTime,\n            document[_hash].comment\n        );\n    }\n\n    /// @notice Gets details about this contract\n    /// @return address Address of supplier of this process\n    /// @return bytes32 Name of process\n    /// @return bytes32[] Array of all document hashes in this process\n    /// @return address Address of contract\n    function getDetails()\n        external\n        view\n        returns (\n            address,\n            bytes32,\n            bytes32[] memory,\n            address\n        )\n    {\n        return (supplierAddress, processName, allDocuments, address(this));\n    }\n}\n",
  "sourcePath": "/Users/sebastinez/Documents/GitHub/work/poe/src/contracts/Process.sol",
  "compiler": {
    "name": "solc",
    "version": "0.6.0+commit.26b70077.Emscripten.clang"
  },
  "schemaVersion": "3.0.23",
  "updatedAt": "2020-06-28T11:47:07.849Z",
  "devdoc": {
    "author": "Sebastian A. Martinez",
    "methods": {
      "addDocument(string,bytes32,bytes32,bytes32,string)": {
        "params": {
          "_comment": "Comment",
          "_hash": "Hash of document",
          "_latitude": "Latitude",
          "_longitude": "Longitude",
          "_name": "Name of new document"
        }
      },
      "getDocument(bytes32)": {
        "params": {
          "_hash": "Hash of document"
        },
        "returns": {
          "_0": "string Name of document",
          "_1": "bytes32 Latitude",
          "_2": "bytes32 Longitude",
          "_3": "uint256 mineTime Moment the transaction got mined",
          "_4": "string Comment"
        }
      }
    },
    "title": "Process Contract"
  },
  "userdoc": {
    "methods": {
      "addDocument(string,bytes32,bytes32,bytes32,string)": {
        "notice": "Creates a new document"
      },
      "getDetails()": {
        "notice": "Gets details about this contract"
      },
      "getDocument(bytes32)": {
        "notice": "Gets document metadata by hash"
      }
    },
    "notice": "This contract is responsible for each process and its corresponding documents"
  }
}