{
  "_format": "hh-sol-artifact-1",
  "contractName": "NuclearPoE",
  "sourceName": "src/contracts/NuclearPoE.sol",
  "abi": [
    {
      "inputs": [
        {
          "internalType": "string",
          "name": "_name",
          "type": "string"
        }
      ],
      "stateMutability": "nonpayable",
      "type": "constructor"
    },
    {
      "anonymous": false,
      "inputs": [
        {
          "indexed": false,
          "internalType": "uint256",
          "name": "project",
          "type": "uint256"
        },
        {
          "indexed": false,
          "internalType": "address",
          "name": "clientAddress",
          "type": "address"
        }
      ],
      "name": "AssignClient",
      "type": "event"
    },
    {
      "anonymous": false,
      "inputs": [
        {
          "indexed": false,
          "internalType": "uint256",
          "name": "project",
          "type": "uint256"
        },
        {
          "indexed": false,
          "internalType": "address",
          "name": "processContractAddress",
          "type": "address"
        }
      ],
      "name": "AssignProcess",
      "type": "event"
    },
    {
      "anonymous": false,
      "inputs": [
        {
          "indexed": false,
          "internalType": "address",
          "name": "processContractAddress",
          "type": "address"
        }
      ],
      "name": "CreateProcess",
      "type": "event"
    },
    {
      "anonymous": false,
      "inputs": [
        {
          "indexed": false,
          "internalType": "uint256",
          "name": "id",
          "type": "uint256"
        }
      ],
      "name": "CreateProject",
      "type": "event"
    },
    {
      "anonymous": false,
      "inputs": [
        {
          "indexed": false,
          "internalType": "address",
          "name": "userAddress",
          "type": "address"
        }
      ],
      "name": "CreateUser",
      "type": "event"
    },
    {
      "anonymous": false,
      "inputs": [
        {
          "indexed": true,
          "internalType": "address",
          "name": "previousOwner",
          "type": "address"
        },
        {
          "indexed": true,
          "internalType": "address",
          "name": "newOwner",
          "type": "address"
        }
      ],
      "name": "OwnershipTransferred",
      "type": "event"
    },
    {
      "anonymous": false,
      "inputs": [
        {
          "indexed": false,
          "internalType": "uint256",
          "name": "id",
          "type": "uint256"
        },
        {
          "indexed": false,
          "internalType": "enum NuclearPoE.State",
          "name": "newState",
          "type": "uint8"
        }
      ],
      "name": "ToggleProjectStatus",
      "type": "event"
    },
    {
      "anonymous": false,
      "inputs": [
        {
          "indexed": false,
          "internalType": "address",
          "name": "userAddress",
          "type": "address"
        },
        {
          "indexed": false,
          "internalType": "enum NuclearPoE.State",
          "name": "newState",
          "type": "uint8"
        }
      ],
      "name": "ToggleUserStatus",
      "type": "event"
    },
    {
      "inputs": [
        {
          "internalType": "uint256",
          "name": "_id",
          "type": "uint256"
        },
        {
          "internalType": "address",
          "name": "_processContract",
          "type": "address"
        }
      ],
      "name": "addProcessToProject",
      "outputs": [],
      "stateMutability": "nonpayable",
      "type": "function"
    },
    {
      "inputs": [
        {
          "internalType": "uint256",
          "name": "_id",
          "type": "uint256"
        },
        {
          "internalType": "address",
          "name": "_client",
          "type": "address"
        }
      ],
      "name": "assignClient",
      "outputs": [],
      "stateMutability": "nonpayable",
      "type": "function"
    },
    {
      "inputs": [
        {
          "internalType": "bytes32",
          "name": "c__0xa0c663c4",
          "type": "bytes32"
        }
      ],
      "name": "c_0xa0c663c4",
      "outputs": [],
      "stateMutability": "pure",
      "type": "function"
    },
    {
      "inputs": [
        {
          "internalType": "bytes32",
          "name": "c__0xfc4c55b1",
          "type": "bytes32"
        }
      ],
      "name": "c_0xfc4c55b1",
      "outputs": [],
      "stateMutability": "pure",
      "type": "function"
    },
    {
      "inputs": [
        {
          "internalType": "address",
          "name": "_supplier",
          "type": "address"
        },
        {
          "internalType": "string",
          "name": "_processName",
          "type": "string"
        }
      ],
      "name": "createProcess",
      "outputs": [],
      "stateMutability": "nonpayable",
      "type": "function"
    },
    {
      "inputs": [
        {
          "internalType": "uint256",
          "name": "_id",
          "type": "uint256"
        },
        {
          "internalType": "string",
          "name": "_title",
          "type": "string"
        },
        {
          "internalType": "string",
          "name": "_purchaseOrder",
          "type": "string"
        }
      ],
      "name": "createProject",
      "outputs": [],
      "stateMutability": "nonpayable",
      "type": "function"
    },
    {
      "inputs": [
        {
          "internalType": "enum NuclearPoE.Type",
          "name": "_type",
          "type": "uint8"
        },
        {
          "internalType": "address",
          "name": "_address",
          "type": "address"
        },
        {
          "internalType": "string",
          "name": "_name",
          "type": "string"
        }
      ],
      "name": "createUser",
      "outputs": [],
      "stateMutability": "nonpayable",
      "type": "function"
    },
    {
      "inputs": [],
      "name": "getAllUsers",
      "outputs": [
        {
          "internalType": "address[]",
          "name": "",
          "type": "address[]"
        }
      ],
      "stateMutability": "view",
      "type": "function"
    },
    {
      "inputs": [
        {
          "internalType": "uint256",
          "name": "_id",
          "type": "uint256"
        }
      ],
      "name": "getProcessContractsByProject",
      "outputs": [
        {
          "internalType": "address[]",
          "name": "",
          "type": "address[]"
        }
      ],
      "stateMutability": "view",
      "type": "function"
    },
    {
      "inputs": [],
      "name": "getProcessesByAddress",
      "outputs": [
        {
          "internalType": "address[]",
          "name": "",
          "type": "address[]"
        }
      ],
      "stateMutability": "view",
      "type": "function"
    },
    {
      "inputs": [
        {
          "internalType": "uint256",
          "name": "_id",
          "type": "uint256"
        }
      ],
      "name": "getProjectDetails",
      "outputs": [
        {
          "internalType": "enum NuclearPoE.State",
          "name": "",
          "type": "uint8"
        },
        {
          "internalType": "uint256",
          "name": "",
          "type": "uint256"
        },
        {
          "internalType": "address",
          "name": "",
          "type": "address"
        },
        {
          "internalType": "string",
          "name": "",
          "type": "string"
        },
        {
          "internalType": "string",
          "name": "",
          "type": "string"
        },
        {
          "internalType": "address[]",
          "name": "",
          "type": "address[]"
        }
      ],
      "stateMutability": "view",
      "type": "function"
    },
    {
      "inputs": [],
      "name": "getProjectsByAddress",
      "outputs": [
        {
          "internalType": "uint256[]",
          "name": "",
          "type": "uint256[]"
        }
      ],
      "stateMutability": "view",
      "type": "function"
    },
    {
      "inputs": [
        {
          "internalType": "address",
          "name": "_address",
          "type": "address"
        }
      ],
      "name": "getUser",
      "outputs": [
        {
          "internalType": "enum NuclearPoE.State",
          "name": "",
          "type": "uint8"
        },
        {
          "internalType": "enum NuclearPoE.Type",
          "name": "",
          "type": "uint8"
        },
        {
          "internalType": "string",
          "name": "",
          "type": "string"
        },
        {
          "internalType": "address",
          "name": "",
          "type": "address"
        }
      ],
      "stateMutability": "view",
      "type": "function"
    },
    {
      "inputs": [],
      "name": "owner",
      "outputs": [
        {
          "internalType": "address",
          "name": "",
          "type": "address"
        }
      ],
      "stateMutability": "view",
      "type": "function"
    },
    {
      "inputs": [
        {
          "internalType": "uint256",
          "name": "",
          "type": "uint256"
        }
      ],
      "name": "processContractsArray",
      "outputs": [
        {
          "internalType": "address",
          "name": "",
          "type": "address"
        }
      ],
      "stateMutability": "view",
      "type": "function"
    },
    {
      "inputs": [
        {
          "internalType": "address",
          "name": "",
          "type": "address"
        },
        {
          "internalType": "uint256",
          "name": "",
          "type": "uint256"
        }
      ],
      "name": "processesByAddress",
      "outputs": [
        {
          "internalType": "address",
          "name": "",
          "type": "address"
        }
      ],
      "stateMutability": "view",
      "type": "function"
    },
    {
      "inputs": [
        {
          "internalType": "uint256",
          "name": "",
          "type": "uint256"
        }
      ],
      "name": "projectsArray",
      "outputs": [
        {
          "internalType": "uint256",
          "name": "",
          "type": "uint256"
        }
      ],
      "stateMutability": "view",
      "type": "function"
    },
    {
      "inputs": [
        {
          "internalType": "address",
          "name": "",
          "type": "address"
        },
        {
          "internalType": "uint256",
          "name": "",
          "type": "uint256"
        }
      ],
      "name": "projectsByAddress",
      "outputs": [
        {
          "internalType": "uint256",
          "name": "",
          "type": "uint256"
        }
      ],
      "stateMutability": "view",
      "type": "function"
    },
    {
      "inputs": [],
      "name": "renounceOwnership",
      "outputs": [],
      "stateMutability": "nonpayable",
      "type": "function"
    },
    {
      "inputs": [
        {
          "internalType": "uint256",
          "name": "_id",
          "type": "uint256"
        }
      ],
      "name": "toggleProjectStatus",
      "outputs": [],
      "stateMutability": "nonpayable",
      "type": "function"
    },
    {
      "inputs": [
        {
          "internalType": "address",
          "name": "_address",
          "type": "address"
        }
      ],
      "name": "toggleUserStatus",
      "outputs": [],
      "stateMutability": "nonpayable",
      "type": "function"
    },
    {
      "inputs": [
        {
          "internalType": "address",
          "name": "newOwner",
          "type": "address"
        }
      ],
      "name": "transferOwnership",
      "outputs": [],
      "stateMutability": "nonpayable",
      "type": "function"
    }
  ],
  "bytecode": "0x60806040523480156200001157600080fd5b506040516200727f3803806200727f833981810160405260208110156200003757600080fd5b81019080805160405193929190846401000000008211156200005857600080fd5b838201915060208201858111156200006f57600080fd5b82518660018202830111640100000000821117156200008d57600080fd5b8083526020830192505050908051906020019080838360005b83811015620000c3578082015181840152602081019050620000a6565b50505050905090810190601f168015620000f15780820380516001836020036101000a031916815260200191505b506040525050506200012c7fd8b1b5d63ef23900e0bf1d5b4ce4e196c8bdaaa56b4512f239bd043f542dc3fd60001b620004ef60201b60201c565b620001607f7027398bb54727a62713efe58a784ec56bc6608a91d8cc5fa4f1b3e13e146bb360001b620004ef60201b60201c565b620001947fc43b3b3bab7c40d9098a9dc90071f958cb5a961134a905dbefbe8041a79ebfe060001b620004ef60201b60201c565b336000806101000a81548173ffffffffffffffffffffffffffffffffffffffff021916908373ffffffffffffffffffffffffffffffffffffffff160217905550620002087fd6543cf4fab2db5ede234c295aa3ececcc9e07c5e4200940d71344c8686162bc60001b620004ef60201b60201c565b6200023c7fb873d47502ab15aa4c81cae65aca06791b8ad21d5113fde4603086e20775092260001b620004ef60201b60201c565b3373ffffffffffffffffffffffffffffffffffffffff16600073ffffffffffffffffffffffffffffffffffffffff167f8be0079c531659141344cd1fd0a4f28419497f9722a3daafe3b4186f6b6457e060405160405180910390a3620002cb7f626d73be395cf385a6937c765870e281f1def544f29eaf4b4e838f03635b135260001b620004f260201b60201c565b620002ff7f4908064f143358bc7ec8a44935a2bf149b05983a3b899a66cf0b876ef87af26360001b620004f260201b60201c565b620003337f0eaab1e0d00d9cba3911b0e475d69abb31df684e0ffd2a1d2b196c8b0a8be09060001b620004f260201b60201c565b6040518060600160405280600160028111156200034c57fe5b8152602001600060028111156200035f57fe5b815260200182815250600660003373ffffffffffffffffffffffffffffffffffffffff1673ffffffffffffffffffffffffffffffffffffffff16815260200190815260200160002060008201518160000160006101000a81548160ff02191690836002811115620003cc57fe5b021790555060208201518160000160016101000a81548160ff02191690836002811115620003f657fe5b0217905550604082015181600101908051906020019062000419929190620004f5565b50905050620004517fceedd61bbca926deaa55d80a237f12fe074ff3116131cbb72f8ae357ec2be1e260001b620004f260201b60201c565b620004857f1996e7099adbd4f809ba8f13ad38e0367b799d7e8bd0735f82d492a4a534c72660001b620004f260201b60201c565b6002339080600181540180825580915050600190039060005260206000200160009091909190916101000a81548173ffffffffffffffffffffffffffffffffffffffff021916908373ffffffffffffffffffffffffffffffffffffffff16021790555050620005a4565b50565b50565b828054600181600116156101000203166002900490600052602060002090601f016020900481019282601f106200053857805160ff191683800117855562000569565b8280016001018555821562000569579182015b82811115620005685782518255916020019190600101906200054b565b5b5090506200057891906200057c565b5090565b620005a191905b808211156200059d57600081600090555060010162000583565b5090565b90565b616ccb80620005b46000396000f3fe60806040523480156200001157600080fd5b5060043610620001605760003560e01c806373f04d7f11620000c95780638da5cb5b11620000875780638da5cb5b1462000987578063b93ad1e514620009d3578063c70f07b41462000a7f578063e2842d791462000ac6578063e6c399301462000b29578063f2fde38b1462000b9a5762000160565b806373f04d7f14620007c2578063743d3d6a1462000813578063854dbe5814620008445780638659242814620009255780638b8a417e14620009565762000160565b806364b785fa116200012357806364b785fa14620004e857806364feff20146200052d5780636ccdd74614620005cc5780636f77926b146200063157806371198eb61462000753578063715018a614620007b65762000160565b80634cb7a7ba14620001655780635231de8314620001f65780635c6db28114620002595780635cad5bfd14620002e15780635f8439e31462000332575b600080fd5b620001b4600480360360408110156200017d57600080fd5b81019080803573ffffffffffffffffffffffffffffffffffffffff1690602001909291908035906020019092919050505062000be1565b604051808273ffffffffffffffffffffffffffffffffffffffff1673ffffffffffffffffffffffffffffffffffffffff16815260200191505060405180910390f35b6200020062000c2d565b6040518080602001828103825283818151815260200191508051906020019060200280838360005b838110156200024557808201518184015260208101905062000228565b505050509050019250505060405180910390f35b62000288600480360360208110156200027157600080fd5b810190808035906020019092919050505062000efc565b6040518080602001828103825283818151815260200191508051906020019060200280838360005b83811015620002cd578082015181840152602081019050620002b0565b505050509050019250505060405180910390f35b6200033060048036036040811015620002f957600080fd5b8101908080359060200190929190803573ffffffffffffffffffffffffffffffffffffffff169060200190929190505050620011fc565b005b62000361600480360360208110156200034a57600080fd5b81019080803590602001909291905050506200163f565b604051808760028111156200037257fe5b60ff1681526020018681526020018573ffffffffffffffffffffffffffffffffffffffff1673ffffffffffffffffffffffffffffffffffffffff168152602001806020018060200180602001848103845287818151815260200191508051906020019080838360005b83811015620003f8578082015181840152602081019050620003db565b50505050905090810190601f168015620004265780820380516001836020036101000a031916815260200191505b50848103835286818151815260200191508051906020019080838360005b838110156200046157808201518184015260208101905062000444565b50505050905090810190601f1680156200048f5780820380516001836020036101000a031916815260200191505b50848103825285818151815260200191508051906020019060200280838360005b83811015620004cd578082015181840152602081019050620004b0565b50505050905001995050505050505050505060405180910390f35b62000517600480360360208110156200050057600080fd5b810190808035906020019092919050505062001b04565b6040518082815260200191505060405180910390f35b620005ca600480360360408110156200054557600080fd5b81019080803573ffffffffffffffffffffffffffffffffffffffff169060200190929190803590602001906401000000008111156200058357600080fd5b8201836020820111156200059657600080fd5b80359060200191846001830284011164010000000083111715620005b957600080fd5b909192939192939050505062001b26565b005b6200061b60048036036040811015620005e457600080fd5b81019080803573ffffffffffffffffffffffffffffffffffffffff16906020019092919080359060200190929190505050620020df565b6040518082815260200191505060405180910390f35b62000676600480360360208110156200064957600080fd5b81019080803573ffffffffffffffffffffffffffffffffffffffff1690602001909291905050506200210e565b604051808560028111156200068757fe5b60ff1681526020018460028111156200069c57fe5b60ff168152602001806020018373ffffffffffffffffffffffffffffffffffffffff1673ffffffffffffffffffffffffffffffffffffffff168152602001828103825284818151815260200191508051906020019080838360005b8381101562000714578082015181840152602081019050620006f7565b50505050905090810190601f168015620007425780820380516001836020036101000a031916815260200191505b509550505050505060405180910390f35b6200075d62002523565b6040518080602001828103825283818151815260200191508051906020019060200280838360005b83811015620007a257808201518184015260208101905062000785565b505050509050019250505060405180910390f35b620007c06200285e565b005b6200081160048036036040811015620007da57600080fd5b8101908080359060200190929190803573ffffffffffffffffffffffffffffffffffffffff16906020019092919050505062002bda565b005b62000842600480360360208110156200082b57600080fd5b8101908080359060200190929190505050620030cb565b005b62000923600480360360608110156200085c57600080fd5b8101908080359060200190929190803590602001906401000000008111156200088457600080fd5b8201836020820111156200089757600080fd5b80359060200191846001830284011164010000000083111715620008ba57600080fd5b909192939192939080359060200190640100000000811115620008dc57600080fd5b820183602082011115620008ef57600080fd5b803590602001918460018302840111640100000000831117156200091257600080fd5b9091929391929390505050620030ce565b005b62000954600480360360208110156200093d57600080fd5b8101908080359060200190929190505050620037fe565b005b62000985600480360360208110156200096e57600080fd5b810190808035906020019092919050505062003801565b005b6200099162003e41565b604051808273ffffffffffffffffffffffffffffffffffffffff1673ffffffffffffffffffffffffffffffffffffffff16815260200191505060405180910390f35b62000a7d60048036036060811015620009eb57600080fd5b81019080803560ff169060200190929190803573ffffffffffffffffffffffffffffffffffffffff1690602001909291908035906020019064010000000081111562000a3657600080fd5b82018360208201111562000a4957600080fd5b8035906020019184600183028401116401000000008311171562000a6c57600080fd5b909192939192939050505062003ef4565b005b62000ac46004803603602081101562000a9757600080fd5b81019080803573ffffffffffffffffffffffffffffffffffffffff16906020019092919050505062004406565b005b62000ad062004b4e565b6040518080602001828103825283818151815260200191508051906020019060200280838360005b8381101562000b1557808201518184015260208101905062000af8565b505050509050019250505060405180910390f35b62000b586004803603602081101562000b4157600080fd5b810190808035906020019092919050505062004e3f565b604051808273ffffffffffffffffffffffffffffffffffffffff1673ffffffffffffffffffffffffffffffffffffffff16815260200191505060405180910390f35b62000bdf6004803603602081101562000bb257600080fd5b81019080803573ffffffffffffffffffffffffffffffffffffffff16906020019092919050505062004e7c565b005b6005602052816000526040600020818154811062000bfb57fe5b906000526020600020016000915091509054906101000a900473ffffffffffffffffffffffffffffffffffffffff1681565b606062000c5d7f10fb910a34f3ec79634bedda1318e94925166186cfe1fd70cc23dd4dcfa2189660001b620030cb565b62000c8b7fa9f2601cf57c0ed5955429fa4d2e15104482e7c5d3596c5e550f6ba49181273c60001b620030cb565b62000cb97f43fbcf51859196f62acdaabbbb8bfa17cff9f1c1aed4cbce0bc262b095799cfa60001b620030cb565b62000cc362003e41565b73ffffffffffffffffffffffffffffffffffffffff163373ffffffffffffffffffffffffffffffffffffffff16141562000ddc5762000d257fce93b258f250955dc0a64f12f1dd6020fc0d0fc76d00fc6adb7d7e99eb1e49ff60001b620030cb565b62000d537fb4d46d64324431d32a1ca509cd24fff17496c25d234f71b5f17d20684c8a480860001b620030cb565b62000d817ff9be7a620b290f84eb9bd8f476ff4446a5a2c39fa0ef860c882e4b018c4acdb060001b620030cb565b600380548060200260200160405190810160405280929190818152602001828054801562000dcf57602002820191906000526020600020905b81548152602001906001019080831162000dba575b5050505050905062000ef9565b62000e0a7f3439d65d75f465c15a919d240dd7feab68cab4f55b6233bba927c71a60a835ef60001b620030cb565b62000e387f2b51c168639b1170ef52347258c0e249a71efc37e62c14d31ba02bac2e8c8f7960001b620030cb565b62000e667f3541d6501cc383498f63f748b2712ccca814c3e0cfe049bfb7cdc07aeff76ef260001b620030cb565b600460003373ffffffffffffffffffffffffffffffffffffffff1673ffffffffffffffffffffffffffffffffffffffff16815260200190815260200160002080548060200260200160405190810160405280929190818152602001828054801562000ef157602002820191906000526020600020905b81548152602001906001019080831162000edc575b505050505090505b90565b606062000f2c7f4fb6993b73daa0043bb064fafe8d72cec3d82679aa615aaf1a4de3a560bb5b2d60001b620030cb565b62000f5a7f8fb8c5b02cab304b3abd97e6278737508365aa45be532d48ff597df5ae9cb52160001b620030cb565b62000f887f7bab9e92dcf85a8882ef374535095fb386e5981937bb0a699b09c76f3740f69360001b620030cb565b62000fb67f1cacfa678995863b8115fb3037eb16f0b2b05214879b44f3f2ac864a4e37602260001b620030cb565b3373ffffffffffffffffffffffffffffffffffffffff166007600084815260200190815260200160002060000160019054906101000a900473ffffffffffffffffffffffffffffffffffffffff1673ffffffffffffffffffffffffffffffffffffffff1614806200105b57506200102c62003e41565b73ffffffffffffffffffffffffffffffffffffffff163373ffffffffffffffffffffffffffffffffffffffff16145b620010ce576040517f08c379a000000000000000000000000000000000000000000000000000000000815260040180806020018281038252601f8152602001807f50726f6a65637420616e6420436c69656e7420646f206e6f74206d617463680081525060200191505060405180910390fd5b620010fc7fc21febdc3c800e119c68047bd6523d0878dc93f10e9ae061181172a7b47e235a60001b620030cb565b6200112a7f2562de67c5e55d711b373111ed1981223e46e6e54a72300282bb9cf40e4133a860001b620030cb565b620011587fd2917c5eb9e60362f1972a1c377b2e23fc637bbb3ef262f8e903ac54c6a4ea2260001b620030cb565b60076000838152602001908152602001600020600301805480602002602001604051908101604052809291908181526020018280548015620011f057602002820191906000526020600020905b8160009054906101000a900473ffffffffffffffffffffffffffffffffffffffff1673ffffffffffffffffffffffffffffffffffffffff1681526020019060010190808311620011a5575b50505050509050919050565b6200122a7fbbd3f355d77656a0f50aae973ab5793981ce48967d721219b0105f6db34d30ba60001b620037fe565b620012587fbc95bf17ca2009e2526d43c8992d6f4437bc5d005edae2988d77646f8582350160001b620037fe565b620012867f522f1571fb48ef6ea3e9e0b6f9dab138206492fec89844e7bf1ded65794e580660001b620037fe565b620012b47f6c41c5952a4021ee48db6814adc2fffc422ac8f2eb8425ec003f86ea58b3c86460001b620037fe565b3373ffffffffffffffffffffffffffffffffffffffff166000809054906101000a900473ffffffffffffffffffffffffffffffffffffffff1673ffffffffffffffffffffffffffffffffffffffff161462001377576040517f08c379a00000000000000000000000000000000000000000000000000000000081526004018080602001828103825260208152602001807f4f776e61626c653a2063616c6c6572206973206e6f7420746865206f776e657281525060200191505060405180910390fd5b620013a57f5a35e29a7cc84d55f7a9678e9dc2ede30fb5f67f6aff0b42bf6c4b23d0a937cc60001b620037fe565b620013d37f1c760e035c6926b5f9779dc98270deadf3392737a2366e2622768dc99f97ee8e60001b620037fe565b620014017ff0feb3870d447f71930e00f9ca97c9d6883a5d6d4b863e8dc4d69b5055cea79960001b620030cb565b6200142f7fe12d0b0c0765ddc037c2ff47ab613c4fa410a6b29c16fa4374ce07c6d2626b1f60001b620030cb565b6200145d7fa19ead6455640c33f4052d2394aafde53dd29c6cecb580fdb83021399ed88acd60001b620030cb565b600460008273ffffffffffffffffffffffffffffffffffffffff1673ffffffffffffffffffffffffffffffffffffffff168152602001908152602001600020829080600181540180825580915050600190039060005260206000200160009091909190915055620014f17f8d0a572a3573f918890ae83def72a56974d6a9b428892a1cd6a9f051f092a39260001b620030cb565b6200151f7fd1568d70c4e86347cf2cf64a3bfd4189b6aee7e2a5164ec8483c120755c1415660001b620030cb565b806007600084815260200190815260200160002060000160016101000a81548173ffffffffffffffffffffffffffffffffffffffff021916908373ffffffffffffffffffffffffffffffffffffffff160217905550620015a27fe47d3651bc7b210b850a5b6c2bfa83b59f92a8f8ea0762e3ceafca663bf2d46560001b620030cb565b620015d07f1a57ecf6837667910b19345876347e1c839c4665f0205a6b51d4aa02b1f1320860001b620030cb565b7f4256f31675358760da332c63daf619de7a463cd7afe585631a8f9a6a59cf08008282604051808381526020018273ffffffffffffffffffffffffffffffffffffffff1673ffffffffffffffffffffffffffffffffffffffff1681526020019250505060405180910390a15050565b60008060006060806060620016777fbbd43c7a6682c13aca97818cc2b9de0b8282c76ade9a1a5258033834b2b2fe4360001b620030cb565b620016a57fb17a1949dfe905638ee21f5e419469c217b97c70f4d44f422e081577cb86d7ce60001b620030cb565b620016d37f6918550fdf43e14aa9e64b5eb07cb953d7a304bb8e1df2c9db6941db12d8244e60001b620030cb565b620017017f4a1ec43d00e784560cb3fe567f4d12722070671cdddd09a6acd6a665e43a265560001b620030cb565b6007600088815260200190815260200160002060000160019054906101000a900473ffffffffffffffffffffffffffffffffffffffff1673ffffffffffffffffffffffffffffffffffffffff163373ffffffffffffffffffffffffffffffffffffffff161480620017a657506200177762003e41565b73ffffffffffffffffffffffffffffffffffffffff163373ffffffffffffffffffffffffffffffffffffffff16145b620017fd576040517f08c379a000000000000000000000000000000000000000000000000000000000815260040180806020018281038252602781526020018062006c6f6027913960400191505060405180910390fd5b6200182b7fe7e44bd0d42209ab238f27a349d3f37e1fb6e6938c817caacaf8aa73e99a381160001b620030cb565b620018597f482eda9c3b330b148759de90f11a05b3e3bccad2bf01223b5f9726cb7f2d810860001b620030cb565b620018877f370e07e59fbeda2b86a52e13136976b2bfcb387ae1c66bd442d466e6006e689060001b620030cb565b6007600088815260200190815260200160002060000160009054906101000a900460ff1687600760008a815260200190815260200160002060000160019054906101000a900473ffffffffffffffffffffffffffffffffffffffff16600760008b8152602001908152602001600020600101600760008c8152602001908152602001600020600201600760008d8152602001908152602001600020600301828054600181600116156101000203166002900480601f016020809104026020016040519081016040528092919081815260200182805460018160011615610100020316600290048015620019be5780601f106200199257610100808354040283529160200191620019be565b820191906000526020600020905b815481529060010190602001808311620019a057829003601f168201915b50505050509250818054600181600116156101000203166002900480601f01602080910402602001604051908101604052809291908181526020018280546001816001161561010002031660029004801562001a5e5780601f1062001a325761010080835404028352916020019162001a5e565b820191906000526020600020905b81548152906001019060200180831162001a4057829003601f168201915b505050505091508080548060200260200160405190810160405280929190818152602001828054801562001ae857602002820191906000526020600020905b8160009054906101000a900473ffffffffffffffffffffffffffffffffffffffff1673ffffffffffffffffffffffffffffffffffffffff168152602001906001019080831162001a9d575b5050505050905095509550955095509550955091939550919395565b6003818154811062001b1257fe5b906000526020600020016000915090505481565b62001b547fbbd3f355d77656a0f50aae973ab5793981ce48967d721219b0105f6db34d30ba60001b620037fe565b62001b827fbc95bf17ca2009e2526d43c8992d6f4437bc5d005edae2988d77646f8582350160001b620037fe565b62001bb07f522f1571fb48ef6ea3e9e0b6f9dab138206492fec89844e7bf1ded65794e580660001b620037fe565b62001bde7f6c41c5952a4021ee48db6814adc2fffc422ac8f2eb8425ec003f86ea58b3c86460001b620037fe565b3373ffffffffffffffffffffffffffffffffffffffff166000809054906101000a900473ffffffffffffffffffffffffffffffffffffffff1673ffffffffffffffffffffffffffffffffffffffff161462001ca1576040517f08c379a00000000000000000000000000000000000000000000000000000000081526004018080602001828103825260208152602001807f4f776e61626c653a2063616c6c6572206973206e6f7420746865206f776e657281525060200191505060405180910390fd5b62001ccf7f5a35e29a7cc84d55f7a9678e9dc2ede30fb5f67f6aff0b42bf6c4b23d0a937cc60001b620037fe565b62001cfd7f1c760e035c6926b5f9779dc98270deadf3392737a2366e2622768dc99f97ee8e60001b620037fe565b62001d2b7f1699fe0ca65388c7a4c86b1ae1c76b7cecc44d912f133218c0d4675ad6c11a1460001b620030cb565b62001d597f67a1baeb58619dce46bd67858226b4bae65fb57d5db4af92f965be8a6c99902a60001b620030cb565b62001d877fafde7d5ff9e18e490ee8525ff391033ea51b65208c0a398a4f27a34f13767e6860001b620030cb565b600083838362001d9662003e41565b60405162001da49062005337565b808573ffffffffffffffffffffffffffffffffffffffff1673ffffffffffffffffffffffffffffffffffffffff168152602001806020018373ffffffffffffffffffffffffffffffffffffffff1673ffffffffffffffffffffffffffffffffffffffff1681526020018281038252858582818152602001925080828437600081840152601f19601f82011690508083019250505095505050505050604051809103906000f08015801562001e5c573d6000803e3d6000fd5b50905062001e8d7f28010f28a9600fb8a9073f336f7321097904757b7395ab06446e70ee5e11b9c560001b620030cb565b62001ebb7fc0f346cafeacaadf1d0ffe48cbf1aaed3add051d36c1e339480705bd1f665a6260001b620030cb565b600560008573ffffffffffffffffffffffffffffffffffffffff1673ffffffffffffffffffffffffffffffffffffffff168152602001908152602001600020819080600181540180825580915050600190039060005260206000200160009091909190916101000a81548173ffffffffffffffffffffffffffffffffffffffff021916908373ffffffffffffffffffffffffffffffffffffffff16021790555062001f897f0f490ca6c687dbdf4786f3f8a121e4b0575ef29402b45b3e0a45038fcc8d1a7360001b620030cb565b62001fb77f3f34aaa7ad5f091ca856f3d893b5472bd3a395847c3c8a423e4ff3650e58e89f60001b620030cb565b6001819080600181540180825580915050600190039060005260206000200160009091909190916101000a81548173ffffffffffffffffffffffffffffffffffffffff021916908373ffffffffffffffffffffffffffffffffffffffff160217905550620020487f8bf2d89db2a161b13e0a4a66bd4a0fc710da3f680623b7661adfcd05ef126a2c60001b620030cb565b620020767f18864cc1f38c037a6de2a9b395dd3c89fa0ff8bd1464346d730a4aa7e02cc66460001b620030cb565b7f908a1d72896b3c6e31c2e9ac8d65ae9676a54dd26195d4496442c50ff1b0b79781604051808273ffffffffffffffffffffffffffffffffffffffff1673ffffffffffffffffffffffffffffffffffffffff16815260200191505060405180910390a150505050565b60046020528160005260406000208181548110620020f957fe5b90600052602060002001600091509150505481565b60008060606000620021437fe490a9cee36e189456752331938b426f9dabe38ed9cad9a22cca74a38d282f8c60001b620030cb565b620021717fbbe356c7a4acd7dcdb07eb8e4d60c9fb136e213d2f36e5adc3e9285a433b01a760001b620030cb565b6200219f7f992d0eca4c60721b51a38e4a13e2229fbb78dfa8be3e30025969ab7056ac616460001b620030cb565b620021cd7f3ab2fc008bcf97eb252c55d1d8d9e071124a1ac1da0708726e80370bfd6f885c60001b620030cb565b60016002811115620021db57fe5b600660003373ffffffffffffffffffffffffffffffffffffffff1673ffffffffffffffffffffffffffffffffffffffff16815260200190815260200160002060000160009054906101000a900460ff1660028111156200223757fe5b14620022ab576040517f08c379a00000000000000000000000000000000000000000000000000000000081526004018080602001828103825260198152602001807f53656e646572206973206e6f742077686974656c69737465640000000000000081525060200191505060405180910390fd5b620022d97fe90d50500ea6686f3c31179251e3f8feb79c0d3cd1ec0be62baad15f508401bb60001b620030cb565b620023077fafb3a32d5f6607b367bcad20ee394dbfb60676d182eaeb59db66ded6e5f1e27560001b620030cb565b620023357f8d4cd8211ca4c54d0d3ff17b591d6c4c8f9ca358b629b8a592d0bbd19f1bf83860001b620030cb565b620023637f8a9ec71c405d21b03da06a1e20e79784295d928da160d4fa8ce0680301a4448f60001b620030cb565b620023917f7c531c74d460ce5752b1129860de55198d4159a2b5cf67c22f86aa46268be22e60001b620030cb565b600660008673ffffffffffffffffffffffffffffffffffffffff1673ffffffffffffffffffffffffffffffffffffffff16815260200190815260200160002060000160009054906101000a900460ff16600660008773ffffffffffffffffffffffffffffffffffffffff1673ffffffffffffffffffffffffffffffffffffffff16815260200190815260200160002060000160019054906101000a900460ff16600660008873ffffffffffffffffffffffffffffffffffffffff1673ffffffffffffffffffffffffffffffffffffffff16815260200190815260200160002060010187818054600181600116156101000203166002900480601f0160208091040260200160405190810160405280929190818152602001828054600181600116156101000203166002900480156200250d5780601f10620024e1576101008083540402835291602001916200250d565b820191906000526020600020905b815481529060010190602001808311620024ef57829003601f168201915b5050505050915093509350935093509193509193565b6060620025537f5f07edcca9d290f45aa0593716a1d8013a261bd3fd73e1cfd5667613bd1d9c8f60001b620030cb565b620025817f7421976cd9fc6c2726027a6b2a34e73e038871059cc14515dd539f4fe261513260001b620030cb565b620025af7fbea3bb107dab8876876c2f9a7696c0a4c86993180c863fbaca9dcf5bf0246bba60001b620030cb565b620025b962003e41565b73ffffffffffffffffffffffffffffffffffffffff163373ffffffffffffffffffffffffffffffffffffffff16141562002708576200261b7f06d39f8c93fae9ab033767aab7c768e277fd140d862aa020cdd9c0a54a0f9ed960001b620030cb565b620026497ff021a938a8fe43d8747ff24bfee14e270a87b015b9b53f95dffa710f73fb6baa60001b620030cb565b620026777f150cc61e7184711791f958b0cce289d1fab5f8421d2c394d261dbd09aaa7300f60001b620030cb565b6001805480602002602001604051908101604052809291908181526020018280548015620026fb57602002820191906000526020600020905b8160009054906101000a900473ffffffffffffffffffffffffffffffffffffffff1673ffffffffffffffffffffffffffffffffffffffff1681526020019060010190808311620026b0575b505050505090506200285b565b620027367f15a0f70d294035b3f053708c8996b77abb697b47eb8bf96b18935a8e5e864a1e60001b620030cb565b620027647ff96d81bce6faf439e2ffeec7fe46946947a2e3b3ec5091c22972a846c649f11460001b620030cb565b620027927f41d7867c1f27214143e1b758dbcca59bb00e4d0031d46a385e7f11905c48dead60001b620030cb565b600560003373ffffffffffffffffffffffffffffffffffffffff1673ffffffffffffffffffffffffffffffffffffffff1681526020019081526020016000208054806020026020016040519081016040528092919081815260200182805480156200285357602002820191906000526020600020905b8160009054906101000a900473ffffffffffffffffffffffffffffffffffffffff1673ffffffffffffffffffffffffffffffffffffffff168152602001906001019080831162002808575b505050505090505b90565b6200288c7fbbd3f355d77656a0f50aae973ab5793981ce48967d721219b0105f6db34d30ba60001b620037fe565b620028ba7fbc95bf17ca2009e2526d43c8992d6f4437bc5d005edae2988d77646f8582350160001b620037fe565b620028e87f522f1571fb48ef6ea3e9e0b6f9dab138206492fec89844e7bf1ded65794e580660001b620037fe565b620029167f6c41c5952a4021ee48db6814adc2fffc422ac8f2eb8425ec003f86ea58b3c86460001b620037fe565b3373ffffffffffffffffffffffffffffffffffffffff166000809054906101000a900473ffffffffffffffffffffffffffffffffffffffff1673ffffffffffffffffffffffffffffffffffffffff1614620029d9576040517f08c379a00000000000000000000000000000000000000000000000000000000081526004018080602001828103825260208152602001807f4f776e61626c653a2063616c6c6572206973206e6f7420746865206f776e657281525060200191505060405180910390fd5b62002a077f5a35e29a7cc84d55f7a9678e9dc2ede30fb5f67f6aff0b42bf6c4b23d0a937cc60001b620037fe565b62002a357f1c760e035c6926b5f9779dc98270deadf3392737a2366e2622768dc99f97ee8e60001b620037fe565b62002a637ffd434ce63a5cfc7c9f33f307d1acf2d2c433b55ab6d6e581a3f51d9d16c1166360001b620037fe565b62002a917f5d9d1bcb622c1fd87aea34729e91527f413096bf03f2a783a0b6559e44b987c160001b620037fe565b62002abf7fe09d1f792c1e9d61df867dd9bf8a53f996e088f02d0431f62605424ed626516260001b620037fe565b600073ffffffffffffffffffffffffffffffffffffffff166000809054906101000a900473ffffffffffffffffffffffffffffffffffffffff1673ffffffffffffffffffffffffffffffffffffffff167f8be0079c531659141344cd1fd0a4f28419497f9722a3daafe3b4186f6b6457e060405160405180910390a362002b697fd77d13fda05eb234da425db383f986870bdef7b1aeda87f4551eec9a3c8cec7760001b620037fe565b62002b977fca7b2226d03a90ce152a52499168e2d16e1ada73d256ab0b0327ef1b564e88b260001b620037fe565b60008060006101000a81548173ffffffffffffffffffffffffffffffffffffffff021916908373ffffffffffffffffffffffffffffffffffffffff160217905550565b62002c087fbbd3f355d77656a0f50aae973ab5793981ce48967d721219b0105f6db34d30ba60001b620037fe565b62002c367fbc95bf17ca2009e2526d43c8992d6f4437bc5d005edae2988d77646f8582350160001b620037fe565b62002c647f522f1571fb48ef6ea3e9e0b6f9dab138206492fec89844e7bf1ded65794e580660001b620037fe565b62002c927f6c41c5952a4021ee48db6814adc2fffc422ac8f2eb8425ec003f86ea58b3c86460001b620037fe565b3373ffffffffffffffffffffffffffffffffffffffff166000809054906101000a900473ffffffffffffffffffffffffffffffffffffffff1673ffffffffffffffffffffffffffffffffffffffff161462002d55576040517f08c379a00000000000000000000000000000000000000000000000000000000081526004018080602001828103825260208152602001807f4f776e61626c653a2063616c6c6572206973206e6f7420746865206f776e657281525060200191505060405180910390fd5b62002d837f5a35e29a7cc84d55f7a9678e9dc2ede30fb5f67f6aff0b42bf6c4b23d0a937cc60001b620037fe565b62002db17f1c760e035c6926b5f9779dc98270deadf3392737a2366e2622768dc99f97ee8e60001b620037fe565b62002ddf7f7d4c1dde59ceecf4d44cc210675c1ce82accfac080b194cb4cdf75b6197ddb2a60001b620030cb565b62002e0d7f0db31003867339946498245586b1025d9f0de04049cbe6da1888aa99d2f494dc60001b620030cb565b62002e3b7fbcb68816d34648c52d2565d32d2d80e81e993118014eecaacf5cec31426b59c460001b620030cb565b62002e697f4a8393ab576ed99e1cc82f0a91aaa93462d9e3797f3dac6f1739f78bb9c74caf60001b620030cb565b6001600281111562002e7757fe5b6007600084815260200190815260200160002060000160009054906101000a900460ff16600281111562002ea757fe5b1462002eff576040517f08c379a000000000000000000000000000000000000000000000000000000000815260040180806020018281038252602381526020018062006c2b6023913960400191505060405180910390fd5b62002f2d7f988dadf207fdd9815b4d90e6a00706ab85fcfed2eda067178877818184e7bc9460001b620030cb565b62002f5b7f8f527810c4d7bba5015653d67ea4dcbb54c589262a92d08f17bc7e2024ff302b60001b620030cb565b62002f897f81510c448e1e74386d6f23a64ebdf5a77762f5abecf6538045b23c03d57ef2d960001b620030cb565b60076000838152602001908152602001600020600301819080600181540180825580915050600190039060005260206000200160009091909190916101000a81548173ffffffffffffffffffffffffffffffffffffffff021916908373ffffffffffffffffffffffffffffffffffffffff1602179055506200302e7ff15413d3788be6b6549cf789755a85caface7cd97d5a7e3d1878b158c7248efb60001b620030cb565b6200305c7ff0109df0435bb85b3e1f012cd43d0e7c286ac102082fff56f298d89707c39c7d60001b620030cb565b7f3692cddee3f850c6a39cfd231903164d5b29a337cad2a6763434d94a5ed4bb388282604051808381526020018273ffffffffffffffffffffffffffffffffffffffff1673ffffffffffffffffffffffffffffffffffffffff1681526020019250505060405180910390a15050565b50565b620030fc7fbbd3f355d77656a0f50aae973ab5793981ce48967d721219b0105f6db34d30ba60001b620037fe565b6200312a7fbc95bf17ca2009e2526d43c8992d6f4437bc5d005edae2988d77646f8582350160001b620037fe565b620031587f522f1571fb48ef6ea3e9e0b6f9dab138206492fec89844e7bf1ded65794e580660001b620037fe565b620031867f6c41c5952a4021ee48db6814adc2fffc422ac8f2eb8425ec003f86ea58b3c86460001b620037fe565b3373ffffffffffffffffffffffffffffffffffffffff166000809054906101000a900473ffffffffffffffffffffffffffffffffffffffff1673ffffffffffffffffffffffffffffffffffffffff161462003249576040517f08c379a00000000000000000000000000000000000000000000000000000000081526004018080602001828103825260208152602001807f4f776e61626c653a2063616c6c6572206973206e6f7420746865206f776e657281525060200191505060405180910390fd5b620032777f5a35e29a7cc84d55f7a9678e9dc2ede30fb5f67f6aff0b42bf6c4b23d0a937cc60001b620037fe565b620032a57f1c760e035c6926b5f9779dc98270deadf3392737a2366e2622768dc99f97ee8e60001b620037fe565b620032d37feb712b18b09f9b9d7ef14a1e36b12698cc88186060eac24fbeafbada836b220460001b620030cb565b620033017f79ae5319ead690dc01c0e237b40b48c58753d403c65f233fabcac77495df43d760001b620030cb565b6200332f7f707f9f1e0863acce6ce943384643666eb13e962077ac08ee91b305653ad4337d60001b620030cb565b6200335d7f463cea75d464829eed8c47594d793dcfac622f398bc740dfb256449c7f8639fc60001b620030cb565b600060028111156200336b57fe5b6007600087815260200190815260200160002060000160009054906101000a900460ff1660028111156200339b57fe5b14620033f3576040517f08c379a000000000000000000000000000000000000000000000000000000000815260040180806020018281038252602181526020018062006c4e6021913960400191505060405180910390fd5b620034217f8524063bb2b1978b8bd7ee1528c928f5ed8e2fa14d39ee042b73b693125cf48c60001b620030cb565b6200344f7f4032b642e80d500bb20298be71ec08350b92b950bc3c503655fed2e934d1c87360001b620030cb565b6200347d7f1a5253ccc42790cf2efa66c82aad189d0a4bb9f0b268b6a9e4e5c5bad75e362c60001b620030cb565b6060600067ffffffffffffffff811180156200349857600080fd5b50604051908082528060200260200182016040528015620034c85781602001602082028036833780820191505090505b509050620034f97fd474a61ebe0e1dc848efa88ff569e8994bf4e78971cdcd85cec205172123fc3760001b620030cb565b620035277f7768c4447863ad8a974bb9475c98a5f2a79f0784576bdffe897f8d261d34c05a60001b620030cb565b6040518060a00160405280600160028111156200354057fe5b8152602001600073ffffffffffffffffffffffffffffffffffffffff16815260200186868080601f016020809104026020016040519081016040528093929190818152602001838380828437600081840152601f19601f82011690508083019250505050505050815260200184848080601f016020809104026020016040519081016040528093929190818152602001838380828437600081840152601f19601f820116905080830192505050505050508152602001828152506007600088815260200190815260200160002060008201518160000160006101000a81548160ff021916908360028111156200363257fe5b021790555060208201518160000160016101000a81548173ffffffffffffffffffffffffffffffffffffffff021916908373ffffffffffffffffffffffffffffffffffffffff16021790555060408201518160010190805190602001906200369c92919062005345565b506060820151816002019080519060200190620036bb92919062005345565b506080820151816003019080519060200190620036da929190620053cc565b509050506200370c7f04b97e18d848adf7bdf1911044139bf94ccb7dd420b8732aabf28dcdd0b525ec60001b620030cb565b6200373a7f77db821c3d2632c087a02991842895a2ac907cba075f55800cadc44c55de2a1860001b620030cb565b6003869080600181540180825580915050600190039060005260206000200160009091909190915055620037917f09582e8cd6af387dc7edbb056ae8c289e56af335256b427dd3d2868dd8d3751960001b620030cb565b620037bf7f9555b1d07155da47ac45d0ba96c6ef8783b18530fd1739d50483995adc83efd060001b620030cb565b7f2a5ab9ec691fb839007cf12d3897d875d6526e4abb4c51b9d7a0fc8a98d05fdd866040518082815260200191505060405180910390a1505050505050565b50565b6200382f7fbbd3f355d77656a0f50aae973ab5793981ce48967d721219b0105f6db34d30ba60001b620037fe565b6200385d7fbc95bf17ca2009e2526d43c8992d6f4437bc5d005edae2988d77646f8582350160001b620037fe565b6200388b7f522f1571fb48ef6ea3e9e0b6f9dab138206492fec89844e7bf1ded65794e580660001b620037fe565b620038b97f6c41c5952a4021ee48db6814adc2fffc422ac8f2eb8425ec003f86ea58b3c86460001b620037fe565b3373ffffffffffffffffffffffffffffffffffffffff166000809054906101000a900473ffffffffffffffffffffffffffffffffffffffff1673ffffffffffffffffffffffffffffffffffffffff16146200397c576040517f08c379a00000000000000000000000000000000000000000000000000000000081526004018080602001828103825260208152602001807f4f776e61626c653a2063616c6c6572206973206e6f7420746865206f776e657281525060200191505060405180910390fd5b620039aa7f5a35e29a7cc84d55f7a9678e9dc2ede30fb5f67f6aff0b42bf6c4b23d0a937cc60001b620037fe565b620039d87f1c760e035c6926b5f9779dc98270deadf3392737a2366e2622768dc99f97ee8e60001b620037fe565b62003a067fd0bbff4d9b196274a79b73e905cbacfdb3dd336e51f765691a91de49df79845760001b620030cb565b62003a347fcfac9bc2fcdb09d3719122b1d0bfd122d069b6b054d9f3cb12d5a9465daf233860001b620030cb565b62003a627f0793b6c3f972bbae3afa9c5f64c9444bd113241f731701bf786b92037f5e642e60001b620030cb565b62003a907fa0a86a28f21b31dda3693dd6060b1f6ce741bcce0cb78d0077c141b9e6bffaa560001b620030cb565b6000600281111562003a9e57fe5b6007600083815260200190815260200160002060000160009054906101000a900460ff16600281111562003ace57fe5b141562003b43576040517f08c379a00000000000000000000000000000000000000000000000000000000081526004018080602001828103825260168152602001807f50726f6a65637420646f6573206e6f742065786973740000000000000000000081525060200191505060405180910390fd5b62003b717f87b2d6298fe9bb427c8a40d9c19523d9c813b706b0e629e4fadaab87e4f8c19060001b620030cb565b62003b9f7f4eaf205781e6768523b02862879bef590db31f1f0c171f63fe5ea71f7c26f99160001b620030cb565b62003bcd7f19d9f112f1f42cb63b8e19019a83fc8b9e8bf65a9c7f2a47f5e2d09a646511f760001b620030cb565b6001600281111562003bdb57fe5b6007600083815260200190815260200160002060000160009054906101000a900460ff16600281111562003c0b57fe5b141562003cdb5762003c407f0d976a840be9e8eaf5abc658f85fb2990dd9c4a33f9edefebc15e9ab8ff197ae60001b620030cb565b62003c6e7f401c679a1397365f3258413ff559b001d916f54bbe380f603e814d12048ab52f60001b620030cb565b62003c9c7f089a6b303d82a44703541bc237d8c29e465a053de0882771f20a5ca77a10cf7d60001b620030cb565b60026007600083815260200190815260200160002060000160006101000a81548160ff0219169083600281111562003cd057fe5b021790555062003d71565b62003d097fda3eb81fbe790715bd2907df4b033ac7aa487592266ea8a02ff0a3fcbc3dcf3760001b620030cb565b62003d377f50a05269f04d4688b4ec1c88e643b8b8bd4f3d5803af5b2ff3a1819680c11c4560001b620030cb565b60016007600083815260200190815260200160002060000160006101000a81548160ff0219169083600281111562003d6b57fe5b02179055505b62003d9f7fce5a2e9df95e042eb5d1c5441ef0914c81463306e2b18ee833404d07ce9f170c60001b620030cb565b62003dcd7f26c5b3bebc1ef489284077f6e98371757917803cd125bf886b9d2f32bfd687de60001b620030cb565b7f5d1817f0324e15d9b2f28fd0374b935f9c8ecb961c916140425d4c2936ed17be816007600084815260200190815260200160002060000160009054906101000a900460ff166040518083815260200182600281111562003e2a57fe5b60ff1681526020019250505060405180910390a150565b600062003e717f997c03ff3d60a17a89c98c193b8140f8ca6b8c408d964f1de9e87c5525a5c9ee60001b620037fe565b62003e9f7fa480be44f68b4e3f9ad8d7cfd0adf549adf540cada54dc05b640d03f41f2a5a760001b620037fe565b62003ecd7f2130671547929ecb1dfd61fdbe22b3260f088a8b752b444a52f115075a98ace560001b620037fe565b6000809054906101000a900473ffffffffffffffffffffffffffffffffffffffff16905090565b62003f227fbbd3f355d77656a0f50aae973ab5793981ce48967d721219b0105f6db34d30ba60001b620037fe565b62003f507fbc95bf17ca2009e2526d43c8992d6f4437bc5d005edae2988d77646f8582350160001b620037fe565b62003f7e7f522f1571fb48ef6ea3e9e0b6f9dab138206492fec89844e7bf1ded65794e580660001b620037fe565b62003fac7f6c41c5952a4021ee48db6814adc2fffc422ac8f2eb8425ec003f86ea58b3c86460001b620037fe565b3373ffffffffffffffffffffffffffffffffffffffff166000809054906101000a900473ffffffffffffffffffffffffffffffffffffffff1673ffffffffffffffffffffffffffffffffffffffff16146200406f576040517f08c379a00000000000000000000000000000000000000000000000000000000081526004018080602001828103825260208152602001807f4f776e61626c653a2063616c6c6572206973206e6f7420746865206f776e657281525060200191505060405180910390fd5b6200409d7f5a35e29a7cc84d55f7a9678e9dc2ede30fb5f67f6aff0b42bf6c4b23d0a937cc60001b620037fe565b620040cb7f1c760e035c6926b5f9779dc98270deadf3392737a2366e2622768dc99f97ee8e60001b620037fe565b620040f97fde076d19f1f2457370491d92eddb3ca09ec47ddd01c1275990ae178012ec5e8060001b620030cb565b620041277fbf2773a8cd02c34990f7c8e6c670eca80eea6143a68745e1b7dd601d561eddfd60001b620030cb565b620041557fd79815231035393d54351ec9b7c6410f993422252c63b3f60923c191bea968e160001b620030cb565b6040518060600160405280600160028111156200416e57fe5b81526020018560028111156200418057fe5b815260200183838080601f016020809104026020016040519081016040528093929190818152602001838380828437600081840152601f19601f82011690508083019250505050505050815250600660008573ffffffffffffffffffffffffffffffffffffffff1673ffffffffffffffffffffffffffffffffffffffff16815260200190815260200160002060008201518160000160006101000a81548160ff021916908360028111156200423157fe5b021790555060208201518160000160016101000a81548160ff021916908360028111156200425b57fe5b021790555060408201518160010190805190602001906200427e92919062005345565b50905050620042b07f0ac23b8bc7faae6d5c284fcfc3bb1950c0d5e69c4d2989d94b0b8a8eb02de16d60001b620030cb565b620042de7f2a70832fcdcab0db89eaa1725f22f59f3c3c800059509debe733e26f8a6397fd60001b620030cb565b6002839080600181540180825580915050600190039060005260206000200160009091909190916101000a81548173ffffffffffffffffffffffffffffffffffffffff021916908373ffffffffffffffffffffffffffffffffffffffff1602179055506200436f7f662a4e49821475c746590e9a83c85c77ecdcac8e8bf9e111c16e5cc3807107e960001b620030cb565b6200439d7fb112c40691d65c95766a8790f2c0f278f4ba6cfdd7f9d32a2a94027ab947571e60001b620030cb565b7fdf54227b669e96e69d8f583a07d577cb4081ab69c78dbcff8fce5af67e1ac54683604051808273ffffffffffffffffffffffffffffffffffffffff1673ffffffffffffffffffffffffffffffffffffffff16815260200191505060405180910390a150505050565b620044347fbbd3f355d77656a0f50aae973ab5793981ce48967d721219b0105f6db34d30ba60001b620037fe565b620044627fbc95bf17ca2009e2526d43c8992d6f4437bc5d005edae2988d77646f8582350160001b620037fe565b620044907f522f1571fb48ef6ea3e9e0b6f9dab138206492fec89844e7bf1ded65794e580660001b620037fe565b620044be7f6c41c5952a4021ee48db6814adc2fffc422ac8f2eb8425ec003f86ea58b3c86460001b620037fe565b3373ffffffffffffffffffffffffffffffffffffffff166000809054906101000a900473ffffffffffffffffffffffffffffffffffffffff1673ffffffffffffffffffffffffffffffffffffffff161462004581576040517f08c379a00000000000000000000000000000000000000000000000000000000081526004018080602001828103825260208152602001807f4f776e61626c653a2063616c6c6572206973206e6f7420746865206f776e657281525060200191505060405180910390fd5b620045af7f5a35e29a7cc84d55f7a9678e9dc2ede30fb5f67f6aff0b42bf6c4b23d0a937cc60001b620037fe565b620045dd7f1c760e035c6926b5f9779dc98270deadf3392737a2366e2622768dc99f97ee8e60001b620037fe565b6200460b7f69da91dc987251b150278a1b7a6b2441c01324ee9916c628970c69865c12a43960001b620030cb565b620046397fe34977de518b72d96c8d3185195e8a0a6dba5e5d5b4f0de3576e0d26469e9e2260001b620030cb565b620046677f38fe70868a49c5b0520c514a50b22dd0965e26141801ecfc9926d72fadaa5ac160001b620030cb565b620046957f899262ac84358e6459c8acbe6d51826175d18af3c028b2b0454f25d81712105b60001b620030cb565b60006002811115620046a357fe5b600660008373ffffffffffffffffffffffffffffffffffffffff1673ffffffffffffffffffffffffffffffffffffffff16815260200190815260200160002060000160009054906101000a900460ff166002811115620046ff57fe5b141562004774576040517f08c379a00000000000000000000000000000000000000000000000000000000081526004018080602001828103825260138152602001807f5573657220646f6573206e6f742065786973740000000000000000000000000081525060200191505060405180910390fd5b620047a27f3115861604cb6202d443cc47d5d01c8f96bc09ce2b93762462a4c0ef59f7de5d60001b620030cb565b620047d07f8e45ca98951eb88024b511f27f2417ba55e501cae725cec97aecb8ea813ebeed60001b620030cb565b620047fe7f84ccb55f7fcae4c197346c98b187f39f897fc892ba8621890bfa48be93361b7760001b620030cb565b600160028111156200480c57fe5b600660008373ffffffffffffffffffffffffffffffffffffffff1673ffffffffffffffffffffffffffffffffffffffff16815260200190815260200160002060000160009054906101000a900460ff1660028111156200486857fe5b141562004964576200489d7fbed1eadb35d2f53990aced3b05de7b752bf294151317d2f0dc5c397422e75fcd60001b620030cb565b620048cb7fbae77395790f2b6d952ffce434895afab45c196a3e2354b4b35c357a18f9bcaf60001b620030cb565b620048f97fa3e7ec08633215f336db487d2689a25227e1ef89a489912333394379bf77030760001b620030cb565b6002600660008373ffffffffffffffffffffffffffffffffffffffff1673ffffffffffffffffffffffffffffffffffffffff16815260200190815260200160002060000160006101000a81548160ff021916908360028111156200495957fe5b021790555062004a26565b620049927f2ea4a923bb57c5d24bd3fab433eaf639ad027a762bec7396c565281ffb128c5160001b620030cb565b620049c07f685cd515dcb0f9ae255ff774d4946a31901cb22db25c02536e05f9e5d415129d60001b620030cb565b6001600660008373ffffffffffffffffffffffffffffffffffffffff1673ffffffffffffffffffffffffffffffffffffffff16815260200190815260200160002060000160006101000a81548160ff0219169083600281111562004a2057fe5b02179055505b62004a547fd01f7404758d8dd4f6864d1972014da94eb7f1c7efa637df96e32e4d4711060160001b620030cb565b62004a827febfc81c0147a776a1a287e021b8b27d21dad9175dcd441450e92e84458ee1a1f60001b620030cb565b7f265ce5b4a01d5d792e85f3e35b7f36e9951dacac00dae63f48c9f813b9cc6d3081600660008473ffffffffffffffffffffffffffffffffffffffff1673ffffffffffffffffffffffffffffffffffffffff16815260200190815260200160002060000160009054906101000a900460ff16604051808373ffffffffffffffffffffffffffffffffffffffff1673ffffffffffffffffffffffffffffffffffffffff16815260200182600281111562004b3757fe5b60ff1681526020019250505060405180910390a150565b606062004b7e7fbbd3f355d77656a0f50aae973ab5793981ce48967d721219b0105f6db34d30ba60001b620037fe565b62004bac7fbc95bf17ca2009e2526d43c8992d6f4437bc5d005edae2988d77646f8582350160001b620037fe565b62004bda7f522f1571fb48ef6ea3e9e0b6f9dab138206492fec89844e7bf1ded65794e580660001b620037fe565b62004c087f6c41c5952a4021ee48db6814adc2fffc422ac8f2eb8425ec003f86ea58b3c86460001b620037fe565b3373ffffffffffffffffffffffffffffffffffffffff166000809054906101000a900473ffffffffffffffffffffffffffffffffffffffff1673ffffffffffffffffffffffffffffffffffffffff161462004ccb576040517f08c379a00000000000000000000000000000000000000000000000000000000081526004018080602001828103825260208152602001807f4f776e61626c653a2063616c6c6572206973206e6f7420746865206f776e657281525060200191505060405180910390fd5b62004cf97f5a35e29a7cc84d55f7a9678e9dc2ede30fb5f67f6aff0b42bf6c4b23d0a937cc60001b620037fe565b62004d277f1c760e035c6926b5f9779dc98270deadf3392737a2366e2622768dc99f97ee8e60001b620037fe565b62004d557fbd545fea5f50cfc148fd7859eec6f3f2d9e3f7bd8b8b31f0eedcef6a6fc3db2060001b620030cb565b62004d837f123ecbfe12b8b54aa7be28cb29b722a5fda255a6a77ee3fd860d3fbb9960e2f460001b620030cb565b62004db17f71662543729c4c961798a68364525492a939546e6a546871c288aee3fcea69f260001b620030cb565b600280548060200260200160405190810160405280929190818152602001828054801562004e3557602002820191906000526020600020905b8160009054906101000a900473ffffffffffffffffffffffffffffffffffffffff1673ffffffffffffffffffffffffffffffffffffffff168152602001906001019080831162004dea575b5050505050905090565b6001818154811062004e4d57fe5b906000526020600020016000915054906101000a900473ffffffffffffffffffffffffffffffffffffffff1681565b62004eaa7fbbd3f355d77656a0f50aae973ab5793981ce48967d721219b0105f6db34d30ba60001b620037fe565b62004ed87fbc95bf17ca2009e2526d43c8992d6f4437bc5d005edae2988d77646f8582350160001b620037fe565b62004f067f522f1571fb48ef6ea3e9e0b6f9dab138206492fec89844e7bf1ded65794e580660001b620037fe565b62004f347f6c41c5952a4021ee48db6814adc2fffc422ac8f2eb8425ec003f86ea58b3c86460001b620037fe565b3373ffffffffffffffffffffffffffffffffffffffff166000809054906101000a900473ffffffffffffffffffffffffffffffffffffffff1673ffffffffffffffffffffffffffffffffffffffff161462004ff7576040517f08c379a00000000000000000000000000000000000000000000000000000000081526004018080602001828103825260208152602001807f4f776e61626c653a2063616c6c6572206973206e6f7420746865206f776e657281525060200191505060405180910390fd5b620050257f5a35e29a7cc84d55f7a9678e9dc2ede30fb5f67f6aff0b42bf6c4b23d0a937cc60001b620037fe565b620050537f1c760e035c6926b5f9779dc98270deadf3392737a2366e2622768dc99f97ee8e60001b620037fe565b620050817fd4f14c82cd74a2bfe5b3a0e4e1ba79451934e1b76e4ad703adfb10c5abd62e3660001b620037fe565b620050af7ff13dde4cd98d07e58d1a0f963ea04362e404f2ab70211194834b635ce8b6688a60001b620037fe565b620050dd7f56839613ce74633642adb97a1d7a1b5f7b44f7733b8383d7edd34fdca9528b1d60001b620037fe565b6200510b7f02b8355901dbbc224c37290aa6e7356e6240f5dd862864386c05aaed68b8ec2060001b620037fe565b600073ffffffffffffffffffffffffffffffffffffffff168173ffffffffffffffffffffffffffffffffffffffff16141562005193576040517f08c379a000000000000000000000000000000000000000000000000000000000815260040180806020018281038252602681526020018062006c056026913960400191505060405180910390fd5b620051c17ffee8a2e5a662c7cd0da06767582a89ba462016d584883b0a6e9cd9654ded200060001b620037fe565b620051ef7f4c26170b2547024ce29198477eb8cdab571f0cff51aac763ce2173fb140ac5f760001b620037fe565b6200521d7f90ab5053d48d5051c8e125455ea462c5257b9a053f49ae5515c264ba41a7a40c60001b620037fe565b8073ffffffffffffffffffffffffffffffffffffffff166000809054906101000a900473ffffffffffffffffffffffffffffffffffffffff1673ffffffffffffffffffffffffffffffffffffffff167f8be0079c531659141344cd1fd0a4f28419497f9722a3daafe3b4186f6b6457e060405160405180910390a3620052c67fec3fa98c696c5487f30a86f6c3fa7690694fccb2d2b11e50e80c1a29fbb31e6060001b620037fe565b620052f47fa55e123eaf43bfb9e53855172d10c0b18da44ded7fff5f6b8a7e12bfb94208a560001b620037fe565b806000806101000a81548173ffffffffffffffffffffffffffffffffffffffff021916908373ffffffffffffffffffffffffffffffffffffffff16021790555050565b61173b80620054ca83390190565b828054600181600116156101000203166002900490600052602060002090601f016020900481019282601f106200538857805160ff1916838001178555620053b9565b82800160010185558215620053b9579182015b82811115620053b85782518255916020019190600101906200539b565b5b509050620053c891906200545b565b5090565b82805482825590600052602060002090810192821562005448579160200282015b82811115620054475782518260006101000a81548173ffffffffffffffffffffffffffffffffffffffff021916908373ffffffffffffffffffffffffffffffffffffffff16021790555091602001919060010190620053ed565b5b50905062005457919062005483565b5090565b6200548091905b808211156200547c57600081600090555060010162005462565b5090565b90565b620054c691905b80821115620054c257600081816101000a81549073ffffffffffffffffffffffffffffffffffffffff0219169055506001016200548a565b5090565b9056fe60806040523480156200001157600080fd5b506040516200173b3803806200173b833981810160405260608110156200003757600080fd5b8101908080519060200190929190805160405193929190846401000000008211156200006257600080fd5b838201915060208201858111156200007957600080fd5b82518660018202830111640100000000821117156200009757600080fd5b8083526020830192505050908051906020019080838360005b83811015620000cd578082015181840152602081019050620000b0565b50505050905090810190601f168015620000fb5780820380516001836020036101000a031916815260200191505b5060405260200180519060200190929190505050620001437fc61035df3395f7def1b65d7ccba3948498a8a9b0a05e0faa170a450076702bc160001b6200031f60201b60201c565b620001777ffd40ec6e417b79d7ced29a63b0b7fc086161cffe2c4ca3cf6a683b3489210b5360001b6200031f60201b60201c565b620001ab7f597f24924c7bd106b6a27087a631a237f6668570174c2a2b6709a400e02ff6cc60001b6200031f60201b60201c565b82600160006101000a81548173ffffffffffffffffffffffffffffffffffffffff021916908373ffffffffffffffffffffffffffffffffffffffff160217905550620002207f791cb8f289da776d4d2429b1bae6b568808ac3a54e901492db6806f3848c10bb60001b6200031f60201b60201c565b620002547fd0686e27299660f223673a6e134f35166f07a8ff919c736f4326c787114b3b5260001b6200031f60201b60201c565b81600090805190602001906200026c92919062000322565b50620002a17fdda7e7e989bd509d6f8701965368e0764746a0c7dad2172816d400c50b95865760001b6200031f60201b60201c565b620002d57f6a931986c20d6430e78236b0d85cb4a46a9c8e6a26c16b9ac516edb169104b3b60001b6200031f60201b60201c565b80600260006101000a81548173ffffffffffffffffffffffffffffffffffffffff021916908373ffffffffffffffffffffffffffffffffffffffff160217905550505050620003d1565b50565b828054600181600116156101000203166002900490600052602060002090601f016020900481019282601f106200036557805160ff191683800117855562000396565b8280016001018555821562000396579182015b828111156200039557825182559160200191906001019062000378565b5b509050620003a59190620003a9565b5090565b620003ce91905b80821115620003ca576000816000905550600101620003b0565b5090565b90565b61135a80620003e16000396000f3fe608060405234801561001057600080fd5b50600436106100575760003560e01c806328bf58a11461005c5780636d6705231461008a578063b10d6b411461020c578063cdee934e14610405578063fbbf93a014610447575b600080fd5b6100886004803603602081101561007257600080fd5b8101908080359060200190929190505050610578565b005b61020a600480360360a08110156100a057600080fd5b81019080803590602001906401000000008111156100bd57600080fd5b8201836020820111156100cf57600080fd5b803590602001918460018302840111640100000000831117156100f157600080fd5b9091929391929390803590602001909291908035906020019064010000000081111561011c57600080fd5b82018360208201111561012e57600080fd5b8035906020019184600183028401116401000000008311171561015057600080fd5b90919293919293908035906020019064010000000081111561017157600080fd5b82018360208201111561018357600080fd5b803590602001918460018302840111640100000000831117156101a557600080fd5b9091929391929390803590602001906401000000008111156101c657600080fd5b8201836020820111156101d857600080fd5b803590602001918460018302840111640100000000831117156101fa57600080fd5b909192939192939050505061057b565b005b6102386004803603602081101561022257600080fd5b8101908080359060200190929190505050610bce565b604051808060200187815260200180602001806020018681526020018060200185810385528b818151815260200191508051906020019080838360005b83811015610290578082015181840152602081019050610275565b50505050905090810190601f1680156102bd5780820380516001836020036101000a031916815260200191505b50858103845289818151815260200191508051906020019080838360005b838110156102f65780820151818401526020810190506102db565b50505050905090810190601f1680156103235780820380516001836020036101000a031916815260200191505b50858103835288818151815260200191508051906020019080838360005b8381101561035c578082015181840152602081019050610341565b50505050905090810190601f1680156103895780820380516001836020036101000a031916815260200191505b50858103825286818151815260200191508051906020019080838360005b838110156103c25780820151818401526020810190506103a7565b50505050905090810190601f1680156103ef5780820380516001836020036101000a031916815260200191505b509a505050505050505050505060405180910390f35b6104316004803603602081101561041b57600080fd5b810190808035906020019092919050505061108e565b6040518082815260200191505060405180910390f35b61044f6110af565b604051808573ffffffffffffffffffffffffffffffffffffffff1673ffffffffffffffffffffffffffffffffffffffff16815260200180602001806020018473ffffffffffffffffffffffffffffffffffffffff1673ffffffffffffffffffffffffffffffffffffffff168152602001838103835286818151815260200191508051906020019080838360005b838110156104f75780820151818401526020810190506104dc565b50505050905090810190601f1680156105245780820380516001836020036101000a031916815260200191505b50838103825285818151815260200191508051906020019060200280838360005b83811015610560578082015181840152602081019050610545565b50505050905001965050505050505060405180910390f35b50565b6105a77ff37b1ed718d6c6ad9a5d63d021912beef15b939787f5470dc594d41b72ef08f960001b610578565b6105d37f436185cf28c7f6d5203aa76fab0d7aea1aaa6e66a5bbb7854c90c0a6328f9fd860001b610578565b6105ff7fe748749287641f645be0fae7532c7db0d062b46fc67d44a4e18e9cf7adc06c9c60001b610578565b61062b7f29473c0ade6dad4cb4da8db543f4182495258c9297e9ad9d44da9c1b900e8e2160001b610578565b600160009054906101000a900473ffffffffffffffffffffffffffffffffffffffff1673ffffffffffffffffffffffffffffffffffffffff163373ffffffffffffffffffffffffffffffffffffffff16146106d1576040517f08c379a00000000000000000000000000000000000000000000000000000000081526004018080602001828103825260218152602001806113046021913960400191505060405180910390fd5b6106fd7f397b5e63fb19ac81cb60c0a3d3f3c802eed95acb38d25cc6da45e24d1e6894d460001b610578565b6107297fc7159e538ec9879431dc18cdab8fef126596733270d1bdacae74adb5097b074c60001b610578565b6107557f72703b8d91c8b0b69209ae52a8eb89078d472b2c9c6f72f8f9bfea6544108ec960001b610578565b6107817fa3d01735692cba6ca351e4cfa2b632b9e021677582a9dc25e726d19502a46d6c60001b610578565b6107ad7f4b267248efb0c7169174a9d8fdd3cf0f0745a1931e025ba4a3a11500a96403da60001b610578565b6107d97f5dedbb669714ea5b21ebe2b0715ebde26fe9ccaacbdf1f7b5da1b53e870b255160001b610578565b6000600460008981526020019081526020016000206003015414610865576040517f08c379a00000000000000000000000000000000000000000000000000000000081526004018080602001828103825260188152602001807f446f63756d656e7420616c72656164792063726561746564000000000000000081525060200191505060405180910390fd5b6108917ffb599c4a554483f27258a622e1f98fea61260b2f587c3272cf88065f16bdc61a60001b610578565b6108bd7fc2945dce44f08da2d187027127878e6252515643335b0fc647b61f7ffdca4ba560001b610578565b6108e97fca3ba516251217bcfc92375f9b02e7fc0e9cabde6d2ad6e9414267828a8ec6f960001b610578565b6040518060a001604052808a8a8080601f016020809104026020016040519081016040528093929190818152602001838380828437600081840152601f19601f82011690508083019250505050505050815260200187878080601f016020809104026020016040519081016040528093929190818152602001838380828437600081840152601f19601f82011690508083019250505050505050815260200185858080601f016020809104026020016040519081016040528093929190818152602001838380828437600081840152601f19601f82011690508083019250505050505050815260200142815260200183838080601f016020809104026020016040519081016040528093929190818152602001838380828437600081840152601f19601f82011690508083019250505050505050815250600460008981526020019081526020016000206000820151816000019080519060200190610a4f92919061125e565b506020820151816001019080519060200190610a6c92919061125e565b506040820151816002019080519060200190610a8992919061125e565b50606082015181600301556080820151816004019080519060200190610ab092919061125e565b50905050610adf7e829bc89d49080cc6b0f65ee0f98b3c40888f3510db1d5cf34048dcc43dfeae60001b610578565b610b0b7f04399771c4fdbb0791921ef585709fa22b5ab74250d2d5c7a8c4fff6347c4ce560001b610578565b6003879080600181540180825580915050600190039060005260206000200160009091909190915055610b607fcc27656acc41a497c2e6310b050ec6f761955e3a289f6fc0b1df8e5ce6d530e160001b610578565b610b8c7f29a2defffc1ead29ec93c3ae7edb391d2ca5076f65d6df5f8279d185d8faeafa60001b610578565b7fe0d778ff3686f51abf4d7fafe1aaceba6989e018f37c26d928ad7567aa2e71cb876040518082815260200191505060405180910390a1505050505050505050565b6060600060608060006060610c047e7e8502e0499f379ff9737b57d15d47b798c28a9165d21280b673faa4b86cbc60001b610578565b610c307fc48c1785f61dbd686cba90588519943f62ab9fee21209d997473bae6fbb8c94960001b610578565b610c5c7f7dcf359a97d83174da3c2bb0bf010c406b67dedb4cf30b795d8a41c7861e6e0f60001b610578565b610c887f4efe336fea825086c2985af2f730e967d93a7db1380d1ef5e6e9b4c054ebe8ed60001b610578565b600060046000898152602001908152602001600020600301541415610d15576040517f08c379a00000000000000000000000000000000000000000000000000000000081526004018080602001828103825260178152602001807f446f63756d656e7420646f6573206e6f7420657869737400000000000000000081525060200191505060405180910390fd5b610d417fc602ac61fe2d7fe2c39672ead9844d68fe9fbcef008cfe08a798dfc947d30b8f60001b610578565b610d6d7f1ca5853be6e721b5f6a77df18cc0e0bce129711f4351a3134870fa3e685b5df260001b610578565b610d997fff81f13334513c7e191a9558e637accbd4a890bb8aa91f20907bec304f18acd860001b610578565b6004600088815260200190815260200160002060000187600460008a8152602001908152602001600020600101600460008b8152602001908152602001600020600201600460008c815260200190815260200160002060030154600460008d8152602001908152602001600020600401858054600181600116156101000203166002900480601f016020809104026020016040519081016040528092919081815260200182805460018160011615610100020316600290048015610e9e5780601f10610e7357610100808354040283529160200191610e9e565b820191906000526020600020905b815481529060010190602001808311610e8157829003601f168201915b50505050509550838054600181600116156101000203166002900480601f016020809104026020016040519081016040528092919081815260200182805460018160011615610100020316600290048015610f3a5780601f10610f0f57610100808354040283529160200191610f3a565b820191906000526020600020905b815481529060010190602001808311610f1d57829003601f168201915b50505050509350828054600181600116156101000203166002900480601f016020809104026020016040519081016040528092919081815260200182805460018160011615610100020316600290048015610fd65780601f10610fab57610100808354040283529160200191610fd6565b820191906000526020600020905b815481529060010190602001808311610fb957829003601f168201915b50505050509250808054600181600116156101000203166002900480601f0160208091040260200160405190810160405280929190818152602001828054600181600116156101000203166002900480156110725780601f1061104757610100808354040283529160200191611072565b820191906000526020600020905b81548152906001019060200180831161105557829003601f168201915b5050505050905095509550955095509550955091939550919395565b6003818154811061109b57fe5b906000526020600020016000915090505481565b600060608060006110e27f7157164b96b97e8d8c01d0a955a6d66d36662a5cc68a9232ac943aafb97a2b7660001b610578565b61110e7fac319a87ee5a18fadf8089802724e2ddd558f26c4d30c3cac6f377def5bb437060001b610578565b61113a7fa0a28f4b88a2fcc152b98bfd3c7ae6f0435b8231380653ef9e4004e61b9fb64c60001b610578565b600160009054906101000a900473ffffffffffffffffffffffffffffffffffffffff166000600330828054600181600116156101000203166002900480601f0160208091040260200160405190810160405280929190818152602001828054600181600116156101000203166002900480156111f75780601f106111cc576101008083540402835291602001916111f7565b820191906000526020600020905b8154815290600101906020018083116111da57829003601f168201915b505050505092508180548060200260200160405190810160405280929190818152602001828054801561124957602002820191906000526020600020905b815481526020019060010190808311611235575b50505050509150935093509350935090919293565b828054600181600116156101000203166002900490600052602060002090601f016020900481019282601f1061129f57805160ff19168380011785556112cd565b828001600101855582156112cd579182015b828111156112cc5782518255916020019190600101906112b1565b5b5090506112da91906112de565b5090565b61130091905b808211156112fc5760008160009055506001016112e4565b5090565b9056fe53656e646572206973206e6f7420737570706c696572206f662070726f6a656374a26469706673582212203d81f737d5ef9da03ea9d66dcc8d8a1444891e3d5f33274c73ce535fcda8f2e464736f6c634300060b00334f776e61626c653a206e6577206f776e657220697320746865207a65726f206164647265737350726f6a65637420646f6573206e6f74206578697374206f7220697320636c6f73656450726f6a65637420616c72656164792063726561746564206f7220636c6f736564557365722068617320746f2062652061737369676e656420636c69656e74206f72206f776e6572a264697066735822122007269cf22df033c8010aba551cf207462f591152436270fd0e112e359b85f5f264736f6c634300060b0033",
  "linkReferences": {},
  "deployedLinkReferences": {}
}