{
  "contractName": "MO",
  "abi": [
    {
      "constant": true,
      "inputs": [
        {
          "name": "",
          "type": "uint256"
        }
      ],
      "name": "documentos",
      "outputs": [
        {
          "name": "id",
          "type": "uint256"
        },
        {
          "name": "timestamp",
          "type": "uint256"
        },
        {
          "name": "doc_hash",
          "type": "string"
        },
        {
          "name": "ipfs_hash",
          "type": "string"
        },
        {
          "name": "owner",
          "type": "address"
        }
      ],
      "payable": false,
      "stateMutability": "view",
      "type": "function",
      "signature": "0xbb674f20"
    },
    {
      "constant": true,
      "inputs": [],
      "name": "documentoCount",
      "outputs": [
        {
          "name": "",
          "type": "uint256"
        }
      ],
      "payable": false,
      "stateMutability": "view",
      "type": "function",
      "signature": "0xe45ace15"
    },
    {
      "constant": false,
      "inputs": [
        {
          "name": "timestamp",
          "type": "uint256"
        },
        {
          "name": "doc_hash",
          "type": "string"
        },
        {
          "name": "ipfs_hash",
          "type": "string"
        }
      ],
      "name": "addHash",
      "outputs": [],
      "payable": false,
      "stateMutability": "nonpayable",
      "type": "function",
      "signature": "0x82426e59"
    },
    {
      "constant": true,
      "inputs": [],
      "name": "Cantdoc",
      "outputs": [
        {
          "name": "",
          "type": "uint256"
        }
      ],
      "payable": false,
      "stateMutability": "view",
      "type": "function",
      "signature": "0xbd65591d"
    }
  ],
  "bytecode": "0x608060405234801561001057600080fd5b506106f1806100206000396000f3fe608060405260043610610062576000357c0100000000000000000000000000000000000000000000000000000000900463ffffffff16806382426e5914610067578063bb674f20146101d0578063bd65591d14610331578063e45ace151461035c575b600080fd5b34801561007357600080fd5b506101ce6004803603606081101561008a57600080fd5b8101908080359060200190929190803590602001906401000000008111156100b157600080fd5b8201836020820111156100c357600080fd5b803590602001918460018302840111640100000000831117156100e557600080fd5b91908080601f016020809104026020016040519081016040528093929190818152602001838380828437600081840152601f19601f8201169050808301925050505050505091929192908035906020019064010000000081111561014857600080fd5b82018360208201111561015a57600080fd5b8035906020019184600183028401116401000000008311171561017c57600080fd5b91908080601f016020809104026020016040519081016040528093929190818152602001838380828437600081840152601f19601f820116905080830192505050505050509192919290505050610387565b005b3480156101dc57600080fd5b50610209600480360360208110156101f357600080fd5b810190808035906020019092919050505061048a565b6040518086815260200185815260200180602001806020018473ffffffffffffffffffffffffffffffffffffffff1673ffffffffffffffffffffffffffffffffffffffff168152602001838103835286818151815260200191508051906020019080838360005b8381101561028b578082015181840152602081019050610270565b50505050905090810190601f1680156102b85780820380516001836020036101000a031916815260200191505b50838103825285818151815260200191508051906020019080838360005b838110156102f15780820151818401526020810190506102d6565b50505050905090810190601f16801561031e5780820380516001836020036101000a031916815260200191505b5097505050505050505060405180910390f35b34801561033d57600080fd5b50610346610610565b6040518082815260200191505060405180910390f35b34801561036857600080fd5b5061037161061a565b6040518082815260200191505060405180910390f35b60016000815480929190600101919050555060a06040519081016040528060015481526020018481526020018381526020018281526020013373ffffffffffffffffffffffffffffffffffffffff1681525060008060015481526020019081526020016000206000820151816000015560208201518160010155604082015181600201908051906020019061041d929190610620565b50606082015181600301908051906020019061043a929190610620565b5060808201518160040160006101000a81548173ffffffffffffffffffffffffffffffffffffffff021916908373ffffffffffffffffffffffffffffffffffffffff160217905550905050505050565b6000602052806000526040600020600091509050806000015490806001015490806002018054600181600116156101000203166002900480601f0160208091040260200160405190810160405280929190818152602001828054600181600116156101000203166002900480156105425780601f1061051757610100808354040283529160200191610542565b820191906000526020600020905b81548152906001019060200180831161052557829003601f168201915b505050505090806003018054600181600116156101000203166002900480601f0160208091040260200160405190810160405280929190818152602001828054600181600116156101000203166002900480156105e05780601f106105b5576101008083540402835291602001916105e0565b820191906000526020600020905b8154815290600101906020018083116105c357829003601f168201915b5050505050908060040160009054906101000a900473ffffffffffffffffffffffffffffffffffffffff16905085565b6000600154905090565b60015481565b828054600181600116156101000203166002900490600052602060002090601f016020900481019282601f1061066157805160ff191683800117855561068f565b8280016001018555821561068f579182015b8281111561068e578251825591602001919060010190610673565b5b50905061069c91906106a0565b5090565b6106c291905b808211156106be5760008160009055506001016106a6565b5090565b9056fea165627a7a72305820f2c5c85e1dc8f7cf5399aa47b4008ee8596924fcb20d306f9d61f75070e0ad930029",
  "source": "pragma solidity >=0.4.21 <0.6.0;\r\n\r\ncontract MO {\r\n\r\n    // Definici贸n del struct que define el armado de los documentos\r\n    struct Documento {\r\n        uint id;\r\n        uint timestamp;\r\n        string doc_hash;\r\n        string ipfs_hash;\r\n        address owner;\r\n    }\r\n\r\n    //El mapping del struct a una variable tipo array\r\n    mapping(uint => Documento) public documentos;\r\n\r\n    // La definici贸n de una variable que lleva cuenta de la cantidad de documentos cargados\r\n    uint public documentoCount;\r\n\r\n    // Esta funci贸n toma los argumentos (hash de documento, hash de ubicaci贸n en ipfs y timestamp), y los agrega al storage, ademas aumenta el documentoCount mas 1\r\n    function addHash (uint timestamp, string memory doc_hash, string memory ipfs_hash) public {\r\n        documentoCount ++;\r\n        documentos[documentoCount] = Documento(documentoCount, timestamp, doc_hash, ipfs_hash, msg.sender);\r\n    }\r\n\r\n    function Cantdoc () public view returns (uint) {\r\n        return documentoCount;\r\n    }\r\n\r\n}\r\n",
  "sourcePath": "C:/Users/smartinez.nuclearis/Documents/GitHub/NUCLEARIS-Material-Organization/contracts/MO.sol",
  "compiler": {
    "name": "solc",
    "version": "0.5.0+commit.1d4f565a.Emscripten.clang"
  },
  "schemaVersion": "3.0.1",
  "updatedAt": "2019-01-28T18:15:07.358Z",
  "devdoc": {
    "methods": {}
  },
  "userdoc": {
    "methods": {}
  }
}