{
  "contractName": "NuclearPoE",
  "abi": [
    {
      "constant": true,
      "inputs": [],
      "name": "projectCount",
      "outputs": [
        {
          "name": "",
          "type": "uint8"
        }
      ],
      "payable": false,
      "stateMutability": "view",
      "type": "function"
    },
    {
      "constant": true,
      "inputs": [
        {
          "name": "",
          "type": "uint256"
        }
      ],
      "name": "projectContractsArray",
      "outputs": [
        {
          "name": "",
          "type": "address"
        }
      ],
      "payable": false,
      "stateMutability": "view",
      "type": "function"
    },
    {
      "inputs": [],
      "payable": false,
      "stateMutability": "nonpayable",
      "type": "constructor"
    },
    {
      "anonymous": false,
      "inputs": [
        {
          "indexed": false,
          "name": "newProjectContractAddress",
          "type": "address"
        }
      ],
      "name": "CreateProject",
      "type": "event"
    },
    {
      "anonymous": false,
      "inputs": [
        {
          "indexed": false,
          "name": "ContractAddress",
          "type": "address"
        }
      ],
      "name": "CreateUser",
      "type": "event"
    },
    {
      "constant": false,
      "inputs": [
        {
          "name": "_expediente",
          "type": "uint256"
        },
        {
          "name": "_projectTitle",
          "type": "bytes32"
        },
        {
          "name": "_userAddress",
          "type": "address"
        }
      ],
      "name": "createProject",
      "outputs": [],
      "payable": false,
      "stateMutability": "nonpayable",
      "type": "function"
    },
    {
      "constant": false,
      "inputs": [],
      "name": "kill",
      "outputs": [],
      "payable": false,
      "stateMutability": "nonpayable",
      "type": "function"
    },
    {
      "constant": false,
      "inputs": [
        {
          "name": "_userAddress",
          "type": "address"
        },
        {
          "name": "_userName",
          "type": "bytes32"
        },
        {
          "name": "userType",
          "type": "uint8"
        }
      ],
      "name": "createUser",
      "outputs": [],
      "payable": false,
      "stateMutability": "nonpayable",
      "type": "function"
    },
    {
      "constant": false,
      "inputs": [
        {
          "name": "_supplierAddress",
          "type": "address"
        },
        {
          "name": "_projectContractAddress",
          "type": "address"
        },
        {
          "name": "_processName",
          "type": "bytes32"
        }
      ],
      "name": "addProcessToProject",
      "outputs": [],
      "payable": false,
      "stateMutability": "nonpayable",
      "type": "function"
    }
  ],
  "bytecode": "0x608060405234801561001057600080fd5b50336000806101000a81548173ffffffffffffffffffffffffffffffffffffffff021916908373ffffffffffffffffffffffffffffffffffffffff16021790555061245d806100606000396000f3fe608060405260043610610078576000357c0100000000000000000000000000000000000000000000000000000000900463ffffffff1680630efaf9691461007d57806336fbad26146100f857806341c0e1b514610129578063a88b25d414610140578063ef565a1c146101bb578063fa75782014610220575b600080fd5b34801561008957600080fd5b506100f6600480360360608110156100a057600080fd5b81019080803573ffffffffffffffffffffffffffffffffffffffff169060200190929190803573ffffffffffffffffffffffffffffffffffffffff16906020019092919080359060200190929190505050610288565b005b34801561010457600080fd5b5061010d6105f8565b604051808260ff1660ff16815260200191505060405180910390f35b34801561013557600080fd5b5061013e61060b565b005b34801561014c57600080fd5b506101796004803603602081101561016357600080fd5b8101908080359060200190929190505050610709565b604051808273ffffffffffffffffffffffffffffffffffffffff1673ffffffffffffffffffffffffffffffffffffffff16815260200191505060405180910390f35b3480156101c757600080fd5b5061021e600480360360608110156101de57600080fd5b810190808035906020019092919080359060200190929190803573ffffffffffffffffffffffffffffffffffffffff169060200190929190505050610747565b005b34801561022c57600080fd5b506102866004803603606081101561024357600080fd5b81019080803573ffffffffffffffffffffffffffffffffffffffff16906020019092919080359060200190929190803560ff169060200190929190505050610cac565b005b6000809054906101000a900473ffffffffffffffffffffffffffffffffffffffff1673ffffffffffffffffffffffffffffffffffffffff163373ffffffffffffffffffffffffffffffffffffffff1614151561034c576040517f08c379a000000000000000000000000000000000000000000000000000000000815260040180806020018281038252601f8152602001807f4f6e6c79206f776e65722063616e206d616b652074686973206368616e67650081525060200191505060405180910390fd5b60011515600260008573ffffffffffffffffffffffffffffffffffffffff1673ffffffffffffffffffffffffffffffffffffffff16815260200190815260200160002060000160159054906101000a900460ff161515141515610417576040517f08c379a00000000000000000000000000000000000000000000000000000000081526004018080602001828103825260138152602001807f5573657220646f6573206e6f742065786973740000000000000000000000000081525060200191505060405180910390fd5b6000600260008573ffffffffffffffffffffffffffffffffffffffff1673ffffffffffffffffffffffffffffffffffffffff16815260200190815260200160002060000160009054906101000a900473ffffffffffffffffffffffffffffffffffffffff1690508073ffffffffffffffffffffffffffffffffffffffff16637c56b798846040518263ffffffff167c0100000000000000000000000000000000000000000000000000000000028152600401808273ffffffffffffffffffffffffffffffffffffffff1673ffffffffffffffffffffffffffffffffffffffff168152602001915050600060405180830381600087803b15801561051957600080fd5b505af115801561052d573d6000803e3d6000fd5b5050505060008390508073ffffffffffffffffffffffffffffffffffffffff16637569b18486856040518363ffffffff167c0100000000000000000000000000000000000000000000000000000000028152600401808373ffffffffffffffffffffffffffffffffffffffff1673ffffffffffffffffffffffffffffffffffffffff16815260200182815260200192505050600060405180830381600087803b1580156105d957600080fd5b505af11580156105ed573d6000803e3d6000fd5b505050505050505050565b600560009054906101000a900460ff1681565b6000809054906101000a900473ffffffffffffffffffffffffffffffffffffffff1673ffffffffffffffffffffffffffffffffffffffff163373ffffffffffffffffffffffffffffffffffffffff161415156106cf576040517f08c379a000000000000000000000000000000000000000000000000000000000815260040180806020018281038252601f8152602001807f4f6e6c79206f776e65722063616e206d616b652074686973206368616e67650081525060200191505060405180910390fd5b6000809054906101000a900473ffffffffffffffffffffffffffffffffffffffff1673ffffffffffffffffffffffffffffffffffffffff16ff5b60038181548110151561071857fe5b906000526020600020016000915054906101000a900473ffffffffffffffffffffffffffffffffffffffff1681565b6000809054906101000a900473ffffffffffffffffffffffffffffffffffffffff1673ffffffffffffffffffffffffffffffffffffffff163373ffffffffffffffffffffffffffffffffffffffff1614151561080b576040517f08c379a000000000000000000000000000000000000000000000000000000000815260040180806020018281038252601f8152602001807f4f6e6c79206f776e65722063616e206d616b652074686973206368616e67650081525060200191505060405180910390fd5b600015156001600085815260200190815260200160002060000160149054906101000a900460ff1615151415156108aa576040517f08c379a00000000000000000000000000000000000000000000000000000000081526004018080602001828103825260178152602001807f50726f6a65637420616c7265616479206372656174656400000000000000000081525060200191505060405180910390fd5b60011515600260008373ffffffffffffffffffffffffffffffffffffffff1673ffffffffffffffffffffffffffffffffffffffff16815260200190815260200160002060000160159054906101000a900460ff161515141515610975576040517f08c379a00000000000000000000000000000000000000000000000000000000081526004018080602001828103825260138152602001807f5573657220646f6573206e6f742065786973740000000000000000000000000081525060200191505060405180910390fd5b6000838383610982611040565b808481526020018381526020018273ffffffffffffffffffffffffffffffffffffffff1673ffffffffffffffffffffffffffffffffffffffff1681526020019350505050604051809103906000f0801580156109e2573d6000803e3d6000fd5b50905060408051908101604052808273ffffffffffffffffffffffffffffffffffffffff168152602001600115158152506001600086815260200190815260200160002060008201518160000160006101000a81548173ffffffffffffffffffffffffffffffffffffffff021916908373ffffffffffffffffffffffffffffffffffffffff16021790555060208201518160000160146101000a81548160ff0219169083151502179055509050506000600260008473ffffffffffffffffffffffffffffffffffffffff1673ffffffffffffffffffffffffffffffffffffffff16815260200190815260200160002060000160009054906101000a900473ffffffffffffffffffffffffffffffffffffffff1690508073ffffffffffffffffffffffffffffffffffffffff16637c56b798836040518263ffffffff167c0100000000000000000000000000000000000000000000000000000000028152600401808273ffffffffffffffffffffffffffffffffffffffff1673ffffffffffffffffffffffffffffffffffffffff168152602001915050600060405180830381600087803b158015610b9257600080fd5b505af1158015610ba6573d6000803e3d6000fd5b5050505060038290806001815401808255809150509060018203906000526020600020016000909192909190916101000a81548173ffffffffffffffffffffffffffffffffffffffff021916908373ffffffffffffffffffffffffffffffffffffffff160217905550506005600081819054906101000a900460ff168092919060010191906101000a81548160ff021916908360ff160217905550507fbb703aa7f8a7bebc43ea190212c9ab3aeb3ea9de189188823994f06acd262fa382604051808273ffffffffffffffffffffffffffffffffffffffff1673ffffffffffffffffffffffffffffffffffffffff16815260200191505060405180910390a15050505050565b6000809054906101000a900473ffffffffffffffffffffffffffffffffffffffff1673ffffffffffffffffffffffffffffffffffffffff163373ffffffffffffffffffffffffffffffffffffffff16141515610d70576040517f08c379a000000000000000000000000000000000000000000000000000000000815260040180806020018281038252601f8152602001807f4f6e6c79206f776e65722063616e206d616b652074686973206368616e67650081525060200191505060405180910390fd5b60001515600260008573ffffffffffffffffffffffffffffffffffffffff1673ffffffffffffffffffffffffffffffffffffffff16815260200190815260200160002060000160159054906101000a900460ff161515141515610e3b576040517f08c379a00000000000000000000000000000000000000000000000000000000081526004018080602001828103825260148152602001807f5573657220616c7265616479206372656174656400000000000000000000000081525060200191505060405180910390fd5b60008284610e47611050565b808381526020018273ffffffffffffffffffffffffffffffffffffffff1673ffffffffffffffffffffffffffffffffffffffff16815260200192505050604051809103906000f080158015610ea0573d6000803e3d6000fd5b5090506060604051908101604052808273ffffffffffffffffffffffffffffffffffffffff1681526020018360ff16815260200160011515815250600260008673ffffffffffffffffffffffffffffffffffffffff1673ffffffffffffffffffffffffffffffffffffffff16815260200190815260200160002060008201518160000160006101000a81548173ffffffffffffffffffffffffffffffffffffffff021916908373ffffffffffffffffffffffffffffffffffffffff16021790555060208201518160000160146101000a81548160ff021916908360ff16021790555060408201518160000160156101000a81548160ff0219169083151502179055509050506005600181819054906101000a900460ff168092919060010191906101000a81548160ff021916908360ff160217905550507fdf54227b669e96e69d8f583a07d577cb4081ab69c78dbcff8fce5af67e1ac54681604051808273ffffffffffffffffffffffffffffffffffffffff1673ffffffffffffffffffffffffffffffffffffffff16815260200191505060405180910390a150505050565b6040516110158061106183390190565b6040516103bc806120768339019056fe608060405234801561001057600080fd5b506040516060806110158339810180604052606081101561003057600080fd5b810190808051906020019092919080519060200190929190805190602001909291905050508260008190555081600281905550806001806101000a81548173ffffffffffffffffffffffffffffffffffffffff021916908373ffffffffffffffffffffffffffffffffffffffff160217905550505050610f60806100b56000396000f3fe608060405260043610610083576000357c0100000000000000000000000000000000000000000000000000000000900463ffffffff16806339571d6e1461008857806341c0e1b5146101bb5780637569b184146101d2578063829a6e491461022d578063b4e830f1146102b0578063d5252015146102c7578063d98c10bc14610365575b600080fd5b34801561009457600080fd5b5061009d6103d1565b604051808881526020018773ffffffffffffffffffffffffffffffffffffffff1673ffffffffffffffffffffffffffffffffffffffff1681526020018673ffffffffffffffffffffffffffffffffffffffff1673ffffffffffffffffffffffffffffffffffffffff168152602001858152602001841515151581526020018060200180602001838103835285818151815260200191508051906020019060200280838360005b8381101561015e578082015181840152602081019050610143565b50505050905001838103825284818151815260200191508051906020019060200280838360005b838110156101a0578082015181840152602081019050610185565b50505050905001995050505050505050505060405180910390f35b3480156101c757600080fd5b506101d061050a565b005b3480156101de57600080fd5b5061022b600480360360408110156101f557600080fd5b81019080803573ffffffffffffffffffffffffffffffffffffffff16906020019092919080359060200190929190505050610523565b005b34801561023957600080fd5b506102ae600480360360c081101561025057600080fd5b81019080803573ffffffffffffffffffffffffffffffffffffffff169060200190929190803590602001909291908035906020019092919080359060200190929190803590602001909291908035906020019092919050505061082f565b005b3480156102bc57600080fd5b506102c5610bb8565b005b3480156102d357600080fd5b50610300600480360360208110156102ea57600080fd5b8101908080359060200190929190505050610d75565b604051808773ffffffffffffffffffffffffffffffffffffffff1673ffffffffffffffffffffffffffffffffffffffff168152602001868152602001858152602001848152602001838152602001828152602001965050505050505060405180910390f35b34801561037157600080fd5b5061037a610edc565b6040518080602001828103825283818151815260200191508051906020019060200280838360005b838110156103bd5780820151818401526020810190506103a2565b505050509050019250505060405180910390f35b6000806000806000606080600054306001809054906101000a900473ffffffffffffffffffffffffffffffffffffffff16600254600160009054906101000a900460ff16600760068180548060200260200160405190810160405280929190818152602001828054801561046457602002820191906000526020600020905b815481526020019060010190808311610450575b50505050509150808054806020026020016040519081016040528092919081815260200182805480156104ec57602002820191906000526020600020905b8160009054906101000a900473ffffffffffffffffffffffffffffffffffffffff1673ffffffffffffffffffffffffffffffffffffffff16815260200190600101908083116104a2575b50505050509050965096509650965096509650965090919293949596565b3373ffffffffffffffffffffffffffffffffffffffff16ff5b60001515600860008473ffffffffffffffffffffffffffffffffffffffff1673ffffffffffffffffffffffffffffffffffffffff16815260200190815260200160002060010160149054906101000a900460ff1615151415156105ee576040517f08c379a00000000000000000000000000000000000000000000000000000000081526004018080602001828103825260178152602001807f50726f6365737320616c7265616479206372656174656400000000000000000081525060200191505060405180910390fd5b60001515600160009054906101000a900460ff16151514151561069f576040517f08c379a00000000000000000000000000000000000000000000000000000000081526004018080602001828103825260258152602001807f50726f6a65637420697320616c726561647920617070726f766564206279206381526020017f6c69656e7400000000000000000000000000000000000000000000000000000081525060400191505060405180910390fd5b60046000815480929190600101919050555060068290806001815401808255809150509060018203906000526020600020016000909192909190916101000a81548173ffffffffffffffffffffffffffffffffffffffff021916908373ffffffffffffffffffffffffffffffffffffffff160217905550506060604051908101604052808281526020018373ffffffffffffffffffffffffffffffffffffffff16815260200160011515815250600860008473ffffffffffffffffffffffffffffffffffffffff1673ffffffffffffffffffffffffffffffffffffffff1681526020019081526020016000206000820151816000015560208201518160010160006101000a81548173ffffffffffffffffffffffffffffffffffffffff021916908373ffffffffffffffffffffffffffffffffffffffff16021790555060408201518160010160146101000a81548160ff0219169083151502179055509050507f0346a5dd0e6acde7619febdd0d7f470611f6f002fb8cee5f164a3ab74854ec5b60405160405180910390a15050565b60011515600160009054906101000a900460ff1615151415156108e0576040517f08c379a00000000000000000000000000000000000000000000000000000000081526004018080602001828103825260218152602001807f50726f6a656374206973206e6f7420617070726f76656420627920636c69656e81526020017f740000000000000000000000000000000000000000000000000000000000000081525060400191505060405180910390fd5b60011515600860008873ffffffffffffffffffffffffffffffffffffffff1673ffffffffffffffffffffffffffffffffffffffff16815260200190815260200160002060010160149054906101000a900460ff1615151415156109ab576040517f08c379a00000000000000000000000000000000000000000000000000000000081526004018080602001828103825260168152602001807f50726f6365737320646f6573206e6f742065786973740000000000000000000081525060200191505060405180910390fd5b600015156009600087815260200190815260200160002060060160009054906101000a900460ff161515141515610a4a576040517f08c379a00000000000000000000000000000000000000000000000000000000081526004018080602001828103825260188152602001807f446f63756d656e7420616c72656164792063726561746564000000000000000081525060200191505060405180910390fd5b60e0604051908101604052808773ffffffffffffffffffffffffffffffffffffffff168152602001858152602001848152602001838152602001828152602001428152602001600115158152506009600087815260200190815260200160002060008201518160000160006101000a81548173ffffffffffffffffffffffffffffffffffffffff021916908373ffffffffffffffffffffffffffffffffffffffff1602179055506020820151816001015560408201518160020155606082015181600301556080820151816004015560a0820151816005015560c08201518160060160006101000a81548160ff02191690831515021790555090505060078590806001815401808255809150509060018203906000526020600020016000909192909190915055506005600081548092919060010191905055507f0ac146a5629d2541f754db3df5197733e7c3002b8cfe1da2416abd2c9a49c28c60405160405180910390a1505050505050565b6001809054906101000a900473ffffffffffffffffffffffffffffffffffffffff1673ffffffffffffffffffffffffffffffffffffffff163373ffffffffffffffffffffffffffffffffffffffff16141515610ca2576040517f08c379a00000000000000000000000000000000000000000000000000000000081526004018080602001828103825260378152602001807f4f6e6c7920636c69656e7473206f6620746869732070726f6a6563742063616e81526020017f207265616c697a652074686973206f7065726174696f6e00000000000000000081525060400191505060405180910390fd5b60001515600160009054906101000a900460ff161515141515610d2d576040517f08c379a00000000000000000000000000000000000000000000000000000000081526004018080602001828103825260188152602001807f50726f6a65637420616c726561647920617070726f766564000000000000000081525060200191505060405180910390fd5b60018060006101000a81548160ff0219169083151502179055507fe69f676c299b333dca8f06fbbad2158afb93499d1eaf331570780e6afc33889a60405160405180910390a1565b600080600080600080600115156009600089815260200190815260200160002060060160009054906101000a900460ff161515141515610e1d576040517f08c379a00000000000000000000000000000000000000000000000000000000081526004018080602001828103825260178152602001807f446f63756d656e7420646f6573206e6f7420657869737400000000000000000081525060200191505060405180910390fd5b6009600088815260200190815260200160002060000160009054906101000a900473ffffffffffffffffffffffffffffffffffffffff166009600089815260200190815260200160002060050154600960008a815260200190815260200160002060010154600960008b815260200190815260200160002060020154600960008c815260200190815260200160002060030154600960008d81526020019081526020016000206004015495509550955095509550955091939550919395565b60606007805480602002602001604051908101604052809291908181526020018280548015610f2a57602002820191906000526020600020905b815481526020019060010190808311610f16575b505050505090509056fea165627a7a7230582029fe4df913343cf12d75ffa630fb40d4b40a0e0bb7b0524e627dbfde59c71e5d0029608060405234801561001057600080fd5b506040516040806103bc8339810180604052604081101561003057600080fd5b8101908080519060200190929190805190602001909291905050508160008190555080600160006101000a81548173ffffffffffffffffffffffffffffffffffffffff021916908373ffffffffffffffffffffffffffffffffffffffff1602179055505050610318806100a46000396000f3fe608060405260043610610062576000357c0100000000000000000000000000000000000000000000000000000000900463ffffffff16806339571d6e1461006757806341c0e1b5146100da5780637c56b798146100f1578063e4128fb314610142575b600080fd5b34801561007357600080fd5b5061007c610199565b6040518083815260200180602001828103825283818151815260200191508051906020019060200280838360005b838110156100c55780820151818401526020810190506100aa565b50505050905001935050505060405180910390f35b3480156100e657600080fd5b506100ef610232565b005b3480156100fd57600080fd5b506101406004803603602081101561011457600080fd5b81019080803573ffffffffffffffffffffffffffffffffffffffff16906020019092919050505061024b565b005b34801561014e57600080fd5b506101576102c6565b604051808273ffffffffffffffffffffffffffffffffffffffff1673ffffffffffffffffffffffffffffffffffffffff16815260200191505060405180910390f35b6000606060005460028080548060200260200160405190810160405280929190818152602001828054801561022357602002820191906000526020600020905b8160009054906101000a900473ffffffffffffffffffffffffffffffffffffffff1673ffffffffffffffffffffffffffffffffffffffff16815260200190600101908083116101d9575b50505050509050915091509091565b3373ffffffffffffffffffffffffffffffffffffffff16ff5b60028190806001815401808255809150509060018203906000526020600020016000909192909190916101000a81548173ffffffffffffffffffffffffffffffffffffffff021916908373ffffffffffffffffffffffffffffffffffffffff1602179055505060036000815480929190600101919050555050565b600160009054906101000a900473ffffffffffffffffffffffffffffffffffffffff168156fea165627a7a723058205e63322788adb298d18feb2c4e64241d7df957bf9eb22980b1e9a0684263ce4a0029a165627a7a7230582002559714388ab46c77ae690dda2be21f1fc26e6a2c325eb05cd58f6a91bf1ebb0029",
  "source": "pragma solidity >=0.5.0 <0.7.0;\r\n\r\n//Contrato general que manejo los subcontratos que se crean en runtime\r\ncontract NuclearPoE {\r\n\r\n    address payable private owner;\r\n    enum UserType {Client, Supplier, User}\r\n\r\n    constructor() public {\r\n      owner = msg.sender;\r\n    }\r\n\r\n    struct ProjectStruct {\r\n        address contractAddress;\r\n        bool created;\r\n    }\r\n\r\n    struct UserStruct {\r\n        address contractAddress;\r\n        uint8 userType;\r\n        bool created;\r\n    }\r\n\r\n\r\n    mapping(uint => ProjectStruct) private projectContracts;\r\n    mapping(address => UserStruct) private user;\r\n\r\n    address[] public projectContractsArray;\r\n    address[] private userContractsArray;\r\n    uint8 public projectCount;\r\n    uint8 private userCount;\r\n\r\n    modifier onlyOwner() {\r\n    require(msg.sender == owner,\"Only owner can make this change\");_;\r\n    }\r\n\r\n    event CreateProject(address newProjectContractAddress);\r\n    event CreateUser(address ContractAddress);\r\n\r\n\r\n    function createProject(uint _expediente, bytes32 _projectTitle, address _userAddress) external onlyOwner() {\r\n        require(projectContracts[_expediente].created == false, \"Project already created\");\r\n        require(user[_userAddress].created == true, \"User does not exist\");\r\n\r\n        address ProjectContractAddress = address(new Project(_expediente, _projectTitle, _userAddress));\r\n        projectContracts[_expediente] = ProjectStruct(ProjectContractAddress, true);\r\n\r\n        User userContractInstance = User(user[_userAddress].contractAddress);\r\n        userContractInstance.addProject(ProjectContractAddress);\r\n\r\n        projectContractsArray.push(ProjectContractAddress);\r\n        projectCount++;\r\n\r\n        emit CreateProject(ProjectContractAddress);\r\n    }\r\n\r\n    function kill() public onlyOwner() {\r\n        selfdestruct(owner);\r\n    }\r\n\r\n    function createUser(address _userAddress, bytes32 _userName, uint8 userType) external onlyOwner() {\r\n        require(user[_userAddress].created == false,\"User already created\");\r\n\r\n        address ContractAddress = address(new User(_userName, _userAddress));\r\n\r\n        user[_userAddress] = UserStruct(ContractAddress, userType, true);\r\n        userCount++;\r\n\r\n        emit CreateUser(ContractAddress);\r\n    }\r\n\r\n    function addProcessToProject(address _supplierAddress, address _projectContractAddress, bytes32 _processName) external onlyOwner() {\r\n        require(user[_supplierAddress].created == true,\"User does not exist\");\r\n\r\n        User userContractInstance = User(user[_supplierAddress].contractAddress);\r\n        userContractInstance.addProject(_projectContractAddress);\r\n\r\n        Project project = Project(_projectContractAddress);\r\n        project.addProcess(_supplierAddress, _processName);\r\n    }\r\n}\r\n\r\n// Contrato de proyectos, cada vez que se crea un proyecto nuevo se debe generar un contrato proyecto.\r\ncontract Project {\r\n\r\n    uint private expediente;\r\n    bool private approved;\r\n    address private clientAddress;\r\n    bytes32 private title;\r\n    address payable owner;\r\n\r\n    struct Document {\r\n        address supplierAddress;\r\n        bytes32 documentTitle;\r\n        bytes32 storageHash;\r\n        uint storageFunction;\r\n        uint storageSize;\r\n        uint mineTime;\r\n        bool created;\r\n    }\r\n\r\n    struct Process {\r\n        bytes32 processName;\r\n        address supplierAddress;\r\n        bool created;\r\n    }\r\n\r\n    uint private supplierCount;\r\n    uint private documentQty;\r\n    address[] private supplierAddresses;\r\n    bytes32[] private allDocuments;\r\n\r\n    mapping(address => Process) private process;\r\n    mapping(bytes32 => Document) private document;\r\n\r\n    event AddDocument();\r\n    event AddProcess();\r\n    event ApproveProject();\r\n\r\n    constructor (uint _expediente, bytes32 _title,address _clientAddress) public {\r\n        expediente = _expediente;\r\n        title = _title;\r\n        clientAddress = _clientAddress;\r\n    }\r\n\r\n    function addDocument (address _supplierAddress, bytes32 _hash, bytes32 _documentName, bytes32 storageHash, uint storageFunction, uint storageSize) external {\r\n        require(approved == true,\"Project is not approved by client\");\r\n        require(process[_supplierAddress].created == true, \"Process does not exist\");\r\n        require(document[_hash].created == false, \"Document already created\");\r\n\r\n        document[_hash] = Document(_supplierAddress, _documentName, storageHash, storageFunction, storageSize, now, true);\r\n        allDocuments.push(_hash);\r\n        documentQty++;\r\n        emit AddDocument();\r\n    }\r\n\r\n\r\n    function findDocument(bytes32 _hash) external view returns (address, uint, bytes32, bytes32, uint, uint) {\r\n        require(document[_hash].created == true, \"Document does not exist\");\r\n        return (\r\n            document[_hash].supplierAddress,\r\n            document[_hash].mineTime,\r\n            document[_hash].documentTitle,\r\n            document[_hash].storageHash,\r\n            document[_hash].storageFunction,\r\n            document[_hash].storageSize\r\n            );\r\n    }\r\n\r\n    // TEMP\r\n    function kill() public {\r\n        selfdestruct(msg.sender);\r\n    }\r\n\r\n    function approveProject() external {\r\n        require(msg.sender == clientAddress,\"Only clients of this project can realize this operation\");\r\n        require(approved == false,\"Project already approved\");\r\n        approved = true;\r\n        emit ApproveProject();\r\n    }\r\n\r\n    function addProcess(address _supplierAddress, bytes32 _processName) external {\r\n        require(process[_supplierAddress].created == false,\"Process already created\");\r\n        require(approved == false,\"Project is already approved by client\");\r\n\r\n        supplierCount++;\r\n        supplierAddresses.push(_supplierAddress);\r\n        process[_supplierAddress] = Process(_processName, _supplierAddress, true);\r\n\r\n        emit AddProcess();\r\n    }\r\n\r\n    function contractDetails() external view returns (uint, address, address, bytes32, bool, bytes32[] memory, address[] memory) {\r\n        return (expediente, address(this), clientAddress, title, approved, allDocuments, supplierAddresses);\r\n    }\r\n\r\n    function returnAllDocuments() external view returns(bytes32[] memory) {\r\n        return allDocuments;\r\n    }\r\n}\r\n\r\n\r\n// Contrato de cliente que se genera para cada cliente nuevo y hace seguimiento a los proyectos nuevos asignados\r\ncontract User {\r\n\r\n    bytes32 private name;\r\n    address public userAddress;\r\n    address[] private projectAddresses;\r\n    uint private projectCount;\r\n    address payable owner;\r\n\r\n    constructor (bytes32 _name, address _address) public {\r\n        name = _name;\r\n        userAddress = _address;\r\n    }\r\n\r\n    function contractDetails() external view returns (bytes32, address[] memory) {\r\n        return (name, projectAddresses);\r\n    }\r\n\r\n    // TEMP\r\n    function kill() public {\r\n        selfdestruct(msg.sender);\r\n    }\r\n\r\n    function addProject(address _a) external {\r\n        projectAddresses.push(_a);\r\n        projectCount++;\r\n    }\r\n\r\n}",
  "sourcePath": "C:/Users/smartinez.nuclearis/Documents/GitHub/NUCLEARIS-Material-Organization/contracts/NuclearPoE.sol",
  "compiler": {
    "name": "solc",
    "version": "0.5.0+commit.1d4f565a.Emscripten.clang"
  },
  "schemaVersion": "3.0.5",
  "updatedAt": "2019-10-07T19:00:35.438Z",
  "devdoc": {
    "methods": {}
  },
  "userdoc": {
    "methods": {}
  }
}