{
  "contractName": "Client",
  "abi": [
    {
      "inputs": [
        {
          "name": "_name",
          "type": "bytes32"
        },
        {
          "name": "_address",
          "type": "address"
        }
      ],
      "payable": false,
      "stateMutability": "nonpayable",
      "type": "constructor"
    },
    {
      "constant": true,
      "inputs": [],
      "name": "contractDetails",
      "outputs": [
        {
          "name": "",
          "type": "bytes32"
        },
        {
          "name": "",
          "type": "address[]"
        }
      ],
      "payable": false,
      "stateMutability": "view",
      "type": "function"
    },
    {
      "constant": false,
      "inputs": [],
      "name": "kill",
      "outputs": [],
      "payable": false,
      "stateMutability": "nonpayable",
      "type": "function"
    },
    {
      "constant": false,
      "inputs": [
        {
          "name": "_a",
          "type": "address"
        }
      ],
      "name": "addProject",
      "outputs": [],
      "payable": false,
      "stateMutability": "nonpayable",
      "type": "function"
    }
  ],
  "bytecode": "0x608060405234801561001057600080fd5b506040516040806103348339810180604052604081101561003057600080fd5b8101908080519060200190929190805190602001909291905050508160008190555080600160006101000a81548173ffffffffffffffffffffffffffffffffffffffff021916908373ffffffffffffffffffffffffffffffffffffffff1602179055505050610290806100a46000396000f3fe608060405260043610610057576000357c0100000000000000000000000000000000000000000000000000000000900463ffffffff16806339571d6e1461005c57806341c0e1b5146100cf5780637c56b798146100e6575b600080fd5b34801561006857600080fd5b50610071610137565b6040518083815260200180602001828103825283818151815260200191508051906020019060200280838360005b838110156100ba57808201518184015260208101905061009f565b50505050905001935050505060405180910390f35b3480156100db57600080fd5b506100e46101d0565b005b3480156100f257600080fd5b506101356004803603602081101561010957600080fd5b81019080803573ffffffffffffffffffffffffffffffffffffffff1690602001909291905050506101e9565b005b600060606000546002808054806020026020016040519081016040528092919081815260200182805480156101c157602002820191906000526020600020905b8160009054906101000a900473ffffffffffffffffffffffffffffffffffffffff1673ffffffffffffffffffffffffffffffffffffffff1681526020019060010190808311610177575b50505050509050915091509091565b3373ffffffffffffffffffffffffffffffffffffffff16ff5b60028190806001815401808255809150509060018203906000526020600020016000909192909190916101000a81548173ffffffffffffffffffffffffffffffffffffffff021916908373ffffffffffffffffffffffffffffffffffffffff160217905550506003600081548092919060010191905055505056fea165627a7a72305820cf6445db7d49268d2d248fd6522822ee606d7bdb23c89e415fa3f4039fcb01310029",
  "source": "pragma solidity >=0.5.0 <0.7.0;\r\n\r\n//Contrato general que manejo los subcontratos que se crean en runtime\r\ncontract NuclearPoE {\r\n\r\n    address payable private owner;\r\n\r\n    constructor() public {\r\n      owner = msg.sender;\r\n    }\r\n\r\n    struct ProjectStruct {\r\n        address contractAddress;\r\n        bool created;\r\n    }\r\n\r\n    struct ClientStruct {\r\n        address contractAddress;\r\n        bool created;\r\n    }\r\n\r\n    struct SupplierStruct {\r\n        address contractAddress;\r\n        bool created;\r\n    }\r\n\r\n    mapping(uint => ProjectStruct) private projectContracts;\r\n    mapping(address => ClientStruct) private client;\r\n    mapping(address => SupplierStruct) private supplier;\r\n\r\n    address[] public projectContractsArray;\r\n    address[] private supplierContractsArray;\r\n    address[] private clientContractsArray;\r\n    uint8 public projectCount;\r\n    uint8 private clientCount;\r\n    uint8 private supplierCount;\r\n\r\n    modifier onlyOwner() {\r\n    require(msg.sender == owner,\"Only owner can make this change\");_;\r\n    }\r\n\r\n    event CreateProject(address newProjectContractAddress);\r\n    event CreateClient(address ContractAddress);\r\n    event CreateSupplier(address ContractAddress);\r\n\r\n\r\n    function createProject(uint _expediente, bytes32 _projectTitle, address _clientAddress) external onlyOwner() {\r\n        require(projectContracts[_expediente].created == false, \"Project already created\");\r\n        require(client[_clientAddress].created == true, \"Client does not exist\");\r\n\r\n        address ProjectContractAddress = address(new Project(_expediente, _projectTitle, _clientAddress));\r\n        projectContracts[_expediente] = ProjectStruct(ProjectContractAddress, true);\r\n\r\n        Client clientContractInstance = Client(client[_clientAddress].contractAddress);\r\n\r\n        clientContractInstance.addProject(ProjectContractAddress);\r\n\r\n        projectContractsArray.push(ProjectContractAddress);\r\n        projectCount++;\r\n\r\n        emit CreateProject(ProjectContractAddress);\r\n    }\r\n\r\n    function kill() public onlyOwner() {\r\n        selfdestruct(owner);\r\n    }\r\n\r\n    function createSupplier(address _supplierAddress, bytes32 _supplierName) external onlyOwner() {\r\n        require(supplier[_supplierAddress].created == false,\"Supplier already created\");\r\n\r\n        address ContractAddress = address(new Supplier(_supplierName, _supplierAddress));\r\n\r\n        supplier[_supplierAddress] = SupplierStruct(ContractAddress, true);\r\n        supplierCount++;\r\n\r\n        emit CreateSupplier(ContractAddress);\r\n    }\r\n\r\n    function createClient(address _clientAddress, bytes32 _clientName) external onlyOwner() {\r\n        require(client[_clientAddress].created == false,\"Client already created\");\r\n\r\n        address ContractAddress = address(new Client(_clientName, _clientAddress));\r\n\r\n        client[_clientAddress] = ClientStruct(ContractAddress, true);\r\n        clientCount++;\r\n\r\n        emit CreateClient(ContractAddress);\r\n    }\r\n\r\n    function addProcessToProject(address _supplierAddress, address _projectContractAddress, bytes32 _processName, bytes32 _supplierName) external onlyOwner() {\r\n        require(supplier[_supplierAddress].created == true,\"Supplier does not exist\");\r\n\r\n        Supplier supplierContractInstance = Supplier(supplier[_supplierAddress].contractAddress);\r\n        supplierContractInstance.addProject(_projectContractAddress);\r\n\r\n        Project project = Project(_projectContractAddress);\r\n        project.addProcess(_supplierAddress, _processName, _supplierName);\r\n    }\r\n}\r\n\r\n// Contrato de proyectos, cada vez que se crea un proyecto nuevo se debe generar un contrato proyecto.\r\ncontract Project {\r\n\r\n    uint private expediente;\r\n    bool private approved;\r\n    address private clientAddress;\r\n    bytes32 private title;\r\n    address payable owner;\r\n\r\n    struct Document {\r\n        address supplierAddress;\r\n        bytes32 documentTitle;\r\n        uint mineTime;\r\n        bool created;\r\n    }\r\n\r\n    struct Process {\r\n        bytes32 processName;\r\n        bytes32 supplierName;\r\n        address supplierAddress;\r\n        bool created;\r\n    }\r\n\r\n    uint private supplierCount;\r\n    uint private documentQty;\r\n    address[] private supplierAddresses;\r\n    bytes32[] private allDocuments;\r\n\r\n    mapping(address => Process) private process;\r\n    mapping(bytes32 => Document) private document;\r\n\r\n    event AddDocument();\r\n    event AddProcess();\r\n    event ApproveProject();\r\n\r\n    constructor (uint _expediente, bytes32 _title,address _clientAddress) public {\r\n        expediente = _expediente;\r\n        title = _title;\r\n        clientAddress = _clientAddress;\r\n    }\r\n\r\n    function addDocument (address _supplierAddress, bytes32 _hash, bytes32 _documentName) external {\r\n        require(approved == true,\"Project is not approved by client\");\r\n        require(process[_supplierAddress].created == true, \"Process does not exist\");\r\n        require(document[_hash].created == false, \"Document already created\");\r\n\r\n        document[_hash] = Document(_supplierAddress, _documentName, now, true);\r\n        allDocuments.push(_hash);\r\n        documentQty++;\r\n        emit AddDocument();\r\n    }\r\n\r\n\r\n    function findDocument(bytes32 _hash) external view returns (address, uint, bytes32) {\r\n        require(document[_hash].created == true, \"Document does not exist\");\r\n        return (\r\n            document[_hash].supplierAddress,\r\n            document[_hash].mineTime,\r\n            document[_hash].documentTitle\r\n            );\r\n    }\r\n\r\n    // TEMP\r\n    function kill() public {\r\n        selfdestruct(msg.sender);\r\n    }\r\n\r\n    function approveProject() external {\r\n        require(msg.sender == clientAddress,\"Only clients of this project can realize this operation\");\r\n        require(approved == false,\"Project already approved\");\r\n        approved = true;\r\n        emit ApproveProject();\r\n    }\r\n\r\n    function addProcess(address _supplierAddress, bytes32 _processName, bytes32 _supplierName) external {\r\n        require(process[_supplierAddress].created == false,\"Process already created\");\r\n        require(approved == false,\"Project is already approved by client\");\r\n\r\n        supplierCount++;\r\n        supplierAddresses.push(_supplierAddress);\r\n        process[_supplierAddress] = Process(_processName, _supplierName, _supplierAddress, true);\r\n\r\n        emit AddProcess();\r\n    }\r\n\r\n    function contractDetails() external view returns (uint, address, address, bytes32, bool, bytes32[] memory, address[] memory) {\r\n        return (expediente, address(this), clientAddress, title, approved, allDocuments, supplierAddresses);\r\n    }\r\n\r\n    function returnAllDocuments() external view returns(bytes32[] memory) {\r\n        return allDocuments;\r\n    }\r\n}\r\n\r\n\r\n// Contrato de cliente que se genera para cada cliente nuevo y hace seguimiento a los proyectos nuevos asignados\r\ncontract Client {\r\n\r\n    bytes32 private name;\r\n    address private clientAddress;\r\n    address[] private projectAddresses;\r\n    uint private projectCount;\r\n    address payable owner;\r\n\r\n    constructor (bytes32 _name, address _address) public {\r\n        name = _name;\r\n        clientAddress = _address;\r\n    }\r\n\r\n    function contractDetails() external view returns (bytes32, address[] memory) {\r\n        return (name, projectAddresses);\r\n    }\r\n\r\n    // TEMP\r\n    function kill() public {\r\n        selfdestruct(msg.sender);\r\n    }\r\n\r\n    function addProject(address _a) external {\r\n        projectAddresses.push(_a);\r\n        projectCount++;\r\n    }\r\n\r\n}\r\n\r\n// Contrato de proveedores que se genera para cada proveedor nuevo y hace seguimiento a los proyectos nuevos asignados\r\ncontract Supplier {\r\n\r\n    bytes32 private name;\r\n    address private supplierAddress;\r\n    address[] private projectAddresses;\r\n    uint private projectCount;\r\n    address payable owner;\r\n\r\n    constructor (bytes32 _name, address _address) public {\r\n        name = _name;\r\n        supplierAddress = _address;\r\n    }\r\n\r\n    function contractDetails() external view returns (bytes32, address[] memory) {\r\n        return (name, projectAddresses);\r\n    }\r\n\r\n      // TEMP\r\n    function kill() public {\r\n        selfdestruct(msg.sender);\r\n    }\r\n\r\n    function addProject(address _a) external {\r\n        projectAddresses.push(_a);\r\n        projectCount++;\r\n    }\r\n}",
  "sourcePath": "C:/Users/smartinez.nuclearis/Documents/GitHub/NUCLEARIS-Material-Organization/contracts/NuclearPoE.sol",
  "compiler": {
    "name": "solc",
    "version": "0.5.0+commit.1d4f565a.Emscripten.clang"
  },
  "schemaVersion": "3.0.5",
  "updatedAt": "2019-10-01T17:52:14.723Z",
  "devdoc": {
    "methods": {}
  },
  "userdoc": {
    "methods": {}
  }
}