{
  "contractName": "MO",
  "abi": [
    {
      "constant": true,
      "inputs": [],
      "name": "nrs",
      "outputs": [
        {
          "name": "",
          "type": "address"
        }
      ],
      "payable": false,
      "stateMutability": "view",
      "type": "function",
      "signature": "0xaa6a1f9a"
    },
    {
      "constant": false,
      "inputs": [
        {
          "name": "hash",
          "type": "bytes32"
        }
      ],
      "name": "addDocHash",
      "outputs": [],
      "payable": false,
      "stateMutability": "nonpayable",
      "type": "function",
      "signature": "0x133a48f3"
    },
    {
      "constant": true,
      "inputs": [
        {
          "name": "hash",
          "type": "bytes32"
        }
      ],
      "name": "findDocHash",
      "outputs": [
        {
          "name": "",
          "type": "uint256"
        },
        {
          "name": "",
          "type": "uint256"
        }
      ],
      "payable": false,
      "stateMutability": "view",
      "type": "function",
      "signature": "0x4cf00d3f"
    }
  ],
  "bytecode": "0x608060405273307eaa91fa219463ac521f9a549dbdc7ff82c06c6000806101000a81548173ffffffffffffffffffffffffffffffffffffffff021916908373ffffffffffffffffffffffffffffffffffffffff16021790555034801561006457600080fd5b506102fb806100746000396000f3fe608060405260043610610057576000357c0100000000000000000000000000000000000000000000000000000000900463ffffffff168063133a48f31461005c5780634cf00d3f14610097578063aa6a1f9a146100ed575b600080fd5b34801561006857600080fd5b506100956004803603602081101561007f57600080fd5b8101908080359060200190929190505050610144565b005b3480156100a357600080fd5b506100d0600480360360208110156100ba57600080fd5b8101908080359060200190929190505050610256565b604051808381526020018281526020019250505060405180910390f35b3480156100f957600080fd5b50610102610290565b604051808273ffffffffffffffffffffffffffffffffffffffff1673ffffffffffffffffffffffffffffffffffffffff16815260200191505060405180910390f35b6000809054906101000a900473ffffffffffffffffffffffffffffffffffffffff1673ffffffffffffffffffffffffffffffffffffffff163373ffffffffffffffffffffffffffffffffffffffff16141515610208576040517f08c379a000000000000000000000000000000000000000000000000000000000815260040180806020018281038252601d8152602001807f4f6e6c79204e52532063616e206d6f6469667920636f6e74726163742e00000081525060200191505060405180910390fd5b6102106102b5565b6040805190810160405280428152602001438152509050806001600084815260200190815260200160002060008201518160000155602082015181600101559050505050565b6000806001600084815260200190815260200160002060000154600160008581526020019081526020016000206001015491509150915091565b6000809054906101000a900473ffffffffffffffffffffffffffffffffffffffff1681565b60408051908101604052806000815260200160008152509056fea165627a7a72305820f0ee4a69ebdf1f7403845ec4a96845a8354345afe529428d6e45b3774aea2a9c0029",
  "source": "pragma solidity 0.5.0;\r\n\r\n\r\ncontract MO {\r\n\r\n\r\n    struct Record {\r\n        uint mineTime;\r\n        uint blockNumber;\r\n    }\r\n\r\n    address public nrs = 0x307EAa91FA219463Ac521f9A549dBDc7fF82C06c;\r\n\r\n    mapping (bytes32 => Record) private docHashes;\r\n\r\n    function addDocHash (bytes32 hash) public {\r\n        require(\r\n            msg.sender == nrs,\r\n            \"Only NRS can modify contract.\"\r\n        );\r\n        Record memory newRecord = Record(now, block.number);\r\n        docHashes[hash] = newRecord;\r\n    }\r\n\r\n    function findDocHash (bytes32 hash) public view returns(uint, uint) {\r\n        return (docHashes[hash].mineTime, docHashes[hash].blockNumber);\r\n    }\r\n\r\n}\r\n",
  "sourcePath": "C:/Users/smartinez.nuclearis/Documents/GitHub/NUCLEARIS-Material-Organization/contracts/MO.sol",
  "compiler": {
    "name": "solc",
    "version": "0.5.0+commit.1d4f565a.Emscripten.clang"
  },
  "schemaVersion": "3.0.1",
  "updatedAt": "2019-02-20T11:56:20.258Z",
  "devdoc": {
    "methods": {}
  },
  "userdoc": {
    "methods": {}
  }
}