{
  "contractName": "MO",
  "abi": [
    {
      "inputs": [],
      "payable": false,
      "stateMutability": "nonpayable",
      "type": "constructor",
      "signature": "constructor"
    },
    {
      "constant": false,
      "inputs": [
        {
          "name": "hash",
          "type": "bytes32"
        }
      ],
      "name": "addDocHash",
      "outputs": [],
      "payable": false,
      "stateMutability": "nonpayable",
      "type": "function",
      "signature": "0x133a48f3"
    },
    {
      "constant": true,
      "inputs": [
        {
          "name": "hash",
          "type": "bytes32"
        }
      ],
      "name": "findDocHash",
      "outputs": [
        {
          "name": "",
          "type": "uint256"
        },
        {
          "name": "",
          "type": "uint256"
        }
      ],
      "payable": false,
      "stateMutability": "view",
      "type": "function",
      "signature": "0x4cf00d3f"
    }
  ],
  "bytecode": "0x608060405234801561001057600080fd5b506101ad806100206000396000f3fe60806040526004361061004c576000357c0100000000000000000000000000000000000000000000000000000000900463ffffffff168063133a48f3146100515780634cf00d3f1461008c575b600080fd5b34801561005d57600080fd5b5061008a6004803603602081101561007457600080fd5b81019080803590602001909291905050506100e2565b005b34801561009857600080fd5b506100c5600480360360208110156100af57600080fd5b810190808035906020019092919050505061012f565b604051808381526020018281526020019250505060405180910390f35b6100ea610167565b60408051908101604052804281526020014381525090508060008084815260200190815260200160002060008201518160000155602082015181600101559050505050565b600080600080848152602001908152602001600020600001546000808581526020019081526020016000206001015491509150915091565b60408051908101604052806000815260200160008152509056fea165627a7a723058208032e00151511940234758dbd02ef459bb1bb43970cb41e4c1b26ce859a1d9d80029",
  "source": "pragma solidity 0.5.0;\n\ncontract MO {\n\n    struct Record {\n        uint mineTime;\n        uint blockNumber;\n    }\n\n    mapping (bytes32 => Record) private docHashes;\n\n    constructor() public {\n        // constructor\n    }\n\n    function addDocHash (bytes32 hash) public {\n        Record memory newRecord = Record(now, block.number);\n        docHashes[hash] = newRecord;\n    }\n\n    function findDocHash (bytes32 hash) public view returns(uint, uint) {\n        return (docHashes[hash].mineTime, docHashes[hash].blockNumber);\n    }\n\n}\n",
  "sourcePath": "/Users/admin/Documents/GitHub/NUCLEARIS-Material-Organization/contracts/MO.sol",
  "compiler": {
    "name": "solc",
    "version": "0.5.0+commit.1d4f565a.Emscripten.clang"
  },
  "schemaVersion": "3.0.1",
  "updatedAt": "2019-02-16T10:55:19.355Z",
  "devdoc": {
    "methods": {}
  },
  "userdoc": {
    "methods": {}
  }
}