{
  "contractName": "MO",
  "abi": [
    {
      "constant": true,
      "inputs": [
        {
          "name": "",
          "type": "uint256"
        }
      ],
      "name": "documentos",
      "outputs": [
        {
          "name": "id",
          "type": "uint256"
        },
        {
          "name": "timestamp",
          "type": "uint256"
        },
        {
          "name": "doc_hash",
          "type": "string"
        },
        {
          "name": "ipfs_hash",
          "type": "string"
        },
        {
          "name": "owner",
          "type": "address"
        }
      ],
      "payable": false,
      "stateMutability": "view",
      "type": "function",
      "signature": "0xbb674f20"
    },
    {
      "constant": true,
      "inputs": [],
      "name": "documentoCount",
      "outputs": [
        {
          "name": "",
          "type": "uint256"
        }
      ],
      "payable": false,
      "stateMutability": "view",
      "type": "function",
      "signature": "0xe45ace15"
    },
    {
      "anonymous": false,
      "inputs": [
        {
          "indexed": true,
          "name": "documentoCount",
          "type": "uint256"
        }
      ],
      "name": "votedEvent",
      "type": "event",
      "signature": "0xfff3c900d938d21d0990d786e819f29b8d05c1ef587b462b939609625b684b16"
    },
    {
      "constant": false,
      "inputs": [
        {
          "name": "timestamp",
          "type": "uint256"
        },
        {
          "name": "doc_hash",
          "type": "string"
        },
        {
          "name": "ipfs_hash",
          "type": "string"
        }
      ],
      "name": "addHash",
      "outputs": [],
      "payable": false,
      "stateMutability": "nonpayable",
      "type": "function",
      "signature": "0x82426e59"
    },
    {
      "constant": true,
      "inputs": [
        {
          "name": "id",
          "type": "uint256"
        }
      ],
      "name": "listdocHash",
      "outputs": [
        {
          "name": "",
          "type": "string"
        }
      ],
      "payable": false,
      "stateMutability": "view",
      "type": "function",
      "signature": "0x9f6945a6"
    },
    {
      "constant": true,
      "inputs": [],
      "name": "Cantdoc",
      "outputs": [
        {
          "name": "",
          "type": "uint256"
        }
      ],
      "payable": false,
      "stateMutability": "view",
      "type": "function",
      "signature": "0xbd65591d"
    },
    {
      "constant": true,
      "inputs": [
        {
          "name": "id",
          "type": "uint256"
        }
      ],
      "name": "listipfsHash",
      "outputs": [
        {
          "name": "",
          "type": "string"
        }
      ],
      "payable": false,
      "stateMutability": "view",
      "type": "function",
      "signature": "0x9c74f6aa"
    },
    {
      "constant": true,
      "inputs": [
        {
          "name": "id",
          "type": "uint256"
        }
      ],
      "name": "listowner",
      "outputs": [
        {
          "name": "",
          "type": "address"
        }
      ],
      "payable": false,
      "stateMutability": "view",
      "type": "function",
      "signature": "0xee8c60fb"
    }
  ],
  "bytecode": "0x608060405234801561001057600080fd5b50610ad1806100206000396000f3fe608060405260043610610083576000357c0100000000000000000000000000000000000000000000000000000000900463ffffffff16806382426e59146100885780639c74f6aa146101f15780639f6945a6146102a5578063bb674f2014610359578063bd65591d146104ba578063e45ace15146104e5578063ee8c60fb14610510575b600080fd5b34801561009457600080fd5b506101ef600480360360608110156100ab57600080fd5b8101908080359060200190929190803590602001906401000000008111156100d257600080fd5b8201836020820111156100e457600080fd5b8035906020019184600183028401116401000000008311171561010657600080fd5b91908080601f016020809104026020016040519081016040528093929190818152602001838380828437600081840152601f19601f8201169050808301925050505050505091929192908035906020019064010000000081111561016957600080fd5b82018360208201111561017b57600080fd5b8035906020019184600183028401116401000000008311171561019d57600080fd5b91908080601f016020809104026020016040519081016040528093929190818152602001838380828437600081840152601f19601f82011690508083019250505050505050919291929050505061058b565b005b3480156101fd57600080fd5b5061022a6004803603602081101561021457600080fd5b81019080803590602001909291905050506106bd565b6040518080602001828103825283818151815260200191508051906020019080838360005b8381101561026a57808201518184015260208101905061024f565b50505050905090810190601f1680156102975780820380516001836020036101000a031916815260200191505b509250505060405180910390f35b3480156102b157600080fd5b506102de600480360360208110156102c857600080fd5b8101908080359060200190929190505050610774565b6040518080602001828103825283818151815260200191508051906020019080838360005b8381101561031e578082015181840152602081019050610303565b50505050905090810190601f16801561034b5780820380516001836020036101000a031916815260200191505b509250505060405180910390f35b34801561036557600080fd5b506103926004803603602081101561037c57600080fd5b810190808035906020019092919050505061082b565b6040518086815260200185815260200180602001806020018473ffffffffffffffffffffffffffffffffffffffff1673ffffffffffffffffffffffffffffffffffffffff168152602001838103835286818151815260200191508051906020019080838360005b838110156104145780820151818401526020810190506103f9565b50505050905090810190601f1680156104415780820380516001836020036101000a031916815260200191505b50838103825285818151815260200191508051906020019080838360005b8381101561047a57808201518184015260208101905061045f565b50505050905090810190601f1680156104a75780820380516001836020036101000a031916815260200191505b5097505050505050505060405180910390f35b3480156104c657600080fd5b506104cf6109b1565b6040518082815260200191505060405180910390f35b3480156104f157600080fd5b506104fa6109bb565b6040518082815260200191505060405180910390f35b34801561051c57600080fd5b506105496004803603602081101561053357600080fd5b81019080803590602001909291905050506109c1565b604051808273ffffffffffffffffffffffffffffffffffffffff1673ffffffffffffffffffffffffffffffffffffffff16815260200191505060405180910390f35b60016000815480929190600101919050555060a06040519081016040528060015481526020018481526020018381526020018281526020013373ffffffffffffffffffffffffffffffffffffffff16815250600080600154815260200190815260200160002060008201518160000155602082015181600101556040820151816002019080519060200190610621929190610a00565b50606082015181600301908051906020019061063e929190610a00565b5060808201518160040160006101000a81548173ffffffffffffffffffffffffffffffffffffffff021916908373ffffffffffffffffffffffffffffffffffffffff1602179055509050506001547ffff3c900d938d21d0990d786e819f29b8d05c1ef587b462b939609625b684b1660405160405180910390a2505050565b60606000808381526020019081526020016000206003018054600181600116156101000203166002900480601f0160208091040260200160405190810160405280929190818152602001828054600181600116156101000203166002900480156107685780601f1061073d57610100808354040283529160200191610768565b820191906000526020600020905b81548152906001019060200180831161074b57829003601f168201915b50505050509050919050565b60606000808381526020019081526020016000206002018054600181600116156101000203166002900480601f01602080910402602001604051908101604052809291908181526020018280546001816001161561010002031660029004801561081f5780601f106107f45761010080835404028352916020019161081f565b820191906000526020600020905b81548152906001019060200180831161080257829003601f168201915b50505050509050919050565b6000602052806000526040600020600091509050806000015490806001015490806002018054600181600116156101000203166002900480601f0160208091040260200160405190810160405280929190818152602001828054600181600116156101000203166002900480156108e35780601f106108b8576101008083540402835291602001916108e3565b820191906000526020600020905b8154815290600101906020018083116108c657829003601f168201915b505050505090806003018054600181600116156101000203166002900480601f0160208091040260200160405190810160405280929190818152602001828054600181600116156101000203166002900480156109815780601f1061095657610100808354040283529160200191610981565b820191906000526020600020905b81548152906001019060200180831161096457829003601f168201915b5050505050908060040160009054906101000a900473ffffffffffffffffffffffffffffffffffffffff16905085565b6000600154905090565b60015481565b600080600083815260200190815260200160002060040160009054906101000a900473ffffffffffffffffffffffffffffffffffffffff169050919050565b828054600181600116156101000203166002900490600052602060002090601f016020900481019282601f10610a4157805160ff1916838001178555610a6f565b82800160010185558215610a6f579182015b82811115610a6e578251825591602001919060010190610a53565b5b509050610a7c9190610a80565b5090565b610aa291905b80821115610a9e576000816000905550600101610a86565b5090565b9056fea165627a7a72305820e65cdbe0d6add9a4e1016b11dd253b4d13da8a95f46cec35e32ed6e82791dec50029",
  "source": "pragma solidity >=0.4.21 <0.6.0;\n\ncontract MO {\n\n\t// Definici贸n del struct que define el armado de los documentos\n\tstruct Documento {\n\t\tuint id;\n\t\tuint timestamp;\n\t\tstring doc_hash;\n\t\tstring ipfs_hash;\n\t\taddress owner;\n\t}\n\n\tevent votedEvent (\n\t\t\tuint indexed documentoCount\n\t);\n\n\t//El mapping del struct a una variable tipo array\n\tmapping(uint => Documento) public documentos;\n\n\t// La definici贸n de una variable que lleva cuenta de la cantidad de documentos cargados\n\tuint public documentoCount;\n\n\t// Esta funci贸n toma los argumentos (hash de documento, hash de ubicaci贸n en ipfs y timestamp), y los agrega al storage, ademas aumenta el documentoCount mas 1\n\tfunction addHash (uint timestamp, string memory doc_hash, string memory ipfs_hash) public {\n\t\tdocumentoCount ++;\n\t\tdocumentos[documentoCount] = Documento(documentoCount, timestamp, doc_hash, ipfs_hash, msg.sender);\n\n\t\temit votedEvent(documentoCount);\n\n\t}\n\n\t/* Esta funcion debe tomar un string hash pasado por el front-end al contrato y chequearlo en un loop contra los hashes guardados en storage (en desarrollo, ayuda bienvenida)\n\tfunction checkHash (string memory _hash) public {\n\t\tfor (uint i=1; i <= documentoCount; i++) {\n\n\t\t}\n\t}*/\n\n\tfunction listdocHash (uint id) public view returns (string memory) {\n\t\treturn documentos[id].doc_hash;\n\t}\n\tfunction Cantdoc () public view returns (uint) {\n\t\treturn documentoCount;\n\t}\n\tfunction listipfsHash (uint id) public view returns (string memory) {\n\t\treturn documentos[id].ipfs_hash;\n\t}\n\tfunction listowner (uint id) public view returns (address) {\n\t\treturn documentos[id].owner;\n\t}\n}\n",
  "sourcePath": "/Users/admin/Documents/GitHub/NUCLEARIS-Material-Organization/contracts/MO.sol",
  "compiler": {
    "name": "solc",
    "version": "0.5.0+commit.1d4f565a.Emscripten.clang"
  },
  "schemaVersion": "3.0.1",
  "updatedAt": "2019-01-13T18:31:37.768Z",
  "devdoc": {
    "methods": {}
  },
  "userdoc": {
    "methods": {}
  }
}