{
  "contractName": "MO",
  "abi": [
    {
      "constant": true,
      "inputs": [
        {
          "name": "",
          "type": "uint256"
        }
      ],
      "name": "documentos",
      "outputs": [
        {
          "name": "id",
          "type": "uint256"
        },
        {
          "name": "timestamp",
          "type": "uint256"
        },
        {
          "name": "doc_hash",
          "type": "string"
        },
        {
          "name": "ipfs_hash",
          "type": "string"
        },
        {
          "name": "owner",
          "type": "address"
        }
      ],
      "payable": false,
      "stateMutability": "view",
      "type": "function",
      "signature": "0xbb674f20"
    },
    {
      "constant": true,
      "inputs": [],
      "name": "documentoCount",
      "outputs": [
        {
          "name": "",
          "type": "uint256"
        }
      ],
      "payable": false,
      "stateMutability": "view",
      "type": "function",
      "signature": "0xe45ace15"
    },
    {
      "inputs": [],
      "payable": false,
      "stateMutability": "nonpayable",
      "type": "constructor",
      "signature": "constructor"
    },
    {
      "anonymous": false,
      "inputs": [
        {
          "indexed": false,
          "name": "_hash",
          "type": "string"
        }
      ],
      "name": "console",
      "type": "event",
      "signature": "0x3e9b807655b7225ceb72559056c33b63a2fc5a68f81e3d1dd61590145732019b"
    },
    {
      "constant": false,
      "inputs": [
        {
          "name": "timestamp",
          "type": "uint256"
        },
        {
          "name": "doc_hash",
          "type": "string"
        },
        {
          "name": "ipfs_hash",
          "type": "string"
        }
      ],
      "name": "addHash",
      "outputs": [],
      "payable": false,
      "stateMutability": "nonpayable",
      "type": "function",
      "signature": "0x82426e59"
    },
    {
      "constant": false,
      "inputs": [
        {
          "name": "_hash",
          "type": "string"
        }
      ],
      "name": "checkHash",
      "outputs": [],
      "payable": false,
      "stateMutability": "nonpayable",
      "type": "function",
      "signature": "0xe670f7cd"
    }
  ],
  "bytecode": "0x608060405234801561001057600080fd5b50610843806100206000396000f3fe608060405260043610610062576000357c0100000000000000000000000000000000000000000000000000000000900463ffffffff16806382426e5914610067578063bb674f20146101d0578063e45ace1514610331578063e670f7cd1461035c575b600080fd5b34801561007357600080fd5b506101ce6004803603606081101561008a57600080fd5b8101908080359060200190929190803590602001906401000000008111156100b157600080fd5b8201836020820111156100c357600080fd5b803590602001918460018302840111640100000000831117156100e557600080fd5b91908080601f016020809104026020016040519081016040528093929190818152602001838380828437600081840152601f19601f8201169050808301925050505050505091929192908035906020019064010000000081111561014857600080fd5b82018360208201111561015a57600080fd5b8035906020019184600183028401116401000000008311171561017c57600080fd5b91908080601f016020809104026020016040519081016040528093929190818152602001838380828437600081840152601f19601f820116905080830192505050505050509192919290505050610424565b005b3480156101dc57600080fd5b50610209600480360360208110156101f357600080fd5b8101908080359060200190929190505050610527565b6040518086815260200185815260200180602001806020018473ffffffffffffffffffffffffffffffffffffffff1673ffffffffffffffffffffffffffffffffffffffff168152602001838103835286818151815260200191508051906020019080838360005b8381101561028b578082015181840152602081019050610270565b50505050905090810190601f1680156102b85780820380516001836020036101000a031916815260200191505b50838103825285818151815260200191508051906020019080838360005b838110156102f15780820151818401526020810190506102d6565b50505050905090810190601f16801561031e5780820380516001836020036101000a031916815260200191505b5097505050505050505060405180910390f35b34801561033d57600080fd5b506103466106ad565b6040518082815260200191505060405180910390f35b34801561036857600080fd5b506104226004803603602081101561037f57600080fd5b810190808035906020019064010000000081111561039c57600080fd5b8201836020820111156103ae57600080fd5b803590602001918460018302840111640100000000831117156103d057600080fd5b91908080601f016020809104026020016040519081016040528093929190818152602001838380828437600081840152601f19601f8201169050808301925050505050505091929192905050506106b3565b005b60016000815480929190600101919050555060a06040519081016040528060015481526020018481526020018381526020018281526020013373ffffffffffffffffffffffffffffffffffffffff168152506000806001548152602001908152602001600020600082015181600001556020820151816001015560408201518160020190805190602001906104ba929190610772565b5060608201518160030190805190602001906104d7929190610772565b5060808201518160040160006101000a81548173ffffffffffffffffffffffffffffffffffffffff021916908373ffffffffffffffffffffffffffffffffffffffff160217905550905050505050565b6000602052806000526040600020600091509050806000015490806001015490806002018054600181600116156101000203166002900480601f0160208091040260200160405190810160405280929190818152602001828054600181600116156101000203166002900480156105df5780601f106105b4576101008083540402835291602001916105df565b820191906000526020600020905b8154815290600101906020018083116105c257829003601f168201915b505050505090806003018054600181600116156101000203166002900480601f01602080910402602001604051908101604052809291908181526020018280546001816001161561010002031660029004801561067d5780601f106106525761010080835404028352916020019161067d565b820191906000526020600020905b81548152906001019060200180831161066057829003601f168201915b5050505050908060040160009054906101000a900473ffffffffffffffffffffffffffffffffffffffff16905085565b60015481565b6000600190505b6001548111151561076e577f3e9b807655b7225ceb72559056c33b63a2fc5a68f81e3d1dd61590145732019b826040518080602001828103825283818151815260200191508051906020019080838360005b8381101561072757808201518184015260208101905061070c565b50505050905090810190601f1680156107545780820380516001836020036101000a031916815260200191505b509250505060405180910390a180806001019150506106ba565b5050565b828054600181600116156101000203166002900490600052602060002090601f016020900481019282601f106107b357805160ff19168380011785556107e1565b828001600101855582156107e1579182015b828111156107e05782518255916020019190600101906107c5565b5b5090506107ee91906107f2565b5090565b61081491905b808211156108105760008160009055506001016107f8565b5090565b9056fea165627a7a723058205fb5e49ae14a90d7cf40b38c9af43472aa572a6e6283708559138752546e3cb70029",
  "source": "pragma solidity >=0.4.21 <0.6.0;\n\ncontract MO {\n\n  struct Documento {\n    uint id;\n    uint timestamp;\n    string doc_hash;\n    string ipfs_hash;\n    address owner;\n  }\n\n  mapping(uint => Documento) public documentos;\n\n  uint public documentoCount;\n\n  event console(string _hash);\n\n  constructor() public {\n  \n  }\n\n  // Esta función toma los argumentos (hash de documento, hash de ubicación en ipfs y timestamp), y los agrega al storage\n  function addHash (uint timestamp, string memory doc_hash, string memory ipfs_hash) public {\n    documentoCount ++;\n    documentos[documentoCount] = Documento(documentoCount, timestamp, doc_hash, ipfs_hash, msg.sender);\n  }\n\n  function checkHash (string memory _hash) public {\n    for (uint i=1; i <= documentoCount; i++) {\n      emit console(_hash);\n    }\n  }\n}\n",
  "sourcePath": "P:/Sebastian Martinez/Workspace Github/MaterialOrganization/contracts/MO.sol",
  "compiler": {
    "name": "solc",
    "version": "0.5.0+commit.1d4f565a.Emscripten.clang"
  },
  "schemaVersion": "3.0.1",
  "updatedAt": "2019-01-10T18:12:17.060Z",
  "devdoc": {
    "methods": {}
  },
  "userdoc": {
    "methods": {}
  }
}