{
  "contractName": "MO",
  "abi": [
    {
      "constant": true,
      "inputs": [
        {
          "name": "",
          "type": "uint256"
        }
      ],
      "name": "documentos",
      "outputs": [
        {
          "name": "id",
          "type": "uint256"
        },
        {
          "name": "timestamp",
          "type": "uint256"
        },
        {
          "name": "doc_hash",
          "type": "string"
        },
        {
          "name": "ipfs_hash",
          "type": "string"
        },
        {
          "name": "owner",
          "type": "address"
        }
      ],
      "payable": false,
      "stateMutability": "view",
      "type": "function",
      "signature": "0xbb674f20"
    },
    {
      "constant": true,
      "inputs": [],
      "name": "documentoCount",
      "outputs": [
        {
          "name": "",
          "type": "uint256"
        }
      ],
      "payable": false,
      "stateMutability": "view",
      "type": "function",
      "signature": "0xe45ace15"
    },
    {
      "constant": false,
      "inputs": [
        {
          "name": "timestamp",
          "type": "uint256"
        },
        {
          "name": "doc_hash",
          "type": "string"
        },
        {
          "name": "ipfs_hash",
          "type": "string"
        }
      ],
      "name": "addHash",
      "outputs": [],
      "payable": false,
      "stateMutability": "nonpayable",
      "type": "function",
      "signature": "0x82426e59"
    }
  ],
  "bytecode": "0x608060405234801561001057600080fd5b506106b1806100206000396000f3fe608060405260043610610057576000357c0100000000000000000000000000000000000000000000000000000000900463ffffffff16806382426e591461005c578063bb674f20146101c5578063e45ace1514610326575b600080fd5b34801561006857600080fd5b506101c36004803603606081101561007f57600080fd5b8101908080359060200190929190803590602001906401000000008111156100a657600080fd5b8201836020820111156100b857600080fd5b803590602001918460018302840111640100000000831117156100da57600080fd5b91908080601f016020809104026020016040519081016040528093929190818152602001838380828437600081840152601f19601f8201169050808301925050505050505091929192908035906020019064010000000081111561013d57600080fd5b82018360208201111561014f57600080fd5b8035906020019184600183028401116401000000008311171561017157600080fd5b91908080601f016020809104026020016040519081016040528093929190818152602001838380828437600081840152601f19601f820116905080830192505050505050509192919290505050610351565b005b3480156101d157600080fd5b506101fe600480360360208110156101e857600080fd5b8101908080359060200190929190505050610454565b6040518086815260200185815260200180602001806020018473ffffffffffffffffffffffffffffffffffffffff1673ffffffffffffffffffffffffffffffffffffffff168152602001838103835286818151815260200191508051906020019080838360005b83811015610280578082015181840152602081019050610265565b50505050905090810190601f1680156102ad5780820380516001836020036101000a031916815260200191505b50838103825285818151815260200191508051906020019080838360005b838110156102e65780820151818401526020810190506102cb565b50505050905090810190601f1680156103135780820380516001836020036101000a031916815260200191505b5097505050505050505060405180910390f35b34801561033257600080fd5b5061033b6105da565b6040518082815260200191505060405180910390f35b60016000815480929190600101919050555060a06040519081016040528060015481526020018481526020018381526020018281526020013373ffffffffffffffffffffffffffffffffffffffff168152506000806001548152602001908152602001600020600082015181600001556020820151816001015560408201518160020190805190602001906103e79291906105e0565b5060608201518160030190805190602001906104049291906105e0565b5060808201518160040160006101000a81548173ffffffffffffffffffffffffffffffffffffffff021916908373ffffffffffffffffffffffffffffffffffffffff160217905550905050505050565b6000602052806000526040600020600091509050806000015490806001015490806002018054600181600116156101000203166002900480601f01602080910402602001604051908101604052809291908181526020018280546001816001161561010002031660029004801561050c5780601f106104e15761010080835404028352916020019161050c565b820191906000526020600020905b8154815290600101906020018083116104ef57829003601f168201915b505050505090806003018054600181600116156101000203166002900480601f0160208091040260200160405190810160405280929190818152602001828054600181600116156101000203166002900480156105aa5780601f1061057f576101008083540402835291602001916105aa565b820191906000526020600020905b81548152906001019060200180831161058d57829003601f168201915b5050505050908060040160009054906101000a900473ffffffffffffffffffffffffffffffffffffffff16905085565b60015481565b828054600181600116156101000203166002900490600052602060002090601f016020900481019282601f1061062157805160ff191683800117855561064f565b8280016001018555821561064f579182015b8281111561064e578251825591602001919060010190610633565b5b50905061065c9190610660565b5090565b61068291905b8082111561067e576000816000905550600101610666565b5090565b9056fea165627a7a7230582061319c7e69346ff07b686f64dcc1231f05f27244e0bd53681d6728e464eb8c2e0029",
  "source": "pragma solidity >=0.4.21 <0.6.0;\n\ncontract MO {\n\n  // Definici贸n del struct que define el armado de los documentos\n  struct Documento {\n    uint id;\n    uint timestamp;\n    string doc_hash;\n    string ipfs_hash;\n    address owner;\n  }\n\n  //El mapping del struct a una variable tipo array\n  mapping(uint => Documento) public documentos;\n\n  // La definici贸n de una variable que lleva cuenta de la cantidad de documentos cargados\n  uint public documentoCount;\n\n  // Esta funci贸n toma los argumentos (hash de documento, hash de ubicaci贸n en ipfs y timestamp), y los agrega al storage, ademas aumenta el documentoCount mas 1\n  function addHash (uint timestamp, string memory doc_hash, string memory ipfs_hash) public {\n    documentoCount ++;\n    documentos[documentoCount] = Documento(documentoCount, timestamp, doc_hash, ipfs_hash, msg.sender);\n  }\n\n  /* Esta funcion debe tomar un string hash pasado por el front-end al contrato y chequearlo en un loop contra los hashes guardados en storage (en desarrollo, ayuda bienvenida)\n  function checkHash (string memory _hash) public {\n    for (uint i=1; i <= documentoCount; i++) {\n\n    }\n  }*/\n}\n",
  "sourcePath": "P:/Sebastian Martinez/Workspace Github/MaterialOrganization/contracts/MO.sol",
  "compiler": {
    "name": "solc",
    "version": "0.5.0+commit.1d4f565a.Emscripten.clang"
  },
  "schemaVersion": "3.0.1",
  "updatedAt": "2019-01-10T19:30:18.208Z",
  "devdoc": {
    "methods": {}
  },
  "userdoc": {
    "methods": {}
  }
}