{
  "contractName": "NuclearPoE",
  "abi": [
    {
      "constant": true,
      "inputs": [],
      "name": "docNumber",
      "outputs": [
        {
          "name": "",
          "type": "uint256"
        }
      ],
      "payable": false,
      "stateMutability": "view",
      "type": "function",
      "signature": "0x09b0466b"
    },
    {
      "constant": true,
      "inputs": [
        {
          "name": "",
          "type": "uint256"
        }
      ],
      "name": "usersArray",
      "outputs": [
        {
          "name": "",
          "type": "address"
        }
      ],
      "payable": false,
      "stateMutability": "view",
      "type": "function",
      "signature": "0x2fae35c0"
    },
    {
      "constant": true,
      "inputs": [
        {
          "name": "",
          "type": "uint256"
        }
      ],
      "name": "projectsArray",
      "outputs": [
        {
          "name": "",
          "type": "uint256"
        }
      ],
      "payable": false,
      "stateMutability": "view",
      "type": "function",
      "signature": "0x64b785fa"
    },
    {
      "constant": false,
      "inputs": [],
      "name": "renounceOwnership",
      "outputs": [],
      "payable": false,
      "stateMutability": "nonpayable",
      "type": "function",
      "signature": "0x715018a6"
    },
    {
      "constant": true,
      "inputs": [
        {
          "name": "",
          "type": "address"
        }
      ],
      "name": "user",
      "outputs": [
        {
          "name": "name",
          "type": "bytes32"
        },
        {
          "name": "userType",
          "type": "uint8"
        },
        {
          "name": "status",
          "type": "bool"
        }
      ],
      "payable": false,
      "stateMutability": "view",
      "type": "function",
      "signature": "0x81e7e20e"
    },
    {
      "constant": true,
      "inputs": [],
      "name": "owner",
      "outputs": [
        {
          "name": "",
          "type": "address"
        }
      ],
      "payable": false,
      "stateMutability": "view",
      "type": "function",
      "signature": "0x8da5cb5b"
    },
    {
      "constant": true,
      "inputs": [],
      "name": "isOwner",
      "outputs": [
        {
          "name": "",
          "type": "bool"
        }
      ],
      "payable": false,
      "stateMutability": "view",
      "type": "function",
      "signature": "0x8f32d59b"
    },
    {
      "constant": true,
      "inputs": [
        {
          "name": "",
          "type": "address"
        },
        {
          "name": "",
          "type": "uint256"
        }
      ],
      "name": "userProjectContracts",
      "outputs": [
        {
          "name": "",
          "type": "uint256"
        }
      ],
      "payable": false,
      "stateMutability": "view",
      "type": "function",
      "signature": "0xc1792d05"
    },
    {
      "constant": true,
      "inputs": [
        {
          "name": "",
          "type": "uint256"
        }
      ],
      "name": "processContractsArray",
      "outputs": [
        {
          "name": "",
          "type": "address"
        }
      ],
      "payable": false,
      "stateMutability": "view",
      "type": "function",
      "signature": "0xe6c39930"
    },
    {
      "constant": false,
      "inputs": [
        {
          "name": "newOwner",
          "type": "address"
        }
      ],
      "name": "transferOwnership",
      "outputs": [],
      "payable": false,
      "stateMutability": "nonpayable",
      "type": "function",
      "signature": "0xf2fde38b"
    },
    {
      "anonymous": false,
      "inputs": [],
      "name": "CreateProject",
      "type": "event",
      "signature": "0xbab479b5b86675be7215930d13339d95c3af3099f28b31caf6cac1c3a08c3da7"
    },
    {
      "anonymous": false,
      "inputs": [],
      "name": "CreateUser",
      "type": "event",
      "signature": "0xdf39eb8e1857414a3a40d5964987610c5f80d0d28a16f33fa749ac85d9051666"
    },
    {
      "anonymous": false,
      "inputs": [
        {
          "indexed": false,
          "name": "ProcessContractAddress",
          "type": "address"
        }
      ],
      "name": "CreateProcess",
      "type": "event",
      "signature": "0x908a1d72896b3c6e31c2e9ac8d65ae9676a54dd26195d4496442c50ff1b0b797"
    },
    {
      "anonymous": false,
      "inputs": [],
      "name": "CloseProject",
      "type": "event",
      "signature": "0xdd2d87603957aa30528bbb6ece5f26fb72b6e34738d004ddf70c393ef7894ef9"
    },
    {
      "anonymous": false,
      "inputs": [
        {
          "indexed": true,
          "name": "previousOwner",
          "type": "address"
        },
        {
          "indexed": true,
          "name": "newOwner",
          "type": "address"
        }
      ],
      "name": "OwnershipTransferred",
      "type": "event",
      "signature": "0x8be0079c531659141344cd1fd0a4f28419497f9722a3daafe3b4186f6b6457e0"
    },
    {
      "constant": false,
      "inputs": [
        {
          "name": "_expediente",
          "type": "uint256"
        },
        {
          "name": "_clientAddress",
          "type": "address"
        },
        {
          "name": "title",
          "type": "bytes32"
        },
        {
          "name": "oc",
          "type": "bytes32"
        }
      ],
      "name": "createProject",
      "outputs": [],
      "payable": false,
      "stateMutability": "nonpayable",
      "type": "function",
      "signature": "0x66c3e861"
    },
    {
      "constant": false,
      "inputs": [
        {
          "name": "_userAddress",
          "type": "address"
        },
        {
          "name": "_userType",
          "type": "uint8"
        },
        {
          "name": "_userName",
          "type": "bytes32"
        }
      ],
      "name": "createUser",
      "outputs": [],
      "payable": false,
      "stateMutability": "nonpayable",
      "type": "function",
      "signature": "0x457b048f"
    },
    {
      "constant": false,
      "inputs": [
        {
          "name": "_userAddress",
          "type": "address"
        }
      ],
      "name": "changeUserStatus",
      "outputs": [],
      "payable": false,
      "stateMutability": "nonpayable",
      "type": "function",
      "signature": "0x1da5e56f"
    },
    {
      "constant": false,
      "inputs": [
        {
          "name": "_supplierAddress",
          "type": "address"
        },
        {
          "name": "_processName",
          "type": "bytes32"
        }
      ],
      "name": "createProcess",
      "outputs": [],
      "payable": false,
      "stateMutability": "nonpayable",
      "type": "function",
      "signature": "0xfb4e2c79"
    },
    {
      "constant": false,
      "inputs": [
        {
          "name": "_expediente",
          "type": "uint256"
        },
        {
          "name": "_processContract",
          "type": "address"
        }
      ],
      "name": "addProcessToProject",
      "outputs": [],
      "payable": false,
      "stateMutability": "nonpayable",
      "type": "function",
      "signature": "0x73f04d7f"
    },
    {
      "constant": false,
      "inputs": [
        {
          "name": "_expediente",
          "type": "uint256"
        }
      ],
      "name": "closeProject",
      "outputs": [],
      "payable": false,
      "stateMutability": "nonpayable",
      "type": "function",
      "signature": "0x93dc12e6"
    },
    {
      "constant": false,
      "inputs": [
        {
          "name": "_processAddress",
          "type": "address"
        }
      ],
      "name": "incrementDocNumber",
      "outputs": [
        {
          "name": "",
          "type": "uint256"
        }
      ],
      "payable": false,
      "stateMutability": "nonpayable",
      "type": "function",
      "signature": "0x81e19490"
    },
    {
      "constant": true,
      "inputs": [],
      "name": "getAllProcessContracts",
      "outputs": [
        {
          "name": "",
          "type": "address[]"
        }
      ],
      "payable": false,
      "stateMutability": "view",
      "type": "function",
      "signature": "0x75cae8c0"
    },
    {
      "constant": true,
      "inputs": [
        {
          "name": "_expediente",
          "type": "uint256"
        }
      ],
      "name": "getProcessContractsByProject",
      "outputs": [
        {
          "name": "",
          "type": "address[]"
        }
      ],
      "payable": false,
      "stateMutability": "view",
      "type": "function",
      "signature": "0x5c6db281"
    },
    {
      "constant": true,
      "inputs": [],
      "name": "getAllProjects",
      "outputs": [
        {
          "name": "",
          "type": "uint256[]"
        }
      ],
      "payable": false,
      "stateMutability": "view",
      "type": "function",
      "signature": "0x80d03829"
    },
    {
      "constant": true,
      "inputs": [],
      "name": "getAllUsers",
      "outputs": [
        {
          "name": "",
          "type": "address[]"
        }
      ],
      "payable": false,
      "stateMutability": "view",
      "type": "function",
      "signature": "0xe2842d79"
    },
    {
      "constant": true,
      "inputs": [
        {
          "name": "_address",
          "type": "address"
        }
      ],
      "name": "getUserDetails",
      "outputs": [
        {
          "name": "",
          "type": "bytes32"
        },
        {
          "name": "",
          "type": "uint8"
        },
        {
          "name": "",
          "type": "uint256[]"
        }
      ],
      "payable": false,
      "stateMutability": "view",
      "type": "function",
      "signature": "0xcc3d967b"
    },
    {
      "constant": true,
      "inputs": [
        {
          "name": "_expediente",
          "type": "uint256"
        }
      ],
      "name": "getProjectDetails",
      "outputs": [
        {
          "name": "",
          "type": "bool"
        },
        {
          "name": "",
          "type": "address"
        },
        {
          "name": "",
          "type": "bytes32"
        },
        {
          "name": "",
          "type": "bytes32"
        },
        {
          "name": "",
          "type": "address[]"
        }
      ],
      "payable": false,
      "stateMutability": "view",
      "type": "function",
      "signature": "0x5f8439e3"
    }
  ],
  "bytecode": "0x6080604052600060015560006100226100c5640100000000026401000000009004565b9050806000806101000a81548173ffffffffffffffffffffffffffffffffffffffff021916908373ffffffffffffffffffffffffffffffffffffffff1602179055508073ffffffffffffffffffffffffffffffffffffffff16600073ffffffffffffffffffffffffffffffffffffffff167f8be0079c531659141344cd1fd0a4f28419497f9722a3daafe3b4186f6b6457e060405160405180910390a3506100cd565b600033905090565b6132ae806100dc6000396000f3fe608060405260043610610133576000357c0100000000000000000000000000000000000000000000000000000000900463ffffffff16806309b0466b146101385780631da5e56f146101635780632fae35c0146101b4578063457b048f1461022f5780635c6db281146102975780635f8439e31461032757806364b785fa1461040357806366c3e86114610452578063715018a6146104c157806373f04d7f146104d857806375cae8c01461053357806380d038291461059f57806381e194901461060b57806381e7e20e146106705780638da5cb5b146106ed5780638f32d59b1461074457806393dc12e614610773578063c1792d05146107ae578063cc3d967b1461081d578063e2842d79146108d7578063e6c3993014610943578063f2fde38b146109be578063fb4e2c7914610a0f575b600080fd5b34801561014457600080fd5b5061014d610a6a565b6040518082815260200191505060405180910390f35b34801561016f57600080fd5b506101b26004803603602081101561018657600080fd5b81019080803573ffffffffffffffffffffffffffffffffffffffff169060200190929190505050610a70565b005b3480156101c057600080fd5b506101ed600480360360208110156101d757600080fd5b8101908080359060200190929190505050610c64565b604051808273ffffffffffffffffffffffffffffffffffffffff1673ffffffffffffffffffffffffffffffffffffffff16815260200191505060405180910390f35b34801561023b57600080fd5b506102956004803603606081101561025257600080fd5b81019080803573ffffffffffffffffffffffffffffffffffffffff169060200190929190803560ff16906020019092919080359060200190929190505050610ca2565b005b3480156102a357600080fd5b506102d0600480360360208110156102ba57600080fd5b8101908080359060200190929190505050610f2f565b6040518080602001828103825283818151815260200191508051906020019060200280838360005b838110156103135780820151818401526020810190506102f8565b505050509050019250505060405180910390f35b34801561033357600080fd5b506103606004803603602081101561034a57600080fd5b8101908080359060200190929190505050610fd3565b60405180861515151581526020018573ffffffffffffffffffffffffffffffffffffffff1673ffffffffffffffffffffffffffffffffffffffff16815260200184815260200183815260200180602001828103825283818151815260200191508051906020019060200280838360005b838110156103eb5780820151818401526020810190506103d0565b50505050905001965050505050505060405180910390f35b34801561040f57600080fd5b5061043c6004803603602081101561042657600080fd5b8101908080359060200190929190505050611115565b6040518082815260200191505060405180910390f35b34801561045e57600080fd5b506104bf6004803603608081101561047557600080fd5b8101908080359060200190929190803573ffffffffffffffffffffffffffffffffffffffff1690602001909291908035906020019092919080359060200190929190505050611138565b005b3480156104cd57600080fd5b506104d661150a565b005b3480156104e457600080fd5b50610531600480360360408110156104fb57600080fd5b8101908080359060200190929190803573ffffffffffffffffffffffffffffffffffffffff169060200190929190505050611645565b005b34801561053f57600080fd5b50610548611804565b6040518080602001828103825283818151815260200191508051906020019060200280838360005b8381101561058b578082015181840152602081019050610570565b505050509050019250505060405180910390f35b3480156105ab57600080fd5b506105b4611892565b6040518080602001828103825283818151815260200191508051906020019060200280838360005b838110156105f75780820151818401526020810190506105dc565b505050509050019250505060405180910390f35b34801561061757600080fd5b5061065a6004803603602081101561062e57600080fd5b81019080803573ffffffffffffffffffffffffffffffffffffffff1690602001909291905050506118ea565b6040518082815260200191505060405180910390f35b34801561067c57600080fd5b506106bf6004803603602081101561069357600080fd5b81019080803573ffffffffffffffffffffffffffffffffffffffff1690602001909291905050506119d3565b604051808481526020018360ff1660ff16815260200182151515158152602001935050505060405180910390f35b3480156106f957600080fd5b50610702611a17565b604051808273ffffffffffffffffffffffffffffffffffffffff1673ffffffffffffffffffffffffffffffffffffffff16815260200191505060405180910390f35b34801561075057600080fd5b50610759611a40565b604051808215151515815260200191505060405180910390f35b34801561077f57600080fd5b506107ac6004803603602081101561079657600080fd5b8101908080359060200190929190505050611a9e565b005b3480156107ba57600080fd5b50610807600480360360408110156107d157600080fd5b81019080803573ffffffffffffffffffffffffffffffffffffffff16906020019092919080359060200190929190505050611c3d565b6040518082815260200191505060405180910390f35b34801561082957600080fd5b5061086c6004803603602081101561084057600080fd5b81019080803573ffffffffffffffffffffffffffffffffffffffff169060200190929190505050611c6d565b604051808481526020018360ff1660ff16815260200180602001828103825283818151815260200191508051906020019060200280838360005b838110156108c15780820151818401526020810190506108a6565b5050505090500194505050505060405180910390f35b3480156108e357600080fd5b506108ec611da3565b6040518080602001828103825283818151815260200191508051906020019060200280838360005b8381101561092f578082015181840152602081019050610914565b505050509050019250505060405180910390f35b34801561094f57600080fd5b5061097c6004803603602081101561096657600080fd5b8101908080359060200190929190505050611e31565b604051808273ffffffffffffffffffffffffffffffffffffffff1673ffffffffffffffffffffffffffffffffffffffff16815260200191505060405180910390f35b3480156109ca57600080fd5b50610a0d600480360360208110156109e157600080fd5b81019080803573ffffffffffffffffffffffffffffffffffffffff169060200190929190505050611e6f565b005b348015610a1b57600080fd5b50610a6860048036036040811015610a3257600080fd5b81019080803573ffffffffffffffffffffffffffffffffffffffff16906020019092919080359060200190929190505050611ef7565b005b60015481565b610a78611a40565b1515610aec576040517f08c379a00000000000000000000000000000000000000000000000000000000081526004018080602001828103825260208152602001807f4f776e61626c653a2063616c6c6572206973206e6f7420746865206f776e657281525060200191505060405180910390fd5b60011515600660008373ffffffffffffffffffffffffffffffffffffffff1673ffffffffffffffffffffffffffffffffffffffff16815260200190815260200160002060010160019054906101000a900460ff161515141515610bb7576040517f08c379a00000000000000000000000000000000000000000000000000000000081526004018080602001828103825260148152602001807f5573657220616c7265616479206372656174656400000000000000000000000081525060200191505060405180910390fd5b600660008273ffffffffffffffffffffffffffffffffffffffff1673ffffffffffffffffffffffffffffffffffffffff16815260200190815260200160002060010160019054906101000a900460ff1615600660008373ffffffffffffffffffffffffffffffffffffffff1673ffffffffffffffffffffffffffffffffffffffff16815260200190815260200160002060010160016101000a81548160ff02191690831515021790555050565b600481815481101515610c7357fe5b906000526020600020016000915054906101000a900473ffffffffffffffffffffffffffffffffffffffff1681565b610caa611a40565b1515610d1e576040517f08c379a00000000000000000000000000000000000000000000000000000000081526004018080602001828103825260208152602001807f4f776e61626c653a2063616c6c6572206973206e6f7420746865206f776e657281525060200191505060405180910390fd5b60001515600660008573ffffffffffffffffffffffffffffffffffffffff1673ffffffffffffffffffffffffffffffffffffffff16815260200190815260200160002060010160019054906101000a900460ff161515141515610de9576040517f08c379a00000000000000000000000000000000000000000000000000000000081526004018080602001828103825260148152602001807f5573657220616c7265616479206372656174656400000000000000000000000081525060200191505060405180910390fd5b6060604051908101604052808281526020018360ff16815260200160011515815250600660008573ffffffffffffffffffffffffffffffffffffffff1673ffffffffffffffffffffffffffffffffffffffff1681526020019081526020016000206000820151816000015560208201518160010160006101000a81548160ff021916908360ff16021790555060408201518160010160016101000a81548160ff02191690831515021790555090505060048390806001815401808255809150509060018203906000526020600020016000909192909190916101000a81548173ffffffffffffffffffffffffffffffffffffffff021916908373ffffffffffffffffffffffffffffffffffffffff160217905550507fdf39eb8e1857414a3a40d5964987610c5f80d0d28a16f33fa749ac85d905166660405160405180910390a1505050565b606060076000838152602001908152602001600020600301805480602002602001604051908101604052809291908181526020018280548015610fc757602002820191906000526020600020905b8160009054906101000a900473ffffffffffffffffffffffffffffffffffffffff1673ffffffffffffffffffffffffffffffffffffffff1681526020019060010190808311610f7d575b50505050509050919050565b60008060008060606007600087815260200190815260200160002060000160009054906101000a900460ff166007600088815260200190815260200160002060000160019054906101000a900473ffffffffffffffffffffffffffffffffffffffff166007600089815260200190815260200160002060010154600760008a815260200190815260200160002060020154600760008b8152602001908152602001600020600301808054806020026020016040519081016040528092919081815260200182805480156110fb57602002820191906000526020600020905b8160009054906101000a900473ffffffffffffffffffffffffffffffffffffffff1673ffffffffffffffffffffffffffffffffffffffff16815260200190600101908083116110b1575b505050505090509450945094509450945091939590929450565b60038181548110151561112457fe5b906000526020600020016000915090505481565b611140611a40565b15156111b4576040517f08c379a00000000000000000000000000000000000000000000000000000000081526004018080602001828103825260208152602001807f4f776e61626c653a2063616c6c6572206973206e6f7420746865206f776e657281525060200191505060405180910390fd5b600015156007600086815260200190815260200160002060000160009054906101000a900460ff161515141515611253576040517f08c379a00000000000000000000000000000000000000000000000000000000081526004018080602001828103825260178152602001807f50726f6a65637420616c7265616479206372656174656400000000000000000081525060200191505060405180910390fd5b60011515600660008573ffffffffffffffffffffffffffffffffffffffff1673ffffffffffffffffffffffffffffffffffffffff16815260200190815260200160002060010160019054906101000a900460ff16151514151561131e576040517f08c379a00000000000000000000000000000000000000000000000000000000081526004018080602001828103825260138152602001807f5573657220646f6573206e6f742065786973740000000000000000000000000081525060200191505060405180910390fd5b606060006040519080825280602002602001820160405280156113505781602001602082028038833980820191505090505b50905060a0604051908101604052806001151581526020018573ffffffffffffffffffffffffffffffffffffffff168152602001848152602001838152602001828152506007600087815260200190815260200160002060008201518160000160006101000a81548160ff02191690831515021790555060208201518160000160016101000a81548173ffffffffffffffffffffffffffffffffffffffff021916908373ffffffffffffffffffffffffffffffffffffffff1602179055506040820151816001015560608201518160020155608082015181600301908051906020019061143e929190612339565b50905050600560008573ffffffffffffffffffffffffffffffffffffffff1673ffffffffffffffffffffffffffffffffffffffff16815260200190815260200160002085908060018154018082558091505090600182039060005260206000200160009091929091909150555060038590806001815401808255809150509060018203906000526020600020016000909192909190915055507fbab479b5b86675be7215930d13339d95c3af3099f28b31caf6cac1c3a08c3da760405160405180910390a15050505050565b611512611a40565b1515611586576040517f08c379a00000000000000000000000000000000000000000000000000000000081526004018080602001828103825260208152602001807f4f776e61626c653a2063616c6c6572206973206e6f7420746865206f776e657281525060200191505060405180910390fd5b600073ffffffffffffffffffffffffffffffffffffffff166000809054906101000a900473ffffffffffffffffffffffffffffffffffffffff1673ffffffffffffffffffffffffffffffffffffffff167f8be0079c531659141344cd1fd0a4f28419497f9722a3daafe3b4186f6b6457e060405160405180910390a360008060006101000a81548173ffffffffffffffffffffffffffffffffffffffff021916908373ffffffffffffffffffffffffffffffffffffffff160217905550565b61164d611a40565b15156116c1576040517f08c379a00000000000000000000000000000000000000000000000000000000081526004018080602001828103825260208152602001807f4f776e61626c653a2063616c6c6572206973206e6f7420746865206f776e657281525060200191505060405180910390fd5b600115156007600084815260200190815260200160002060000160009054906101000a900460ff161515141515611786576040517f08c379a00000000000000000000000000000000000000000000000000000000081526004018080602001828103825260278152602001807f50726f6a65637420646f6573206e6f74206578697374206f72206973206e6f7481526020017f206163746976650000000000000000000000000000000000000000000000000081525060400191505060405180910390fd5b600760008381526020019081526020016000206003018190806001815401808255809150509060018203906000526020600020016000909192909190916101000a81548173ffffffffffffffffffffffffffffffffffffffff021916908373ffffffffffffffffffffffffffffffffffffffff160217905550505050565b6060600280548060200260200160405190810160405280929190818152602001828054801561188857602002820191906000526020600020905b8160009054906101000a900473ffffffffffffffffffffffffffffffffffffffff1673ffffffffffffffffffffffffffffffffffffffff168152602001906001019080831161183e575b5050505050905090565b606060038054806020026020016040519081016040528092919081815260200182805480156118e057602002820191906000526020600020905b8154815260200190600101908083116118cc575b5050505050905090565b6000818073ffffffffffffffffffffffffffffffffffffffff163373ffffffffffffffffffffffffffffffffffffffff161415156119b6576040517f08c379a00000000000000000000000000000000000000000000000000000000081526004018080602001828103825260218152602001807f53656e6465722068617320746f2062652070726f6a65637420436f6e7472616381526020017f740000000000000000000000000000000000000000000000000000000000000081525060400191505060405180910390fd5b600160008154809291906001019190505550600154915050919050565b60066020528060005260406000206000915090508060000154908060010160009054906101000a900460ff16908060010160019054906101000a900460ff16905083565b60008060009054906101000a900473ffffffffffffffffffffffffffffffffffffffff16905090565b60008060009054906101000a900473ffffffffffffffffffffffffffffffffffffffff1673ffffffffffffffffffffffffffffffffffffffff16611a826121a8565b73ffffffffffffffffffffffffffffffffffffffff1614905090565b611aa6611a40565b1515611b1a576040517f08c379a00000000000000000000000000000000000000000000000000000000081526004018080602001828103825260208152602001807f4f776e61626c653a2063616c6c6572206973206e6f7420746865206f776e657281525060200191505060405180910390fd5b600115156007600083815260200190815260200160002060000160009054906101000a900460ff161515141515611bdf576040517f08c379a000000000000000000000000000000000000000000000000000000000815260040180806020018281038252602b8152602001807f50726f6a65637420646f6573206e6f74206578697374206f7220697320616c7281526020017f6561647920636c6f73656400000000000000000000000000000000000000000081525060400191505060405180910390fd5b60006007600083815260200190815260200160002060000160006101000a81548160ff0219169083151502179055507fdd2d87603957aa30528bbb6ece5f26fb72b6e34738d004ddf70c393ef7894ef960405160405180910390a150565b600560205281600052604060002081815481101515611c5857fe5b90600052602060002001600091509150505481565b6000806060600660008573ffffffffffffffffffffffffffffffffffffffff1673ffffffffffffffffffffffffffffffffffffffff16815260200190815260200160002060000154600660008673ffffffffffffffffffffffffffffffffffffffff1673ffffffffffffffffffffffffffffffffffffffff16815260200190815260200160002060010160009054906101000a900460ff16600560008773ffffffffffffffffffffffffffffffffffffffff1673ffffffffffffffffffffffffffffffffffffffff16815260200190815260200160002080805480602002602001604051908101604052809291908181526020018280548015611d8f57602002820191906000526020600020905b815481526020019060010190808311611d7b575b505050505090509250925092509193909250565b60606004805480602002602001604051908101604052809291908181526020018280548015611e2757602002820191906000526020600020905b8160009054906101000a900473ffffffffffffffffffffffffffffffffffffffff1673ffffffffffffffffffffffffffffffffffffffff1681526020019060010190808311611ddd575b5050505050905090565b600281815481101515611e4057fe5b906000526020600020016000915054906101000a900473ffffffffffffffffffffffffffffffffffffffff1681565b611e77611a40565b1515611eeb576040517f08c379a00000000000000000000000000000000000000000000000000000000081526004018080602001828103825260208152602001807f4f776e61626c653a2063616c6c6572206973206e6f7420746865206f776e657281525060200191505060405180910390fd5b611ef4816121b0565b50565b611eff611a40565b1515611f73576040517f08c379a00000000000000000000000000000000000000000000000000000000081526004018080602001828103825260208152602001807f4f776e61626c653a2063616c6c6572206973206e6f7420746865206f776e657281525060200191505060405180910390fd5b60011515600660008473ffffffffffffffffffffffffffffffffffffffff1673ffffffffffffffffffffffffffffffffffffffff16815260200190815260200160002060010160019054906101000a900460ff16151514151561203e576040517f08c379a00000000000000000000000000000000000000000000000000000000081526004018080602001828103825260138152602001807f5573657220646f6573206e6f742065786973740000000000000000000000000081525060200191505060405180910390fd5b600033838361204b6123c3565b808473ffffffffffffffffffffffffffffffffffffffff1673ffffffffffffffffffffffffffffffffffffffff1681526020018373ffffffffffffffffffffffffffffffffffffffff1673ffffffffffffffffffffffffffffffffffffffff1681526020018281526020019350505050604051809103906000f0801580156120d7573d6000803e3d6000fd5b50905060028190806001815401808255809150509060018203906000526020600020016000909192909190916101000a81548173ffffffffffffffffffffffffffffffffffffffff021916908373ffffffffffffffffffffffffffffffffffffffff160217905550507f908a1d72896b3c6e31c2e9ac8d65ae9676a54dd26195d4496442c50ff1b0b79781604051808273ffffffffffffffffffffffffffffffffffffffff1673ffffffffffffffffffffffffffffffffffffffff16815260200191505060405180910390a1505050565b600033905090565b600073ffffffffffffffffffffffffffffffffffffffff168173ffffffffffffffffffffffffffffffffffffffff161415151561227b576040517f08c379a00000000000000000000000000000000000000000000000000000000081526004018080602001828103825260268152602001807f4f776e61626c653a206e6577206f776e657220697320746865207a65726f206181526020017f646472657373000000000000000000000000000000000000000000000000000081525060400191505060405180910390fd5b8073ffffffffffffffffffffffffffffffffffffffff166000809054906101000a900473ffffffffffffffffffffffffffffffffffffffff1673ffffffffffffffffffffffffffffffffffffffff167f8be0079c531659141344cd1fd0a4f28419497f9722a3daafe3b4186f6b6457e060405160405180910390a3806000806101000a81548173ffffffffffffffffffffffffffffffffffffffff021916908373ffffffffffffffffffffffffffffffffffffffff16021790555050565b8280548282559060005260206000209081019282156123b2579160200282015b828111156123b15782518260006101000a81548173ffffffffffffffffffffffffffffffffffffffff021916908373ffffffffffffffffffffffffffffffffffffffff16021790555091602001919060010190612359565b5b5090506123bf91906123d3565b5090565b604051610e6c8061241783390190565b61241391905b8082111561240f57600081816101000a81549073ffffffffffffffffffffffffffffffffffffffff0219169055506001016123d9565b5090565b9056fe608060405234801561001057600080fd5b50604051606080610e6c8339810180604052606081101561003057600080fd5b81019080805190602001909291908051906020019092919080519060200190929190505050336000806101000a81548173ffffffffffffffffffffffffffffffffffffffff021916908373ffffffffffffffffffffffffffffffffffffffff16021790555082600160006101000a81548173ffffffffffffffffffffffffffffffffffffffff021916908373ffffffffffffffffffffffffffffffffffffffff16021790555081600260006101000a81548173ffffffffffffffffffffffffffffffffffffffff021916908373ffffffffffffffffffffffffffffffffffffffff16021790555080600381905550505050610d3c806101306000396000f3fe608060405260043610610078576000357c0100000000000000000000000000000000000000000000000000000000900463ffffffff1680638a7cf0b81461007d5780639fa5f50b146100e6578063b10d6b4114610152578063cdee934e14610222578063ed545d9e14610271578063fbbf93a014610339575b600080fd5b34801561008957600080fd5b506100b6600480360360208110156100a057600080fd5b8101908080359060200190929190505050610478565b604051808481526020018360ff1660ff1681526020018260ff1660ff168152602001935050505060405180910390f35b3480156100f257600080fd5b506100fb610577565b6040518080602001828103825283818151815260200191508051906020019060200280838360005b8381101561013e578082015181840152602081019050610123565b505050509050019250505060405180910390f35b34801561015e57600080fd5b5061018b6004803603602081101561017557600080fd5b81019080803590602001909291905050506105cf565b6040518086815260200185815260200184815260200183815260200180602001828103825283818151815260200191508051906020019080838360005b838110156101e35780820151818401526020810190506101c8565b50505050905090810190601f1680156102105780820380516001836020036101000a031916815260200191505b50965050505050505060405180910390f35b34801561022e57600080fd5b5061025b6004803603602081101561024557600080fd5b8101908080359060200190929190505050610787565b6040518082815260200191505060405180910390f35b34801561027d57600080fd5b50610337600480360360e081101561029457600080fd5b8101908080359060200190929190803560ff169060200190929190803560ff169060200190929190803590602001909291908035906020019092919080359060200190929190803590602001906401000000008111156102f357600080fd5b82018360208201111561030557600080fd5b8035906020019184600183028401116401000000008311171561032757600080fd5b90919293919293905050506107aa565b005b34801561034557600080fd5b5061034e610b8d565b604051808773ffffffffffffffffffffffffffffffffffffffff1673ffffffffffffffffffffffffffffffffffffffff1681526020018673ffffffffffffffffffffffffffffffffffffffff1673ffffffffffffffffffffffffffffffffffffffff1681526020018573ffffffffffffffffffffffffffffffffffffffff1673ffffffffffffffffffffffffffffffffffffffff168152602001848152602001806020018373ffffffffffffffffffffffffffffffffffffffff1673ffffffffffffffffffffffffffffffffffffffff168152602001828103825284818151815260200191508051906020019060200280838360005b8381101561045f578082015181840152602081019050610444565b5050505090500197505050505050505060405180910390f35b60008060008060056000868152602001908152602001600020600501541415151561050b576040517f08c379a00000000000000000000000000000000000000000000000000000000081526004018080602001828103825260178152602001807f446f63756d656e7420646f6573206e6f7420657869737400000000000000000081525060200191505060405180910390fd5b60056000858152602001908152602001600020600201546005600086815260200190815260200160002060030160009054906101000a900460ff166005600087815260200190815260200160002060030160019054906101000a900460ff169250925092509193909250565b606060048054806020026020016040519081016040528092919081815260200182805480156105c557602002820191906000526020600020905b8154815260200190600101908083116105b1575b5050505050905090565b60008060008060606000600560008881526020019081526020016000206005015414151515610666576040517f08c379a00000000000000000000000000000000000000000000000000000000081526004018080602001828103825260178152602001807f446f63756d656e7420646f6573206e6f7420657869737400000000000000000081525060200191505060405180910390fd5b600560008781526020019081526020016000206000015460056000888152602001908152602001600020600101546005600089815260200190815260200160002060040154600560008a815260200190815260200160002060050154600560008b8152602001908152602001600020600601808054600181600116156101000203166002900480601f01602080910402602001604051908101604052809291908181526020018280546001816001161561010002031660029004801561076d5780601f106107425761010080835404028352916020019161076d565b820191906000526020600020905b81548152906001019060200180831161075057829003601f168201915b505050505090509450945094509450945091939590929450565b60048181548110151561079657fe5b906000526020600020016000915090505481565b600260009054906101000a900473ffffffffffffffffffffffffffffffffffffffff1673ffffffffffffffffffffffffffffffffffffffff163373ffffffffffffffffffffffffffffffffffffffff1614151561086f576040517f08c379a000000000000000000000000000000000000000000000000000000000815260040180806020018281038252601d8152602001807f48617320746f20626520737570706c696572206f662070726f6a65637400000081525060200191505060405180910390fd5b6000600560008a8152602001908152602001600020600501541415156108fd576040517f08c379a00000000000000000000000000000000000000000000000000000000081526004018080602001828103825260188152602001807f446f63756d656e7420616c72656164792063726561746564000000000000000081525060200191505060405180910390fd5b60008060009054906101000a900473ffffffffffffffffffffffffffffffffffffffff16905060008173ffffffffffffffffffffffffffffffffffffffff166381e19490306040518263ffffffff167c0100000000000000000000000000000000000000000000000000000000028152600401808273ffffffffffffffffffffffffffffffffffffffff1673ffffffffffffffffffffffffffffffffffffffff168152602001915050602060405180830381600087803b1580156109c057600080fd5b505af11580156109d4573d6000803e3d6000fd5b505050506040513d60208110156109ea57600080fd5b81019080805190602001909291905050509050610100604051908101604052808781526020018681526020018881526020018a60ff1681526020018960ff16815260200182815260200142815260200185858080601f016020809104026020016040519081016040528093929190818152602001838380828437600081840152601f19601f82011690508083019250505050505050815250600560008c815260200190815260200160002060008201518160000155602082015181600101556040820151816002015560608201518160030160006101000a81548160ff021916908360ff16021790555060808201518160030160016101000a81548160ff021916908360ff16021790555060a0820151816004015560c0820151816005015560e0820151816006019080519060200190610b25929190610c6b565b5090505060048a90806001815401808255809150509060018203906000526020600020016000909192909190915055507f0ac146a5629d2541f754db3df5197733e7c3002b8cfe1da2416abd2c9a49c28c60405160405180910390a150505050505050505050565b600080600080606060008060009054906101000a900473ffffffffffffffffffffffffffffffffffffffff16600160009054906101000a900473ffffffffffffffffffffffffffffffffffffffff16600260009054906101000a900473ffffffffffffffffffffffffffffffffffffffff1660035460043081805480602002602001604051908101604052809291908181526020018280548015610c5057602002820191906000526020600020905b815481526020019060010190808311610c3c575b50505050509150955095509550955095509550909192939495565b828054600181600116156101000203166002900490600052602060002090601f016020900481019282601f10610cac57805160ff1916838001178555610cda565b82800160010185558215610cda579182015b82811115610cd9578251825591602001919060010190610cbe565b5b509050610ce79190610ceb565b5090565b610d0d91905b80821115610d09576000816000905550600101610cf1565b5090565b9056fea165627a7a72305820e156296a8df9a009d1a6c549c81a408a12a8edbdb22e274d92f45c0299488ce90029a165627a7a723058208e332234b08afae80f66885a142c940f05d9f5243054cee3b8c35891572c3f910029",
  "source": "pragma solidity >=0.5.0 <0.7.0;\n\nimport \"./Ownable.sol\";\nimport \"./Process.sol\";\n\ncontract NuclearPoE is Ownable {\n\n    uint public docNumber = 0;\n\n    struct User {\n        bytes32 name;\n        uint8 userType;\n        bool status;\n    }\n\n    struct Project {\n        bool active;\n        address clientAddress;\n        bytes32 title;\n        bytes32 oc;\n        address[] processContracts;\n    }\n\n    address[] public processContractsArray;\n    uint[] public projectsArray;\n    address[] public usersArray;\n\n    mapping (address => uint[]) public userProjectContracts;\n    mapping (address => User) public user;\n    mapping (uint => Project) private project;\n\n    modifier onlyProcessContract(address _processAddress) {\n        require(msg.sender == _processAddress, \"Sender has to be project Contract\");\n    _;\n    }\n\n    modifier onlyClient(address _clientAddress) {\n        require(msg.sender == _clientAddress, \"Only clients of this project can realize this operation\");\n        _;\n    }\n\n    event CreateProject();\n    event CreateUser();\n    event CreateProcess(address ProcessContractAddress);\n    event CloseProject();\n\n    function createProject(uint _expediente, address _clientAddress, bytes32 title, bytes32 oc) external onlyOwner() {\n        require(project[_expediente].active == false, \"Project already created\");\n        require(user[_clientAddress].status == true, \"User does not exist\");\n\n        address[] memory processContracts = new address[](0);\n        project[_expediente] = Project(true, _clientAddress, title, oc, processContracts);\n        userProjectContracts[_clientAddress].push(_expediente);\n        projectsArray.push(_expediente);\n\n        emit CreateProject();\n    }\n\n    function createUser(address _userAddress, uint8 _userType, bytes32 _userName) external onlyOwner() {\n        require(user[_userAddress].status == false, \"User already created\");\n\n        user[_userAddress] = User(_userName, _userType, true);\n        usersArray.push(_userAddress);\n\n        emit CreateUser();\n    }\n\n    function changeUserStatus(address _userAddress) external onlyOwner() {\n        require(user[_userAddress].status == true, \"User already created\");\n\n        user[_userAddress].status = !user[_userAddress].status;\n    }\n\n    function createProcess(address _supplierAddress, bytes32 _processName) external onlyOwner() {\n        require(user[_supplierAddress].status == true, \"User does not exist\");\n\n        address ProcessContractAddress = address(new Process(msg.sender, _supplierAddress, _processName));\n        processContractsArray.push(ProcessContractAddress);\n\n        emit CreateProcess(ProcessContractAddress);\n    }\n\n    function addProcessToProject(uint _expediente, address _processContract) external onlyOwner() {\n        require(project[_expediente].active == true, \"Project does not exist or is not active\");\n        project[_expediente].processContracts.push(_processContract);\n    }\n\n    function closeProject(uint _expediente) external onlyOwner() {\n        require(project[_expediente].active == true, \"Project does not exist or is already closed\");\n\n        project[_expediente].active = false;\n        emit CloseProject();\n    }\n\n    function incrementDocNumber(address _processAddress) external onlyProcessContract(_processAddress) returns(uint) {\n        docNumber++;\n        return docNumber;\n    }\n\n    function getAllProcessContracts() external view returns(address[] memory) {\n        return processContractsArray;\n    }\n\n    function getProcessContractsByProject(uint _expediente) external view returns(address[] memory) {\n        return project[_expediente].processContracts;\n    }\n\n    function getAllProjects() external view returns(uint[] memory) {\n        return projectsArray;\n    }\n\n    function getAllUsers() external view returns(address[] memory) {\n        return usersArray;\n    }\n\n    function getUserDetails(address _address) external view returns(bytes32, uint8, uint[] memory) {\n        return (user[_address].name, user[_address].userType, userProjectContracts[_address]);\n    }\n\n    function getProjectDetails(uint _expediente) external view returns(bool, address, bytes32, bytes32, address[] memory) {\n        return (\n            project[_expediente].active,\n            project[_expediente].clientAddress,\n            project[_expediente].title,\n            project[_expediente].oc,\n            project[_expediente].processContracts);\n    }\n\n}",
  "sourcePath": "/Users/admin/Documents/GitHub/NUCLEARIS-Material-Organization/contracts/NuclearPoE.sol",
  "compiler": {
    "name": "solc",
    "version": "0.5.0+commit.1d4f565a.Emscripten.clang"
  },
  "schemaVersion": "3.0.1",
  "updatedAt": "2019-11-03T14:58:56.712Z",
  "devdoc": {
    "methods": {
      "isOwner()": {
        "details": "Returns true if the caller is the current owner."
      },
      "owner()": {
        "details": "Returns the address of the current owner."
      },
      "renounceOwnership()": {
        "details": "Leaves the contract without owner. It will not be possible to call `onlyOwner` functions anymore. Can only be called by the current owner.     * NOTE: Renouncing ownership will leave the contract without an owner, thereby removing any functionality that is only available to the owner."
      },
      "transferOwnership(address)": {
        "details": "Transfers ownership of the contract to a new account (`newOwner`). Can only be called by the current owner."
      }
    }
  },
  "userdoc": {
    "methods": {}
  }
}