{
  "contractName": "NuclearPoE",
  "abi": [
    {
      "constant": true,
      "inputs": [],
      "name": "docNumber",
      "outputs": [
        {
          "name": "",
          "type": "uint256"
        }
      ],
      "payable": false,
      "stateMutability": "view",
      "type": "function",
      "signature": "0x09b0466b"
    },
    {
      "constant": true,
      "inputs": [
        {
          "name": "",
          "type": "uint256"
        }
      ],
      "name": "projectContract",
      "outputs": [
        {
          "name": "",
          "type": "address"
        }
      ],
      "payable": false,
      "stateMutability": "view",
      "type": "function",
      "signature": "0x3789a580"
    },
    {
      "constant": true,
      "inputs": [
        {
          "name": "",
          "type": "uint256"
        }
      ],
      "name": "userArray",
      "outputs": [
        {
          "name": "",
          "type": "address"
        }
      ],
      "payable": false,
      "stateMutability": "view",
      "type": "function",
      "signature": "0x41209af1"
    },
    {
      "constant": false,
      "inputs": [],
      "name": "renounceOwnership",
      "outputs": [],
      "payable": false,
      "stateMutability": "nonpayable",
      "type": "function",
      "signature": "0x715018a6"
    },
    {
      "constant": true,
      "inputs": [
        {
          "name": "",
          "type": "address"
        }
      ],
      "name": "user",
      "outputs": [
        {
          "name": "name",
          "type": "bytes32"
        },
        {
          "name": "userType",
          "type": "uint256"
        },
        {
          "name": "created",
          "type": "bool"
        }
      ],
      "payable": false,
      "stateMutability": "view",
      "type": "function",
      "signature": "0x81e7e20e"
    },
    {
      "constant": true,
      "inputs": [],
      "name": "owner",
      "outputs": [
        {
          "name": "",
          "type": "address"
        }
      ],
      "payable": false,
      "stateMutability": "view",
      "type": "function",
      "signature": "0x8da5cb5b"
    },
    {
      "constant": true,
      "inputs": [],
      "name": "isOwner",
      "outputs": [
        {
          "name": "",
          "type": "bool"
        }
      ],
      "payable": false,
      "stateMutability": "view",
      "type": "function",
      "signature": "0x8f32d59b"
    },
    {
      "constant": true,
      "inputs": [
        {
          "name": "",
          "type": "uint256"
        }
      ],
      "name": "projectContractsArray",
      "outputs": [
        {
          "name": "",
          "type": "address"
        }
      ],
      "payable": false,
      "stateMutability": "view",
      "type": "function",
      "signature": "0xa88b25d4"
    },
    {
      "constant": true,
      "inputs": [
        {
          "name": "",
          "type": "address"
        },
        {
          "name": "",
          "type": "uint256"
        }
      ],
      "name": "userProjectContracts",
      "outputs": [
        {
          "name": "",
          "type": "address"
        }
      ],
      "payable": false,
      "stateMutability": "view",
      "type": "function",
      "signature": "0xc1792d05"
    },
    {
      "constant": false,
      "inputs": [
        {
          "name": "newOwner",
          "type": "address"
        }
      ],
      "name": "transferOwnership",
      "outputs": [],
      "payable": false,
      "stateMutability": "nonpayable",
      "type": "function",
      "signature": "0xf2fde38b"
    },
    {
      "anonymous": false,
      "inputs": [
        {
          "indexed": false,
          "name": "newProjectContractAddress",
          "type": "address"
        }
      ],
      "name": "CreateProject",
      "type": "event",
      "signature": "0xbb703aa7f8a7bebc43ea190212c9ab3aeb3ea9de189188823994f06acd262fa3"
    },
    {
      "anonymous": false,
      "inputs": [],
      "name": "CreateUser",
      "type": "event",
      "signature": "0xdf39eb8e1857414a3a40d5964987610c5f80d0d28a16f33fa749ac85d9051666"
    },
    {
      "anonymous": false,
      "inputs": [
        {
          "indexed": true,
          "name": "previousOwner",
          "type": "address"
        },
        {
          "indexed": true,
          "name": "newOwner",
          "type": "address"
        }
      ],
      "name": "OwnershipTransferred",
      "type": "event",
      "signature": "0x8be0079c531659141344cd1fd0a4f28419497f9722a3daafe3b4186f6b6457e0"
    },
    {
      "constant": false,
      "inputs": [
        {
          "name": "_expediente",
          "type": "uint256"
        },
        {
          "name": "_projectTitle",
          "type": "bytes32"
        },
        {
          "name": "_userAddress",
          "type": "address"
        },
        {
          "name": "_oc",
          "type": "bytes32"
        }
      ],
      "name": "createProject",
      "outputs": [],
      "payable": false,
      "stateMutability": "nonpayable",
      "type": "function",
      "signature": "0xb2054996"
    },
    {
      "constant": false,
      "inputs": [
        {
          "name": "_userAddress",
          "type": "address"
        },
        {
          "name": "_userType",
          "type": "uint256"
        },
        {
          "name": "_userName",
          "type": "bytes32"
        }
      ],
      "name": "createUser",
      "outputs": [],
      "payable": false,
      "stateMutability": "nonpayable",
      "type": "function",
      "signature": "0x4d83ffdd"
    },
    {
      "constant": false,
      "inputs": [
        {
          "name": "_projectAddress",
          "type": "address"
        }
      ],
      "name": "incrementDocNumber",
      "outputs": [
        {
          "name": "",
          "type": "uint256"
        }
      ],
      "payable": false,
      "stateMutability": "nonpayable",
      "type": "function",
      "signature": "0x81e19490"
    },
    {
      "constant": false,
      "inputs": [
        {
          "name": "_supplierAddress",
          "type": "address"
        },
        {
          "name": "_projectAddress",
          "type": "address"
        }
      ],
      "name": "addSupplierToProject",
      "outputs": [],
      "payable": false,
      "stateMutability": "nonpayable",
      "type": "function",
      "signature": "0x898b659f"
    },
    {
      "constant": true,
      "inputs": [],
      "name": "getAllProjectContract",
      "outputs": [
        {
          "name": "",
          "type": "address[]"
        }
      ],
      "payable": false,
      "stateMutability": "view",
      "type": "function",
      "signature": "0x95349cce"
    },
    {
      "constant": true,
      "inputs": [],
      "name": "getAllUsers",
      "outputs": [
        {
          "name": "",
          "type": "address[]"
        }
      ],
      "payable": false,
      "stateMutability": "view",
      "type": "function",
      "signature": "0xe2842d79"
    },
    {
      "constant": true,
      "inputs": [
        {
          "name": "_address",
          "type": "address"
        }
      ],
      "name": "getUserDetails",
      "outputs": [
        {
          "name": "",
          "type": "bytes32"
        },
        {
          "name": "",
          "type": "uint256"
        },
        {
          "name": "",
          "type": "address[]"
        }
      ],
      "payable": false,
      "stateMutability": "view",
      "type": "function",
      "signature": "0xcc3d967b"
    }
  ],
  "bytecode": "0x6080604052600060015560006100226100c5640100000000026401000000009004565b9050806000806101000a81548173ffffffffffffffffffffffffffffffffffffffff021916908373ffffffffffffffffffffffffffffffffffffffff1602179055508073ffffffffffffffffffffffffffffffffffffffff16600073ffffffffffffffffffffffffffffffffffffffff167f8be0079c531659141344cd1fd0a4f28419497f9722a3daafe3b4186f6b6457e060405160405180910390a3506100cd565b600033905090565b613209806100dc6000396000f3fe6080604052600436106100f1576000357c0100000000000000000000000000000000000000000000000000000000900463ffffffff16806309b0466b146100f65780633789a5801461012157806341209af11461019c5780634d83ffdd14610217578063715018a61461027c57806381e194901461029357806381e7e20e146102f8578063898b659f1461036f5780638da5cb5b146103e05780638f32d59b1461043757806395349cce14610466578063a88b25d4146104d2578063b20549961461054d578063c1792d05146105bc578063cc3d967b14610657578063e2842d791461070b578063f2fde38b14610777575b600080fd5b34801561010257600080fd5b5061010b6107c8565b6040518082815260200191505060405180910390f35b34801561012d57600080fd5b5061015a6004803603602081101561014457600080fd5b81019080803590602001909291905050506107ce565b604051808273ffffffffffffffffffffffffffffffffffffffff1673ffffffffffffffffffffffffffffffffffffffff16815260200191505060405180910390f35b3480156101a857600080fd5b506101d5600480360360208110156101bf57600080fd5b8101908080359060200190929190505050610801565b604051808273ffffffffffffffffffffffffffffffffffffffff1673ffffffffffffffffffffffffffffffffffffffff16815260200191505060405180910390f35b34801561022357600080fd5b5061027a6004803603606081101561023a57600080fd5b81019080803573ffffffffffffffffffffffffffffffffffffffff169060200190929190803590602001909291908035906020019092919050505061083f565b005b34801561028857600080fd5b50610291610ab2565b005b34801561029f57600080fd5b506102e2600480360360208110156102b657600080fd5b81019080803573ffffffffffffffffffffffffffffffffffffffff169060200190929190505050610bed565b6040518082815260200191505060405180910390f35b34801561030457600080fd5b506103476004803603602081101561031b57600080fd5b81019080803573ffffffffffffffffffffffffffffffffffffffff169060200190929190505050610cd6565b6040518084815260200183815260200182151515158152602001935050505060405180910390f35b34801561037b57600080fd5b506103de6004803603604081101561039257600080fd5b81019080803573ffffffffffffffffffffffffffffffffffffffff169060200190929190803573ffffffffffffffffffffffffffffffffffffffff169060200190929190505050610d0d565b005b3480156103ec57600080fd5b506103f5610f4a565b604051808273ffffffffffffffffffffffffffffffffffffffff1673ffffffffffffffffffffffffffffffffffffffff16815260200191505060405180910390f35b34801561044357600080fd5b5061044c610f73565b604051808215151515815260200191505060405180910390f35b34801561047257600080fd5b5061047b610fd1565b6040518080602001828103825283818151815260200191508051906020019060200280838360005b838110156104be5780820151818401526020810190506104a3565b505050509050019250505060405180910390f35b3480156104de57600080fd5b5061050b600480360360208110156104f557600080fd5b810190808035906020019092919050505061105f565b604051808273ffffffffffffffffffffffffffffffffffffffff1673ffffffffffffffffffffffffffffffffffffffff16815260200191505060405180910390f35b34801561055957600080fd5b506105ba6004803603608081101561057057600080fd5b810190808035906020019092919080359060200190929190803573ffffffffffffffffffffffffffffffffffffffff1690602001909291908035906020019092919050505061109d565b005b3480156105c857600080fd5b50610615600480360360408110156105df57600080fd5b81019080803573ffffffffffffffffffffffffffffffffffffffff1690602001909291908035906020019092919050505061152c565b604051808273ffffffffffffffffffffffffffffffffffffffff1673ffffffffffffffffffffffffffffffffffffffff16815260200191505060405180910390f35b34801561066357600080fd5b506106a66004803603602081101561067a57600080fd5b81019080803573ffffffffffffffffffffffffffffffffffffffff169060200190929190505050611579565b6040518084815260200183815260200180602001828103825283818151815260200191508051906020019060200280838360005b838110156106f55780820151818401526020810190506106da565b5050505090500194505050505060405180910390f35b34801561071757600080fd5b506107206116d8565b6040518080602001828103825283818151815260200191508051906020019060200280838360005b83811015610763578082015181840152602081019050610748565b505050509050019250505060405180910390f35b34801561078357600080fd5b506107c66004803603602081101561079a57600080fd5b81019080803573ffffffffffffffffffffffffffffffffffffffff169060200190929190505050611766565b005b60015481565b60046020528060005260406000206000915054906101000a900473ffffffffffffffffffffffffffffffffffffffff1681565b60038181548110151561081057fe5b906000526020600020016000915054906101000a900473ffffffffffffffffffffffffffffffffffffffff1681565b610847610f73565b15156108bb576040517f08c379a00000000000000000000000000000000000000000000000000000000081526004018080602001828103825260208152602001807f4f776e61626c653a2063616c6c6572206973206e6f7420746865206f776e657281525060200191505060405180910390fd5b60001515600660008573ffffffffffffffffffffffffffffffffffffffff1673ffffffffffffffffffffffffffffffffffffffff16815260200190815260200160002060020160009054906101000a900460ff161515141515610986576040517f08c379a00000000000000000000000000000000000000000000000000000000081526004018080602001828103825260148152602001807f5573657220616c7265616479206372656174656400000000000000000000000081525060200191505060405180910390fd5b60606040519081016040528082815260200183815260200160011515815250600660008573ffffffffffffffffffffffffffffffffffffffff1673ffffffffffffffffffffffffffffffffffffffff168152602001908152602001600020600082015181600001556020820151816001015560408201518160020160006101000a81548160ff02191690831515021790555090505060038390806001815401808255809150509060018203906000526020600020016000909192909190916101000a81548173ffffffffffffffffffffffffffffffffffffffff021916908373ffffffffffffffffffffffffffffffffffffffff160217905550507fdf39eb8e1857414a3a40d5964987610c5f80d0d28a16f33fa749ac85d905166660405160405180910390a1505050565b610aba610f73565b1515610b2e576040517f08c379a00000000000000000000000000000000000000000000000000000000081526004018080602001828103825260208152602001807f4f776e61626c653a2063616c6c6572206973206e6f7420746865206f776e657281525060200191505060405180910390fd5b600073ffffffffffffffffffffffffffffffffffffffff166000809054906101000a900473ffffffffffffffffffffffffffffffffffffffff1673ffffffffffffffffffffffffffffffffffffffff167f8be0079c531659141344cd1fd0a4f28419497f9722a3daafe3b4186f6b6457e060405160405180910390a360008060006101000a81548173ffffffffffffffffffffffffffffffffffffffff021916908373ffffffffffffffffffffffffffffffffffffffff160217905550565b6000818073ffffffffffffffffffffffffffffffffffffffff163373ffffffffffffffffffffffffffffffffffffffff16141515610cb9576040517f08c379a00000000000000000000000000000000000000000000000000000000081526004018080602001828103825260218152602001807f53656e6465722068617320746f2062652070726f6a65637420436f6e7472616381526020017f740000000000000000000000000000000000000000000000000000000000000081525060400191505060405180910390fd5b600160008154809291906001019190505550600154915050919050565b60066020528060005260406000206000915090508060000154908060010154908060020160009054906101000a900460ff16905083565b808073ffffffffffffffffffffffffffffffffffffffff163373ffffffffffffffffffffffffffffffffffffffff16141515610dd7576040517f08c379a00000000000000000000000000000000000000000000000000000000081526004018080602001828103825260218152602001807f53656e6465722068617320746f2062652070726f6a65637420436f6e7472616381526020017f740000000000000000000000000000000000000000000000000000000000000081525060400191505060405180910390fd5b60011515600660008573ffffffffffffffffffffffffffffffffffffffff1673ffffffffffffffffffffffffffffffffffffffff16815260200190815260200160002060020160009054906101000a900460ff161515141515610ea2576040517f08c379a00000000000000000000000000000000000000000000000000000000081526004018080602001828103825260138152602001807f5573657220646f6573206e6f742065786973740000000000000000000000000081525060200191505060405180910390fd5b600560008473ffffffffffffffffffffffffffffffffffffffff1673ffffffffffffffffffffffffffffffffffffffff1681526020019081526020016000208290806001815401808255809150509060018203906000526020600020016000909192909190916101000a81548173ffffffffffffffffffffffffffffffffffffffff021916908373ffffffffffffffffffffffffffffffffffffffff16021790555050505050565b60008060009054906101000a900473ffffffffffffffffffffffffffffffffffffffff16905090565b60008060009054906101000a900473ffffffffffffffffffffffffffffffffffffffff1673ffffffffffffffffffffffffffffffffffffffff16610fb56117ee565b73ffffffffffffffffffffffffffffffffffffffff1614905090565b6060600280548060200260200160405190810160405280929190818152602001828054801561105557602002820191906000526020600020905b8160009054906101000a900473ffffffffffffffffffffffffffffffffffffffff1673ffffffffffffffffffffffffffffffffffffffff168152602001906001019080831161100b575b5050505050905090565b60028181548110151561106e57fe5b906000526020600020016000915054906101000a900473ffffffffffffffffffffffffffffffffffffffff1681565b6110a5610f73565b1515611119576040517f08c379a00000000000000000000000000000000000000000000000000000000081526004018080602001828103825260208152602001807f4f776e61626c653a2063616c6c6572206973206e6f7420746865206f776e657281525060200191505060405180910390fd5b600073ffffffffffffffffffffffffffffffffffffffff166004600086815260200190815260200160002060009054906101000a900473ffffffffffffffffffffffffffffffffffffffff1673ffffffffffffffffffffffffffffffffffffffff161415156111f0576040517f08c379a00000000000000000000000000000000000000000000000000000000081526004018080602001828103825260178152602001807f50726f6a65637420616c7265616479206372656174656400000000000000000081525060200191505060405180910390fd5b60011515600660008473ffffffffffffffffffffffffffffffffffffffff1673ffffffffffffffffffffffffffffffffffffffff16815260200190815260200160002060020160009054906101000a900460ff1615151415156112bb576040517f08c379a00000000000000000000000000000000000000000000000000000000081526004018080602001828103825260138152602001807f5573657220646f6573206e6f742065786973740000000000000000000000000081525060200191505060405180910390fd5b600084848433856112ca61197f565b808681526020018581526020018473ffffffffffffffffffffffffffffffffffffffff1673ffffffffffffffffffffffffffffffffffffffff1681526020018373ffffffffffffffffffffffffffffffffffffffff1673ffffffffffffffffffffffffffffffffffffffff16815260200182815260200195505050505050604051809103906000f080158015611364573d6000803e3d6000fd5b509050806004600087815260200190815260200160002060006101000a81548173ffffffffffffffffffffffffffffffffffffffff021916908373ffffffffffffffffffffffffffffffffffffffff16021790555060028190806001815401808255809150509060018203906000526020600020016000909192909190916101000a81548173ffffffffffffffffffffffffffffffffffffffff021916908373ffffffffffffffffffffffffffffffffffffffff16021790555050600560008473ffffffffffffffffffffffffffffffffffffffff1673ffffffffffffffffffffffffffffffffffffffff1681526020019081526020016000208190806001815401808255809150509060018203906000526020600020016000909192909190916101000a81548173ffffffffffffffffffffffffffffffffffffffff021916908373ffffffffffffffffffffffffffffffffffffffff160217905550507fbb703aa7f8a7bebc43ea190212c9ab3aeb3ea9de189188823994f06acd262fa381604051808273ffffffffffffffffffffffffffffffffffffffff1673ffffffffffffffffffffffffffffffffffffffff16815260200191505060405180910390a15050505050565b60056020528160005260406000208181548110151561154757fe5b906000526020600020016000915091509054906101000a900473ffffffffffffffffffffffffffffffffffffffff1681565b6000806060600660008573ffffffffffffffffffffffffffffffffffffffff1673ffffffffffffffffffffffffffffffffffffffff16815260200190815260200160002060000154600660008673ffffffffffffffffffffffffffffffffffffffff1673ffffffffffffffffffffffffffffffffffffffff16815260200190815260200160002060010154600560008773ffffffffffffffffffffffffffffffffffffffff1673ffffffffffffffffffffffffffffffffffffffff168152602001908152602001600020808054806020026020016040519081016040528092919081815260200182805480156116c457602002820191906000526020600020905b8160009054906101000a900473ffffffffffffffffffffffffffffffffffffffff1673ffffffffffffffffffffffffffffffffffffffff168152602001906001019080831161167a575b505050505090509250925092509193909250565b6060600380548060200260200160405190810160405280929190818152602001828054801561175c57602002820191906000526020600020905b8160009054906101000a900473ffffffffffffffffffffffffffffffffffffffff1673ffffffffffffffffffffffffffffffffffffffff1681526020019060010190808311611712575b5050505050905090565b61176e610f73565b15156117e2576040517f08c379a00000000000000000000000000000000000000000000000000000000081526004018080602001828103825260208152602001807f4f776e61626c653a2063616c6c6572206973206e6f7420746865206f776e657281525060200191505060405180910390fd5b6117eb816117f6565b50565b600033905090565b600073ffffffffffffffffffffffffffffffffffffffff168173ffffffffffffffffffffffffffffffffffffffff16141515156118c1576040517f08c379a00000000000000000000000000000000000000000000000000000000081526004018080602001828103825260268152602001807f4f776e61626c653a206e6577206f776e657220697320746865207a65726f206181526020017f646472657373000000000000000000000000000000000000000000000000000081525060400191505060405180910390fd5b8073ffffffffffffffffffffffffffffffffffffffff166000809054906101000a900473ffffffffffffffffffffffffffffffffffffffff1673ffffffffffffffffffffffffffffffffffffffff167f8be0079c531659141344cd1fd0a4f28419497f9722a3daafe3b4186f6b6457e060405160405180910390a3806000806101000a81548173ffffffffffffffffffffffffffffffffffffffff021916908373ffffffffffffffffffffffffffffffffffffffff16021790555050565b60405161184e806119908339019056fe608060405234801561001057600080fd5b5060405160a08061184e833981018060405260a081101561003057600080fd5b8101908080519060200190929190805190602001909291908051906020019092919080519060200190929190805190602001909291905050508460008190555083600481905550826001806101000a81548173ffffffffffffffffffffffffffffffffffffffff021916908373ffffffffffffffffffffffffffffffffffffffff16021790555033600260006101000a81548173ffffffffffffffffffffffffffffffffffffffff021916908373ffffffffffffffffffffffffffffffffffffffff16021790555081600360006101000a81548173ffffffffffffffffffffffffffffffffffffffff021916908373ffffffffffffffffffffffffffffffffffffffff1602179055508060058190555050505050506116fa806101546000396000f3fe6080604052600436106100a4576000357c0100000000000000000000000000000000000000000000000000000000900463ffffffff168063290127cd146100a957806339571d6e146101155780637569b1841461024f5780637643d731146102aa578063b4e830f114610325578063cdee934e1461033c578063d52520151461038b578063d98c10bc1461044d578063e7f497f0146104b9578063f6c47d2914610566575b600080fd5b3480156100b557600080fd5b506100be610600565b6040518080602001828103825283818151815260200191508051906020019060200280838360005b838110156101015780820151818401526020810190506100e6565b505050509050019250505060405180910390f35b34801561012157600080fd5b5061012a61068e565b604051808981526020018873ffffffffffffffffffffffffffffffffffffffff1673ffffffffffffffffffffffffffffffffffffffff1681526020018781526020018681526020018515151515815260200180602001806020018473ffffffffffffffffffffffffffffffffffffffff1673ffffffffffffffffffffffffffffffffffffffff168152602001838103835286818151815260200191508051906020019060200280838360005b838110156101f15780820151818401526020810190506101d6565b50505050905001838103825285818151815260200191508051906020019060200280838360005b83811015610233578082015181840152602081019050610218565b505050509050019a505050505050505050505060405180910390f35b34801561025b57600080fd5b506102a86004803603604081101561027257600080fd5b81019080803573ffffffffffffffffffffffffffffffffffffffff169060200190929190803590602001909291905050506107cf565b005b3480156102b657600080fd5b506102e3600480360360208110156102cd57600080fd5b8101908080359060200190929190505050610c5b565b604051808273ffffffffffffffffffffffffffffffffffffffff1673ffffffffffffffffffffffffffffffffffffffff16815260200191505060405180910390f35b34801561033157600080fd5b5061033a610c99565b005b34801561034857600080fd5b506103756004803603602081101561035f57600080fd5b8101908080359060200190929190505050610e56565b6040518082815260200191505060405180910390f35b34801561039757600080fd5b506103c4600480360360208110156103ae57600080fd5b8101908080359060200190929190505050610e79565b6040518084815260200183815260200180602001828103825283818151815260200191508051906020019080838360005b838110156104105780820151818401526020810190506103f5565b50505050905090810190601f16801561043d5780820380516001836020036101000a031916815260200191505b5094505050505060405180910390f35b34801561045957600080fd5b50610462610ffa565b6040518080602001828103825283818151815260200191508051906020019060200280838360005b838110156104a557808201518184015260208101905061048a565b505050509050019250505060405180910390f35b3480156104c557600080fd5b50610508600480360360208110156104dc57600080fd5b81019080803573ffffffffffffffffffffffffffffffffffffffff169060200190929190505050611052565b6040518083815260200180602001828103825283818151815260200191508051906020019060200280838360005b83811015610551578082015181840152602081019050610536565b50505050905001935050505060405180910390f35b34801561057257600080fd5b506105fe6004803603606081101561058957600080fd5b810190808035906020019092919080359060200190929190803590602001906401000000008111156105ba57600080fd5b8201836020820111156105cc57600080fd5b803590602001918460018302840111640100000000831117156105ee57600080fd5b9091929391929390505050611136565b005b6060600680548060200260200160405190810160405280929190818152602001828054801561068457602002820191906000526020600020905b8160009054906101000a900473ffffffffffffffffffffffffffffffffffffffff1673ffffffffffffffffffffffffffffffffffffffff168152602001906001019080831161063a575b5050505050905090565b600080600080600060608060006004546001809054906101000a900473ffffffffffffffffffffffffffffffffffffffff16600054600554600160009054906101000a900460ff1660076006308280548060200260200160405190810160405280929190818152602001828054801561072657602002820191906000526020600020905b815481526020019060010190808311610712575b50505050509250818054806020026020016040519081016040528092919081815260200182805480156107ae57602002820191906000526020600020905b8160009054906101000a900473ffffffffffffffffffffffffffffffffffffffff1673ffffffffffffffffffffffffffffffffffffffff1681526020019060010190808311610764575b50505050509150975097509750975097509750975097509091929394959697565b600360009054906101000a900473ffffffffffffffffffffffffffffffffffffffff1673ffffffffffffffffffffffffffffffffffffffff163373ffffffffffffffffffffffffffffffffffffffff16141515610894576040517f08c379a000000000000000000000000000000000000000000000000000000000815260040180806020018281038252601f8152602001807f48617320746f206265204d6174657269616c204f7267616e697a6174696f6e0081525060200191505060405180910390fd5b6000600102600a60008473ffffffffffffffffffffffffffffffffffffffff1673ffffffffffffffffffffffffffffffffffffffff16815260200190815260200160002060000154141515610951576040517f08c379a00000000000000000000000000000000000000000000000000000000081526004018080602001828103825260178152602001807f50726f6365737320616c7265616479206372656174656400000000000000000081525060200191505060405180910390fd5b60001515600160009054906101000a900460ff161515141515610a02576040517f08c379a00000000000000000000000000000000000000000000000000000000081526004018080602001828103825260258152602001807f50726f6a65637420697320616c726561647920617070726f766564206279206381526020017f6c69656e7400000000000000000000000000000000000000000000000000000081525060400191505060405180910390fd5b6000600260009054906101000a900473ffffffffffffffffffffffffffffffffffffffff1690508073ffffffffffffffffffffffffffffffffffffffff1663898b659f84306040518363ffffffff167c0100000000000000000000000000000000000000000000000000000000028152600401808373ffffffffffffffffffffffffffffffffffffffff1673ffffffffffffffffffffffffffffffffffffffff1681526020018273ffffffffffffffffffffffffffffffffffffffff1673ffffffffffffffffffffffffffffffffffffffff16815260200192505050600060405180830381600087803b158015610af857600080fd5b505af1158015610b0c573d6000803e3d6000fd5b5050505060606000604051908082528060200260200182016040528015610b425781602001602082028038833980820191505090505b50905060068490806001815401808255809150509060018203906000526020600020016000909192909190916101000a81548173ffffffffffffffffffffffffffffffffffffffff021916908373ffffffffffffffffffffffffffffffffffffffff16021790555050604080519081016040528084815260200182815250600a60008673ffffffffffffffffffffffffffffffffffffffff1673ffffffffffffffffffffffffffffffffffffffff168152602001908152602001600020600082015181600001556020820151816001019080519060200190610c259291906115b7565b509050507f0346a5dd0e6acde7619febdd0d7f470611f6f002fb8cee5f164a3ab74854ec5b60405160405180910390a150505050565b600681815481101515610c6a57fe5b906000526020600020016000915054906101000a900473ffffffffffffffffffffffffffffffffffffffff1681565b6001809054906101000a900473ffffffffffffffffffffffffffffffffffffffff1673ffffffffffffffffffffffffffffffffffffffff163373ffffffffffffffffffffffffffffffffffffffff16141515610d83576040517f08c379a00000000000000000000000000000000000000000000000000000000081526004018080602001828103825260378152602001807f4f6e6c7920636c69656e7473206f6620746869732070726f6a6563742063616e81526020017f207265616c697a652074686973206f7065726174696f6e00000000000000000081525060400191505060405180910390fd5b60001515600160009054906101000a900460ff161515141515610e0e576040517f08c379a00000000000000000000000000000000000000000000000000000000081526004018080602001828103825260188152602001807f50726f6a65637420616c726561647920617070726f766564000000000000000081525060200191505060405180910390fd5b60018060006101000a81548160ff0219169083151502179055507fe69f676c299b333dca8f06fbbad2158afb93499d1eaf331570780e6afc33889a60405160405180910390a1565b600781815481101515610e6557fe5b906000526020600020016000915090505481565b60008060606000600960008681526020019081526020016000206003015414151515610f0d576040517f08c379a00000000000000000000000000000000000000000000000000000000081526004018080602001828103825260178152602001807f446f63756d656e7420646f6573206e6f7420657869737400000000000000000081525060200191505060405180910390fd5b6009600085815260200190815260200160002060030154600960008681526020019081526020016000206000015460096000878152602001908152602001600020600101808054600181600116156101000203166002900480601f016020809104026020016040519081016040528092919081815260200182805460018160011615610100020316600290048015610fe65780601f10610fbb57610100808354040283529160200191610fe6565b820191906000526020600020905b815481529060010190602001808311610fc957829003601f168201915b505050505090509250925092509193909250565b6060600780548060200260200160405190810160405280929190818152602001828054801561104857602002820191906000526020600020905b815481526020019060010190808311611034575b5050505050905090565b60006060600a60008473ffffffffffffffffffffffffffffffffffffffff1673ffffffffffffffffffffffffffffffffffffffff16815260200190815260200160002060000154600a60008573ffffffffffffffffffffffffffffffffffffffff1673ffffffffffffffffffffffffffffffffffffffff1681526020019081526020016000206001018080548060200260200160405190810160405280929190818152602001828054801561112657602002820191906000526020600020905b815481526020019060010190808311611112575b5050505050905091509150915091565b6000600102600a60003373ffffffffffffffffffffffffffffffffffffffff1673ffffffffffffffffffffffffffffffffffffffff16815260200190815260200160002060000154141515156111f4576040517f08c379a000000000000000000000000000000000000000000000000000000000815260040180806020018281038252601d8152602001807f48617320746f20626520737570706c696572206f662070726f6a65637400000081525060200191505060405180910390fd5b60011515600160009054906101000a900460ff1615151415156112a5576040517f08c379a00000000000000000000000000000000000000000000000000000000081526004018080602001828103825260218152602001807f50726f6a656374206973206e6f7420617070726f76656420627920636c69656e81526020017f740000000000000000000000000000000000000000000000000000000000000081525060400191505060405180910390fd5b60006009600086815260200190815260200160002060030154141515611333576040517f08c379a00000000000000000000000000000000000000000000000000000000081526004018080602001828103825260188152602001807f446f63756d656e7420616c72656164792063726561746564000000000000000081525060200191505060405180910390fd5b6000600260009054906101000a900473ffffffffffffffffffffffffffffffffffffffff16905060008173ffffffffffffffffffffffffffffffffffffffff166381e19490306040518263ffffffff167c0100000000000000000000000000000000000000000000000000000000028152600401808273ffffffffffffffffffffffffffffffffffffffff1673ffffffffffffffffffffffffffffffffffffffff168152602001915050602060405180830381600087803b1580156113f757600080fd5b505af115801561140b573d6000803e3d6000fd5b505050506040513d602081101561142157600080fd5b8101908080519060200190929190505050905060806040519081016040528086815260200185858080601f016020809104026020016040519081016040528093929190818152602001838380828437600081840152601f19601f82011690508083019250505050505050815260200182815260200142815250600960008881526020019081526020016000206000820151816000015560208201518160010190805190602001906114d3929190611604565b5060408201518160020155606082015181600301559050506007869080600181540180825580915050906001820390600052602060002001600090919290919091505550600a60003373ffffffffffffffffffffffffffffffffffffffff1673ffffffffffffffffffffffffffffffffffffffff1681526020019081526020016000206001018690806001815401808255809150509060018203906000526020600020016000909192909190915055507f0ac146a5629d2541f754db3df5197733e7c3002b8cfe1da2416abd2c9a49c28c60405160405180910390a1505050505050565b8280548282559060005260206000209081019282156115f3579160200282015b828111156115f25782518255916020019190600101906115d7565b5b5090506116009190611684565b5090565b828054600181600116156101000203166002900490600052602060002090601f016020900481019282601f1061164557805160ff1916838001178555611673565b82800160010185558215611673579182015b82811115611672578251825591602001919060010190611657565b5b50905061168091906116a9565b5090565b6116a691905b808211156116a257600081600090555060010161168a565b5090565b90565b6116cb91905b808211156116c75760008160009055506001016116af565b5090565b9056fea165627a7a723058201506f88c67725d35e17d822f499ab925fb1cf302876d5033577296855257bdfe0029a165627a7a723058207d786a41f357ba629d38d1cf1ba804b5cb96717a58978692e3094279165e79ec0029",
  "source": "pragma solidity >=0.5.0 <0.7.0;\n\nimport \"./Ownable.sol\";\nimport \"./Project.sol\";\n\ncontract NuclearPoE is Ownable {\n\n    uint public docNumber = 0;\n\n    struct User {\n        bytes32 name;\n        uint userType;\n        bool created;\n    }\n\n    address[] public projectContractsArray;\n    address[] public userArray;\n\n    mapping(uint => address) public projectContract;\n    mapping(address => address[]) public userProjectContracts;\n    mapping(address => User) public user;\n\n    modifier onlyProjectContract(address _projectAddress) {\n        require(msg.sender == _projectAddress, \"Sender has to be project Contract\");\n    _;\n    }\n\n    event CreateProject(address newProjectContractAddress);\n    event CreateUser();\n\n    function createProject(uint _expediente, bytes32 _projectTitle, address _userAddress, bytes32 _oc) external onlyOwner() {\n        require(projectContract[_expediente] == address(0), \"Project already created\");\n        require(user[_userAddress].created == true, \"User does not exist\");\n\n        address ProjectContractAddress = address(new Project(_expediente, _projectTitle, _userAddress, msg.sender, _oc));\n        projectContract[_expediente] = ProjectContractAddress;\n        projectContractsArray.push(ProjectContractAddress);\n\n        userProjectContracts[_userAddress].push(ProjectContractAddress);\n\n        emit CreateProject(ProjectContractAddress);\n    }\n\n    function createUser(address _userAddress, uint _userType, bytes32 _userName) external onlyOwner() {\n        require(user[_userAddress].created == false, \"User already created\");\n\n        user[_userAddress] = User(_userName, _userType, true);\n        userArray.push(_userAddress);\n\n        emit CreateUser();\n    }\n\n    function incrementDocNumber(address _projectAddress) external onlyProjectContract(_projectAddress) returns(uint) {\n        docNumber++;\n        return docNumber;\n    }\n\n    function addSupplierToProject(address _supplierAddress, address _projectAddress) external onlyProjectContract(_projectAddress) {\n        require(user[_supplierAddress].created == true, \"User does not exist\");\n\n        userProjectContracts[_supplierAddress].push(_projectAddress);\n    }\n\n    function getAllProjectContract() external view returns(address[] memory) {\n        return projectContractsArray;\n    }\n\n    function getAllUsers() external view returns(address[] memory) {\n        return userArray;\n    }\n\n    function getUserDetails(address _address) external view returns(bytes32, uint, address[] memory) {\n        return (user[_address].name, user[_address].userType, userProjectContracts[_address]);\n    }\n\n}",
  "sourcePath": "/Users/admin/Documents/GitHub/NUCLEARIS-Material-Organization/contracts/NuclearPoE.sol",
  "compiler": {
    "name": "solc",
    "version": "0.5.0+commit.1d4f565a.Emscripten.clang"
  },
  "schemaVersion": "3.0.1",
  "updatedAt": "2019-10-29T00:56:18.639Z",
  "devdoc": {
    "methods": {
      "isOwner()": {
        "details": "Returns true if the caller is the current owner."
      },
      "owner()": {
        "details": "Returns the address of the current owner."
      },
      "renounceOwnership()": {
        "details": "Leaves the contract without owner. It will not be possible to call `onlyOwner` functions anymore. Can only be called by the current owner.     * NOTE: Renouncing ownership will leave the contract without an owner, thereby removing any functionality that is only available to the owner."
      },
      "transferOwnership(address)": {
        "details": "Transfers ownership of the contract to a new account (`newOwner`). Can only be called by the current owner."
      }
    }
  },
  "userdoc": {
    "methods": {}
  }
}