{
  "contractName": "NuclearPoE",
  "abi": [
    {
      "constant": true,
      "inputs": [],
      "name": "projectCount",
      "outputs": [
        {
          "name": "",
          "type": "uint8"
        }
      ],
      "payable": false,
      "stateMutability": "view",
      "type": "function",
      "signature": "0x36fbad26"
    },
    {
      "constant": true,
      "inputs": [
        {
          "name": "",
          "type": "uint256"
        }
      ],
      "name": "projectContractsArray",
      "outputs": [
        {
          "name": "",
          "type": "address"
        }
      ],
      "payable": false,
      "stateMutability": "view",
      "type": "function",
      "signature": "0xa88b25d4"
    },
    {
      "inputs": [],
      "payable": false,
      "stateMutability": "nonpayable",
      "type": "constructor",
      "signature": "constructor"
    },
    {
      "anonymous": false,
      "inputs": [
        {
          "indexed": false,
          "name": "newProjectContractAddress",
          "type": "address"
        }
      ],
      "name": "CreateProject",
      "type": "event",
      "signature": "0xbb703aa7f8a7bebc43ea190212c9ab3aeb3ea9de189188823994f06acd262fa3"
    },
    {
      "anonymous": false,
      "inputs": [
        {
          "indexed": false,
          "name": "ContractAddress",
          "type": "address"
        }
      ],
      "name": "CreateClient",
      "type": "event",
      "signature": "0xa126e52b2fadb5835f10b475d973d890415483c60747aac21fea59175f0dd829"
    },
    {
      "anonymous": false,
      "inputs": [
        {
          "indexed": false,
          "name": "ContractAddress",
          "type": "address"
        }
      ],
      "name": "CreateSupplier",
      "type": "event",
      "signature": "0x38900ecc8c1ca2521c031a90fe9f12ce8014307e18e0fa129b187619f8067cb2"
    },
    {
      "constant": false,
      "inputs": [
        {
          "name": "_expediente",
          "type": "uint256"
        },
        {
          "name": "_projectTitle",
          "type": "bytes32"
        },
        {
          "name": "_clientAddress",
          "type": "address"
        }
      ],
      "name": "createProject",
      "outputs": [],
      "payable": false,
      "stateMutability": "nonpayable",
      "type": "function",
      "signature": "0xef565a1c"
    },
    {
      "constant": false,
      "inputs": [
        {
          "name": "supplierAddress",
          "type": "address"
        },
        {
          "name": "_supplierName",
          "type": "bytes32"
        }
      ],
      "name": "createSupplier",
      "outputs": [],
      "payable": false,
      "stateMutability": "nonpayable",
      "type": "function",
      "signature": "0xaa44f3cd"
    },
    {
      "constant": false,
      "inputs": [
        {
          "name": "_clientAddress",
          "type": "address"
        },
        {
          "name": "_clientName",
          "type": "bytes32"
        }
      ],
      "name": "createClient",
      "outputs": [],
      "payable": false,
      "stateMutability": "nonpayable",
      "type": "function",
      "signature": "0xec8dfb91"
    }
  ],
  "bytecode": "0x608060405234801561001057600080fd5b50336000806101000a81548173ffffffffffffffffffffffffffffffffffffffff021916908373ffffffffffffffffffffffffffffffffffffffff160217905550612251806100606000396000f3fe60806040526004361061006d576000357c0100000000000000000000000000000000000000000000000000000000900463ffffffff16806336fbad2614610072578063a88b25d4146100a3578063aa44f3cd1461011e578063ec8dfb9114610179578063ef565a1c146101d4575b600080fd5b34801561007e57600080fd5b50610087610239565b604051808260ff1660ff16815260200191505060405180910390f35b3480156100af57600080fd5b506100dc600480360360208110156100c657600080fd5b810190808035906020019092919050505061024c565b604051808273ffffffffffffffffffffffffffffffffffffffff1673ffffffffffffffffffffffffffffffffffffffff16815260200191505060405180910390f35b34801561012a57600080fd5b506101776004803603604081101561014157600080fd5b81019080803573ffffffffffffffffffffffffffffffffffffffff1690602001909291908035906020019092919050505061028a565b005b34801561018557600080fd5b506101d26004803603604081101561019c57600080fd5b81019080803573ffffffffffffffffffffffffffffffffffffffff169060200190929190803590602001909291905050506105be565b005b3480156101e057600080fd5b50610237600480360360608110156101f757600080fd5b810190808035906020019092919080359060200190929190803573ffffffffffffffffffffffffffffffffffffffff1690602001909291905050506108f2565b005b600760009054906101000a900460ff1681565b60048181548110151561025b57fe5b906000526020600020016000915054906101000a900473ffffffffffffffffffffffffffffffffffffffff1681565b6000809054906101000a900473ffffffffffffffffffffffffffffffffffffffff1673ffffffffffffffffffffffffffffffffffffffff163373ffffffffffffffffffffffffffffffffffffffff1614151561034e576040517f08c379a000000000000000000000000000000000000000000000000000000000815260040180806020018281038252601f8152602001807f4f6e6c79206f776e65722063616e206d616b652074686973206368616e67650081525060200191505060405180910390fd5b60001515600360008473ffffffffffffffffffffffffffffffffffffffff1673ffffffffffffffffffffffffffffffffffffffff16815260200190815260200160002060000160149054906101000a900460ff161515141515610419576040517f08c379a00000000000000000000000000000000000000000000000000000000081526004018080602001828103825260188152602001807f537570706c69657220616c72656164792063726561746564000000000000000081525060200191505060405180910390fd5b600081610424610d3c565b80828152602001915050604051809103906000f08015801561044a573d6000803e3d6000fd5b50905060408051908101604052808273ffffffffffffffffffffffffffffffffffffffff16815260200160011515815250600360008573ffffffffffffffffffffffffffffffffffffffff1673ffffffffffffffffffffffffffffffffffffffff16815260200190815260200160002060008201518160000160006101000a81548173ffffffffffffffffffffffffffffffffffffffff021916908373ffffffffffffffffffffffffffffffffffffffff16021790555060208201518160000160146101000a81548160ff0219169083151502179055509050506007600281819054906101000a900460ff168092919060010191906101000a81548160ff021916908360ff160217905550507f38900ecc8c1ca2521c031a90fe9f12ce8014307e18e0fa129b187619f8067cb281604051808273ffffffffffffffffffffffffffffffffffffffff1673ffffffffffffffffffffffffffffffffffffffff16815260200191505060405180910390a1505050565b6000809054906101000a900473ffffffffffffffffffffffffffffffffffffffff1673ffffffffffffffffffffffffffffffffffffffff163373ffffffffffffffffffffffffffffffffffffffff16141515610682576040517f08c379a000000000000000000000000000000000000000000000000000000000815260040180806020018281038252601f8152602001807f4f6e6c79206f776e65722063616e206d616b652074686973206368616e67650081525060200191505060405180910390fd5b60001515600260008473ffffffffffffffffffffffffffffffffffffffff1673ffffffffffffffffffffffffffffffffffffffff16815260200190815260200160002060000160149054906101000a900460ff16151514151561074d576040517f08c379a00000000000000000000000000000000000000000000000000000000081526004018080602001828103825260168152602001807f436c69656e7420616c726561647920637265617465640000000000000000000081525060200191505060405180910390fd5b600081610758610d4c565b80828152602001915050604051809103906000f08015801561077e573d6000803e3d6000fd5b50905060408051908101604052808273ffffffffffffffffffffffffffffffffffffffff16815260200160011515815250600260008573ffffffffffffffffffffffffffffffffffffffff1673ffffffffffffffffffffffffffffffffffffffff16815260200190815260200160002060008201518160000160006101000a81548173ffffffffffffffffffffffffffffffffffffffff021916908373ffffffffffffffffffffffffffffffffffffffff16021790555060208201518160000160146101000a81548160ff0219169083151502179055509050506007600181819054906101000a900460ff168092919060010191906101000a81548160ff021916908360ff160217905550507fa126e52b2fadb5835f10b475d973d890415483c60747aac21fea59175f0dd82981604051808273ffffffffffffffffffffffffffffffffffffffff1673ffffffffffffffffffffffffffffffffffffffff16815260200191505060405180910390a1505050565b6000809054906101000a900473ffffffffffffffffffffffffffffffffffffffff1673ffffffffffffffffffffffffffffffffffffffff163373ffffffffffffffffffffffffffffffffffffffff161415156109b6576040517f08c379a000000000000000000000000000000000000000000000000000000000815260040180806020018281038252601f8152602001807f4f6e6c79206f776e65722063616e206d616b652074686973206368616e67650081525060200191505060405180910390fd5b600015156001600085815260200190815260200160002060000160149054906101000a900460ff161515141515610a55576040517f08c379a00000000000000000000000000000000000000000000000000000000081526004018080602001828103825260178152602001807f50726f6a65637420616c7265616479206372656174656400000000000000000081525060200191505060405180910390fd5b60011515600260008373ffffffffffffffffffffffffffffffffffffffff1673ffffffffffffffffffffffffffffffffffffffff16815260200190815260200160002060000160149054906101000a900460ff161515141515610b20576040517f08c379a00000000000000000000000000000000000000000000000000000000081526004018080602001828103825260158152602001807f436c69656e7420646f6573206e6f74206578697374000000000000000000000081525060200191505060405180910390fd5b6000838383610b2d610d5c565b808481526020018381526020018273ffffffffffffffffffffffffffffffffffffffff1673ffffffffffffffffffffffffffffffffffffffff1681526020019350505050604051809103906000f080158015610b8d573d6000803e3d6000fd5b50905060408051908101604052808273ffffffffffffffffffffffffffffffffffffffff168152602001600115158152506001600086815260200190815260200160002060008201518160000160006101000a81548173ffffffffffffffffffffffffffffffffffffffff021916908373ffffffffffffffffffffffffffffffffffffffff16021790555060208201518160000160146101000a81548160ff02191690831515021790555090505060048190806001815401808255809150509060018203906000526020600020016000909192909190916101000a81548173ffffffffffffffffffffffffffffffffffffffff021916908373ffffffffffffffffffffffffffffffffffffffff160217905550506007600081819054906101000a900460ff168092919060010191906101000a81548160ff021916908360ff160217905550507fbb703aa7f8a7bebc43ea190212c9ab3aeb3ea9de189188823994f06acd262fa381604051808273ffffffffffffffffffffffffffffffffffffffff1673ffffffffffffffffffffffffffffffffffffffff16815260200191505060405180910390a150505050565b6040516102ad80610d6d83390190565b6040516102ad8061101a83390190565b604051610f5f806112c78339019056fe608060405234801561001057600080fd5b506040516020806102ad8339810180604052602081101561003057600080fd5b81019080805190602001909291905050508060008190555050610255806100586000396000f3fe60806040526004361061004c576000357c0100000000000000000000000000000000000000000000000000000000900463ffffffff16806339571d6e146100515780637c56b798146100c4575b600080fd5b34801561005d57600080fd5b50610066610115565b6040518083815260200180602001828103825283818151815260200191508051906020019060200280838360005b838110156100af578082015181840152602081019050610094565b50505050905001935050505060405180910390f35b3480156100d057600080fd5b50610113600480360360208110156100e757600080fd5b81019080803573ffffffffffffffffffffffffffffffffffffffff1690602001909291905050506101ae565b005b6000606060005460018080548060200260200160405190810160405280929190818152602001828054801561019f57602002820191906000526020600020905b8160009054906101000a900473ffffffffffffffffffffffffffffffffffffffff1673ffffffffffffffffffffffffffffffffffffffff1681526020019060010190808311610155575b50505050509050915091509091565b60018190806001815401808255809150509060018203906000526020600020016000909192909190916101000a81548173ffffffffffffffffffffffffffffffffffffffff021916908373ffffffffffffffffffffffffffffffffffffffff160217905550506002600081548092919060010191905055505056fea165627a7a723058207f55ebc4e8cf07aa9847352a14e86de46c315a20b30b80a18d39ea14ea169a9a0029608060405234801561001057600080fd5b506040516020806102ad8339810180604052602081101561003057600080fd5b81019080805190602001909291905050508060008190555050610255806100586000396000f3fe60806040526004361061004c576000357c0100000000000000000000000000000000000000000000000000000000900463ffffffff16806339571d6e146100515780637c56b798146100c4575b600080fd5b34801561005d57600080fd5b50610066610115565b6040518083815260200180602001828103825283818151815260200191508051906020019060200280838360005b838110156100af578082015181840152602081019050610094565b50505050905001935050505060405180910390f35b3480156100d057600080fd5b50610113600480360360208110156100e757600080fd5b81019080803573ffffffffffffffffffffffffffffffffffffffff1690602001909291905050506101ae565b005b6000606060005460018080548060200260200160405190810160405280929190818152602001828054801561019f57602002820191906000526020600020905b8160009054906101000a900473ffffffffffffffffffffffffffffffffffffffff1673ffffffffffffffffffffffffffffffffffffffff1681526020019060010190808311610155575b50505050509050915091509091565b60018190806001815401808255809150509060018203906000526020600020016000909192909190916101000a81548173ffffffffffffffffffffffffffffffffffffffff021916908373ffffffffffffffffffffffffffffffffffffffff160217905550506002600081548092919060010191905055505056fea165627a7a723058209e761aa4a144b2630e76f19b285d3a970df4f62f94375d777faee891f8567c060029608060405234801561001057600080fd5b50604051606080610f5f8339810180604052606081101561003057600080fd5b810190808051906020019092919080519060200190929190805190602001909291905050508260008190555081600281905550806001806101000a81548173ffffffffffffffffffffffffffffffffffffffff021916908373ffffffffffffffffffffffffffffffffffffffff160217905550505050610eaa806100b56000396000f3fe608060405260043610610078576000357c0100000000000000000000000000000000000000000000000000000000900463ffffffff16806339571d6e1461007d57806345a113f3146101b0578063b471a6d014610215578063b4e830f11461029a578063d5252015146102b1578063d98c10bc1461033a575b600080fd5b34801561008957600080fd5b506100926103a6565b604051808881526020018773ffffffffffffffffffffffffffffffffffffffff1673ffffffffffffffffffffffffffffffffffffffff1681526020018673ffffffffffffffffffffffffffffffffffffffff1673ffffffffffffffffffffffffffffffffffffffff168152602001858152602001841515151581526020018060200180602001838103835285818151815260200191508051906020019060200280838360005b83811015610153578082015181840152602081019050610138565b50505050905001838103825284818151815260200191508051906020019060200280838360005b8381101561019557808201518184015260208101905061017a565b50505050905001995050505050505050505060405180910390f35b3480156101bc57600080fd5b50610213600480360360608110156101d357600080fd5b81019080803573ffffffffffffffffffffffffffffffffffffffff16906020019092919080359060200190929190803590602001909291905050506104df565b005b34801561022157600080fd5b506102986004803603608081101561023857600080fd5b81019080803573ffffffffffffffffffffffffffffffffffffffff169060200190929190803573ffffffffffffffffffffffffffffffffffffffff1690602001909291908035906020019092919080359060200190929190505050610835565b005b3480156102a657600080fd5b506102af610b53565b005b3480156102bd57600080fd5b506102ea600480360360208110156102d457600080fd5b8101908080359060200190929190505050610d10565b604051808473ffffffffffffffffffffffffffffffffffffffff1673ffffffffffffffffffffffffffffffffffffffff168152602001838152602001828152602001935050505060405180910390f35b34801561034657600080fd5b5061034f610e26565b6040518080602001828103825283818151815260200191508051906020019060200280838360005b83811015610392578082015181840152602081019050610377565b505050509050019250505060405180910390f35b6000806000806000606080600054306001809054906101000a900473ffffffffffffffffffffffffffffffffffffffff16600254600160009054906101000a900460ff16600660058180548060200260200160405190810160405280929190818152602001828054801561043957602002820191906000526020600020905b815481526020019060010190808311610425575b50505050509150808054806020026020016040519081016040528092919081815260200182805480156104c157602002820191906000526020600020905b8160009054906101000a900473ffffffffffffffffffffffffffffffffffffffff1673ffffffffffffffffffffffffffffffffffffffff1681526020019060010190808311610477575b50505050509050965096509650965096509650965090919293949596565b60011515600160009054906101000a900460ff161515141515610590576040517f08c379a00000000000000000000000000000000000000000000000000000000081526004018080602001828103825260218152602001807f50726f6a656374206973206e6f7420617070726f76656420627920636c69656e81526020017f740000000000000000000000000000000000000000000000000000000000000081525060400191505060405180910390fd5b60011515600760008573ffffffffffffffffffffffffffffffffffffffff1673ffffffffffffffffffffffffffffffffffffffff16815260200190815260200160002060020160149054906101000a900460ff16151514151561065b576040517f08c379a00000000000000000000000000000000000000000000000000000000081526004018080602001828103825260168152602001807f50726f6365737320646f6573206e6f742065786973740000000000000000000081525060200191505060405180910390fd5b600015156008600084815260200190815260200160002060030160009054906101000a900460ff1615151415156106fa576040517f08c379a00000000000000000000000000000000000000000000000000000000081526004018080602001828103825260188152602001807f446f63756d656e7420616c72656164792063726561746564000000000000000081525060200191505060405180910390fd5b6080604051908101604052808473ffffffffffffffffffffffffffffffffffffffff168152602001828152602001428152602001600115158152506008600084815260200190815260200160002060008201518160000160006101000a81548173ffffffffffffffffffffffffffffffffffffffff021916908373ffffffffffffffffffffffffffffffffffffffff160217905550602082015181600101556040820151816002015560608201518160030160006101000a81548160ff02191690831515021790555090505060068290806001815401808255809150509060018203906000526020600020016000909192909190915055506004600081548092919060010191905055507f0ac146a5629d2541f754db3df5197733e7c3002b8cfe1da2416abd2c9a49c28c60405160405180910390a1505050565b60001515600760008573ffffffffffffffffffffffffffffffffffffffff1673ffffffffffffffffffffffffffffffffffffffff16815260200190815260200160002060020160149054906101000a900460ff161515141515610900576040517f08c379a00000000000000000000000000000000000000000000000000000000081526004018080602001828103825260178152602001807f50726f6365737320616c7265616479206372656174656400000000000000000081525060200191505060405180910390fd5b60001515600160009054906101000a900460ff1615151415156109b1576040517f08c379a00000000000000000000000000000000000000000000000000000000081526004018080602001828103825260258152602001807f50726f6a65637420697320616c726561647920617070726f766564206279206381526020017f6c69656e7400000000000000000000000000000000000000000000000000000081525060400191505060405180910390fd5b60036000815480929190600101919050555060058390806001815401808255809150509060018203906000526020600020016000909192909190916101000a81548173ffffffffffffffffffffffffffffffffffffffff021916908373ffffffffffffffffffffffffffffffffffffffff160217905550506080604051908101604052808381526020018281526020018573ffffffffffffffffffffffffffffffffffffffff16815260200160011515815250600760008573ffffffffffffffffffffffffffffffffffffffff1673ffffffffffffffffffffffffffffffffffffffff168152602001908152602001600020600082015181600001556020820151816001015560408201518160020160006101000a81548173ffffffffffffffffffffffffffffffffffffffff021916908373ffffffffffffffffffffffffffffffffffffffff16021790555060608201518160020160146101000a81548160ff0219169083151502179055509050507f0346a5dd0e6acde7619febdd0d7f470611f6f002fb8cee5f164a3ab74854ec5b60405160405180910390a150505050565b6001809054906101000a900473ffffffffffffffffffffffffffffffffffffffff1673ffffffffffffffffffffffffffffffffffffffff163373ffffffffffffffffffffffffffffffffffffffff16141515610c3d576040517f08c379a00000000000000000000000000000000000000000000000000000000081526004018080602001828103825260378152602001807f4f6e6c7920636c69656e7473206f6620746869732070726f6a6563742063616e81526020017f207265616c697a652074686973206f7065726174696f6e00000000000000000081525060400191505060405180910390fd5b60001515600160009054906101000a900460ff161515141515610cc8576040517f08c379a00000000000000000000000000000000000000000000000000000000081526004018080602001828103825260188152602001807f50726f6a65637420616c726561647920617070726f766564000000000000000081525060200191505060405180910390fd5b60018060006101000a81548160ff0219169083151502179055507fe69f676c299b333dca8f06fbbad2158afb93499d1eaf331570780e6afc33889a60405160405180910390a1565b6000806000600115156008600086815260200190815260200160002060030160009054906101000a900460ff161515141515610db4576040517f08c379a00000000000000000000000000000000000000000000000000000000081526004018080602001828103825260178152602001807f446f63756d656e7420646f6573206e6f7420657869737400000000000000000081525060200191505060405180910390fd5b6008600085815260200190815260200160002060000160009054906101000a900473ffffffffffffffffffffffffffffffffffffffff16600860008681526020019081526020016000206002015460086000878152602001908152602001600020600101549250925092509193909250565b60606006805480602002602001604051908101604052809291908181526020018280548015610e7457602002820191906000526020600020905b815481526020019060010190808311610e60575b505050505090509056fea165627a7a7230582082174bfde9817e42068985605c058762692cdb4543cc8371e840a6a964bf40c20029a165627a7a723058202d08711acfbfee9c81c13c249301d1496f81e8266f9759d8175d173bd26f380a0029",
  "source": "pragma solidity >=0.5.0 <0.7.0;\r\n\r\n//Contrato general que manejo los subcontratos que se crean en runtime\r\ncontract NuclearPoE {\r\n\r\n    address private owner;\r\n\r\n    constructor() public {\r\n      owner = msg.sender;\r\n    }\r\n\r\n    struct ProjectStruct {\r\n        address contractAddress;\r\n        bool created;\r\n    }\r\n\r\n    struct ClientStruct {\r\n        address contractAddress;\r\n        bool created;\r\n    }\r\n\r\n    struct SupplierStruct {\r\n        address contractAddress;\r\n        bool created;\r\n    }\r\n\r\n    mapping(uint => ProjectStruct) private projectContracts;\r\n    mapping(address => ClientStruct) private client;\r\n    mapping(address => SupplierStruct) private supplier;\r\n\r\n    address[] public projectContractsArray;\r\n    address[] private supplierContractsArray;\r\n    address[] private clientContractsArray;\r\n    uint8 public projectCount;\r\n    uint8 private clientCount;\r\n    uint8 private supplierCount;\r\n\r\n    modifier onlyOwner() {\r\n    require(msg.sender == owner,\"Only owner can make this change\");_;\r\n    }\r\n\r\n    event CreateProject(address newProjectContractAddress);\r\n    event CreateClient(address ContractAddress);\r\n    event CreateSupplier(address ContractAddress);\r\n\r\n    function createProject(uint _expediente, bytes32 _projectTitle, address _clientAddress) external onlyOwner() {\r\n        require(projectContracts[_expediente].created == false, \"Project already created\");\r\n        require(client[_clientAddress].created == true, \"Client does not exist\");\r\n\r\n        address ProjectContractAddress = address(new Project(_expediente, _projectTitle, _clientAddress));\r\n        projectContracts[_expediente] = ProjectStruct(ProjectContractAddress, true);\r\n\r\n        projectContractsArray.push(ProjectContractAddress);\r\n        projectCount++;\r\n\r\n        emit CreateProject(ProjectContractAddress);\r\n    }\r\n\r\n    function createSupplier(address supplierAddress, bytes32 _supplierName) external onlyOwner() {\r\n        require(supplier[supplierAddress].created == false,\"Supplier already created\");\r\n\r\n        address ContractAddress = address(new Supplier(_supplierName));\r\n\r\n        supplier[supplierAddress] = SupplierStruct(ContractAddress, true);\r\n        supplierCount++;\r\n\r\n        emit CreateSupplier(ContractAddress);\r\n    }\r\n\r\n    function createClient(address _clientAddress, bytes32 _clientName) external onlyOwner() {\r\n        require(client[_clientAddress].created == false,\"Client already created\");\r\n\r\n        address ContractAddress = address(new Client(_clientName));\r\n\r\n        client[_clientAddress] = ClientStruct(ContractAddress, true);\r\n        clientCount++;\r\n\r\n        emit CreateClient(ContractAddress);\r\n    }\r\n}\r\n\r\n// Contrato de proyectos, cada vez que se crea un proyecto nuevo se debe generar un contrato proyecto.\r\ncontract Project {\r\n\r\n    uint private expediente;\r\n    bool private approved;\r\n    address private clientAddress;\r\n    bytes32 private title;\r\n\r\n    struct Document {\r\n        address supplierAddress;\r\n        bytes32 documentTitle;\r\n        uint mineTime;\r\n        bool created;\r\n    }\r\n\r\n    struct Process {\r\n        bytes32 processName;\r\n        bytes32 supplierName;\r\n        address supplierContractAddress;\r\n        bool created;\r\n    }\r\n\r\n    uint private supplierCount;\r\n    uint private documentQty;\r\n    address[] private supplierAddresses;\r\n    bytes32[] private allDocuments;\r\n\r\n    mapping(address => Process) private process;\r\n    mapping(bytes32 => Document) private document;\r\n\r\n    event AddDocument();\r\n    event AddProcess();\r\n    event ApproveProject();\r\n\r\n    constructor (uint _expediente, bytes32 _title,address _clientAddress) public {\r\n        expediente = _expediente;\r\n        title = _title;\r\n        clientAddress = _clientAddress;\r\n    }\r\n\r\n    function addDocument (address _supplierAddress, bytes32 _hash, bytes32 _documentName) external {\r\n        require(approved == true,\"Project is not approved by client\");\r\n        require(process[_supplierAddress].created == true, \"Process does not exist\");\r\n        require(document[_hash].created == false, \"Document already created\");\r\n\r\n        document[_hash] = Document(_supplierAddress, _documentName, now, true);\r\n        allDocuments.push(_hash);\r\n        documentQty++;\r\n        emit AddDocument();\r\n    }\r\n\r\n\r\n    function findDocument(bytes32 _hash) external view returns (address, uint, bytes32) {\r\n        require(document[_hash].created == true, \"Document does not exist\");\r\n        return (\r\n            document[_hash].supplierAddress,\r\n            document[_hash].mineTime,\r\n            document[_hash].documentTitle\r\n            );\r\n    }\r\n\r\n    function approveProject() external {\r\n        require(msg.sender == clientAddress,\"Only clients of this project can realize this operation\");\r\n        require(approved == false,\"Project already approved\");\r\n        approved = true;\r\n        emit ApproveProject();\r\n    }\r\n\r\n    function addProcess(address _supplierContractAddress, address _supplierAddress, bytes32 _processName, bytes32 _supplierName) external {\r\n        require(process[_supplierAddress].created == false,\"Process already created\");\r\n        require(approved == false,\"Project is already approved by client\");\r\n\r\n        supplierCount++;\r\n        supplierAddresses.push(_supplierAddress);\r\n\r\n        process[_supplierAddress] = Process(_processName, _supplierName, _supplierContractAddress, true);\r\n\r\n        emit AddProcess();\r\n    }\r\n\r\n        function contractDetails() external view returns (uint, address, address, bytes32, bool, bytes32[] memory, address[] memory) {\r\n        return (expediente, address(this), clientAddress, title, approved, allDocuments, supplierAddresses);\r\n    }\r\n\r\n    function returnAllDocuments() external view returns(bytes32[] memory) {\r\n        return allDocuments;\r\n    }\r\n}\r\n\r\n\r\n// Contrato de cliente que se genera para cada cliente nuevo y hace seguimiento a los proyectos nuevos asignados\r\ncontract Client {\r\n\r\n    bytes32 private name;\r\n    address[] private projectAddresses;\r\n    uint private projectCount;\r\n\r\n    constructor (bytes32 _name) public {\r\n        name = _name;\r\n    }\r\n\r\n    function contractDetails() external view returns (bytes32, address[] memory) {\r\n        return (name, projectAddresses);\r\n    }\r\n\r\n    function addProject(address _a) external {\r\n        projectAddresses.push(_a);\r\n        projectCount++;\r\n    }\r\n\r\n}\r\n\r\n// Contrato de proveedores que se genera para cada proveedor nuevo y hace seguimiento a los proyectos nuevos asignados\r\ncontract Supplier {\r\n\r\n    bytes32 private name;\r\n    address[] private projectAddresses;\r\n    uint private projectCount;\r\n\r\n    constructor (bytes32 supplierName) public {\r\n        name = supplierName;\r\n    }\r\n\r\n    function contractDetails() external view returns (bytes32, address[] memory) {\r\n        return (name, projectAddresses);\r\n    }\r\n\r\n    function addProject(address _a) external {\r\n        projectAddresses.push(_a);\r\n        projectCount++;\r\n    }\r\n}",
  "sourcePath": "C:/Users/smartinez.nuclearis/Documents/GitHub/NUCLEARIS-Material-Organization/contracts/NuclearPoE.sol",
  "compiler": {
    "name": "solc",
    "version": "0.5.0+commit.1d4f565a.Emscripten.clang"
  },
  "schemaVersion": "3.0.5",
  "updatedAt": "2019-09-27T20:20:38.947Z",
  "devdoc": {
    "methods": {}
  },
  "userdoc": {
    "methods": {}
  }
}