{
  "contractName": "NuclearPoE",
  "abi": [
    {
      "anonymous": false,
      "inputs": [
        {
          "indexed": false,
          "internalType": "uint256",
          "name": "id",
          "type": "uint256"
        }
      ],
      "name": "CloseProject",
      "type": "event"
    },
    {
      "anonymous": false,
      "inputs": [
        {
          "indexed": false,
          "internalType": "address",
          "name": "ProcessContractAddress",
          "type": "address"
        }
      ],
      "name": "CreateProcess",
      "type": "event"
    },
    {
      "anonymous": false,
      "inputs": [],
      "name": "CreateProject",
      "type": "event"
    },
    {
      "constant": false,
      "inputs": [
        {
          "internalType": "address",
          "name": "entity",
          "type": "address"
        },
        {
          "internalType": "string[]",
          "name": "role",
          "type": "string[]"
        }
      ],
      "name": "assignMultipleRoles",
      "outputs": [],
      "payable": false,
      "stateMutability": "nonpayable",
      "type": "function"
    },
    {
      "constant": false,
      "inputs": [
        {
          "internalType": "address",
          "name": "entity",
          "type": "address"
        },
        {
          "internalType": "string",
          "name": "role",
          "type": "string"
        }
      ],
      "name": "assignRole",
      "outputs": [],
      "payable": false,
      "stateMutability": "nonpayable",
      "type": "function"
    },
    {
      "constant": true,
      "inputs": [
        {
          "internalType": "address",
          "name": "entity",
          "type": "address"
        },
        {
          "internalType": "string",
          "name": "role",
          "type": "string"
        }
      ],
      "name": "isAssignedRole",
      "outputs": [
        {
          "internalType": "bool",
          "name": "",
          "type": "bool"
        }
      ],
      "payable": false,
      "stateMutability": "view",
      "type": "function"
    },
    {
      "constant": true,
      "inputs": [],
      "name": "owner",
      "outputs": [
        {
          "internalType": "address",
          "name": "",
          "type": "address"
        }
      ],
      "payable": false,
      "stateMutability": "view",
      "type": "function"
    },
    {
      "constant": true,
      "inputs": [
        {
          "internalType": "uint256",
          "name": "",
          "type": "uint256"
        }
      ],
      "name": "processContractsArray",
      "outputs": [
        {
          "internalType": "address",
          "name": "",
          "type": "address"
        }
      ],
      "payable": false,
      "stateMutability": "view",
      "type": "function"
    },
    {
      "constant": true,
      "inputs": [
        {
          "internalType": "address",
          "name": "",
          "type": "address"
        },
        {
          "internalType": "uint256",
          "name": "",
          "type": "uint256"
        }
      ],
      "name": "processesByAddress",
      "outputs": [
        {
          "internalType": "address",
          "name": "",
          "type": "address"
        }
      ],
      "payable": false,
      "stateMutability": "view",
      "type": "function"
    },
    {
      "constant": true,
      "inputs": [
        {
          "internalType": "uint256",
          "name": "",
          "type": "uint256"
        }
      ],
      "name": "projectsArray",
      "outputs": [
        {
          "internalType": "uint256",
          "name": "",
          "type": "uint256"
        }
      ],
      "payable": false,
      "stateMutability": "view",
      "type": "function"
    },
    {
      "constant": true,
      "inputs": [
        {
          "internalType": "address",
          "name": "",
          "type": "address"
        },
        {
          "internalType": "uint256",
          "name": "",
          "type": "uint256"
        }
      ],
      "name": "projectsByAddress",
      "outputs": [
        {
          "internalType": "uint256",
          "name": "",
          "type": "uint256"
        }
      ],
      "payable": false,
      "stateMutability": "view",
      "type": "function"
    },
    {
      "constant": false,
      "inputs": [
        {
          "internalType": "address",
          "name": "entity",
          "type": "address"
        },
        {
          "internalType": "string",
          "name": "role",
          "type": "string"
        }
      ],
      "name": "unassignRole",
      "outputs": [],
      "payable": false,
      "stateMutability": "nonpayable",
      "type": "function"
    },
    {
      "constant": false,
      "inputs": [
        {
          "internalType": "uint256",
          "name": "_id",
          "type": "uint256"
        },
        {
          "internalType": "address",
          "name": "_clientAddress",
          "type": "address"
        },
        {
          "internalType": "bytes32",
          "name": "title",
          "type": "bytes32"
        },
        {
          "internalType": "bytes32",
          "name": "oc",
          "type": "bytes32"
        }
      ],
      "name": "createProject",
      "outputs": [],
      "payable": false,
      "stateMutability": "nonpayable",
      "type": "function"
    },
    {
      "constant": false,
      "inputs": [
        {
          "internalType": "address",
          "name": "_supplierAddress",
          "type": "address"
        },
        {
          "internalType": "bytes32",
          "name": "_processName",
          "type": "bytes32"
        }
      ],
      "name": "createProcess",
      "outputs": [],
      "payable": false,
      "stateMutability": "nonpayable",
      "type": "function"
    },
    {
      "constant": false,
      "inputs": [
        {
          "internalType": "uint256",
          "name": "_id",
          "type": "uint256"
        },
        {
          "internalType": "address",
          "name": "_processContract",
          "type": "address"
        }
      ],
      "name": "addProcessToProject",
      "outputs": [],
      "payable": false,
      "stateMutability": "nonpayable",
      "type": "function"
    },
    {
      "constant": false,
      "inputs": [
        {
          "internalType": "uint256",
          "name": "_id",
          "type": "uint256"
        }
      ],
      "name": "changeProjectStatus",
      "outputs": [],
      "payable": false,
      "stateMutability": "nonpayable",
      "type": "function"
    },
    {
      "constant": true,
      "inputs": [],
      "name": "getAllProcessContracts",
      "outputs": [
        {
          "internalType": "address[]",
          "name": "",
          "type": "address[]"
        }
      ],
      "payable": false,
      "stateMutability": "view",
      "type": "function"
    },
    {
      "constant": true,
      "inputs": [
        {
          "internalType": "uint256",
          "name": "_id",
          "type": "uint256"
        }
      ],
      "name": "getProcessContractsByProject",
      "outputs": [
        {
          "internalType": "address[]",
          "name": "",
          "type": "address[]"
        }
      ],
      "payable": false,
      "stateMutability": "view",
      "type": "function"
    },
    {
      "constant": true,
      "inputs": [],
      "name": "getAllProjects",
      "outputs": [
        {
          "internalType": "uint256[]",
          "name": "",
          "type": "uint256[]"
        }
      ],
      "payable": false,
      "stateMutability": "view",
      "type": "function"
    },
    {
      "constant": true,
      "inputs": [
        {
          "internalType": "address",
          "name": "_address",
          "type": "address"
        }
      ],
      "name": "getProcessesByAddress",
      "outputs": [
        {
          "internalType": "address[]",
          "name": "",
          "type": "address[]"
        }
      ],
      "payable": false,
      "stateMutability": "view",
      "type": "function"
    },
    {
      "constant": true,
      "inputs": [
        {
          "internalType": "address",
          "name": "_address",
          "type": "address"
        }
      ],
      "name": "getProjectsByAddress",
      "outputs": [
        {
          "internalType": "uint256[]",
          "name": "",
          "type": "uint256[]"
        }
      ],
      "payable": false,
      "stateMutability": "view",
      "type": "function"
    },
    {
      "constant": true,
      "inputs": [
        {
          "internalType": "uint256",
          "name": "_id",
          "type": "uint256"
        }
      ],
      "name": "getProjectDetails",
      "outputs": [
        {
          "internalType": "enum NuclearPoE.State",
          "name": "",
          "type": "uint8"
        },
        {
          "internalType": "address",
          "name": "",
          "type": "address"
        },
        {
          "internalType": "bytes32",
          "name": "",
          "type": "bytes32"
        },
        {
          "internalType": "bytes32",
          "name": "",
          "type": "bytes32"
        },
        {
          "internalType": "address[]",
          "name": "",
          "type": "address[]"
        }
      ],
      "payable": false,
      "stateMutability": "view",
      "type": "function"
    }
  ],
  "bytecode": "0x6080604052336000806101000a81548173ffffffffffffffffffffffffffffffffffffffff021916908373ffffffffffffffffffffffffffffffffffffffff160217905550614757806100536000396000f3fe60806040523480156200001157600080fd5b50600436106200013c5760003560e01c806375cae8c011620000bd578063cbfa3d09116200007b578063cbfa3d0914620003a5578063d5842c8b14620003c5578063e6c3993014620003fb578063f136229a1462000431578063fb4e2c791462000451576200013c565b806375cae8c014620002ff57806380d0382914620003215780638da5cb5b1462000343578063b7dfcbee1462000365578063c936919f1462000385576200013c565b80635f8439e3116200010b5780635f8439e3146200021957806364b785fa146200025357806366c3e86114620002895780636ccdd74614620002a957806373f04d7f14620002df576200013c565b80631c35c53f146200014157806337798e8e14620001775780634cb7a7ba14620001ad5780635c6db28114620001e3575b600080fd5b6200015f6004803603620001599190810190620021f5565b62000471565b6040516200016e919062002879565b60405180910390f35b6200019560048036036200018f9190810190620022c0565b6200067c565b604051620001a49190620028c1565b60405180910390f35b620001cb6004803603620001c591908101906200231e565b620006f4565b604051620001da91906200282f565b60405180910390f35b620002016004803603620001fb91908101906200235f565b62000740565b60405162000210919062002879565b60405180910390f35b6200023760048036036200023191908101906200235f565b620007e6565b6040516200024a959493929190620028de565b60405180910390f35b6200027160048036036200026b91908101906200235f565b62000a66565b604051620002809190620029ca565b60405180910390f35b620002a76004803603620002a19190810190620023cc565b62000a88565b005b620002c76004803603620002c191908101906200231e565b62000e47565b604051620002d69190620029ca565b60405180910390f35b620002fd6004803603620002f791908101906200238b565b62000e76565b005b62000309620010b1565b60405162000318919062002879565b60405180910390f35b6200032b62001141565b6040516200033a91906200289d565b60405180910390f35b6200034d620012d7565b6040516200035c91906200282f565b60405180910390f35b6200038360048036036200037d9190810190620022c0565b620012fc565b005b620003a360048036036200039d9190810190620022c0565b620014b4565b005b620003c36004803603620003bd919081019062002221565b6200166d565b005b620003e36004803603620003dd9190810190620021f5565b620018a8565b604051620003f291906200289d565b60405180910390f35b6200041960048036036200041391908101906200235f565b62001a7d565b6040516200042891906200282f565b60405180910390f35b6200044f60048036036200044991908101906200235f565b62001aba565b005b6200046f60048036036200046991908101906200227f565b62001d71565b005b60606040518060400160405280600c81526020017f70726f636573733a726561640000000000000000000000000000000000000000815250600160003373ffffffffffffffffffffffffffffffffffffffff1673ffffffffffffffffffffffffffffffffffffffff16815260200190815260200160002081604051620004f8919062002816565b908152602001604051809103902060009054906101000a900460ff16806200056c57506000809054906101000a900473ffffffffffffffffffffffffffffffffffffffff1673ffffffffffffffffffffffffffffffffffffffff163373ffffffffffffffffffffffffffffffffffffffff16145b620005ae576040517f08c379a0000000000000000000000000000000000000000000000000000000008152600401620005a59062002986565b60405180910390fd5b600560008473ffffffffffffffffffffffffffffffffffffffff1673ffffffffffffffffffffffffffffffffffffffff1681526020019081526020016000208054806020026020016040519081016040528092919081815260200182805480156200066f57602002820191906000526020600020905b8160009054906101000a900473ffffffffffffffffffffffffffffffffffffffff1673ffffffffffffffffffffffffffffffffffffffff168152602001906001019080831162000624575b5050505050915050919050565b6000600160008573ffffffffffffffffffffffffffffffffffffffff1673ffffffffffffffffffffffffffffffffffffffff1681526020019081526020016000208383604051620006cf929190620027fb565b908152602001604051809103902060009054906101000a900460ff1690509392505050565b600560205281600052604060002081815481106200070e57fe5b906000526020600020016000915091509054906101000a900473ffffffffffffffffffffffffffffffffffffffff1681565b606060066000838152602001908152602001600020600301805480602002602001604051908101604052809291908181526020018280548015620007da57602002820191906000526020600020905b8160009054906101000a900473ffffffffffffffffffffffffffffffffffffffff1673ffffffffffffffffffffffffffffffffffffffff16815260200190600101908083116200078f575b50505050509050919050565b60008060008060606040518060400160405280600c81526020017f70726f6a6563743a726561640000000000000000000000000000000000000000815250600160003373ffffffffffffffffffffffffffffffffffffffff1673ffffffffffffffffffffffffffffffffffffffff1681526020019081526020016000208160405162000873919062002816565b908152602001604051809103902060009054906101000a900460ff1680620008e757506000809054906101000a900473ffffffffffffffffffffffffffffffffffffffff1673ffffffffffffffffffffffffffffffffffffffff163373ffffffffffffffffffffffffffffffffffffffff16145b62000929576040517f08c379a0000000000000000000000000000000000000000000000000000000008152600401620009209062002986565b60405180910390fd5b6006600088815260200190815260200160002060000160009054906101000a900460ff166006600089815260200190815260200160002060000160019054906101000a900473ffffffffffffffffffffffffffffffffffffffff16600660008a815260200190815260200160002060010154600660008b815260200190815260200160002060020154600660008c81526020019081526020016000206003018080548060200260200160405190810160405280929190818152602001828054801562000a4b57602002820191906000526020600020905b8160009054906101000a900473ffffffffffffffffffffffffffffffffffffffff1673ffffffffffffffffffffffffffffffffffffffff168152602001906001019080831162000a00575b50505050509050955095509550955095505091939590929450565b6003818154811062000a7457fe5b906000526020600020016000915090505481565b6040518060400160405280600e81526020017f70726f6a6563743a637265617465000000000000000000000000000000000000815250600160003373ffffffffffffffffffffffffffffffffffffffff1673ffffffffffffffffffffffffffffffffffffffff1681526020019081526020016000208160405162000b0d919062002816565b908152602001604051809103902060009054906101000a900460ff168062000b8157506000809054906101000a900473ffffffffffffffffffffffffffffffffffffffff1673ffffffffffffffffffffffffffffffffffffffff163373ffffffffffffffffffffffffffffffffffffffff16145b62000bc3576040517f08c379a000000000000000000000000000000000000000000000000000000000815260040162000bba9062002986565b60405180910390fd5b6000600281111562000bd157fe5b6006600087815260200190815260200160002060000160009054906101000a900460ff16600281111562000c0157fe5b1462000c44576040517f08c379a000000000000000000000000000000000000000000000000000000000815260040162000c3b90620029a8565b60405180910390fd5b6060600060405190808252806020026020018201604052801562000c775781602001602082028038833980820191505090505b5090506040518060a001604052806001600281111562000c9357fe5b81526020018673ffffffffffffffffffffffffffffffffffffffff168152602001858152602001848152602001828152506006600088815260200190815260200160002060008201518160000160006101000a81548160ff0219169083600281111562000cfc57fe5b021790555060208201518160000160016101000a81548173ffffffffffffffffffffffffffffffffffffffff021916908373ffffffffffffffffffffffffffffffffffffffff1602179055506040820151816001015560608201518160020155608082015181600301908051906020019062000d7a92919062002033565b50905050600460008673ffffffffffffffffffffffffffffffffffffffff1673ffffffffffffffffffffffffffffffffffffffff16815260200190815260200160002086908060018154018082558091505090600182039060005260206000200160009091929091909150555060038690806001815401808255809150509060018203906000526020600020016000909192909190915055507fbab479b5b86675be7215930d13339d95c3af3099f28b31caf6cac1c3a08c3da760405160405180910390a1505050505050565b6004602052816000526040600020818154811062000e6157fe5b90600052602060002001600091509150505481565b6040518060400160405280600e81526020017f70726f636573733a61737369676e000000000000000000000000000000000000815250600160003373ffffffffffffffffffffffffffffffffffffffff1673ffffffffffffffffffffffffffffffffffffffff1681526020019081526020016000208160405162000efb919062002816565b908152602001604051809103902060009054906101000a900460ff168062000f6f57506000809054906101000a900473ffffffffffffffffffffffffffffffffffffffff1673ffffffffffffffffffffffffffffffffffffffff163373ffffffffffffffffffffffffffffffffffffffff16145b62000fb1576040517f08c379a000000000000000000000000000000000000000000000000000000000815260040162000fa89062002986565b60405180910390fd5b6001600281111562000fbf57fe5b6006600085815260200190815260200160002060000160009054906101000a900460ff16600281111562000fef57fe5b1462001032576040517f08c379a0000000000000000000000000000000000000000000000000000000008152600401620010299062002964565b60405180910390fd5b600660008481526020019081526020016000206003018290806001815401808255809150509060018203906000526020600020016000909192909190916101000a81548173ffffffffffffffffffffffffffffffffffffffff021916908373ffffffffffffffffffffffffffffffffffffffff16021790555050505050565b606060028054806020026020016040519081016040528092919081815260200182805480156200113757602002820191906000526020600020905b8160009054906101000a900473ffffffffffffffffffffffffffffffffffffffff1673ffffffffffffffffffffffffffffffffffffffff1681526020019060010190808311620010ec575b5050505050905090565b60606040518060400160405280600f81526020017f70726f6a6563743a72656164416c6c0000000000000000000000000000000000815250600160003373ffffffffffffffffffffffffffffffffffffffff1673ffffffffffffffffffffffffffffffffffffffff16815260200190815260200160002081604051620011c8919062002816565b908152602001604051809103902060009054906101000a900460ff16806200123c57506000809054906101000a900473ffffffffffffffffffffffffffffffffffffffff1673ffffffffffffffffffffffffffffffffffffffff163373ffffffffffffffffffffffffffffffffffffffff16145b6200127e576040517f08c379a0000000000000000000000000000000000000000000000000000000008152600401620012759062002986565b60405180910390fd5b6003805480602002602001604051908101604052809291908181526020018280548015620012cc57602002820191906000526020600020905b815481526020019060010190808311620012b7575b505050505091505090565b6000809054906101000a900473ffffffffffffffffffffffffffffffffffffffff1681565b6040518060400160405280600581526020017f61646d696e000000000000000000000000000000000000000000000000000000815250600160003373ffffffffffffffffffffffffffffffffffffffff1673ffffffffffffffffffffffffffffffffffffffff1681526020019081526020016000208160405162001381919062002816565b908152602001604051809103902060009054906101000a900460ff1680620013f557506000809054906101000a900473ffffffffffffffffffffffffffffffffffffffff1673ffffffffffffffffffffffffffffffffffffffff163373ffffffffffffffffffffffffffffffffffffffff16145b62001437576040517f08c379a00000000000000000000000000000000000000000000000000000000081526004016200142e9062002986565b60405180910390fd5b60018060008673ffffffffffffffffffffffffffffffffffffffff1673ffffffffffffffffffffffffffffffffffffffff168152602001908152602001600020848460405162001489929190620027fb565b908152602001604051809103902060006101000a81548160ff02191690831515021790555050505050565b6040518060400160405280600581526020017f61646d696e000000000000000000000000000000000000000000000000000000815250600160003373ffffffffffffffffffffffffffffffffffffffff1673ffffffffffffffffffffffffffffffffffffffff1681526020019081526020016000208160405162001539919062002816565b908152602001604051809103902060009054906101000a900460ff1680620015ad57506000809054906101000a900473ffffffffffffffffffffffffffffffffffffffff1673ffffffffffffffffffffffffffffffffffffffff163373ffffffffffffffffffffffffffffffffffffffff16145b620015ef576040517f08c379a0000000000000000000000000000000000000000000000000000000008152600401620015e69062002986565b60405180910390fd5b6000600160008673ffffffffffffffffffffffffffffffffffffffff1673ffffffffffffffffffffffffffffffffffffffff168152602001908152602001600020848460405162001642929190620027fb565b908152602001604051809103902060006101000a81548160ff02191690831515021790555050505050565b6040518060400160405280600581526020017f61646d696e000000000000000000000000000000000000000000000000000000815250600160003373ffffffffffffffffffffffffffffffffffffffff1673ffffffffffffffffffffffffffffffffffffffff16815260200190815260200160002081604051620016f2919062002816565b908152602001604051809103902060009054906101000a900460ff16806200176657506000809054906101000a900473ffffffffffffffffffffffffffffffffffffffff1673ffffffffffffffffffffffffffffffffffffffff163373ffffffffffffffffffffffffffffffffffffffff16145b620017a8576040517f08c379a00000000000000000000000000000000000000000000000000000000081526004016200179f9062002986565b60405180910390fd5b60008090505b83839050811015620018a15760018060008773ffffffffffffffffffffffffffffffffffffffff1673ffffffffffffffffffffffffffffffffffffffff1681526020019081526020016000208585848181106200180757fe5b90506020028101803560016020038336030381126200182557600080fd5b8083019250508135905060208201915067ffffffffffffffff8111156200184b57600080fd5b6001810236038213156200185e57600080fd5b6040516200186e929190620027e0565b908152602001604051809103902060006101000a81548160ff0219169083151502179055508080600101915050620017ae565b5050505050565b60606040518060400160405280600c81526020017f70726f6a6563743a726561640000000000000000000000000000000000000000815250600160003373ffffffffffffffffffffffffffffffffffffffff1673ffffffffffffffffffffffffffffffffffffffff168152602001908152602001600020816040516200192f919062002816565b908152602001604051809103902060009054906101000a900460ff1680620019a357506000809054906101000a900473ffffffffffffffffffffffffffffffffffffffff1673ffffffffffffffffffffffffffffffffffffffff163373ffffffffffffffffffffffffffffffffffffffff16145b620019e5576040517f08c379a0000000000000000000000000000000000000000000000000000000008152600401620019dc9062002986565b60405180910390fd5b600460008473ffffffffffffffffffffffffffffffffffffffff1673ffffffffffffffffffffffffffffffffffffffff16815260200190815260200160002080548060200260200160405190810160405280929190818152602001828054801562001a7057602002820191906000526020600020905b81548152602001906001019080831162001a5b575b5050505050915050919050565b6002818154811062001a8b57fe5b906000526020600020016000915054906101000a900473ffffffffffffffffffffffffffffffffffffffff1681565b6040518060400160405280601381526020017f70726f6a6563743a6368616e6765537461746500000000000000000000000000815250600160003373ffffffffffffffffffffffffffffffffffffffff1673ffffffffffffffffffffffffffffffffffffffff1681526020019081526020016000208160405162001b3f919062002816565b908152602001604051809103902060009054906101000a900460ff168062001bb357506000809054906101000a900473ffffffffffffffffffffffffffffffffffffffff1673ffffffffffffffffffffffffffffffffffffffff163373ffffffffffffffffffffffffffffffffffffffff16145b62001bf5576040517f08c379a000000000000000000000000000000000000000000000000000000000815260040162001bec9062002986565b60405180910390fd5b6001600281111562001c0357fe5b6006600084815260200190815260200160002060000160009054906101000a900460ff16600281111562001c3357fe5b1462001c76576040517f08c379a000000000000000000000000000000000000000000000000000000000815260040162001c6d9062002942565b60405180910390fd5b6001600281111562001c8457fe5b6006600084815260200190815260200160002060000160009054906101000a900460ff16600281111562001cb457fe5b141562001cfa5760026006600084815260200190815260200160002060000160006101000a81548160ff0219169083600281111562001cef57fe5b021790555062001d34565b60016006600084815260200190815260200160002060000160006101000a81548160ff0219169083600281111562001d2e57fe5b02179055505b7fbec9556bb3135b56bce7e5777e4ff2e769e11e11201683c16c952dfc026491778260405162001d659190620029ca565b60405180910390a15050565b6040518060400160405280600e81526020017f70726f636573733a637265617465000000000000000000000000000000000000815250600160003373ffffffffffffffffffffffffffffffffffffffff1673ffffffffffffffffffffffffffffffffffffffff1681526020019081526020016000208160405162001df6919062002816565b908152602001604051809103902060009054906101000a900460ff168062001e6a57506000809054906101000a900473ffffffffffffffffffffffffffffffffffffffff1673ffffffffffffffffffffffffffffffffffffffff163373ffffffffffffffffffffffffffffffffffffffff16145b62001eac576040517f08c379a000000000000000000000000000000000000000000000000000000000815260040162001ea39062002986565b60405180910390fd5b6000838360405162001ebe90620020c2565b62001ecb9291906200284c565b604051809103906000f08015801562001ee8573d6000803e3d6000fd5b509050600560008573ffffffffffffffffffffffffffffffffffffffff1673ffffffffffffffffffffffffffffffffffffffff1681526020019081526020016000208190806001815401808255809150509060018203906000526020600020016000909192909190916101000a81548173ffffffffffffffffffffffffffffffffffffffff021916908373ffffffffffffffffffffffffffffffffffffffff1602179055505060028190806001815401808255809150509060018203906000526020600020016000909192909190916101000a81548173ffffffffffffffffffffffffffffffffffffffff021916908373ffffffffffffffffffffffffffffffffffffffff160217905550507f908a1d72896b3c6e31c2e9ac8d65ae9676a54dd26195d4496442c50ff1b0b797816040516200202591906200282f565b60405180910390a150505050565b828054828255906000526020600020908101928215620020af579160200282015b82811115620020ae5782518260006101000a81548173ffffffffffffffffffffffffffffffffffffffff021916908373ffffffffffffffffffffffffffffffffffffffff1602179055509160200191906001019062002054565b5b509050620020be9190620020d0565b5090565b611b768062002b9f83390190565b6200211391905b808211156200210f57600081816101000a81549073ffffffffffffffffffffffffffffffffffffffff021916905550600101620020d7565b5090565b90565b600081359050620021278162002b50565b92915050565b60008083601f8401126200214057600080fd5b8235905067ffffffffffffffff8111156200215a57600080fd5b6020830191508360208202830111156200217357600080fd5b9250929050565b6000813590506200218b8162002b6a565b92915050565b60008083601f840112620021a457600080fd5b8235905067ffffffffffffffff811115620021be57600080fd5b602083019150836001820283011115620021d757600080fd5b9250929050565b600081359050620021ef8162002b84565b92915050565b6000602082840312156200220857600080fd5b6000620022188482850162002116565b91505092915050565b6000806000604084860312156200223757600080fd5b6000620022478682870162002116565b935050602084013567ffffffffffffffff8111156200226557600080fd5b62002273868287016200212d565b92509250509250925092565b600080604083850312156200229357600080fd5b6000620022a38582860162002116565b9250506020620022b6858286016200217a565b9150509250929050565b600080600060408486031215620022d657600080fd5b6000620022e68682870162002116565b935050602084013567ffffffffffffffff8111156200230457600080fd5b620023128682870162002191565b92509250509250925092565b600080604083850312156200233257600080fd5b6000620023428582860162002116565b92505060206200235585828601620021de565b9150509250929050565b6000602082840312156200237257600080fd5b60006200238284828501620021de565b91505092915050565b600080604083850312156200239f57600080fd5b6000620023af85828601620021de565b9250506020620023c28582860162002116565b9150509250929050565b60008060008060808587031215620023e357600080fd5b6000620023f387828801620021de565b9450506020620024068782880162002116565b935050604062002419878288016200217a565b92505060606200242c878288016200217a565b91505092959194509250565b60006200244683836200246c565b60208301905092915050565b6000620024608383620027be565b60208301905092915050565b620024778162002a80565b82525050565b620024888162002a80565b82525050565b60006200249b8262002a07565b620024a7818562002a42565b9350620024b483620029e7565b8060005b83811015620024eb578151620024cf888262002438565b9750620024dc8362002a28565b925050600181019050620024b8565b5085935050505092915050565b6000620025058262002a12565b62002511818562002a53565b93506200251e83620029f7565b8060005b838110156200255557815162002539888262002452565b9750620025468362002a35565b92505060018101905062002522565b5085935050505092915050565b6200256d8162002a94565b82525050565b6200257e8162002aa0565b82525050565b6200258f8162002ae9565b82525050565b6000620025a3838562002a75565b9350620025b283858462002afd565b82840190509392505050565b6000620025cc838562002a75565b9350620025db83858462002afd565b82840190509392505050565b6000620025f48262002a1d565b62002600818562002a75565b93506200261281856020860162002b0c565b80840191505092915050565b60006200262d602b8362002a64565b91507f50726f6a65637420646f6573206e6f74206578697374206f7220697320616c7260008301527f6561647920636c6f7365640000000000000000000000000000000000000000006020830152604082019050919050565b60006200269560238362002a64565b91507f50726f6a65637420646f6573206e6f74206578697374206f7220697320636c6f60008301527f73656400000000000000000000000000000000000000000000000000000000006020830152604082019050919050565b6000620026fd60258362002a64565b91507f53656e64657220646f6573206e6f7420686176652074686520636f727265637460008301527f20726f6c650000000000000000000000000000000000000000000000000000006020830152604082019050919050565b60006200276560218362002a64565b91507f50726f6a65637420616c72656164792063726561746564206f7220636c6f736560008301527f64000000000000000000000000000000000000000000000000000000000000006020830152604082019050919050565b620027c98162002adf565b82525050565b620027da8162002adf565b82525050565b6000620027ef828486620025be565b91508190509392505050565b60006200280a82848662002595565b91508190509392505050565b6000620028248284620025e7565b915081905092915050565b60006020820190506200284660008301846200247d565b92915050565b60006040820190506200286360008301856200247d565b62002872602083018462002573565b9392505050565b600060208201905081810360008301526200289581846200248e565b905092915050565b60006020820190508181036000830152620028b98184620024f8565b905092915050565b6000602082019050620028d8600083018462002562565b92915050565b600060a082019050620028f5600083018862002584565b6200290460208301876200247d565b62002913604083018662002573565b62002922606083018562002573565b81810360808301526200293681846200248e565b90509695505050505050565b600060208201905081810360008301526200295d816200261e565b9050919050565b600060208201905081810360008301526200297f8162002686565b9050919050565b60006020820190508181036000830152620029a181620026ee565b9050919050565b60006020820190508181036000830152620029c38162002756565b9050919050565b6000602082019050620029e16000830184620027cf565b92915050565b6000819050602082019050919050565b6000819050602082019050919050565b600081519050919050565b600081519050919050565b600081519050919050565b6000602082019050919050565b6000602082019050919050565b600082825260208201905092915050565b600082825260208201905092915050565b600082825260208201905092915050565b600081905092915050565b600062002a8d8262002abf565b9050919050565b60008115159050919050565b6000819050919050565b600081905062002aba8262002b42565b919050565b600073ffffffffffffffffffffffffffffffffffffffff82169050919050565b6000819050919050565b600062002af68262002aaa565b9050919050565b82818337600083830152505050565b60005b8381101562002b2c57808201518184015260208101905062002b0f565b8381111562002b3c576000848401525b50505050565b6003811062002b4d57fe5b50565b62002b5b8162002a80565b811462002b6757600080fd5b50565b62002b758162002aa0565b811462002b8157600080fd5b50565b62002b8f8162002adf565b811462002b9b57600080fd5b5056fe60806040523480156200001157600080fd5b5060405162001b7638038062001b76833981810160405262000037919081019062000136565b336000806101000a81548173ffffffffffffffffffffffffffffffffffffffff021916908373ffffffffffffffffffffffffffffffffffffffff16021790555033600260006101000a81548173ffffffffffffffffffffffffffffffffffffffff021916908373ffffffffffffffffffffffffffffffffffffffff1602179055508060038190555081600460006101000a81548173ffffffffffffffffffffffffffffffffffffffff021916908373ffffffffffffffffffffffffffffffffffffffff1602179055505050620001e9565b6000815190506200011981620001b5565b92915050565b6000815190506200013081620001cf565b92915050565b600080604083850312156200014a57600080fd5b60006200015a8582860162000108565b92505060206200016d858286016200011f565b9150509250929050565b6000620001848262000195565b9050919050565b6000819050919050565b600073ffffffffffffffffffffffffffffffffffffffff82169050919050565b620001c08162000177565b8114620001cc57600080fd5b50565b620001da816200018b565b8114620001e657600080fd5b50565b61197d80620001f96000396000f3fe608060405234801561001057600080fd5b50600436106100a95760003560e01c8063b7dfcbee11610071578063b7dfcbee14610180578063bb57f6131461019c578063c936919f146101b8578063cbfa3d09146101d4578063cdee934e146101f0578063fbbf93a014610220576100a9565b806337798e8e146100ae5780638a7cf0b8146100de5780638da5cb5b146101105780639fa5f50b1461012e578063b10d6b411461014c575b600080fd5b6100c860048036036100c39190810190611139565b610242565b6040516100d5919061167e565b60405180910390f35b6100f860048036036100f39190810190611191565b6102b8565b604051610107939291906116b4565b60405180910390f35b610118610382565b60405161012591906115e7565b60405180910390f35b6101366103a7565b604051610143919061165c565b60405180910390f35b61016660048036036101619190810190611191565b6103ff565b6040516101779594939291906116eb565b60405180910390f35b61019a60048036036101959190810190611139565b61061e565b005b6101b660048036036101b191908101906111ba565b6107ce565b005b6101d260048036036101cd9190810190611139565b610a9d565b005b6101ee60048036036101e991908101906110e1565b610c4e565b005b61020a600480360361020591908101906112a5565b610e7b565b6040516102179190611699565b60405180910390f35b610228610e9c565b604051610239959493929190611602565b60405180910390f35b6000600160008573ffffffffffffffffffffffffffffffffffffffff1673ffffffffffffffffffffffffffffffffffffffff16815260200190815260200160002083836040516102939291906115b7565b908152602001604051809103902060009054906101000a900460ff1690509392505050565b60008060008060066000868152602001908152602001600020600501541415610316576040517f08c379a000000000000000000000000000000000000000000000000000000000815260040161030d9061178c565b60405180910390fd5b60066000858152602001908152602001600020600301546006600086815260200190815260200160002060040160009054906101000a900460ff166006600087815260200190815260200160002060040160019054906101000a900460ff169250925092509193909250565b6000809054906101000a900473ffffffffffffffffffffffffffffffffffffffff1681565b606060058054806020026020016040519081016040528092919081815260200182805480156103f557602002820191906000526020600020905b8154815260200190600101908083116103e1575b5050505050905090565b606060008060006060600060066000888152602001908152602001600020600501541415610462576040517f08c379a00000000000000000000000000000000000000000000000000000000081526004016104599061178c565b60405180910390fd5b6006600087815260200190815260200160002060000160066000888152602001908152602001600020600101546006600089815260200190815260200160002060020154600660008a815260200190815260200160002060050154600660008b8152602001908152602001600020600601848054600181600116156101000203166002900480601f0160208091040260200160405190810160405280929190818152602001828054600181600116156101000203166002900480156105685780601f1061053d57610100808354040283529160200191610568565b820191906000526020600020905b81548152906001019060200180831161054b57829003601f168201915b50505050509450808054600181600116156101000203166002900480601f0160208091040260200160405190810160405280929190818152602001828054600181600116156101000203166002900480156106045780601f106105d957610100808354040283529160200191610604565b820191906000526020600020905b8154815290600101906020018083116105e757829003601f168201915b505050505090509450945094509450945091939590929450565b6040518060400160405280600581526020017f61646d696e000000000000000000000000000000000000000000000000000000815250600160003373ffffffffffffffffffffffffffffffffffffffff1673ffffffffffffffffffffffffffffffffffffffff168152602001908152602001600020816040516106a191906115d0565b908152602001604051809103902060009054906101000a900460ff168061071457506000809054906101000a900473ffffffffffffffffffffffffffffffffffffffff1673ffffffffffffffffffffffffffffffffffffffff163373ffffffffffffffffffffffffffffffffffffffff16145b610753576040517f08c379a000000000000000000000000000000000000000000000000000000000815260040161074a906117ac565b60405180910390fd5b60018060008673ffffffffffffffffffffffffffffffffffffffff1673ffffffffffffffffffffffffffffffffffffffff16815260200190815260200160002084846040516107a39291906115b7565b908152602001604051809103902060006101000a81548160ff02191690831515021790555050505050565b600460009054906101000a900473ffffffffffffffffffffffffffffffffffffffff1673ffffffffffffffffffffffffffffffffffffffff163373ffffffffffffffffffffffffffffffffffffffff161461085e576040517f08c379a00000000000000000000000000000000000000000000000000000000081526004016108559061174c565b60405180910390fd5b6000600660008a815260200190815260200160002060050154146108b7576040517f08c379a00000000000000000000000000000000000000000000000000000000081526004016108ae9061176c565b60405180910390fd5b6040518061010001604052808b8b8080601f016020809104026020016040519081016040528093929190818152602001838380828437600081840152601f19601f8201169050808301925050505050505081526020018581526020018481526020018681526020018860ff1681526020018760ff16815260200142815260200183838080601f016020809104026020016040519081016040528093929190818152602001838380828437600081840152601f19601f82011690508083019250505050505050815250600660008a815260200190815260200160002060008201518160000190805190602001906109ae929190610f54565b5060208201518160010155604082015181600201556060820151816003015560808201518160040160006101000a81548160ff021916908360ff16021790555060a08201518160040160016101000a81548160ff021916908360ff16021790555060c0820151816005015560e0820151816006019080519060200190610a35929190610f54565b5090505060058890806001815401808255809150509060018203906000526020600020016000909192909190915055507f0ac146a5629d2541f754db3df5197733e7c3002b8cfe1da2416abd2c9a49c28c60405160405180910390a150505050505050505050565b6040518060400160405280600581526020017f61646d696e000000000000000000000000000000000000000000000000000000815250600160003373ffffffffffffffffffffffffffffffffffffffff1673ffffffffffffffffffffffffffffffffffffffff16815260200190815260200160002081604051610b2091906115d0565b908152602001604051809103902060009054906101000a900460ff1680610b9357506000809054906101000a900473ffffffffffffffffffffffffffffffffffffffff1673ffffffffffffffffffffffffffffffffffffffff163373ffffffffffffffffffffffffffffffffffffffff16145b610bd2576040517f08c379a0000000000000000000000000000000000000000000000000000000008152600401610bc9906117ac565b60405180910390fd5b6000600160008673ffffffffffffffffffffffffffffffffffffffff1673ffffffffffffffffffffffffffffffffffffffff1681526020019081526020016000208484604051610c239291906115b7565b908152602001604051809103902060006101000a81548160ff02191690831515021790555050505050565b6040518060400160405280600581526020017f61646d696e000000000000000000000000000000000000000000000000000000815250600160003373ffffffffffffffffffffffffffffffffffffffff1673ffffffffffffffffffffffffffffffffffffffff16815260200190815260200160002081604051610cd191906115d0565b908152602001604051809103902060009054906101000a900460ff1680610d4457506000809054906101000a900473ffffffffffffffffffffffffffffffffffffffff1673ffffffffffffffffffffffffffffffffffffffff163373ffffffffffffffffffffffffffffffffffffffff16145b610d83576040517f08c379a0000000000000000000000000000000000000000000000000000000008152600401610d7a906117ac565b60405180910390fd5b60008090505b83839050811015610e745760018060008773ffffffffffffffffffffffffffffffffffffffff1673ffffffffffffffffffffffffffffffffffffffff168152602001908152602001600020858584818110610de057fe5b9050602002810180356001602003833603038112610dfd57600080fd5b8083019250508135905060208201915067ffffffffffffffff811115610e2257600080fd5b600181023603821315610e3457600080fd5b604051610e4292919061159e565b908152602001604051809103902060006101000a81548160ff0219169083151502179055508080600101915050610d89565b5050505050565b60058181548110610e8857fe5b906000526020600020016000915090505481565b600080600060606000600260009054906101000a900473ffffffffffffffffffffffffffffffffffffffff16600460009054906101000a900473ffffffffffffffffffffffffffffffffffffffff1660035460053081805480602002602001604051908101604052809291908181526020018280548015610f3c57602002820191906000526020600020905b815481526020019060010190808311610f28575b50505050509150945094509450945094509091929394565b828054600181600116156101000203166002900490600052602060002090601f016020900481019282601f10610f9557805160ff1916838001178555610fc3565b82800160010185558215610fc3579182015b82811115610fc2578251825591602001919060010190610fa7565b5b509050610fd09190610fd4565b5090565b610ff691905b80821115610ff2576000816000905550600101610fda565b5090565b90565b600081359050611008816118de565b92915050565b60008083601f84011261102057600080fd5b8235905067ffffffffffffffff81111561103957600080fd5b60208301915083602082028301111561105157600080fd5b9250929050565b600081359050611067816118f5565b92915050565b60008083601f84011261107f57600080fd5b8235905067ffffffffffffffff81111561109857600080fd5b6020830191508360018202830111156110b057600080fd5b9250929050565b6000813590506110c68161190c565b92915050565b6000813590506110db81611923565b92915050565b6000806000604084860312156110f657600080fd5b600061110486828701610ff9565b935050602084013567ffffffffffffffff81111561112157600080fd5b61112d8682870161100e565b92509250509250925092565b60008060006040848603121561114e57600080fd5b600061115c86828701610ff9565b935050602084013567ffffffffffffffff81111561117957600080fd5b6111858682870161106d565b92509250509250925092565b6000602082840312156111a357600080fd5b60006111b184828501611058565b91505092915050565b6000806000806000806000806000806101008b8d0312156111da57600080fd5b60008b013567ffffffffffffffff8111156111f457600080fd5b6112008d828e0161106d565b9a509a505060206112138d828e01611058565b98505060406112248d828e016110cc565b97505060606112358d828e016110cc565b96505060806112468d828e01611058565b95505060a06112578d828e01611058565b94505060c06112688d828e01611058565b93505060e08b013567ffffffffffffffff81111561128557600080fd5b6112918d828e0161106d565b92509250509295989b9194979a5092959850565b6000602082840312156112b757600080fd5b60006112c5848285016110b7565b91505092915050565b60006112da8383611362565b60208301905092915050565b6112ef8161182c565b82525050565b6000611300826117dc565b61130a81856117ff565b9350611315836117cc565b8060005b8381101561134657815161132d88826112ce565b9750611338836117f2565b925050600181019050611319565b5085935050505092915050565b61135c8161183e565b82525050565b61136b8161184a565b82525050565b61137a8161184a565b82525050565b600061138c8385611821565b935061139983858461188b565b82840190509392505050565b60006113b18385611821565b93506113be83858461188b565b82840190509392505050565b60006113d5826117e7565b6113df8185611810565b93506113ef81856020860161189a565b6113f8816118cd565b840191505092915050565b600061140e826117e7565b6114188185611821565b935061142881856020860161189a565b80840191505092915050565b6000611441602183611810565b91507f53656e646572206973206e6f7420737570706c696572206f662070726f6a656360008301527f74000000000000000000000000000000000000000000000000000000000000006020830152604082019050919050565b60006114a7601883611810565b91507f446f63756d656e7420616c7265616479206372656174656400000000000000006000830152602082019050919050565b60006114e7601783611810565b91507f446f63756d656e7420646f6573206e6f742065786973740000000000000000006000830152602082019050919050565b6000611527602583611810565b91507f53656e64657220646f6573206e6f7420686176652074686520636f727265637460008301527f20726f6c650000000000000000000000000000000000000000000000000000006020830152604082019050919050565b61158981611874565b82525050565b6115988161187e565b82525050565b60006115ab8284866113a5565b91508190509392505050565b60006115c4828486611380565b91508190509392505050565b60006115dc8284611403565b915081905092915050565b60006020820190506115fc60008301846112e6565b92915050565b600060a08201905061161760008301886112e6565b61162460208301876112e6565b6116316040830186611371565b818103606083015261164381856112f5565b905061165260808301846112e6565b9695505050505050565b6000602082019050818103600083015261167681846112f5565b905092915050565b60006020820190506116936000830184611353565b92915050565b60006020820190506116ae6000830184611371565b92915050565b60006060820190506116c96000830186611371565b6116d6602083018561158f565b6116e3604083018461158f565b949350505050565b600060a082019050818103600083015261170581886113ca565b90506117146020830187611371565b6117216040830186611371565b61172e6060830185611580565b818103608083015261174081846113ca565b90509695505050505050565b6000602082019050818103600083015261176581611434565b9050919050565b600060208201905081810360008301526117858161149a565b9050919050565b600060208201905081810360008301526117a5816114da565b9050919050565b600060208201905081810360008301526117c58161151a565b9050919050565b6000819050602082019050919050565b600081519050919050565b600081519050919050565b6000602082019050919050565b600082825260208201905092915050565b600082825260208201905092915050565b600081905092915050565b600061183782611854565b9050919050565b60008115159050919050565b6000819050919050565b600073ffffffffffffffffffffffffffffffffffffffff82169050919050565b6000819050919050565b600060ff82169050919050565b82818337600083830152505050565b60005b838110156118b857808201518184015260208101905061189d565b838111156118c7576000848401525b50505050565b6000601f19601f8301169050919050565b6118e78161182c565b81146118f257600080fd5b50565b6118fe8161184a565b811461190957600080fd5b50565b61191581611874565b811461192057600080fd5b50565b61192c8161187e565b811461193757600080fd5b5056fea365627a7a7231582032c9f26990dbda462849400610389a17a472a102844484ab24893c4d12b38ebc6c6578706572696d656e74616cf564736f6c63430005100040a365627a7a72315820c3d816fb79f22cdc94bb3693e82e1d01d26f891192d437dd3180a595c82164576c6578706572696d656e74616cf564736f6c63430005100040",
  "source": "pragma solidity ^0.5.0;\npragma experimental ABIEncoderV2;\n\nimport './RoleBasedAcl.sol';\nimport './Process.sol';\n\n\ncontract NuclearPoE is RoleBasedAcl {\n    enum State {Null, Created, Closed}\n\n    struct Project {\n        State status;\n        address clientAddress;\n        bytes32 title;\n        bytes32 oc;\n        address[] processContracts;\n    }\n\n    address[] public processContractsArray;\n    uint256[] public projectsArray;\n\n    mapping(address => uint256[]) public projectsByAddress;\n    mapping(address => address[]) public processesByAddress;\n    mapping(uint256 => Project) private project;\n\n    event CreateProject();\n    event CreateProcess(address ProcessContractAddress);\n    event CloseProject(uint256 id);\n\n    function createProject(\n        uint256 _id,\n        address _clientAddress,\n        bytes32 title,\n        bytes32 oc\n    ) external hasRole('project:create') {\n        require(\n            project[_id].status == State.Null,\n            'Project already created or closed'\n        );\n\n        address[] memory processContracts = new address[](0);\n        project[_id] = Project(\n            State.Created,\n            _clientAddress,\n            title,\n            oc,\n            processContracts\n        );\n        projectsByAddress[_clientAddress].push(_id);\n        projectsArray.push(_id);\n\n        emit CreateProject();\n    }\n\n    function createProcess(address _supplierAddress, bytes32 _processName)\n        external\n        hasRole('process:create')\n    {\n        address ProcessContractAddress = address(\n            new Process(_supplierAddress, _processName)\n        );\n        processesByAddress[_supplierAddress].push(ProcessContractAddress);\n        processContractsArray.push(ProcessContractAddress);\n\n        emit CreateProcess(ProcessContractAddress);\n    }\n\n    function addProcessToProject(uint256 _id, address _processContract)\n        external\n        hasRole('process:assign')\n    {\n        require(\n            project[_id].status == State.Created,\n            'Project does not exist or is closed'\n        );\n\n        project[_id].processContracts.push(_processContract);\n    }\n\n    function changeProjectStatus(uint256 _id)\n        external\n        hasRole('project:changeState')\n    {\n        require(\n            project[_id].status == State.Created,\n            'Project does not exist or is already closed'\n        );\n\n        if (project[_id].status == State.Created)\n            project[_id].status = State.Closed;\n        else project[_id].status = State.Created;\n\n        emit CloseProject(_id);\n    }\n\n    function getAllProcessContracts() external view returns (address[] memory) {\n        return processContractsArray;\n    }\n\n    function getProcessContractsByProject(uint256 _id)\n        external\n        view\n        returns (address[] memory)\n    {\n        return project[_id].processContracts;\n    }\n\n    function getAllProjects()\n        external\n        view\n        hasRole('project:readAll')\n        returns (uint256[] memory)\n    {\n        return projectsArray;\n    }\n\n    function getProcessesByAddress(address _address)\n        external\n        view\n        hasRole('process:read')\n        returns (address[] memory)\n    {\n        return (processesByAddress[_address]);\n    }\n\n    function getProjectsByAddress(address _address)\n        external\n        view\n        hasRole('project:read')\n        returns (uint256[] memory)\n    {\n        return (projectsByAddress[_address]);\n    }\n\n    function getProjectDetails(uint256 _id)\n        external\n        view\n        hasRole('project:read')\n        returns (State, address, bytes32, bytes32, address[] memory)\n    {\n        return (\n            project[_id].status,\n            project[_id].clientAddress,\n            project[_id].title,\n            project[_id].oc,\n            project[_id].processContracts\n        );\n    }\n}\n",
  "sourcePath": "/Users/sebastinez/Documents/GitHub/work/Nuclearis-PoE/contracts/NuclearPoE.sol",
  "compiler": {
    "name": "solc",
    "version": "0.5.16+commit.9c3226ce.Emscripten.clang"
  },
  "schemaVersion": "3.0.23",
  "updatedAt": "2020-05-14T11:32:03.450Z",
  "devdoc": {
    "methods": {}
  },
  "userdoc": {
    "methods": {}
  }
}