{
  "contractName": "NuclearPoE",
  "abi": [
    {
      "constant": true,
      "inputs": [
        {
          "name": "",
          "type": "uint256"
        }
      ],
      "name": "projectContract",
      "outputs": [
        {
          "name": "",
          "type": "address"
        }
      ],
      "payable": false,
      "stateMutability": "view",
      "type": "function",
      "signature": "0x3789a580"
    },
    {
      "constant": true,
      "inputs": [
        {
          "name": "",
          "type": "uint256"
        }
      ],
      "name": "userArray",
      "outputs": [
        {
          "name": "",
          "type": "address"
        }
      ],
      "payable": false,
      "stateMutability": "view",
      "type": "function",
      "signature": "0x41209af1"
    },
    {
      "constant": false,
      "inputs": [],
      "name": "renounceOwnership",
      "outputs": [],
      "payable": false,
      "stateMutability": "nonpayable",
      "type": "function",
      "signature": "0x715018a6"
    },
    {
      "constant": true,
      "inputs": [
        {
          "name": "",
          "type": "address"
        }
      ],
      "name": "user",
      "outputs": [
        {
          "name": "name",
          "type": "bytes32"
        },
        {
          "name": "created",
          "type": "bool"
        }
      ],
      "payable": false,
      "stateMutability": "view",
      "type": "function",
      "signature": "0x81e7e20e"
    },
    {
      "constant": true,
      "inputs": [],
      "name": "owner",
      "outputs": [
        {
          "name": "",
          "type": "address"
        }
      ],
      "payable": false,
      "stateMutability": "view",
      "type": "function",
      "signature": "0x8da5cb5b"
    },
    {
      "constant": true,
      "inputs": [],
      "name": "isOwner",
      "outputs": [
        {
          "name": "",
          "type": "bool"
        }
      ],
      "payable": false,
      "stateMutability": "view",
      "type": "function",
      "signature": "0x8f32d59b"
    },
    {
      "constant": true,
      "inputs": [
        {
          "name": "",
          "type": "uint256"
        }
      ],
      "name": "projectContractsArray",
      "outputs": [
        {
          "name": "",
          "type": "address"
        }
      ],
      "payable": false,
      "stateMutability": "view",
      "type": "function",
      "signature": "0xa88b25d4"
    },
    {
      "constant": true,
      "inputs": [
        {
          "name": "",
          "type": "address"
        },
        {
          "name": "",
          "type": "uint256"
        }
      ],
      "name": "userProjectContracts",
      "outputs": [
        {
          "name": "",
          "type": "address"
        }
      ],
      "payable": false,
      "stateMutability": "view",
      "type": "function",
      "signature": "0xc1792d05"
    },
    {
      "constant": false,
      "inputs": [
        {
          "name": "newOwner",
          "type": "address"
        }
      ],
      "name": "transferOwnership",
      "outputs": [],
      "payable": false,
      "stateMutability": "nonpayable",
      "type": "function",
      "signature": "0xf2fde38b"
    },
    {
      "anonymous": false,
      "inputs": [
        {
          "indexed": false,
          "name": "newProjectContractAddress",
          "type": "address"
        }
      ],
      "name": "CreateProject",
      "type": "event",
      "signature": "0xbb703aa7f8a7bebc43ea190212c9ab3aeb3ea9de189188823994f06acd262fa3"
    },
    {
      "anonymous": false,
      "inputs": [],
      "name": "CreateUser",
      "type": "event",
      "signature": "0xdf39eb8e1857414a3a40d5964987610c5f80d0d28a16f33fa749ac85d9051666"
    },
    {
      "anonymous": false,
      "inputs": [
        {
          "indexed": true,
          "name": "previousOwner",
          "type": "address"
        },
        {
          "indexed": true,
          "name": "newOwner",
          "type": "address"
        }
      ],
      "name": "OwnershipTransferred",
      "type": "event",
      "signature": "0x8be0079c531659141344cd1fd0a4f28419497f9722a3daafe3b4186f6b6457e0"
    },
    {
      "constant": false,
      "inputs": [
        {
          "name": "_expediente",
          "type": "uint256"
        },
        {
          "name": "_projectTitle",
          "type": "bytes32"
        },
        {
          "name": "_userAddress",
          "type": "address"
        },
        {
          "name": "_oc",
          "type": "bytes32"
        }
      ],
      "name": "createProject",
      "outputs": [],
      "payable": false,
      "stateMutability": "nonpayable",
      "type": "function",
      "signature": "0xb2054996"
    },
    {
      "constant": false,
      "inputs": [
        {
          "name": "_userAddress",
          "type": "address"
        },
        {
          "name": "_userName",
          "type": "bytes32"
        }
      ],
      "name": "createUser",
      "outputs": [],
      "payable": false,
      "stateMutability": "nonpayable",
      "type": "function",
      "signature": "0x141fb940"
    },
    {
      "constant": false,
      "inputs": [
        {
          "name": "_supplierAddress",
          "type": "address"
        },
        {
          "name": "_projectAddress",
          "type": "address"
        }
      ],
      "name": "addSupplierToProject",
      "outputs": [],
      "payable": false,
      "stateMutability": "nonpayable",
      "type": "function",
      "signature": "0x898b659f"
    },
    {
      "constant": true,
      "inputs": [],
      "name": "getAllProjectContract",
      "outputs": [
        {
          "name": "",
          "type": "address[]"
        }
      ],
      "payable": false,
      "stateMutability": "view",
      "type": "function",
      "signature": "0x95349cce"
    },
    {
      "constant": true,
      "inputs": [],
      "name": "getAllUsers",
      "outputs": [
        {
          "name": "",
          "type": "address[]"
        }
      ],
      "payable": false,
      "stateMutability": "view",
      "type": "function",
      "signature": "0xe2842d79"
    },
    {
      "constant": true,
      "inputs": [
        {
          "name": "_address",
          "type": "address"
        }
      ],
      "name": "getUserDetails",
      "outputs": [
        {
          "name": "",
          "type": "bytes32"
        },
        {
          "name": "",
          "type": "address[]"
        }
      ],
      "payable": false,
      "stateMutability": "view",
      "type": "function",
      "signature": "0xcc3d967b"
    }
  ],
  "bytecode": "0x6080604052600061001d6100c0640100000000026401000000009004565b9050806000806101000a81548173ffffffffffffffffffffffffffffffffffffffff021916908373ffffffffffffffffffffffffffffffffffffffff1602179055508073ffffffffffffffffffffffffffffffffffffffff16600073ffffffffffffffffffffffffffffffffffffffff167f8be0079c531659141344cd1fd0a4f28419497f9722a3daafe3b4186f6b6457e060405160405180910390a3506100c8565b600033905090565b612ee9806100d76000396000f3fe6080604052600436106100db576000357c0100000000000000000000000000000000000000000000000000000000900463ffffffff168063141fb940146100e05780633789a5801461013b57806341209af1146101b6578063715018a61461023157806381e7e20e14610248578063898b659f146102b85780638da5cb5b146103295780638f32d59b1461038057806395349cce146103af578063a88b25d41461041b578063b205499614610496578063c1792d0514610505578063cc3d967b146105a0578063e2842d791461064d578063f2fde38b146106b9575b600080fd5b3480156100ec57600080fd5b506101396004803603604081101561010357600080fd5b81019080803573ffffffffffffffffffffffffffffffffffffffff1690602001909291908035906020019092919050505061070a565b005b34801561014757600080fd5b506101746004803603602081101561015e57600080fd5b810190808035906020019092919050505061096b565b604051808273ffffffffffffffffffffffffffffffffffffffff1673ffffffffffffffffffffffffffffffffffffffff16815260200191505060405180910390f35b3480156101c257600080fd5b506101ef600480360360208110156101d957600080fd5b810190808035906020019092919050505061099e565b604051808273ffffffffffffffffffffffffffffffffffffffff1673ffffffffffffffffffffffffffffffffffffffff16815260200191505060405180910390f35b34801561023d57600080fd5b506102466109dc565b005b34801561025457600080fd5b506102976004803603602081101561026b57600080fd5b81019080803573ffffffffffffffffffffffffffffffffffffffff169060200190929190505050610b17565b60405180838152602001821515151581526020019250505060405180910390f35b3480156102c457600080fd5b50610327600480360360408110156102db57600080fd5b81019080803573ffffffffffffffffffffffffffffffffffffffff169060200190929190803573ffffffffffffffffffffffffffffffffffffffff169060200190929190505050610b48565b005b34801561033557600080fd5b5061033e610d85565b604051808273ffffffffffffffffffffffffffffffffffffffff1673ffffffffffffffffffffffffffffffffffffffff16815260200191505060405180910390f35b34801561038c57600080fd5b50610395610dae565b604051808215151515815260200191505060405180910390f35b3480156103bb57600080fd5b506103c4610e0c565b6040518080602001828103825283818151815260200191508051906020019060200280838360005b838110156104075780820151818401526020810190506103ec565b505050509050019250505060405180910390f35b34801561042757600080fd5b506104546004803603602081101561043e57600080fd5b8101908080359060200190929190505050610e9a565b604051808273ffffffffffffffffffffffffffffffffffffffff1673ffffffffffffffffffffffffffffffffffffffff16815260200191505060405180910390f35b3480156104a257600080fd5b50610503600480360360808110156104b957600080fd5b810190808035906020019092919080359060200190929190803573ffffffffffffffffffffffffffffffffffffffff16906020019092919080359060200190929190505050610ed8565b005b34801561051157600080fd5b5061055e6004803603604081101561052857600080fd5b81019080803573ffffffffffffffffffffffffffffffffffffffff16906020019092919080359060200190929190505050611367565b604051808273ffffffffffffffffffffffffffffffffffffffff1673ffffffffffffffffffffffffffffffffffffffff16815260200191505060405180910390f35b3480156105ac57600080fd5b506105ef600480360360208110156105c357600080fd5b81019080803573ffffffffffffffffffffffffffffffffffffffff1690602001909291905050506113b4565b6040518083815260200180602001828103825283818151815260200191508051906020019060200280838360005b8381101561063857808201518184015260208101905061061d565b50505050905001935050505060405180910390f35b34801561065957600080fd5b506106626114cb565b6040518080602001828103825283818151815260200191508051906020019060200280838360005b838110156106a557808201518184015260208101905061068a565b505050509050019250505060405180910390f35b3480156106c557600080fd5b50610708600480360360208110156106dc57600080fd5b81019080803573ffffffffffffffffffffffffffffffffffffffff169060200190929190505050611559565b005b610712610dae565b1515610786576040517f08c379a00000000000000000000000000000000000000000000000000000000081526004018080602001828103825260208152602001807f4f776e61626c653a2063616c6c6572206973206e6f7420746865206f776e657281525060200191505060405180910390fd5b60001515600560008473ffffffffffffffffffffffffffffffffffffffff1673ffffffffffffffffffffffffffffffffffffffff16815260200190815260200160002060010160009054906101000a900460ff161515141515610851576040517f08c379a00000000000000000000000000000000000000000000000000000000081526004018080602001828103825260148152602001807f5573657220616c7265616479206372656174656400000000000000000000000081525060200191505060405180910390fd5b604080519081016040528082815260200160011515815250600560008473ffffffffffffffffffffffffffffffffffffffff1673ffffffffffffffffffffffffffffffffffffffff1681526020019081526020016000206000820151816000015560208201518160010160006101000a81548160ff02191690831515021790555090505060028290806001815401808255809150509060018203906000526020600020016000909192909190916101000a81548173ffffffffffffffffffffffffffffffffffffffff021916908373ffffffffffffffffffffffffffffffffffffffff160217905550507fdf39eb8e1857414a3a40d5964987610c5f80d0d28a16f33fa749ac85d905166660405160405180910390a15050565b60036020528060005260406000206000915054906101000a900473ffffffffffffffffffffffffffffffffffffffff1681565b6002818154811015156109ad57fe5b906000526020600020016000915054906101000a900473ffffffffffffffffffffffffffffffffffffffff1681565b6109e4610dae565b1515610a58576040517f08c379a00000000000000000000000000000000000000000000000000000000081526004018080602001828103825260208152602001807f4f776e61626c653a2063616c6c6572206973206e6f7420746865206f776e657281525060200191505060405180910390fd5b600073ffffffffffffffffffffffffffffffffffffffff166000809054906101000a900473ffffffffffffffffffffffffffffffffffffffff1673ffffffffffffffffffffffffffffffffffffffff167f8be0079c531659141344cd1fd0a4f28419497f9722a3daafe3b4186f6b6457e060405160405180910390a360008060006101000a81548173ffffffffffffffffffffffffffffffffffffffff021916908373ffffffffffffffffffffffffffffffffffffffff160217905550565b60056020528060005260406000206000915090508060000154908060010160009054906101000a900460ff16905082565b808073ffffffffffffffffffffffffffffffffffffffff163373ffffffffffffffffffffffffffffffffffffffff16141515610c12576040517f08c379a00000000000000000000000000000000000000000000000000000000081526004018080602001828103825260218152602001807f53656e6465722068617320746f2062652070726f6a65637420436f6e7472616381526020017f740000000000000000000000000000000000000000000000000000000000000081525060400191505060405180910390fd5b60011515600560008573ffffffffffffffffffffffffffffffffffffffff1673ffffffffffffffffffffffffffffffffffffffff16815260200190815260200160002060010160009054906101000a900460ff161515141515610cdd576040517f08c379a00000000000000000000000000000000000000000000000000000000081526004018080602001828103825260138152602001807f5573657220646f6573206e6f742065786973740000000000000000000000000081525060200191505060405180910390fd5b600460008473ffffffffffffffffffffffffffffffffffffffff1673ffffffffffffffffffffffffffffffffffffffff1681526020019081526020016000208290806001815401808255809150509060018203906000526020600020016000909192909190916101000a81548173ffffffffffffffffffffffffffffffffffffffff021916908373ffffffffffffffffffffffffffffffffffffffff16021790555050505050565b60008060009054906101000a900473ffffffffffffffffffffffffffffffffffffffff16905090565b60008060009054906101000a900473ffffffffffffffffffffffffffffffffffffffff1673ffffffffffffffffffffffffffffffffffffffff16610df06115e1565b73ffffffffffffffffffffffffffffffffffffffff1614905090565b60606001805480602002602001604051908101604052809291908181526020018280548015610e9057602002820191906000526020600020905b8160009054906101000a900473ffffffffffffffffffffffffffffffffffffffff1673ffffffffffffffffffffffffffffffffffffffff1681526020019060010190808311610e46575b5050505050905090565b600181815481101515610ea957fe5b906000526020600020016000915054906101000a900473ffffffffffffffffffffffffffffffffffffffff1681565b610ee0610dae565b1515610f54576040517f08c379a00000000000000000000000000000000000000000000000000000000081526004018080602001828103825260208152602001807f4f776e61626c653a2063616c6c6572206973206e6f7420746865206f776e657281525060200191505060405180910390fd5b600073ffffffffffffffffffffffffffffffffffffffff166003600086815260200190815260200160002060009054906101000a900473ffffffffffffffffffffffffffffffffffffffff1673ffffffffffffffffffffffffffffffffffffffff1614151561102b576040517f08c379a00000000000000000000000000000000000000000000000000000000081526004018080602001828103825260178152602001807f50726f6a65637420616c7265616479206372656174656400000000000000000081525060200191505060405180910390fd5b60011515600560008473ffffffffffffffffffffffffffffffffffffffff1673ffffffffffffffffffffffffffffffffffffffff16815260200190815260200160002060010160009054906101000a900460ff1615151415156110f6576040517f08c379a00000000000000000000000000000000000000000000000000000000081526004018080602001828103825260138152602001807f5573657220646f6573206e6f742065786973740000000000000000000000000081525060200191505060405180910390fd5b60008484843385611105611772565b808681526020018581526020018473ffffffffffffffffffffffffffffffffffffffff1673ffffffffffffffffffffffffffffffffffffffff1681526020018373ffffffffffffffffffffffffffffffffffffffff1673ffffffffffffffffffffffffffffffffffffffff16815260200182815260200195505050505050604051809103906000f08015801561119f573d6000803e3d6000fd5b509050806003600087815260200190815260200160002060006101000a81548173ffffffffffffffffffffffffffffffffffffffff021916908373ffffffffffffffffffffffffffffffffffffffff16021790555060018190806001815401808255809150509060018203906000526020600020016000909192909190916101000a81548173ffffffffffffffffffffffffffffffffffffffff021916908373ffffffffffffffffffffffffffffffffffffffff16021790555050600460008473ffffffffffffffffffffffffffffffffffffffff1673ffffffffffffffffffffffffffffffffffffffff1681526020019081526020016000208190806001815401808255809150509060018203906000526020600020016000909192909190916101000a81548173ffffffffffffffffffffffffffffffffffffffff021916908373ffffffffffffffffffffffffffffffffffffffff160217905550507fbb703aa7f8a7bebc43ea190212c9ab3aeb3ea9de189188823994f06acd262fa381604051808273ffffffffffffffffffffffffffffffffffffffff1673ffffffffffffffffffffffffffffffffffffffff16815260200191505060405180910390a15050505050565b60046020528160005260406000208181548110151561138257fe5b906000526020600020016000915091509054906101000a900473ffffffffffffffffffffffffffffffffffffffff1681565b60006060600560008473ffffffffffffffffffffffffffffffffffffffff1673ffffffffffffffffffffffffffffffffffffffff16815260200190815260200160002060000154600460008573ffffffffffffffffffffffffffffffffffffffff1673ffffffffffffffffffffffffffffffffffffffff168152602001908152602001600020808054806020026020016040519081016040528092919081815260200182805480156114bb57602002820191906000526020600020905b8160009054906101000a900473ffffffffffffffffffffffffffffffffffffffff1673ffffffffffffffffffffffffffffffffffffffff1681526020019060010190808311611471575b5050505050905091509150915091565b6060600280548060200260200160405190810160405280929190818152602001828054801561154f57602002820191906000526020600020905b8160009054906101000a900473ffffffffffffffffffffffffffffffffffffffff1673ffffffffffffffffffffffffffffffffffffffff1681526020019060010190808311611505575b5050505050905090565b611561610dae565b15156115d5576040517f08c379a00000000000000000000000000000000000000000000000000000000081526004018080602001828103825260208152602001807f4f776e61626c653a2063616c6c6572206973206e6f7420746865206f776e657281525060200191505060405180910390fd5b6115de816115e9565b50565b600033905090565b600073ffffffffffffffffffffffffffffffffffffffff168173ffffffffffffffffffffffffffffffffffffffff16141515156116b4576040517f08c379a00000000000000000000000000000000000000000000000000000000081526004018080602001828103825260268152602001807f4f776e61626c653a206e6577206f776e657220697320746865207a65726f206181526020017f646472657373000000000000000000000000000000000000000000000000000081525060400191505060405180910390fd5b8073ffffffffffffffffffffffffffffffffffffffff166000809054906101000a900473ffffffffffffffffffffffffffffffffffffffff1673ffffffffffffffffffffffffffffffffffffffff167f8be0079c531659141344cd1fd0a4f28419497f9722a3daafe3b4186f6b6457e060405160405180910390a3806000806101000a81548173ffffffffffffffffffffffffffffffffffffffff021916908373ffffffffffffffffffffffffffffffffffffffff16021790555050565b60405161173b806117838339019056fe608060405234801561001057600080fd5b5060405160a08061173b833981018060405260a081101561003057600080fd5b8101908080519060200190929190805190602001909291908051906020019092919080519060200190929190805190602001909291905050508460008190555083600481905550826001806101000a81548173ffffffffffffffffffffffffffffffffffffffff021916908373ffffffffffffffffffffffffffffffffffffffff16021790555033600260006101000a81548173ffffffffffffffffffffffffffffffffffffffff021916908373ffffffffffffffffffffffffffffffffffffffff16021790555081600360006101000a81548173ffffffffffffffffffffffffffffffffffffffff021916908373ffffffffffffffffffffffffffffffffffffffff1602179055508060058190555050505050506115e7806101546000396000f3fe6080604052600436106100a4576000357c0100000000000000000000000000000000000000000000000000000000900463ffffffff168063290127cd146100a957806339571d6e146101155780637569b1841461024f5780637643d731146102aa578063b4e830f114610325578063cdee934e1461033c578063d52520151461038b578063d98c10bc1461044d578063e7f497f0146104b9578063f6c47d2914610566575b600080fd5b3480156100b557600080fd5b506100be610600565b6040518080602001828103825283818151815260200191508051906020019060200280838360005b838110156101015780820151818401526020810190506100e6565b505050509050019250505060405180910390f35b34801561012157600080fd5b5061012a61068e565b604051808981526020018873ffffffffffffffffffffffffffffffffffffffff1673ffffffffffffffffffffffffffffffffffffffff1681526020018781526020018681526020018515151515815260200180602001806020018473ffffffffffffffffffffffffffffffffffffffff1673ffffffffffffffffffffffffffffffffffffffff168152602001838103835286818151815260200191508051906020019060200280838360005b838110156101f15780820151818401526020810190506101d6565b50505050905001838103825285818151815260200191508051906020019060200280838360005b83811015610233578082015181840152602081019050610218565b505050509050019a505050505050505050505060405180910390f35b34801561025b57600080fd5b506102a86004803603604081101561027257600080fd5b81019080803573ffffffffffffffffffffffffffffffffffffffff169060200190929190803590602001909291905050506107cf565b005b3480156102b657600080fd5b506102e3600480360360208110156102cd57600080fd5b8101908080359060200190929190505050610c5b565b604051808273ffffffffffffffffffffffffffffffffffffffff1673ffffffffffffffffffffffffffffffffffffffff16815260200191505060405180910390f35b34801561033157600080fd5b5061033a610c99565b005b34801561034857600080fd5b506103756004803603602081101561035f57600080fd5b8101908080359060200190929190505050610e56565b6040518082815260200191505060405180910390f35b34801561039757600080fd5b506103c4600480360360208110156103ae57600080fd5b8101908080359060200190929190505050610e79565b6040518084815260200183815260200180602001828103825283818151815260200191508051906020019080838360005b838110156104105780820151818401526020810190506103f5565b50505050905090810190601f16801561043d5780820380516001836020036101000a031916815260200191505b5094505050505060405180910390f35b34801561045957600080fd5b50610462610ffa565b6040518080602001828103825283818151815260200191508051906020019060200280838360005b838110156104a557808201518184015260208101905061048a565b505050509050019250505060405180910390f35b3480156104c557600080fd5b50610508600480360360208110156104dc57600080fd5b81019080803573ffffffffffffffffffffffffffffffffffffffff169060200190929190505050611052565b6040518083815260200180602001828103825283818151815260200191508051906020019060200280838360005b83811015610551578082015181840152602081019050610536565b50505050905001935050505060405180910390f35b34801561057257600080fd5b506105fe6004803603606081101561058957600080fd5b810190808035906020019092919080359060200190929190803590602001906401000000008111156105ba57600080fd5b8201836020820111156105cc57600080fd5b803590602001918460018302840111640100000000831117156105ee57600080fd5b9091929391929390505050611136565b005b6060600680548060200260200160405190810160405280929190818152602001828054801561068457602002820191906000526020600020905b8160009054906101000a900473ffffffffffffffffffffffffffffffffffffffff1673ffffffffffffffffffffffffffffffffffffffff168152602001906001019080831161063a575b5050505050905090565b600080600080600060608060006004546001809054906101000a900473ffffffffffffffffffffffffffffffffffffffff16600054600554600160009054906101000a900460ff1660076006308280548060200260200160405190810160405280929190818152602001828054801561072657602002820191906000526020600020905b815481526020019060010190808311610712575b50505050509250818054806020026020016040519081016040528092919081815260200182805480156107ae57602002820191906000526020600020905b8160009054906101000a900473ffffffffffffffffffffffffffffffffffffffff1673ffffffffffffffffffffffffffffffffffffffff1681526020019060010190808311610764575b50505050509150975097509750975097509750975097509091929394959697565b600360009054906101000a900473ffffffffffffffffffffffffffffffffffffffff1673ffffffffffffffffffffffffffffffffffffffff163373ffffffffffffffffffffffffffffffffffffffff16141515610894576040517f08c379a000000000000000000000000000000000000000000000000000000000815260040180806020018281038252601f8152602001807f48617320746f206265204d6174657269616c204f7267616e697a6174696f6e0081525060200191505060405180910390fd5b6000600102600a60008473ffffffffffffffffffffffffffffffffffffffff1673ffffffffffffffffffffffffffffffffffffffff16815260200190815260200160002060000154141515610951576040517f08c379a00000000000000000000000000000000000000000000000000000000081526004018080602001828103825260178152602001807f50726f6365737320616c7265616479206372656174656400000000000000000081525060200191505060405180910390fd5b60001515600160009054906101000a900460ff161515141515610a02576040517f08c379a00000000000000000000000000000000000000000000000000000000081526004018080602001828103825260258152602001807f50726f6a65637420697320616c726561647920617070726f766564206279206381526020017f6c69656e7400000000000000000000000000000000000000000000000000000081525060400191505060405180910390fd5b6000600260009054906101000a900473ffffffffffffffffffffffffffffffffffffffff1690508073ffffffffffffffffffffffffffffffffffffffff1663898b659f84306040518363ffffffff167c0100000000000000000000000000000000000000000000000000000000028152600401808373ffffffffffffffffffffffffffffffffffffffff1673ffffffffffffffffffffffffffffffffffffffff1681526020018273ffffffffffffffffffffffffffffffffffffffff1673ffffffffffffffffffffffffffffffffffffffff16815260200192505050600060405180830381600087803b158015610af857600080fd5b505af1158015610b0c573d6000803e3d6000fd5b5050505060606000604051908082528060200260200182016040528015610b425781602001602082028038833980820191505090505b50905060068490806001815401808255809150509060018203906000526020600020016000909192909190916101000a81548173ffffffffffffffffffffffffffffffffffffffff021916908373ffffffffffffffffffffffffffffffffffffffff16021790555050604080519081016040528084815260200182815250600a60008673ffffffffffffffffffffffffffffffffffffffff1673ffffffffffffffffffffffffffffffffffffffff168152602001908152602001600020600082015181600001556020820151816001019080519060200190610c259291906114a4565b509050507f0346a5dd0e6acde7619febdd0d7f470611f6f002fb8cee5f164a3ab74854ec5b60405160405180910390a150505050565b600681815481101515610c6a57fe5b906000526020600020016000915054906101000a900473ffffffffffffffffffffffffffffffffffffffff1681565b6001809054906101000a900473ffffffffffffffffffffffffffffffffffffffff1673ffffffffffffffffffffffffffffffffffffffff163373ffffffffffffffffffffffffffffffffffffffff16141515610d83576040517f08c379a00000000000000000000000000000000000000000000000000000000081526004018080602001828103825260378152602001807f4f6e6c7920636c69656e7473206f6620746869732070726f6a6563742063616e81526020017f207265616c697a652074686973206f7065726174696f6e00000000000000000081525060400191505060405180910390fd5b60001515600160009054906101000a900460ff161515141515610e0e576040517f08c379a00000000000000000000000000000000000000000000000000000000081526004018080602001828103825260188152602001807f50726f6a65637420616c726561647920617070726f766564000000000000000081525060200191505060405180910390fd5b60018060006101000a81548160ff0219169083151502179055507fe69f676c299b333dca8f06fbbad2158afb93499d1eaf331570780e6afc33889a60405160405180910390a1565b600781815481101515610e6557fe5b906000526020600020016000915090505481565b60008060606000600960008681526020019081526020016000206002015414151515610f0d576040517f08c379a00000000000000000000000000000000000000000000000000000000081526004018080602001828103825260178152602001807f446f63756d656e7420646f6573206e6f7420657869737400000000000000000081525060200191505060405180910390fd5b6009600085815260200190815260200160002060020154600960008681526020019081526020016000206000015460096000878152602001908152602001600020600101808054600181600116156101000203166002900480601f016020809104026020016040519081016040528092919081815260200182805460018160011615610100020316600290048015610fe65780601f10610fbb57610100808354040283529160200191610fe6565b820191906000526020600020905b815481529060010190602001808311610fc957829003601f168201915b505050505090509250925092509193909250565b6060600780548060200260200160405190810160405280929190818152602001828054801561104857602002820191906000526020600020905b815481526020019060010190808311611034575b5050505050905090565b60006060600a60008473ffffffffffffffffffffffffffffffffffffffff1673ffffffffffffffffffffffffffffffffffffffff16815260200190815260200160002060000154600a60008573ffffffffffffffffffffffffffffffffffffffff1673ffffffffffffffffffffffffffffffffffffffff1681526020019081526020016000206001018080548060200260200160405190810160405280929190818152602001828054801561112657602002820191906000526020600020905b815481526020019060010190808311611112575b5050505050905091509150915091565b6000600102600a60003373ffffffffffffffffffffffffffffffffffffffff1673ffffffffffffffffffffffffffffffffffffffff16815260200190815260200160002060000154141515156111f4576040517f08c379a000000000000000000000000000000000000000000000000000000000815260040180806020018281038252601d8152602001807f48617320746f20626520737570706c696572206f662070726f6a65637400000081525060200191505060405180910390fd5b60011515600160009054906101000a900460ff1615151415156112a5576040517f08c379a00000000000000000000000000000000000000000000000000000000081526004018080602001828103825260218152602001807f50726f6a656374206973206e6f7420617070726f76656420627920636c69656e81526020017f740000000000000000000000000000000000000000000000000000000000000081525060400191505060405180910390fd5b60006009600086815260200190815260200160002060020154141515611333576040517f08c379a00000000000000000000000000000000000000000000000000000000081526004018080602001828103825260188152602001807f446f63756d656e7420616c72656164792063726561746564000000000000000081525060200191505060405180910390fd5b60606040519081016040528084815260200183838080601f016020809104026020016040519081016040528093929190818152602001838380828437600081840152601f19601f82011690508083019250505050505050815260200142815250600960008681526020019081526020016000206000820151816000015560208201518160010190805190602001906113cc9291906114f1565b50604082015181600201559050506007849080600181540180825580915050906001820390600052602060002001600090919290919091505550600a60003373ffffffffffffffffffffffffffffffffffffffff1673ffffffffffffffffffffffffffffffffffffffff1681526020019081526020016000206001018490806001815401808255809150509060018203906000526020600020016000909192909190915055507f0ac146a5629d2541f754db3df5197733e7c3002b8cfe1da2416abd2c9a49c28c60405160405180910390a150505050565b8280548282559060005260206000209081019282156114e0579160200282015b828111156114df5782518255916020019190600101906114c4565b5b5090506114ed9190611571565b5090565b828054600181600116156101000203166002900490600052602060002090601f016020900481019282601f1061153257805160ff1916838001178555611560565b82800160010185558215611560579182015b8281111561155f578251825591602001919060010190611544565b5b50905061156d9190611596565b5090565b61159391905b8082111561158f576000816000905550600101611577565b5090565b90565b6115b891905b808211156115b457600081600090555060010161159c565b5090565b9056fea165627a7a7230582045e4823ed8d84312a6b2a73442dcf16f62ada9a1ba090a6d69bc56029558b67a0029a165627a7a723058201fbdc9f5b25f8e43da886d8de9d0af3e3005d4990c05b570adeb0a84cb7826e90029",
  "source": "pragma solidity >=0.5.0 <0.7.0;\r\n\r\nimport \"./Ownable.sol\";\r\nimport \"./Project.sol\";\r\n\r\ncontract NuclearPoE is Ownable {\r\n\r\n    struct User {\r\n        bytes32 name;\r\n        bool created;\r\n    }\r\n\r\n    address[] public projectContractsArray;\r\n    address[] public userArray;\r\n\r\n    mapping(uint => address) public projectContract;\r\n    mapping(address => address[]) public userProjectContracts;\r\n    mapping(address => User) public user;\r\n\r\n    modifier onlyProjectContract(address _projectAddress) {\r\n        require(msg.sender == _projectAddress, \"Sender has to be project Contract\");\r\n    _;\r\n    }\r\n\r\n    event CreateProject(address newProjectContractAddress);\r\n    event CreateUser();\r\n\r\n    function createProject(uint _expediente, bytes32 _projectTitle, address _userAddress, bytes32 _oc) external onlyOwner() {\r\n        require(projectContract[_expediente] == address(0), \"Project already created\");\r\n        require(user[_userAddress].created == true, \"User does not exist\");\r\n\r\n        address ProjectContractAddress = address(new Project(_expediente, _projectTitle, _userAddress, msg.sender, _oc));\r\n        projectContract[_expediente] = ProjectContractAddress;\r\n        projectContractsArray.push(ProjectContractAddress);\r\n\r\n        userProjectContracts[_userAddress].push(ProjectContractAddress);\r\n\r\n        emit CreateProject(ProjectContractAddress);\r\n    }\r\n\r\n    function createUser(address _userAddress, bytes32 _userName) external onlyOwner() {\r\n        require(user[_userAddress].created == false, \"User already created\");\r\n\r\n        user[_userAddress] = User(_userName, true);\r\n        userArray.push(_userAddress);\r\n\r\n        emit CreateUser();\r\n    }\r\n\r\n    function addSupplierToProject(address _supplierAddress, address _projectAddress) external onlyProjectContract(_projectAddress) {\r\n        require(user[_supplierAddress].created == true, \"User does not exist\");\r\n\r\n        userProjectContracts[_supplierAddress].push(_projectAddress);\r\n    }\r\n\r\n    function getAllProjectContract() external view returns(address[] memory) {\r\n        return projectContractsArray;\r\n    }\r\n\r\n    function getAllUsers() external view returns(address[] memory) {\r\n        return userArray;\r\n    }\r\n\r\n    function getUserDetails(address _address) external view returns(bytes32, address[] memory) {\r\n        return (user[_address].name, userProjectContracts[_address]);\r\n    }\r\n\r\n}",
  "sourcePath": "C:\\Users\\smartinez.nuclearis\\Documents\\GitHub\\NUCLEARIS-Material-Organization\\contracts\\NuclearPoE.sol",
  "compiler": {
    "name": "solc",
    "version": "0.5.0+commit.1d4f565a.Emscripten.clang"
  },
  "schemaVersion": "3.0.5",
  "updatedAt": "2019-10-22T13:40:58.998Z",
  "devdoc": {
    "methods": {
      "isOwner()": {
        "details": "Returns true if the caller is the current owner.\r"
      },
      "owner()": {
        "details": "Returns the address of the current owner.\r"
      },
      "renounceOwnership()": {
        "details": "Leaves the contract without owner. It will not be possible to call\r `onlyOwner` functions anymore. Can only be called by the current owner.\r      * NOTE: Renouncing ownership will leave the contract without an owner,\r thereby removing any functionality that is only available to the owner.\r"
      },
      "transferOwnership(address)": {
        "details": "Transfers ownership of the contract to a new account (`newOwner`).\r Can only be called by the current owner.\r"
      }
    }
  },
  "userdoc": {
    "methods": {}
  }
}