{
  "contractName": "NuclearPoE",
  "abi": [
    {
      "anonymous": false,
      "inputs": [
        {
          "indexed": false,
          "internalType": "uint256",
          "name": "id",
          "type": "uint256"
        }
      ],
      "name": "CloseProject",
      "type": "event"
    },
    {
      "anonymous": false,
      "inputs": [
        {
          "indexed": false,
          "internalType": "address",
          "name": "ProcessContractAddress",
          "type": "address"
        }
      ],
      "name": "CreateProcess",
      "type": "event"
    },
    {
      "anonymous": false,
      "inputs": [],
      "name": "CreateProject",
      "type": "event"
    },
    {
      "constant": false,
      "inputs": [
        {
          "internalType": "address",
          "name": "entity",
          "type": "address"
        },
        {
          "internalType": "string[]",
          "name": "role",
          "type": "string[]"
        }
      ],
      "name": "assignMultipleRoles",
      "outputs": [],
      "payable": false,
      "stateMutability": "nonpayable",
      "type": "function"
    },
    {
      "constant": false,
      "inputs": [
        {
          "internalType": "address",
          "name": "entity",
          "type": "address"
        },
        {
          "internalType": "string",
          "name": "role",
          "type": "string"
        }
      ],
      "name": "assignRole",
      "outputs": [],
      "payable": false,
      "stateMutability": "nonpayable",
      "type": "function"
    },
    {
      "constant": true,
      "inputs": [],
      "name": "docNumber",
      "outputs": [
        {
          "internalType": "uint256",
          "name": "",
          "type": "uint256"
        }
      ],
      "payable": false,
      "stateMutability": "view",
      "type": "function"
    },
    {
      "constant": true,
      "inputs": [
        {
          "internalType": "address",
          "name": "entity",
          "type": "address"
        },
        {
          "internalType": "string",
          "name": "role",
          "type": "string"
        }
      ],
      "name": "isAssignedRole",
      "outputs": [
        {
          "internalType": "bool",
          "name": "",
          "type": "bool"
        }
      ],
      "payable": false,
      "stateMutability": "view",
      "type": "function"
    },
    {
      "constant": true,
      "inputs": [],
      "name": "owner",
      "outputs": [
        {
          "internalType": "address",
          "name": "",
          "type": "address"
        }
      ],
      "payable": false,
      "stateMutability": "view",
      "type": "function"
    },
    {
      "constant": true,
      "inputs": [
        {
          "internalType": "uint256",
          "name": "",
          "type": "uint256"
        }
      ],
      "name": "processContractsArray",
      "outputs": [
        {
          "internalType": "address",
          "name": "",
          "type": "address"
        }
      ],
      "payable": false,
      "stateMutability": "view",
      "type": "function"
    },
    {
      "constant": true,
      "inputs": [
        {
          "internalType": "address",
          "name": "",
          "type": "address"
        },
        {
          "internalType": "uint256",
          "name": "",
          "type": "uint256"
        }
      ],
      "name": "processesByAddress",
      "outputs": [
        {
          "internalType": "address",
          "name": "",
          "type": "address"
        }
      ],
      "payable": false,
      "stateMutability": "view",
      "type": "function"
    },
    {
      "constant": true,
      "inputs": [
        {
          "internalType": "uint256",
          "name": "",
          "type": "uint256"
        }
      ],
      "name": "projectsArray",
      "outputs": [
        {
          "internalType": "uint256",
          "name": "",
          "type": "uint256"
        }
      ],
      "payable": false,
      "stateMutability": "view",
      "type": "function"
    },
    {
      "constant": true,
      "inputs": [
        {
          "internalType": "address",
          "name": "",
          "type": "address"
        },
        {
          "internalType": "uint256",
          "name": "",
          "type": "uint256"
        }
      ],
      "name": "projectsByAddress",
      "outputs": [
        {
          "internalType": "uint256",
          "name": "",
          "type": "uint256"
        }
      ],
      "payable": false,
      "stateMutability": "view",
      "type": "function"
    },
    {
      "constant": false,
      "inputs": [
        {
          "internalType": "address",
          "name": "entity",
          "type": "address"
        },
        {
          "internalType": "string",
          "name": "role",
          "type": "string"
        }
      ],
      "name": "unassignRole",
      "outputs": [],
      "payable": false,
      "stateMutability": "nonpayable",
      "type": "function"
    },
    {
      "constant": false,
      "inputs": [
        {
          "internalType": "uint256",
          "name": "_id",
          "type": "uint256"
        },
        {
          "internalType": "address",
          "name": "_clientAddress",
          "type": "address"
        },
        {
          "internalType": "bytes32",
          "name": "title",
          "type": "bytes32"
        },
        {
          "internalType": "bytes32",
          "name": "oc",
          "type": "bytes32"
        }
      ],
      "name": "createProject",
      "outputs": [],
      "payable": false,
      "stateMutability": "nonpayable",
      "type": "function"
    },
    {
      "constant": false,
      "inputs": [
        {
          "internalType": "address",
          "name": "_supplierAddress",
          "type": "address"
        },
        {
          "internalType": "bytes32",
          "name": "_processName",
          "type": "bytes32"
        }
      ],
      "name": "createProcess",
      "outputs": [],
      "payable": false,
      "stateMutability": "nonpayable",
      "type": "function"
    },
    {
      "constant": false,
      "inputs": [
        {
          "internalType": "uint256",
          "name": "_id",
          "type": "uint256"
        },
        {
          "internalType": "address",
          "name": "_processContract",
          "type": "address"
        }
      ],
      "name": "addProcessToProject",
      "outputs": [],
      "payable": false,
      "stateMutability": "nonpayable",
      "type": "function"
    },
    {
      "constant": false,
      "inputs": [
        {
          "internalType": "uint256",
          "name": "_id",
          "type": "uint256"
        }
      ],
      "name": "changeProjectStatus",
      "outputs": [],
      "payable": false,
      "stateMutability": "nonpayable",
      "type": "function"
    },
    {
      "constant": false,
      "inputs": [
        {
          "internalType": "address",
          "name": "_processAddress",
          "type": "address"
        }
      ],
      "name": "incrementDocNumber",
      "outputs": [
        {
          "internalType": "uint256",
          "name": "",
          "type": "uint256"
        }
      ],
      "payable": false,
      "stateMutability": "nonpayable",
      "type": "function"
    },
    {
      "constant": true,
      "inputs": [],
      "name": "getAllProcessContracts",
      "outputs": [
        {
          "internalType": "address[]",
          "name": "",
          "type": "address[]"
        }
      ],
      "payable": false,
      "stateMutability": "view",
      "type": "function"
    },
    {
      "constant": true,
      "inputs": [
        {
          "internalType": "uint256",
          "name": "_id",
          "type": "uint256"
        }
      ],
      "name": "getProcessContractsByProject",
      "outputs": [
        {
          "internalType": "address[]",
          "name": "",
          "type": "address[]"
        }
      ],
      "payable": false,
      "stateMutability": "view",
      "type": "function"
    },
    {
      "constant": true,
      "inputs": [],
      "name": "getAllProjects",
      "outputs": [
        {
          "internalType": "uint256[]",
          "name": "",
          "type": "uint256[]"
        }
      ],
      "payable": false,
      "stateMutability": "view",
      "type": "function"
    },
    {
      "constant": true,
      "inputs": [
        {
          "internalType": "address",
          "name": "_address",
          "type": "address"
        }
      ],
      "name": "getProcessesByAddress",
      "outputs": [
        {
          "internalType": "address[]",
          "name": "",
          "type": "address[]"
        }
      ],
      "payable": false,
      "stateMutability": "view",
      "type": "function"
    },
    {
      "constant": true,
      "inputs": [
        {
          "internalType": "address",
          "name": "_address",
          "type": "address"
        }
      ],
      "name": "getProjectsByAddress",
      "outputs": [
        {
          "internalType": "uint256[]",
          "name": "",
          "type": "uint256[]"
        }
      ],
      "payable": false,
      "stateMutability": "view",
      "type": "function"
    },
    {
      "constant": true,
      "inputs": [
        {
          "internalType": "uint256",
          "name": "_id",
          "type": "uint256"
        }
      ],
      "name": "getProjectDetails",
      "outputs": [
        {
          "internalType": "enum NuclearPoE.State",
          "name": "",
          "type": "uint8"
        },
        {
          "internalType": "address",
          "name": "",
          "type": "address"
        },
        {
          "internalType": "bytes32",
          "name": "",
          "type": "bytes32"
        },
        {
          "internalType": "bytes32",
          "name": "",
          "type": "bytes32"
        },
        {
          "internalType": "address[]",
          "name": "",
          "type": "address[]"
        }
      ],
      "payable": false,
      "stateMutability": "view",
      "type": "function"
    }
  ],
  "bytecode": "0x60806040526000600255336000806101000a81548173ffffffffffffffffffffffffffffffffffffffff021916908373ffffffffffffffffffffffffffffffffffffffff160217905550614e34806100586000396000f3fe60806040523480156200001157600080fd5b5060043610620001545760003560e01c806375cae8c011620000c9578063c936919f1162000087578063c936919f14620003f5578063cbfa3d091462000415578063d5842c8b1462000435578063e6c39930146200046b578063f136229a14620004a1578063fb4e2c7914620004c15762000154565b806375cae8c0146200033957806380d03829146200035b57806381e19490146200037d5780638da5cb5b14620003b3578063b7dfcbee14620003d55762000154565b80635f8439e311620001175780635f8439e3146200025357806364b785fa146200028d57806366c3e86114620002c35780636ccdd74614620002e357806373f04d7f14620003195762000154565b806309b0466b14620001595780631c35c53f146200017b57806337798e8e14620001b15780634cb7a7ba14620001e75780635c6db281146200021d575b600080fd5b62000163620004e1565b60405162000172919062002b5b565b60405180910390f35b620001996004803603620001939190810190620022fc565b620004e7565b604051620001a89190620029e8565b60405180910390f35b620001cf6004803603620001c99190810190620023c7565b620006f2565b604051620001de919062002a30565b60405180910390f35b620002056004803603620001ff919081019062002425565b6200076a565b6040516200021491906200299e565b60405180910390f35b6200023b600480360362000235919081019062002466565b620007b6565b6040516200024a9190620029e8565b60405180910390f35b6200027160048036036200026b919081019062002466565b6200085c565b6040516200028495949392919062002a4d565b60405180910390f35b620002ab6004803603620002a5919081019062002466565b62000adc565b604051620002ba919062002b5b565b60405180910390f35b620002e16004803603620002db9190810190620024d3565b62000afe565b005b620003016004803603620002fb919081019062002425565b62000ebd565b60405162000310919062002b5b565b60405180910390f35b62000337600480360362000331919081019062002492565b62000eec565b005b6200034362001127565b604051620003529190620029e8565b60405180910390f35b62000365620011b7565b60405162000374919062002a0c565b60405180910390f35b6200039b6004803603620003959190810190620022fc565b6200134d565b604051620003aa919062002b5b565b60405180910390f35b620003bd620013de565b604051620003cc91906200299e565b60405180910390f35b620003f36004803603620003ed9190810190620023c7565b62001403565b005b6200041360048036036200040d9190810190620023c7565b620015bb565b005b6200043360048036036200042d919081019062002328565b62001774565b005b6200045360048036036200044d9190810190620022fc565b620019af565b60405162000462919062002a0c565b60405180910390f35b62000489600480360362000483919081019062002466565b62001b84565b6040516200049891906200299e565b60405180910390f35b620004bf6004803603620004b9919081019062002466565b62001bc1565b005b620004df6004803603620004d9919081019062002386565b62001e78565b005b60025481565b60606040518060400160405280600c81526020017f70726f636573733a726561640000000000000000000000000000000000000000815250600160003373ffffffffffffffffffffffffffffffffffffffff1673ffffffffffffffffffffffffffffffffffffffff168152602001908152602001600020816040516200056e919062002985565b908152602001604051809103902060009054906101000a900460ff1680620005e257506000809054906101000a900473ffffffffffffffffffffffffffffffffffffffff1673ffffffffffffffffffffffffffffffffffffffff163373ffffffffffffffffffffffffffffffffffffffff16145b62000624576040517f08c379a00000000000000000000000000000000000000000000000000000000081526004016200061b9062002b17565b60405180910390fd5b600660008473ffffffffffffffffffffffffffffffffffffffff1673ffffffffffffffffffffffffffffffffffffffff168152602001908152602001600020805480602002602001604051908101604052809291908181526020018280548015620006e557602002820191906000526020600020905b8160009054906101000a900473ffffffffffffffffffffffffffffffffffffffff1673ffffffffffffffffffffffffffffffffffffffff16815260200190600101908083116200069a575b5050505050915050919050565b6000600160008573ffffffffffffffffffffffffffffffffffffffff1673ffffffffffffffffffffffffffffffffffffffff1681526020019081526020016000208383604051620007459291906200296a565b908152602001604051809103902060009054906101000a900460ff1690509392505050565b600660205281600052604060002081815481106200078457fe5b906000526020600020016000915091509054906101000a900473ffffffffffffffffffffffffffffffffffffffff1681565b6060600760008381526020019081526020016000206003018054806020026020016040519081016040528092919081815260200182805480156200085057602002820191906000526020600020905b8160009054906101000a900473ffffffffffffffffffffffffffffffffffffffff1673ffffffffffffffffffffffffffffffffffffffff168152602001906001019080831162000805575b50505050509050919050565b60008060008060606040518060400160405280600c81526020017f70726f6a6563743a726561640000000000000000000000000000000000000000815250600160003373ffffffffffffffffffffffffffffffffffffffff1673ffffffffffffffffffffffffffffffffffffffff16815260200190815260200160002081604051620008e9919062002985565b908152602001604051809103902060009054906101000a900460ff16806200095d57506000809054906101000a900473ffffffffffffffffffffffffffffffffffffffff1673ffffffffffffffffffffffffffffffffffffffff163373ffffffffffffffffffffffffffffffffffffffff16145b6200099f576040517f08c379a0000000000000000000000000000000000000000000000000000000008152600401620009969062002b17565b60405180910390fd5b6007600088815260200190815260200160002060000160009054906101000a900460ff166007600089815260200190815260200160002060000160019054906101000a900473ffffffffffffffffffffffffffffffffffffffff16600760008a815260200190815260200160002060010154600760008b815260200190815260200160002060020154600760008c81526020019081526020016000206003018080548060200260200160405190810160405280929190818152602001828054801562000ac157602002820191906000526020600020905b8160009054906101000a900473ffffffffffffffffffffffffffffffffffffffff1673ffffffffffffffffffffffffffffffffffffffff168152602001906001019080831162000a76575b50505050509050955095509550955095505091939590929450565b6004818154811062000aea57fe5b906000526020600020016000915090505481565b6040518060400160405280600e81526020017f70726f6a6563743a637265617465000000000000000000000000000000000000815250600160003373ffffffffffffffffffffffffffffffffffffffff1673ffffffffffffffffffffffffffffffffffffffff1681526020019081526020016000208160405162000b83919062002985565b908152602001604051809103902060009054906101000a900460ff168062000bf757506000809054906101000a900473ffffffffffffffffffffffffffffffffffffffff1673ffffffffffffffffffffffffffffffffffffffff163373ffffffffffffffffffffffffffffffffffffffff16145b62000c39576040517f08c379a000000000000000000000000000000000000000000000000000000000815260040162000c309062002b17565b60405180910390fd5b6000600281111562000c4757fe5b6007600087815260200190815260200160002060000160009054906101000a900460ff16600281111562000c7757fe5b1462000cba576040517f08c379a000000000000000000000000000000000000000000000000000000000815260040162000cb19062002b39565b60405180910390fd5b6060600060405190808252806020026020018201604052801562000ced5781602001602082028038833980820191505090505b5090506040518060a001604052806001600281111562000d0957fe5b81526020018673ffffffffffffffffffffffffffffffffffffffff168152602001858152602001848152602001828152506007600088815260200190815260200160002060008201518160000160006101000a81548160ff0219169083600281111562000d7257fe5b021790555060208201518160000160016101000a81548173ffffffffffffffffffffffffffffffffffffffff021916908373ffffffffffffffffffffffffffffffffffffffff1602179055506040820151816001015560608201518160020155608082015181600301908051906020019062000df09291906200213a565b50905050600560008673ffffffffffffffffffffffffffffffffffffffff1673ffffffffffffffffffffffffffffffffffffffff16815260200190815260200160002086908060018154018082558091505090600182039060005260206000200160009091929091909150555060048690806001815401808255809150509060018203906000526020600020016000909192909190915055507fbab479b5b86675be7215930d13339d95c3af3099f28b31caf6cac1c3a08c3da760405160405180910390a1505050505050565b6005602052816000526040600020818154811062000ed757fe5b90600052602060002001600091509150505481565b6040518060400160405280600e81526020017f70726f636573733a61737369676e000000000000000000000000000000000000815250600160003373ffffffffffffffffffffffffffffffffffffffff1673ffffffffffffffffffffffffffffffffffffffff1681526020019081526020016000208160405162000f71919062002985565b908152602001604051809103902060009054906101000a900460ff168062000fe557506000809054906101000a900473ffffffffffffffffffffffffffffffffffffffff1673ffffffffffffffffffffffffffffffffffffffff163373ffffffffffffffffffffffffffffffffffffffff16145b62001027576040517f08c379a00000000000000000000000000000000000000000000000000000000081526004016200101e9062002b17565b60405180910390fd5b600160028111156200103557fe5b6007600085815260200190815260200160002060000160009054906101000a900460ff1660028111156200106557fe5b14620010a8576040517f08c379a00000000000000000000000000000000000000000000000000000000081526004016200109f9062002af5565b60405180910390fd5b600760008481526020019081526020016000206003018290806001815401808255809150509060018203906000526020600020016000909192909190916101000a81548173ffffffffffffffffffffffffffffffffffffffff021916908373ffffffffffffffffffffffffffffffffffffffff16021790555050505050565b60606003805480602002602001604051908101604052809291908181526020018280548015620011ad57602002820191906000526020600020905b8160009054906101000a900473ffffffffffffffffffffffffffffffffffffffff1673ffffffffffffffffffffffffffffffffffffffff168152602001906001019080831162001162575b5050505050905090565b60606040518060400160405280600f81526020017f70726f6a6563743a72656164416c6c0000000000000000000000000000000000815250600160003373ffffffffffffffffffffffffffffffffffffffff1673ffffffffffffffffffffffffffffffffffffffff168152602001908152602001600020816040516200123e919062002985565b908152602001604051809103902060009054906101000a900460ff1680620012b257506000809054906101000a900473ffffffffffffffffffffffffffffffffffffffff1673ffffffffffffffffffffffffffffffffffffffff163373ffffffffffffffffffffffffffffffffffffffff16145b620012f4576040517f08c379a0000000000000000000000000000000000000000000000000000000008152600401620012eb9062002b17565b60405180910390fd5b60048054806020026020016040519081016040528092919081815260200182805480156200134257602002820191906000526020600020905b8154815260200190600101908083116200132d575b505050505091505090565b6000818073ffffffffffffffffffffffffffffffffffffffff163373ffffffffffffffffffffffffffffffffffffffff1614620013c1576040517f08c379a0000000000000000000000000000000000000000000000000000000008152600401620013b89062002ab1565b60405180910390fd5b600260008154809291906001019190505550600254915050919050565b6000809054906101000a900473ffffffffffffffffffffffffffffffffffffffff1681565b6040518060400160405280600581526020017f61646d696e000000000000000000000000000000000000000000000000000000815250600160003373ffffffffffffffffffffffffffffffffffffffff1673ffffffffffffffffffffffffffffffffffffffff1681526020019081526020016000208160405162001488919062002985565b908152602001604051809103902060009054906101000a900460ff1680620014fc57506000809054906101000a900473ffffffffffffffffffffffffffffffffffffffff1673ffffffffffffffffffffffffffffffffffffffff163373ffffffffffffffffffffffffffffffffffffffff16145b6200153e576040517f08c379a0000000000000000000000000000000000000000000000000000000008152600401620015359062002b17565b60405180910390fd5b60018060008673ffffffffffffffffffffffffffffffffffffffff1673ffffffffffffffffffffffffffffffffffffffff1681526020019081526020016000208484604051620015909291906200296a565b908152602001604051809103902060006101000a81548160ff02191690831515021790555050505050565b6040518060400160405280600581526020017f61646d696e000000000000000000000000000000000000000000000000000000815250600160003373ffffffffffffffffffffffffffffffffffffffff1673ffffffffffffffffffffffffffffffffffffffff1681526020019081526020016000208160405162001640919062002985565b908152602001604051809103902060009054906101000a900460ff1680620016b457506000809054906101000a900473ffffffffffffffffffffffffffffffffffffffff1673ffffffffffffffffffffffffffffffffffffffff163373ffffffffffffffffffffffffffffffffffffffff16145b620016f6576040517f08c379a0000000000000000000000000000000000000000000000000000000008152600401620016ed9062002b17565b60405180910390fd5b6000600160008673ffffffffffffffffffffffffffffffffffffffff1673ffffffffffffffffffffffffffffffffffffffff1681526020019081526020016000208484604051620017499291906200296a565b908152602001604051809103902060006101000a81548160ff02191690831515021790555050505050565b6040518060400160405280600581526020017f61646d696e000000000000000000000000000000000000000000000000000000815250600160003373ffffffffffffffffffffffffffffffffffffffff1673ffffffffffffffffffffffffffffffffffffffff16815260200190815260200160002081604051620017f9919062002985565b908152602001604051809103902060009054906101000a900460ff16806200186d57506000809054906101000a900473ffffffffffffffffffffffffffffffffffffffff1673ffffffffffffffffffffffffffffffffffffffff163373ffffffffffffffffffffffffffffffffffffffff16145b620018af576040517f08c379a0000000000000000000000000000000000000000000000000000000008152600401620018a69062002b17565b60405180910390fd5b60008090505b83839050811015620019a85760018060008773ffffffffffffffffffffffffffffffffffffffff1673ffffffffffffffffffffffffffffffffffffffff1681526020019081526020016000208585848181106200190e57fe5b90506020028101803560016020038336030381126200192c57600080fd5b8083019250508135905060208201915067ffffffffffffffff8111156200195257600080fd5b6001810236038213156200196557600080fd5b604051620019759291906200294f565b908152602001604051809103902060006101000a81548160ff0219169083151502179055508080600101915050620018b5565b5050505050565b60606040518060400160405280600c81526020017f70726f6a6563743a726561640000000000000000000000000000000000000000815250600160003373ffffffffffffffffffffffffffffffffffffffff1673ffffffffffffffffffffffffffffffffffffffff1681526020019081526020016000208160405162001a36919062002985565b908152602001604051809103902060009054906101000a900460ff168062001aaa57506000809054906101000a900473ffffffffffffffffffffffffffffffffffffffff1673ffffffffffffffffffffffffffffffffffffffff163373ffffffffffffffffffffffffffffffffffffffff16145b62001aec576040517f08c379a000000000000000000000000000000000000000000000000000000000815260040162001ae39062002b17565b60405180910390fd5b600560008473ffffffffffffffffffffffffffffffffffffffff1673ffffffffffffffffffffffffffffffffffffffff16815260200190815260200160002080548060200260200160405190810160405280929190818152602001828054801562001b7757602002820191906000526020600020905b81548152602001906001019080831162001b62575b5050505050915050919050565b6003818154811062001b9257fe5b906000526020600020016000915054906101000a900473ffffffffffffffffffffffffffffffffffffffff1681565b6040518060400160405280601381526020017f70726f6a6563743a6368616e6765537461746500000000000000000000000000815250600160003373ffffffffffffffffffffffffffffffffffffffff1673ffffffffffffffffffffffffffffffffffffffff1681526020019081526020016000208160405162001c46919062002985565b908152602001604051809103902060009054906101000a900460ff168062001cba57506000809054906101000a900473ffffffffffffffffffffffffffffffffffffffff1673ffffffffffffffffffffffffffffffffffffffff163373ffffffffffffffffffffffffffffffffffffffff16145b62001cfc576040517f08c379a000000000000000000000000000000000000000000000000000000000815260040162001cf39062002b17565b60405180910390fd5b6001600281111562001d0a57fe5b6007600084815260200190815260200160002060000160009054906101000a900460ff16600281111562001d3a57fe5b1462001d7d576040517f08c379a000000000000000000000000000000000000000000000000000000000815260040162001d749062002ad3565b60405180910390fd5b6001600281111562001d8b57fe5b6007600084815260200190815260200160002060000160009054906101000a900460ff16600281111562001dbb57fe5b141562001e015760026007600084815260200190815260200160002060000160006101000a81548160ff0219169083600281111562001df657fe5b021790555062001e3b565b60016007600084815260200190815260200160002060000160006101000a81548160ff0219169083600281111562001e3557fe5b02179055505b7fbec9556bb3135b56bce7e5777e4ff2e769e11e11201683c16c952dfc026491778260405162001e6c919062002b5b565b60405180910390a15050565b6040518060400160405280600e81526020017f70726f636573733a637265617465000000000000000000000000000000000000815250600160003373ffffffffffffffffffffffffffffffffffffffff1673ffffffffffffffffffffffffffffffffffffffff1681526020019081526020016000208160405162001efd919062002985565b908152602001604051809103902060009054906101000a900460ff168062001f7157506000809054906101000a900473ffffffffffffffffffffffffffffffffffffffff1673ffffffffffffffffffffffffffffffffffffffff163373ffffffffffffffffffffffffffffffffffffffff16145b62001fb3576040517f08c379a000000000000000000000000000000000000000000000000000000000815260040162001faa9062002b17565b60405180910390fd5b6000838360405162001fc590620021c9565b62001fd2929190620029bb565b604051809103906000f08015801562001fef573d6000803e3d6000fd5b509050600660008573ffffffffffffffffffffffffffffffffffffffff1673ffffffffffffffffffffffffffffffffffffffff1681526020019081526020016000208190806001815401808255809150509060018203906000526020600020016000909192909190916101000a81548173ffffffffffffffffffffffffffffffffffffffff021916908373ffffffffffffffffffffffffffffffffffffffff1602179055505060038190806001815401808255809150509060018203906000526020600020016000909192909190916101000a81548173ffffffffffffffffffffffffffffffffffffffff021916908373ffffffffffffffffffffffffffffffffffffffff160217905550507f908a1d72896b3c6e31c2e9ac8d65ae9676a54dd26195d4496442c50ff1b0b797816040516200212c91906200299e565b60405180910390a150505050565b828054828255906000526020600020908101928215620021b6579160200282015b82811115620021b55782518260006101000a81548173ffffffffffffffffffffffffffffffffffffffff021916908373ffffffffffffffffffffffffffffffffffffffff160217905550916020019190600101906200215b565b5b509050620021c59190620021d7565b5090565b6120c28062002d3083390190565b6200221a91905b808211156200221657600081816101000a81549073ffffffffffffffffffffffffffffffffffffffff021916905550600101620021de565b5090565b90565b6000813590506200222e8162002ce1565b92915050565b60008083601f8401126200224757600080fd5b8235905067ffffffffffffffff8111156200226157600080fd5b6020830191508360208202830111156200227a57600080fd5b9250929050565b600081359050620022928162002cfb565b92915050565b60008083601f840112620022ab57600080fd5b8235905067ffffffffffffffff811115620022c557600080fd5b602083019150836001820283011115620022de57600080fd5b9250929050565b600081359050620022f68162002d15565b92915050565b6000602082840312156200230f57600080fd5b60006200231f848285016200221d565b91505092915050565b6000806000604084860312156200233e57600080fd5b60006200234e868287016200221d565b935050602084013567ffffffffffffffff8111156200236c57600080fd5b6200237a8682870162002234565b92509250509250925092565b600080604083850312156200239a57600080fd5b6000620023aa858286016200221d565b9250506020620023bd8582860162002281565b9150509250929050565b600080600060408486031215620023dd57600080fd5b6000620023ed868287016200221d565b935050602084013567ffffffffffffffff8111156200240b57600080fd5b620024198682870162002298565b92509250509250925092565b600080604083850312156200243957600080fd5b600062002449858286016200221d565b92505060206200245c85828601620022e5565b9150509250929050565b6000602082840312156200247957600080fd5b60006200248984828501620022e5565b91505092915050565b60008060408385031215620024a657600080fd5b6000620024b685828601620022e5565b9250506020620024c9858286016200221d565b9150509250929050565b60008060008060808587031215620024ea57600080fd5b6000620024fa87828801620022e5565b94505060206200250d878288016200221d565b9350506040620025208782880162002281565b9250506060620025338782880162002281565b91505092959194509250565b60006200254d838362002573565b60208301905092915050565b60006200256783836200292d565b60208301905092915050565b6200257e8162002c11565b82525050565b6200258f8162002c11565b82525050565b6000620025a28262002b98565b620025ae818562002bd3565b9350620025bb8362002b78565b8060005b83811015620025f2578151620025d688826200253f565b9750620025e38362002bb9565b925050600181019050620025bf565b5085935050505092915050565b60006200260c8262002ba3565b62002618818562002be4565b9350620026258362002b88565b8060005b838110156200265c57815162002640888262002559565b97506200264d8362002bc6565b92505060018101905062002629565b5085935050505092915050565b620026748162002c25565b82525050565b620026858162002c31565b82525050565b620026968162002c7a565b82525050565b6000620026aa838562002c06565b9350620026b983858462002c8e565b82840190509392505050565b6000620026d3838562002c06565b9350620026e283858462002c8e565b82840190509392505050565b6000620026fb8262002bae565b62002707818562002c06565b93506200271981856020860162002c9d565b80840191505092915050565b60006200273460218362002bf5565b91507f53656e6465722068617320746f2062652070726f6a65637420436f6e7472616360008301527f74000000000000000000000000000000000000000000000000000000000000006020830152604082019050919050565b60006200279c602b8362002bf5565b91507f50726f6a65637420646f6573206e6f74206578697374206f7220697320616c7260008301527f6561647920636c6f7365640000000000000000000000000000000000000000006020830152604082019050919050565b60006200280460238362002bf5565b91507f50726f6a65637420646f6573206e6f74206578697374206f7220697320636c6f60008301527f73656400000000000000000000000000000000000000000000000000000000006020830152604082019050919050565b60006200286c60258362002bf5565b91507f53656e64657220646f6573206e6f7420686176652074686520636f727265637460008301527f20726f6c650000000000000000000000000000000000000000000000000000006020830152604082019050919050565b6000620028d460218362002bf5565b91507f50726f6a65637420616c72656164792063726561746564206f7220636c6f736560008301527f64000000000000000000000000000000000000000000000000000000000000006020830152604082019050919050565b620029388162002c70565b82525050565b620029498162002c70565b82525050565b60006200295e828486620026c5565b91508190509392505050565b6000620029798284866200269c565b91508190509392505050565b6000620029938284620026ee565b915081905092915050565b6000602082019050620029b5600083018462002584565b92915050565b6000604082019050620029d2600083018562002584565b620029e160208301846200267a565b9392505050565b6000602082019050818103600083015262002a04818462002595565b905092915050565b6000602082019050818103600083015262002a288184620025ff565b905092915050565b600060208201905062002a47600083018462002669565b92915050565b600060a08201905062002a6460008301886200268b565b62002a73602083018762002584565b62002a8260408301866200267a565b62002a9160608301856200267a565b818103608083015262002aa5818462002595565b90509695505050505050565b6000602082019050818103600083015262002acc8162002725565b9050919050565b6000602082019050818103600083015262002aee816200278d565b9050919050565b6000602082019050818103600083015262002b1081620027f5565b9050919050565b6000602082019050818103600083015262002b32816200285d565b9050919050565b6000602082019050818103600083015262002b5481620028c5565b9050919050565b600060208201905062002b7260008301846200293e565b92915050565b6000819050602082019050919050565b6000819050602082019050919050565b600081519050919050565b600081519050919050565b600081519050919050565b6000602082019050919050565b6000602082019050919050565b600082825260208201905092915050565b600082825260208201905092915050565b600082825260208201905092915050565b600081905092915050565b600062002c1e8262002c50565b9050919050565b60008115159050919050565b6000819050919050565b600081905062002c4b8262002cd3565b919050565b600073ffffffffffffffffffffffffffffffffffffffff82169050919050565b6000819050919050565b600062002c878262002c3b565b9050919050565b82818337600083830152505050565b60005b8381101562002cbd57808201518184015260208101905062002ca0565b8381111562002ccd576000848401525b50505050565b6003811062002cde57fe5b50565b62002cec8162002c11565b811462002cf857600080fd5b50565b62002d068162002c31565b811462002d1257600080fd5b50565b62002d208162002c70565b811462002d2c57600080fd5b5056fe60806040523480156200001157600080fd5b50604051620020c2380380620020c2833981810160405262000037919081019062000136565b336000806101000a81548173ffffffffffffffffffffffffffffffffffffffff021916908373ffffffffffffffffffffffffffffffffffffffff16021790555033600260006101000a81548173ffffffffffffffffffffffffffffffffffffffff021916908373ffffffffffffffffffffffffffffffffffffffff1602179055508060038190555081600460006101000a81548173ffffffffffffffffffffffffffffffffffffffff021916908373ffffffffffffffffffffffffffffffffffffffff1602179055505050620001e9565b6000815190506200011981620001b5565b92915050565b6000815190506200013081620001cf565b92915050565b600080604083850312156200014a57600080fd5b60006200015a8582860162000108565b92505060206200016d858286016200011f565b9150509250929050565b6000620001848262000195565b9050919050565b6000819050919050565b600073ffffffffffffffffffffffffffffffffffffffff82169050919050565b620001c08162000177565b8114620001cc57600080fd5b50565b620001da816200018b565b8114620001e657600080fd5b50565b611ec980620001f96000396000f3fe608060405234801561001057600080fd5b50600436106100a95760003560e01c8063b7dfcbee11610071578063b7dfcbee14610181578063bb57f6131461019d578063c936919f146101b9578063cbfa3d09146101d5578063cdee934e146101f1578063fbbf93a014610221576100a9565b806337798e8e146100ae5780638a7cf0b8146100de5780638da5cb5b146101105780639fa5f50b1461012e578063b10d6b411461014c575b600080fd5b6100c860048036036100c3919081019061164e565b610243565b6040516100d59190611bbc565b60405180910390f35b6100f860048036036100f391908101906116a6565b6102b9565b60405161010793929190611bf2565b60405180910390f35b6101186104ba565b6040516101259190611b25565b60405180910390f35b6101366104df565b6040516101439190611b9a565b60405180910390f35b610166600480360361016191908101906116a6565b61066d565b60405161017896959493929190611c29565b60405180910390f35b61019b6004803603610196919081019061164e565b6109dc565b005b6101b760048036036101b291908101906116cf565b610b8c565b005b6101d360048036036101ce919081019061164e565b610f9d565b005b6101ef60048036036101ea91908101906115f6565b61114e565b005b61020b600480360361020691908101906117ba565b61137b565b6040516102189190611bd7565b60405180910390f35b61022961139c565b60405161023a959493929190611b40565b60405180910390f35b6000600160008573ffffffffffffffffffffffffffffffffffffffff1673ffffffffffffffffffffffffffffffffffffffff1681526020019081526020016000208383604051610294929190611af5565b908152602001604051809103902060009054906101000a900460ff1690509392505050565b60008060006040518060400160405280600d81526020017f646f63756d656e743a7265616400000000000000000000000000000000000000815250600160003373ffffffffffffffffffffffffffffffffffffffff1673ffffffffffffffffffffffffffffffffffffffff168152602001908152602001600020816040516103419190611b0e565b908152602001604051809103902060009054906101000a900460ff16806103b457506000809054906101000a900473ffffffffffffffffffffffffffffffffffffffff1673ffffffffffffffffffffffffffffffffffffffff163373ffffffffffffffffffffffffffffffffffffffff16145b6103f3576040517f08c379a00000000000000000000000000000000000000000000000000000000081526004016103ea90611cf8565b60405180910390fd5b60006006600087815260200190815260200160002060060154141561044d576040517f08c379a000000000000000000000000000000000000000000000000000000000815260040161044490611cd8565b60405180910390fd5b60066000868152602001908152602001600020600301546006600087815260200190815260200160002060040160009054906101000a900460ff166006600088815260200190815260200160002060040160019054906101000a900460ff16935093509350509193909250565b6000809054906101000a900473ffffffffffffffffffffffffffffffffffffffff1681565b60606040518060400160405280600e81526020017f646f63756d656e74733a72656164000000000000000000000000000000000000815250600160003373ffffffffffffffffffffffffffffffffffffffff1673ffffffffffffffffffffffffffffffffffffffff168152602001908152602001600020816040516105649190611b0e565b908152602001604051809103902060009054906101000a900460ff16806105d757506000809054906101000a900473ffffffffffffffffffffffffffffffffffffffff1673ffffffffffffffffffffffffffffffffffffffff163373ffffffffffffffffffffffffffffffffffffffff16145b610616576040517f08c379a000000000000000000000000000000000000000000000000000000000815260040161060d90611cf8565b60405180910390fd5b600580548060200260200160405190810160405280929190818152602001828054801561066257602002820191906000526020600020905b81548152602001906001019080831161064e575b505050505091505090565b606060008060008060606040518060400160405280600d81526020017f646f63756d656e743a7265616400000000000000000000000000000000000000815250600160003373ffffffffffffffffffffffffffffffffffffffff1673ffffffffffffffffffffffffffffffffffffffff168152602001908152602001600020816040516106fa9190611b0e565b908152602001604051809103902060009054906101000a900460ff168061076d57506000809054906101000a900473ffffffffffffffffffffffffffffffffffffffff1673ffffffffffffffffffffffffffffffffffffffff163373ffffffffffffffffffffffffffffffffffffffff16145b6107ac576040517f08c379a00000000000000000000000000000000000000000000000000000000081526004016107a390611cf8565b60405180910390fd5b6000600660008a8152602001908152602001600020600601541415610806576040517f08c379a00000000000000000000000000000000000000000000000000000000081526004016107fd90611cd8565b60405180910390fd5b60066000898152602001908152602001600020600001600660008a815260200190815260200160002060010154600660008b815260200190815260200160002060020154600660008c815260200190815260200160002060050154600660008d815260200190815260200160002060060154600660008e8152602001908152602001600020600701858054600181600116156101000203166002900480601f0160208091040260200160405190810160405280929190818152602001828054600181600116156101000203166002900480156109235780601f106108f857610100808354040283529160200191610923565b820191906000526020600020905b81548152906001019060200180831161090657829003601f168201915b50505050509550808054600181600116156101000203166002900480601f0160208091040260200160405190810160405280929190818152602001828054600181600116156101000203166002900480156109bf5780601f10610994576101008083540402835291602001916109bf565b820191906000526020600020905b8154815290600101906020018083116109a257829003601f168201915b505050505090509650965096509650965096505091939550919395565b6040518060400160405280600581526020017f61646d696e000000000000000000000000000000000000000000000000000000815250600160003373ffffffffffffffffffffffffffffffffffffffff1673ffffffffffffffffffffffffffffffffffffffff16815260200190815260200160002081604051610a5f9190611b0e565b908152602001604051809103902060009054906101000a900460ff1680610ad257506000809054906101000a900473ffffffffffffffffffffffffffffffffffffffff1673ffffffffffffffffffffffffffffffffffffffff163373ffffffffffffffffffffffffffffffffffffffff16145b610b11576040517f08c379a0000000000000000000000000000000000000000000000000000000008152600401610b0890611cf8565b60405180910390fd5b60018060008673ffffffffffffffffffffffffffffffffffffffff1673ffffffffffffffffffffffffffffffffffffffff1681526020019081526020016000208484604051610b61929190611af5565b908152602001604051809103902060006101000a81548160ff02191690831515021790555050505050565b600460009054906101000a900473ffffffffffffffffffffffffffffffffffffffff1673ffffffffffffffffffffffffffffffffffffffff163373ffffffffffffffffffffffffffffffffffffffff1614610c1c576040517f08c379a0000000000000000000000000000000000000000000000000000000008152600401610c1390611c98565b60405180910390fd5b6000600660008a81526020019081526020016000206006015414610c75576040517f08c379a0000000000000000000000000000000000000000000000000000000008152600401610c6c90611cb8565b60405180910390fd5b6000600260009054906101000a900473ffffffffffffffffffffffffffffffffffffffff1690506040518061012001604052808c8c8080601f016020809104026020016040519081016040528093929190818152602001838380828437600081840152601f19601f8201169050808301925050505050505081526020018681526020018581526020018781526020018960ff1681526020018860ff1681526020018273ffffffffffffffffffffffffffffffffffffffff166309b0466b6040518163ffffffff1660e01b815260040160206040518083038186803b158015610d5c57600080fd5b505afa158015610d70573d6000803e3d6000fd5b505050506040513d601f19601f82011682018060405250610d9491908101906117e3565b815260200142815260200184848080601f016020809104026020016040519081016040528093929190818152602001838380828437600081840152601f19601f82011690508083019250505050505050815250600660008b81526020019081526020016000206000820151816000019080519060200190610e16929190611454565b5060208201518160010155604082015181600201556060820151816003015560808201518160040160006101000a81548160ff021916908360ff16021790555060a08201518160040160016101000a81548160ff021916908360ff16021790555060c0820151816005015560e08201518160060155610100820151816007019080519060200190610ea8929190611454565b5090505060058990806001815401808255809150509060018203906000526020600020016000909192909190915055508073ffffffffffffffffffffffffffffffffffffffff166381e19490306040518263ffffffff1660e01b8152600401610f119190611b25565b602060405180830381600087803b158015610f2b57600080fd5b505af1158015610f3f573d6000803e3d6000fd5b505050506040513d601f19601f82011682018060405250610f6391908101906117e3565b507f0ac146a5629d2541f754db3df5197733e7c3002b8cfe1da2416abd2c9a49c28c60405160405180910390a15050505050505050505050565b6040518060400160405280600581526020017f61646d696e000000000000000000000000000000000000000000000000000000815250600160003373ffffffffffffffffffffffffffffffffffffffff1673ffffffffffffffffffffffffffffffffffffffff168152602001908152602001600020816040516110209190611b0e565b908152602001604051809103902060009054906101000a900460ff168061109357506000809054906101000a900473ffffffffffffffffffffffffffffffffffffffff1673ffffffffffffffffffffffffffffffffffffffff163373ffffffffffffffffffffffffffffffffffffffff16145b6110d2576040517f08c379a00000000000000000000000000000000000000000000000000000000081526004016110c990611cf8565b60405180910390fd5b6000600160008673ffffffffffffffffffffffffffffffffffffffff1673ffffffffffffffffffffffffffffffffffffffff1681526020019081526020016000208484604051611123929190611af5565b908152602001604051809103902060006101000a81548160ff02191690831515021790555050505050565b6040518060400160405280600581526020017f61646d696e000000000000000000000000000000000000000000000000000000815250600160003373ffffffffffffffffffffffffffffffffffffffff1673ffffffffffffffffffffffffffffffffffffffff168152602001908152602001600020816040516111d19190611b0e565b908152602001604051809103902060009054906101000a900460ff168061124457506000809054906101000a900473ffffffffffffffffffffffffffffffffffffffff1673ffffffffffffffffffffffffffffffffffffffff163373ffffffffffffffffffffffffffffffffffffffff16145b611283576040517f08c379a000000000000000000000000000000000000000000000000000000000815260040161127a90611cf8565b60405180910390fd5b60008090505b838390508110156113745760018060008773ffffffffffffffffffffffffffffffffffffffff1673ffffffffffffffffffffffffffffffffffffffff1681526020019081526020016000208585848181106112e057fe5b90506020028101803560016020038336030381126112fd57600080fd5b8083019250508135905060208201915067ffffffffffffffff81111561132257600080fd5b60018102360382131561133457600080fd5b604051611342929190611adc565b908152602001604051809103902060006101000a81548160ff0219169083151502179055508080600101915050611289565b5050505050565b6005818154811061138857fe5b906000526020600020016000915090505481565b600080600060606000600260009054906101000a900473ffffffffffffffffffffffffffffffffffffffff16600460009054906101000a900473ffffffffffffffffffffffffffffffffffffffff166003546005308180548060200260200160405190810160405280929190818152602001828054801561143c57602002820191906000526020600020905b815481526020019060010190808311611428575b50505050509150945094509450945094509091929394565b828054600181600116156101000203166002900490600052602060002090601f016020900481019282601f1061149557805160ff19168380011785556114c3565b828001600101855582156114c3579182015b828111156114c25782518255916020019190600101906114a7565b5b5090506114d091906114d4565b5090565b6114f691905b808211156114f25760008160009055506001016114da565b5090565b90565b60008135905061150881611e2a565b92915050565b60008083601f84011261152057600080fd5b8235905067ffffffffffffffff81111561153957600080fd5b60208301915083602082028301111561155157600080fd5b9250929050565b60008135905061156781611e41565b92915050565b60008083601f84011261157f57600080fd5b8235905067ffffffffffffffff81111561159857600080fd5b6020830191508360018202830111156115b057600080fd5b9250929050565b6000813590506115c681611e58565b92915050565b6000815190506115db81611e58565b92915050565b6000813590506115f081611e6f565b92915050565b60008060006040848603121561160b57600080fd5b6000611619868287016114f9565b935050602084013567ffffffffffffffff81111561163657600080fd5b6116428682870161150e565b92509250509250925092565b60008060006040848603121561166357600080fd5b6000611671868287016114f9565b935050602084013567ffffffffffffffff81111561168e57600080fd5b61169a8682870161156d565b92509250509250925092565b6000602082840312156116b857600080fd5b60006116c684828501611558565b91505092915050565b6000806000806000806000806000806101008b8d0312156116ef57600080fd5b60008b013567ffffffffffffffff81111561170957600080fd5b6117158d828e0161156d565b9a509a505060206117288d828e01611558565b98505060406117398d828e016115e1565b975050606061174a8d828e016115e1565b965050608061175b8d828e01611558565b95505060a061176c8d828e01611558565b94505060c061177d8d828e01611558565b93505060e08b013567ffffffffffffffff81111561179a57600080fd5b6117a68d828e0161156d565b92509250509295989b9194979a5092959850565b6000602082840312156117cc57600080fd5b60006117da848285016115b7565b91505092915050565b6000602082840312156117f557600080fd5b6000611803848285016115cc565b91505092915050565b600061181883836118a0565b60208301905092915050565b61182d81611d78565b82525050565b600061183e82611d28565b6118488185611d4b565b935061185383611d18565b8060005b8381101561188457815161186b888261180c565b975061187683611d3e565b925050600181019050611857565b5085935050505092915050565b61189a81611d8a565b82525050565b6118a981611d96565b82525050565b6118b881611d96565b82525050565b60006118ca8385611d6d565b93506118d7838584611dd7565b82840190509392505050565b60006118ef8385611d6d565b93506118fc838584611dd7565b82840190509392505050565b600061191382611d33565b61191d8185611d5c565b935061192d818560208601611de6565b61193681611e19565b840191505092915050565b600061194c82611d33565b6119568185611d6d565b9350611966818560208601611de6565b80840191505092915050565b600061197f602183611d5c565b91507f53656e646572206973206e6f7420737570706c696572206f662070726f6a656360008301527f74000000000000000000000000000000000000000000000000000000000000006020830152604082019050919050565b60006119e5601883611d5c565b91507f446f63756d656e7420616c7265616479206372656174656400000000000000006000830152602082019050919050565b6000611a25601783611d5c565b91507f446f63756d656e7420646f6573206e6f742065786973740000000000000000006000830152602082019050919050565b6000611a65602583611d5c565b91507f53656e64657220646f6573206e6f7420686176652074686520636f727265637460008301527f20726f6c650000000000000000000000000000000000000000000000000000006020830152604082019050919050565b611ac781611dc0565b82525050565b611ad681611dca565b82525050565b6000611ae98284866118e3565b91508190509392505050565b6000611b028284866118be565b91508190509392505050565b6000611b1a8284611941565b915081905092915050565b6000602082019050611b3a6000830184611824565b92915050565b600060a082019050611b556000830188611824565b611b626020830187611824565b611b6f60408301866118af565b8181036060830152611b818185611833565b9050611b906080830184611824565b9695505050505050565b60006020820190508181036000830152611bb48184611833565b905092915050565b6000602082019050611bd16000830184611891565b92915050565b6000602082019050611bec60008301846118af565b92915050565b6000606082019050611c0760008301866118af565b611c146020830185611acd565b611c216040830184611acd565b949350505050565b600060c0820190508181036000830152611c438189611908565b9050611c5260208301886118af565b611c5f60408301876118af565b611c6c6060830186611abe565b611c796080830185611abe565b81810360a0830152611c8b8184611908565b9050979650505050505050565b60006020820190508181036000830152611cb181611972565b9050919050565b60006020820190508181036000830152611cd1816119d8565b9050919050565b60006020820190508181036000830152611cf181611a18565b9050919050565b60006020820190508181036000830152611d1181611a58565b9050919050565b6000819050602082019050919050565b600081519050919050565b600081519050919050565b6000602082019050919050565b600082825260208201905092915050565b600082825260208201905092915050565b600081905092915050565b6000611d8382611da0565b9050919050565b60008115159050919050565b6000819050919050565b600073ffffffffffffffffffffffffffffffffffffffff82169050919050565b6000819050919050565b600060ff82169050919050565b82818337600083830152505050565b60005b83811015611e04578082015181840152602081019050611de9565b83811115611e13576000848401525b50505050565b6000601f19601f8301169050919050565b611e3381611d78565b8114611e3e57600080fd5b50565b611e4a81611d96565b8114611e5557600080fd5b50565b611e6181611dc0565b8114611e6c57600080fd5b50565b611e7881611dca565b8114611e8357600080fd5b5056fea365627a7a72315820b4d0edb404ae8eeb9de3785b5b23c146f09228cc18313b3568aa13adc0cf43c16c6578706572696d656e74616cf564736f6c63430005100040a365627a7a7231582039bfc115fbeaa07e8115486ef7c93b577ab56d6d1859c7fc321c22c9416dd3216c6578706572696d656e74616cf564736f6c63430005100040",
  "source": "pragma solidity ^0.5.0;\npragma experimental ABIEncoderV2;\n\nimport './RoleBasedAcl.sol';\nimport './Process.sol';\n\n\ncontract NuclearPoE is RoleBasedAcl {\n    uint256 public docNumber = 0;\n    enum State {Null, Created, Closed}\n\n    struct Project {\n        State status;\n        address clientAddress;\n        bytes32 title;\n        bytes32 oc;\n        address[] processContracts;\n    }\n\n    address[] public processContractsArray;\n    uint256[] public projectsArray;\n\n    mapping(address => uint256[]) public projectsByAddress;\n    mapping(address => address[]) public processesByAddress;\n    mapping(uint256 => Project) private project;\n\n    modifier onlyProcessContract(address _processAddress) {\n        require(\n            msg.sender == _processAddress,\n            'Sender has to be project Contract'\n        );\n        _;\n    }\n\n    event CreateProject();\n    event CreateProcess(address ProcessContractAddress);\n    event CloseProject(uint256 id);\n\n    function createProject(\n        uint256 _id,\n        address _clientAddress,\n        bytes32 title,\n        bytes32 oc\n    ) external hasRole('project:create') {\n        require(\n            project[_id].status == State.Null,\n            'Project already created or closed'\n        );\n\n        address[] memory processContracts = new address[](0);\n        project[_id] = Project(\n            State.Created,\n            _clientAddress,\n            title,\n            oc,\n            processContracts\n        );\n        projectsByAddress[_clientAddress].push(_id);\n        projectsArray.push(_id);\n\n        emit CreateProject();\n    }\n\n    function createProcess(address _supplierAddress, bytes32 _processName)\n        external\n        hasRole('process:create')\n    {\n        address ProcessContractAddress = address(\n            new Process(_supplierAddress, _processName)\n        );\n        processesByAddress[_supplierAddress].push(ProcessContractAddress);\n        processContractsArray.push(ProcessContractAddress);\n\n        emit CreateProcess(ProcessContractAddress);\n    }\n\n    function addProcessToProject(uint256 _id, address _processContract)\n        external\n        hasRole('process:assign')\n    {\n        require(\n            project[_id].status == State.Created,\n            'Project does not exist or is closed'\n        );\n\n        project[_id].processContracts.push(_processContract);\n    }\n\n    function changeProjectStatus(uint256 _id)\n        external\n        hasRole('project:changeState')\n    {\n        require(\n            project[_id].status == State.Created,\n            'Project does not exist or is already closed'\n        );\n\n        if (project[_id].status == State.Created)\n            project[_id].status = State.Closed;\n        else project[_id].status = State.Created;\n\n        emit CloseProject(_id);\n    }\n\n    // Receives input from corresponding Process Contract and returns new Doc Number\n    function incrementDocNumber(address _processAddress)\n        external\n        onlyProcessContract(_processAddress)\n        returns (uint256)\n    {\n        docNumber++;\n        return docNumber;\n    }\n\n    function getAllProcessContracts() external view returns (address[] memory) {\n        return processContractsArray;\n    }\n\n    function getProcessContractsByProject(uint256 _id)\n        external\n        view\n        returns (address[] memory)\n    {\n        return project[_id].processContracts;\n    }\n\n    function getAllProjects()\n        external\n        view\n        hasRole('project:readAll')\n        returns (uint256[] memory)\n    {\n        return projectsArray;\n    }\n\n    function getProcessesByAddress(address _address)\n        external\n        view\n        hasRole('process:read')\n        returns (address[] memory)\n    {\n        return (processesByAddress[_address]);\n    }\n\n    function getProjectsByAddress(address _address)\n        external\n        view\n        hasRole('project:read')\n        returns (uint256[] memory)\n    {\n        return (projectsByAddress[_address]);\n    }\n\n    function getProjectDetails(uint256 _id)\n        external\n        view\n        hasRole('project:read')\n        returns (State, address, bytes32, bytes32, address[] memory)\n    {\n        return (\n            project[_id].status,\n            project[_id].clientAddress,\n            project[_id].title,\n            project[_id].oc,\n            project[_id].processContracts\n        );\n    }\n}\n",
  "sourcePath": "/Users/sebastinez/Documents/GitHub/Nuclearis-PoE/contracts/NuclearPoE.sol",
  "compiler": {
    "name": "solc",
    "version": "0.5.16+commit.9c3226ce.Emscripten.clang"
  },
  "schemaVersion": "3.0.23",
  "updatedAt": "2020-03-30T14:20:03.415Z",
  "devdoc": {
    "methods": {}
  },
  "userdoc": {
    "methods": {}
  }
}