{
  "contractName": "NuclearPoE",
  "abi": [
    {
      "constant": true,
      "inputs": [],
      "name": "docNumber",
      "outputs": [
        {
          "name": "",
          "type": "uint256"
        }
      ],
      "payable": false,
      "stateMutability": "view",
      "type": "function",
      "signature": "0x09b0466b"
    },
    {
      "constant": true,
      "inputs": [
        {
          "name": "",
          "type": "uint256"
        }
      ],
      "name": "usersArray",
      "outputs": [
        {
          "name": "",
          "type": "address"
        }
      ],
      "payable": false,
      "stateMutability": "view",
      "type": "function",
      "signature": "0x2fae35c0"
    },
    {
      "constant": true,
      "inputs": [
        {
          "name": "",
          "type": "uint256"
        }
      ],
      "name": "projectsArray",
      "outputs": [
        {
          "name": "",
          "type": "uint256"
        }
      ],
      "payable": false,
      "stateMutability": "view",
      "type": "function",
      "signature": "0x64b785fa"
    },
    {
      "constant": false,
      "inputs": [],
      "name": "renounceOwnership",
      "outputs": [],
      "payable": false,
      "stateMutability": "nonpayable",
      "type": "function",
      "signature": "0x715018a6"
    },
    {
      "constant": true,
      "inputs": [
        {
          "name": "",
          "type": "address"
        }
      ],
      "name": "user",
      "outputs": [
        {
          "name": "name",
          "type": "bytes32"
        },
        {
          "name": "userType",
          "type": "uint8"
        },
        {
          "name": "created",
          "type": "bool"
        }
      ],
      "payable": false,
      "stateMutability": "view",
      "type": "function",
      "signature": "0x81e7e20e"
    },
    {
      "constant": true,
      "inputs": [],
      "name": "owner",
      "outputs": [
        {
          "name": "",
          "type": "address"
        }
      ],
      "payable": false,
      "stateMutability": "view",
      "type": "function",
      "signature": "0x8da5cb5b"
    },
    {
      "constant": true,
      "inputs": [],
      "name": "isOwner",
      "outputs": [
        {
          "name": "",
          "type": "bool"
        }
      ],
      "payable": false,
      "stateMutability": "view",
      "type": "function",
      "signature": "0x8f32d59b"
    },
    {
      "constant": true,
      "inputs": [
        {
          "name": "",
          "type": "address"
        },
        {
          "name": "",
          "type": "uint256"
        }
      ],
      "name": "userProjectContracts",
      "outputs": [
        {
          "name": "",
          "type": "uint256"
        }
      ],
      "payable": false,
      "stateMutability": "view",
      "type": "function",
      "signature": "0xc1792d05"
    },
    {
      "constant": true,
      "inputs": [
        {
          "name": "",
          "type": "uint256"
        }
      ],
      "name": "processContractsArray",
      "outputs": [
        {
          "name": "",
          "type": "address"
        }
      ],
      "payable": false,
      "stateMutability": "view",
      "type": "function",
      "signature": "0xe6c39930"
    },
    {
      "constant": false,
      "inputs": [
        {
          "name": "newOwner",
          "type": "address"
        }
      ],
      "name": "transferOwnership",
      "outputs": [],
      "payable": false,
      "stateMutability": "nonpayable",
      "type": "function",
      "signature": "0xf2fde38b"
    },
    {
      "anonymous": false,
      "inputs": [],
      "name": "CreateProject",
      "type": "event",
      "signature": "0xbab479b5b86675be7215930d13339d95c3af3099f28b31caf6cac1c3a08c3da7"
    },
    {
      "anonymous": false,
      "inputs": [],
      "name": "CreateUser",
      "type": "event",
      "signature": "0xdf39eb8e1857414a3a40d5964987610c5f80d0d28a16f33fa749ac85d9051666"
    },
    {
      "anonymous": false,
      "inputs": [
        {
          "indexed": false,
          "name": "ProcessContractAddress",
          "type": "address"
        }
      ],
      "name": "CreateProcess",
      "type": "event",
      "signature": "0x908a1d72896b3c6e31c2e9ac8d65ae9676a54dd26195d4496442c50ff1b0b797"
    },
    {
      "anonymous": false,
      "inputs": [],
      "name": "CloseProject",
      "type": "event",
      "signature": "0xdd2d87603957aa30528bbb6ece5f26fb72b6e34738d004ddf70c393ef7894ef9"
    },
    {
      "anonymous": false,
      "inputs": [
        {
          "indexed": true,
          "name": "previousOwner",
          "type": "address"
        },
        {
          "indexed": true,
          "name": "newOwner",
          "type": "address"
        }
      ],
      "name": "OwnershipTransferred",
      "type": "event",
      "signature": "0x8be0079c531659141344cd1fd0a4f28419497f9722a3daafe3b4186f6b6457e0"
    },
    {
      "constant": false,
      "inputs": [
        {
          "name": "_expediente",
          "type": "uint256"
        },
        {
          "name": "_clientAddress",
          "type": "address"
        },
        {
          "name": "title",
          "type": "bytes32"
        },
        {
          "name": "oc",
          "type": "bytes32"
        }
      ],
      "name": "createProject",
      "outputs": [],
      "payable": false,
      "stateMutability": "nonpayable",
      "type": "function",
      "signature": "0x66c3e861"
    },
    {
      "constant": false,
      "inputs": [
        {
          "name": "_userAddress",
          "type": "address"
        },
        {
          "name": "_userType",
          "type": "uint8"
        },
        {
          "name": "_userName",
          "type": "bytes32"
        }
      ],
      "name": "createUser",
      "outputs": [],
      "payable": false,
      "stateMutability": "nonpayable",
      "type": "function",
      "signature": "0x457b048f"
    },
    {
      "constant": false,
      "inputs": [
        {
          "name": "_supplierAddress",
          "type": "address"
        },
        {
          "name": "_processName",
          "type": "bytes32"
        }
      ],
      "name": "createProcess",
      "outputs": [],
      "payable": false,
      "stateMutability": "nonpayable",
      "type": "function",
      "signature": "0xfb4e2c79"
    },
    {
      "constant": false,
      "inputs": [
        {
          "name": "_expediente",
          "type": "uint256"
        },
        {
          "name": "_processContract",
          "type": "address"
        }
      ],
      "name": "addProcessToProject",
      "outputs": [],
      "payable": false,
      "stateMutability": "nonpayable",
      "type": "function",
      "signature": "0x73f04d7f"
    },
    {
      "constant": false,
      "inputs": [
        {
          "name": "_expediente",
          "type": "uint256"
        }
      ],
      "name": "closeProject",
      "outputs": [],
      "payable": false,
      "stateMutability": "nonpayable",
      "type": "function",
      "signature": "0x93dc12e6"
    },
    {
      "constant": false,
      "inputs": [
        {
          "name": "_processAddress",
          "type": "address"
        }
      ],
      "name": "incrementDocNumber",
      "outputs": [
        {
          "name": "",
          "type": "uint256"
        }
      ],
      "payable": false,
      "stateMutability": "nonpayable",
      "type": "function",
      "signature": "0x81e19490"
    },
    {
      "constant": true,
      "inputs": [],
      "name": "getAllProcessContracts",
      "outputs": [
        {
          "name": "",
          "type": "address[]"
        }
      ],
      "payable": false,
      "stateMutability": "view",
      "type": "function",
      "signature": "0x75cae8c0"
    },
    {
      "constant": true,
      "inputs": [
        {
          "name": "_expediente",
          "type": "uint256"
        }
      ],
      "name": "getProcessContractsByProject",
      "outputs": [
        {
          "name": "",
          "type": "address[]"
        }
      ],
      "payable": false,
      "stateMutability": "view",
      "type": "function",
      "signature": "0x5c6db281"
    },
    {
      "constant": true,
      "inputs": [],
      "name": "getAllProjects",
      "outputs": [
        {
          "name": "",
          "type": "uint256[]"
        }
      ],
      "payable": false,
      "stateMutability": "view",
      "type": "function",
      "signature": "0x80d03829"
    },
    {
      "constant": true,
      "inputs": [],
      "name": "getAllUsers",
      "outputs": [
        {
          "name": "",
          "type": "address[]"
        }
      ],
      "payable": false,
      "stateMutability": "view",
      "type": "function",
      "signature": "0xe2842d79"
    },
    {
      "constant": true,
      "inputs": [
        {
          "name": "_address",
          "type": "address"
        }
      ],
      "name": "getUserDetails",
      "outputs": [
        {
          "name": "",
          "type": "bytes32"
        },
        {
          "name": "",
          "type": "uint8"
        },
        {
          "name": "",
          "type": "uint256[]"
        }
      ],
      "payable": false,
      "stateMutability": "view",
      "type": "function",
      "signature": "0xcc3d967b"
    },
    {
      "constant": true,
      "inputs": [
        {
          "name": "_expediente",
          "type": "uint256"
        }
      ],
      "name": "getProjectDetails",
      "outputs": [
        {
          "name": "",
          "type": "bool"
        },
        {
          "name": "",
          "type": "address"
        },
        {
          "name": "",
          "type": "bytes32"
        },
        {
          "name": "",
          "type": "bytes32"
        },
        {
          "name": "",
          "type": "address[]"
        }
      ],
      "payable": false,
      "stateMutability": "view",
      "type": "function",
      "signature": "0x5f8439e3"
    }
  ],
  "bytecode": "0x6080604052600060015560006100226100c5640100000000026401000000009004565b9050806000806101000a81548173ffffffffffffffffffffffffffffffffffffffff021916908373ffffffffffffffffffffffffffffffffffffffff1602179055508073ffffffffffffffffffffffffffffffffffffffff16600073ffffffffffffffffffffffffffffffffffffffff167f8be0079c531659141344cd1fd0a4f28419497f9722a3daafe3b4186f6b6457e060405160405180910390a3506100cd565b600033905090565b612cf1806100dc6000396000f3fe608060405260043610610128576000357c0100000000000000000000000000000000000000000000000000000000900463ffffffff16806309b0466b1461012d5780632fae35c014610158578063457b048f146101d35780635c6db2811461023b5780635f8439e3146102cb57806364b785fa146103a757806366c3e861146103f6578063715018a61461046557806373f04d7f1461047c57806375cae8c0146104d757806380d038291461054357806381e19490146105af57806381e7e20e146106145780638da5cb5b146106915780638f32d59b146106e857806393dc12e614610717578063c1792d0514610752578063cc3d967b146107c1578063e2842d791461087b578063e6c39930146108e7578063f2fde38b14610962578063fb4e2c79146109b3575b600080fd5b34801561013957600080fd5b50610142610a0e565b6040518082815260200191505060405180910390f35b34801561016457600080fd5b506101916004803603602081101561017b57600080fd5b8101908080359060200190929190505050610a14565b604051808273ffffffffffffffffffffffffffffffffffffffff1673ffffffffffffffffffffffffffffffffffffffff16815260200191505060405180910390f35b3480156101df57600080fd5b50610239600480360360608110156101f657600080fd5b81019080803573ffffffffffffffffffffffffffffffffffffffff169060200190929190803560ff16906020019092919080359060200190929190505050610a52565b005b34801561024757600080fd5b506102746004803603602081101561025e57600080fd5b8101908080359060200190929190505050610cdf565b6040518080602001828103825283818151815260200191508051906020019060200280838360005b838110156102b757808201518184015260208101905061029c565b505050509050019250505060405180910390f35b3480156102d757600080fd5b50610304600480360360208110156102ee57600080fd5b8101908080359060200190929190505050610d83565b60405180861515151581526020018573ffffffffffffffffffffffffffffffffffffffff1673ffffffffffffffffffffffffffffffffffffffff16815260200184815260200183815260200180602001828103825283818151815260200191508051906020019060200280838360005b8381101561038f578082015181840152602081019050610374565b50505050905001965050505050505060405180910390f35b3480156103b357600080fd5b506103e0600480360360208110156103ca57600080fd5b8101908080359060200190929190505050610ec5565b6040518082815260200191505060405180910390f35b34801561040257600080fd5b506104636004803603608081101561041957600080fd5b8101908080359060200190929190803573ffffffffffffffffffffffffffffffffffffffff1690602001909291908035906020019092919080359060200190929190505050610ee8565b005b34801561047157600080fd5b5061047a6112ba565b005b34801561048857600080fd5b506104d56004803603604081101561049f57600080fd5b8101908080359060200190929190803573ffffffffffffffffffffffffffffffffffffffff1690602001909291905050506113f5565b005b3480156104e357600080fd5b506104ec6115b4565b6040518080602001828103825283818151815260200191508051906020019060200280838360005b8381101561052f578082015181840152602081019050610514565b505050509050019250505060405180910390f35b34801561054f57600080fd5b50610558611642565b6040518080602001828103825283818151815260200191508051906020019060200280838360005b8381101561059b578082015181840152602081019050610580565b505050509050019250505060405180910390f35b3480156105bb57600080fd5b506105fe600480360360208110156105d257600080fd5b81019080803573ffffffffffffffffffffffffffffffffffffffff16906020019092919050505061169a565b6040518082815260200191505060405180910390f35b34801561062057600080fd5b506106636004803603602081101561063757600080fd5b81019080803573ffffffffffffffffffffffffffffffffffffffff169060200190929190505050611783565b604051808481526020018360ff1660ff16815260200182151515158152602001935050505060405180910390f35b34801561069d57600080fd5b506106a66117c7565b604051808273ffffffffffffffffffffffffffffffffffffffff1673ffffffffffffffffffffffffffffffffffffffff16815260200191505060405180910390f35b3480156106f457600080fd5b506106fd6117f0565b604051808215151515815260200191505060405180910390f35b34801561072357600080fd5b506107506004803603602081101561073a57600080fd5b810190808035906020019092919050505061184e565b005b34801561075e57600080fd5b506107ab6004803603604081101561077557600080fd5b81019080803573ffffffffffffffffffffffffffffffffffffffff169060200190929190803590602001909291905050506119ed565b6040518082815260200191505060405180910390f35b3480156107cd57600080fd5b50610810600480360360208110156107e457600080fd5b81019080803573ffffffffffffffffffffffffffffffffffffffff169060200190929190505050611a1d565b604051808481526020018360ff1660ff16815260200180602001828103825283818151815260200191508051906020019060200280838360005b8381101561086557808201518184015260208101905061084a565b5050505090500194505050505060405180910390f35b34801561088757600080fd5b50610890611b53565b6040518080602001828103825283818151815260200191508051906020019060200280838360005b838110156108d35780820151818401526020810190506108b8565b505050509050019250505060405180910390f35b3480156108f357600080fd5b506109206004803603602081101561090a57600080fd5b8101908080359060200190929190505050611be1565b604051808273ffffffffffffffffffffffffffffffffffffffff1673ffffffffffffffffffffffffffffffffffffffff16815260200191505060405180910390f35b34801561096e57600080fd5b506109b16004803603602081101561098557600080fd5b81019080803573ffffffffffffffffffffffffffffffffffffffff169060200190929190505050611c1f565b005b3480156109bf57600080fd5b50610a0c600480360360408110156109d657600080fd5b81019080803573ffffffffffffffffffffffffffffffffffffffff16906020019092919080359060200190929190505050611ca7565b005b60015481565b600481815481101515610a2357fe5b906000526020600020016000915054906101000a900473ffffffffffffffffffffffffffffffffffffffff1681565b610a5a6117f0565b1515610ace576040517f08c379a00000000000000000000000000000000000000000000000000000000081526004018080602001828103825260208152602001807f4f776e61626c653a2063616c6c6572206973206e6f7420746865206f776e657281525060200191505060405180910390fd5b60001515600660008573ffffffffffffffffffffffffffffffffffffffff1673ffffffffffffffffffffffffffffffffffffffff16815260200190815260200160002060010160019054906101000a900460ff161515141515610b99576040517f08c379a00000000000000000000000000000000000000000000000000000000081526004018080602001828103825260148152602001807f5573657220616c7265616479206372656174656400000000000000000000000081525060200191505060405180910390fd5b6060604051908101604052808281526020018360ff16815260200160011515815250600660008573ffffffffffffffffffffffffffffffffffffffff1673ffffffffffffffffffffffffffffffffffffffff1681526020019081526020016000206000820151816000015560208201518160010160006101000a81548160ff021916908360ff16021790555060408201518160010160016101000a81548160ff02191690831515021790555090505060048390806001815401808255809150509060018203906000526020600020016000909192909190916101000a81548173ffffffffffffffffffffffffffffffffffffffff021916908373ffffffffffffffffffffffffffffffffffffffff160217905550507fdf39eb8e1857414a3a40d5964987610c5f80d0d28a16f33fa749ac85d905166660405160405180910390a1505050565b606060076000838152602001908152602001600020600301805480602002602001604051908101604052809291908181526020018280548015610d7757602002820191906000526020600020905b8160009054906101000a900473ffffffffffffffffffffffffffffffffffffffff1673ffffffffffffffffffffffffffffffffffffffff1681526020019060010190808311610d2d575b50505050509050919050565b60008060008060606007600087815260200190815260200160002060000160009054906101000a900460ff166007600088815260200190815260200160002060000160019054906101000a900473ffffffffffffffffffffffffffffffffffffffff166007600089815260200190815260200160002060010154600760008a815260200190815260200160002060020154600760008b815260200190815260200160002060030180805480602002602001604051908101604052809291908181526020018280548015610eab57602002820191906000526020600020905b8160009054906101000a900473ffffffffffffffffffffffffffffffffffffffff1673ffffffffffffffffffffffffffffffffffffffff1681526020019060010190808311610e61575b505050505090509450945094509450945091939590929450565b600381815481101515610ed457fe5b906000526020600020016000915090505481565b610ef06117f0565b1515610f64576040517f08c379a00000000000000000000000000000000000000000000000000000000081526004018080602001828103825260208152602001807f4f776e61626c653a2063616c6c6572206973206e6f7420746865206f776e657281525060200191505060405180910390fd5b600015156007600086815260200190815260200160002060000160009054906101000a900460ff161515141515611003576040517f08c379a00000000000000000000000000000000000000000000000000000000081526004018080602001828103825260178152602001807f50726f6a65637420616c7265616479206372656174656400000000000000000081525060200191505060405180910390fd5b60011515600660008573ffffffffffffffffffffffffffffffffffffffff1673ffffffffffffffffffffffffffffffffffffffff16815260200190815260200160002060010160019054906101000a900460ff1615151415156110ce576040517f08c379a00000000000000000000000000000000000000000000000000000000081526004018080602001828103825260138152602001807f5573657220646f6573206e6f742065786973740000000000000000000000000081525060200191505060405180910390fd5b606060006040519080825280602002602001820160405280156111005781602001602082028038833980820191505090505b50905060a0604051908101604052806001151581526020018573ffffffffffffffffffffffffffffffffffffffff168152602001848152602001838152602001828152506007600087815260200190815260200160002060008201518160000160006101000a81548160ff02191690831515021790555060208201518160000160016101000a81548173ffffffffffffffffffffffffffffffffffffffff021916908373ffffffffffffffffffffffffffffffffffffffff160217905550604082015181600101556060820151816002015560808201518160030190805190602001906111ee9291906120e9565b50905050600560008573ffffffffffffffffffffffffffffffffffffffff1673ffffffffffffffffffffffffffffffffffffffff16815260200190815260200160002085908060018154018082558091505090600182039060005260206000200160009091929091909150555060038590806001815401808255809150509060018203906000526020600020016000909192909190915055507fbab479b5b86675be7215930d13339d95c3af3099f28b31caf6cac1c3a08c3da760405160405180910390a15050505050565b6112c26117f0565b1515611336576040517f08c379a00000000000000000000000000000000000000000000000000000000081526004018080602001828103825260208152602001807f4f776e61626c653a2063616c6c6572206973206e6f7420746865206f776e657281525060200191505060405180910390fd5b600073ffffffffffffffffffffffffffffffffffffffff166000809054906101000a900473ffffffffffffffffffffffffffffffffffffffff1673ffffffffffffffffffffffffffffffffffffffff167f8be0079c531659141344cd1fd0a4f28419497f9722a3daafe3b4186f6b6457e060405160405180910390a360008060006101000a81548173ffffffffffffffffffffffffffffffffffffffff021916908373ffffffffffffffffffffffffffffffffffffffff160217905550565b6113fd6117f0565b1515611471576040517f08c379a00000000000000000000000000000000000000000000000000000000081526004018080602001828103825260208152602001807f4f776e61626c653a2063616c6c6572206973206e6f7420746865206f776e657281525060200191505060405180910390fd5b600115156007600084815260200190815260200160002060000160009054906101000a900460ff161515141515611536576040517f08c379a00000000000000000000000000000000000000000000000000000000081526004018080602001828103825260278152602001807f50726f6a65637420646f6573206e6f74206578697374206f72206973206e6f7481526020017f206163746976650000000000000000000000000000000000000000000000000081525060400191505060405180910390fd5b600760008381526020019081526020016000206003018190806001815401808255809150509060018203906000526020600020016000909192909190916101000a81548173ffffffffffffffffffffffffffffffffffffffff021916908373ffffffffffffffffffffffffffffffffffffffff160217905550505050565b6060600280548060200260200160405190810160405280929190818152602001828054801561163857602002820191906000526020600020905b8160009054906101000a900473ffffffffffffffffffffffffffffffffffffffff1673ffffffffffffffffffffffffffffffffffffffff16815260200190600101908083116115ee575b5050505050905090565b6060600380548060200260200160405190810160405280929190818152602001828054801561169057602002820191906000526020600020905b81548152602001906001019080831161167c575b5050505050905090565b6000818073ffffffffffffffffffffffffffffffffffffffff163373ffffffffffffffffffffffffffffffffffffffff16141515611766576040517f08c379a00000000000000000000000000000000000000000000000000000000081526004018080602001828103825260218152602001807f53656e6465722068617320746f2062652070726f6a65637420436f6e7472616381526020017f740000000000000000000000000000000000000000000000000000000000000081525060400191505060405180910390fd5b600160008154809291906001019190505550600154915050919050565b60066020528060005260406000206000915090508060000154908060010160009054906101000a900460ff16908060010160019054906101000a900460ff16905083565b60008060009054906101000a900473ffffffffffffffffffffffffffffffffffffffff16905090565b60008060009054906101000a900473ffffffffffffffffffffffffffffffffffffffff1673ffffffffffffffffffffffffffffffffffffffff16611832611f58565b73ffffffffffffffffffffffffffffffffffffffff1614905090565b6118566117f0565b15156118ca576040517f08c379a00000000000000000000000000000000000000000000000000000000081526004018080602001828103825260208152602001807f4f776e61626c653a2063616c6c6572206973206e6f7420746865206f776e657281525060200191505060405180910390fd5b600115156007600083815260200190815260200160002060000160009054906101000a900460ff16151514151561198f576040517f08c379a000000000000000000000000000000000000000000000000000000000815260040180806020018281038252602b8152602001807f50726f6a65637420646f6573206e6f74206578697374206f7220697320616c7281526020017f6561647920636c6f73656400000000000000000000000000000000000000000081525060400191505060405180910390fd5b60006007600083815260200190815260200160002060000160006101000a81548160ff0219169083151502179055507fdd2d87603957aa30528bbb6ece5f26fb72b6e34738d004ddf70c393ef7894ef960405160405180910390a150565b600560205281600052604060002081815481101515611a0857fe5b90600052602060002001600091509150505481565b6000806060600660008573ffffffffffffffffffffffffffffffffffffffff1673ffffffffffffffffffffffffffffffffffffffff16815260200190815260200160002060000154600660008673ffffffffffffffffffffffffffffffffffffffff1673ffffffffffffffffffffffffffffffffffffffff16815260200190815260200160002060010160009054906101000a900460ff16600560008773ffffffffffffffffffffffffffffffffffffffff1673ffffffffffffffffffffffffffffffffffffffff16815260200190815260200160002080805480602002602001604051908101604052809291908181526020018280548015611b3f57602002820191906000526020600020905b815481526020019060010190808311611b2b575b505050505090509250925092509193909250565b60606004805480602002602001604051908101604052809291908181526020018280548015611bd757602002820191906000526020600020905b8160009054906101000a900473ffffffffffffffffffffffffffffffffffffffff1673ffffffffffffffffffffffffffffffffffffffff1681526020019060010190808311611b8d575b5050505050905090565b600281815481101515611bf057fe5b906000526020600020016000915054906101000a900473ffffffffffffffffffffffffffffffffffffffff1681565b611c276117f0565b1515611c9b576040517f08c379a00000000000000000000000000000000000000000000000000000000081526004018080602001828103825260208152602001807f4f776e61626c653a2063616c6c6572206973206e6f7420746865206f776e657281525060200191505060405180910390fd5b611ca481611f60565b50565b611caf6117f0565b1515611d23576040517f08c379a00000000000000000000000000000000000000000000000000000000081526004018080602001828103825260208152602001807f4f776e61626c653a2063616c6c6572206973206e6f7420746865206f776e657281525060200191505060405180910390fd5b60011515600660008473ffffffffffffffffffffffffffffffffffffffff1673ffffffffffffffffffffffffffffffffffffffff16815260200190815260200160002060010160019054906101000a900460ff161515141515611dee576040517f08c379a00000000000000000000000000000000000000000000000000000000081526004018080602001828103825260138152602001807f5573657220646f6573206e6f742065786973740000000000000000000000000081525060200191505060405180910390fd5b6000338383611dfb612173565b808473ffffffffffffffffffffffffffffffffffffffff1673ffffffffffffffffffffffffffffffffffffffff1681526020018373ffffffffffffffffffffffffffffffffffffffff1673ffffffffffffffffffffffffffffffffffffffff1681526020018281526020019350505050604051809103906000f080158015611e87573d6000803e3d6000fd5b50905060028190806001815401808255809150509060018203906000526020600020016000909192909190916101000a81548173ffffffffffffffffffffffffffffffffffffffff021916908373ffffffffffffffffffffffffffffffffffffffff160217905550507f908a1d72896b3c6e31c2e9ac8d65ae9676a54dd26195d4496442c50ff1b0b79781604051808273ffffffffffffffffffffffffffffffffffffffff1673ffffffffffffffffffffffffffffffffffffffff16815260200191505060405180910390a1505050565b600033905090565b600073ffffffffffffffffffffffffffffffffffffffff168173ffffffffffffffffffffffffffffffffffffffff161415151561202b576040517f08c379a00000000000000000000000000000000000000000000000000000000081526004018080602001828103825260268152602001807f4f776e61626c653a206e6577206f776e657220697320746865207a65726f206181526020017f646472657373000000000000000000000000000000000000000000000000000081525060400191505060405180910390fd5b8073ffffffffffffffffffffffffffffffffffffffff166000809054906101000a900473ffffffffffffffffffffffffffffffffffffffff1673ffffffffffffffffffffffffffffffffffffffff167f8be0079c531659141344cd1fd0a4f28419497f9722a3daafe3b4186f6b6457e060405160405180910390a3806000806101000a81548173ffffffffffffffffffffffffffffffffffffffff021916908373ffffffffffffffffffffffffffffffffffffffff16021790555050565b828054828255906000526020600020908101928215612162579160200282015b828111156121615782518260006101000a81548173ffffffffffffffffffffffffffffffffffffffff021916908373ffffffffffffffffffffffffffffffffffffffff16021790555091602001919060010190612109565b5b50905061216f9190612183565b5090565b604051610aff806121c783390190565b6121c391905b808211156121bf57600081816101000a81549073ffffffffffffffffffffffffffffffffffffffff021916905550600101612189565b5090565b9056fe608060405234801561001057600080fd5b50604051606080610aff8339810180604052606081101561003057600080fd5b81019080805190602001909291908051906020019092919080519060200190929190505050336000806101000a81548173ffffffffffffffffffffffffffffffffffffffff021916908373ffffffffffffffffffffffffffffffffffffffff16021790555082600160006101000a81548173ffffffffffffffffffffffffffffffffffffffff021916908373ffffffffffffffffffffffffffffffffffffffff16021790555081600260006101000a81548173ffffffffffffffffffffffffffffffffffffffff021916908373ffffffffffffffffffffffffffffffffffffffff160217905550806003819055505050506109cf806101306000396000f3fe60806040526004361061006d576000357c0100000000000000000000000000000000000000000000000000000000900463ffffffff16806367f71cb9146100725780639fa5f50b146100e5578063cdee934e14610151578063d5252015146101a0578063fbbf93a014610225575b600080fd5b34801561007e57600080fd5b506100e3600480360360c081101561009557600080fd5b8101908080359060200190929190803560ff169060200190929190803560ff169060200190929190803590602001909291908035906020019092919080359060200190929190505050610364565b005b3480156100f157600080fd5b506100fa6106dd565b6040518080602001828103825283818151815260200191508051906020019060200280838360005b8381101561013d578082015181840152602081019050610122565b505050509050019250505060405180910390f35b34801561015d57600080fd5b5061018a6004803603602081101561017457600080fd5b8101908080359060200190929190505050610735565b6040518082815260200191505060405180910390f35b3480156101ac57600080fd5b506101d9600480360360208110156101c357600080fd5b8101908080359060200190929190505050610758565b604051808881526020018781526020018681526020018560ff1660ff1681526020018460ff1660ff16815260200183815260200182815260200197505050505050505060405180910390f35b34801561023157600080fd5b5061023a6108c5565b604051808773ffffffffffffffffffffffffffffffffffffffff1673ffffffffffffffffffffffffffffffffffffffff1681526020018673ffffffffffffffffffffffffffffffffffffffff1673ffffffffffffffffffffffffffffffffffffffff1681526020018573ffffffffffffffffffffffffffffffffffffffff1673ffffffffffffffffffffffffffffffffffffffff168152602001848152602001806020018373ffffffffffffffffffffffffffffffffffffffff1673ffffffffffffffffffffffffffffffffffffffff168152602001828103825284818151815260200191508051906020019060200280838360005b8381101561034b578082015181840152602081019050610330565b5050505090500197505050505050505060405180910390f35b600260009054906101000a900473ffffffffffffffffffffffffffffffffffffffff1673ffffffffffffffffffffffffffffffffffffffff163373ffffffffffffffffffffffffffffffffffffffff16141515610429576040517f08c379a000000000000000000000000000000000000000000000000000000000815260040180806020018281038252601d8152602001807f48617320746f20626520737570706c696572206f662070726f6a65637400000081525060200191505060405180910390fd5b600060056000888152602001908152602001600020600501541415156104b7576040517f08c379a00000000000000000000000000000000000000000000000000000000081526004018080602001828103825260188152602001807f446f63756d656e7420616c72656164792063726561746564000000000000000081525060200191505060405180910390fd5b60008060009054906101000a900473ffffffffffffffffffffffffffffffffffffffff16905060008173ffffffffffffffffffffffffffffffffffffffff166381e19490306040518263ffffffff167c0100000000000000000000000000000000000000000000000000000000028152600401808273ffffffffffffffffffffffffffffffffffffffff1673ffffffffffffffffffffffffffffffffffffffff168152602001915050602060405180830381600087803b15801561057a57600080fd5b505af115801561058e573d6000803e3d6000fd5b505050506040513d60208110156105a457600080fd5b8101908080519060200190929190505050905060e0604051908101604052808581526020018481526020018681526020018860ff1681526020018760ff16815260200182815260200142815250600560008a815260200190815260200160002060008201518160000155602082015181600101556040820151816002015560608201518160030160006101000a81548160ff021916908360ff16021790555060808201518160030160016101000a81548160ff021916908360ff16021790555060a0820151816004015560c0820151816005015590505060048890806001815401808255809150509060018203906000526020600020016000909192909190915055507f0ac146a5629d2541f754db3df5197733e7c3002b8cfe1da2416abd2c9a49c28c60405160405180910390a15050505050505050565b6060600480548060200260200160405190810160405280929190818152602001828054801561072b57602002820191906000526020600020905b815481526020019060010190808311610717575b5050505050905090565b60048181548110151561074457fe5b906000526020600020016000915090505481565b600080600080600080600080600560008a815260200190815260200160002060050154141515156107f1576040517f08c379a00000000000000000000000000000000000000000000000000000000081526004018080602001828103825260178152602001807f446f63756d656e7420646f6573206e6f7420657869737400000000000000000081525060200191505060405180910390fd5b6005600089815260200190815260200160002060000154600560008a815260200190815260200160002060010154600560008b815260200190815260200160002060020154600560008c815260200190815260200160002060030160009054906101000a900460ff16600560008d815260200190815260200160002060030160019054906101000a900460ff16600560008e815260200190815260200160002060040154600560008f8152602001908152602001600020600501549650965096509650965096509650919395979092949650565b600080600080606060008060009054906101000a900473ffffffffffffffffffffffffffffffffffffffff16600160009054906101000a900473ffffffffffffffffffffffffffffffffffffffff16600260009054906101000a900473ffffffffffffffffffffffffffffffffffffffff166003546004308180548060200260200160405190810160405280929190818152602001828054801561098857602002820191906000526020600020905b815481526020019060010190808311610974575b5050505050915095509550955095509550955090919293949556fea165627a7a723058200da32c05ac296d3486ed63516fdd777cb9b8309be7a3582adf700856573e785d0029a165627a7a7230582036769f868bc0949c7d159b74cf43f8c4cdc98c9ddd17909a1ad817049b05f3b90029",
  "source": "pragma solidity >=0.5.0 <0.7.0;\n\nimport \"./Ownable.sol\";\nimport \"./Process.sol\";\n\ncontract NuclearPoE is Ownable {\n\n    uint public docNumber = 0;\n\n    struct User {\n        bytes32 name;\n        uint8 userType;\n        bool created;\n    }\n\n    struct Project {\n        bool active;\n        address clientAddress;\n        bytes32 title;\n        bytes32 oc;\n        address[] processContracts;\n    }\n\n    address[] public processContractsArray;\n    uint[] public projectsArray;\n    address[] public usersArray;\n\n    mapping (address => uint[]) public userProjectContracts;\n    mapping (address => User) public user;\n    mapping (uint => Project) private project;\n\n    modifier onlyProcessContract(address _processAddress) {\n        require(msg.sender == _processAddress, \"Sender has to be project Contract\");\n    _;\n    }\n\n    modifier onlyClient(address _clientAddress) {\n        require(msg.sender == _clientAddress, \"Only clients of this project can realize this operation\");\n        _;\n    }\n\n    event CreateProject();\n    event CreateUser();\n    event CreateProcess(address ProcessContractAddress);\n    event CloseProject();\n\n    function createProject(uint _expediente, address _clientAddress, bytes32 title, bytes32 oc) external onlyOwner() {\n        require(project[_expediente].active == false, \"Project already created\");\n        require(user[_clientAddress].created == true, \"User does not exist\");\n\n        address[] memory processContracts = new address[](0);\n        project[_expediente] = Project(true, _clientAddress, title, oc, processContracts);\n        userProjectContracts[_clientAddress].push(_expediente);\n        projectsArray.push(_expediente);\n\n        emit CreateProject();\n    }\n\n    function createUser(address _userAddress, uint8 _userType, bytes32 _userName) external onlyOwner() {\n        require(user[_userAddress].created == false, \"User already created\");\n\n        user[_userAddress] = User(_userName, _userType, true);\n        usersArray.push(_userAddress);\n\n        emit CreateUser();\n    }\n\n    function createProcess(address _supplierAddress, bytes32 _processName) external onlyOwner() {\n        require(user[_supplierAddress].created == true, \"User does not exist\");\n\n        address ProcessContractAddress = address(new Process(msg.sender, _supplierAddress, _processName));\n        processContractsArray.push(ProcessContractAddress);\n\n        emit CreateProcess(ProcessContractAddress);\n    }\n\n    function addProcessToProject(uint _expediente, address _processContract) external onlyOwner() {\n        require(project[_expediente].active == true, \"Project does not exist or is not active\");\n        project[_expediente].processContracts.push(_processContract);\n    }\n\n    function closeProject(uint _expediente) external onlyOwner() {\n        require(project[_expediente].active == true, \"Project does not exist or is already closed\");\n\n        project[_expediente].active = false;\n        emit CloseProject();\n    }\n\n    function incrementDocNumber(address _processAddress) external onlyProcessContract(_processAddress) returns(uint) {\n        docNumber++;\n        return docNumber;\n    }\n\n    function getAllProcessContracts() external view returns(address[] memory) {\n        return processContractsArray;\n    }\n\n    function getProcessContractsByProject(uint _expediente) external view returns(address[] memory) {\n        return project[_expediente].processContracts;\n    }\n\n    function getAllProjects() external view returns(uint[] memory) {\n        return projectsArray;\n    }\n\n    function getAllUsers() external view returns(address[] memory) {\n        return usersArray;\n    }\n\n    function getUserDetails(address _address) external view returns(bytes32, uint8, uint[] memory) {\n        return (user[_address].name, user[_address].userType, userProjectContracts[_address]);\n    }\n\n    function getProjectDetails(uint _expediente) external view returns(bool, address, bytes32, bytes32, address[] memory) {\n        return (\n            project[_expediente].active,\n            project[_expediente].clientAddress,\n            project[_expediente].title,\n            project[_expediente].oc,\n            project[_expediente].processContracts);\n    }\n\n}",
  "sourcePath": "/Users/admin/Documents/GitHub/NUCLEARIS-Material-Organization/contracts/NuclearPoE.sol",
  "compiler": {
    "name": "solc",
    "version": "0.5.0+commit.1d4f565a.Emscripten.clang"
  },
  "schemaVersion": "3.0.1",
  "updatedAt": "2019-11-02T07:58:16.684Z",
  "devdoc": {
    "methods": {
      "isOwner()": {
        "details": "Returns true if the caller is the current owner."
      },
      "owner()": {
        "details": "Returns the address of the current owner."
      },
      "renounceOwnership()": {
        "details": "Leaves the contract without owner. It will not be possible to call `onlyOwner` functions anymore. Can only be called by the current owner.     * NOTE: Renouncing ownership will leave the contract without an owner, thereby removing any functionality that is only available to the owner."
      },
      "transferOwnership(address)": {
        "details": "Transfers ownership of the contract to a new account (`newOwner`). Can only be called by the current owner."
      }
    }
  },
  "userdoc": {
    "methods": {}
  }
}