{
  "contractName": "NuclearPoE",
  "abi": [
    {
      "constant": true,
      "inputs": [],
      "name": "docNumber",
      "outputs": [
        {
          "name": "",
          "type": "uint256"
        }
      ],
      "payable": false,
      "stateMutability": "view",
      "type": "function",
      "signature": "0x09b0466b"
    },
    {
      "constant": true,
      "inputs": [
        {
          "name": "",
          "type": "uint256"
        }
      ],
      "name": "projectContract",
      "outputs": [
        {
          "name": "",
          "type": "address"
        }
      ],
      "payable": false,
      "stateMutability": "view",
      "type": "function",
      "signature": "0x3789a580"
    },
    {
      "constant": true,
      "inputs": [
        {
          "name": "",
          "type": "uint256"
        }
      ],
      "name": "userArray",
      "outputs": [
        {
          "name": "",
          "type": "address"
        }
      ],
      "payable": false,
      "stateMutability": "view",
      "type": "function",
      "signature": "0x41209af1"
    },
    {
      "constant": false,
      "inputs": [],
      "name": "renounceOwnership",
      "outputs": [],
      "payable": false,
      "stateMutability": "nonpayable",
      "type": "function",
      "signature": "0x715018a6"
    },
    {
      "constant": true,
      "inputs": [
        {
          "name": "",
          "type": "address"
        }
      ],
      "name": "user",
      "outputs": [
        {
          "name": "name",
          "type": "bytes32"
        },
        {
          "name": "userType",
          "type": "uint256"
        },
        {
          "name": "created",
          "type": "bool"
        }
      ],
      "payable": false,
      "stateMutability": "view",
      "type": "function",
      "signature": "0x81e7e20e"
    },
    {
      "constant": true,
      "inputs": [],
      "name": "owner",
      "outputs": [
        {
          "name": "",
          "type": "address"
        }
      ],
      "payable": false,
      "stateMutability": "view",
      "type": "function",
      "signature": "0x8da5cb5b"
    },
    {
      "constant": true,
      "inputs": [],
      "name": "isOwner",
      "outputs": [
        {
          "name": "",
          "type": "bool"
        }
      ],
      "payable": false,
      "stateMutability": "view",
      "type": "function",
      "signature": "0x8f32d59b"
    },
    {
      "constant": true,
      "inputs": [
        {
          "name": "",
          "type": "uint256"
        }
      ],
      "name": "projectContractsArray",
      "outputs": [
        {
          "name": "",
          "type": "address"
        }
      ],
      "payable": false,
      "stateMutability": "view",
      "type": "function",
      "signature": "0xa88b25d4"
    },
    {
      "constant": true,
      "inputs": [
        {
          "name": "",
          "type": "address"
        },
        {
          "name": "",
          "type": "uint256"
        }
      ],
      "name": "userProjectContracts",
      "outputs": [
        {
          "name": "",
          "type": "address"
        }
      ],
      "payable": false,
      "stateMutability": "view",
      "type": "function",
      "signature": "0xc1792d05"
    },
    {
      "constant": false,
      "inputs": [
        {
          "name": "newOwner",
          "type": "address"
        }
      ],
      "name": "transferOwnership",
      "outputs": [],
      "payable": false,
      "stateMutability": "nonpayable",
      "type": "function",
      "signature": "0xf2fde38b"
    },
    {
      "anonymous": false,
      "inputs": [
        {
          "indexed": false,
          "name": "newProjectContractAddress",
          "type": "address"
        }
      ],
      "name": "CreateProject",
      "type": "event",
      "signature": "0xbb703aa7f8a7bebc43ea190212c9ab3aeb3ea9de189188823994f06acd262fa3"
    },
    {
      "anonymous": false,
      "inputs": [],
      "name": "CreateUser",
      "type": "event",
      "signature": "0xdf39eb8e1857414a3a40d5964987610c5f80d0d28a16f33fa749ac85d9051666"
    },
    {
      "anonymous": false,
      "inputs": [
        {
          "indexed": true,
          "name": "previousOwner",
          "type": "address"
        },
        {
          "indexed": true,
          "name": "newOwner",
          "type": "address"
        }
      ],
      "name": "OwnershipTransferred",
      "type": "event",
      "signature": "0x8be0079c531659141344cd1fd0a4f28419497f9722a3daafe3b4186f6b6457e0"
    },
    {
      "constant": false,
      "inputs": [
        {
          "name": "_expediente",
          "type": "uint256"
        },
        {
          "name": "_projectTitle",
          "type": "bytes32"
        },
        {
          "name": "_userAddress",
          "type": "address"
        },
        {
          "name": "_oc",
          "type": "bytes32"
        }
      ],
      "name": "createProject",
      "outputs": [],
      "payable": false,
      "stateMutability": "nonpayable",
      "type": "function",
      "signature": "0xb2054996"
    },
    {
      "constant": false,
      "inputs": [
        {
          "name": "_userAddress",
          "type": "address"
        },
        {
          "name": "_userType",
          "type": "uint256"
        },
        {
          "name": "_userName",
          "type": "bytes32"
        }
      ],
      "name": "createUser",
      "outputs": [],
      "payable": false,
      "stateMutability": "nonpayable",
      "type": "function",
      "signature": "0x4d83ffdd"
    },
    {
      "constant": false,
      "inputs": [
        {
          "name": "_projectAddress",
          "type": "address"
        }
      ],
      "name": "incrementDocNumber",
      "outputs": [
        {
          "name": "",
          "type": "uint256"
        }
      ],
      "payable": false,
      "stateMutability": "nonpayable",
      "type": "function",
      "signature": "0x81e19490"
    },
    {
      "constant": false,
      "inputs": [
        {
          "name": "_supplierAddress",
          "type": "address"
        },
        {
          "name": "_projectAddress",
          "type": "address"
        }
      ],
      "name": "addSupplierToProject",
      "outputs": [],
      "payable": false,
      "stateMutability": "nonpayable",
      "type": "function",
      "signature": "0x898b659f"
    },
    {
      "constant": true,
      "inputs": [],
      "name": "getAllProjectContract",
      "outputs": [
        {
          "name": "",
          "type": "address[]"
        }
      ],
      "payable": false,
      "stateMutability": "view",
      "type": "function",
      "signature": "0x95349cce"
    },
    {
      "constant": true,
      "inputs": [],
      "name": "getAllUsers",
      "outputs": [
        {
          "name": "",
          "type": "address[]"
        }
      ],
      "payable": false,
      "stateMutability": "view",
      "type": "function",
      "signature": "0xe2842d79"
    },
    {
      "constant": true,
      "inputs": [
        {
          "name": "_address",
          "type": "address"
        }
      ],
      "name": "getUserDetails",
      "outputs": [
        {
          "name": "",
          "type": "bytes32"
        },
        {
          "name": "",
          "type": "uint256"
        },
        {
          "name": "",
          "type": "address[]"
        }
      ],
      "payable": false,
      "stateMutability": "view",
      "type": "function",
      "signature": "0xcc3d967b"
    }
  ],
  "bytecode": "0x6080604052600060015560006100226100c5640100000000026401000000009004565b9050806000806101000a81548173ffffffffffffffffffffffffffffffffffffffff021916908373ffffffffffffffffffffffffffffffffffffffff1602179055508073ffffffffffffffffffffffffffffffffffffffff16600073ffffffffffffffffffffffffffffffffffffffff167f8be0079c531659141344cd1fd0a4f28419497f9722a3daafe3b4186f6b6457e060405160405180910390a3506100cd565b600033905090565b613247806100dc6000396000f3fe6080604052600436106100f1576000357c0100000000000000000000000000000000000000000000000000000000900463ffffffff16806309b0466b146100f65780633789a5801461012157806341209af11461019c5780634d83ffdd14610217578063715018a61461027c57806381e194901461029357806381e7e20e146102f8578063898b659f1461036f5780638da5cb5b146103e05780638f32d59b1461043757806395349cce14610466578063a88b25d4146104d2578063b20549961461054d578063c1792d05146105bc578063cc3d967b14610657578063e2842d791461070b578063f2fde38b14610777575b600080fd5b34801561010257600080fd5b5061010b6107c8565b6040518082815260200191505060405180910390f35b34801561012d57600080fd5b5061015a6004803603602081101561014457600080fd5b81019080803590602001909291905050506107ce565b604051808273ffffffffffffffffffffffffffffffffffffffff1673ffffffffffffffffffffffffffffffffffffffff16815260200191505060405180910390f35b3480156101a857600080fd5b506101d5600480360360208110156101bf57600080fd5b8101908080359060200190929190505050610801565b604051808273ffffffffffffffffffffffffffffffffffffffff1673ffffffffffffffffffffffffffffffffffffffff16815260200191505060405180910390f35b34801561022357600080fd5b5061027a6004803603606081101561023a57600080fd5b81019080803573ffffffffffffffffffffffffffffffffffffffff169060200190929190803590602001909291908035906020019092919050505061083f565b005b34801561028857600080fd5b50610291610ab2565b005b34801561029f57600080fd5b506102e2600480360360208110156102b657600080fd5b81019080803573ffffffffffffffffffffffffffffffffffffffff169060200190929190505050610bed565b6040518082815260200191505060405180910390f35b34801561030457600080fd5b506103476004803603602081101561031b57600080fd5b81019080803573ffffffffffffffffffffffffffffffffffffffff169060200190929190505050610cd6565b6040518084815260200183815260200182151515158152602001935050505060405180910390f35b34801561037b57600080fd5b506103de6004803603604081101561039257600080fd5b81019080803573ffffffffffffffffffffffffffffffffffffffff169060200190929190803573ffffffffffffffffffffffffffffffffffffffff169060200190929190505050610d0d565b005b3480156103ec57600080fd5b506103f5610f4a565b604051808273ffffffffffffffffffffffffffffffffffffffff1673ffffffffffffffffffffffffffffffffffffffff16815260200191505060405180910390f35b34801561044357600080fd5b5061044c610f73565b604051808215151515815260200191505060405180910390f35b34801561047257600080fd5b5061047b610fd1565b6040518080602001828103825283818151815260200191508051906020019060200280838360005b838110156104be5780820151818401526020810190506104a3565b505050509050019250505060405180910390f35b3480156104de57600080fd5b5061050b600480360360208110156104f557600080fd5b810190808035906020019092919050505061105f565b604051808273ffffffffffffffffffffffffffffffffffffffff1673ffffffffffffffffffffffffffffffffffffffff16815260200191505060405180910390f35b34801561055957600080fd5b506105ba6004803603608081101561057057600080fd5b810190808035906020019092919080359060200190929190803573ffffffffffffffffffffffffffffffffffffffff1690602001909291908035906020019092919050505061109d565b005b3480156105c857600080fd5b50610615600480360360408110156105df57600080fd5b81019080803573ffffffffffffffffffffffffffffffffffffffff1690602001909291908035906020019092919050505061152c565b604051808273ffffffffffffffffffffffffffffffffffffffff1673ffffffffffffffffffffffffffffffffffffffff16815260200191505060405180910390f35b34801561066357600080fd5b506106a66004803603602081101561067a57600080fd5b81019080803573ffffffffffffffffffffffffffffffffffffffff169060200190929190505050611579565b6040518084815260200183815260200180602001828103825283818151815260200191508051906020019060200280838360005b838110156106f55780820151818401526020810190506106da565b5050505090500194505050505060405180910390f35b34801561071757600080fd5b506107206116d8565b6040518080602001828103825283818151815260200191508051906020019060200280838360005b83811015610763578082015181840152602081019050610748565b505050509050019250505060405180910390f35b34801561078357600080fd5b506107c66004803603602081101561079a57600080fd5b81019080803573ffffffffffffffffffffffffffffffffffffffff169060200190929190505050611766565b005b60015481565b60046020528060005260406000206000915054906101000a900473ffffffffffffffffffffffffffffffffffffffff1681565b60038181548110151561081057fe5b906000526020600020016000915054906101000a900473ffffffffffffffffffffffffffffffffffffffff1681565b610847610f73565b15156108bb576040517f08c379a00000000000000000000000000000000000000000000000000000000081526004018080602001828103825260208152602001807f4f776e61626c653a2063616c6c6572206973206e6f7420746865206f776e657281525060200191505060405180910390fd5b60001515600660008573ffffffffffffffffffffffffffffffffffffffff1673ffffffffffffffffffffffffffffffffffffffff16815260200190815260200160002060020160009054906101000a900460ff161515141515610986576040517f08c379a00000000000000000000000000000000000000000000000000000000081526004018080602001828103825260148152602001807f5573657220616c7265616479206372656174656400000000000000000000000081525060200191505060405180910390fd5b60606040519081016040528082815260200183815260200160011515815250600660008573ffffffffffffffffffffffffffffffffffffffff1673ffffffffffffffffffffffffffffffffffffffff168152602001908152602001600020600082015181600001556020820151816001015560408201518160020160006101000a81548160ff02191690831515021790555090505060038390806001815401808255809150509060018203906000526020600020016000909192909190916101000a81548173ffffffffffffffffffffffffffffffffffffffff021916908373ffffffffffffffffffffffffffffffffffffffff160217905550507fdf39eb8e1857414a3a40d5964987610c5f80d0d28a16f33fa749ac85d905166660405160405180910390a1505050565b610aba610f73565b1515610b2e576040517f08c379a00000000000000000000000000000000000000000000000000000000081526004018080602001828103825260208152602001807f4f776e61626c653a2063616c6c6572206973206e6f7420746865206f776e657281525060200191505060405180910390fd5b600073ffffffffffffffffffffffffffffffffffffffff166000809054906101000a900473ffffffffffffffffffffffffffffffffffffffff1673ffffffffffffffffffffffffffffffffffffffff167f8be0079c531659141344cd1fd0a4f28419497f9722a3daafe3b4186f6b6457e060405160405180910390a360008060006101000a81548173ffffffffffffffffffffffffffffffffffffffff021916908373ffffffffffffffffffffffffffffffffffffffff160217905550565b6000818073ffffffffffffffffffffffffffffffffffffffff163373ffffffffffffffffffffffffffffffffffffffff16141515610cb9576040517f08c379a00000000000000000000000000000000000000000000000000000000081526004018080602001828103825260218152602001807f53656e6465722068617320746f2062652070726f6a65637420436f6e7472616381526020017f740000000000000000000000000000000000000000000000000000000000000081525060400191505060405180910390fd5b600160008154809291906001019190505550600154915050919050565b60066020528060005260406000206000915090508060000154908060010154908060020160009054906101000a900460ff16905083565b808073ffffffffffffffffffffffffffffffffffffffff163373ffffffffffffffffffffffffffffffffffffffff16141515610dd7576040517f08c379a00000000000000000000000000000000000000000000000000000000081526004018080602001828103825260218152602001807f53656e6465722068617320746f2062652070726f6a65637420436f6e7472616381526020017f740000000000000000000000000000000000000000000000000000000000000081525060400191505060405180910390fd5b60011515600660008573ffffffffffffffffffffffffffffffffffffffff1673ffffffffffffffffffffffffffffffffffffffff16815260200190815260200160002060020160009054906101000a900460ff161515141515610ea2576040517f08c379a00000000000000000000000000000000000000000000000000000000081526004018080602001828103825260138152602001807f5573657220646f6573206e6f742065786973740000000000000000000000000081525060200191505060405180910390fd5b600560008473ffffffffffffffffffffffffffffffffffffffff1673ffffffffffffffffffffffffffffffffffffffff1681526020019081526020016000208290806001815401808255809150509060018203906000526020600020016000909192909190916101000a81548173ffffffffffffffffffffffffffffffffffffffff021916908373ffffffffffffffffffffffffffffffffffffffff16021790555050505050565b60008060009054906101000a900473ffffffffffffffffffffffffffffffffffffffff16905090565b60008060009054906101000a900473ffffffffffffffffffffffffffffffffffffffff1673ffffffffffffffffffffffffffffffffffffffff16610fb56117ee565b73ffffffffffffffffffffffffffffffffffffffff1614905090565b6060600280548060200260200160405190810160405280929190818152602001828054801561105557602002820191906000526020600020905b8160009054906101000a900473ffffffffffffffffffffffffffffffffffffffff1673ffffffffffffffffffffffffffffffffffffffff168152602001906001019080831161100b575b5050505050905090565b60028181548110151561106e57fe5b906000526020600020016000915054906101000a900473ffffffffffffffffffffffffffffffffffffffff1681565b6110a5610f73565b1515611119576040517f08c379a00000000000000000000000000000000000000000000000000000000081526004018080602001828103825260208152602001807f4f776e61626c653a2063616c6c6572206973206e6f7420746865206f776e657281525060200191505060405180910390fd5b600073ffffffffffffffffffffffffffffffffffffffff166004600086815260200190815260200160002060009054906101000a900473ffffffffffffffffffffffffffffffffffffffff1673ffffffffffffffffffffffffffffffffffffffff161415156111f0576040517f08c379a00000000000000000000000000000000000000000000000000000000081526004018080602001828103825260178152602001807f50726f6a65637420616c7265616479206372656174656400000000000000000081525060200191505060405180910390fd5b60011515600660008473ffffffffffffffffffffffffffffffffffffffff1673ffffffffffffffffffffffffffffffffffffffff16815260200190815260200160002060020160009054906101000a900460ff1615151415156112bb576040517f08c379a00000000000000000000000000000000000000000000000000000000081526004018080602001828103825260138152602001807f5573657220646f6573206e6f742065786973740000000000000000000000000081525060200191505060405180910390fd5b600084848433856112ca61197f565b808681526020018581526020018473ffffffffffffffffffffffffffffffffffffffff1673ffffffffffffffffffffffffffffffffffffffff1681526020018373ffffffffffffffffffffffffffffffffffffffff1673ffffffffffffffffffffffffffffffffffffffff16815260200182815260200195505050505050604051809103906000f080158015611364573d6000803e3d6000fd5b509050806004600087815260200190815260200160002060006101000a81548173ffffffffffffffffffffffffffffffffffffffff021916908373ffffffffffffffffffffffffffffffffffffffff16021790555060028190806001815401808255809150509060018203906000526020600020016000909192909190916101000a81548173ffffffffffffffffffffffffffffffffffffffff021916908373ffffffffffffffffffffffffffffffffffffffff16021790555050600560008473ffffffffffffffffffffffffffffffffffffffff1673ffffffffffffffffffffffffffffffffffffffff1681526020019081526020016000208190806001815401808255809150509060018203906000526020600020016000909192909190916101000a81548173ffffffffffffffffffffffffffffffffffffffff021916908373ffffffffffffffffffffffffffffffffffffffff160217905550507fbb703aa7f8a7bebc43ea190212c9ab3aeb3ea9de189188823994f06acd262fa381604051808273ffffffffffffffffffffffffffffffffffffffff1673ffffffffffffffffffffffffffffffffffffffff16815260200191505060405180910390a15050505050565b60056020528160005260406000208181548110151561154757fe5b906000526020600020016000915091509054906101000a900473ffffffffffffffffffffffffffffffffffffffff1681565b6000806060600660008573ffffffffffffffffffffffffffffffffffffffff1673ffffffffffffffffffffffffffffffffffffffff16815260200190815260200160002060000154600660008673ffffffffffffffffffffffffffffffffffffffff1673ffffffffffffffffffffffffffffffffffffffff16815260200190815260200160002060010154600560008773ffffffffffffffffffffffffffffffffffffffff1673ffffffffffffffffffffffffffffffffffffffff168152602001908152602001600020808054806020026020016040519081016040528092919081815260200182805480156116c457602002820191906000526020600020905b8160009054906101000a900473ffffffffffffffffffffffffffffffffffffffff1673ffffffffffffffffffffffffffffffffffffffff168152602001906001019080831161167a575b505050505090509250925092509193909250565b6060600380548060200260200160405190810160405280929190818152602001828054801561175c57602002820191906000526020600020905b8160009054906101000a900473ffffffffffffffffffffffffffffffffffffffff1673ffffffffffffffffffffffffffffffffffffffff1681526020019060010190808311611712575b5050505050905090565b61176e610f73565b15156117e2576040517f08c379a00000000000000000000000000000000000000000000000000000000081526004018080602001828103825260208152602001807f4f776e61626c653a2063616c6c6572206973206e6f7420746865206f776e657281525060200191505060405180910390fd5b6117eb816117f6565b50565b600033905090565b600073ffffffffffffffffffffffffffffffffffffffff168173ffffffffffffffffffffffffffffffffffffffff16141515156118c1576040517f08c379a00000000000000000000000000000000000000000000000000000000081526004018080602001828103825260268152602001807f4f776e61626c653a206e6577206f776e657220697320746865207a65726f206181526020017f646472657373000000000000000000000000000000000000000000000000000081525060400191505060405180910390fd5b8073ffffffffffffffffffffffffffffffffffffffff166000809054906101000a900473ffffffffffffffffffffffffffffffffffffffff1673ffffffffffffffffffffffffffffffffffffffff167f8be0079c531659141344cd1fd0a4f28419497f9722a3daafe3b4186f6b6457e060405160405180910390a3806000806101000a81548173ffffffffffffffffffffffffffffffffffffffff021916908373ffffffffffffffffffffffffffffffffffffffff16021790555050565b60405161188c806119908339019056fe608060405234801561001057600080fd5b5060405160a08061188c833981018060405260a081101561003057600080fd5b810190808051906020019092919080519060200190929190805190602001909291908051906020019092919080519060200190929190505050846000819055508360048190555082600160026101000a81548173ffffffffffffffffffffffffffffffffffffffff021916908373ffffffffffffffffffffffffffffffffffffffff16021790555033600260006101000a81548173ffffffffffffffffffffffffffffffffffffffff021916908373ffffffffffffffffffffffffffffffffffffffff16021790555081600360006101000a81548173ffffffffffffffffffffffffffffffffffffffff021916908373ffffffffffffffffffffffffffffffffffffffff1602179055508060058190555060018060016101000a81548160ff021916908315150217905550505050505061171d8061016f6000396000f3fe6080604052600436106100af576000357c0100000000000000000000000000000000000000000000000000000000900463ffffffff168063290127cd146100b457806339571d6e14610120578063610be6541461025a57806367f71cb9146102715780637569b184146102e45780637643d7311461033f578063b4e830f1146103ba578063cdee934e146103d1578063d525201514610420578063d98c10bc146104a5578063e7f497f014610511575b600080fd5b3480156100c057600080fd5b506100c96105be565b6040518080602001828103825283818151815260200191508051906020019060200280838360005b8381101561010c5780820151818401526020810190506100f1565b505050509050019250505060405180910390f35b34801561012c57600080fd5b5061013561064c565b604051808981526020018873ffffffffffffffffffffffffffffffffffffffff1673ffffffffffffffffffffffffffffffffffffffff1681526020018781526020018681526020018515151515815260200180602001806020018473ffffffffffffffffffffffffffffffffffffffff1673ffffffffffffffffffffffffffffffffffffffff168152602001838103835286818151815260200191508051906020019060200280838360005b838110156101fc5780820151818401526020810190506101e1565b50505050905001838103825285818151815260200191508051906020019060200280838360005b8381101561023e578082015181840152602081019050610223565b505050509050019a505050505050505050505060405180910390f35b34801561026657600080fd5b5061026f61078e565b005b34801561027d57600080fd5b506102e2600480360360c081101561029457600080fd5b8101908080359060200190929190803560ff169060200190929190803560ff16906020019092919080359060200190929190803590602001909291908035906020019092919050505061089b565b005b3480156102f057600080fd5b5061033d6004803603604081101561030757600080fd5b81019080803573ffffffffffffffffffffffffffffffffffffffff16906020019092919080359060200190929190505050610d2b565b005b34801561034b57600080fd5b506103786004803603602081101561036257600080fd5b81019080803590602001909291905050506111b7565b604051808273ffffffffffffffffffffffffffffffffffffffff1673ffffffffffffffffffffffffffffffffffffffff16815260200191505060405180910390f35b3480156103c657600080fd5b506103cf6111f5565b005b3480156103dd57600080fd5b5061040a600480360360208110156103f457600080fd5b81019080803590602001909291905050506113b3565b6040518082815260200191505060405180910390f35b34801561042c57600080fd5b506104596004803603602081101561044357600080fd5b81019080803590602001909291905050506113d6565b604051808881526020018781526020018681526020018560ff1660ff1681526020018460ff1660ff16815260200183815260200182815260200197505050505050505060405180910390f35b3480156104b157600080fd5b506104ba611543565b6040518080602001828103825283818151815260200191508051906020019060200280838360005b838110156104fd5780820151818401526020810190506104e2565b505050509050019250505060405180910390f35b34801561051d57600080fd5b506105606004803603602081101561053457600080fd5b81019080803573ffffffffffffffffffffffffffffffffffffffff16906020019092919050505061159b565b6040518083815260200180602001828103825283818151815260200191508051906020019060200280838360005b838110156105a957808201518184015260208101905061058e565b50505050905001935050505060405180910390f35b6060600680548060200260200160405190810160405280929190818152602001828054801561064257602002820191906000526020600020905b8160009054906101000a900473ffffffffffffffffffffffffffffffffffffffff1673ffffffffffffffffffffffffffffffffffffffff16815260200190600101908083116105f8575b5050505050905090565b60008060008060006060806000600454600160029054906101000a900473ffffffffffffffffffffffffffffffffffffffff16600054600554600160009054906101000a900460ff166007600630828054806020026020016040519081016040528092919081815260200182805480156106e557602002820191906000526020600020905b8154815260200190600101908083116106d1575b505050505092508180548060200260200160405190810160405280929190818152602001828054801561076d57602002820191906000526020600020905b8160009054906101000a900473ffffffffffffffffffffffffffffffffffffffff1673ffffffffffffffffffffffffffffffffffffffff1681526020019060010190808311610723575b50505050509150975097509750975097509750975097509091929394959697565b600360009054906101000a900473ffffffffffffffffffffffffffffffffffffffff1673ffffffffffffffffffffffffffffffffffffffff163373ffffffffffffffffffffffffffffffffffffffff16141515610853576040517f08c379a000000000000000000000000000000000000000000000000000000000815260040180806020018281038252601f8152602001807f48617320746f206265204d6174657269616c204f7267616e697a6174696f6e0081525060200191505060405180910390fd5b60006001806101000a81548160ff0219169083151502179055507fdd2d87603957aa30528bbb6ece5f26fb72b6e34738d004ddf70c393ef7894ef960405160405180910390a1565b6000600102600a60003373ffffffffffffffffffffffffffffffffffffffff1673ffffffffffffffffffffffffffffffffffffffff1681526020019081526020016000206000015414151515610959576040517f08c379a000000000000000000000000000000000000000000000000000000000815260040180806020018281038252601d8152602001807f48617320746f20626520737570706c696572206f662070726f6a65637400000081525060200191505060405180910390fd5b60011515600160009054906101000a900460ff161515141515610a0a576040517f08c379a00000000000000000000000000000000000000000000000000000000081526004018080602001828103825260218152602001807f50726f6a656374206973206e6f7420617070726f76656420627920636c69656e81526020017f740000000000000000000000000000000000000000000000000000000000000081525060400191505060405180910390fd5b60006009600088815260200190815260200160002060050154141515610a98576040517f08c379a00000000000000000000000000000000000000000000000000000000081526004018080602001828103825260188152602001807f446f63756d656e7420616c72656164792063726561746564000000000000000081525060200191505060405180910390fd5b6000600260009054906101000a900473ffffffffffffffffffffffffffffffffffffffff16905060008173ffffffffffffffffffffffffffffffffffffffff166381e19490306040518263ffffffff167c0100000000000000000000000000000000000000000000000000000000028152600401808273ffffffffffffffffffffffffffffffffffffffff1673ffffffffffffffffffffffffffffffffffffffff168152602001915050602060405180830381600087803b158015610b5c57600080fd5b505af1158015610b70573d6000803e3d6000fd5b505050506040513d6020811015610b8657600080fd5b8101908080519060200190929190505050905060e0604051908101604052808581526020018481526020018681526020018860ff1681526020018760ff16815260200182815260200142815250600960008a815260200190815260200160002060008201518160000155602082015181600101556040820151816002015560608201518160030160006101000a81548160ff021916908360ff16021790555060808201518160030160016101000a81548160ff021916908360ff16021790555060a0820151816004015560c082015181600501559050506007889080600181540180825580915050906001820390600052602060002001600090919290919091505550600a60003373ffffffffffffffffffffffffffffffffffffffff1673ffffffffffffffffffffffffffffffffffffffff1681526020019081526020016000206001018890806001815401808255809150509060018203906000526020600020016000909192909190915055507f0ac146a5629d2541f754db3df5197733e7c3002b8cfe1da2416abd2c9a49c28c60405160405180910390a15050505050505050565b600360009054906101000a900473ffffffffffffffffffffffffffffffffffffffff1673ffffffffffffffffffffffffffffffffffffffff163373ffffffffffffffffffffffffffffffffffffffff16141515610df0576040517f08c379a000000000000000000000000000000000000000000000000000000000815260040180806020018281038252601f8152602001807f48617320746f206265204d6174657269616c204f7267616e697a6174696f6e0081525060200191505060405180910390fd5b6000600102600a60008473ffffffffffffffffffffffffffffffffffffffff1673ffffffffffffffffffffffffffffffffffffffff16815260200190815260200160002060000154141515610ead576040517f08c379a00000000000000000000000000000000000000000000000000000000081526004018080602001828103825260178152602001807f50726f6365737320616c7265616479206372656174656400000000000000000081525060200191505060405180910390fd5b60001515600160009054906101000a900460ff161515141515610f5e576040517f08c379a00000000000000000000000000000000000000000000000000000000081526004018080602001828103825260258152602001807f50726f6a65637420697320616c726561647920617070726f766564206279206381526020017f6c69656e7400000000000000000000000000000000000000000000000000000081525060400191505060405180910390fd5b6000600260009054906101000a900473ffffffffffffffffffffffffffffffffffffffff1690508073ffffffffffffffffffffffffffffffffffffffff1663898b659f84306040518363ffffffff167c0100000000000000000000000000000000000000000000000000000000028152600401808373ffffffffffffffffffffffffffffffffffffffff1673ffffffffffffffffffffffffffffffffffffffff1681526020018273ffffffffffffffffffffffffffffffffffffffff1673ffffffffffffffffffffffffffffffffffffffff16815260200192505050600060405180830381600087803b15801561105457600080fd5b505af1158015611068573d6000803e3d6000fd5b505050506060600060405190808252806020026020018201604052801561109e5781602001602082028038833980820191505090505b50905060068490806001815401808255809150509060018203906000526020600020016000909192909190916101000a81548173ffffffffffffffffffffffffffffffffffffffff021916908373ffffffffffffffffffffffffffffffffffffffff16021790555050604080519081016040528084815260200182815250600a60008673ffffffffffffffffffffffffffffffffffffffff1673ffffffffffffffffffffffffffffffffffffffff16815260200190815260200160002060008201518160000155602082015181600101908051906020019061118192919061167f565b509050507f0346a5dd0e6acde7619febdd0d7f470611f6f002fb8cee5f164a3ab74854ec5b60405160405180910390a150505050565b6006818154811015156111c657fe5b906000526020600020016000915054906101000a900473ffffffffffffffffffffffffffffffffffffffff1681565b600160029054906101000a900473ffffffffffffffffffffffffffffffffffffffff1673ffffffffffffffffffffffffffffffffffffffff163373ffffffffffffffffffffffffffffffffffffffff161415156112e0576040517f08c379a00000000000000000000000000000000000000000000000000000000081526004018080602001828103825260378152602001807f4f6e6c7920636c69656e7473206f6620746869732070726f6a6563742063616e81526020017f207265616c697a652074686973206f7065726174696f6e00000000000000000081525060400191505060405180910390fd5b60001515600160009054906101000a900460ff16151514151561136b576040517f08c379a00000000000000000000000000000000000000000000000000000000081526004018080602001828103825260188152602001807f50726f6a65637420616c726561647920617070726f766564000000000000000081525060200191505060405180910390fd5b60018060006101000a81548160ff0219169083151502179055507fe69f676c299b333dca8f06fbbad2158afb93499d1eaf331570780e6afc33889a60405160405180910390a1565b6007818154811015156113c257fe5b906000526020600020016000915090505481565b600080600080600080600080600960008a8152602001908152602001600020600501541415151561146f576040517f08c379a00000000000000000000000000000000000000000000000000000000081526004018080602001828103825260178152602001807f446f63756d656e7420646f6573206e6f7420657869737400000000000000000081525060200191505060405180910390fd5b6009600089815260200190815260200160002060000154600960008a815260200190815260200160002060010154600960008b815260200190815260200160002060020154600960008c815260200190815260200160002060030160009054906101000a900460ff16600960008d815260200190815260200160002060030160019054906101000a900460ff16600960008e815260200190815260200160002060040154600960008f8152602001908152602001600020600501549650965096509650965096509650919395979092949650565b6060600780548060200260200160405190810160405280929190818152602001828054801561159157602002820191906000526020600020905b81548152602001906001019080831161157d575b5050505050905090565b60006060600a60008473ffffffffffffffffffffffffffffffffffffffff1673ffffffffffffffffffffffffffffffffffffffff16815260200190815260200160002060000154600a60008573ffffffffffffffffffffffffffffffffffffffff1673ffffffffffffffffffffffffffffffffffffffff1681526020019081526020016000206001018080548060200260200160405190810160405280929190818152602001828054801561166f57602002820191906000526020600020905b81548152602001906001019080831161165b575b5050505050905091509150915091565b8280548282559060005260206000209081019282156116bb579160200282015b828111156116ba57825182559160200191906001019061169f565b5b5090506116c891906116cc565b5090565b6116ee91905b808211156116ea5760008160009055506001016116d2565b5090565b9056fea165627a7a72305820f5b72dd8760bcffe86f31b4c7f31f82127b1ea75bb4a09da6f90d63ea2ddd2de0029a165627a7a723058202f5e9111978a178f662de51d206b4284b35e4512c7daf9f1594f567265d0f39a0029",
  "source": "pragma solidity >=0.5.0 <0.7.0;\r\n\r\nimport \"./Ownable.sol\";\r\nimport \"./Project.sol\";\r\n\r\ncontract NuclearPoE is Ownable {\r\n\r\n    uint public docNumber = 0;\r\n\r\n    struct User {\r\n        bytes32 name;\r\n        uint userType;\r\n        bool created;\r\n    }\r\n\r\n    address[] public projectContractsArray;\r\n    address[] public userArray;\r\n\r\n    mapping(uint => address) public projectContract;\r\n    mapping(address => address[]) public userProjectContracts;\r\n    mapping(address => User) public user;\r\n\r\n    modifier onlyProjectContract(address _projectAddress) {\r\n        require(msg.sender == _projectAddress, \"Sender has to be project Contract\");\r\n    _;\r\n    }\r\n\r\n    event CreateProject(address newProjectContractAddress);\r\n    event CreateUser();\r\n\r\n    function createProject(uint _expediente, bytes32 _projectTitle, address _userAddress, bytes32 _oc) external onlyOwner() {\r\n        require(projectContract[_expediente] == address(0), \"Project already created\");\r\n        require(user[_userAddress].created == true, \"User does not exist\");\r\n\r\n        address ProjectContractAddress = address(new Project(_expediente, _projectTitle, _userAddress, msg.sender, _oc));\r\n        projectContract[_expediente] = ProjectContractAddress;\r\n        projectContractsArray.push(ProjectContractAddress);\r\n\r\n        userProjectContracts[_userAddress].push(ProjectContractAddress);\r\n\r\n        emit CreateProject(ProjectContractAddress);\r\n    }\r\n\r\n    function createUser(address _userAddress, uint _userType, bytes32 _userName) external onlyOwner() {\r\n        require(user[_userAddress].created == false, \"User already created\");\r\n\r\n        user[_userAddress] = User(_userName, _userType, true);\r\n        userArray.push(_userAddress);\r\n\r\n        emit CreateUser();\r\n    }\r\n\r\n    function incrementDocNumber(address _projectAddress) external onlyProjectContract(_projectAddress) returns(uint) {\r\n        docNumber++;\r\n        return docNumber;\r\n    }\r\n\r\n    function addSupplierToProject(address _supplierAddress, address _projectAddress) external onlyProjectContract(_projectAddress) {\r\n        require(user[_supplierAddress].created == true, \"User does not exist\");\r\n\r\n        userProjectContracts[_supplierAddress].push(_projectAddress);\r\n    }\r\n\r\n    function getAllProjectContract() external view returns(address[] memory) {\r\n        return projectContractsArray;\r\n    }\r\n\r\n    function getAllUsers() external view returns(address[] memory) {\r\n        return userArray;\r\n    }\r\n\r\n    function getUserDetails(address _address) external view returns(bytes32, uint, address[] memory) {\r\n        return (user[_address].name, user[_address].userType, userProjectContracts[_address]);\r\n    }\r\n\r\n}",
  "sourcePath": "C:\\Users\\smartinez.nuclearis\\Documents\\GitHub\\NUCLEARIS-Material-Organization\\contracts\\NuclearPoE.sol",
  "compiler": {
    "name": "solc",
    "version": "0.5.0+commit.1d4f565a.Emscripten.clang"
  },
  "schemaVersion": "3.0.5",
  "updatedAt": "2019-10-29T19:33:28.775Z",
  "devdoc": {
    "methods": {
      "isOwner()": {
        "details": "Returns true if the caller is the current owner.\r"
      },
      "owner()": {
        "details": "Returns the address of the current owner.\r"
      },
      "renounceOwnership()": {
        "details": "Leaves the contract without owner. It will not be possible to call\r `onlyOwner` functions anymore. Can only be called by the current owner.\r      * NOTE: Renouncing ownership will leave the contract without an owner,\r thereby removing any functionality that is only available to the owner.\r"
      },
      "transferOwnership(address)": {
        "details": "Transfers ownership of the contract to a new account (`newOwner`).\r Can only be called by the current owner.\r"
      }
    }
  },
  "userdoc": {
    "methods": {}
  }
}