{
  "contractName": "NuclearPoE",
  "abi": [
    {
      "constant": true,
      "inputs": [],
      "name": "docNumber",
      "outputs": [
        {
          "name": "",
          "type": "uint256"
        }
      ],
      "payable": false,
      "stateMutability": "view",
      "type": "function",
      "signature": "0x09b0466b"
    },
    {
      "constant": true,
      "inputs": [
        {
          "name": "",
          "type": "uint256"
        }
      ],
      "name": "usersArray",
      "outputs": [
        {
          "name": "",
          "type": "address"
        }
      ],
      "payable": false,
      "stateMutability": "view",
      "type": "function",
      "signature": "0x2fae35c0"
    },
    {
      "constant": true,
      "inputs": [
        {
          "name": "",
          "type": "uint256"
        }
      ],
      "name": "projectsArray",
      "outputs": [
        {
          "name": "",
          "type": "uint256"
        }
      ],
      "payable": false,
      "stateMutability": "view",
      "type": "function",
      "signature": "0x64b785fa"
    },
    {
      "constant": false,
      "inputs": [],
      "name": "renounceOwnership",
      "outputs": [],
      "payable": false,
      "stateMutability": "nonpayable",
      "type": "function",
      "signature": "0x715018a6"
    },
    {
      "constant": true,
      "inputs": [
        {
          "name": "",
          "type": "address"
        }
      ],
      "name": "user",
      "outputs": [
        {
          "name": "name",
          "type": "bytes32"
        },
        {
          "name": "userType",
          "type": "uint8"
        },
        {
          "name": "created",
          "type": "bool"
        }
      ],
      "payable": false,
      "stateMutability": "view",
      "type": "function",
      "signature": "0x81e7e20e"
    },
    {
      "constant": true,
      "inputs": [],
      "name": "owner",
      "outputs": [
        {
          "name": "",
          "type": "address"
        }
      ],
      "payable": false,
      "stateMutability": "view",
      "type": "function",
      "signature": "0x8da5cb5b"
    },
    {
      "constant": true,
      "inputs": [],
      "name": "isOwner",
      "outputs": [
        {
          "name": "",
          "type": "bool"
        }
      ],
      "payable": false,
      "stateMutability": "view",
      "type": "function",
      "signature": "0x8f32d59b"
    },
    {
      "constant": true,
      "inputs": [
        {
          "name": "",
          "type": "address"
        },
        {
          "name": "",
          "type": "uint256"
        }
      ],
      "name": "userProjectContracts",
      "outputs": [
        {
          "name": "",
          "type": "uint256"
        }
      ],
      "payable": false,
      "stateMutability": "view",
      "type": "function",
      "signature": "0xc1792d05"
    },
    {
      "constant": true,
      "inputs": [
        {
          "name": "",
          "type": "uint256"
        }
      ],
      "name": "processContractsArray",
      "outputs": [
        {
          "name": "",
          "type": "address"
        }
      ],
      "payable": false,
      "stateMutability": "view",
      "type": "function",
      "signature": "0xe6c39930"
    },
    {
      "constant": false,
      "inputs": [
        {
          "name": "newOwner",
          "type": "address"
        }
      ],
      "name": "transferOwnership",
      "outputs": [],
      "payable": false,
      "stateMutability": "nonpayable",
      "type": "function",
      "signature": "0xf2fde38b"
    },
    {
      "anonymous": false,
      "inputs": [],
      "name": "CreateProject",
      "type": "event",
      "signature": "0xbab479b5b86675be7215930d13339d95c3af3099f28b31caf6cac1c3a08c3da7"
    },
    {
      "anonymous": false,
      "inputs": [],
      "name": "CreateUser",
      "type": "event",
      "signature": "0xdf39eb8e1857414a3a40d5964987610c5f80d0d28a16f33fa749ac85d9051666"
    },
    {
      "anonymous": false,
      "inputs": [
        {
          "indexed": false,
          "name": "ProcessContractAddress",
          "type": "address"
        }
      ],
      "name": "CreateProcess",
      "type": "event",
      "signature": "0x908a1d72896b3c6e31c2e9ac8d65ae9676a54dd26195d4496442c50ff1b0b797"
    },
    {
      "anonymous": false,
      "inputs": [],
      "name": "CloseProject",
      "type": "event",
      "signature": "0xdd2d87603957aa30528bbb6ece5f26fb72b6e34738d004ddf70c393ef7894ef9"
    },
    {
      "anonymous": false,
      "inputs": [
        {
          "indexed": true,
          "name": "previousOwner",
          "type": "address"
        },
        {
          "indexed": true,
          "name": "newOwner",
          "type": "address"
        }
      ],
      "name": "OwnershipTransferred",
      "type": "event",
      "signature": "0x8be0079c531659141344cd1fd0a4f28419497f9722a3daafe3b4186f6b6457e0"
    },
    {
      "constant": false,
      "inputs": [
        {
          "name": "_expediente",
          "type": "uint256"
        },
        {
          "name": "_clientAddress",
          "type": "address"
        },
        {
          "name": "title",
          "type": "bytes32"
        },
        {
          "name": "oc",
          "type": "bytes32"
        }
      ],
      "name": "createProject",
      "outputs": [],
      "payable": false,
      "stateMutability": "nonpayable",
      "type": "function",
      "signature": "0x66c3e861"
    },
    {
      "constant": false,
      "inputs": [
        {
          "name": "_userAddress",
          "type": "address"
        },
        {
          "name": "_userType",
          "type": "uint8"
        },
        {
          "name": "_userName",
          "type": "bytes32"
        }
      ],
      "name": "createUser",
      "outputs": [],
      "payable": false,
      "stateMutability": "nonpayable",
      "type": "function",
      "signature": "0x457b048f"
    },
    {
      "constant": false,
      "inputs": [
        {
          "name": "_supplierAddress",
          "type": "address"
        },
        {
          "name": "_processName",
          "type": "bytes32"
        }
      ],
      "name": "createProcess",
      "outputs": [],
      "payable": false,
      "stateMutability": "nonpayable",
      "type": "function",
      "signature": "0xfb4e2c79"
    },
    {
      "constant": false,
      "inputs": [
        {
          "name": "_expediente",
          "type": "uint256"
        },
        {
          "name": "_processContract",
          "type": "address"
        }
      ],
      "name": "addProcessToProject",
      "outputs": [],
      "payable": false,
      "stateMutability": "nonpayable",
      "type": "function",
      "signature": "0x73f04d7f"
    },
    {
      "constant": false,
      "inputs": [
        {
          "name": "_expediente",
          "type": "uint256"
        }
      ],
      "name": "closeProject",
      "outputs": [],
      "payable": false,
      "stateMutability": "nonpayable",
      "type": "function",
      "signature": "0x93dc12e6"
    },
    {
      "constant": false,
      "inputs": [
        {
          "name": "_processAddress",
          "type": "address"
        }
      ],
      "name": "incrementDocNumber",
      "outputs": [
        {
          "name": "",
          "type": "uint256"
        }
      ],
      "payable": false,
      "stateMutability": "nonpayable",
      "type": "function",
      "signature": "0x81e19490"
    },
    {
      "constant": true,
      "inputs": [],
      "name": "getAllProcessContracts",
      "outputs": [
        {
          "name": "",
          "type": "address[]"
        }
      ],
      "payable": false,
      "stateMutability": "view",
      "type": "function",
      "signature": "0x75cae8c0"
    },
    {
      "constant": true,
      "inputs": [],
      "name": "getAllProjects",
      "outputs": [
        {
          "name": "",
          "type": "uint256[]"
        }
      ],
      "payable": false,
      "stateMutability": "view",
      "type": "function",
      "signature": "0x80d03829"
    },
    {
      "constant": true,
      "inputs": [],
      "name": "getAllUsers",
      "outputs": [
        {
          "name": "",
          "type": "address[]"
        }
      ],
      "payable": false,
      "stateMutability": "view",
      "type": "function",
      "signature": "0xe2842d79"
    },
    {
      "constant": true,
      "inputs": [
        {
          "name": "_address",
          "type": "address"
        }
      ],
      "name": "getUserDetails",
      "outputs": [
        {
          "name": "",
          "type": "bytes32"
        },
        {
          "name": "",
          "type": "uint8"
        },
        {
          "name": "",
          "type": "uint256[]"
        }
      ],
      "payable": false,
      "stateMutability": "view",
      "type": "function",
      "signature": "0xcc3d967b"
    },
    {
      "constant": true,
      "inputs": [
        {
          "name": "_expediente",
          "type": "uint256"
        }
      ],
      "name": "getProjectDetails",
      "outputs": [
        {
          "name": "",
          "type": "bool"
        },
        {
          "name": "",
          "type": "address"
        },
        {
          "name": "",
          "type": "bytes32"
        },
        {
          "name": "",
          "type": "bytes32"
        },
        {
          "name": "",
          "type": "address[]"
        }
      ],
      "payable": false,
      "stateMutability": "view",
      "type": "function",
      "signature": "0x5f8439e3"
    }
  ],
  "bytecode": "0x6080604052600060015560006100226100c5640100000000026401000000009004565b9050806000806101000a81548173ffffffffffffffffffffffffffffffffffffffff021916908373ffffffffffffffffffffffffffffffffffffffff1602179055508073ffffffffffffffffffffffffffffffffffffffff16600073ffffffffffffffffffffffffffffffffffffffff167f8be0079c531659141344cd1fd0a4f28419497f9722a3daafe3b4186f6b6457e060405160405180910390a3506100cd565b600033905090565b612a28806100dc6000396000f3fe60806040526004361061011d576000357c0100000000000000000000000000000000000000000000000000000000900463ffffffff16806309b0466b146101225780632fae35c01461014d578063457b048f146101c85780635f8439e31461023057806364b785fa1461030c57806366c3e8611461035b578063715018a6146103ca57806373f04d7f146103e157806375cae8c01461043c57806380d03829146104a857806381e194901461051457806381e7e20e146105795780638da5cb5b146105f65780638f32d59b1461064d57806393dc12e61461067c578063c1792d05146106b7578063cc3d967b14610726578063e2842d79146107e0578063e6c399301461084c578063f2fde38b146108c7578063fb4e2c7914610918575b600080fd5b34801561012e57600080fd5b50610137610973565b6040518082815260200191505060405180910390f35b34801561015957600080fd5b506101866004803603602081101561017057600080fd5b8101908080359060200190929190505050610979565b604051808273ffffffffffffffffffffffffffffffffffffffff1673ffffffffffffffffffffffffffffffffffffffff16815260200191505060405180910390f35b3480156101d457600080fd5b5061022e600480360360608110156101eb57600080fd5b81019080803573ffffffffffffffffffffffffffffffffffffffff169060200190929190803560ff169060200190929190803590602001909291905050506109b7565b005b34801561023c57600080fd5b506102696004803603602081101561025357600080fd5b8101908080359060200190929190505050610c44565b60405180861515151581526020018573ffffffffffffffffffffffffffffffffffffffff1673ffffffffffffffffffffffffffffffffffffffff16815260200184815260200183815260200180602001828103825283818151815260200191508051906020019060200280838360005b838110156102f45780820151818401526020810190506102d9565b50505050905001965050505050505060405180910390f35b34801561031857600080fd5b506103456004803603602081101561032f57600080fd5b8101908080359060200190929190505050610d86565b6040518082815260200191505060405180910390f35b34801561036757600080fd5b506103c86004803603608081101561037e57600080fd5b8101908080359060200190929190803573ffffffffffffffffffffffffffffffffffffffff1690602001909291908035906020019092919080359060200190929190505050610da9565b005b3480156103d657600080fd5b506103df61117b565b005b3480156103ed57600080fd5b5061043a6004803603604081101561040457600080fd5b8101908080359060200190929190803573ffffffffffffffffffffffffffffffffffffffff1690602001909291905050506112b6565b005b34801561044857600080fd5b506104516113b0565b6040518080602001828103825283818151815260200191508051906020019060200280838360005b83811015610494578082015181840152602081019050610479565b505050509050019250505060405180910390f35b3480156104b457600080fd5b506104bd61143e565b6040518080602001828103825283818151815260200191508051906020019060200280838360005b838110156105005780820151818401526020810190506104e5565b505050509050019250505060405180910390f35b34801561052057600080fd5b506105636004803603602081101561053757600080fd5b81019080803573ffffffffffffffffffffffffffffffffffffffff169060200190929190505050611496565b6040518082815260200191505060405180910390f35b34801561058557600080fd5b506105c86004803603602081101561059c57600080fd5b81019080803573ffffffffffffffffffffffffffffffffffffffff16906020019092919050505061157f565b604051808481526020018360ff1660ff16815260200182151515158152602001935050505060405180910390f35b34801561060257600080fd5b5061060b6115c3565b604051808273ffffffffffffffffffffffffffffffffffffffff1673ffffffffffffffffffffffffffffffffffffffff16815260200191505060405180910390f35b34801561065957600080fd5b506106626115ec565b604051808215151515815260200191505060405180910390f35b34801561068857600080fd5b506106b56004803603602081101561069f57600080fd5b810190808035906020019092919050505061164a565b005b3480156106c357600080fd5b50610710600480360360408110156106da57600080fd5b81019080803573ffffffffffffffffffffffffffffffffffffffff16906020019092919080359060200190929190505050611724565b6040518082815260200191505060405180910390f35b34801561073257600080fd5b506107756004803603602081101561074957600080fd5b81019080803573ffffffffffffffffffffffffffffffffffffffff169060200190929190505050611754565b604051808481526020018360ff1660ff16815260200180602001828103825283818151815260200191508051906020019060200280838360005b838110156107ca5780820151818401526020810190506107af565b5050505090500194505050505060405180910390f35b3480156107ec57600080fd5b506107f561188a565b6040518080602001828103825283818151815260200191508051906020019060200280838360005b8381101561083857808201518184015260208101905061081d565b505050509050019250505060405180910390f35b34801561085857600080fd5b506108856004803603602081101561086f57600080fd5b8101908080359060200190929190505050611918565b604051808273ffffffffffffffffffffffffffffffffffffffff1673ffffffffffffffffffffffffffffffffffffffff16815260200191505060405180910390f35b3480156108d357600080fd5b50610916600480360360208110156108ea57600080fd5b81019080803573ffffffffffffffffffffffffffffffffffffffff169060200190929190505050611956565b005b34801561092457600080fd5b506109716004803603604081101561093b57600080fd5b81019080803573ffffffffffffffffffffffffffffffffffffffff169060200190929190803590602001909291905050506119de565b005b60015481565b60048181548110151561098857fe5b906000526020600020016000915054906101000a900473ffffffffffffffffffffffffffffffffffffffff1681565b6109bf6115ec565b1515610a33576040517f08c379a00000000000000000000000000000000000000000000000000000000081526004018080602001828103825260208152602001807f4f776e61626c653a2063616c6c6572206973206e6f7420746865206f776e657281525060200191505060405180910390fd5b60001515600660008573ffffffffffffffffffffffffffffffffffffffff1673ffffffffffffffffffffffffffffffffffffffff16815260200190815260200160002060010160019054906101000a900460ff161515141515610afe576040517f08c379a00000000000000000000000000000000000000000000000000000000081526004018080602001828103825260148152602001807f5573657220616c7265616479206372656174656400000000000000000000000081525060200191505060405180910390fd5b6060604051908101604052808281526020018360ff16815260200160011515815250600660008573ffffffffffffffffffffffffffffffffffffffff1673ffffffffffffffffffffffffffffffffffffffff1681526020019081526020016000206000820151816000015560208201518160010160006101000a81548160ff021916908360ff16021790555060408201518160010160016101000a81548160ff02191690831515021790555090505060048390806001815401808255809150509060018203906000526020600020016000909192909190916101000a81548173ffffffffffffffffffffffffffffffffffffffff021916908373ffffffffffffffffffffffffffffffffffffffff160217905550507fdf39eb8e1857414a3a40d5964987610c5f80d0d28a16f33fa749ac85d905166660405160405180910390a1505050565b60008060008060606007600087815260200190815260200160002060000160009054906101000a900460ff166007600088815260200190815260200160002060000160019054906101000a900473ffffffffffffffffffffffffffffffffffffffff166007600089815260200190815260200160002060010154600760008a815260200190815260200160002060020154600760008b815260200190815260200160002060030180805480602002602001604051908101604052809291908181526020018280548015610d6c57602002820191906000526020600020905b8160009054906101000a900473ffffffffffffffffffffffffffffffffffffffff1673ffffffffffffffffffffffffffffffffffffffff1681526020019060010190808311610d22575b505050505090509450945094509450945091939590929450565b600381815481101515610d9557fe5b906000526020600020016000915090505481565b610db16115ec565b1515610e25576040517f08c379a00000000000000000000000000000000000000000000000000000000081526004018080602001828103825260208152602001807f4f776e61626c653a2063616c6c6572206973206e6f7420746865206f776e657281525060200191505060405180910390fd5b600015156007600086815260200190815260200160002060000160009054906101000a900460ff161515141515610ec4576040517f08c379a00000000000000000000000000000000000000000000000000000000081526004018080602001828103825260178152602001807f50726f6a65637420616c7265616479206372656174656400000000000000000081525060200191505060405180910390fd5b60011515600660008573ffffffffffffffffffffffffffffffffffffffff1673ffffffffffffffffffffffffffffffffffffffff16815260200190815260200160002060010160019054906101000a900460ff161515141515610f8f576040517f08c379a00000000000000000000000000000000000000000000000000000000081526004018080602001828103825260138152602001807f5573657220646f6573206e6f742065786973740000000000000000000000000081525060200191505060405180910390fd5b60606000604051908082528060200260200182016040528015610fc15781602001602082028038833980820191505090505b50905060a0604051908101604052806001151581526020018573ffffffffffffffffffffffffffffffffffffffff168152602001848152602001838152602001828152506007600087815260200190815260200160002060008201518160000160006101000a81548160ff02191690831515021790555060208201518160000160016101000a81548173ffffffffffffffffffffffffffffffffffffffff021916908373ffffffffffffffffffffffffffffffffffffffff160217905550604082015181600101556060820151816002015560808201518160030190805190602001906110af929190611e20565b50905050600560008573ffffffffffffffffffffffffffffffffffffffff1673ffffffffffffffffffffffffffffffffffffffff16815260200190815260200160002085908060018154018082558091505090600182039060005260206000200160009091929091909150555060038590806001815401808255809150509060018203906000526020600020016000909192909190915055507fbab479b5b86675be7215930d13339d95c3af3099f28b31caf6cac1c3a08c3da760405160405180910390a15050505050565b6111836115ec565b15156111f7576040517f08c379a00000000000000000000000000000000000000000000000000000000081526004018080602001828103825260208152602001807f4f776e61626c653a2063616c6c6572206973206e6f7420746865206f776e657281525060200191505060405180910390fd5b600073ffffffffffffffffffffffffffffffffffffffff166000809054906101000a900473ffffffffffffffffffffffffffffffffffffffff1673ffffffffffffffffffffffffffffffffffffffff167f8be0079c531659141344cd1fd0a4f28419497f9722a3daafe3b4186f6b6457e060405160405180910390a360008060006101000a81548173ffffffffffffffffffffffffffffffffffffffff021916908373ffffffffffffffffffffffffffffffffffffffff160217905550565b6112be6115ec565b1515611332576040517f08c379a00000000000000000000000000000000000000000000000000000000081526004018080602001828103825260208152602001807f4f776e61626c653a2063616c6c6572206973206e6f7420746865206f776e657281525060200191505060405180910390fd5b600760008381526020019081526020016000206003018190806001815401808255809150509060018203906000526020600020016000909192909190916101000a81548173ffffffffffffffffffffffffffffffffffffffff021916908373ffffffffffffffffffffffffffffffffffffffff160217905550505050565b6060600280548060200260200160405190810160405280929190818152602001828054801561143457602002820191906000526020600020905b8160009054906101000a900473ffffffffffffffffffffffffffffffffffffffff1673ffffffffffffffffffffffffffffffffffffffff16815260200190600101908083116113ea575b5050505050905090565b6060600380548060200260200160405190810160405280929190818152602001828054801561148c57602002820191906000526020600020905b815481526020019060010190808311611478575b5050505050905090565b6000818073ffffffffffffffffffffffffffffffffffffffff163373ffffffffffffffffffffffffffffffffffffffff16141515611562576040517f08c379a00000000000000000000000000000000000000000000000000000000081526004018080602001828103825260218152602001807f53656e6465722068617320746f2062652070726f6a65637420436f6e7472616381526020017f740000000000000000000000000000000000000000000000000000000000000081525060400191505060405180910390fd5b600160008154809291906001019190505550600154915050919050565b60066020528060005260406000206000915090508060000154908060010160009054906101000a900460ff16908060010160019054906101000a900460ff16905083565b60008060009054906101000a900473ffffffffffffffffffffffffffffffffffffffff16905090565b60008060009054906101000a900473ffffffffffffffffffffffffffffffffffffffff1673ffffffffffffffffffffffffffffffffffffffff1661162e611c8f565b73ffffffffffffffffffffffffffffffffffffffff1614905090565b6116526115ec565b15156116c6576040517f08c379a00000000000000000000000000000000000000000000000000000000081526004018080602001828103825260208152602001807f4f776e61626c653a2063616c6c6572206973206e6f7420746865206f776e657281525060200191505060405180910390fd5b60006007600083815260200190815260200160002060000160006101000a81548160ff0219169083151502179055507fdd2d87603957aa30528bbb6ece5f26fb72b6e34738d004ddf70c393ef7894ef960405160405180910390a150565b60056020528160005260406000208181548110151561173f57fe5b90600052602060002001600091509150505481565b6000806060600660008573ffffffffffffffffffffffffffffffffffffffff1673ffffffffffffffffffffffffffffffffffffffff16815260200190815260200160002060000154600660008673ffffffffffffffffffffffffffffffffffffffff1673ffffffffffffffffffffffffffffffffffffffff16815260200190815260200160002060010160009054906101000a900460ff16600560008773ffffffffffffffffffffffffffffffffffffffff1673ffffffffffffffffffffffffffffffffffffffff1681526020019081526020016000208080548060200260200160405190810160405280929190818152602001828054801561187657602002820191906000526020600020905b815481526020019060010190808311611862575b505050505090509250925092509193909250565b6060600480548060200260200160405190810160405280929190818152602001828054801561190e57602002820191906000526020600020905b8160009054906101000a900473ffffffffffffffffffffffffffffffffffffffff1673ffffffffffffffffffffffffffffffffffffffff16815260200190600101908083116118c4575b5050505050905090565b60028181548110151561192757fe5b906000526020600020016000915054906101000a900473ffffffffffffffffffffffffffffffffffffffff1681565b61195e6115ec565b15156119d2576040517f08c379a00000000000000000000000000000000000000000000000000000000081526004018080602001828103825260208152602001807f4f776e61626c653a2063616c6c6572206973206e6f7420746865206f776e657281525060200191505060405180910390fd5b6119db81611c97565b50565b6119e66115ec565b1515611a5a576040517f08c379a00000000000000000000000000000000000000000000000000000000081526004018080602001828103825260208152602001807f4f776e61626c653a2063616c6c6572206973206e6f7420746865206f776e657281525060200191505060405180910390fd5b60011515600660008473ffffffffffffffffffffffffffffffffffffffff1673ffffffffffffffffffffffffffffffffffffffff16815260200190815260200160002060010160019054906101000a900460ff161515141515611b25576040517f08c379a00000000000000000000000000000000000000000000000000000000081526004018080602001828103825260138152602001807f5573657220646f6573206e6f742065786973740000000000000000000000000081525060200191505060405180910390fd5b6000338383611b32611eaa565b808473ffffffffffffffffffffffffffffffffffffffff1673ffffffffffffffffffffffffffffffffffffffff1681526020018373ffffffffffffffffffffffffffffffffffffffff1673ffffffffffffffffffffffffffffffffffffffff1681526020018281526020019350505050604051809103906000f080158015611bbe573d6000803e3d6000fd5b50905060028190806001815401808255809150509060018203906000526020600020016000909192909190916101000a81548173ffffffffffffffffffffffffffffffffffffffff021916908373ffffffffffffffffffffffffffffffffffffffff160217905550507f908a1d72896b3c6e31c2e9ac8d65ae9676a54dd26195d4496442c50ff1b0b79781604051808273ffffffffffffffffffffffffffffffffffffffff1673ffffffffffffffffffffffffffffffffffffffff16815260200191505060405180910390a1505050565b600033905090565b600073ffffffffffffffffffffffffffffffffffffffff168173ffffffffffffffffffffffffffffffffffffffff1614151515611d62576040517f08c379a00000000000000000000000000000000000000000000000000000000081526004018080602001828103825260268152602001807f4f776e61626c653a206e6577206f776e657220697320746865207a65726f206181526020017f646472657373000000000000000000000000000000000000000000000000000081525060400191505060405180910390fd5b8073ffffffffffffffffffffffffffffffffffffffff166000809054906101000a900473ffffffffffffffffffffffffffffffffffffffff1673ffffffffffffffffffffffffffffffffffffffff167f8be0079c531659141344cd1fd0a4f28419497f9722a3daafe3b4186f6b6457e060405160405180910390a3806000806101000a81548173ffffffffffffffffffffffffffffffffffffffff021916908373ffffffffffffffffffffffffffffffffffffffff16021790555050565b828054828255906000526020600020908101928215611e99579160200282015b82811115611e985782518260006101000a81548173ffffffffffffffffffffffffffffffffffffffff021916908373ffffffffffffffffffffffffffffffffffffffff16021790555091602001919060010190611e40565b5b509050611ea69190611eba565b5090565b604051610aff80611efe83390190565b611efa91905b80821115611ef657600081816101000a81549073ffffffffffffffffffffffffffffffffffffffff021916905550600101611ec0565b5090565b9056fe608060405234801561001057600080fd5b50604051606080610aff8339810180604052606081101561003057600080fd5b81019080805190602001909291908051906020019092919080519060200190929190505050336000806101000a81548173ffffffffffffffffffffffffffffffffffffffff021916908373ffffffffffffffffffffffffffffffffffffffff16021790555082600160006101000a81548173ffffffffffffffffffffffffffffffffffffffff021916908373ffffffffffffffffffffffffffffffffffffffff16021790555081600260006101000a81548173ffffffffffffffffffffffffffffffffffffffff021916908373ffffffffffffffffffffffffffffffffffffffff160217905550806003819055505050506109cf806101306000396000f3fe60806040526004361061006d576000357c0100000000000000000000000000000000000000000000000000000000900463ffffffff16806367f71cb9146100725780639fa5f50b146100e5578063cdee934e14610151578063d5252015146101a0578063fbbf93a014610225575b600080fd5b34801561007e57600080fd5b506100e3600480360360c081101561009557600080fd5b8101908080359060200190929190803560ff169060200190929190803560ff169060200190929190803590602001909291908035906020019092919080359060200190929190505050610364565b005b3480156100f157600080fd5b506100fa6106dd565b6040518080602001828103825283818151815260200191508051906020019060200280838360005b8381101561013d578082015181840152602081019050610122565b505050509050019250505060405180910390f35b34801561015d57600080fd5b5061018a6004803603602081101561017457600080fd5b8101908080359060200190929190505050610735565b6040518082815260200191505060405180910390f35b3480156101ac57600080fd5b506101d9600480360360208110156101c357600080fd5b8101908080359060200190929190505050610758565b604051808881526020018781526020018681526020018560ff1660ff1681526020018460ff1660ff16815260200183815260200182815260200197505050505050505060405180910390f35b34801561023157600080fd5b5061023a6108c5565b604051808773ffffffffffffffffffffffffffffffffffffffff1673ffffffffffffffffffffffffffffffffffffffff1681526020018673ffffffffffffffffffffffffffffffffffffffff1673ffffffffffffffffffffffffffffffffffffffff1681526020018573ffffffffffffffffffffffffffffffffffffffff1673ffffffffffffffffffffffffffffffffffffffff168152602001848152602001806020018373ffffffffffffffffffffffffffffffffffffffff1673ffffffffffffffffffffffffffffffffffffffff168152602001828103825284818151815260200191508051906020019060200280838360005b8381101561034b578082015181840152602081019050610330565b5050505090500197505050505050505060405180910390f35b600260009054906101000a900473ffffffffffffffffffffffffffffffffffffffff1673ffffffffffffffffffffffffffffffffffffffff163373ffffffffffffffffffffffffffffffffffffffff16141515610429576040517f08c379a000000000000000000000000000000000000000000000000000000000815260040180806020018281038252601d8152602001807f48617320746f20626520737570706c696572206f662070726f6a65637400000081525060200191505060405180910390fd5b600060056000888152602001908152602001600020600501541415156104b7576040517f08c379a00000000000000000000000000000000000000000000000000000000081526004018080602001828103825260188152602001807f446f63756d656e7420616c72656164792063726561746564000000000000000081525060200191505060405180910390fd5b60008060009054906101000a900473ffffffffffffffffffffffffffffffffffffffff16905060008173ffffffffffffffffffffffffffffffffffffffff166381e19490306040518263ffffffff167c0100000000000000000000000000000000000000000000000000000000028152600401808273ffffffffffffffffffffffffffffffffffffffff1673ffffffffffffffffffffffffffffffffffffffff168152602001915050602060405180830381600087803b15801561057a57600080fd5b505af115801561058e573d6000803e3d6000fd5b505050506040513d60208110156105a457600080fd5b8101908080519060200190929190505050905060e0604051908101604052808581526020018481526020018681526020018860ff1681526020018760ff16815260200182815260200142815250600560008a815260200190815260200160002060008201518160000155602082015181600101556040820151816002015560608201518160030160006101000a81548160ff021916908360ff16021790555060808201518160030160016101000a81548160ff021916908360ff16021790555060a0820151816004015560c0820151816005015590505060048890806001815401808255809150509060018203906000526020600020016000909192909190915055507f0ac146a5629d2541f754db3df5197733e7c3002b8cfe1da2416abd2c9a49c28c60405160405180910390a15050505050505050565b6060600480548060200260200160405190810160405280929190818152602001828054801561072b57602002820191906000526020600020905b815481526020019060010190808311610717575b5050505050905090565b60048181548110151561074457fe5b906000526020600020016000915090505481565b600080600080600080600080600560008a815260200190815260200160002060050154141515156107f1576040517f08c379a00000000000000000000000000000000000000000000000000000000081526004018080602001828103825260178152602001807f446f63756d656e7420646f6573206e6f7420657869737400000000000000000081525060200191505060405180910390fd5b6005600089815260200190815260200160002060000154600560008a815260200190815260200160002060010154600560008b815260200190815260200160002060020154600560008c815260200190815260200160002060030160009054906101000a900460ff16600560008d815260200190815260200160002060030160019054906101000a900460ff16600560008e815260200190815260200160002060040154600560008f8152602001908152602001600020600501549650965096509650965096509650919395979092949650565b600080600080606060008060009054906101000a900473ffffffffffffffffffffffffffffffffffffffff16600160009054906101000a900473ffffffffffffffffffffffffffffffffffffffff16600260009054906101000a900473ffffffffffffffffffffffffffffffffffffffff166003546004308180548060200260200160405190810160405280929190818152602001828054801561098857602002820191906000526020600020905b815481526020019060010190808311610974575b5050505050915095509550955095509550955090919293949556fea165627a7a7230582062664319da1506db774614dc684975f8038664a53db1aba8b143fa405f6c16280029a165627a7a72305820a30c09f6403347a274f4c566d67210953e365ce14dabdf9a1540fb5eff68f44e0029",
  "source": "pragma solidity >=0.5.0 <0.7.0;\r\n\r\nimport \"./Ownable.sol\";\r\nimport \"./Process.sol\";\r\n\r\ncontract NuclearPoE is Ownable {\r\n\r\n    uint public docNumber = 0;\r\n\r\n    struct User {\r\n        bytes32 name;\r\n        uint8 userType;\r\n        bool created;\r\n    }\r\n\r\n    struct Project {\r\n        bool active;\r\n        address clientAddress;\r\n        bytes32 title;\r\n        bytes32 oc;\r\n        address[] processContracts;\r\n    }\r\n\r\n    address[] public processContractsArray;\r\n    uint[] public projectsArray;\r\n    address[] public usersArray;\r\n\r\n    mapping (address => uint[]) public userProjectContracts;\r\n    mapping (address => User) public user;\r\n    mapping (uint => Project) private project;\r\n\r\n    modifier onlyProcessContract(address _processAddress) {\r\n        require(msg.sender == _processAddress, \"Sender has to be project Contract\");\r\n    _;\r\n    }\r\n\r\n    modifier onlyClient(address _clientAddress) {\r\n        require(msg.sender == _clientAddress, \"Only clients of this project can realize this operation\");\r\n        _;\r\n    }\r\n\r\n    event CreateProject();\r\n    event CreateUser();\r\n    event CreateProcess(address ProcessContractAddress);\r\n    event CloseProject();\r\n\r\n    function createProject(uint _expediente, address _clientAddress, bytes32 title, bytes32 oc) external onlyOwner() {\r\n        require(project[_expediente].active == false, \"Project already created\");\r\n        require(user[_clientAddress].created == true, \"User does not exist\");\r\n\r\n        address[] memory processContracts = new address[](0);\r\n        project[_expediente] = Project(true, _clientAddress, title, oc, processContracts);\r\n        userProjectContracts[_clientAddress].push(_expediente);\r\n        projectsArray.push(_expediente);\r\n\r\n        emit CreateProject();\r\n    }\r\n\r\n    function createUser(address _userAddress, uint8 _userType, bytes32 _userName) external onlyOwner() {\r\n        require(user[_userAddress].created == false, \"User already created\");\r\n\r\n        user[_userAddress] = User(_userName, _userType, true);\r\n        usersArray.push(_userAddress);\r\n\r\n        emit CreateUser();\r\n    }\r\n\r\n    function createProcess(address _supplierAddress, bytes32 _processName) external onlyOwner() {\r\n        require(user[_supplierAddress].created == true, \"User does not exist\");\r\n\r\n        address ProcessContractAddress = address(new Process(msg.sender, _supplierAddress, _processName));\r\n        processContractsArray.push(ProcessContractAddress);\r\n\r\n        emit CreateProcess(ProcessContractAddress);\r\n    }\r\n\r\n    function addProcessToProject(uint _expediente, address _processContract) external onlyOwner() {\r\n        project[_expediente].processContracts.push(_processContract);\r\n    }\r\n\r\n    function closeProject(uint _expediente) external onlyOwner() {\r\n        project[_expediente].active = false;\r\n        emit CloseProject();\r\n    }\r\n\r\n    function incrementDocNumber(address _processAddress) external onlyProcessContract(_processAddress) returns(uint) {\r\n        docNumber++;\r\n        return docNumber;\r\n    }\r\n\r\n    function getAllProcessContracts() external view returns(address[] memory) {\r\n        return processContractsArray;\r\n    }\r\n\r\n    function getAllProjects() external view returns(uint[] memory) {\r\n        return projectsArray;\r\n    }\r\n\r\n    function getAllUsers() external view returns(address[] memory) {\r\n        return usersArray;\r\n    }\r\n\r\n    function getUserDetails(address _address) external view returns(bytes32, uint8, uint[] memory) {\r\n        return (user[_address].name, user[_address].userType, userProjectContracts[_address]);\r\n    }\r\n\r\n    function getProjectDetails(uint _expediente) external view returns(bool, address, bytes32, bytes32, address[] memory) {\r\n        return (\r\n            project[_expediente].active,\r\n            project[_expediente].clientAddress,\r\n            project[_expediente].title,\r\n            project[_expediente].oc,\r\n            project[_expediente].processContracts);\r\n    }\r\n\r\n}",
  "sourcePath": "C:\\Users\\smartinez.nuclearis\\Documents\\GitHub\\NUCLEARIS-Material-Organization\\contracts\\NuclearPoE.sol",
  "compiler": {
    "name": "solc",
    "version": "0.5.0+commit.1d4f565a.Emscripten.clang"
  },
  "schemaVersion": "3.0.5",
  "updatedAt": "2019-10-31T16:24:51.287Z",
  "devdoc": {
    "methods": {
      "isOwner()": {
        "details": "Returns true if the caller is the current owner.\r"
      },
      "owner()": {
        "details": "Returns the address of the current owner.\r"
      },
      "renounceOwnership()": {
        "details": "Leaves the contract without owner. It will not be possible to call\r `onlyOwner` functions anymore. Can only be called by the current owner.\r      * NOTE: Renouncing ownership will leave the contract without an owner,\r thereby removing any functionality that is only available to the owner.\r"
      },
      "transferOwnership(address)": {
        "details": "Transfers ownership of the contract to a new account (`newOwner`).\r Can only be called by the current owner.\r"
      }
    }
  },
  "userdoc": {
    "methods": {}
  }
}