{
  "contractName": "NuclearPoE",
  "abi": [
    {
      "constant": true,
      "inputs": [],
      "name": "docNumber",
      "outputs": [
        {
          "name": "",
          "type": "uint256"
        }
      ],
      "payable": false,
      "stateMutability": "view",
      "type": "function",
      "signature": "0x09b0466b"
    },
    {
      "constant": true,
      "inputs": [
        {
          "name": "",
          "type": "address"
        },
        {
          "name": "",
          "type": "uint256"
        }
      ],
      "name": "supplierProcesses",
      "outputs": [
        {
          "name": "",
          "type": "address"
        }
      ],
      "payable": false,
      "stateMutability": "view",
      "type": "function",
      "signature": "0x1fa0b773"
    },
    {
      "constant": true,
      "inputs": [
        {
          "name": "",
          "type": "uint256"
        }
      ],
      "name": "usersArray",
      "outputs": [
        {
          "name": "",
          "type": "address"
        }
      ],
      "payable": false,
      "stateMutability": "view",
      "type": "function",
      "signature": "0x2fae35c0"
    },
    {
      "constant": true,
      "inputs": [
        {
          "name": "",
          "type": "address"
        },
        {
          "name": "",
          "type": "uint256"
        }
      ],
      "name": "clientProjects",
      "outputs": [
        {
          "name": "",
          "type": "uint256"
        }
      ],
      "payable": false,
      "stateMutability": "view",
      "type": "function",
      "signature": "0x427583a2"
    },
    {
      "constant": true,
      "inputs": [
        {
          "name": "",
          "type": "uint256"
        }
      ],
      "name": "projectsArray",
      "outputs": [
        {
          "name": "",
          "type": "uint256"
        }
      ],
      "payable": false,
      "stateMutability": "view",
      "type": "function",
      "signature": "0x64b785fa"
    },
    {
      "constant": false,
      "inputs": [],
      "name": "renounceOwnership",
      "outputs": [],
      "payable": false,
      "stateMutability": "nonpayable",
      "type": "function",
      "signature": "0x715018a6"
    },
    {
      "constant": true,
      "inputs": [
        {
          "name": "",
          "type": "address"
        }
      ],
      "name": "user",
      "outputs": [
        {
          "name": "name",
          "type": "bytes32"
        },
        {
          "name": "userType",
          "type": "uint8"
        },
        {
          "name": "created",
          "type": "bool"
        }
      ],
      "payable": false,
      "stateMutability": "view",
      "type": "function",
      "signature": "0x81e7e20e"
    },
    {
      "constant": true,
      "inputs": [],
      "name": "owner",
      "outputs": [
        {
          "name": "",
          "type": "address"
        }
      ],
      "payable": false,
      "stateMutability": "view",
      "type": "function",
      "signature": "0x8da5cb5b"
    },
    {
      "constant": true,
      "inputs": [],
      "name": "isOwner",
      "outputs": [
        {
          "name": "",
          "type": "bool"
        }
      ],
      "payable": false,
      "stateMutability": "view",
      "type": "function",
      "signature": "0x8f32d59b"
    },
    {
      "constant": true,
      "inputs": [
        {
          "name": "",
          "type": "uint256"
        }
      ],
      "name": "processContractsArray",
      "outputs": [
        {
          "name": "",
          "type": "address"
        }
      ],
      "payable": false,
      "stateMutability": "view",
      "type": "function",
      "signature": "0xe6c39930"
    },
    {
      "constant": false,
      "inputs": [
        {
          "name": "newOwner",
          "type": "address"
        }
      ],
      "name": "transferOwnership",
      "outputs": [],
      "payable": false,
      "stateMutability": "nonpayable",
      "type": "function",
      "signature": "0xf2fde38b"
    },
    {
      "anonymous": false,
      "inputs": [],
      "name": "CreateProject",
      "type": "event",
      "signature": "0xbab479b5b86675be7215930d13339d95c3af3099f28b31caf6cac1c3a08c3da7"
    },
    {
      "anonymous": false,
      "inputs": [],
      "name": "CreateUser",
      "type": "event",
      "signature": "0xdf39eb8e1857414a3a40d5964987610c5f80d0d28a16f33fa749ac85d9051666"
    },
    {
      "anonymous": false,
      "inputs": [
        {
          "indexed": false,
          "name": "ProcessContractAddress",
          "type": "address"
        }
      ],
      "name": "CreateProcess",
      "type": "event",
      "signature": "0x908a1d72896b3c6e31c2e9ac8d65ae9676a54dd26195d4496442c50ff1b0b797"
    },
    {
      "anonymous": false,
      "inputs": [],
      "name": "CloseProject",
      "type": "event",
      "signature": "0xdd2d87603957aa30528bbb6ece5f26fb72b6e34738d004ddf70c393ef7894ef9"
    },
    {
      "anonymous": false,
      "inputs": [
        {
          "indexed": false,
          "name": "ActualAddress",
          "type": "address"
        },
        {
          "indexed": false,
          "name": "NewAddress",
          "type": "address"
        }
      ],
      "name": "ChangePassphrase",
      "type": "event",
      "signature": "0x3f6091ee790089e66996c9973ac9a05ac92d9ee54ceb6045c844b1c7190e6f73"
    },
    {
      "anonymous": false,
      "inputs": [
        {
          "indexed": true,
          "name": "previousOwner",
          "type": "address"
        },
        {
          "indexed": true,
          "name": "newOwner",
          "type": "address"
        }
      ],
      "name": "OwnershipTransferred",
      "type": "event",
      "signature": "0x8be0079c531659141344cd1fd0a4f28419497f9722a3daafe3b4186f6b6457e0"
    },
    {
      "constant": false,
      "inputs": [
        {
          "name": "_expediente",
          "type": "uint256"
        },
        {
          "name": "_clientAddress",
          "type": "address"
        },
        {
          "name": "title",
          "type": "bytes32"
        },
        {
          "name": "oc",
          "type": "bytes32"
        }
      ],
      "name": "createProject",
      "outputs": [],
      "payable": false,
      "stateMutability": "nonpayable",
      "type": "function",
      "signature": "0x66c3e861"
    },
    {
      "constant": false,
      "inputs": [
        {
          "name": "_userAddress",
          "type": "address"
        },
        {
          "name": "_userType",
          "type": "uint8"
        },
        {
          "name": "_userName",
          "type": "bytes32"
        }
      ],
      "name": "createUser",
      "outputs": [],
      "payable": false,
      "stateMutability": "nonpayable",
      "type": "function",
      "signature": "0x457b048f"
    },
    {
      "constant": false,
      "inputs": [
        {
          "name": "_supplierAddress",
          "type": "address"
        },
        {
          "name": "_processName",
          "type": "bytes32"
        }
      ],
      "name": "createProcess",
      "outputs": [],
      "payable": false,
      "stateMutability": "nonpayable",
      "type": "function",
      "signature": "0xfb4e2c79"
    },
    {
      "constant": false,
      "inputs": [
        {
          "name": "_newAddress",
          "type": "address"
        }
      ],
      "name": "changePassphrase",
      "outputs": [],
      "payable": false,
      "stateMutability": "nonpayable",
      "type": "function",
      "signature": "0x977b8b87"
    },
    {
      "constant": false,
      "inputs": [
        {
          "name": "_expediente",
          "type": "uint256"
        },
        {
          "name": "_processContract",
          "type": "address"
        }
      ],
      "name": "addProcessToProject",
      "outputs": [],
      "payable": false,
      "stateMutability": "nonpayable",
      "type": "function",
      "signature": "0x73f04d7f"
    },
    {
      "constant": false,
      "inputs": [
        {
          "name": "_expediente",
          "type": "uint256"
        }
      ],
      "name": "closeProject",
      "outputs": [],
      "payable": false,
      "stateMutability": "nonpayable",
      "type": "function",
      "signature": "0x93dc12e6"
    },
    {
      "constant": false,
      "inputs": [
        {
          "name": "_processAddress",
          "type": "address"
        }
      ],
      "name": "incrementDocNumber",
      "outputs": [
        {
          "name": "",
          "type": "uint256"
        }
      ],
      "payable": false,
      "stateMutability": "nonpayable",
      "type": "function",
      "signature": "0x81e19490"
    },
    {
      "constant": true,
      "inputs": [],
      "name": "getAllProcessContracts",
      "outputs": [
        {
          "name": "",
          "type": "address[]"
        }
      ],
      "payable": false,
      "stateMutability": "view",
      "type": "function",
      "signature": "0x75cae8c0"
    },
    {
      "constant": true,
      "inputs": [],
      "name": "getAllProjects",
      "outputs": [
        {
          "name": "",
          "type": "uint256[]"
        }
      ],
      "payable": false,
      "stateMutability": "view",
      "type": "function",
      "signature": "0x80d03829"
    },
    {
      "constant": true,
      "inputs": [],
      "name": "getAllUsers",
      "outputs": [
        {
          "name": "",
          "type": "address[]"
        }
      ],
      "payable": false,
      "stateMutability": "view",
      "type": "function",
      "signature": "0xe2842d79"
    },
    {
      "constant": true,
      "inputs": [
        {
          "name": "_address",
          "type": "address"
        }
      ],
      "name": "getClientDetails",
      "outputs": [
        {
          "name": "",
          "type": "bytes32"
        },
        {
          "name": "",
          "type": "uint8"
        },
        {
          "name": "",
          "type": "uint256[]"
        }
      ],
      "payable": false,
      "stateMutability": "view",
      "type": "function",
      "signature": "0x8bf3bbed"
    },
    {
      "constant": true,
      "inputs": [
        {
          "name": "_address",
          "type": "address"
        }
      ],
      "name": "getSupplierDetails",
      "outputs": [
        {
          "name": "",
          "type": "bytes32"
        },
        {
          "name": "",
          "type": "uint8"
        },
        {
          "name": "",
          "type": "address[]"
        }
      ],
      "payable": false,
      "stateMutability": "view",
      "type": "function",
      "signature": "0x4e625983"
    },
    {
      "constant": true,
      "inputs": [
        {
          "name": "_expediente",
          "type": "uint256"
        }
      ],
      "name": "getProjectDetails",
      "outputs": [
        {
          "name": "",
          "type": "bool"
        },
        {
          "name": "",
          "type": "address"
        },
        {
          "name": "",
          "type": "bytes32"
        },
        {
          "name": "",
          "type": "bytes32"
        },
        {
          "name": "",
          "type": "address[]"
        }
      ],
      "payable": false,
      "stateMutability": "view",
      "type": "function",
      "signature": "0x5f8439e3"
    }
  ],
  "bytecode": "0x6080604052600060015560006100226100c5640100000000026401000000009004565b9050806000806101000a81548173ffffffffffffffffffffffffffffffffffffffff021916908373ffffffffffffffffffffffffffffffffffffffff1602179055508073ffffffffffffffffffffffffffffffffffffffff16600073ffffffffffffffffffffffffffffffffffffffff167f8be0079c531659141344cd1fd0a4f28419497f9722a3daafe3b4186f6b6457e060405160405180910390a3506100cd565b600033905090565b6135d7806100dc6000396000f3fe60806040526004361061013e576000357c0100000000000000000000000000000000000000000000000000000000900463ffffffff16806309b0466b146101435780631fa0b7731461016e5780632fae35c014610209578063427583a214610284578063457b048f146102f35780634e6259831461035b5780635f8439e31461041557806364b785fa146104f157806366c3e86114610540578063715018a6146105af57806373f04d7f146105c657806375cae8c01461062157806380d038291461068d57806381e19490146106f957806381e7e20e1461075e5780638bf3bbed146107db5780638da5cb5b146108955780638f32d59b146108ec57806393dc12e61461091b578063977b8b8714610956578063e2842d79146109a7578063e6c3993014610a13578063f2fde38b14610a8e578063fb4e2c7914610adf575b600080fd5b34801561014f57600080fd5b50610158610b3a565b6040518082815260200191505060405180910390f35b34801561017a57600080fd5b506101c76004803603604081101561019157600080fd5b81019080803573ffffffffffffffffffffffffffffffffffffffff16906020019092919080359060200190929190505050610b40565b604051808273ffffffffffffffffffffffffffffffffffffffff1673ffffffffffffffffffffffffffffffffffffffff16815260200191505060405180910390f35b34801561021557600080fd5b506102426004803603602081101561022c57600080fd5b8101908080359060200190929190505050610b8d565b604051808273ffffffffffffffffffffffffffffffffffffffff1673ffffffffffffffffffffffffffffffffffffffff16815260200191505060405180910390f35b34801561029057600080fd5b506102dd600480360360408110156102a757600080fd5b81019080803573ffffffffffffffffffffffffffffffffffffffff16906020019092919080359060200190929190505050610bcb565b6040518082815260200191505060405180910390f35b3480156102ff57600080fd5b506103596004803603606081101561031657600080fd5b81019080803573ffffffffffffffffffffffffffffffffffffffff169060200190929190803560ff16906020019092919080359060200190929190505050610bfb565b005b34801561036757600080fd5b506103aa6004803603602081101561037e57600080fd5b81019080803573ffffffffffffffffffffffffffffffffffffffff169060200190929190505050610e88565b604051808481526020018360ff1660ff16815260200180602001828103825283818151815260200191508051906020019060200280838360005b838110156103ff5780820151818401526020810190506103e4565b5050505090500194505050505060405180910390f35b34801561042157600080fd5b5061044e6004803603602081101561043857600080fd5b8101908080359060200190929190505050610ff4565b60405180861515151581526020018573ffffffffffffffffffffffffffffffffffffffff1673ffffffffffffffffffffffffffffffffffffffff16815260200184815260200183815260200180602001828103825283818151815260200191508051906020019060200280838360005b838110156104d95780820151818401526020810190506104be565b50505050905001965050505050505060405180910390f35b3480156104fd57600080fd5b5061052a6004803603602081101561051457600080fd5b8101908080359060200190929190505050611136565b6040518082815260200191505060405180910390f35b34801561054c57600080fd5b506105ad6004803603608081101561056357600080fd5b8101908080359060200190929190803573ffffffffffffffffffffffffffffffffffffffff1690602001909291908035906020019092919080359060200190929190505050611159565b005b3480156105bb57600080fd5b506105c461152b565b005b3480156105d257600080fd5b5061061f600480360360408110156105e957600080fd5b8101908080359060200190929190803573ffffffffffffffffffffffffffffffffffffffff169060200190929190505050611666565b005b34801561062d57600080fd5b50610636611825565b6040518080602001828103825283818151815260200191508051906020019060200280838360005b8381101561067957808201518184015260208101905061065e565b505050509050019250505060405180910390f35b34801561069957600080fd5b506106a26118b3565b6040518080602001828103825283818151815260200191508051906020019060200280838360005b838110156106e55780820151818401526020810190506106ca565b505050509050019250505060405180910390f35b34801561070557600080fd5b506107486004803603602081101561071c57600080fd5b81019080803573ffffffffffffffffffffffffffffffffffffffff16906020019092919050505061190b565b6040518082815260200191505060405180910390f35b34801561076a57600080fd5b506107ad6004803603602081101561078157600080fd5b81019080803573ffffffffffffffffffffffffffffffffffffffff1690602001909291905050506119f4565b604051808481526020018360ff1660ff16815260200182151515158152602001935050505060405180910390f35b3480156107e757600080fd5b5061082a600480360360208110156107fe57600080fd5b81019080803573ffffffffffffffffffffffffffffffffffffffff169060200190929190505050611a38565b604051808481526020018360ff1660ff16815260200180602001828103825283818151815260200191508051906020019060200280838360005b8381101561087f578082015181840152602081019050610864565b5050505090500194505050505060405180910390f35b3480156108a157600080fd5b506108aa611b6e565b604051808273ffffffffffffffffffffffffffffffffffffffff1673ffffffffffffffffffffffffffffffffffffffff16815260200191505060405180910390f35b3480156108f857600080fd5b50610901611b97565b604051808215151515815260200191505060405180910390f35b34801561092757600080fd5b506109546004803603602081101561093e57600080fd5b8101908080359060200190929190505050611bf5565b005b34801561096257600080fd5b506109a56004803603602081101561097957600080fd5b81019080803573ffffffffffffffffffffffffffffffffffffffff169060200190929190505050611d6e565b005b3480156109b357600080fd5b506109bc612134565b6040518080602001828103825283818151815260200191508051906020019060200280838360005b838110156109ff5780820151818401526020810190506109e4565b505050509050019250505060405180910390f35b348015610a1f57600080fd5b50610a4c60048036036020811015610a3657600080fd5b81019080803590602001909291905050506121c2565b604051808273ffffffffffffffffffffffffffffffffffffffff1673ffffffffffffffffffffffffffffffffffffffff16815260200191505060405180910390f35b348015610a9a57600080fd5b50610add60048036036020811015610ab157600080fd5b81019080803573ffffffffffffffffffffffffffffffffffffffff169060200190929190505050612200565b005b348015610aeb57600080fd5b50610b3860048036036040811015610b0257600080fd5b81019080803573ffffffffffffffffffffffffffffffffffffffff16906020019092919080359060200190929190505050612288565b005b60015481565b600660205281600052604060002081815481101515610b5b57fe5b906000526020600020016000915091509054906101000a900473ffffffffffffffffffffffffffffffffffffffff1681565b600481815481101515610b9c57fe5b906000526020600020016000915054906101000a900473ffffffffffffffffffffffffffffffffffffffff1681565b600560205281600052604060002081815481101515610be657fe5b90600052602060002001600091509150505481565b610c03611b97565b1515610c77576040517f08c379a00000000000000000000000000000000000000000000000000000000081526004018080602001828103825260208152602001807f4f776e61626c653a2063616c6c6572206973206e6f7420746865206f776e657281525060200191505060405180910390fd5b60001515600760008573ffffffffffffffffffffffffffffffffffffffff1673ffffffffffffffffffffffffffffffffffffffff16815260200190815260200160002060010160019054906101000a900460ff161515141515610d42576040517f08c379a00000000000000000000000000000000000000000000000000000000081526004018080602001828103825260148152602001807f5573657220616c7265616479206372656174656400000000000000000000000081525060200191505060405180910390fd5b6060604051908101604052808281526020018360ff16815260200160011515815250600760008573ffffffffffffffffffffffffffffffffffffffff1673ffffffffffffffffffffffffffffffffffffffff1681526020019081526020016000206000820151816000015560208201518160010160006101000a81548160ff021916908360ff16021790555060408201518160010160016101000a81548160ff02191690831515021790555090505060048390806001815401808255809150509060018203906000526020600020016000909192909190916101000a81548173ffffffffffffffffffffffffffffffffffffffff021916908373ffffffffffffffffffffffffffffffffffffffff160217905550507fdf39eb8e1857414a3a40d5964987610c5f80d0d28a16f33fa749ac85d905166660405160405180910390a1505050565b6000806060600760008573ffffffffffffffffffffffffffffffffffffffff1673ffffffffffffffffffffffffffffffffffffffff16815260200190815260200160002060000154600760008673ffffffffffffffffffffffffffffffffffffffff1673ffffffffffffffffffffffffffffffffffffffff16815260200190815260200160002060010160009054906101000a900460ff16600660008773ffffffffffffffffffffffffffffffffffffffff1673ffffffffffffffffffffffffffffffffffffffff16815260200190815260200160002080805480602002602001604051908101604052809291908181526020018280548015610fe057602002820191906000526020600020905b8160009054906101000a900473ffffffffffffffffffffffffffffffffffffffff1673ffffffffffffffffffffffffffffffffffffffff1681526020019060010190808311610f96575b505050505090509250925092509193909250565b60008060008060606008600087815260200190815260200160002060000160009054906101000a900460ff166008600088815260200190815260200160002060000160019054906101000a900473ffffffffffffffffffffffffffffffffffffffff166008600089815260200190815260200160002060010154600860008a815260200190815260200160002060020154600860008b81526020019081526020016000206003018080548060200260200160405190810160405280929190818152602001828054801561111c57602002820191906000526020600020905b8160009054906101000a900473ffffffffffffffffffffffffffffffffffffffff1673ffffffffffffffffffffffffffffffffffffffff16815260200190600101908083116110d2575b505050505090509450945094509450945091939590929450565b60038181548110151561114557fe5b906000526020600020016000915090505481565b611161611b97565b15156111d5576040517f08c379a00000000000000000000000000000000000000000000000000000000081526004018080602001828103825260208152602001807f4f776e61626c653a2063616c6c6572206973206e6f7420746865206f776e657281525060200191505060405180910390fd5b600015156008600086815260200190815260200160002060000160009054906101000a900460ff161515141515611274576040517f08c379a00000000000000000000000000000000000000000000000000000000081526004018080602001828103825260178152602001807f50726f6a65637420616c7265616479206372656174656400000000000000000081525060200191505060405180910390fd5b60011515600760008573ffffffffffffffffffffffffffffffffffffffff1673ffffffffffffffffffffffffffffffffffffffff16815260200190815260200160002060010160019054906101000a900460ff16151514151561133f576040517f08c379a00000000000000000000000000000000000000000000000000000000081526004018080602001828103825260138152602001807f5573657220646f6573206e6f742065786973740000000000000000000000000081525060200191505060405180910390fd5b606060006040519080825280602002602001820160405280156113715781602001602082028038833980820191505090505b50905060a0604051908101604052806001151581526020018573ffffffffffffffffffffffffffffffffffffffff168152602001848152602001838152602001828152506008600087815260200190815260200160002060008201518160000160006101000a81548160ff02191690831515021790555060208201518160000160016101000a81548173ffffffffffffffffffffffffffffffffffffffff021916908373ffffffffffffffffffffffffffffffffffffffff1602179055506040820151816001015560608201518160020155608082015181600301908051906020019061145f929190612696565b50905050600560008573ffffffffffffffffffffffffffffffffffffffff1673ffffffffffffffffffffffffffffffffffffffff16815260200190815260200160002085908060018154018082558091505090600182039060005260206000200160009091929091909150555060038590806001815401808255809150509060018203906000526020600020016000909192909190915055507fbab479b5b86675be7215930d13339d95c3af3099f28b31caf6cac1c3a08c3da760405160405180910390a15050505050565b611533611b97565b15156115a7576040517f08c379a00000000000000000000000000000000000000000000000000000000081526004018080602001828103825260208152602001807f4f776e61626c653a2063616c6c6572206973206e6f7420746865206f776e657281525060200191505060405180910390fd5b600073ffffffffffffffffffffffffffffffffffffffff166000809054906101000a900473ffffffffffffffffffffffffffffffffffffffff1673ffffffffffffffffffffffffffffffffffffffff167f8be0079c531659141344cd1fd0a4f28419497f9722a3daafe3b4186f6b6457e060405160405180910390a360008060006101000a81548173ffffffffffffffffffffffffffffffffffffffff021916908373ffffffffffffffffffffffffffffffffffffffff160217905550565b61166e611b97565b15156116e2576040517f08c379a00000000000000000000000000000000000000000000000000000000081526004018080602001828103825260208152602001807f4f776e61626c653a2063616c6c6572206973206e6f7420746865206f776e657281525060200191505060405180910390fd5b600115156008600084815260200190815260200160002060000160009054906101000a900460ff1615151415156117a7576040517f08c379a00000000000000000000000000000000000000000000000000000000081526004018080602001828103825260238152602001807f50726f6a65637420646f6573206e6f74206578697374206f7220697320636c6f81526020017f736564000000000000000000000000000000000000000000000000000000000081525060400191505060405180910390fd5b600860008381526020019081526020016000206003018190806001815401808255809150509060018203906000526020600020016000909192909190916101000a81548173ffffffffffffffffffffffffffffffffffffffff021916908373ffffffffffffffffffffffffffffffffffffffff160217905550505050565b606060028054806020026020016040519081016040528092919081815260200182805480156118a957602002820191906000526020600020905b8160009054906101000a900473ffffffffffffffffffffffffffffffffffffffff1673ffffffffffffffffffffffffffffffffffffffff168152602001906001019080831161185f575b5050505050905090565b6060600380548060200260200160405190810160405280929190818152602001828054801561190157602002820191906000526020600020905b8154815260200190600101908083116118ed575b5050505050905090565b6000818073ffffffffffffffffffffffffffffffffffffffff163373ffffffffffffffffffffffffffffffffffffffff161415156119d7576040517f08c379a00000000000000000000000000000000000000000000000000000000081526004018080602001828103825260218152602001807f53656e6465722068617320746f2062652070726f6a65637420436f6e7472616381526020017f740000000000000000000000000000000000000000000000000000000000000081525060400191505060405180910390fd5b600160008154809291906001019190505550600154915050919050565b60076020528060005260406000206000915090508060000154908060010160009054906101000a900460ff16908060010160019054906101000a900460ff16905083565b6000806060600760008573ffffffffffffffffffffffffffffffffffffffff1673ffffffffffffffffffffffffffffffffffffffff16815260200190815260200160002060000154600760008673ffffffffffffffffffffffffffffffffffffffff1673ffffffffffffffffffffffffffffffffffffffff16815260200190815260200160002060010160009054906101000a900460ff16600560008773ffffffffffffffffffffffffffffffffffffffff1673ffffffffffffffffffffffffffffffffffffffff16815260200190815260200160002080805480602002602001604051908101604052809291908181526020018280548015611b5a57602002820191906000526020600020905b815481526020019060010190808311611b46575b505050505090509250925092509193909250565b60008060009054906101000a900473ffffffffffffffffffffffffffffffffffffffff16905090565b60008060009054906101000a900473ffffffffffffffffffffffffffffffffffffffff1673ffffffffffffffffffffffffffffffffffffffff16611bd9612505565b73ffffffffffffffffffffffffffffffffffffffff1614905090565b611bfd611b97565b1515611c71576040517f08c379a00000000000000000000000000000000000000000000000000000000081526004018080602001828103825260208152602001807f4f776e61626c653a2063616c6c6572206973206e6f7420746865206f776e657281525060200191505060405180910390fd5b600115156008600083815260200190815260200160002060000160009054906101000a900460ff161515141515611d10576040517f08c379a00000000000000000000000000000000000000000000000000000000081526004018080602001828103825260168152602001807f50726f6a65637420616c726561647920636c6f7365640000000000000000000081525060200191505060405180910390fd5b60006008600083815260200190815260200160002060000160006101000a81548160ff0219169083151502179055507fdd2d87603957aa30528bbb6ece5f26fb72b6e34738d004ddf70c393ef7894ef960405160405180910390a150565b60011515600760003373ffffffffffffffffffffffffffffffffffffffff1673ffffffffffffffffffffffffffffffffffffffff16815260200190815260200160002060010160019054906101000a900460ff161515141515611e39576040517f08c379a00000000000000000000000000000000000000000000000000000000081526004018080602001828103825260138152602001807f5573657220646f6573206e6f742065786973740000000000000000000000000081525060200191505060405180910390fd5b600760003373ffffffffffffffffffffffffffffffffffffffff1673ffffffffffffffffffffffffffffffffffffffff168152602001908152602001600020600760008373ffffffffffffffffffffffffffffffffffffffff1673ffffffffffffffffffffffffffffffffffffffff168152602001908152602001600020600082015481600001556001820160009054906101000a900460ff168160010160006101000a81548160ff021916908360ff1602179055506001820160019054906101000a900460ff168160010160016101000a81548160ff0219169083151502179055509050506001600760003373ffffffffffffffffffffffffffffffffffffffff1673ffffffffffffffffffffffffffffffffffffffff16815260200190815260200160002060010160009054906101000a900460ff1660ff16141561200c57600660003373ffffffffffffffffffffffffffffffffffffffff1673ffffffffffffffffffffffffffffffffffffffff168152602001908152602001600020600660008373ffffffffffffffffffffffffffffffffffffffff1673ffffffffffffffffffffffffffffffffffffffff168152602001908152602001600020908054612006929190612720565b5061209a565b600560003373ffffffffffffffffffffffffffffffffffffffff1673ffffffffffffffffffffffffffffffffffffffff168152602001908152602001600020600560008373ffffffffffffffffffffffffffffffffffffffff1673ffffffffffffffffffffffffffffffffffffffff168152602001908152602001600020908054612098929190612772565b505b7f3f6091ee790089e66996c9973ac9a05ac92d9ee54ceb6045c844b1c7190e6f733382604051808373ffffffffffffffffffffffffffffffffffffffff1673ffffffffffffffffffffffffffffffffffffffff1681526020018273ffffffffffffffffffffffffffffffffffffffff1673ffffffffffffffffffffffffffffffffffffffff1681526020019250505060405180910390a150565b606060048054806020026020016040519081016040528092919081815260200182805480156121b857602002820191906000526020600020905b8160009054906101000a900473ffffffffffffffffffffffffffffffffffffffff1673ffffffffffffffffffffffffffffffffffffffff168152602001906001019080831161216e575b5050505050905090565b6002818154811015156121d157fe5b906000526020600020016000915054906101000a900473ffffffffffffffffffffffffffffffffffffffff1681565b612208611b97565b151561227c576040517f08c379a00000000000000000000000000000000000000000000000000000000081526004018080602001828103825260208152602001807f4f776e61626c653a2063616c6c6572206973206e6f7420746865206f776e657281525060200191505060405180910390fd5b6122858161250d565b50565b612290611b97565b1515612304576040517f08c379a00000000000000000000000000000000000000000000000000000000081526004018080602001828103825260208152602001807f4f776e61626c653a2063616c6c6572206973206e6f7420746865206f776e657281525060200191505060405180910390fd5b60011515600760008473ffffffffffffffffffffffffffffffffffffffff1673ffffffffffffffffffffffffffffffffffffffff16815260200190815260200160002060010160019054906101000a900460ff1615151415156123cf576040517f08c379a00000000000000000000000000000000000000000000000000000000081526004018080602001828103825260138152602001807f5573657220646f6573206e6f742065786973740000000000000000000000000081525060200191505060405180910390fd5b600033826123db6127c4565b808373ffffffffffffffffffffffffffffffffffffffff1673ffffffffffffffffffffffffffffffffffffffff16815260200182815260200192505050604051809103906000f080158015612434573d6000803e3d6000fd5b50905060028190806001815401808255809150509060018203906000526020600020016000909192909190916101000a81548173ffffffffffffffffffffffffffffffffffffffff021916908373ffffffffffffffffffffffffffffffffffffffff160217905550507f908a1d72896b3c6e31c2e9ac8d65ae9676a54dd26195d4496442c50ff1b0b79781604051808273ffffffffffffffffffffffffffffffffffffffff1673ffffffffffffffffffffffffffffffffffffffff16815260200191505060405180910390a1505050565b600033905090565b600073ffffffffffffffffffffffffffffffffffffffff168173ffffffffffffffffffffffffffffffffffffffff16141515156125d8576040517f08c379a00000000000000000000000000000000000000000000000000000000081526004018080602001828103825260268152602001807f4f776e61626c653a206e6577206f776e657220697320746865207a65726f206181526020017f646472657373000000000000000000000000000000000000000000000000000081525060400191505060405180910390fd5b8073ffffffffffffffffffffffffffffffffffffffff166000809054906101000a900473ffffffffffffffffffffffffffffffffffffffff1673ffffffffffffffffffffffffffffffffffffffff167f8be0079c531659141344cd1fd0a4f28419497f9722a3daafe3b4186f6b6457e060405160405180910390a3806000806101000a81548173ffffffffffffffffffffffffffffffffffffffff021916908373ffffffffffffffffffffffffffffffffffffffff16021790555050565b82805482825590600052602060002090810192821561270f579160200282015b8281111561270e5782518260006101000a81548173ffffffffffffffffffffffffffffffffffffffff021916908373ffffffffffffffffffffffffffffffffffffffff160217905550916020019190600101906126b6565b5b50905061271c91906127d4565b5090565b8280548282559060005260206000209081019282156127615760005260206000209182015b82811115612760578254825591600101919060010190612745565b5b50905061276e91906127d4565b5090565b8280548282559060005260206000209081019282156127b35760005260206000209182015b828111156127b2578254825591600101919060010190612797565b5b5090506127c09190612817565b5090565b604051610d6f8061283d83390190565b61281491905b8082111561281057600081816101000a81549073ffffffffffffffffffffffffffffffffffffffff0219169055506001016127da565b5090565b90565b61283991905b8082111561283557600081600090555060010161281d565b5090565b9056fe608060405234801561001057600080fd5b50604051604080610d6f8339810180604052604081101561003057600080fd5b810190808051906020019092919080519060200190929190505050336000806101000a81548173ffffffffffffffffffffffffffffffffffffffff021916908373ffffffffffffffffffffffffffffffffffffffff16021790555081600160006101000a81548173ffffffffffffffffffffffffffffffffffffffff021916908373ffffffffffffffffffffffffffffffffffffffff160217905550806002819055505050610c8b806100e46000396000f3fe60806040526004361061008e576000357c0100000000000000000000000000000000000000000000000000000000900463ffffffff168063103625f51461009357806339b4ba4d146100e457806354dfa48f1461011f57806367f71cb9146101705780639fa5f50b146101e3578063cdee934e1461024f578063d52520151461029e578063fbbf93a014610323575b600080fd5b34801561009f57600080fd5b506100e2600480360360208110156100b657600080fd5b81019080803573ffffffffffffffffffffffffffffffffffffffff16906020019092919050505061042f565b005b3480156100f057600080fd5b5061011d6004803603602081101561010757600080fd5b8101908080359060200190929190505050610536565b005b34801561012b57600080fd5b5061016e6004803603602081101561014257600080fd5b81019080803573ffffffffffffffffffffffffffffffffffffffff169060200190929190505050610604565b005b34801561017c57600080fd5b506101e1600480360360c081101561019357600080fd5b8101908080359060200190929190803560ff169060200190929190803560ff16906020019092919080359060200190929190803590602001909291908035906020019092919050505061070c565b005b3480156101ef57600080fd5b506101f86109c0565b6040518080602001828103825283818151815260200191508051906020019060200280838360005b8381101561023b578082015181840152602081019050610220565b505050509050019250505060405180910390f35b34801561025b57600080fd5b506102886004803603602081101561027257600080fd5b8101908080359060200190929190505050610a18565b6040518082815260200191505060405180910390f35b3480156102aa57600080fd5b506102d7600480360360208110156102c157600080fd5b8101908080359060200190929190505050610a3b565b604051808881526020018781526020018681526020018560ff1660ff1681526020018460ff1660ff16815260200183815260200182815260200197505050505050505060405180910390f35b34801561032f57600080fd5b50610338610ba8565b604051808673ffffffffffffffffffffffffffffffffffffffff1673ffffffffffffffffffffffffffffffffffffffff1681526020018573ffffffffffffffffffffffffffffffffffffffff1673ffffffffffffffffffffffffffffffffffffffff168152602001848152602001806020018373ffffffffffffffffffffffffffffffffffffffff1673ffffffffffffffffffffffffffffffffffffffff168152602001828103825284818151815260200191508051906020019060200280838360005b838110156104175780820151818401526020810190506103fc565b50505050905001965050505050505060405180910390f35b6000809054906101000a900473ffffffffffffffffffffffffffffffffffffffff1673ffffffffffffffffffffffffffffffffffffffff163373ffffffffffffffffffffffffffffffffffffffff161415156104f3576040517f08c379a000000000000000000000000000000000000000000000000000000000815260040180806020018281038252601d8152602001807f48617320746f206265204e75636c656172506f4520436f6e747261637400000081525060200191505060405180910390fd5b806000806101000a81548173ffffffffffffffffffffffffffffffffffffffff021916908373ffffffffffffffffffffffffffffffffffffffff16021790555050565b6000809054906101000a900473ffffffffffffffffffffffffffffffffffffffff1673ffffffffffffffffffffffffffffffffffffffff163373ffffffffffffffffffffffffffffffffffffffff161415156105fa576040517f08c379a000000000000000000000000000000000000000000000000000000000815260040180806020018281038252601d8152602001807f48617320746f206265204e75636c656172506f4520436f6e747261637400000081525060200191505060405180910390fd5b8060028190555050565b6000809054906101000a900473ffffffffffffffffffffffffffffffffffffffff1673ffffffffffffffffffffffffffffffffffffffff163373ffffffffffffffffffffffffffffffffffffffff161415156106c8576040517f08c379a000000000000000000000000000000000000000000000000000000000815260040180806020018281038252601d8152602001807f48617320746f206265204e75636c656172506f4520436f6e747261637400000081525060200191505060405180910390fd5b80600160006101000a81548173ffffffffffffffffffffffffffffffffffffffff021916908373ffffffffffffffffffffffffffffffffffffffff16021790555050565b6000600460008881526020019081526020016000206005015414151561079a576040517f08c379a00000000000000000000000000000000000000000000000000000000081526004018080602001828103825260188152602001807f446f63756d656e7420616c72656164792063726561746564000000000000000081525060200191505060405180910390fd5b60008060009054906101000a900473ffffffffffffffffffffffffffffffffffffffff16905060008173ffffffffffffffffffffffffffffffffffffffff166381e19490306040518263ffffffff167c0100000000000000000000000000000000000000000000000000000000028152600401808273ffffffffffffffffffffffffffffffffffffffff1673ffffffffffffffffffffffffffffffffffffffff168152602001915050602060405180830381600087803b15801561085d57600080fd5b505af1158015610871573d6000803e3d6000fd5b505050506040513d602081101561088757600080fd5b8101908080519060200190929190505050905060e0604051908101604052808581526020018481526020018681526020018860ff1681526020018760ff16815260200182815260200142815250600460008a815260200190815260200160002060008201518160000155602082015181600101556040820151816002015560608201518160030160006101000a81548160ff021916908360ff16021790555060808201518160030160016101000a81548160ff021916908360ff16021790555060a0820151816004015560c0820151816005015590505060038890806001815401808255809150509060018203906000526020600020016000909192909190915055507f0ac146a5629d2541f754db3df5197733e7c3002b8cfe1da2416abd2c9a49c28c60405160405180910390a15050505050505050565b60606003805480602002602001604051908101604052809291908181526020018280548015610a0e57602002820191906000526020600020905b8154815260200190600101908083116109fa575b5050505050905090565b600381815481101515610a2757fe5b906000526020600020016000915090505481565b600080600080600080600080600460008a81526020019081526020016000206005015414151515610ad4576040517f08c379a00000000000000000000000000000000000000000000000000000000081526004018080602001828103825260178152602001807f446f63756d656e7420646f6573206e6f7420657869737400000000000000000081525060200191505060405180910390fd5b6004600089815260200190815260200160002060000154600460008a815260200190815260200160002060010154600460008b815260200190815260200160002060020154600460008c815260200190815260200160002060030160009054906101000a900460ff16600460008d815260200190815260200160002060030160019054906101000a900460ff16600460008e815260200190815260200160002060040154600460008f8152602001908152602001600020600501549650965096509650965096509650919395979092949650565b6000806000606060008060009054906101000a900473ffffffffffffffffffffffffffffffffffffffff16600160009054906101000a900473ffffffffffffffffffffffffffffffffffffffff1660025460033081805480602002602001604051908101604052809291908181526020018280548015610c4757602002820191906000526020600020905b815481526020019060010190808311610c33575b5050505050915094509450945094509450909192939456fea165627a7a7230582076c1c7c3c8bdd1d4c0e0037e8c58c3d182baec6a6f133137f2bade5cfb4b0cd10029a165627a7a723058206e68e2c77e3376474f2a4b18ea8ddeac277399657b3add469f65e8db7db2208b0029",
  "source": "pragma solidity >=0.5.0 <0.7.0;\r\n\r\nimport \"./Ownable.sol\";\r\nimport \"./Process.sol\";\r\n\r\ncontract NuclearPoE is Ownable {\r\n\r\n    uint public docNumber = 0;\r\n\r\n    struct User {\r\n        bytes32 name;\r\n        uint8 userType;\r\n        bool created;\r\n    }\r\n\r\n    struct Project {\r\n        bool active;\r\n        address clientAddress;\r\n        bytes32 title;\r\n        bytes32 oc;\r\n        address[] processContracts;\r\n    }\r\n\r\n    address[] public processContractsArray;\r\n    uint[] public projectsArray;\r\n    address[] public usersArray;\r\n\r\n    mapping (address => uint[]) public clientProjects;\r\n    mapping (address => address[]) public supplierProcesses;\r\n    mapping (address => User) public user;\r\n    mapping (uint => Project) private project;\r\n\r\n    modifier onlyProcessContract(address _processAddress) {\r\n        require(msg.sender == _processAddress, \"Sender has to be project Contract\");\r\n    _;\r\n    }\r\n\r\n    modifier onlyClient(address _clientAddress) {\r\n        require(msg.sender == _clientAddress, \"Only clients of this project can realize this operation\");\r\n        _;\r\n    }\r\n\r\n    event CreateProject();\r\n    event CreateUser();\r\n    event CreateProcess(address ProcessContractAddress);\r\n    event CloseProject();\r\n    event ChangePassphrase(address ActualAddress, address NewAddress);\r\n\r\n    function createProject(uint _expediente, address _clientAddress, bytes32 title, bytes32 oc) external onlyOwner() {\r\n        require(project[_expediente].active == false, \"Project already created\");\r\n        require(user[_clientAddress].created == true, \"User does not exist\");\r\n\r\n        address[] memory processContracts = new address[](0);\r\n        project[_expediente] = Project(true, _clientAddress, title, oc, processContracts);\r\n        clientProjects[_clientAddress].push(_expediente);\r\n        projectsArray.push(_expediente);\r\n\r\n        emit CreateProject();\r\n    }\r\n\r\n    function createUser(address _userAddress, uint8 _userType, bytes32 _userName) external onlyOwner() {\r\n        require(user[_userAddress].created == false, \"User already created\");\r\n\r\n        user[_userAddress] = User(_userName, _userType, true);\r\n        usersArray.push(_userAddress);\r\n\r\n        emit CreateUser();\r\n    }\r\n\r\n    function createProcess(address _supplierAddress, bytes32 _processName) external onlyOwner() {\r\n        require(user[_supplierAddress].created == true, \"User does not exist\");\r\n\r\n        address ProcessContractAddress = address(new Process(msg.sender, _processName));\r\n        processContractsArray.push(ProcessContractAddress);\r\n\r\n        emit CreateProcess(ProcessContractAddress);\r\n    }\r\n\r\n    function changePassphrase(address _newAddress) external {\r\n        require(user[msg.sender].created == true, \"User does not exist\");\r\n\r\n        user[_newAddress] = user[msg.sender];\r\n        if(user[msg.sender].userType == 1) {\r\n            supplierProcesses[_newAddress] = supplierProcesses[msg.sender];\r\n        }\r\n        else {\r\n            clientProjects[_newAddress] = clientProjects[msg.sender];\r\n        }\r\n        emit ChangePassphrase(msg.sender, _newAddress);\r\n    }\r\n\r\n    function addProcessToProject(uint _expediente, address _processContract) external onlyOwner() {\r\n        require(project[_expediente].active == true, \"Project does not exist or is closed\");\r\n\r\n        project[_expediente].processContracts.push(_processContract);\r\n    }\r\n\r\n    function closeProject(uint _expediente) external onlyOwner() {\r\n        require(project[_expediente].active == true, \"Project already closed\");\r\n\r\n        project[_expediente].active = false;\r\n        emit CloseProject();\r\n    }\r\n\r\n    function incrementDocNumber(address _processAddress) external onlyProcessContract(_processAddress) returns(uint) {\r\n        docNumber++;\r\n        return docNumber;\r\n    }\r\n\r\n    function getAllProcessContracts() external view returns(address[] memory) {\r\n        return processContractsArray;\r\n    }\r\n\r\n    function getAllProjects() external view returns(uint[] memory) {\r\n        return projectsArray;\r\n    }\r\n\r\n    function getAllUsers() external view returns(address[] memory) {\r\n        return usersArray;\r\n    }\r\n\r\n    function getClientDetails(address _address) external view returns(bytes32, uint8, uint[] memory) {\r\n            return (user[_address].name, user[_address].userType, clientProjects[_address]);\r\n    }\r\n\r\n    function getSupplierDetails(address _address) external view returns(bytes32, uint8, address[] memory) {\r\n        return (user[_address].name, user[_address].userType, supplierProcesses[_address]);\r\n    }\r\n\r\n    function getProjectDetails(uint _expediente) external view returns(bool, address, bytes32, bytes32, address[] memory) {\r\n        return (\r\n            project[_expediente].active,\r\n            project[_expediente].clientAddress,\r\n            project[_expediente].title,\r\n            project[_expediente].oc,\r\n            project[_expediente].processContracts);\r\n    }\r\n\r\n}",
  "sourcePath": "C:\\Users\\smartinez.nuclearis\\Documents\\GitHub\\NUCLEARIS-Material-Organization\\contracts\\NuclearPoE.sol",
  "compiler": {
    "name": "solc",
    "version": "0.5.0+commit.1d4f565a.Emscripten.clang"
  },
  "schemaVersion": "3.0.5",
  "updatedAt": "2019-11-01T20:13:07.231Z",
  "devdoc": {
    "methods": {
      "isOwner()": {
        "details": "Returns true if the caller is the current owner.\r"
      },
      "owner()": {
        "details": "Returns the address of the current owner.\r"
      },
      "renounceOwnership()": {
        "details": "Leaves the contract without owner. It will not be possible to call\r `onlyOwner` functions anymore. Can only be called by the current owner.\r      * NOTE: Renouncing ownership will leave the contract without an owner,\r thereby removing any functionality that is only available to the owner.\r"
      },
      "transferOwnership(address)": {
        "details": "Transfers ownership of the contract to a new account (`newOwner`).\r Can only be called by the current owner.\r"
      }
    }
  },
  "userdoc": {
    "methods": {}
  }
}