{
  "contractName": "NuclearPoE",
  "abi": [
    {
      "anonymous": false,
      "inputs": [
        {
          "indexed": false,
          "internalType": "address",
          "name": "UserAddress",
          "type": "address"
        },
        {
          "indexed": false,
          "internalType": "enum NuclearPoE.State",
          "name": "UserState",
          "type": "uint8"
        }
      ],
      "name": "ChangeUserStatus",
      "type": "event"
    },
    {
      "anonymous": false,
      "inputs": [
        {
          "indexed": false,
          "internalType": "uint256",
          "name": "id",
          "type": "uint256"
        }
      ],
      "name": "CloseProject",
      "type": "event"
    },
    {
      "anonymous": false,
      "inputs": [
        {
          "indexed": false,
          "internalType": "address",
          "name": "ProcessContractAddress",
          "type": "address"
        }
      ],
      "name": "CreateProcess",
      "type": "event"
    },
    {
      "anonymous": false,
      "inputs": [],
      "name": "CreateProject",
      "type": "event"
    },
    {
      "anonymous": false,
      "inputs": [],
      "name": "CreateUser",
      "type": "event"
    },
    {
      "anonymous": false,
      "inputs": [
        {
          "indexed": true,
          "internalType": "address",
          "name": "previousOwner",
          "type": "address"
        },
        {
          "indexed": true,
          "internalType": "address",
          "name": "newOwner",
          "type": "address"
        }
      ],
      "name": "OwnershipTransferred",
      "type": "event"
    },
    {
      "constant": true,
      "inputs": [
        {
          "internalType": "address",
          "name": "",
          "type": "address"
        },
        {
          "internalType": "uint256",
          "name": "",
          "type": "uint256"
        }
      ],
      "name": "clientProjects",
      "outputs": [
        {
          "internalType": "uint256",
          "name": "",
          "type": "uint256"
        }
      ],
      "payable": false,
      "stateMutability": "view",
      "type": "function"
    },
    {
      "constant": true,
      "inputs": [],
      "name": "docNumber",
      "outputs": [
        {
          "internalType": "uint256",
          "name": "",
          "type": "uint256"
        }
      ],
      "payable": false,
      "stateMutability": "view",
      "type": "function"
    },
    {
      "constant": true,
      "inputs": [],
      "name": "isOwner",
      "outputs": [
        {
          "internalType": "bool",
          "name": "",
          "type": "bool"
        }
      ],
      "payable": false,
      "stateMutability": "view",
      "type": "function"
    },
    {
      "constant": true,
      "inputs": [],
      "name": "owner",
      "outputs": [
        {
          "internalType": "address",
          "name": "",
          "type": "address"
        }
      ],
      "payable": false,
      "stateMutability": "view",
      "type": "function"
    },
    {
      "constant": true,
      "inputs": [
        {
          "internalType": "uint256",
          "name": "",
          "type": "uint256"
        }
      ],
      "name": "processContractsArray",
      "outputs": [
        {
          "internalType": "address",
          "name": "",
          "type": "address"
        }
      ],
      "payable": false,
      "stateMutability": "view",
      "type": "function"
    },
    {
      "constant": true,
      "inputs": [
        {
          "internalType": "uint256",
          "name": "",
          "type": "uint256"
        }
      ],
      "name": "projectsArray",
      "outputs": [
        {
          "internalType": "uint256",
          "name": "",
          "type": "uint256"
        }
      ],
      "payable": false,
      "stateMutability": "view",
      "type": "function"
    },
    {
      "constant": false,
      "inputs": [],
      "name": "renounceOwnership",
      "outputs": [],
      "payable": false,
      "stateMutability": "nonpayable",
      "type": "function"
    },
    {
      "constant": true,
      "inputs": [
        {
          "internalType": "address",
          "name": "",
          "type": "address"
        },
        {
          "internalType": "uint256",
          "name": "",
          "type": "uint256"
        }
      ],
      "name": "supplierProcesses",
      "outputs": [
        {
          "internalType": "address",
          "name": "",
          "type": "address"
        }
      ],
      "payable": false,
      "stateMutability": "view",
      "type": "function"
    },
    {
      "constant": false,
      "inputs": [
        {
          "internalType": "address",
          "name": "newOwner",
          "type": "address"
        }
      ],
      "name": "transferOwnership",
      "outputs": [],
      "payable": false,
      "stateMutability": "nonpayable",
      "type": "function"
    },
    {
      "constant": true,
      "inputs": [
        {
          "internalType": "address",
          "name": "",
          "type": "address"
        }
      ],
      "name": "user",
      "outputs": [
        {
          "internalType": "bytes32",
          "name": "name",
          "type": "bytes32"
        },
        {
          "internalType": "enum NuclearPoE.Type",
          "name": "userType",
          "type": "uint8"
        },
        {
          "internalType": "enum NuclearPoE.State",
          "name": "status",
          "type": "uint8"
        }
      ],
      "payable": false,
      "stateMutability": "view",
      "type": "function"
    },
    {
      "constant": true,
      "inputs": [
        {
          "internalType": "uint256",
          "name": "",
          "type": "uint256"
        }
      ],
      "name": "usersArray",
      "outputs": [
        {
          "internalType": "address",
          "name": "",
          "type": "address"
        }
      ],
      "payable": false,
      "stateMutability": "view",
      "type": "function"
    },
    {
      "constant": false,
      "inputs": [
        {
          "internalType": "uint256",
          "name": "_id",
          "type": "uint256"
        },
        {
          "internalType": "address",
          "name": "_clientAddress",
          "type": "address"
        },
        {
          "internalType": "bytes32",
          "name": "title",
          "type": "bytes32"
        },
        {
          "internalType": "bytes32",
          "name": "oc",
          "type": "bytes32"
        }
      ],
      "name": "createProject",
      "outputs": [],
      "payable": false,
      "stateMutability": "nonpayable",
      "type": "function"
    },
    {
      "constant": false,
      "inputs": [
        {
          "internalType": "address",
          "name": "_userAddress",
          "type": "address"
        },
        {
          "internalType": "enum NuclearPoE.Type",
          "name": "_userType",
          "type": "uint8"
        },
        {
          "internalType": "bytes32",
          "name": "_userName",
          "type": "bytes32"
        }
      ],
      "name": "createUser",
      "outputs": [],
      "payable": false,
      "stateMutability": "nonpayable",
      "type": "function"
    },
    {
      "constant": false,
      "inputs": [
        {
          "internalType": "address",
          "name": "_userAddress",
          "type": "address"
        }
      ],
      "name": "changeUserStatus",
      "outputs": [],
      "payable": false,
      "stateMutability": "nonpayable",
      "type": "function"
    },
    {
      "constant": false,
      "inputs": [
        {
          "internalType": "address",
          "name": "_supplierAddress",
          "type": "address"
        },
        {
          "internalType": "bytes32",
          "name": "_processName",
          "type": "bytes32"
        }
      ],
      "name": "createProcess",
      "outputs": [],
      "payable": false,
      "stateMutability": "nonpayable",
      "type": "function"
    },
    {
      "constant": false,
      "inputs": [
        {
          "internalType": "uint256",
          "name": "_id",
          "type": "uint256"
        },
        {
          "internalType": "address",
          "name": "_processContract",
          "type": "address"
        }
      ],
      "name": "addProcessToProject",
      "outputs": [],
      "payable": false,
      "stateMutability": "nonpayable",
      "type": "function"
    },
    {
      "constant": false,
      "inputs": [
        {
          "internalType": "uint256",
          "name": "_id",
          "type": "uint256"
        }
      ],
      "name": "changeProjectStatus",
      "outputs": [],
      "payable": false,
      "stateMutability": "nonpayable",
      "type": "function"
    },
    {
      "constant": false,
      "inputs": [
        {
          "internalType": "address",
          "name": "_processAddress",
          "type": "address"
        }
      ],
      "name": "incrementDocNumber",
      "outputs": [
        {
          "internalType": "uint256",
          "name": "",
          "type": "uint256"
        }
      ],
      "payable": false,
      "stateMutability": "nonpayable",
      "type": "function"
    },
    {
      "constant": true,
      "inputs": [],
      "name": "getAllProcessContracts",
      "outputs": [
        {
          "internalType": "address[]",
          "name": "",
          "type": "address[]"
        }
      ],
      "payable": false,
      "stateMutability": "view",
      "type": "function"
    },
    {
      "constant": true,
      "inputs": [
        {
          "internalType": "uint256",
          "name": "_id",
          "type": "uint256"
        }
      ],
      "name": "getProcessContractsByProject",
      "outputs": [
        {
          "internalType": "address[]",
          "name": "",
          "type": "address[]"
        }
      ],
      "payable": false,
      "stateMutability": "view",
      "type": "function"
    },
    {
      "constant": true,
      "inputs": [],
      "name": "getAllProjects",
      "outputs": [
        {
          "internalType": "uint256[]",
          "name": "",
          "type": "uint256[]"
        }
      ],
      "payable": false,
      "stateMutability": "view",
      "type": "function"
    },
    {
      "constant": true,
      "inputs": [],
      "name": "getAllUsers",
      "outputs": [
        {
          "internalType": "address[]",
          "name": "",
          "type": "address[]"
        }
      ],
      "payable": false,
      "stateMutability": "view",
      "type": "function"
    },
    {
      "constant": true,
      "inputs": [
        {
          "internalType": "address",
          "name": "_address",
          "type": "address"
        }
      ],
      "name": "getUserDetails",
      "outputs": [
        {
          "internalType": "bytes32",
          "name": "",
          "type": "bytes32"
        },
        {
          "internalType": "enum NuclearPoE.Type",
          "name": "",
          "type": "uint8"
        },
        {
          "internalType": "enum NuclearPoE.State",
          "name": "",
          "type": "uint8"
        }
      ],
      "payable": false,
      "stateMutability": "view",
      "type": "function"
    },
    {
      "constant": true,
      "inputs": [
        {
          "internalType": "address",
          "name": "_address",
          "type": "address"
        }
      ],
      "name": "getSupplierProjects",
      "outputs": [
        {
          "internalType": "address[]",
          "name": "",
          "type": "address[]"
        }
      ],
      "payable": false,
      "stateMutability": "view",
      "type": "function"
    },
    {
      "constant": true,
      "inputs": [
        {
          "internalType": "address",
          "name": "_address",
          "type": "address"
        }
      ],
      "name": "getClientProjects",
      "outputs": [
        {
          "internalType": "uint256[]",
          "name": "",
          "type": "uint256[]"
        }
      ],
      "payable": false,
      "stateMutability": "view",
      "type": "function"
    },
    {
      "constant": true,
      "inputs": [
        {
          "internalType": "uint256",
          "name": "_id",
          "type": "uint256"
        }
      ],
      "name": "getProjectDetails",
      "outputs": [
        {
          "internalType": "enum NuclearPoE.State",
          "name": "",
          "type": "uint8"
        },
        {
          "internalType": "address",
          "name": "",
          "type": "address"
        },
        {
          "internalType": "bytes32",
          "name": "",
          "type": "bytes32"
        },
        {
          "internalType": "bytes32",
          "name": "",
          "type": "bytes32"
        },
        {
          "internalType": "bytes32",
          "name": "",
          "type": "bytes32"
        },
        {
          "internalType": "address[]",
          "name": "",
          "type": "address[]"
        }
      ],
      "payable": false,
      "stateMutability": "view",
      "type": "function"
    }
  ],
  "bytecode": "0x6080604052600060015560006100196100bc60201b60201c565b9050806000806101000a81548173ffffffffffffffffffffffffffffffffffffffff021916908373ffffffffffffffffffffffffffffffffffffffff1602179055508073ffffffffffffffffffffffffffffffffffffffff16600073ffffffffffffffffffffffffffffffffffffffff167f8be0079c531659141344cd1fd0a4f28419497f9722a3daafe3b4186f6b6457e060405160405180910390a3506100c4565b600033905090565b613a69806100d36000396000f3fe608060405234801561001057600080fd5b506004361061018e5760003560e01c806375cae8c0116100de5780639a8b3d8f11610097578063e6c3993011610071578063e6c3993014610a24578063f136229a14610a92578063f2fde38b14610ac0578063fb4e2c7914610b045761018e565b80639a8b3d8f146108aa578063cc3d967b14610943578063e2842d79146109c55761018e565b806375cae8c0146106a657806380d038291461070557806381e194901461076457806381e7e20e146107bc5780638da5cb5b1461083e5780638f32d59b146108885761018e565b8063457b048f1161014b57806364b785fa1161012557806364b785fa146105aa57806366c3e861146105ec578063715018a61461064e57806373f04d7f146106585761018e565b8063457b048f146103ec5780635c6db281146104475780635f8439e3146104ca5761018e565b8063059d040f1461019357806309b0466b1461022c5780631da5e56f1461024a5780631fa0b7731461028e5780632fae35c01461031c578063427583a21461038a575b600080fd5b6101d5600480360360208110156101a957600080fd5b81019080803573ffffffffffffffffffffffffffffffffffffffff169060200190929190505050610b52565b6040518080602001828103825283818151815260200191508051906020019060200280838360005b838110156102185780820151818401526020810190506101fd565b505050509050019250505060405180910390f35b610234610c1f565b6040518082815260200191505060405180910390f35b61028c6004803603602081101561026057600080fd5b81019080803573ffffffffffffffffffffffffffffffffffffffff169060200190929190505050610c25565b005b6102da600480360360408110156102a457600080fd5b81019080803573ffffffffffffffffffffffffffffffffffffffff16906020019092919080359060200190929190505050610f84565b604051808273ffffffffffffffffffffffffffffffffffffffff1673ffffffffffffffffffffffffffffffffffffffff16815260200191505060405180910390f35b6103486004803603602081101561033257600080fd5b8101908080359060200190929190505050610fcf565b604051808273ffffffffffffffffffffffffffffffffffffffff1673ffffffffffffffffffffffffffffffffffffffff16815260200191505060405180910390f35b6103d6600480360360408110156103a057600080fd5b81019080803573ffffffffffffffffffffffffffffffffffffffff1690602001909291908035906020019092919050505061100b565b6040518082815260200191505060405180910390f35b6104456004803603606081101561040257600080fd5b81019080803573ffffffffffffffffffffffffffffffffffffffff169060200190929190803560ff16906020019092919080359060200190929190505050611039565b005b6104736004803603602081101561045d57600080fd5b81019080803590602001909291905050506112f5565b6040518080602001828103825283818151815260200191508051906020019060200280838360005b838110156104b657808201518184015260208101905061049b565b505050509050019250505060405180910390f35b6104f6600480360360208110156104e057600080fd5b8101908080359060200190929190505050611399565b6040518087600281111561050657fe5b60ff1681526020018673ffffffffffffffffffffffffffffffffffffffff1673ffffffffffffffffffffffffffffffffffffffff16815260200185815260200184815260200183815260200180602001828103825283818151815260200191508051906020019060200280838360005b83811015610591578082015181840152602081019050610576565b5050505090500197505050505050505060405180910390f35b6105d6600480360360208110156105c057600080fd5b8101908080359060200190929190505050611564565b6040518082815260200191505060405180910390f35b61064c6004803603608081101561060257600080fd5b8101908080359060200190929190803573ffffffffffffffffffffffffffffffffffffffff1690602001909291908035906020019092919080359060200190929190505050611585565b005b610656611a47565b005b6106a46004803603604081101561066e57600080fd5b8101908080359060200190929190803573ffffffffffffffffffffffffffffffffffffffff169060200190929190505050611b80565b005b6106ae611d0a565b6040518080602001828103825283818151815260200191508051906020019060200280838360005b838110156106f15780820151818401526020810190506106d6565b505050509050019250505060405180910390f35b61070d611d98565b6040518080602001828103825283818151815260200191508051906020019060200280838360005b83811015610750578082015181840152602081019050610735565b505050509050019250505060405180910390f35b6107a66004803603602081101561077a57600080fd5b81019080803573ffffffffffffffffffffffffffffffffffffffff169060200190929190505050611df0565b6040518082815260200191505060405180910390f35b6107fe600480360360208110156107d257600080fd5b81019080803573ffffffffffffffffffffffffffffffffffffffff169060200190929190505050611e94565b6040518084815260200183600181111561081457fe5b60ff16815260200182600281111561082857fe5b60ff168152602001935050505060405180910390f35b610846611ed8565b604051808273ffffffffffffffffffffffffffffffffffffffff1673ffffffffffffffffffffffffffffffffffffffff16815260200191505060405180910390f35b610890611f01565b604051808215151515815260200191505060405180910390f35b6108ec600480360360208110156108c057600080fd5b81019080803573ffffffffffffffffffffffffffffffffffffffff169060200190929190505050611f5f565b6040518080602001828103825283818151815260200191508051906020019060200280838360005b8381101561092f578082015181840152602081019050610914565b505050509050019250505060405180910390f35b6109856004803603602081101561095957600080fd5b81019080803573ffffffffffffffffffffffffffffffffffffffff169060200190929190505050611ff6565b6040518084815260200183600181111561099b57fe5b60ff1681526020018260028111156109af57fe5b60ff168152602001935050505060405180910390f35b6109cd6120eb565b6040518080602001828103825283818151815260200191508051906020019060200280838360005b83811015610a105780820151818401526020810190506109f5565b505050509050019250505060405180910390f35b610a5060048036036020811015610a3a57600080fd5b8101908080359060200190929190505050612179565b604051808273ffffffffffffffffffffffffffffffffffffffff1673ffffffffffffffffffffffffffffffffffffffff16815260200191505060405180910390f35b610abe60048036036020811015610aa857600080fd5b81019080803590602001909291905050506121b5565b005b610b0260048036036020811015610ad657600080fd5b81019080803573ffffffffffffffffffffffffffffffffffffffff1690602001909291905050506123b3565b005b610b5060048036036040811015610b1a57600080fd5b81019080803573ffffffffffffffffffffffffffffffffffffffff16906020019092919080359060200190929190505050612439565b005b6060600660008373ffffffffffffffffffffffffffffffffffffffff1673ffffffffffffffffffffffffffffffffffffffff168152602001908152602001600020805480602002602001604051908101604052809291908181526020018280548015610c1357602002820191906000526020600020905b8160009054906101000a900473ffffffffffffffffffffffffffffffffffffffff1673ffffffffffffffffffffffffffffffffffffffff1681526020019060010190808311610bc9575b50505050509050919050565b60015481565b610c2d611f01565b610c9f576040517f08c379a00000000000000000000000000000000000000000000000000000000081526004018080602001828103825260208152602001807f4f776e61626c653a2063616c6c6572206973206e6f7420746865206f776e657281525060200191505060405180910390fd5b8060006002811115610cad57fe5b600760008373ffffffffffffffffffffffffffffffffffffffff1673ffffffffffffffffffffffffffffffffffffffff16815260200190815260200160002060010160019054906101000a900460ff166002811115610d0857fe5b1415610d7c576040517f08c379a00000000000000000000000000000000000000000000000000000000081526004018080602001828103825260138152602001807f5573657220646f6573206e6f742065786973740000000000000000000000000081525060200191505060405180910390fd5b60016002811115610d8957fe5b600760008473ffffffffffffffffffffffffffffffffffffffff1673ffffffffffffffffffffffffffffffffffffffff16815260200190815260200160002060010160019054906101000a900460ff166002811115610de457fe5b1415610e53576002600760008473ffffffffffffffffffffffffffffffffffffffff1673ffffffffffffffffffffffffffffffffffffffff16815260200190815260200160002060010160016101000a81548160ff02191690836002811115610e4957fe5b0217905550610eb8565b6001600760008473ffffffffffffffffffffffffffffffffffffffff1673ffffffffffffffffffffffffffffffffffffffff16815260200190815260200160002060010160016101000a81548160ff02191690836002811115610eb257fe5b02179055505b7fc2637f3b825f69a33a2b7185f2fb4bc48482764633b7215de9a23f457f3040d682600760008573ffffffffffffffffffffffffffffffffffffffff1673ffffffffffffffffffffffffffffffffffffffff16815260200190815260200160002060010160019054906101000a900460ff16604051808373ffffffffffffffffffffffffffffffffffffffff1673ffffffffffffffffffffffffffffffffffffffff168152602001826002811115610f6c57fe5b60ff1681526020019250505060405180910390a15050565b60066020528160005260406000208181548110610f9d57fe5b906000526020600020016000915091509054906101000a900473ffffffffffffffffffffffffffffffffffffffff1681565b60048181548110610fdc57fe5b906000526020600020016000915054906101000a900473ffffffffffffffffffffffffffffffffffffffff1681565b6005602052816000526040600020818154811061102457fe5b90600052602060002001600091509150505481565b611041611f01565b6110b3576040517f08c379a00000000000000000000000000000000000000000000000000000000081526004018080602001828103825260208152602001807f4f776e61626c653a2063616c6c6572206973206e6f7420746865206f776e657281525060200191505060405180910390fd5b600060028111156110c057fe5b600760008573ffffffffffffffffffffffffffffffffffffffff1673ffffffffffffffffffffffffffffffffffffffff16815260200190815260200160002060010160019054906101000a900460ff16600281111561111b57fe5b1461118e576040517f08c379a00000000000000000000000000000000000000000000000000000000081526004018080602001828103825260148152602001807f5573657220616c7265616479206372656174656400000000000000000000000081525060200191505060405180910390fd5b60405180606001604052808281526020018360018111156111ab57fe5b8152602001600160028111156111bd57fe5b815250600760008573ffffffffffffffffffffffffffffffffffffffff1673ffffffffffffffffffffffffffffffffffffffff1681526020019081526020016000206000820151816000015560208201518160010160006101000a81548160ff0219169083600181111561122d57fe5b021790555060408201518160010160016101000a81548160ff0219169083600281111561125657fe5b021790555090505060048390806001815401808255809150509060018203906000526020600020016000909192909190916101000a81548173ffffffffffffffffffffffffffffffffffffffff021916908373ffffffffffffffffffffffffffffffffffffffff160217905550507fdf39eb8e1857414a3a40d5964987610c5f80d0d28a16f33fa749ac85d905166660405160405180910390a1505050565b60606008600083815260200190815260200160002060030180548060200260200160405190810160405280929190818152602001828054801561138d57602002820191906000526020600020905b8160009054906101000a900473ffffffffffffffffffffffffffffffffffffffff1673ffffffffffffffffffffffffffffffffffffffff1681526020019060010190808311611343575b50505050509050919050565b6000806000806000606060006008600089815260200190815260200160002060000160019054906101000a900473ffffffffffffffffffffffffffffffffffffffff1690506000600760008373ffffffffffffffffffffffffffffffffffffffff1673ffffffffffffffffffffffffffffffffffffffff168152602001908152602001600020600001549050600860008a815260200190815260200160002060000160009054906101000a900460ff16600860008b815260200190815260200160002060000160019054906101000a900473ffffffffffffffffffffffffffffffffffffffff1682600860008d815260200190815260200160002060010154600860008e815260200190815260200160002060020154600860008f81526020019081526020016000206003018080548060200260200160405190810160405280929190818152602001828054801561154657602002820191906000526020600020905b8160009054906101000a900473ffffffffffffffffffffffffffffffffffffffff1673ffffffffffffffffffffffffffffffffffffffff16815260200190600101908083116114fc575b50505050509050975097509750975097509750505091939550919395565b6003818154811061157157fe5b906000526020600020016000915090505481565b61158d611f01565b6115ff576040517f08c379a00000000000000000000000000000000000000000000000000000000081526004018080602001828103825260208152602001807f4f776e61626c653a2063616c6c6572206973206e6f7420746865206f776e657281525060200191505060405180910390fd5b826000600281111561160d57fe5b600760008373ffffffffffffffffffffffffffffffffffffffff1673ffffffffffffffffffffffffffffffffffffffff16815260200190815260200160002060010160019054906101000a900460ff16600281111561166857fe5b14156116dc576040517f08c379a00000000000000000000000000000000000000000000000000000000081526004018080602001828103825260138152602001807f5573657220646f6573206e6f742065786973740000000000000000000000000081525060200191505060405180910390fd5b600060028111156116e957fe5b6008600087815260200190815260200160002060000160009054906101000a900460ff16600281111561171857fe5b1461176e576040517f08c379a0000000000000000000000000000000000000000000000000000000008152600401808060200182810382526021815260200180613a146021913960400191505060405180910390fd5b6000600181111561177b57fe5b600760008673ffffffffffffffffffffffffffffffffffffffff1673ffffffffffffffffffffffffffffffffffffffff16815260200190815260200160002060010160009054906101000a900460ff1660018111156117d657fe5b14611849576040517f08c379a000000000000000000000000000000000000000000000000000000000815260040180806020018281038252601a8152602001807f557365722068617320746f20626520436c69656e74205479706500000000000081525060200191505060405180910390fd5b6060600060405190808252806020026020018201604052801561187b5781602001602082028038833980820191505090505b5090506040518060a001604052806001600281111561189657fe5b81526020018673ffffffffffffffffffffffffffffffffffffffff168152602001858152602001848152602001828152506008600088815260200190815260200160002060008201518160000160006101000a81548160ff021916908360028111156118fe57fe5b021790555060208201518160000160016101000a81548173ffffffffffffffffffffffffffffffffffffffff021916908373ffffffffffffffffffffffffffffffffffffffff1602179055506040820151816001015560608201518160020155608082015181600301908051906020019061197a9291906128f1565b50905050600560008673ffffffffffffffffffffffffffffffffffffffff1673ffffffffffffffffffffffffffffffffffffffff16815260200190815260200160002086908060018154018082558091505090600182039060005260206000200160009091929091909150555060038690806001815401808255809150509060018203906000526020600020016000909192909190915055507fbab479b5b86675be7215930d13339d95c3af3099f28b31caf6cac1c3a08c3da760405160405180910390a1505050505050565b611a4f611f01565b611ac1576040517f08c379a00000000000000000000000000000000000000000000000000000000081526004018080602001828103825260208152602001807f4f776e61626c653a2063616c6c6572206973206e6f7420746865206f776e657281525060200191505060405180910390fd5b600073ffffffffffffffffffffffffffffffffffffffff166000809054906101000a900473ffffffffffffffffffffffffffffffffffffffff1673ffffffffffffffffffffffffffffffffffffffff167f8be0079c531659141344cd1fd0a4f28419497f9722a3daafe3b4186f6b6457e060405160405180910390a360008060006101000a81548173ffffffffffffffffffffffffffffffffffffffff021916908373ffffffffffffffffffffffffffffffffffffffff160217905550565b611b88611f01565b611bfa576040517f08c379a00000000000000000000000000000000000000000000000000000000081526004018080602001828103825260208152602001807f4f776e61626c653a2063616c6c6572206973206e6f7420746865206f776e657281525060200191505060405180910390fd5b60016002811115611c0757fe5b6008600084815260200190815260200160002060000160009054906101000a900460ff166002811115611c3657fe5b14611c8c576040517f08c379a00000000000000000000000000000000000000000000000000000000081526004018080602001828103825260238152602001806139f16023913960400191505060405180910390fd5b600860008381526020019081526020016000206003018190806001815401808255809150509060018203906000526020600020016000909192909190916101000a81548173ffffffffffffffffffffffffffffffffffffffff021916908373ffffffffffffffffffffffffffffffffffffffff160217905550505050565b60606002805480602002602001604051908101604052809291908181526020018280548015611d8e57602002820191906000526020600020905b8160009054906101000a900473ffffffffffffffffffffffffffffffffffffffff1673ffffffffffffffffffffffffffffffffffffffff1681526020019060010190808311611d44575b5050505050905090565b60606003805480602002602001604051908101604052809291908181526020018280548015611de657602002820191906000526020600020905b815481526020019060010190808311611dd2575b5050505050905090565b6000818073ffffffffffffffffffffffffffffffffffffffff163373ffffffffffffffffffffffffffffffffffffffff1614611e77576040517f08c379a000000000000000000000000000000000000000000000000000000000815260040180806020018281038252602181526020018061397f6021913960400191505060405180910390fd5b600160008154809291906001019190505550600154915050919050565b60076020528060005260406000206000915090508060000154908060010160009054906101000a900460ff16908060010160019054906101000a900460ff16905083565b60008060009054906101000a900473ffffffffffffffffffffffffffffffffffffffff16905090565b60008060009054906101000a900473ffffffffffffffffffffffffffffffffffffffff1673ffffffffffffffffffffffffffffffffffffffff16611f436127a5565b73ffffffffffffffffffffffffffffffffffffffff1614905090565b6060600560008373ffffffffffffffffffffffffffffffffffffffff1673ffffffffffffffffffffffffffffffffffffffff168152602001908152602001600020805480602002602001604051908101604052809291908181526020018280548015611fea57602002820191906000526020600020905b815481526020019060010190808311611fd6575b50505050509050919050565b6000806000600760008573ffffffffffffffffffffffffffffffffffffffff1673ffffffffffffffffffffffffffffffffffffffff16815260200190815260200160002060000154600760008673ffffffffffffffffffffffffffffffffffffffff1673ffffffffffffffffffffffffffffffffffffffff16815260200190815260200160002060010160009054906101000a900460ff16600760008773ffffffffffffffffffffffffffffffffffffffff1673ffffffffffffffffffffffffffffffffffffffff16815260200190815260200160002060010160019054906101000a900460ff169250925092509193909250565b6060600480548060200260200160405190810160405280929190818152602001828054801561216f57602002820191906000526020600020905b8160009054906101000a900473ffffffffffffffffffffffffffffffffffffffff1673ffffffffffffffffffffffffffffffffffffffff1681526020019060010190808311612125575b5050505050905090565b6002818154811061218657fe5b906000526020600020016000915054906101000a900473ffffffffffffffffffffffffffffffffffffffff1681565b6121bd611f01565b61222f576040517f08c379a00000000000000000000000000000000000000000000000000000000081526004018080602001828103825260208152602001807f4f776e61626c653a2063616c6c6572206973206e6f7420746865206f776e657281525060200191505060405180910390fd5b6001600281111561223c57fe5b6008600083815260200190815260200160002060000160009054906101000a900460ff16600281111561226b57fe5b146122c1576040517f08c379a000000000000000000000000000000000000000000000000000000000815260040180806020018281038252602b8152602001806139c6602b913960400191505060405180910390fd5b600160028111156122ce57fe5b6008600083815260200190815260200160002060000160009054906101000a900460ff1660028111156122fd57fe5b14156123405760026008600083815260200190815260200160002060000160006101000a81548160ff0219169083600281111561233657fe5b0217905550612379565b60016008600083815260200190815260200160002060000160006101000a81548160ff0219169083600281111561237357fe5b02179055505b7fbec9556bb3135b56bce7e5777e4ff2e769e11e11201683c16c952dfc02649177816040518082815260200191505060405180910390a150565b6123bb611f01565b61242d576040517f08c379a00000000000000000000000000000000000000000000000000000000081526004018080602001828103825260208152602001807f4f776e61626c653a2063616c6c6572206973206e6f7420746865206f776e657281525060200191505060405180910390fd5b612436816127ad565b50565b612441611f01565b6124b3576040517f08c379a00000000000000000000000000000000000000000000000000000000081526004018080602001828103825260208152602001807f4f776e61626c653a2063616c6c6572206973206e6f7420746865206f776e657281525060200191505060405180910390fd5b81600060028111156124c157fe5b600760008373ffffffffffffffffffffffffffffffffffffffff1673ffffffffffffffffffffffffffffffffffffffff16815260200190815260200160002060010160019054906101000a900460ff16600281111561251c57fe5b1415612590576040517f08c379a00000000000000000000000000000000000000000000000000000000081526004018080602001828103825260138152602001807f5573657220646f6573206e6f742065786973740000000000000000000000000081525060200191505060405180910390fd5b60018081111561259c57fe5b600760008573ffffffffffffffffffffffffffffffffffffffff1673ffffffffffffffffffffffffffffffffffffffff16815260200190815260200160002060010160009054906101000a900460ff1660018111156125f757fe5b1461266a576040517f08c379a000000000000000000000000000000000000000000000000000000000815260040180806020018281038252601c8152602001807f557365722068617320746f20626520537570706c69657220547970650000000081525060200191505060405180910390fd5b6000838360405161267a9061297b565b808373ffffffffffffffffffffffffffffffffffffffff1673ffffffffffffffffffffffffffffffffffffffff16815260200182815260200192505050604051809103906000f0801580156126d3573d6000803e3d6000fd5b50905060028190806001815401808255809150509060018203906000526020600020016000909192909190916101000a81548173ffffffffffffffffffffffffffffffffffffffff021916908373ffffffffffffffffffffffffffffffffffffffff160217905550507f908a1d72896b3c6e31c2e9ac8d65ae9676a54dd26195d4496442c50ff1b0b79781604051808273ffffffffffffffffffffffffffffffffffffffff1673ffffffffffffffffffffffffffffffffffffffff16815260200191505060405180910390a150505050565b600033905090565b600073ffffffffffffffffffffffffffffffffffffffff168173ffffffffffffffffffffffffffffffffffffffff161415612833576040517f08c379a00000000000000000000000000000000000000000000000000000000081526004018080602001828103825260268152602001806139a06026913960400191505060405180910390fd5b8073ffffffffffffffffffffffffffffffffffffffff166000809054906101000a900473ffffffffffffffffffffffffffffffffffffffff1673ffffffffffffffffffffffffffffffffffffffff167f8be0079c531659141344cd1fd0a4f28419497f9722a3daafe3b4186f6b6457e060405160405180910390a3806000806101000a81548173ffffffffffffffffffffffffffffffffffffffff021916908373ffffffffffffffffffffffffffffffffffffffff16021790555050565b82805482825590600052602060002090810192821561296a579160200282015b828111156129695782518260006101000a81548173ffffffffffffffffffffffffffffffffffffffff021916908373ffffffffffffffffffffffffffffffffffffffff16021790555091602001919060010190612911565b5b5090506129779190612988565b5090565b610fb3806129cc83390190565b6129c891905b808211156129c457600081816101000a81549073ffffffffffffffffffffffffffffffffffffffff02191690555060010161298e565b5090565b9056fe608060405234801561001057600080fd5b50604051610fb3380380610fb38339818101604052604081101561003357600080fd5b810190808051906020019092919080519060200190929190505050336000806101000a81548173ffffffffffffffffffffffffffffffffffffffff021916908373ffffffffffffffffffffffffffffffffffffffff1602179055508060018190555081600260006101000a81548173ffffffffffffffffffffffffffffffffffffffff021916908373ffffffffffffffffffffffffffffffffffffffff1602179055505050610ecc806100e76000396000f3fe608060405234801561001057600080fd5b50600436106100625760003560e01c80638a7cf0b8146100675780639fa5f50b146100c3578063b10d6b4114610122578063bb57f61314610258578063cdee934e14610369578063fbbf93a0146103ab575b600080fd5b6100936004803603602081101561007d57600080fd5b81019080803590602001909291905050506104aa565b604051808481526020018360ff1660ff1681526020018260ff1660ff168152602001935050505060405180910390f35b6100cb6105a7565b6040518080602001828103825283818151815260200191508051906020019060200280838360005b8381101561010e5780820151818401526020810190506100f3565b505050509050019250505060405180910390f35b61014e6004803603602081101561013857600080fd5b81019080803590602001909291905050506105ff565b60405180806020018881526020018781526020018681526020018581526020018481526020018060200183810383528a818151815260200191508051906020019080838360005b838110156101b0578082015181840152602081019050610195565b50505050905090810190601f1680156101dd5780820380516001836020036101000a031916815260200191505b50838103825284818151815260200191508051906020019080838360005b838110156102165780820151818401526020810190506101fb565b50505050905090810190601f1680156102435780820380516001836020036101000a031916815260200191505b50995050505050505050505060405180910390f35b610367600480360361010081101561026f57600080fd5b810190808035906020019064010000000081111561028c57600080fd5b82018360208201111561029e57600080fd5b803590602001918460018302840111640100000000831117156102c057600080fd5b909192939192939080359060200190929190803560ff169060200190929190803560ff1690602001909291908035906020019092919080359060200190929190803590602001909291908035906020019064010000000081111561032357600080fd5b82018360208201111561033557600080fd5b8035906020019184600183028401116401000000008311171561035757600080fd5b9091929391929390505050610872565b005b6103956004803603602081101561037f57600080fd5b8101908080359060200190929190505050610d1a565b6040518082815260200191505060405180910390f35b6103b3610d3b565b604051808673ffffffffffffffffffffffffffffffffffffffff1673ffffffffffffffffffffffffffffffffffffffff1681526020018573ffffffffffffffffffffffffffffffffffffffff1673ffffffffffffffffffffffffffffffffffffffff168152602001848152602001806020018373ffffffffffffffffffffffffffffffffffffffff1673ffffffffffffffffffffffffffffffffffffffff168152602001828103825284818151815260200191508051906020019060200280838360005b83811015610492578082015181840152602081019050610477565b50505050905001965050505050505060405180910390f35b6000806000806004600086815260200190815260200160002060060154141561053b576040517f08c379a00000000000000000000000000000000000000000000000000000000081526004018080602001828103825260178152602001807f446f63756d656e7420646f6573206e6f7420657869737400000000000000000081525060200191505060405180910390fd5b60046000858152602001908152602001600020600301546004600086815260200190815260200160002060040160009054906101000a900460ff166004600087815260200190815260200160002060040160019054906101000a900460ff169250925092509193909250565b606060038054806020026020016040519081016040528092919081815260200182805480156105f557602002820191906000526020600020905b8154815260200190600101908083116105e1575b5050505050905090565b6060600080600080600060606000600460008a8152602001908152602001600020600601541415610698576040517f08c379a00000000000000000000000000000000000000000000000000000000081526004018080602001828103825260178152602001807f446f63756d656e7420646f6573206e6f7420657869737400000000000000000081525060200191505060405180910390fd5b6004600089815260200190815260200160002060000188600460008b815260200190815260200160002060010154600460008c815260200190815260200160002060020154600460008d815260200190815260200160002060050154600460008e815260200190815260200160002060060154600460008f8152602001908152602001600020600701868054600181600116156101000203166002900480601f0160208091040260200160405190810160405280929190818152602001828054600181600116156101000203166002900480156107b65780601f1061078b576101008083540402835291602001916107b6565b820191906000526020600020905b81548152906001019060200180831161079957829003601f168201915b50505050509650808054600181600116156101000203166002900480601f0160208091040260200160405190810160405280929190818152602001828054600181600116156101000203166002900480156108525780601f1061082757610100808354040283529160200191610852565b820191906000526020600020905b81548152906001019060200180831161083557829003601f168201915b505050505090509650965096509650965096509650919395979092949650565b600260009054906101000a900473ffffffffffffffffffffffffffffffffffffffff1673ffffffffffffffffffffffffffffffffffffffff163373ffffffffffffffffffffffffffffffffffffffff1614610935576040517f08c379a000000000000000000000000000000000000000000000000000000000815260040180806020018281038252601d8152602001807f48617320746f20626520737570706c696572206f662070726f6a65637400000081525060200191505060405180910390fd5b6000600460008a815260200190815260200160002060060154146109c1576040517f08c379a00000000000000000000000000000000000000000000000000000000081526004018080602001828103825260188152602001807f446f63756d656e7420616c72656164792063726561746564000000000000000081525060200191505060405180910390fd5b60008060009054906101000a900473ffffffffffffffffffffffffffffffffffffffff1690506040518061012001604052808c8c8080601f016020809104026020016040519081016040528093929190818152602001838380828437600081840152601f19601f8201169050808301925050505050505081526020018681526020018581526020018781526020018960ff1681526020018860ff1681526020018273ffffffffffffffffffffffffffffffffffffffff166309b0466b6040518163ffffffff1660e01b815260040160206040518083038186803b158015610aa757600080fd5b505afa158015610abb573d6000803e3d6000fd5b505050506040513d6020811015610ad157600080fd5b8101908080519060200190929190505050815260200142815260200184848080601f016020809104026020016040519081016040528093929190818152602001838380828437600081840152601f19601f82011690508083019250505050505050815250600460008b81526020019081526020016000206000820151816000019080519060200190610b64929190610df2565b5060208201518160010155604082015181600201556060820151816003015560808201518160040160006101000a81548160ff021916908360ff16021790555060a08201518160040160016101000a81548160ff021916908360ff16021790555060c0820151816005015560e08201518160060155610100820151816007019080519060200190610bf6929190610df2565b5090505060038990806001815401808255809150509060018203906000526020600020016000909192909190915055508073ffffffffffffffffffffffffffffffffffffffff166381e19490306040518263ffffffff1660e01b8152600401808273ffffffffffffffffffffffffffffffffffffffff1673ffffffffffffffffffffffffffffffffffffffff168152602001915050602060405180830381600087803b158015610ca557600080fd5b505af1158015610cb9573d6000803e3d6000fd5b505050506040513d6020811015610ccf57600080fd5b8101908080519060200190929190505050507f0ac146a5629d2541f754db3df5197733e7c3002b8cfe1da2416abd2c9a49c28c60405160405180910390a15050505050505050505050565b60038181548110610d2757fe5b906000526020600020016000915090505481565b6000806000606060008060009054906101000a900473ffffffffffffffffffffffffffffffffffffffff16600260009054906101000a900473ffffffffffffffffffffffffffffffffffffffff1660015460033081805480602002602001604051908101604052809291908181526020018280548015610dda57602002820191906000526020600020905b815481526020019060010190808311610dc6575b50505050509150945094509450945094509091929394565b828054600181600116156101000203166002900490600052602060002090601f016020900481019282601f10610e3357805160ff1916838001178555610e61565b82800160010185558215610e61579182015b82811115610e60578251825591602001919060010190610e45565b5b509050610e6e9190610e72565b5090565b610e9491905b80821115610e90576000816000905550600101610e78565b5090565b9056fea265627a7a723158208fe3604f9c01eba38dff34b6f1a8c867a040f55651071942ed77a4744cbb915264736f6c6343000510003253656e6465722068617320746f2062652070726f6a65637420436f6e74726163744f776e61626c653a206e6577206f776e657220697320746865207a65726f206164647265737350726f6a65637420646f6573206e6f74206578697374206f7220697320616c726561647920636c6f73656450726f6a65637420646f6573206e6f74206578697374206f7220697320636c6f73656450726f6a65637420616c72656164792063726561746564206f7220636c6f736564a265627a7a72315820a871b8c30e3540b675a410c567d0a1ccd95d4b4a3be94192a4c9054cded3feed64736f6c63430005100032",
  "source": "pragma solidity >=0.5.0 <0.7.0;\n\nimport './Ownable.sol';\nimport './Process.sol';\n\ncontract NuclearPoE is Ownable {\n    uint256 public docNumber = 0;\n    enum State {Null, Created, Closed}\n    enum Type {Client, Supplier}\n\n    struct User {\n        bytes32 name;\n        Type userType;\n        State status;\n    }\n\n    struct Project {\n        State status;\n        address clientAddress;\n        bytes32 title;\n        bytes32 oc;\n        address[] processContracts;\n    }\n\n    address[] public processContractsArray;\n    uint256[] public projectsArray;\n    address[] public usersArray;\n\n    mapping(address => uint256[]) public clientProjects;\n    mapping(address => address[]) public supplierProcesses;\n    mapping(address => User) public user;\n    mapping(uint256 => Project) private project;\n\n    modifier onlyProcessContract(address _processAddress) {\n        require(\n            msg.sender == _processAddress,\n            'Sender has to be project Contract'\n        );\n        _;\n    }\n\n    modifier onlyClient(address _clientAddress) {\n        require(\n            msg.sender == _clientAddress,\n            'Only clients of this project can realize this operation'\n        );\n        require(\n            user[msg.sender].userType == Type.Client,\n            'Sender is not client type'\n        );\n        _;\n    }\n\n    modifier onlyExistingUser(address _address) {\n        require(user[_address].status != State.Null, 'User does not exist');\n        _;\n    }\n\n    event CreateProject();\n    event CreateUser();\n    event CreateProcess(address ProcessContractAddress);\n    event CloseProject(uint256 id);\n    event ChangeUserStatus(address UserAddress, State UserState);\n\n    function createProject(\n        uint256 _id,\n        address _clientAddress,\n        bytes32 title,\n        bytes32 oc\n    ) external onlyOwner() onlyExistingUser(_clientAddress) {\n        require(\n            project[_id].status == State.Null,\n            'Project already created or closed'\n        );\n        require(\n            user[_clientAddress].userType == Type.Client,\n            'User has to be Client Type'\n        );\n\n        address[] memory processContracts = new address[](0);\n        project[_id] = Project(\n            State.Created,\n            _clientAddress,\n            title,\n            oc,\n            processContracts\n        );\n        clientProjects[_clientAddress].push(_id);\n        projectsArray.push(_id);\n\n        emit CreateProject();\n    }\n\n    function createUser(address _userAddress, Type _userType, bytes32 _userName)\n        external\n        onlyOwner()\n    {\n        require(\n            user[_userAddress].status == State.Null,\n            'User already created'\n        );\n\n        user[_userAddress] = User(_userName, _userType, State.Created);\n        usersArray.push(_userAddress);\n\n        emit CreateUser();\n    }\n\n    function changeUserStatus(address _userAddress)\n        external\n        onlyOwner()\n        onlyExistingUser(_userAddress)\n    {\n        if (user[_userAddress].status == State.Created)\n            user[_userAddress].status = State.Closed;\n        else user[_userAddress].status = State.Created;\n\n        emit ChangeUserStatus(_userAddress, user[_userAddress].status);\n    }\n\n    function createProcess(address _supplierAddress, bytes32 _processName)\n        external\n        onlyOwner()\n        onlyExistingUser(_supplierAddress)\n    {\n        require(\n            user[_supplierAddress].userType == Type.Supplier,\n            'User has to be Supplier Type'\n        );\n\n        address ProcessContractAddress = address(\n            new Process(_supplierAddress, _processName)\n        );\n        processContractsArray.push(ProcessContractAddress);\n\n        emit CreateProcess(ProcessContractAddress);\n    }\n\n    function addProcessToProject(uint256 _id, address _processContract)\n        external\n        onlyOwner()\n    {\n        require(\n            project[_id].status == State.Created,\n            'Project does not exist or is closed'\n        );\n\n        project[_id].processContracts.push(_processContract);\n    }\n\n    function changeProjectStatus(uint256 _id) external onlyOwner() {\n        require(\n            project[_id].status == State.Created,\n            'Project does not exist or is already closed'\n        );\n\n        if (project[_id].status == State.Created)\n            project[_id].status = State.Closed;\n        else project[_id].status = State.Created;\n\n        emit CloseProject(_id);\n    }\n\n    // Receives input from corresponding Process Contract and returns new Doc Number\n    function incrementDocNumber(address _processAddress)\n        external\n        onlyProcessContract(_processAddress)\n        returns (uint256)\n    {\n        docNumber++;\n        return docNumber;\n    }\n\n    function getAllProcessContracts() external view returns (address[] memory) {\n        return processContractsArray;\n    }\n\n    function getProcessContractsByProject(uint256 _id)\n        external\n        view\n        returns (address[] memory)\n    {\n        return project[_id].processContracts;\n    }\n\n    function getAllProjects() external view returns (uint256[] memory) {\n        return projectsArray;\n    }\n\n    function getAllUsers() external view returns (address[] memory) {\n        return usersArray;\n    }\n\n    function getUserDetails(address _address)\n        external\n        view\n        returns (bytes32, Type, State)\n    {\n        return (\n            user[_address].name,\n            user[_address].userType,\n            user[_address].status\n        );\n    }\n\n    function getSupplierProjects(address _address)\n        external\n        view\n        returns (address[] memory)\n    {\n        return (supplierProcesses[_address]);\n    }\n\n    function getClientProjects(address _address)\n        external\n        view\n        returns (uint256[] memory)\n    {\n        return (clientProjects[_address]);\n    }\n\n    function getProjectDetails(uint256 _id)\n        external\n        view\n        returns (State, address, bytes32, bytes32, bytes32, address[] memory)\n    {\n        address clientAddress = project[_id].clientAddress;\n        bytes32 clientName = user[clientAddress].name;\n        return (\n            project[_id].status,\n            project[_id].clientAddress,\n            clientName,\n            project[_id].title,\n            project[_id].oc,\n            project[_id].processContracts\n        );\n    }\n\n}\n",
  "sourcePath": "/Users/sebastinez/Documents/GitHub/Nuclearis-PoE/contracts/NuclearPoE.sol",
  "compiler": {
    "name": "solc",
    "version": "0.5.16+commit.9c3226ce.Emscripten.clang"
  },
  "schemaVersion": "3.0.23",
  "updatedAt": "2020-03-26T14:22:17.138Z",
  "devdoc": {
    "methods": {
      "isOwner()": {
        "details": "Returns true if the caller is the current owner."
      },
      "owner()": {
        "details": "Returns the address of the current owner."
      },
      "renounceOwnership()": {
        "details": "Leaves the contract without owner. It will not be possible to call `onlyOwner` functions anymore. Can only be called by the current owner.     * NOTE: Renouncing ownership will leave the contract without an owner, thereby removing any functionality that is only available to the owner."
      },
      "transferOwnership(address)": {
        "details": "Transfers ownership of the contract to a new account (`newOwner`). Can only be called by the current owner."
      }
    }
  },
  "userdoc": {
    "methods": {}
  }
}