{
  "contractName": "Process",
  "abi": [
    {
      "inputs": [
        {
          "internalType": "address",
          "name": "_supplierAddress",
          "type": "address"
        },
        {
          "internalType": "bytes32",
          "name": "_processName",
          "type": "bytes32"
        }
      ],
      "payable": false,
      "stateMutability": "nonpayable",
      "type": "constructor"
    },
    {
      "anonymous": false,
      "inputs": [],
      "name": "AddDocument",
      "type": "event"
    },
    {
      "constant": true,
      "inputs": [
        {
          "internalType": "uint256",
          "name": "",
          "type": "uint256"
        }
      ],
      "name": "allDocuments",
      "outputs": [
        {
          "internalType": "bytes32",
          "name": "",
          "type": "bytes32"
        }
      ],
      "payable": false,
      "stateMutability": "view",
      "type": "function"
    },
    {
      "constant": false,
      "inputs": [
        {
          "internalType": "string",
          "name": "_name",
          "type": "string"
        },
        {
          "internalType": "bytes32",
          "name": "_hash",
          "type": "bytes32"
        },
        {
          "internalType": "uint8",
          "name": "_storageFunction",
          "type": "uint8"
        },
        {
          "internalType": "uint8",
          "name": "_storageSize",
          "type": "uint8"
        },
        {
          "internalType": "bytes32",
          "name": "_storageHash",
          "type": "bytes32"
        },
        {
          "internalType": "bytes32",
          "name": "_latitude",
          "type": "bytes32"
        },
        {
          "internalType": "bytes32",
          "name": "_longitude",
          "type": "bytes32"
        },
        {
          "internalType": "string",
          "name": "_comment",
          "type": "string"
        }
      ],
      "name": "addDocument",
      "outputs": [],
      "payable": false,
      "stateMutability": "nonpayable",
      "type": "function"
    },
    {
      "constant": true,
      "inputs": [
        {
          "internalType": "bytes32",
          "name": "_hash",
          "type": "bytes32"
        }
      ],
      "name": "getDocument",
      "outputs": [
        {
          "internalType": "string",
          "name": "",
          "type": "string"
        },
        {
          "internalType": "bytes32",
          "name": "",
          "type": "bytes32"
        },
        {
          "internalType": "bytes32",
          "name": "",
          "type": "bytes32"
        },
        {
          "internalType": "bytes32",
          "name": "",
          "type": "bytes32"
        },
        {
          "internalType": "uint256",
          "name": "",
          "type": "uint256"
        },
        {
          "internalType": "uint256",
          "name": "",
          "type": "uint256"
        },
        {
          "internalType": "string",
          "name": "",
          "type": "string"
        }
      ],
      "payable": false,
      "stateMutability": "view",
      "type": "function"
    },
    {
      "constant": true,
      "inputs": [
        {
          "internalType": "bytes32",
          "name": "_hash",
          "type": "bytes32"
        }
      ],
      "name": "getDocumentStorage",
      "outputs": [
        {
          "internalType": "bytes32",
          "name": "",
          "type": "bytes32"
        },
        {
          "internalType": "uint8",
          "name": "",
          "type": "uint8"
        },
        {
          "internalType": "uint8",
          "name": "",
          "type": "uint8"
        }
      ],
      "payable": false,
      "stateMutability": "view",
      "type": "function"
    },
    {
      "constant": true,
      "inputs": [],
      "name": "getDetails",
      "outputs": [
        {
          "internalType": "address",
          "name": "",
          "type": "address"
        },
        {
          "internalType": "address",
          "name": "",
          "type": "address"
        },
        {
          "internalType": "bytes32",
          "name": "",
          "type": "bytes32"
        },
        {
          "internalType": "bytes32[]",
          "name": "",
          "type": "bytes32[]"
        },
        {
          "internalType": "address",
          "name": "",
          "type": "address"
        }
      ],
      "payable": false,
      "stateMutability": "view",
      "type": "function"
    },
    {
      "constant": true,
      "inputs": [],
      "name": "getAllDocuments",
      "outputs": [
        {
          "internalType": "bytes32[]",
          "name": "",
          "type": "bytes32[]"
        }
      ],
      "payable": false,
      "stateMutability": "view",
      "type": "function"
    }
  ],
  "bytecode": "0x608060405234801561001057600080fd5b50604051610fb3380380610fb38339818101604052604081101561003357600080fd5b810190808051906020019092919080519060200190929190505050336000806101000a81548173ffffffffffffffffffffffffffffffffffffffff021916908373ffffffffffffffffffffffffffffffffffffffff1602179055508060018190555081600260006101000a81548173ffffffffffffffffffffffffffffffffffffffff021916908373ffffffffffffffffffffffffffffffffffffffff1602179055505050610ecc806100e76000396000f3fe608060405234801561001057600080fd5b50600436106100625760003560e01c80638a7cf0b8146100675780639fa5f50b146100c3578063b10d6b4114610122578063bb57f61314610258578063cdee934e14610369578063fbbf93a0146103ab575b600080fd5b6100936004803603602081101561007d57600080fd5b81019080803590602001909291905050506104aa565b604051808481526020018360ff1660ff1681526020018260ff1660ff168152602001935050505060405180910390f35b6100cb6105a7565b6040518080602001828103825283818151815260200191508051906020019060200280838360005b8381101561010e5780820151818401526020810190506100f3565b505050509050019250505060405180910390f35b61014e6004803603602081101561013857600080fd5b81019080803590602001909291905050506105ff565b60405180806020018881526020018781526020018681526020018581526020018481526020018060200183810383528a818151815260200191508051906020019080838360005b838110156101b0578082015181840152602081019050610195565b50505050905090810190601f1680156101dd5780820380516001836020036101000a031916815260200191505b50838103825284818151815260200191508051906020019080838360005b838110156102165780820151818401526020810190506101fb565b50505050905090810190601f1680156102435780820380516001836020036101000a031916815260200191505b50995050505050505050505060405180910390f35b610367600480360361010081101561026f57600080fd5b810190808035906020019064010000000081111561028c57600080fd5b82018360208201111561029e57600080fd5b803590602001918460018302840111640100000000831117156102c057600080fd5b909192939192939080359060200190929190803560ff169060200190929190803560ff1690602001909291908035906020019092919080359060200190929190803590602001909291908035906020019064010000000081111561032357600080fd5b82018360208201111561033557600080fd5b8035906020019184600183028401116401000000008311171561035757600080fd5b9091929391929390505050610872565b005b6103956004803603602081101561037f57600080fd5b8101908080359060200190929190505050610d1a565b6040518082815260200191505060405180910390f35b6103b3610d3b565b604051808673ffffffffffffffffffffffffffffffffffffffff1673ffffffffffffffffffffffffffffffffffffffff1681526020018573ffffffffffffffffffffffffffffffffffffffff1673ffffffffffffffffffffffffffffffffffffffff168152602001848152602001806020018373ffffffffffffffffffffffffffffffffffffffff1673ffffffffffffffffffffffffffffffffffffffff168152602001828103825284818151815260200191508051906020019060200280838360005b83811015610492578082015181840152602081019050610477565b50505050905001965050505050505060405180910390f35b6000806000806004600086815260200190815260200160002060060154141561053b576040517f08c379a00000000000000000000000000000000000000000000000000000000081526004018080602001828103825260178152602001807f446f63756d656e7420646f6573206e6f7420657869737400000000000000000081525060200191505060405180910390fd5b60046000858152602001908152602001600020600301546004600086815260200190815260200160002060040160009054906101000a900460ff166004600087815260200190815260200160002060040160019054906101000a900460ff169250925092509193909250565b606060038054806020026020016040519081016040528092919081815260200182805480156105f557602002820191906000526020600020905b8154815260200190600101908083116105e1575b5050505050905090565b6060600080600080600060606000600460008a8152602001908152602001600020600601541415610698576040517f08c379a00000000000000000000000000000000000000000000000000000000081526004018080602001828103825260178152602001807f446f63756d656e7420646f6573206e6f7420657869737400000000000000000081525060200191505060405180910390fd5b6004600089815260200190815260200160002060000188600460008b815260200190815260200160002060010154600460008c815260200190815260200160002060020154600460008d815260200190815260200160002060050154600460008e815260200190815260200160002060060154600460008f8152602001908152602001600020600701868054600181600116156101000203166002900480601f0160208091040260200160405190810160405280929190818152602001828054600181600116156101000203166002900480156107b65780601f1061078b576101008083540402835291602001916107b6565b820191906000526020600020905b81548152906001019060200180831161079957829003601f168201915b50505050509650808054600181600116156101000203166002900480601f0160208091040260200160405190810160405280929190818152602001828054600181600116156101000203166002900480156108525780601f1061082757610100808354040283529160200191610852565b820191906000526020600020905b81548152906001019060200180831161083557829003601f168201915b505050505090509650965096509650965096509650919395979092949650565b600260009054906101000a900473ffffffffffffffffffffffffffffffffffffffff1673ffffffffffffffffffffffffffffffffffffffff163373ffffffffffffffffffffffffffffffffffffffff1614610935576040517f08c379a000000000000000000000000000000000000000000000000000000000815260040180806020018281038252601d8152602001807f48617320746f20626520737570706c696572206f662070726f6a65637400000081525060200191505060405180910390fd5b6000600460008a815260200190815260200160002060060154146109c1576040517f08c379a00000000000000000000000000000000000000000000000000000000081526004018080602001828103825260188152602001807f446f63756d656e7420616c72656164792063726561746564000000000000000081525060200191505060405180910390fd5b60008060009054906101000a900473ffffffffffffffffffffffffffffffffffffffff1690506040518061012001604052808c8c8080601f016020809104026020016040519081016040528093929190818152602001838380828437600081840152601f19601f8201169050808301925050505050505081526020018681526020018581526020018781526020018960ff1681526020018860ff1681526020018273ffffffffffffffffffffffffffffffffffffffff166309b0466b6040518163ffffffff1660e01b815260040160206040518083038186803b158015610aa757600080fd5b505afa158015610abb573d6000803e3d6000fd5b505050506040513d6020811015610ad157600080fd5b8101908080519060200190929190505050815260200142815260200184848080601f016020809104026020016040519081016040528093929190818152602001838380828437600081840152601f19601f82011690508083019250505050505050815250600460008b81526020019081526020016000206000820151816000019080519060200190610b64929190610df2565b5060208201518160010155604082015181600201556060820151816003015560808201518160040160006101000a81548160ff021916908360ff16021790555060a08201518160040160016101000a81548160ff021916908360ff16021790555060c0820151816005015560e08201518160060155610100820151816007019080519060200190610bf6929190610df2565b5090505060038990806001815401808255809150509060018203906000526020600020016000909192909190915055508073ffffffffffffffffffffffffffffffffffffffff166381e19490306040518263ffffffff1660e01b8152600401808273ffffffffffffffffffffffffffffffffffffffff1673ffffffffffffffffffffffffffffffffffffffff168152602001915050602060405180830381600087803b158015610ca557600080fd5b505af1158015610cb9573d6000803e3d6000fd5b505050506040513d6020811015610ccf57600080fd5b8101908080519060200190929190505050507f0ac146a5629d2541f754db3df5197733e7c3002b8cfe1da2416abd2c9a49c28c60405160405180910390a15050505050505050505050565b60038181548110610d2757fe5b906000526020600020016000915090505481565b6000806000606060008060009054906101000a900473ffffffffffffffffffffffffffffffffffffffff16600260009054906101000a900473ffffffffffffffffffffffffffffffffffffffff1660015460033081805480602002602001604051908101604052809291908181526020018280548015610dda57602002820191906000526020600020905b815481526020019060010190808311610dc6575b50505050509150945094509450945094509091929394565b828054600181600116156101000203166002900490600052602060002090601f016020900481019282601f10610e3357805160ff1916838001178555610e61565b82800160010185558215610e61579182015b82811115610e60578251825591602001919060010190610e45565b5b509050610e6e9190610e72565b5090565b610e9491905b80821115610e90576000816000905550600101610e78565b5090565b9056fea265627a7a723158208fe3604f9c01eba38dff34b6f1a8c867a040f55651071942ed77a4744cbb915264736f6c63430005100032",
  "source": "pragma solidity >=0.5.0 <0.7.0;\n\nimport './NuclearPoE.sol';\n\ncontract Process {\n    address private NuclearPoEAddress;\n    bytes32 private processName;\n    address private supplierAddress;\n\n    struct Document {\n        string name;\n        bytes32 latitude;\n        bytes32 longitude;\n        bytes32 storageHash;\n        uint8 storageFunction;\n        uint8 storageSize;\n        uint256 docNumber;\n        uint256 mineTime;\n        string comment;\n    }\n\n    bytes32[] public allDocuments;\n    mapping(bytes32 => Document) private document;\n\n    event AddDocument();\n\n    modifier onlySupplier() {\n        require(msg.sender == supplierAddress, 'Has to be supplier of project');\n        _;\n    }\n\n    constructor(address _supplierAddress, bytes32 _processName) public {\n        NuclearPoEAddress = msg.sender;\n        processName = _processName;\n        supplierAddress = _supplierAddress;\n    }\n\n    function addDocument(\n        string calldata _name,\n        bytes32 _hash,\n        uint8 _storageFunction,\n        uint8 _storageSize,\n        bytes32 _storageHash,\n        bytes32 _latitude,\n        bytes32 _longitude,\n        string calldata _comment\n    ) external onlySupplier() {\n        require(document[_hash].mineTime == 0, 'Document already created');\n\n        NuclearPoE main = NuclearPoE(NuclearPoEAddress);\n\n        document[_hash] = Document(\n            _name,\n            _latitude,\n            _longitude,\n            _storageHash,\n            _storageFunction,\n            _storageSize,\n            main.docNumber(),\n            now,\n            _comment\n        );\n        allDocuments.push(_hash);\n\n        main.incrementDocNumber(address(this));\n\n        emit AddDocument();\n    }\n\n    function getDocument(bytes32 _hash)\n        external\n        view\n        returns (\n            string memory,\n            bytes32,\n            bytes32,\n            bytes32,\n            uint256,\n            uint256,\n            string memory\n        )\n    {\n        require(document[_hash].mineTime != 0, 'Document does not exist');\n        return (\n            document[_hash].name,\n            _hash,\n            document[_hash].latitude,\n            document[_hash].longitude,\n            document[_hash].docNumber,\n            document[_hash].mineTime,\n            document[_hash].comment\n        );\n    }\n\n    function getDocumentStorage(bytes32 _hash)\n        external\n        view\n        returns (bytes32, uint8, uint8)\n    {\n        require(document[_hash].mineTime != 0, 'Document does not exist');\n        return (\n            document[_hash].storageHash,\n            document[_hash].storageFunction,\n            document[_hash].storageSize\n        );\n    }\n\n    function getDetails()\n        external\n        view\n        returns (address, address, bytes32, bytes32[] memory, address)\n    {\n        return (\n            NuclearPoEAddress,\n            supplierAddress,\n            processName,\n            allDocuments,\n            address(this)\n        );\n    }\n\n    function getAllDocuments() external view returns (bytes32[] memory) {\n        return allDocuments;\n    }\n}\n",
  "sourcePath": "/Users/sebastinez/Documents/GitHub/Nuclearis-PoE/contracts/Process.sol",
  "compiler": {
    "name": "solc",
    "version": "0.5.16+commit.9c3226ce.Emscripten.clang"
  },
  "schemaVersion": "3.0.23",
  "updatedAt": "2020-03-26T14:22:17.156Z",
  "devdoc": {
    "methods": {}
  },
  "userdoc": {
    "methods": {}
  }
}