{
  "contractName": "Process",
  "abi": [
    {
      "constant": true,
      "inputs": [
        {
          "name": "",
          "type": "uint256"
        }
      ],
      "name": "allDocuments",
      "outputs": [
        {
          "name": "",
          "type": "bytes32"
        }
      ],
      "payable": false,
      "stateMutability": "view",
      "type": "function"
    },
    {
      "inputs": [
        {
          "name": "_moAddress",
          "type": "address"
        },
        {
          "name": "_supplierAddress",
          "type": "address"
        },
        {
          "name": "_processName",
          "type": "bytes32"
        }
      ],
      "payable": false,
      "stateMutability": "nonpayable",
      "type": "constructor"
    },
    {
      "anonymous": false,
      "inputs": [],
      "name": "AddDocument",
      "type": "event"
    },
    {
      "constant": false,
      "inputs": [
        {
          "name": "_hash",
          "type": "bytes32"
        },
        {
          "name": "storageFunction",
          "type": "uint8"
        },
        {
          "name": "storageSize",
          "type": "uint8"
        },
        {
          "name": "storageHash",
          "type": "bytes32"
        },
        {
          "name": "latitude",
          "type": "bytes32"
        },
        {
          "name": "longitude",
          "type": "bytes32"
        }
      ],
      "name": "addDocument",
      "outputs": [],
      "payable": false,
      "stateMutability": "nonpayable",
      "type": "function"
    },
    {
      "constant": true,
      "inputs": [
        {
          "name": "_hash",
          "type": "bytes32"
        }
      ],
      "name": "findDocument",
      "outputs": [
        {
          "name": "",
          "type": "bytes32"
        },
        {
          "name": "",
          "type": "bytes32"
        },
        {
          "name": "",
          "type": "bytes32"
        },
        {
          "name": "",
          "type": "uint8"
        },
        {
          "name": "",
          "type": "uint8"
        },
        {
          "name": "",
          "type": "uint256"
        },
        {
          "name": "",
          "type": "uint256"
        }
      ],
      "payable": false,
      "stateMutability": "view",
      "type": "function"
    },
    {
      "constant": true,
      "inputs": [],
      "name": "getDetails",
      "outputs": [
        {
          "name": "",
          "type": "address"
        },
        {
          "name": "",
          "type": "address"
        },
        {
          "name": "",
          "type": "address"
        },
        {
          "name": "",
          "type": "bytes32"
        },
        {
          "name": "",
          "type": "bytes32[]"
        },
        {
          "name": "",
          "type": "address"
        }
      ],
      "payable": false,
      "stateMutability": "view",
      "type": "function"
    },
    {
      "constant": true,
      "inputs": [],
      "name": "getAllDocuments",
      "outputs": [
        {
          "name": "",
          "type": "bytes32[]"
        }
      ],
      "payable": false,
      "stateMutability": "view",
      "type": "function"
    }
  ],
  "bytecode": "0x608060405234801561001057600080fd5b50604051606080610aff8339810180604052606081101561003057600080fd5b81019080805190602001909291908051906020019092919080519060200190929190505050336000806101000a81548173ffffffffffffffffffffffffffffffffffffffff021916908373ffffffffffffffffffffffffffffffffffffffff16021790555082600160006101000a81548173ffffffffffffffffffffffffffffffffffffffff021916908373ffffffffffffffffffffffffffffffffffffffff16021790555081600260006101000a81548173ffffffffffffffffffffffffffffffffffffffff021916908373ffffffffffffffffffffffffffffffffffffffff160217905550806003819055505050506109cf806101306000396000f3fe60806040526004361061006d576000357c0100000000000000000000000000000000000000000000000000000000900463ffffffff16806367f71cb9146100725780639fa5f50b146100e5578063cdee934e14610151578063d5252015146101a0578063fbbf93a014610225575b600080fd5b34801561007e57600080fd5b506100e3600480360360c081101561009557600080fd5b8101908080359060200190929190803560ff169060200190929190803560ff169060200190929190803590602001909291908035906020019092919080359060200190929190505050610364565b005b3480156100f157600080fd5b506100fa6106dd565b6040518080602001828103825283818151815260200191508051906020019060200280838360005b8381101561013d578082015181840152602081019050610122565b505050509050019250505060405180910390f35b34801561015d57600080fd5b5061018a6004803603602081101561017457600080fd5b8101908080359060200190929190505050610735565b6040518082815260200191505060405180910390f35b3480156101ac57600080fd5b506101d9600480360360208110156101c357600080fd5b8101908080359060200190929190505050610758565b604051808881526020018781526020018681526020018560ff1660ff1681526020018460ff1660ff16815260200183815260200182815260200197505050505050505060405180910390f35b34801561023157600080fd5b5061023a6108c5565b604051808773ffffffffffffffffffffffffffffffffffffffff1673ffffffffffffffffffffffffffffffffffffffff1681526020018673ffffffffffffffffffffffffffffffffffffffff1673ffffffffffffffffffffffffffffffffffffffff1681526020018573ffffffffffffffffffffffffffffffffffffffff1673ffffffffffffffffffffffffffffffffffffffff168152602001848152602001806020018373ffffffffffffffffffffffffffffffffffffffff1673ffffffffffffffffffffffffffffffffffffffff168152602001828103825284818151815260200191508051906020019060200280838360005b8381101561034b578082015181840152602081019050610330565b5050505090500197505050505050505060405180910390f35b600260009054906101000a900473ffffffffffffffffffffffffffffffffffffffff1673ffffffffffffffffffffffffffffffffffffffff163373ffffffffffffffffffffffffffffffffffffffff16141515610429576040517f08c379a000000000000000000000000000000000000000000000000000000000815260040180806020018281038252601d8152602001807f48617320746f20626520737570706c696572206f662070726f6a65637400000081525060200191505060405180910390fd5b600060056000888152602001908152602001600020600501541415156104b7576040517f08c379a00000000000000000000000000000000000000000000000000000000081526004018080602001828103825260188152602001807f446f63756d656e7420616c72656164792063726561746564000000000000000081525060200191505060405180910390fd5b60008060009054906101000a900473ffffffffffffffffffffffffffffffffffffffff16905060008173ffffffffffffffffffffffffffffffffffffffff166381e19490306040518263ffffffff167c0100000000000000000000000000000000000000000000000000000000028152600401808273ffffffffffffffffffffffffffffffffffffffff1673ffffffffffffffffffffffffffffffffffffffff168152602001915050602060405180830381600087803b15801561057a57600080fd5b505af115801561058e573d6000803e3d6000fd5b505050506040513d60208110156105a457600080fd5b8101908080519060200190929190505050905060e0604051908101604052808581526020018481526020018681526020018860ff1681526020018760ff16815260200182815260200142815250600560008a815260200190815260200160002060008201518160000155602082015181600101556040820151816002015560608201518160030160006101000a81548160ff021916908360ff16021790555060808201518160030160016101000a81548160ff021916908360ff16021790555060a0820151816004015560c0820151816005015590505060048890806001815401808255809150509060018203906000526020600020016000909192909190915055507f0ac146a5629d2541f754db3df5197733e7c3002b8cfe1da2416abd2c9a49c28c60405160405180910390a15050505050505050565b6060600480548060200260200160405190810160405280929190818152602001828054801561072b57602002820191906000526020600020905b815481526020019060010190808311610717575b5050505050905090565b60048181548110151561074457fe5b906000526020600020016000915090505481565b600080600080600080600080600560008a815260200190815260200160002060050154141515156107f1576040517f08c379a00000000000000000000000000000000000000000000000000000000081526004018080602001828103825260178152602001807f446f63756d656e7420646f6573206e6f7420657869737400000000000000000081525060200191505060405180910390fd5b6005600089815260200190815260200160002060000154600560008a815260200190815260200160002060010154600560008b815260200190815260200160002060020154600560008c815260200190815260200160002060030160009054906101000a900460ff16600560008d815260200190815260200160002060030160019054906101000a900460ff16600560008e815260200190815260200160002060040154600560008f8152602001908152602001600020600501549650965096509650965096509650919395979092949650565b600080600080606060008060009054906101000a900473ffffffffffffffffffffffffffffffffffffffff16600160009054906101000a900473ffffffffffffffffffffffffffffffffffffffff16600260009054906101000a900473ffffffffffffffffffffffffffffffffffffffff166003546004308180548060200260200160405190810160405280929190818152602001828054801561098857602002820191906000526020600020905b815481526020019060010190808311610974575b5050505050915095509550955095509550955090919293949556fea165627a7a723058200da32c05ac296d3486ed63516fdd777cb9b8309be7a3582adf700856573e785d0029",
  "source": "pragma solidity >=0.5.0 <0.7.0;\n\nimport \"./NuclearPoE.sol\";\n\ncontract Process {\n\n    address private NuclearPoEAddress;\n    address private moAddress;\n    address private supplierAddress;\n    bytes32 private processName;\n\n    struct Document {\n        bytes32 latitude;\n        bytes32 longitude;\n        bytes32 storageHash;\n        uint8 storageFunction;\n        uint8 storageSize;\n        uint docNumber;\n        uint mineTime;\n    }\n\n    bytes32[] public allDocuments;\n\n    mapping (bytes32 => Document) private document;\n\n    event AddDocument();\n\n    modifier onlySupplier() {\n        require(msg.sender == supplierAddress, 'Has to be supplier of project');\n        _;\n    }\n\n    modifier onlyMO() {\n        require(msg.sender == moAddress, 'Has to be Material Organization');\n        _;\n    }\n\n    constructor (address _moAddress, address _supplierAddress, bytes32 _processName) public {\n        NuclearPoEAddress = msg.sender;\n        moAddress = _moAddress;\n        supplierAddress = _supplierAddress;\n        processName = _processName;\n    }\n\n    function addDocument (\n        bytes32 _hash,\n        uint8 storageFunction,\n        uint8 storageSize,\n        bytes32 storageHash,\n        bytes32 latitude,\n        bytes32 longitude\n        ) external onlySupplier() {\n        require(document[_hash].mineTime == 0, \"Document already created\");\n\n        NuclearPoE main = NuclearPoE(NuclearPoEAddress);\n        uint docNumber = main.incrementDocNumber(address(this));\n\n        document[_hash] = Document(latitude, longitude, storageHash, storageFunction, storageSize, docNumber, now);\n        allDocuments.push(_hash);\n\n        emit AddDocument();\n    }\n\n    function findDocument(bytes32 _hash) external view returns (bytes32, bytes32, bytes32, uint8, uint8, uint, uint) {\n        require(document[_hash].mineTime != 0, \"Document does not exist\");\n        return (\n            document[_hash].latitude,\n            document[_hash].longitude,\n            document[_hash].storageHash,\n            document[_hash].storageFunction,\n            document[_hash].storageSize,\n            document[_hash].docNumber,\n            document[_hash].mineTime\n            );\n    }\n\n    function getDetails() external view returns (address, address, address, bytes32, bytes32[] memory, address) {\n        return (NuclearPoEAddress, moAddress, supplierAddress, processName, allDocuments, address(this));\n    }\n\n    function getAllDocuments() external view returns(bytes32[] memory) {\n        return allDocuments;\n    }\n}",
  "sourcePath": "/Users/admin/Documents/GitHub/NUCLEARIS-Material-Organization/contracts/Process.sol",
  "compiler": {
    "name": "solc",
    "version": "0.5.0+commit.1d4f565a.Emscripten.clang"
  },
  "schemaVersion": "3.0.1",
  "updatedAt": "2019-11-02T07:58:15.419Z",
  "devdoc": {
    "methods": {}
  },
  "userdoc": {
    "methods": {}
  }
}