{
  "contractName": "Process",
  "abi": [
    {
      "inputs": [
        {
          "internalType": "address",
          "name": "_supplierAddress",
          "type": "address"
        },
        {
          "internalType": "bytes32",
          "name": "_processName",
          "type": "bytes32"
        }
      ],
      "payable": false,
      "stateMutability": "nonpayable",
      "type": "constructor"
    },
    {
      "anonymous": false,
      "inputs": [],
      "name": "AddDocument",
      "type": "event"
    },
    {
      "constant": true,
      "inputs": [
        {
          "internalType": "uint256",
          "name": "",
          "type": "uint256"
        }
      ],
      "name": "allDocuments",
      "outputs": [
        {
          "internalType": "bytes32",
          "name": "",
          "type": "bytes32"
        }
      ],
      "payable": false,
      "stateMutability": "view",
      "type": "function"
    },
    {
      "constant": false,
      "inputs": [
        {
          "internalType": "bytes32",
          "name": "_hash",
          "type": "bytes32"
        },
        {
          "internalType": "uint8",
          "name": "_storageFunction",
          "type": "uint8"
        },
        {
          "internalType": "uint8",
          "name": "_storageSize",
          "type": "uint8"
        },
        {
          "internalType": "bytes32",
          "name": "_storageHash",
          "type": "bytes32"
        },
        {
          "internalType": "bytes32",
          "name": "_latitude",
          "type": "bytes32"
        },
        {
          "internalType": "bytes32",
          "name": "_longitude",
          "type": "bytes32"
        },
        {
          "internalType": "string",
          "name": "_comment",
          "type": "string"
        }
      ],
      "name": "addDocument",
      "outputs": [],
      "payable": false,
      "stateMutability": "nonpayable",
      "type": "function"
    },
    {
      "constant": true,
      "inputs": [
        {
          "internalType": "bytes32",
          "name": "_hash",
          "type": "bytes32"
        }
      ],
      "name": "getDocument",
      "outputs": [
        {
          "internalType": "bytes32",
          "name": "",
          "type": "bytes32"
        },
        {
          "internalType": "bytes32",
          "name": "",
          "type": "bytes32"
        },
        {
          "internalType": "bytes32",
          "name": "",
          "type": "bytes32"
        },
        {
          "internalType": "uint256",
          "name": "",
          "type": "uint256"
        },
        {
          "internalType": "uint256",
          "name": "",
          "type": "uint256"
        },
        {
          "internalType": "string",
          "name": "",
          "type": "string"
        }
      ],
      "payable": false,
      "stateMutability": "view",
      "type": "function"
    },
    {
      "constant": true,
      "inputs": [
        {
          "internalType": "bytes32",
          "name": "_hash",
          "type": "bytes32"
        }
      ],
      "name": "getDocumentStorage",
      "outputs": [
        {
          "internalType": "bytes32",
          "name": "",
          "type": "bytes32"
        },
        {
          "internalType": "uint8",
          "name": "",
          "type": "uint8"
        },
        {
          "internalType": "uint8",
          "name": "",
          "type": "uint8"
        }
      ],
      "payable": false,
      "stateMutability": "view",
      "type": "function"
    },
    {
      "constant": true,
      "inputs": [],
      "name": "getDetails",
      "outputs": [
        {
          "internalType": "address",
          "name": "",
          "type": "address"
        },
        {
          "internalType": "address",
          "name": "",
          "type": "address"
        },
        {
          "internalType": "bytes32",
          "name": "",
          "type": "bytes32"
        },
        {
          "internalType": "bytes32[]",
          "name": "",
          "type": "bytes32[]"
        },
        {
          "internalType": "address",
          "name": "",
          "type": "address"
        }
      ],
      "payable": false,
      "stateMutability": "view",
      "type": "function"
    },
    {
      "constant": true,
      "inputs": [],
      "name": "getAllDocuments",
      "outputs": [
        {
          "internalType": "bytes32[]",
          "name": "",
          "type": "bytes32[]"
        }
      ],
      "payable": false,
      "stateMutability": "view",
      "type": "function"
    }
  ],
  "bytecode": "0x608060405234801561001057600080fd5b50604051610dcf380380610dcf8339818101604052604081101561003357600080fd5b810190808051906020019092919080519060200190929190505050336000806101000a81548173ffffffffffffffffffffffffffffffffffffffff021916908373ffffffffffffffffffffffffffffffffffffffff1602179055508060018190555081600260006101000a81548173ffffffffffffffffffffffffffffffffffffffff021916908373ffffffffffffffffffffffffffffffffffffffff1602179055505050610ce8806100e76000396000f3fe608060405234801561001057600080fd5b50600436106100625760003560e01c80638a7cf0b8146100675780639fa5f50b146100c3578063b10d6b4114610122578063cdee934e146101ec578063ed545d9e1461022e578063fbbf93a0146102e9575b600080fd5b6100936004803603602081101561007d57600080fd5b81019080803590602001909291905050506103e8565b604051808481526020018360ff1660ff1681526020018260ff1660ff168152602001935050505060405180910390f35b6100cb6104e5565b6040518080602001828103825283818151815260200191508051906020019060200280838360005b8381101561010e5780820151818401526020810190506100f3565b505050509050019250505060405180910390f35b61014e6004803603602081101561013857600080fd5b810190808035906020019092919050505061053d565b6040518087815260200186815260200185815260200184815260200183815260200180602001828103825283818151815260200191508051906020019080838360005b838110156101ac578082015181840152602081019050610191565b50505050905090810190601f1680156101d95780820380516001836020036101000a031916815260200191505b5097505050505050505060405180910390f35b6102186004803603602081101561020257600080fd5b81019080803590602001909291905050506106f8565b6040518082815260200191505060405180910390f35b6102e7600480360360e081101561024457600080fd5b8101908080359060200190929190803560ff169060200190929190803560ff169060200190929190803590602001909291908035906020019092919080359060200190929190803590602001906401000000008111156102a357600080fd5b8201836020820111156102b557600080fd5b803590602001918460018302840111640100000000831117156102d757600080fd5b9091929391929390505050610719565b005b6102f1610b57565b604051808673ffffffffffffffffffffffffffffffffffffffff1673ffffffffffffffffffffffffffffffffffffffff1681526020018573ffffffffffffffffffffffffffffffffffffffff1673ffffffffffffffffffffffffffffffffffffffff168152602001848152602001806020018373ffffffffffffffffffffffffffffffffffffffff1673ffffffffffffffffffffffffffffffffffffffff168152602001828103825284818151815260200191508051906020019060200280838360005b838110156103d05780820151818401526020810190506103b5565b50505050905001965050505050505060405180910390f35b60008060008060046000868152602001908152602001600020600501541415610479576040517f08c379a00000000000000000000000000000000000000000000000000000000081526004018080602001828103825260178152602001807f446f63756d656e7420646f6573206e6f7420657869737400000000000000000081525060200191505060405180910390fd5b60046000858152602001908152602001600020600201546004600086815260200190815260200160002060030160009054906101000a900460ff166004600087815260200190815260200160002060030160019054906101000a900460ff169250925092509193909250565b6060600380548060200260200160405190810160405280929190818152602001828054801561053357602002820191906000526020600020905b81548152602001906001019080831161051f575b5050505050905090565b600080600080600060606000600460008981526020019081526020016000206005015414156105d4576040517f08c379a00000000000000000000000000000000000000000000000000000000081526004018080602001828103825260178152602001807f446f63756d656e7420646f6573206e6f7420657869737400000000000000000081525060200191505060405180910390fd5b866004600089815260200190815260200160002060000154600460008a815260200190815260200160002060010154600460008b815260200190815260200160002060040154600460008c815260200190815260200160002060050154600460008d8152602001908152602001600020600601808054600181600116156101000203166002900480601f0160208091040260200160405190810160405280929190818152602001828054600181600116156101000203166002900480156106dc5780601f106106b1576101008083540402835291602001916106dc565b820191906000526020600020905b8154815290600101906020018083116106bf57829003601f168201915b5050505050905095509550955095509550955091939550919395565b6003818154811061070557fe5b906000526020600020016000915090505481565b600260009054906101000a900473ffffffffffffffffffffffffffffffffffffffff1673ffffffffffffffffffffffffffffffffffffffff163373ffffffffffffffffffffffffffffffffffffffff16146107dc576040517f08c379a000000000000000000000000000000000000000000000000000000000815260040180806020018281038252601d8152602001807f48617320746f20626520737570706c696572206f662070726f6a65637400000081525060200191505060405180910390fd5b6000600460008a81526020019081526020016000206005015414610868576040517f08c379a00000000000000000000000000000000000000000000000000000000081526004018080602001828103825260188152602001807f446f63756d656e7420616c72656164792063726561746564000000000000000081525060200191505060405180910390fd5b60008060009054906101000a900473ffffffffffffffffffffffffffffffffffffffff1690506040518061010001604052808681526020018581526020018781526020018960ff1681526020018860ff1681526020018273ffffffffffffffffffffffffffffffffffffffff166309b0466b6040518163ffffffff1660e01b815260040160206040518083038186803b15801561090457600080fd5b505afa158015610918573d6000803e3d6000fd5b505050506040513d602081101561092e57600080fd5b8101908080519060200190929190505050815260200142815260200184848080601f016020809104026020016040519081016040528093929190818152602001838380828437600081840152601f19601f82011690508083019250505050505050815250600460008b815260200190815260200160002060008201518160000155602082015181600101556040820151816002015560608201518160030160006101000a81548160ff021916908360ff16021790555060808201518160030160016101000a81548160ff021916908360ff16021790555060a0820151816004015560c0820151816005015560e0820151816006019080519060200190610a35929190610c0e565b5090505060038990806001815401808255809150509060018203906000526020600020016000909192909190915055508073ffffffffffffffffffffffffffffffffffffffff166381e19490306040518263ffffffff1660e01b8152600401808273ffffffffffffffffffffffffffffffffffffffff1673ffffffffffffffffffffffffffffffffffffffff168152602001915050602060405180830381600087803b158015610ae457600080fd5b505af1158015610af8573d6000803e3d6000fd5b505050506040513d6020811015610b0e57600080fd5b8101908080519060200190929190505050507f0ac146a5629d2541f754db3df5197733e7c3002b8cfe1da2416abd2c9a49c28c60405160405180910390a1505050505050505050565b6000806000606060008060009054906101000a900473ffffffffffffffffffffffffffffffffffffffff16600260009054906101000a900473ffffffffffffffffffffffffffffffffffffffff1660015460033081805480602002602001604051908101604052809291908181526020018280548015610bf657602002820191906000526020600020905b815481526020019060010190808311610be2575b50505050509150945094509450945094509091929394565b828054600181600116156101000203166002900490600052602060002090601f016020900481019282601f10610c4f57805160ff1916838001178555610c7d565b82800160010185558215610c7d579182015b82811115610c7c578251825591602001919060010190610c61565b5b509050610c8a9190610c8e565b5090565b610cb091905b80821115610cac576000816000905550600101610c94565b5090565b9056fea265627a7a7231582010108a733216831f1b1023fdc4fe1a666c14dee27eabb88968887a21ad27ac6964736f6c634300050c0032",
  "source": "pragma solidity >=0.5.0 <0.7.0;\r\n\r\nimport \"./NuclearPoE.sol\";\r\n\r\ncontract Process {\r\n\r\n    address private NuclearPoEAddress;\r\n    bytes32 private processName;\r\n    address private supplierAddress;\r\n\r\n    struct Document {\r\n        bytes32 latitude;\r\n        bytes32 longitude;\r\n        bytes32 storageHash;\r\n        uint8 storageFunction;\r\n        uint8 storageSize;\r\n        uint docNumber;\r\n        uint mineTime;\r\n        string comment;\r\n    }\r\n\r\n    bytes32[] public allDocuments;\r\n    mapping (bytes32 => Document) private document;\r\n\r\n    event AddDocument();\r\n\r\n    modifier onlySupplier() {\r\n        require(msg.sender == supplierAddress, 'Has to be supplier of project');\r\n        _;\r\n    }\r\n\r\n    constructor (address _supplierAddress, bytes32 _processName) public {\r\n        NuclearPoEAddress = msg.sender;\r\n        processName = _processName;\r\n        supplierAddress = _supplierAddress;\r\n    }\r\n\r\n    function addDocument (\r\n        bytes32 _hash,\r\n        uint8 _storageFunction,\r\n        uint8 _storageSize,\r\n        bytes32 _storageHash,\r\n        bytes32 _latitude,\r\n        bytes32 _longitude,\r\n        string calldata _comment\r\n        ) external onlySupplier() {\r\n        require(document[_hash].mineTime == 0, \"Document already created\");\r\n\r\n       NuclearPoE main = NuclearPoE(NuclearPoEAddress);\r\n\r\n        document[_hash] = Document(_latitude, _longitude, _storageHash, _storageFunction, _storageSize, main.docNumber(), now, _comment);\r\n        allDocuments.push(_hash);\r\n\r\n        main.incrementDocNumber(address(this));\r\n\r\n        emit AddDocument();\r\n    }\r\n\r\n    function getDocument(bytes32 _hash) external view returns (bytes32, bytes32, bytes32, uint, uint, string memory) {\r\n        require(document[_hash].mineTime != 0, \"Document does not exist\");\r\n        return (\r\n            _hash,\r\n            document[_hash].latitude,\r\n            document[_hash].longitude,\r\n            document[_hash].docNumber,\r\n            document[_hash].mineTime,\r\n            document[_hash].comment\r\n            );\r\n    }\r\n\r\n    function getDocumentStorage(bytes32 _hash) external view returns (bytes32, uint8, uint8) {\r\n        require(document[_hash].mineTime != 0, \"Document does not exist\");\r\n        return (\r\n            document[_hash].storageHash,\r\n            document[_hash].storageFunction,\r\n            document[_hash].storageSize\r\n            );\r\n    }\r\n\r\n    function getDetails() external view returns (address, address, bytes32, bytes32[] memory, address) {\r\n        return (NuclearPoEAddress, supplierAddress, processName, allDocuments, address(this));\r\n    }\r\n\r\n    function getAllDocuments() external view returns(bytes32[] memory) {\r\n        return allDocuments;\r\n    }\r\n}",
  "sourcePath": "C:\\Users\\smartinez.nuclearis\\Documents\\GitHub\\NUCLEARIS-PoE\\contracts\\Process.sol",
  "compiler": {
    "name": "solc",
    "version": "0.5.12+commit.7709ece9.Emscripten.clang"
  },
  "schemaVersion": "3.0.19",
  "updatedAt": "2020-02-17T15:02:54.311Z",
  "devdoc": {
    "methods": {}
  },
  "userdoc": {
    "methods": {}
  }
}