{
  "contractName": "Process",
  "abi": [
    {
      "inputs": [
        {
          "internalType": "address",
          "name": "_supplierAddress",
          "type": "address"
        },
        {
          "internalType": "bytes32",
          "name": "_processName",
          "type": "bytes32"
        }
      ],
      "payable": false,
      "stateMutability": "nonpayable",
      "type": "constructor"
    },
    {
      "anonymous": false,
      "inputs": [],
      "name": "AddDocument",
      "type": "event"
    },
    {
      "constant": true,
      "inputs": [
        {
          "internalType": "uint256",
          "name": "",
          "type": "uint256"
        }
      ],
      "name": "allDocuments",
      "outputs": [
        {
          "internalType": "bytes32",
          "name": "",
          "type": "bytes32"
        }
      ],
      "payable": false,
      "stateMutability": "view",
      "type": "function"
    },
    {
      "constant": false,
      "inputs": [
        {
          "internalType": "address",
          "name": "entity",
          "type": "address"
        },
        {
          "internalType": "string[]",
          "name": "role",
          "type": "string[]"
        }
      ],
      "name": "assignMultipleRoles",
      "outputs": [],
      "payable": false,
      "stateMutability": "nonpayable",
      "type": "function"
    },
    {
      "constant": false,
      "inputs": [
        {
          "internalType": "address",
          "name": "entity",
          "type": "address"
        },
        {
          "internalType": "string",
          "name": "role",
          "type": "string"
        }
      ],
      "name": "assignRole",
      "outputs": [],
      "payable": false,
      "stateMutability": "nonpayable",
      "type": "function"
    },
    {
      "constant": true,
      "inputs": [
        {
          "internalType": "address",
          "name": "entity",
          "type": "address"
        },
        {
          "internalType": "string",
          "name": "role",
          "type": "string"
        }
      ],
      "name": "isAssignedRole",
      "outputs": [
        {
          "internalType": "bool",
          "name": "",
          "type": "bool"
        }
      ],
      "payable": false,
      "stateMutability": "view",
      "type": "function"
    },
    {
      "constant": true,
      "inputs": [],
      "name": "owner",
      "outputs": [
        {
          "internalType": "address",
          "name": "",
          "type": "address"
        }
      ],
      "payable": false,
      "stateMutability": "view",
      "type": "function"
    },
    {
      "constant": false,
      "inputs": [
        {
          "internalType": "address",
          "name": "entity",
          "type": "address"
        },
        {
          "internalType": "string",
          "name": "role",
          "type": "string"
        }
      ],
      "name": "unassignRole",
      "outputs": [],
      "payable": false,
      "stateMutability": "nonpayable",
      "type": "function"
    },
    {
      "constant": false,
      "inputs": [
        {
          "internalType": "string",
          "name": "_name",
          "type": "string"
        },
        {
          "internalType": "bytes32",
          "name": "_hash",
          "type": "bytes32"
        },
        {
          "internalType": "uint8",
          "name": "_storageFunction",
          "type": "uint8"
        },
        {
          "internalType": "uint8",
          "name": "_storageSize",
          "type": "uint8"
        },
        {
          "internalType": "bytes32",
          "name": "_storageHash",
          "type": "bytes32"
        },
        {
          "internalType": "bytes32",
          "name": "_latitude",
          "type": "bytes32"
        },
        {
          "internalType": "bytes32",
          "name": "_longitude",
          "type": "bytes32"
        },
        {
          "internalType": "string",
          "name": "_comment",
          "type": "string"
        }
      ],
      "name": "addDocument",
      "outputs": [],
      "payable": false,
      "stateMutability": "nonpayable",
      "type": "function"
    },
    {
      "constant": true,
      "inputs": [
        {
          "internalType": "bytes32",
          "name": "_hash",
          "type": "bytes32"
        }
      ],
      "name": "getDocument",
      "outputs": [
        {
          "internalType": "string",
          "name": "",
          "type": "string"
        },
        {
          "internalType": "bytes32",
          "name": "",
          "type": "bytes32"
        },
        {
          "internalType": "bytes32",
          "name": "",
          "type": "bytes32"
        },
        {
          "internalType": "uint256",
          "name": "",
          "type": "uint256"
        },
        {
          "internalType": "string",
          "name": "",
          "type": "string"
        }
      ],
      "payable": false,
      "stateMutability": "view",
      "type": "function"
    },
    {
      "constant": true,
      "inputs": [
        {
          "internalType": "bytes32",
          "name": "_hash",
          "type": "bytes32"
        }
      ],
      "name": "getDocumentStorage",
      "outputs": [
        {
          "internalType": "bytes32",
          "name": "",
          "type": "bytes32"
        },
        {
          "internalType": "uint8",
          "name": "",
          "type": "uint8"
        },
        {
          "internalType": "uint8",
          "name": "",
          "type": "uint8"
        }
      ],
      "payable": false,
      "stateMutability": "view",
      "type": "function"
    },
    {
      "constant": true,
      "inputs": [],
      "name": "getDetails",
      "outputs": [
        {
          "internalType": "address",
          "name": "",
          "type": "address"
        },
        {
          "internalType": "address",
          "name": "",
          "type": "address"
        },
        {
          "internalType": "bytes32",
          "name": "",
          "type": "bytes32"
        },
        {
          "internalType": "bytes32[]",
          "name": "",
          "type": "bytes32[]"
        },
        {
          "internalType": "address",
          "name": "",
          "type": "address"
        }
      ],
      "payable": false,
      "stateMutability": "view",
      "type": "function"
    },
    {
      "constant": true,
      "inputs": [],
      "name": "getAllDocuments",
      "outputs": [
        {
          "internalType": "bytes32[]",
          "name": "",
          "type": "bytes32[]"
        }
      ],
      "payable": false,
      "stateMutability": "view",
      "type": "function"
    }
  ],
  "bytecode": "0x60806040523480156200001157600080fd5b5060405162001b7638038062001b76833981810160405262000037919081019062000136565b336000806101000a81548173ffffffffffffffffffffffffffffffffffffffff021916908373ffffffffffffffffffffffffffffffffffffffff16021790555033600260006101000a81548173ffffffffffffffffffffffffffffffffffffffff021916908373ffffffffffffffffffffffffffffffffffffffff1602179055508060038190555081600460006101000a81548173ffffffffffffffffffffffffffffffffffffffff021916908373ffffffffffffffffffffffffffffffffffffffff1602179055505050620001e9565b6000815190506200011981620001b5565b92915050565b6000815190506200013081620001cf565b92915050565b600080604083850312156200014a57600080fd5b60006200015a8582860162000108565b92505060206200016d858286016200011f565b9150509250929050565b6000620001848262000195565b9050919050565b6000819050919050565b600073ffffffffffffffffffffffffffffffffffffffff82169050919050565b620001c08162000177565b8114620001cc57600080fd5b50565b620001da816200018b565b8114620001e657600080fd5b50565b61197d80620001f96000396000f3fe608060405234801561001057600080fd5b50600436106100a95760003560e01c8063b7dfcbee11610071578063b7dfcbee14610180578063bb57f6131461019c578063c936919f146101b8578063cbfa3d09146101d4578063cdee934e146101f0578063fbbf93a014610220576100a9565b806337798e8e146100ae5780638a7cf0b8146100de5780638da5cb5b146101105780639fa5f50b1461012e578063b10d6b411461014c575b600080fd5b6100c860048036036100c39190810190611139565b610242565b6040516100d5919061167e565b60405180910390f35b6100f860048036036100f39190810190611191565b6102b8565b604051610107939291906116b4565b60405180910390f35b610118610382565b60405161012591906115e7565b60405180910390f35b6101366103a7565b604051610143919061165c565b60405180910390f35b61016660048036036101619190810190611191565b6103ff565b6040516101779594939291906116eb565b60405180910390f35b61019a60048036036101959190810190611139565b61061e565b005b6101b660048036036101b191908101906111ba565b6107ce565b005b6101d260048036036101cd9190810190611139565b610a9d565b005b6101ee60048036036101e991908101906110e1565b610c4e565b005b61020a600480360361020591908101906112a5565b610e7b565b6040516102179190611699565b60405180910390f35b610228610e9c565b604051610239959493929190611602565b60405180910390f35b6000600160008573ffffffffffffffffffffffffffffffffffffffff1673ffffffffffffffffffffffffffffffffffffffff16815260200190815260200160002083836040516102939291906115b7565b908152602001604051809103902060009054906101000a900460ff1690509392505050565b60008060008060066000868152602001908152602001600020600501541415610316576040517f08c379a000000000000000000000000000000000000000000000000000000000815260040161030d9061178c565b60405180910390fd5b60066000858152602001908152602001600020600301546006600086815260200190815260200160002060040160009054906101000a900460ff166006600087815260200190815260200160002060040160019054906101000a900460ff169250925092509193909250565b6000809054906101000a900473ffffffffffffffffffffffffffffffffffffffff1681565b606060058054806020026020016040519081016040528092919081815260200182805480156103f557602002820191906000526020600020905b8154815260200190600101908083116103e1575b5050505050905090565b606060008060006060600060066000888152602001908152602001600020600501541415610462576040517f08c379a00000000000000000000000000000000000000000000000000000000081526004016104599061178c565b60405180910390fd5b6006600087815260200190815260200160002060000160066000888152602001908152602001600020600101546006600089815260200190815260200160002060020154600660008a815260200190815260200160002060050154600660008b8152602001908152602001600020600601848054600181600116156101000203166002900480601f0160208091040260200160405190810160405280929190818152602001828054600181600116156101000203166002900480156105685780601f1061053d57610100808354040283529160200191610568565b820191906000526020600020905b81548152906001019060200180831161054b57829003601f168201915b50505050509450808054600181600116156101000203166002900480601f0160208091040260200160405190810160405280929190818152602001828054600181600116156101000203166002900480156106045780601f106105d957610100808354040283529160200191610604565b820191906000526020600020905b8154815290600101906020018083116105e757829003601f168201915b505050505090509450945094509450945091939590929450565b6040518060400160405280600581526020017f61646d696e000000000000000000000000000000000000000000000000000000815250600160003373ffffffffffffffffffffffffffffffffffffffff1673ffffffffffffffffffffffffffffffffffffffff168152602001908152602001600020816040516106a191906115d0565b908152602001604051809103902060009054906101000a900460ff168061071457506000809054906101000a900473ffffffffffffffffffffffffffffffffffffffff1673ffffffffffffffffffffffffffffffffffffffff163373ffffffffffffffffffffffffffffffffffffffff16145b610753576040517f08c379a000000000000000000000000000000000000000000000000000000000815260040161074a906117ac565b60405180910390fd5b60018060008673ffffffffffffffffffffffffffffffffffffffff1673ffffffffffffffffffffffffffffffffffffffff16815260200190815260200160002084846040516107a39291906115b7565b908152602001604051809103902060006101000a81548160ff02191690831515021790555050505050565b600460009054906101000a900473ffffffffffffffffffffffffffffffffffffffff1673ffffffffffffffffffffffffffffffffffffffff163373ffffffffffffffffffffffffffffffffffffffff161461085e576040517f08c379a00000000000000000000000000000000000000000000000000000000081526004016108559061174c565b60405180910390fd5b6000600660008a815260200190815260200160002060050154146108b7576040517f08c379a00000000000000000000000000000000000000000000000000000000081526004016108ae9061176c565b60405180910390fd5b6040518061010001604052808b8b8080601f016020809104026020016040519081016040528093929190818152602001838380828437600081840152601f19601f8201169050808301925050505050505081526020018581526020018481526020018681526020018860ff1681526020018760ff16815260200142815260200183838080601f016020809104026020016040519081016040528093929190818152602001838380828437600081840152601f19601f82011690508083019250505050505050815250600660008a815260200190815260200160002060008201518160000190805190602001906109ae929190610f54565b5060208201518160010155604082015181600201556060820151816003015560808201518160040160006101000a81548160ff021916908360ff16021790555060a08201518160040160016101000a81548160ff021916908360ff16021790555060c0820151816005015560e0820151816006019080519060200190610a35929190610f54565b5090505060058890806001815401808255809150509060018203906000526020600020016000909192909190915055507f0ac146a5629d2541f754db3df5197733e7c3002b8cfe1da2416abd2c9a49c28c60405160405180910390a150505050505050505050565b6040518060400160405280600581526020017f61646d696e000000000000000000000000000000000000000000000000000000815250600160003373ffffffffffffffffffffffffffffffffffffffff1673ffffffffffffffffffffffffffffffffffffffff16815260200190815260200160002081604051610b2091906115d0565b908152602001604051809103902060009054906101000a900460ff1680610b9357506000809054906101000a900473ffffffffffffffffffffffffffffffffffffffff1673ffffffffffffffffffffffffffffffffffffffff163373ffffffffffffffffffffffffffffffffffffffff16145b610bd2576040517f08c379a0000000000000000000000000000000000000000000000000000000008152600401610bc9906117ac565b60405180910390fd5b6000600160008673ffffffffffffffffffffffffffffffffffffffff1673ffffffffffffffffffffffffffffffffffffffff1681526020019081526020016000208484604051610c239291906115b7565b908152602001604051809103902060006101000a81548160ff02191690831515021790555050505050565b6040518060400160405280600581526020017f61646d696e000000000000000000000000000000000000000000000000000000815250600160003373ffffffffffffffffffffffffffffffffffffffff1673ffffffffffffffffffffffffffffffffffffffff16815260200190815260200160002081604051610cd191906115d0565b908152602001604051809103902060009054906101000a900460ff1680610d4457506000809054906101000a900473ffffffffffffffffffffffffffffffffffffffff1673ffffffffffffffffffffffffffffffffffffffff163373ffffffffffffffffffffffffffffffffffffffff16145b610d83576040517f08c379a0000000000000000000000000000000000000000000000000000000008152600401610d7a906117ac565b60405180910390fd5b60008090505b83839050811015610e745760018060008773ffffffffffffffffffffffffffffffffffffffff1673ffffffffffffffffffffffffffffffffffffffff168152602001908152602001600020858584818110610de057fe5b9050602002810180356001602003833603038112610dfd57600080fd5b8083019250508135905060208201915067ffffffffffffffff811115610e2257600080fd5b600181023603821315610e3457600080fd5b604051610e4292919061159e565b908152602001604051809103902060006101000a81548160ff0219169083151502179055508080600101915050610d89565b5050505050565b60058181548110610e8857fe5b906000526020600020016000915090505481565b600080600060606000600260009054906101000a900473ffffffffffffffffffffffffffffffffffffffff16600460009054906101000a900473ffffffffffffffffffffffffffffffffffffffff1660035460053081805480602002602001604051908101604052809291908181526020018280548015610f3c57602002820191906000526020600020905b815481526020019060010190808311610f28575b50505050509150945094509450945094509091929394565b828054600181600116156101000203166002900490600052602060002090601f016020900481019282601f10610f9557805160ff1916838001178555610fc3565b82800160010185558215610fc3579182015b82811115610fc2578251825591602001919060010190610fa7565b5b509050610fd09190610fd4565b5090565b610ff691905b80821115610ff2576000816000905550600101610fda565b5090565b90565b600081359050611008816118de565b92915050565b60008083601f84011261102057600080fd5b8235905067ffffffffffffffff81111561103957600080fd5b60208301915083602082028301111561105157600080fd5b9250929050565b600081359050611067816118f5565b92915050565b60008083601f84011261107f57600080fd5b8235905067ffffffffffffffff81111561109857600080fd5b6020830191508360018202830111156110b057600080fd5b9250929050565b6000813590506110c68161190c565b92915050565b6000813590506110db81611923565b92915050565b6000806000604084860312156110f657600080fd5b600061110486828701610ff9565b935050602084013567ffffffffffffffff81111561112157600080fd5b61112d8682870161100e565b92509250509250925092565b60008060006040848603121561114e57600080fd5b600061115c86828701610ff9565b935050602084013567ffffffffffffffff81111561117957600080fd5b6111858682870161106d565b92509250509250925092565b6000602082840312156111a357600080fd5b60006111b184828501611058565b91505092915050565b6000806000806000806000806000806101008b8d0312156111da57600080fd5b60008b013567ffffffffffffffff8111156111f457600080fd5b6112008d828e0161106d565b9a509a505060206112138d828e01611058565b98505060406112248d828e016110cc565b97505060606112358d828e016110cc565b96505060806112468d828e01611058565b95505060a06112578d828e01611058565b94505060c06112688d828e01611058565b93505060e08b013567ffffffffffffffff81111561128557600080fd5b6112918d828e0161106d565b92509250509295989b9194979a5092959850565b6000602082840312156112b757600080fd5b60006112c5848285016110b7565b91505092915050565b60006112da8383611362565b60208301905092915050565b6112ef8161182c565b82525050565b6000611300826117dc565b61130a81856117ff565b9350611315836117cc565b8060005b8381101561134657815161132d88826112ce565b9750611338836117f2565b925050600181019050611319565b5085935050505092915050565b61135c8161183e565b82525050565b61136b8161184a565b82525050565b61137a8161184a565b82525050565b600061138c8385611821565b935061139983858461188b565b82840190509392505050565b60006113b18385611821565b93506113be83858461188b565b82840190509392505050565b60006113d5826117e7565b6113df8185611810565b93506113ef81856020860161189a565b6113f8816118cd565b840191505092915050565b600061140e826117e7565b6114188185611821565b935061142881856020860161189a565b80840191505092915050565b6000611441602183611810565b91507f53656e646572206973206e6f7420737570706c696572206f662070726f6a656360008301527f74000000000000000000000000000000000000000000000000000000000000006020830152604082019050919050565b60006114a7601883611810565b91507f446f63756d656e7420616c7265616479206372656174656400000000000000006000830152602082019050919050565b60006114e7601783611810565b91507f446f63756d656e7420646f6573206e6f742065786973740000000000000000006000830152602082019050919050565b6000611527602583611810565b91507f53656e64657220646f6573206e6f7420686176652074686520636f727265637460008301527f20726f6c650000000000000000000000000000000000000000000000000000006020830152604082019050919050565b61158981611874565b82525050565b6115988161187e565b82525050565b60006115ab8284866113a5565b91508190509392505050565b60006115c4828486611380565b91508190509392505050565b60006115dc8284611403565b915081905092915050565b60006020820190506115fc60008301846112e6565b92915050565b600060a08201905061161760008301886112e6565b61162460208301876112e6565b6116316040830186611371565b818103606083015261164381856112f5565b905061165260808301846112e6565b9695505050505050565b6000602082019050818103600083015261167681846112f5565b905092915050565b60006020820190506116936000830184611353565b92915050565b60006020820190506116ae6000830184611371565b92915050565b60006060820190506116c96000830186611371565b6116d6602083018561158f565b6116e3604083018461158f565b949350505050565b600060a082019050818103600083015261170581886113ca565b90506117146020830187611371565b6117216040830186611371565b61172e6060830185611580565b818103608083015261174081846113ca565b90509695505050505050565b6000602082019050818103600083015261176581611434565b9050919050565b600060208201905081810360008301526117858161149a565b9050919050565b600060208201905081810360008301526117a5816114da565b9050919050565b600060208201905081810360008301526117c58161151a565b9050919050565b6000819050602082019050919050565b600081519050919050565b600081519050919050565b6000602082019050919050565b600082825260208201905092915050565b600082825260208201905092915050565b600081905092915050565b600061183782611854565b9050919050565b60008115159050919050565b6000819050919050565b600073ffffffffffffffffffffffffffffffffffffffff82169050919050565b6000819050919050565b600060ff82169050919050565b82818337600083830152505050565b60005b838110156118b857808201518184015260208101905061189d565b838111156118c7576000848401525b50505050565b6000601f19601f8301169050919050565b6118e78161182c565b81146118f257600080fd5b50565b6118fe8161184a565b811461190957600080fd5b50565b61191581611874565b811461192057600080fd5b50565b61192c8161187e565b811461193757600080fd5b5056fea365627a7a7231582032c9f26990dbda462849400610389a17a472a102844484ab24893c4d12b38ebc6c6578706572696d656e74616cf564736f6c63430005100040",
  "source": "pragma solidity ^0.5.0;\npragma experimental ABIEncoderV2;\n\nimport './NuclearPoE.sol';\nimport './RoleBasedAcl.sol';\n\n\ncontract Process is RoleBasedAcl {\n    address private NuclearPoEAddress;\n    bytes32 private processName;\n    address private supplierAddress;\n\n    struct Document {\n        string name;\n        bytes32 latitude;\n        bytes32 longitude;\n        bytes32 storageHash;\n        uint8 storageFunction;\n        uint8 storageSize;\n        uint256 mineTime;\n        string comment;\n    }\n\n    bytes32[] public allDocuments;\n    mapping(bytes32 => Document) private document;\n\n    event AddDocument();\n\n    modifier onlySupplier() {\n        require(\n            msg.sender == supplierAddress,\n            'Sender is not supplier of project'\n        );\n        _;\n    }\n\n    constructor(address _supplierAddress, bytes32 _processName) public {\n        NuclearPoEAddress = msg.sender;\n        processName = _processName;\n        supplierAddress = _supplierAddress;\n    }\n\n    function addDocument(\n        string calldata _name,\n        bytes32 _hash,\n        uint8 _storageFunction,\n        uint8 _storageSize,\n        bytes32 _storageHash,\n        bytes32 _latitude,\n        bytes32 _longitude,\n        string calldata _comment\n    ) external onlySupplier() {\n        require(document[_hash].mineTime == 0, 'Document already created');\n\n        document[_hash] = Document(\n            _name,\n            _latitude,\n            _longitude,\n            _storageHash,\n            _storageFunction,\n            _storageSize,\n            now,\n            _comment\n        );\n        allDocuments.push(_hash);\n\n        emit AddDocument();\n    }\n\n    function getDocument(bytes32 _hash)\n        external\n        view\n        returns (string memory, bytes32, bytes32, uint256, string memory)\n    {\n        require(document[_hash].mineTime != 0, 'Document does not exist');\n        return (\n            document[_hash].name,\n            document[_hash].latitude,\n            document[_hash].longitude,\n            document[_hash].mineTime,\n            document[_hash].comment\n        );\n    }\n\n    function getDocumentStorage(bytes32 _hash)\n        external\n        view\n        returns (bytes32, uint8, uint8)\n    {\n        require(document[_hash].mineTime != 0, 'Document does not exist');\n        return (\n            document[_hash].storageHash,\n            document[_hash].storageFunction,\n            document[_hash].storageSize\n        );\n    }\n\n    function getDetails()\n        external\n        view\n        returns (address, address, bytes32, bytes32[] memory, address)\n    {\n        return (\n            NuclearPoEAddress,\n            supplierAddress,\n            processName,\n            allDocuments,\n            address(this)\n        );\n    }\n\n    function getAllDocuments() external view returns (bytes32[] memory) {\n        return allDocuments;\n    }\n}\n",
  "sourcePath": "/Users/sebastinez/Documents/GitHub/work/Nuclearis-PoE/contracts/Process.sol",
  "compiler": {
    "name": "solc",
    "version": "0.5.16+commit.9c3226ce.Emscripten.clang"
  },
  "schemaVersion": "3.0.23",
  "updatedAt": "2020-05-14T11:32:03.459Z",
  "devdoc": {
    "methods": {}
  },
  "userdoc": {
    "methods": {}
  }
}