{
  "contractName": "Process",
  "abi": [
    {
      "constant": true,
      "inputs": [
        {
          "name": "",
          "type": "uint256"
        }
      ],
      "name": "allDocuments",
      "outputs": [
        {
          "name": "",
          "type": "bytes32"
        }
      ],
      "payable": false,
      "stateMutability": "view",
      "type": "function"
    },
    {
      "inputs": [
        {
          "name": "_moAddress",
          "type": "address"
        },
        {
          "name": "_supplierAddress",
          "type": "address"
        },
        {
          "name": "_processName",
          "type": "bytes32"
        }
      ],
      "payable": false,
      "stateMutability": "nonpayable",
      "type": "constructor"
    },
    {
      "anonymous": false,
      "inputs": [],
      "name": "AddDocument",
      "type": "event"
    },
    {
      "constant": false,
      "inputs": [
        {
          "name": "_hash",
          "type": "bytes32"
        },
        {
          "name": "_storageFunction",
          "type": "uint8"
        },
        {
          "name": "_storageSize",
          "type": "uint8"
        },
        {
          "name": "_storageHash",
          "type": "bytes32"
        },
        {
          "name": "_latitude",
          "type": "bytes32"
        },
        {
          "name": "_longitude",
          "type": "bytes32"
        },
        {
          "name": "_comment",
          "type": "string"
        }
      ],
      "name": "addDocument",
      "outputs": [],
      "payable": false,
      "stateMutability": "nonpayable",
      "type": "function"
    },
    {
      "constant": true,
      "inputs": [
        {
          "name": "_hash",
          "type": "bytes32"
        }
      ],
      "name": "getDocument",
      "outputs": [
        {
          "name": "",
          "type": "bytes32"
        },
        {
          "name": "",
          "type": "bytes32"
        },
        {
          "name": "",
          "type": "uint256"
        },
        {
          "name": "",
          "type": "uint256"
        },
        {
          "name": "",
          "type": "string"
        }
      ],
      "payable": false,
      "stateMutability": "view",
      "type": "function"
    },
    {
      "constant": true,
      "inputs": [
        {
          "name": "_hash",
          "type": "bytes32"
        }
      ],
      "name": "getDocumentStorage",
      "outputs": [
        {
          "name": "",
          "type": "bytes32"
        },
        {
          "name": "",
          "type": "uint8"
        },
        {
          "name": "",
          "type": "uint8"
        }
      ],
      "payable": false,
      "stateMutability": "view",
      "type": "function"
    },
    {
      "constant": true,
      "inputs": [],
      "name": "getDetails",
      "outputs": [
        {
          "name": "",
          "type": "address"
        },
        {
          "name": "",
          "type": "address"
        },
        {
          "name": "",
          "type": "address"
        },
        {
          "name": "",
          "type": "bytes32"
        },
        {
          "name": "",
          "type": "bytes32[]"
        },
        {
          "name": "",
          "type": "address"
        }
      ],
      "payable": false,
      "stateMutability": "view",
      "type": "function"
    },
    {
      "constant": true,
      "inputs": [],
      "name": "getAllDocuments",
      "outputs": [
        {
          "name": "",
          "type": "bytes32[]"
        }
      ],
      "payable": false,
      "stateMutability": "view",
      "type": "function"
    }
  ],
  "bytecode": "0x608060405234801561001057600080fd5b50604051606080610e6c8339810180604052606081101561003057600080fd5b81019080805190602001909291908051906020019092919080519060200190929190505050336000806101000a81548173ffffffffffffffffffffffffffffffffffffffff021916908373ffffffffffffffffffffffffffffffffffffffff16021790555082600160006101000a81548173ffffffffffffffffffffffffffffffffffffffff021916908373ffffffffffffffffffffffffffffffffffffffff16021790555081600260006101000a81548173ffffffffffffffffffffffffffffffffffffffff021916908373ffffffffffffffffffffffffffffffffffffffff16021790555080600381905550505050610d3c806101306000396000f3fe608060405260043610610078576000357c0100000000000000000000000000000000000000000000000000000000900463ffffffff1680638a7cf0b81461007d5780639fa5f50b146100e6578063b10d6b4114610152578063cdee934e14610222578063ed545d9e14610271578063fbbf93a014610339575b600080fd5b34801561008957600080fd5b506100b6600480360360208110156100a057600080fd5b8101908080359060200190929190505050610478565b604051808481526020018360ff1660ff1681526020018260ff1660ff168152602001935050505060405180910390f35b3480156100f257600080fd5b506100fb610577565b6040518080602001828103825283818151815260200191508051906020019060200280838360005b8381101561013e578082015181840152602081019050610123565b505050509050019250505060405180910390f35b34801561015e57600080fd5b5061018b6004803603602081101561017557600080fd5b81019080803590602001909291905050506105cf565b6040518086815260200185815260200184815260200183815260200180602001828103825283818151815260200191508051906020019080838360005b838110156101e35780820151818401526020810190506101c8565b50505050905090810190601f1680156102105780820380516001836020036101000a031916815260200191505b50965050505050505060405180910390f35b34801561022e57600080fd5b5061025b6004803603602081101561024557600080fd5b8101908080359060200190929190505050610787565b6040518082815260200191505060405180910390f35b34801561027d57600080fd5b50610337600480360360e081101561029457600080fd5b8101908080359060200190929190803560ff169060200190929190803560ff169060200190929190803590602001909291908035906020019092919080359060200190929190803590602001906401000000008111156102f357600080fd5b82018360208201111561030557600080fd5b8035906020019184600183028401116401000000008311171561032757600080fd5b90919293919293905050506107aa565b005b34801561034557600080fd5b5061034e610b8d565b604051808773ffffffffffffffffffffffffffffffffffffffff1673ffffffffffffffffffffffffffffffffffffffff1681526020018673ffffffffffffffffffffffffffffffffffffffff1673ffffffffffffffffffffffffffffffffffffffff1681526020018573ffffffffffffffffffffffffffffffffffffffff1673ffffffffffffffffffffffffffffffffffffffff168152602001848152602001806020018373ffffffffffffffffffffffffffffffffffffffff1673ffffffffffffffffffffffffffffffffffffffff168152602001828103825284818151815260200191508051906020019060200280838360005b8381101561045f578082015181840152602081019050610444565b5050505090500197505050505050505060405180910390f35b60008060008060056000868152602001908152602001600020600501541415151561050b576040517f08c379a00000000000000000000000000000000000000000000000000000000081526004018080602001828103825260178152602001807f446f63756d656e7420646f6573206e6f7420657869737400000000000000000081525060200191505060405180910390fd5b60056000858152602001908152602001600020600201546005600086815260200190815260200160002060030160009054906101000a900460ff166005600087815260200190815260200160002060030160019054906101000a900460ff169250925092509193909250565b606060048054806020026020016040519081016040528092919081815260200182805480156105c557602002820191906000526020600020905b8154815260200190600101908083116105b1575b5050505050905090565b60008060008060606000600560008881526020019081526020016000206005015414151515610666576040517f08c379a00000000000000000000000000000000000000000000000000000000081526004018080602001828103825260178152602001807f446f63756d656e7420646f6573206e6f7420657869737400000000000000000081525060200191505060405180910390fd5b600560008781526020019081526020016000206000015460056000888152602001908152602001600020600101546005600089815260200190815260200160002060040154600560008a815260200190815260200160002060050154600560008b8152602001908152602001600020600601808054600181600116156101000203166002900480601f01602080910402602001604051908101604052809291908181526020018280546001816001161561010002031660029004801561076d5780601f106107425761010080835404028352916020019161076d565b820191906000526020600020905b81548152906001019060200180831161075057829003601f168201915b505050505090509450945094509450945091939590929450565b60048181548110151561079657fe5b906000526020600020016000915090505481565b600260009054906101000a900473ffffffffffffffffffffffffffffffffffffffff1673ffffffffffffffffffffffffffffffffffffffff163373ffffffffffffffffffffffffffffffffffffffff1614151561086f576040517f08c379a000000000000000000000000000000000000000000000000000000000815260040180806020018281038252601d8152602001807f48617320746f20626520737570706c696572206f662070726f6a65637400000081525060200191505060405180910390fd5b6000600560008a8152602001908152602001600020600501541415156108fd576040517f08c379a00000000000000000000000000000000000000000000000000000000081526004018080602001828103825260188152602001807f446f63756d656e7420616c72656164792063726561746564000000000000000081525060200191505060405180910390fd5b60008060009054906101000a900473ffffffffffffffffffffffffffffffffffffffff16905060008173ffffffffffffffffffffffffffffffffffffffff166381e19490306040518263ffffffff167c0100000000000000000000000000000000000000000000000000000000028152600401808273ffffffffffffffffffffffffffffffffffffffff1673ffffffffffffffffffffffffffffffffffffffff168152602001915050602060405180830381600087803b1580156109c057600080fd5b505af11580156109d4573d6000803e3d6000fd5b505050506040513d60208110156109ea57600080fd5b81019080805190602001909291905050509050610100604051908101604052808781526020018681526020018881526020018a60ff1681526020018960ff16815260200182815260200142815260200185858080601f016020809104026020016040519081016040528093929190818152602001838380828437600081840152601f19601f82011690508083019250505050505050815250600560008c815260200190815260200160002060008201518160000155602082015181600101556040820151816002015560608201518160030160006101000a81548160ff021916908360ff16021790555060808201518160030160016101000a81548160ff021916908360ff16021790555060a0820151816004015560c0820151816005015560e0820151816006019080519060200190610b25929190610c6b565b5090505060048a90806001815401808255809150509060018203906000526020600020016000909192909190915055507f0ac146a5629d2541f754db3df5197733e7c3002b8cfe1da2416abd2c9a49c28c60405160405180910390a150505050505050505050565b600080600080606060008060009054906101000a900473ffffffffffffffffffffffffffffffffffffffff16600160009054906101000a900473ffffffffffffffffffffffffffffffffffffffff16600260009054906101000a900473ffffffffffffffffffffffffffffffffffffffff1660035460043081805480602002602001604051908101604052809291908181526020018280548015610c5057602002820191906000526020600020905b815481526020019060010190808311610c3c575b50505050509150955095509550955095509550909192939495565b828054600181600116156101000203166002900490600052602060002090601f016020900481019282601f10610cac57805160ff1916838001178555610cda565b82800160010185558215610cda579182015b82811115610cd9578251825591602001919060010190610cbe565b5b509050610ce79190610ceb565b5090565b610d0d91905b80821115610d09576000816000905550600101610cf1565b5090565b9056fea165627a7a72305820e156296a8df9a009d1a6c549c81a408a12a8edbdb22e274d92f45c0299488ce90029",
  "source": "pragma solidity >=0.5.0 <0.7.0;\n\nimport \"./NuclearPoE.sol\";\n\ncontract Process {\n\n    address private NuclearPoEAddress;\n    address private moAddress;\n    address private supplierAddress;\n    bytes32 private processName;\n\n    struct Document {\n        bytes32 latitude;\n        bytes32 longitude;\n        bytes32 storageHash;\n        uint8 storageFunction;\n        uint8 storageSize;\n        uint docNumber;\n        uint mineTime;\n        string comment;\n    }\n\n    bytes32[] public allDocuments;\n\n    mapping (bytes32 => Document) private document;\n\n    event AddDocument();\n\n    modifier onlySupplier() {\n        require(msg.sender == supplierAddress, 'Has to be supplier of project');\n        _;\n    }\n\n    modifier onlyMO() {\n        require(msg.sender == moAddress, 'Has to be Material Organization');\n        _;\n    }\n\n    constructor (address _moAddress, address _supplierAddress, bytes32 _processName) public {\n        NuclearPoEAddress = msg.sender;\n        moAddress = _moAddress;\n        supplierAddress = _supplierAddress;\n        processName = _processName;\n    }\n\n    function addDocument (\n        bytes32 _hash,\n        uint8 _storageFunction,\n        uint8 _storageSize,\n        bytes32 _storageHash,\n        bytes32 _latitude,\n        bytes32 _longitude,\n        string calldata _comment\n        ) external onlySupplier() {\n        require(document[_hash].mineTime == 0, \"Document already created\");\n\n        NuclearPoE main = NuclearPoE(NuclearPoEAddress);\n        uint docNumber = main.incrementDocNumber(address(this));\n\n        document[_hash] = Document(_latitude, _longitude, _storageHash, _storageFunction, _storageSize, docNumber, now, _comment);\n        allDocuments.push(_hash);\n\n        emit AddDocument();\n    }\n\n    function getDocument(bytes32 _hash) external view returns (bytes32, bytes32, uint, uint, string memory) {\n        require(document[_hash].mineTime != 0, \"Document does not exist\");\n        return (\n            document[_hash].latitude,\n            document[_hash].longitude,\n            document[_hash].docNumber,\n            document[_hash].mineTime,\n            document[_hash].comment\n            );\n    }\n\n    function getDocumentStorage(bytes32 _hash) external view returns (bytes32, uint8, uint8) {\n        require(document[_hash].mineTime != 0, \"Document does not exist\");\n        return (\n            document[_hash].storageHash,\n            document[_hash].storageFunction,\n            document[_hash].storageSize\n            );\n    }\n\n    function getDetails() external view returns (address, address, address, bytes32, bytes32[] memory, address) {\n        return (NuclearPoEAddress, moAddress, supplierAddress, processName, allDocuments, address(this));\n    }\n\n    function getAllDocuments() external view returns(bytes32[] memory) {\n        return allDocuments;\n    }\n}",
  "sourcePath": "/Users/admin/Documents/GitHub/NUCLEARIS-Material-Organization/contracts/Process.sol",
  "compiler": {
    "name": "solc",
    "version": "0.5.0+commit.1d4f565a.Emscripten.clang"
  },
  "schemaVersion": "3.0.1",
  "updatedAt": "2019-11-03T14:58:55.727Z",
  "devdoc": {
    "methods": {}
  },
  "userdoc": {
    "methods": {}
  }
}