{
  "contractName": "Process",
  "abi": [
    {
      "constant": true,
      "inputs": [
        {
          "name": "",
          "type": "uint256"
        }
      ],
      "name": "allDocuments",
      "outputs": [
        {
          "name": "",
          "type": "bytes32"
        }
      ],
      "payable": false,
      "stateMutability": "view",
      "type": "function"
    },
    {
      "inputs": [
        {
          "name": "_moAddress",
          "type": "address"
        },
        {
          "name": "_processName",
          "type": "bytes32"
        }
      ],
      "payable": false,
      "stateMutability": "nonpayable",
      "type": "constructor"
    },
    {
      "anonymous": false,
      "inputs": [],
      "name": "AddDocument",
      "type": "event"
    },
    {
      "constant": false,
      "inputs": [
        {
          "name": "_hash",
          "type": "bytes32"
        },
        {
          "name": "storageFunction",
          "type": "uint8"
        },
        {
          "name": "storageSize",
          "type": "uint8"
        },
        {
          "name": "storageHash",
          "type": "bytes32"
        },
        {
          "name": "latitude",
          "type": "bytes32"
        },
        {
          "name": "longitude",
          "type": "bytes32"
        }
      ],
      "name": "addDocument",
      "outputs": [],
      "payable": false,
      "stateMutability": "nonpayable",
      "type": "function"
    },
    {
      "constant": false,
      "inputs": [
        {
          "name": "_newAddress",
          "type": "address"
        }
      ],
      "name": "changeMOAddress",
      "outputs": [],
      "payable": false,
      "stateMutability": "nonpayable",
      "type": "function"
    },
    {
      "constant": false,
      "inputs": [
        {
          "name": "_newAddress",
          "type": "address"
        }
      ],
      "name": "changeNuclearPoEAddress",
      "outputs": [],
      "payable": false,
      "stateMutability": "nonpayable",
      "type": "function"
    },
    {
      "constant": false,
      "inputs": [
        {
          "name": "_newName",
          "type": "bytes32"
        }
      ],
      "name": "changeProcessName",
      "outputs": [],
      "payable": false,
      "stateMutability": "nonpayable",
      "type": "function"
    },
    {
      "constant": true,
      "inputs": [
        {
          "name": "_hash",
          "type": "bytes32"
        }
      ],
      "name": "findDocument",
      "outputs": [
        {
          "name": "",
          "type": "bytes32"
        },
        {
          "name": "",
          "type": "bytes32"
        },
        {
          "name": "",
          "type": "bytes32"
        },
        {
          "name": "",
          "type": "uint8"
        },
        {
          "name": "",
          "type": "uint8"
        },
        {
          "name": "",
          "type": "uint256"
        },
        {
          "name": "",
          "type": "uint256"
        }
      ],
      "payable": false,
      "stateMutability": "view",
      "type": "function"
    },
    {
      "constant": true,
      "inputs": [],
      "name": "getDetails",
      "outputs": [
        {
          "name": "",
          "type": "address"
        },
        {
          "name": "",
          "type": "address"
        },
        {
          "name": "",
          "type": "bytes32"
        },
        {
          "name": "",
          "type": "bytes32[]"
        },
        {
          "name": "",
          "type": "address"
        }
      ],
      "payable": false,
      "stateMutability": "view",
      "type": "function"
    },
    {
      "constant": true,
      "inputs": [],
      "name": "getAllDocuments",
      "outputs": [
        {
          "name": "",
          "type": "bytes32[]"
        }
      ],
      "payable": false,
      "stateMutability": "view",
      "type": "function"
    }
  ],
  "bytecode": "0x608060405234801561001057600080fd5b50604051604080610d6f8339810180604052604081101561003057600080fd5b810190808051906020019092919080519060200190929190505050336000806101000a81548173ffffffffffffffffffffffffffffffffffffffff021916908373ffffffffffffffffffffffffffffffffffffffff16021790555081600160006101000a81548173ffffffffffffffffffffffffffffffffffffffff021916908373ffffffffffffffffffffffffffffffffffffffff160217905550806002819055505050610c8b806100e46000396000f3fe60806040526004361061008e576000357c0100000000000000000000000000000000000000000000000000000000900463ffffffff168063103625f51461009357806339b4ba4d146100e457806354dfa48f1461011f57806367f71cb9146101705780639fa5f50b146101e3578063cdee934e1461024f578063d52520151461029e578063fbbf93a014610323575b600080fd5b34801561009f57600080fd5b506100e2600480360360208110156100b657600080fd5b81019080803573ffffffffffffffffffffffffffffffffffffffff16906020019092919050505061042f565b005b3480156100f057600080fd5b5061011d6004803603602081101561010757600080fd5b8101908080359060200190929190505050610536565b005b34801561012b57600080fd5b5061016e6004803603602081101561014257600080fd5b81019080803573ffffffffffffffffffffffffffffffffffffffff169060200190929190505050610604565b005b34801561017c57600080fd5b506101e1600480360360c081101561019357600080fd5b8101908080359060200190929190803560ff169060200190929190803560ff16906020019092919080359060200190929190803590602001909291908035906020019092919050505061070c565b005b3480156101ef57600080fd5b506101f86109c0565b6040518080602001828103825283818151815260200191508051906020019060200280838360005b8381101561023b578082015181840152602081019050610220565b505050509050019250505060405180910390f35b34801561025b57600080fd5b506102886004803603602081101561027257600080fd5b8101908080359060200190929190505050610a18565b6040518082815260200191505060405180910390f35b3480156102aa57600080fd5b506102d7600480360360208110156102c157600080fd5b8101908080359060200190929190505050610a3b565b604051808881526020018781526020018681526020018560ff1660ff1681526020018460ff1660ff16815260200183815260200182815260200197505050505050505060405180910390f35b34801561032f57600080fd5b50610338610ba8565b604051808673ffffffffffffffffffffffffffffffffffffffff1673ffffffffffffffffffffffffffffffffffffffff1681526020018573ffffffffffffffffffffffffffffffffffffffff1673ffffffffffffffffffffffffffffffffffffffff168152602001848152602001806020018373ffffffffffffffffffffffffffffffffffffffff1673ffffffffffffffffffffffffffffffffffffffff168152602001828103825284818151815260200191508051906020019060200280838360005b838110156104175780820151818401526020810190506103fc565b50505050905001965050505050505060405180910390f35b6000809054906101000a900473ffffffffffffffffffffffffffffffffffffffff1673ffffffffffffffffffffffffffffffffffffffff163373ffffffffffffffffffffffffffffffffffffffff161415156104f3576040517f08c379a000000000000000000000000000000000000000000000000000000000815260040180806020018281038252601d8152602001807f48617320746f206265204e75636c656172506f4520436f6e747261637400000081525060200191505060405180910390fd5b806000806101000a81548173ffffffffffffffffffffffffffffffffffffffff021916908373ffffffffffffffffffffffffffffffffffffffff16021790555050565b6000809054906101000a900473ffffffffffffffffffffffffffffffffffffffff1673ffffffffffffffffffffffffffffffffffffffff163373ffffffffffffffffffffffffffffffffffffffff161415156105fa576040517f08c379a000000000000000000000000000000000000000000000000000000000815260040180806020018281038252601d8152602001807f48617320746f206265204e75636c656172506f4520436f6e747261637400000081525060200191505060405180910390fd5b8060028190555050565b6000809054906101000a900473ffffffffffffffffffffffffffffffffffffffff1673ffffffffffffffffffffffffffffffffffffffff163373ffffffffffffffffffffffffffffffffffffffff161415156106c8576040517f08c379a000000000000000000000000000000000000000000000000000000000815260040180806020018281038252601d8152602001807f48617320746f206265204e75636c656172506f4520436f6e747261637400000081525060200191505060405180910390fd5b80600160006101000a81548173ffffffffffffffffffffffffffffffffffffffff021916908373ffffffffffffffffffffffffffffffffffffffff16021790555050565b6000600460008881526020019081526020016000206005015414151561079a576040517f08c379a00000000000000000000000000000000000000000000000000000000081526004018080602001828103825260188152602001807f446f63756d656e7420616c72656164792063726561746564000000000000000081525060200191505060405180910390fd5b60008060009054906101000a900473ffffffffffffffffffffffffffffffffffffffff16905060008173ffffffffffffffffffffffffffffffffffffffff166381e19490306040518263ffffffff167c0100000000000000000000000000000000000000000000000000000000028152600401808273ffffffffffffffffffffffffffffffffffffffff1673ffffffffffffffffffffffffffffffffffffffff168152602001915050602060405180830381600087803b15801561085d57600080fd5b505af1158015610871573d6000803e3d6000fd5b505050506040513d602081101561088757600080fd5b8101908080519060200190929190505050905060e0604051908101604052808581526020018481526020018681526020018860ff1681526020018760ff16815260200182815260200142815250600460008a815260200190815260200160002060008201518160000155602082015181600101556040820151816002015560608201518160030160006101000a81548160ff021916908360ff16021790555060808201518160030160016101000a81548160ff021916908360ff16021790555060a0820151816004015560c0820151816005015590505060038890806001815401808255809150509060018203906000526020600020016000909192909190915055507f0ac146a5629d2541f754db3df5197733e7c3002b8cfe1da2416abd2c9a49c28c60405160405180910390a15050505050505050565b60606003805480602002602001604051908101604052809291908181526020018280548015610a0e57602002820191906000526020600020905b8154815260200190600101908083116109fa575b5050505050905090565b600381815481101515610a2757fe5b906000526020600020016000915090505481565b600080600080600080600080600460008a81526020019081526020016000206005015414151515610ad4576040517f08c379a00000000000000000000000000000000000000000000000000000000081526004018080602001828103825260178152602001807f446f63756d656e7420646f6573206e6f7420657869737400000000000000000081525060200191505060405180910390fd5b6004600089815260200190815260200160002060000154600460008a815260200190815260200160002060010154600460008b815260200190815260200160002060020154600460008c815260200190815260200160002060030160009054906101000a900460ff16600460008d815260200190815260200160002060030160019054906101000a900460ff16600460008e815260200190815260200160002060040154600460008f8152602001908152602001600020600501549650965096509650965096509650919395979092949650565b6000806000606060008060009054906101000a900473ffffffffffffffffffffffffffffffffffffffff16600160009054906101000a900473ffffffffffffffffffffffffffffffffffffffff1660025460033081805480602002602001604051908101604052809291908181526020018280548015610c4757602002820191906000526020600020905b815481526020019060010190808311610c33575b5050505050915094509450945094509450909192939456fea165627a7a7230582076c1c7c3c8bdd1d4c0e0037e8c58c3d182baec6a6f133137f2bade5cfb4b0cd10029",
  "source": "pragma solidity >=0.5.0 <0.7.0;\r\n\r\nimport \"./NuclearPoE.sol\";\r\n\r\ncontract Process {\r\n\r\n    address private NuclearPoEAddress;\r\n    address private moAddress;\r\n    bytes32 private processName;\r\n\r\n    struct Document {\r\n        bytes32 latitude;\r\n        bytes32 longitude;\r\n        bytes32 storageHash;\r\n        uint8 storageFunction;\r\n        uint8 storageSize;\r\n        uint docNumber;\r\n        uint mineTime;\r\n    }\r\n\r\n    bytes32[] public allDocuments;\r\n\r\n    mapping (bytes32 => Document) private document;\r\n\r\n    event AddDocument();\r\n\r\n    modifier onlyMain() {\r\n        require(msg.sender == NuclearPoEAddress, 'Has to be NuclearPoE Contract');\r\n        _;\r\n    }\r\n\r\n    constructor (address _moAddress, bytes32 _processName) public {\r\n        NuclearPoEAddress = msg.sender;\r\n        moAddress = _moAddress;\r\n        processName = _processName;\r\n    }\r\n\r\n    function addDocument (bytes32 _hash, uint8 storageFunction, uint8 storageSize, bytes32 storageHash, bytes32 latitude, bytes32 longitude) external {\r\n        require(document[_hash].mineTime == 0, \"Document already created\");\r\n\r\n        NuclearPoE main = NuclearPoE(NuclearPoEAddress);\r\n        uint docNumber = main.incrementDocNumber(address(this));\r\n\r\n        document[_hash] = Document(latitude, longitude, storageHash, storageFunction, storageSize, docNumber, now);\r\n        allDocuments.push(_hash);\r\n\r\n        emit AddDocument();\r\n    }\r\n\r\n    function changeMOAddress (address _newAddress) external onlyMain() {\r\n        moAddress = _newAddress;\r\n    }\r\n\r\n    function changeNuclearPoEAddress (address _newAddress) external onlyMain() {\r\n        NuclearPoEAddress = _newAddress;\r\n    }\r\n\r\n    function changeProcessName (bytes32 _newName) external onlyMain() {\r\n        processName = _newName;\r\n    }\r\n\r\n    function findDocument(bytes32 _hash) external view returns (bytes32, bytes32, bytes32, uint8, uint8, uint, uint) {\r\n        require(document[_hash].mineTime != 0, \"Document does not exist\");\r\n        return (\r\n            document[_hash].latitude,\r\n            document[_hash].longitude,\r\n            document[_hash].storageHash,\r\n            document[_hash].storageFunction,\r\n            document[_hash].storageSize,\r\n            document[_hash].docNumber,\r\n            document[_hash].mineTime\r\n            );\r\n    }\r\n\r\n    function getDetails() external view returns (address, address, bytes32, bytes32[] memory, address) {\r\n        return (NuclearPoEAddress, moAddress, processName, allDocuments, address(this));\r\n    }\r\n\r\n    function getAllDocuments() external view returns(bytes32[] memory) {\r\n        return allDocuments;\r\n    }\r\n}",
  "sourcePath": "C:\\Users\\smartinez.nuclearis\\Documents\\GitHub\\NUCLEARIS-Material-Organization\\contracts\\Process.sol",
  "compiler": {
    "name": "solc",
    "version": "0.5.0+commit.1d4f565a.Emscripten.clang"
  },
  "schemaVersion": "3.0.5",
  "updatedAt": "2019-11-01T20:13:06.784Z",
  "devdoc": {
    "methods": {}
  },
  "userdoc": {
    "methods": {}
  }
}