{
  "contractName": "Process",
  "abi": [
    {
      "inputs": [
        {
          "internalType": "address",
          "name": "_supplierAddress",
          "type": "address"
        },
        {
          "internalType": "bytes32",
          "name": "_processName",
          "type": "bytes32"
        }
      ],
      "payable": false,
      "stateMutability": "nonpayable",
      "type": "constructor"
    },
    {
      "anonymous": false,
      "inputs": [],
      "name": "AddDocument",
      "type": "event"
    },
    {
      "constant": true,
      "inputs": [
        {
          "internalType": "uint256",
          "name": "",
          "type": "uint256"
        }
      ],
      "name": "allDocuments",
      "outputs": [
        {
          "internalType": "bytes32",
          "name": "",
          "type": "bytes32"
        }
      ],
      "payable": false,
      "stateMutability": "view",
      "type": "function"
    },
    {
      "constant": false,
      "inputs": [
        {
          "internalType": "address",
          "name": "entity",
          "type": "address"
        },
        {
          "internalType": "string[]",
          "name": "role",
          "type": "string[]"
        }
      ],
      "name": "assignMultipleRoles",
      "outputs": [],
      "payable": false,
      "stateMutability": "nonpayable",
      "type": "function"
    },
    {
      "constant": false,
      "inputs": [
        {
          "internalType": "address",
          "name": "entity",
          "type": "address"
        },
        {
          "internalType": "string",
          "name": "role",
          "type": "string"
        }
      ],
      "name": "assignRole",
      "outputs": [],
      "payable": false,
      "stateMutability": "nonpayable",
      "type": "function"
    },
    {
      "constant": true,
      "inputs": [
        {
          "internalType": "address",
          "name": "entity",
          "type": "address"
        },
        {
          "internalType": "string",
          "name": "role",
          "type": "string"
        }
      ],
      "name": "isAssignedRole",
      "outputs": [
        {
          "internalType": "bool",
          "name": "",
          "type": "bool"
        }
      ],
      "payable": false,
      "stateMutability": "view",
      "type": "function"
    },
    {
      "constant": true,
      "inputs": [],
      "name": "owner",
      "outputs": [
        {
          "internalType": "address",
          "name": "",
          "type": "address"
        }
      ],
      "payable": false,
      "stateMutability": "view",
      "type": "function"
    },
    {
      "constant": false,
      "inputs": [
        {
          "internalType": "address",
          "name": "entity",
          "type": "address"
        },
        {
          "internalType": "string",
          "name": "role",
          "type": "string"
        }
      ],
      "name": "unassignRole",
      "outputs": [],
      "payable": false,
      "stateMutability": "nonpayable",
      "type": "function"
    },
    {
      "constant": false,
      "inputs": [
        {
          "internalType": "string",
          "name": "_name",
          "type": "string"
        },
        {
          "internalType": "bytes32",
          "name": "_hash",
          "type": "bytes32"
        },
        {
          "internalType": "uint8",
          "name": "_storageFunction",
          "type": "uint8"
        },
        {
          "internalType": "uint8",
          "name": "_storageSize",
          "type": "uint8"
        },
        {
          "internalType": "bytes32",
          "name": "_storageHash",
          "type": "bytes32"
        },
        {
          "internalType": "bytes32",
          "name": "_latitude",
          "type": "bytes32"
        },
        {
          "internalType": "bytes32",
          "name": "_longitude",
          "type": "bytes32"
        },
        {
          "internalType": "string",
          "name": "_comment",
          "type": "string"
        }
      ],
      "name": "addDocument",
      "outputs": [],
      "payable": false,
      "stateMutability": "nonpayable",
      "type": "function"
    },
    {
      "constant": true,
      "inputs": [
        {
          "internalType": "bytes32",
          "name": "_hash",
          "type": "bytes32"
        }
      ],
      "name": "getDocument",
      "outputs": [
        {
          "internalType": "string",
          "name": "",
          "type": "string"
        },
        {
          "internalType": "bytes32",
          "name": "",
          "type": "bytes32"
        },
        {
          "internalType": "bytes32",
          "name": "",
          "type": "bytes32"
        },
        {
          "internalType": "uint256",
          "name": "",
          "type": "uint256"
        },
        {
          "internalType": "uint256",
          "name": "",
          "type": "uint256"
        },
        {
          "internalType": "string",
          "name": "",
          "type": "string"
        }
      ],
      "payable": false,
      "stateMutability": "view",
      "type": "function"
    },
    {
      "constant": true,
      "inputs": [
        {
          "internalType": "bytes32",
          "name": "_hash",
          "type": "bytes32"
        }
      ],
      "name": "getDocumentStorage",
      "outputs": [
        {
          "internalType": "bytes32",
          "name": "",
          "type": "bytes32"
        },
        {
          "internalType": "uint8",
          "name": "",
          "type": "uint8"
        },
        {
          "internalType": "uint8",
          "name": "",
          "type": "uint8"
        }
      ],
      "payable": false,
      "stateMutability": "view",
      "type": "function"
    },
    {
      "constant": true,
      "inputs": [],
      "name": "getDetails",
      "outputs": [
        {
          "internalType": "address",
          "name": "",
          "type": "address"
        },
        {
          "internalType": "address",
          "name": "",
          "type": "address"
        },
        {
          "internalType": "bytes32",
          "name": "",
          "type": "bytes32"
        },
        {
          "internalType": "bytes32[]",
          "name": "",
          "type": "bytes32[]"
        },
        {
          "internalType": "address",
          "name": "",
          "type": "address"
        }
      ],
      "payable": false,
      "stateMutability": "view",
      "type": "function"
    },
    {
      "constant": true,
      "inputs": [],
      "name": "getAllDocuments",
      "outputs": [
        {
          "internalType": "bytes32[]",
          "name": "",
          "type": "bytes32[]"
        }
      ],
      "payable": false,
      "stateMutability": "view",
      "type": "function"
    }
  ],
  "bytecode": "0x60806040523480156200001157600080fd5b5060405162001d1f38038062001d1f833981810160405262000037919081019062000136565b336000806101000a81548173ffffffffffffffffffffffffffffffffffffffff021916908373ffffffffffffffffffffffffffffffffffffffff16021790555033600260006101000a81548173ffffffffffffffffffffffffffffffffffffffff021916908373ffffffffffffffffffffffffffffffffffffffff1602179055508060038190555081600460006101000a81548173ffffffffffffffffffffffffffffffffffffffff021916908373ffffffffffffffffffffffffffffffffffffffff1602179055505050620001e9565b6000815190506200011981620001b5565b92915050565b6000815190506200013081620001cf565b92915050565b600080604083850312156200014a57600080fd5b60006200015a8582860162000108565b92505060206200016d858286016200011f565b9150509250929050565b6000620001848262000195565b9050919050565b6000819050919050565b600073ffffffffffffffffffffffffffffffffffffffff82169050919050565b620001c08162000177565b8114620001cc57600080fd5b50565b620001da816200018b565b8114620001e657600080fd5b50565b611b2680620001f96000396000f3fe608060405234801561001057600080fd5b50600436106100a95760003560e01c8063b7dfcbee11610071578063b7dfcbee14610181578063bb57f6131461019d578063c936919f146101b9578063cbfa3d09146101d5578063cdee934e146101f1578063fbbf93a014610221576100a9565b806337798e8e146100ae5780638a7cf0b8146100de5780638da5cb5b146101105780639fa5f50b1461012e578063b10d6b411461014c575b600080fd5b6100c860048036036100c391908101906112ab565b610243565b6040516100d59190611819565b60405180910390f35b6100f860048036036100f39190810190611303565b6102b9565b6040516101079392919061184f565b60405180910390f35b610118610383565b6040516101259190611782565b60405180910390f35b6101366103a8565b60405161014391906117f7565b60405180910390f35b61016660048036036101619190810190611303565b610400565b60405161017896959493929190611886565b60405180910390f35b61019b600480360361019691908101906112ab565b610639565b005b6101b760048036036101b2919081019061132c565b6107e9565b005b6101d360048036036101ce91908101906112ab565b610bfa565b005b6101ef60048036036101ea9190810190611253565b610dab565b005b61020b60048036036102069190810190611417565b610fd8565b6040516102189190611834565b60405180910390f35b610229610ff9565b60405161023a95949392919061179d565b60405180910390f35b6000600160008573ffffffffffffffffffffffffffffffffffffffff1673ffffffffffffffffffffffffffffffffffffffff1681526020019081526020016000208383604051610294929190611752565b908152602001604051809103902060009054906101000a900460ff1690509392505050565b60008060008060066000868152602001908152602001600020600601541415610317576040517f08c379a000000000000000000000000000000000000000000000000000000000815260040161030e90611935565b60405180910390fd5b60066000858152602001908152602001600020600301546006600086815260200190815260200160002060040160009054906101000a900460ff166006600087815260200190815260200160002060040160019054906101000a900460ff169250925092509193909250565b6000809054906101000a900473ffffffffffffffffffffffffffffffffffffffff1681565b606060058054806020026020016040519081016040528092919081815260200182805480156103f657602002820191906000526020600020905b8154815260200190600101908083116103e2575b5050505050905090565b60606000806000806060600060066000898152602001908152602001600020600601541415610464576040517f08c379a000000000000000000000000000000000000000000000000000000000815260040161045b90611935565b60405180910390fd5b600660008881526020019081526020016000206000016006600089815260200190815260200160002060010154600660008a815260200190815260200160002060020154600660008b815260200190815260200160002060050154600660008c815260200190815260200160002060060154600660008d8152602001908152602001600020600701858054600181600116156101000203166002900480601f0160208091040260200160405190810160405280929190818152602001828054600181600116156101000203166002900480156105815780601f1061055657610100808354040283529160200191610581565b820191906000526020600020905b81548152906001019060200180831161056457829003601f168201915b50505050509550808054600181600116156101000203166002900480601f01602080910402602001604051908101604052809291908181526020018280546001816001161561010002031660029004801561061d5780601f106105f25761010080835404028352916020019161061d565b820191906000526020600020905b81548152906001019060200180831161060057829003601f168201915b5050505050905095509550955095509550955091939550919395565b6040518060400160405280600581526020017f61646d696e000000000000000000000000000000000000000000000000000000815250600160003373ffffffffffffffffffffffffffffffffffffffff1673ffffffffffffffffffffffffffffffffffffffff168152602001908152602001600020816040516106bc919061176b565b908152602001604051809103902060009054906101000a900460ff168061072f57506000809054906101000a900473ffffffffffffffffffffffffffffffffffffffff1673ffffffffffffffffffffffffffffffffffffffff163373ffffffffffffffffffffffffffffffffffffffff16145b61076e576040517f08c379a000000000000000000000000000000000000000000000000000000000815260040161076590611955565b60405180910390fd5b60018060008673ffffffffffffffffffffffffffffffffffffffff1673ffffffffffffffffffffffffffffffffffffffff16815260200190815260200160002084846040516107be929190611752565b908152602001604051809103902060006101000a81548160ff02191690831515021790555050505050565b600460009054906101000a900473ffffffffffffffffffffffffffffffffffffffff1673ffffffffffffffffffffffffffffffffffffffff163373ffffffffffffffffffffffffffffffffffffffff1614610879576040517f08c379a0000000000000000000000000000000000000000000000000000000008152600401610870906118f5565b60405180910390fd5b6000600660008a815260200190815260200160002060060154146108d2576040517f08c379a00000000000000000000000000000000000000000000000000000000081526004016108c990611915565b60405180910390fd5b6000600260009054906101000a900473ffffffffffffffffffffffffffffffffffffffff1690506040518061012001604052808c8c8080601f016020809104026020016040519081016040528093929190818152602001838380828437600081840152601f19601f8201169050808301925050505050505081526020018681526020018581526020018781526020018960ff1681526020018860ff1681526020018273ffffffffffffffffffffffffffffffffffffffff166309b0466b6040518163ffffffff1660e01b815260040160206040518083038186803b1580156109b957600080fd5b505afa1580156109cd573d6000803e3d6000fd5b505050506040513d601f19601f820116820180604052506109f19190810190611440565b815260200142815260200184848080601f016020809104026020016040519081016040528093929190818152602001838380828437600081840152601f19601f82011690508083019250505050505050815250600660008b81526020019081526020016000206000820151816000019080519060200190610a739291906110b1565b5060208201518160010155604082015181600201556060820151816003015560808201518160040160006101000a81548160ff021916908360ff16021790555060a08201518160040160016101000a81548160ff021916908360ff16021790555060c0820151816005015560e08201518160060155610100820151816007019080519060200190610b059291906110b1565b5090505060058990806001815401808255809150509060018203906000526020600020016000909192909190915055508073ffffffffffffffffffffffffffffffffffffffff166381e19490306040518263ffffffff1660e01b8152600401610b6e9190611782565b602060405180830381600087803b158015610b8857600080fd5b505af1158015610b9c573d6000803e3d6000fd5b505050506040513d601f19601f82011682018060405250610bc09190810190611440565b507f0ac146a5629d2541f754db3df5197733e7c3002b8cfe1da2416abd2c9a49c28c60405160405180910390a15050505050505050505050565b6040518060400160405280600581526020017f61646d696e000000000000000000000000000000000000000000000000000000815250600160003373ffffffffffffffffffffffffffffffffffffffff1673ffffffffffffffffffffffffffffffffffffffff16815260200190815260200160002081604051610c7d919061176b565b908152602001604051809103902060009054906101000a900460ff1680610cf057506000809054906101000a900473ffffffffffffffffffffffffffffffffffffffff1673ffffffffffffffffffffffffffffffffffffffff163373ffffffffffffffffffffffffffffffffffffffff16145b610d2f576040517f08c379a0000000000000000000000000000000000000000000000000000000008152600401610d2690611955565b60405180910390fd5b6000600160008673ffffffffffffffffffffffffffffffffffffffff1673ffffffffffffffffffffffffffffffffffffffff1681526020019081526020016000208484604051610d80929190611752565b908152602001604051809103902060006101000a81548160ff02191690831515021790555050505050565b6040518060400160405280600581526020017f61646d696e000000000000000000000000000000000000000000000000000000815250600160003373ffffffffffffffffffffffffffffffffffffffff1673ffffffffffffffffffffffffffffffffffffffff16815260200190815260200160002081604051610e2e919061176b565b908152602001604051809103902060009054906101000a900460ff1680610ea157506000809054906101000a900473ffffffffffffffffffffffffffffffffffffffff1673ffffffffffffffffffffffffffffffffffffffff163373ffffffffffffffffffffffffffffffffffffffff16145b610ee0576040517f08c379a0000000000000000000000000000000000000000000000000000000008152600401610ed790611955565b60405180910390fd5b60008090505b83839050811015610fd15760018060008773ffffffffffffffffffffffffffffffffffffffff1673ffffffffffffffffffffffffffffffffffffffff168152602001908152602001600020858584818110610f3d57fe5b9050602002810180356001602003833603038112610f5a57600080fd5b8083019250508135905060208201915067ffffffffffffffff811115610f7f57600080fd5b600181023603821315610f9157600080fd5b604051610f9f929190611739565b908152602001604051809103902060006101000a81548160ff0219169083151502179055508080600101915050610ee6565b5050505050565b60058181548110610fe557fe5b906000526020600020016000915090505481565b600080600060606000600260009054906101000a900473ffffffffffffffffffffffffffffffffffffffff16600460009054906101000a900473ffffffffffffffffffffffffffffffffffffffff166003546005308180548060200260200160405190810160405280929190818152602001828054801561109957602002820191906000526020600020905b815481526020019060010190808311611085575b50505050509150945094509450945094509091929394565b828054600181600116156101000203166002900490600052602060002090601f016020900481019282601f106110f257805160ff1916838001178555611120565b82800160010185558215611120579182015b8281111561111f578251825591602001919060010190611104565b5b50905061112d9190611131565b5090565b61115391905b8082111561114f576000816000905550600101611137565b5090565b90565b60008135905061116581611a87565b92915050565b60008083601f84011261117d57600080fd5b8235905067ffffffffffffffff81111561119657600080fd5b6020830191508360208202830111156111ae57600080fd5b9250929050565b6000813590506111c481611a9e565b92915050565b60008083601f8401126111dc57600080fd5b8235905067ffffffffffffffff8111156111f557600080fd5b60208301915083600182028301111561120d57600080fd5b9250929050565b60008135905061122381611ab5565b92915050565b60008151905061123881611ab5565b92915050565b60008135905061124d81611acc565b92915050565b60008060006040848603121561126857600080fd5b600061127686828701611156565b935050602084013567ffffffffffffffff81111561129357600080fd5b61129f8682870161116b565b92509250509250925092565b6000806000604084860312156112c057600080fd5b60006112ce86828701611156565b935050602084013567ffffffffffffffff8111156112eb57600080fd5b6112f7868287016111ca565b92509250509250925092565b60006020828403121561131557600080fd5b6000611323848285016111b5565b91505092915050565b6000806000806000806000806000806101008b8d03121561134c57600080fd5b60008b013567ffffffffffffffff81111561136657600080fd5b6113728d828e016111ca565b9a509a505060206113858d828e016111b5565b98505060406113968d828e0161123e565b97505060606113a78d828e0161123e565b96505060806113b88d828e016111b5565b95505060a06113c98d828e016111b5565b94505060c06113da8d828e016111b5565b93505060e08b013567ffffffffffffffff8111156113f757600080fd5b6114038d828e016111ca565b92509250509295989b9194979a5092959850565b60006020828403121561142957600080fd5b600061143784828501611214565b91505092915050565b60006020828403121561145257600080fd5b600061146084828501611229565b91505092915050565b600061147583836114fd565b60208301905092915050565b61148a816119d5565b82525050565b600061149b82611985565b6114a581856119a8565b93506114b083611975565b8060005b838110156114e15781516114c88882611469565b97506114d38361199b565b9250506001810190506114b4565b5085935050505092915050565b6114f7816119e7565b82525050565b611506816119f3565b82525050565b611515816119f3565b82525050565b600061152783856119ca565b9350611534838584611a34565b82840190509392505050565b600061154c83856119ca565b9350611559838584611a34565b82840190509392505050565b600061157082611990565b61157a81856119b9565b935061158a818560208601611a43565b61159381611a76565b840191505092915050565b60006115a982611990565b6115b381856119ca565b93506115c3818560208601611a43565b80840191505092915050565b60006115dc6021836119b9565b91507f53656e646572206973206e6f7420737570706c696572206f662070726f6a656360008301527f74000000000000000000000000000000000000000000000000000000000000006020830152604082019050919050565b60006116426018836119b9565b91507f446f63756d656e7420616c7265616479206372656174656400000000000000006000830152602082019050919050565b60006116826017836119b9565b91507f446f63756d656e7420646f6573206e6f742065786973740000000000000000006000830152602082019050919050565b60006116c26025836119b9565b91507f53656e64657220646f6573206e6f7420686176652074686520636f727265637460008301527f20726f6c650000000000000000000000000000000000000000000000000000006020830152604082019050919050565b61172481611a1d565b82525050565b61173381611a27565b82525050565b6000611746828486611540565b91508190509392505050565b600061175f82848661151b565b91508190509392505050565b6000611777828461159e565b915081905092915050565b60006020820190506117976000830184611481565b92915050565b600060a0820190506117b26000830188611481565b6117bf6020830187611481565b6117cc604083018661150c565b81810360608301526117de8185611490565b90506117ed6080830184611481565b9695505050505050565b600060208201905081810360008301526118118184611490565b905092915050565b600060208201905061182e60008301846114ee565b92915050565b6000602082019050611849600083018461150c565b92915050565b6000606082019050611864600083018661150c565b611871602083018561172a565b61187e604083018461172a565b949350505050565b600060c08201905081810360008301526118a08189611565565b90506118af602083018861150c565b6118bc604083018761150c565b6118c9606083018661171b565b6118d6608083018561171b565b81810360a08301526118e88184611565565b9050979650505050505050565b6000602082019050818103600083015261190e816115cf565b9050919050565b6000602082019050818103600083015261192e81611635565b9050919050565b6000602082019050818103600083015261194e81611675565b9050919050565b6000602082019050818103600083015261196e816116b5565b9050919050565b6000819050602082019050919050565b600081519050919050565b600081519050919050565b6000602082019050919050565b600082825260208201905092915050565b600082825260208201905092915050565b600081905092915050565b60006119e0826119fd565b9050919050565b60008115159050919050565b6000819050919050565b600073ffffffffffffffffffffffffffffffffffffffff82169050919050565b6000819050919050565b600060ff82169050919050565b82818337600083830152505050565b60005b83811015611a61578082015181840152602081019050611a46565b83811115611a70576000848401525b50505050565b6000601f19601f8301169050919050565b611a90816119d5565b8114611a9b57600080fd5b50565b611aa7816119f3565b8114611ab257600080fd5b50565b611abe81611a1d565b8114611ac957600080fd5b50565b611ad581611a27565b8114611ae057600080fd5b5056fea365627a7a72315820548c4cc26285f066c2e1c5a58054aa80418044ea780f4662f835c35d178d69426c6578706572696d656e74616cf564736f6c634300050c0040",
  "source": "pragma solidity ^0.5.0;\npragma experimental ABIEncoderV2;\n\nimport './NuclearPoE.sol';\nimport './RoleBasedAcl.sol';\n\n\ncontract Process is RoleBasedAcl {\n    address private NuclearPoEAddress;\n    bytes32 private processName;\n    address private supplierAddress;\n\n    struct Document {\n        string name;\n        bytes32 latitude;\n        bytes32 longitude;\n        bytes32 storageHash;\n        uint8 storageFunction;\n        uint8 storageSize;\n        uint256 docNumber;\n        uint256 mineTime;\n        string comment;\n    }\n\n    bytes32[] public allDocuments;\n    mapping(bytes32 => Document) private document;\n\n    event AddDocument();\n\n    modifier onlySupplier() {\n        require(\n            msg.sender == supplierAddress,\n            'Sender is not supplier of project'\n        );\n        _;\n    }\n\n    constructor(address _supplierAddress, bytes32 _processName) public {\n        NuclearPoEAddress = msg.sender;\n        processName = _processName;\n        supplierAddress = _supplierAddress;\n    }\n\n    function addDocument(\n        string calldata _name,\n        bytes32 _hash,\n        uint8 _storageFunction,\n        uint8 _storageSize,\n        bytes32 _storageHash,\n        bytes32 _latitude,\n        bytes32 _longitude,\n        string calldata _comment\n    ) external onlySupplier() {\n        require(document[_hash].mineTime == 0, 'Document already created');\n\n        NuclearPoE main = NuclearPoE(NuclearPoEAddress);\n\n        document[_hash] = Document(\n            _name,\n            _latitude,\n            _longitude,\n            _storageHash,\n            _storageFunction,\n            _storageSize,\n            main.docNumber(),\n            now,\n            _comment\n        );\n        allDocuments.push(_hash);\n\n        main.incrementDocNumber(address(this));\n\n        emit AddDocument();\n    }\n\n    function getDocument(bytes32 _hash)\n        external\n        view\n        returns (\n            string memory,\n            bytes32,\n            bytes32,\n            uint256,\n            uint256,\n            string memory\n        )\n    {\n        require(document[_hash].mineTime != 0, 'Document does not exist');\n        return (\n            document[_hash].name,\n            document[_hash].latitude,\n            document[_hash].longitude,\n            document[_hash].docNumber,\n            document[_hash].mineTime,\n            document[_hash].comment\n        );\n    }\n\n    function getDocumentStorage(bytes32 _hash)\n        external\n        view\n        returns (bytes32, uint8, uint8)\n    {\n        require(document[_hash].mineTime != 0, 'Document does not exist');\n        return (\n            document[_hash].storageHash,\n            document[_hash].storageFunction,\n            document[_hash].storageSize\n        );\n    }\n\n    function getDetails()\n        external\n        view\n        returns (address, address, bytes32, bytes32[] memory, address)\n    {\n        return (\n            NuclearPoEAddress,\n            supplierAddress,\n            processName,\n            allDocuments,\n            address(this)\n        );\n    }\n\n    function getAllDocuments() external view returns (bytes32[] memory) {\n        return allDocuments;\n    }\n}\n",
  "sourcePath": "C:\\Users\\smartinez.nuclearis\\Documents\\GitHub\\NUCLEARIS-PoE\\contracts\\Process.sol",
  "compiler": {
    "name": "solc",
    "version": "0.5.12+commit.7709ece9.Emscripten.clang"
  },
  "schemaVersion": "3.0.19",
  "updatedAt": "2020-05-13T14:17:51.254Z",
  "devdoc": {
    "methods": {}
  },
  "userdoc": {
    "methods": {}
  }
}