{
  "contractName": "Project",
  "abi": [
    {
      "constant": true,
      "inputs": [
        {
          "name": "",
          "type": "uint256"
        }
      ],
      "name": "supplierAddresses",
      "outputs": [
        {
          "name": "",
          "type": "address"
        }
      ],
      "payable": false,
      "stateMutability": "view",
      "type": "function"
    },
    {
      "constant": true,
      "inputs": [
        {
          "name": "",
          "type": "uint256"
        }
      ],
      "name": "allDocuments",
      "outputs": [
        {
          "name": "",
          "type": "bytes32"
        }
      ],
      "payable": false,
      "stateMutability": "view",
      "type": "function"
    },
    {
      "inputs": [
        {
          "name": "_expediente",
          "type": "uint256"
        },
        {
          "name": "_title",
          "type": "bytes32"
        },
        {
          "name": "_clientAddress",
          "type": "address"
        },
        {
          "name": "_moAddress",
          "type": "address"
        },
        {
          "name": "_oc",
          "type": "bytes32"
        }
      ],
      "payable": false,
      "stateMutability": "nonpayable",
      "type": "constructor"
    },
    {
      "anonymous": false,
      "inputs": [],
      "name": "AddDocument",
      "type": "event"
    },
    {
      "anonymous": false,
      "inputs": [],
      "name": "AddProcess",
      "type": "event"
    },
    {
      "anonymous": false,
      "inputs": [],
      "name": "ApproveProject",
      "type": "event"
    },
    {
      "constant": false,
      "inputs": [],
      "name": "kill",
      "outputs": [],
      "payable": false,
      "stateMutability": "nonpayable",
      "type": "function"
    },
    {
      "constant": false,
      "inputs": [
        {
          "name": "_hash",
          "type": "bytes32"
        },
        {
          "name": "_documentName",
          "type": "bytes32"
        },
        {
          "name": "storageHash",
          "type": "string"
        }
      ],
      "name": "addDocument",
      "outputs": [],
      "payable": false,
      "stateMutability": "nonpayable",
      "type": "function"
    },
    {
      "constant": true,
      "inputs": [
        {
          "name": "_hash",
          "type": "bytes32"
        }
      ],
      "name": "findDocument",
      "outputs": [
        {
          "name": "",
          "type": "uint256"
        },
        {
          "name": "",
          "type": "bytes32"
        },
        {
          "name": "",
          "type": "string"
        }
      ],
      "payable": false,
      "stateMutability": "view",
      "type": "function"
    },
    {
      "constant": false,
      "inputs": [],
      "name": "approveProject",
      "outputs": [],
      "payable": false,
      "stateMutability": "nonpayable",
      "type": "function"
    },
    {
      "constant": false,
      "inputs": [
        {
          "name": "_supplierAddress",
          "type": "address"
        },
        {
          "name": "_processName",
          "type": "bytes32"
        }
      ],
      "name": "addProcess",
      "outputs": [],
      "payable": false,
      "stateMutability": "nonpayable",
      "type": "function"
    },
    {
      "constant": true,
      "inputs": [],
      "name": "contractDetails",
      "outputs": [
        {
          "name": "",
          "type": "bytes32"
        },
        {
          "name": "",
          "type": "address"
        },
        {
          "name": "",
          "type": "uint256"
        },
        {
          "name": "",
          "type": "bytes32"
        },
        {
          "name": "",
          "type": "bool"
        },
        {
          "name": "",
          "type": "bytes32[]"
        },
        {
          "name": "",
          "type": "address[]"
        },
        {
          "name": "",
          "type": "address"
        }
      ],
      "payable": false,
      "stateMutability": "view",
      "type": "function"
    },
    {
      "constant": true,
      "inputs": [],
      "name": "returnAllDocuments",
      "outputs": [
        {
          "name": "",
          "type": "bytes32[]"
        }
      ],
      "payable": false,
      "stateMutability": "view",
      "type": "function"
    },
    {
      "constant": true,
      "inputs": [],
      "name": "returnAllProcess",
      "outputs": [
        {
          "name": "",
          "type": "address[]"
        }
      ],
      "payable": false,
      "stateMutability": "view",
      "type": "function"
    },
    {
      "constant": true,
      "inputs": [
        {
          "name": "_supplierAddress",
          "type": "address"
        }
      ],
      "name": "returnProcessByOwner",
      "outputs": [
        {
          "name": "",
          "type": "bytes32"
        },
        {
          "name": "",
          "type": "bytes32[]"
        }
      ],
      "payable": false,
      "stateMutability": "view",
      "type": "function"
    }
  ],
  "bytecode": "0x608060405234801561001057600080fd5b5060405160a080611879833981018060405260a081101561003057600080fd5b8101908080519060200190929190805190602001909291908051906020019092919080519060200190929190805190602001909291905050508460008190555083600481905550826001806101000a81548173ffffffffffffffffffffffffffffffffffffffff021916908373ffffffffffffffffffffffffffffffffffffffff16021790555033600260006101000a81548173ffffffffffffffffffffffffffffffffffffffff021916908373ffffffffffffffffffffffffffffffffffffffff16021790555081600360006101000a81548173ffffffffffffffffffffffffffffffffffffffff021916908373ffffffffffffffffffffffffffffffffffffffff160217905550806005819055505050505050611725806101546000396000f3fe6080604052600436106100af576000357c0100000000000000000000000000000000000000000000000000000000900463ffffffff168063290127cd146100b457806339571d6e1461012057806341c0e1b51461025a5780637569b184146102715780637643d731146102cc578063b4e830f114610347578063cdee934e1461035e578063d5252015146103ad578063d98c10bc1461046f578063e7f497f0146104db578063f6c47d2914610588575b600080fd5b3480156100c057600080fd5b506100c9610622565b6040518080602001828103825283818151815260200191508051906020019060200280838360005b8381101561010c5780820151818401526020810190506100f1565b505050509050019250505060405180910390f35b34801561012c57600080fd5b506101356106b0565b604051808981526020018873ffffffffffffffffffffffffffffffffffffffff1673ffffffffffffffffffffffffffffffffffffffff1681526020018781526020018681526020018515151515815260200180602001806020018473ffffffffffffffffffffffffffffffffffffffff1673ffffffffffffffffffffffffffffffffffffffff168152602001838103835286818151815260200191508051906020019060200280838360005b838110156101fc5780820151818401526020810190506101e1565b50505050905001838103825285818151815260200191508051906020019060200280838360005b8381101561023e578082015181840152602081019050610223565b505050509050019a505050505050505050505060405180910390f35b34801561026657600080fd5b5061026f6107f1565b005b34801561027d57600080fd5b506102ca6004803603604081101561029457600080fd5b81019080803573ffffffffffffffffffffffffffffffffffffffff16906020019092919080359060200190929190505050610823565b005b3480156102d857600080fd5b50610305600480360360208110156102ef57600080fd5b8101908080359060200190929190505050610caf565b604051808273ffffffffffffffffffffffffffffffffffffffff1673ffffffffffffffffffffffffffffffffffffffff16815260200191505060405180910390f35b34801561035357600080fd5b5061035c610ced565b005b34801561036a57600080fd5b506103976004803603602081101561038157600080fd5b8101908080359060200190929190505050610f94565b6040518082815260200191505060405180910390f35b3480156103b957600080fd5b506103e6600480360360208110156103d057600080fd5b8101908080359060200190929190505050610fb7565b6040518084815260200183815260200180602001828103825283818151815260200191508051906020019080838360005b83811015610432578082015181840152602081019050610417565b50505050905090810190601f16801561045f5780820380516001836020036101000a031916815260200191505b5094505050505060405180910390f35b34801561047b57600080fd5b50610484611138565b6040518080602001828103825283818151815260200191508051906020019060200280838360005b838110156104c75780820151818401526020810190506104ac565b505050509050019250505060405180910390f35b3480156104e757600080fd5b5061052a600480360360208110156104fe57600080fd5b81019080803573ffffffffffffffffffffffffffffffffffffffff169060200190929190505050611190565b6040518083815260200180602001828103825283818151815260200191508051906020019060200280838360005b83811015610573578082015181840152602081019050610558565b50505050905001935050505060405180910390f35b34801561059457600080fd5b50610620600480360360608110156105ab57600080fd5b810190808035906020019092919080359060200190929190803590602001906401000000008111156105dc57600080fd5b8201836020820111156105ee57600080fd5b8035906020019184600183028401116401000000008311171561061057600080fd5b9091929391929390505050611274565b005b606060068054806020026020016040519081016040528092919081815260200182805480156106a657602002820191906000526020600020905b8160009054906101000a900473ffffffffffffffffffffffffffffffffffffffff1673ffffffffffffffffffffffffffffffffffffffff168152602001906001019080831161065c575b5050505050905090565b600080600080600060608060006004546001809054906101000a900473ffffffffffffffffffffffffffffffffffffffff16600054600554600160009054906101000a900460ff1660076006308280548060200260200160405190810160405280929190818152602001828054801561074857602002820191906000526020600020905b815481526020019060010190808311610734575b50505050509250818054806020026020016040519081016040528092919081815260200182805480156107d057602002820191906000526020600020905b8160009054906101000a900473ffffffffffffffffffffffffffffffffffffffff1673ffffffffffffffffffffffffffffffffffffffff1681526020019060010190808311610786575b50505050509150975097509750975097509750975097509091929394959697565b600073f691198c305eadc10c2954202ea6b0bb38a76b4390508073ffffffffffffffffffffffffffffffffffffffff16ff5b600360009054906101000a900473ffffffffffffffffffffffffffffffffffffffff1673ffffffffffffffffffffffffffffffffffffffff163373ffffffffffffffffffffffffffffffffffffffff161415156108e8576040517f08c379a000000000000000000000000000000000000000000000000000000000815260040180806020018281038252601f8152602001807f48617320746f206265204d6174657269616c204f7267616e697a6174696f6e0081525060200191505060405180910390fd5b6000600102600a60008473ffffffffffffffffffffffffffffffffffffffff1673ffffffffffffffffffffffffffffffffffffffff168152602001908152602001600020600001541415156109a5576040517f08c379a00000000000000000000000000000000000000000000000000000000081526004018080602001828103825260178152602001807f50726f6365737320616c7265616479206372656174656400000000000000000081525060200191505060405180910390fd5b60001515600160009054906101000a900460ff161515141515610a56576040517f08c379a00000000000000000000000000000000000000000000000000000000081526004018080602001828103825260258152602001807f50726f6a65637420697320616c726561647920617070726f766564206279206381526020017f6c69656e7400000000000000000000000000000000000000000000000000000081525060400191505060405180910390fd5b6000600260009054906101000a900473ffffffffffffffffffffffffffffffffffffffff1690508073ffffffffffffffffffffffffffffffffffffffff1663898b659f84306040518363ffffffff167c0100000000000000000000000000000000000000000000000000000000028152600401808373ffffffffffffffffffffffffffffffffffffffff1673ffffffffffffffffffffffffffffffffffffffff1681526020018273ffffffffffffffffffffffffffffffffffffffff1673ffffffffffffffffffffffffffffffffffffffff16815260200192505050600060405180830381600087803b158015610b4c57600080fd5b505af1158015610b60573d6000803e3d6000fd5b5050505060606000604051908082528060200260200182016040528015610b965781602001602082028038833980820191505090505b50905060068490806001815401808255809150509060018203906000526020600020016000909192909190916101000a81548173ffffffffffffffffffffffffffffffffffffffff021916908373ffffffffffffffffffffffffffffffffffffffff16021790555050604080519081016040528084815260200182815250600a60008673ffffffffffffffffffffffffffffffffffffffff1673ffffffffffffffffffffffffffffffffffffffff168152602001908152602001600020600082015181600001556020820151816001019080519060200190610c799291906115e2565b509050507f0346a5dd0e6acde7619febdd0d7f470611f6f002fb8cee5f164a3ab74854ec5b60405160405180910390a150505050565b600681815481101515610cbe57fe5b906000526020600020016000915054906101000a900473ffffffffffffffffffffffffffffffffffffffff1681565b6001809054906101000a900473ffffffffffffffffffffffffffffffffffffffff1673ffffffffffffffffffffffffffffffffffffffff163373ffffffffffffffffffffffffffffffffffffffff16141515610dd7576040517f08c379a00000000000000000000000000000000000000000000000000000000081526004018080602001828103825260378152602001807f4f6e6c7920636c69656e7473206f6620746869732070726f6a6563742063616e81526020017f207265616c697a652074686973206f7065726174696f6e00000000000000000081525060400191505060405180910390fd5b6001809054906101000a900473ffffffffffffffffffffffffffffffffffffffff1673ffffffffffffffffffffffffffffffffffffffff163373ffffffffffffffffffffffffffffffffffffffff16141515610ec1576040517f08c379a00000000000000000000000000000000000000000000000000000000081526004018080602001828103825260378152602001807f4f6e6c7920636c69656e7473206f6620746869732070726f6a6563742063616e81526020017f207265616c697a652074686973206f7065726174696f6e00000000000000000081525060400191505060405180910390fd5b60001515600160009054906101000a900460ff161515141515610f4c576040517f08c379a00000000000000000000000000000000000000000000000000000000081526004018080602001828103825260188152602001807f50726f6a65637420616c726561647920617070726f766564000000000000000081525060200191505060405180910390fd5b60018060006101000a81548160ff0219169083151502179055507fe69f676c299b333dca8f06fbbad2158afb93499d1eaf331570780e6afc33889a60405160405180910390a1565b600781815481101515610fa357fe5b906000526020600020016000915090505481565b6000806060600060096000868152602001908152602001600020600201541415151561104b576040517f08c379a00000000000000000000000000000000000000000000000000000000081526004018080602001828103825260178152602001807f446f63756d656e7420646f6573206e6f7420657869737400000000000000000081525060200191505060405180910390fd5b6009600085815260200190815260200160002060020154600960008681526020019081526020016000206000015460096000878152602001908152602001600020600101808054600181600116156101000203166002900480601f0160208091040260200160405190810160405280929190818152602001828054600181600116156101000203166002900480156111245780601f106110f957610100808354040283529160200191611124565b820191906000526020600020905b81548152906001019060200180831161110757829003601f168201915b505050505090509250925092509193909250565b6060600780548060200260200160405190810160405280929190818152602001828054801561118657602002820191906000526020600020905b815481526020019060010190808311611172575b5050505050905090565b60006060600a60008473ffffffffffffffffffffffffffffffffffffffff1673ffffffffffffffffffffffffffffffffffffffff16815260200190815260200160002060000154600a60008573ffffffffffffffffffffffffffffffffffffffff1673ffffffffffffffffffffffffffffffffffffffff1681526020019081526020016000206001018080548060200260200160405190810160405280929190818152602001828054801561126457602002820191906000526020600020905b815481526020019060010190808311611250575b5050505050905091509150915091565b6000600102600a60003373ffffffffffffffffffffffffffffffffffffffff1673ffffffffffffffffffffffffffffffffffffffff1681526020019081526020016000206000015414151515611332576040517f08c379a000000000000000000000000000000000000000000000000000000000815260040180806020018281038252601d8152602001807f48617320746f20626520737570706c696572206f662070726f6a65637400000081525060200191505060405180910390fd5b60011515600160009054906101000a900460ff1615151415156113e3576040517f08c379a00000000000000000000000000000000000000000000000000000000081526004018080602001828103825260218152602001807f50726f6a656374206973206e6f7420617070726f76656420627920636c69656e81526020017f740000000000000000000000000000000000000000000000000000000000000081525060400191505060405180910390fd5b60006009600086815260200190815260200160002060020154141515611471576040517f08c379a00000000000000000000000000000000000000000000000000000000081526004018080602001828103825260188152602001807f446f63756d656e7420616c72656164792063726561746564000000000000000081525060200191505060405180910390fd5b60606040519081016040528084815260200183838080601f016020809104026020016040519081016040528093929190818152602001838380828437600081840152601f19601f820116905080830192505050505050508152602001428152506009600086815260200190815260200160002060008201518160000155602082015181600101908051906020019061150a92919061162f565b50604082015181600201559050506007849080600181540180825580915050906001820390600052602060002001600090919290919091505550600a60003373ffffffffffffffffffffffffffffffffffffffff1673ffffffffffffffffffffffffffffffffffffffff1681526020019081526020016000206001018490806001815401808255809150509060018203906000526020600020016000909192909190915055507f0ac146a5629d2541f754db3df5197733e7c3002b8cfe1da2416abd2c9a49c28c60405160405180910390a150505050565b82805482825590600052602060002090810192821561161e579160200282015b8281111561161d578251825591602001919060010190611602565b5b50905061162b91906116af565b5090565b828054600181600116156101000203166002900490600052602060002090601f016020900481019282601f1061167057805160ff191683800117855561169e565b8280016001018555821561169e579182015b8281111561169d578251825591602001919060010190611682565b5b5090506116ab91906116d4565b5090565b6116d191905b808211156116cd5760008160009055506001016116b5565b5090565b90565b6116f691905b808211156116f25760008160009055506001016116da565b5090565b9056fea165627a7a72305820c2c915960ba5b23bede4453432ccc047501dfab3e7ab085c316a1eaa9496e4d50029",
  "source": "pragma solidity >=0.5.0 <0.7.0;\r\n\r\nimport \"./NuclearPoE.sol\";\r\n\r\ncontract Project {\r\n\r\n    uint private expediente;\r\n    bool private approved;\r\n    address private clientAddress;\r\n    address private NuclearPoEAddress;\r\n    address private moAddress;\r\n    bytes32 private title;\r\n    bytes32 private oc;\r\n\r\n    struct Document {\r\n        bytes32 documentTitle;\r\n        string storageHash;\r\n        uint mineTime;\r\n    }\r\n\r\n    struct Process {\r\n        bytes32 processName;\r\n        bytes32[] documentsToOwner;\r\n    }\r\n\r\n    address[] public supplierAddresses;\r\n    bytes32[] public allDocuments;\r\n\r\n    mapping (address => uint) ownerDocumentCount;\r\n\r\n    mapping(bytes32 => Document) private document;\r\n    mapping(address => Process) private process;\r\n\r\n    event AddDocument();\r\n    event AddProcess();\r\n    event ApproveProject();\r\n\r\n    modifier onlyClient() {\r\n        require(msg.sender == clientAddress, \"Only clients of this project can realize this operation\");\r\n        _;\r\n    }\r\n\r\n    modifier onlySupplier() {\r\n                require(process[msg.sender].processName != 0,  'Has to be supplier of project');\r\n        _;\r\n    }\r\n\r\n    modifier onlyMO() {\r\n                require(msg.sender == moAddress,  'Has to be Material Organization');\r\n        _;\r\n    }\r\n    \r\n    function kill() public {\r\n        address payable _owner = address(0xF691198C305eaDc10c2954202eA6b0BB38A76B43);\r\n        selfdestruct(_owner);\r\n    }\r\n\r\n    constructor (uint _expediente, bytes32 _title, address _clientAddress, address _moAddress, bytes32 _oc) public {\r\n        expediente = _expediente;\r\n        title = _title;\r\n        clientAddress = _clientAddress;\r\n        NuclearPoEAddress = msg.sender;\r\n        moAddress = _moAddress;\r\n        oc = _oc;\r\n    }\r\n\r\n    function addDocument (bytes32 _hash, bytes32 _documentName, string calldata storageHash) external onlySupplier() {\r\n        require(approved == true,\"Project is not approved by client\");\r\n        require(document[_hash].mineTime == 0, \"Document already created\");\r\n\r\n        document[_hash] = Document(_documentName, storageHash, now);\r\n        allDocuments.push(_hash);\r\n        process[msg.sender].documentsToOwner.push(_hash);\r\n\r\n        emit AddDocument();\r\n    }\r\n\r\n\r\n    function findDocument(bytes32 _hash) external view returns (uint, bytes32, string memory) {\r\n        require(document[_hash].mineTime != 0, \"Document does not exist\");\r\n        return (\r\n            document[_hash].mineTime,\r\n            document[_hash].documentTitle,\r\n            document[_hash].storageHash\r\n            );\r\n    }\r\n\r\n    function approveProject() external onlyClient() {\r\n        require(msg.sender == clientAddress,\"Only clients of this project can realize this operation\");\r\n        require(approved == false,\"Project already approved\");\r\n        approved = true;\r\n\r\n        emit ApproveProject();\r\n    }\r\n\r\n    function addProcess(address _supplierAddress, bytes32 _processName) external onlyMO() {\r\n        require(process[_supplierAddress].processName == 0,\"Process already created\");\r\n        require(approved == false,\"Project is already approved by client\");\r\n\r\n        NuclearPoE main = NuclearPoE(NuclearPoEAddress);\r\n        main.addSupplierToProject(_supplierAddress,address(this));\r\n\r\n        bytes32[] memory documents = new bytes32[](0);\r\n        supplierAddresses.push(_supplierAddress);\r\n        process[_supplierAddress] = Process(_processName, documents);\r\n\r\n        emit AddProcess();\r\n    }\r\n\r\n    function contractDetails() external view returns (bytes32, address, uint, bytes32, bool, bytes32[] memory, address[] memory,address) {\r\n        return (title, clientAddress, expediente, oc, approved, allDocuments, supplierAddresses, address(this));\r\n    }\r\n\r\n    function returnAllDocuments() external view returns(bytes32[] memory) {\r\n        return allDocuments;\r\n    }\r\n\r\n    function returnAllProcess() external view returns(address[] memory) {\r\n        return supplierAddresses;\r\n    }\r\n    \r\n    function returnProcessByOwner(address _supplierAddress) external view returns(bytes32, bytes32[] memory) {\r\n        return (process[_supplierAddress].processName, process[_supplierAddress].documentsToOwner);\r\n    }\r\n}",
  "sourcePath": "C:\\Users\\smartinez.nuclearis\\Documents\\GitHub\\NUCLEARIS-Material-Organization\\contracts\\Project.sol",
  "compiler": {
    "name": "solc",
    "version": "0.5.0+commit.1d4f565a.Emscripten.clang"
  },
  "schemaVersion": "3.0.5",
  "updatedAt": "2019-10-17T19:47:16.554Z",
  "devdoc": {
    "methods": {}
  },
  "userdoc": {
    "methods": {}
  }
}