{
  "contractName": "Project",
  "abi": [
    {
      "constant": true,
      "inputs": [
        {
          "name": "",
          "type": "uint256"
        }
      ],
      "name": "supplierAddresses",
      "outputs": [
        {
          "name": "",
          "type": "address"
        }
      ],
      "payable": false,
      "stateMutability": "view",
      "type": "function"
    },
    {
      "constant": true,
      "inputs": [
        {
          "name": "",
          "type": "uint256"
        }
      ],
      "name": "allDocuments",
      "outputs": [
        {
          "name": "",
          "type": "bytes32"
        }
      ],
      "payable": false,
      "stateMutability": "view",
      "type": "function"
    },
    {
      "inputs": [
        {
          "name": "_expediente",
          "type": "uint256"
        },
        {
          "name": "_title",
          "type": "bytes32"
        },
        {
          "name": "_clientAddress",
          "type": "address"
        },
        {
          "name": "_moAddress",
          "type": "address"
        },
        {
          "name": "_oc",
          "type": "bytes32"
        }
      ],
      "payable": false,
      "stateMutability": "nonpayable",
      "type": "constructor"
    },
    {
      "anonymous": false,
      "inputs": [],
      "name": "AddDocument",
      "type": "event"
    },
    {
      "anonymous": false,
      "inputs": [],
      "name": "AddProcess",
      "type": "event"
    },
    {
      "anonymous": false,
      "inputs": [],
      "name": "ApproveProject",
      "type": "event"
    },
    {
      "anonymous": false,
      "inputs": [],
      "name": "CloseProject",
      "type": "event"
    },
    {
      "constant": false,
      "inputs": [
        {
          "name": "_hash",
          "type": "bytes32"
        },
        {
          "name": "storageFunction",
          "type": "uint8"
        },
        {
          "name": "storageSize",
          "type": "uint8"
        },
        {
          "name": "storageHash",
          "type": "bytes32"
        },
        {
          "name": "latitude",
          "type": "bytes32"
        },
        {
          "name": "longitude",
          "type": "bytes32"
        }
      ],
      "name": "addDocument",
      "outputs": [],
      "payable": false,
      "stateMutability": "nonpayable",
      "type": "function"
    },
    {
      "constant": true,
      "inputs": [
        {
          "name": "_hash",
          "type": "bytes32"
        }
      ],
      "name": "findDocument",
      "outputs": [
        {
          "name": "",
          "type": "bytes32"
        },
        {
          "name": "",
          "type": "bytes32"
        },
        {
          "name": "",
          "type": "bytes32"
        },
        {
          "name": "",
          "type": "uint8"
        },
        {
          "name": "",
          "type": "uint8"
        },
        {
          "name": "",
          "type": "uint256"
        },
        {
          "name": "",
          "type": "uint256"
        }
      ],
      "payable": false,
      "stateMutability": "view",
      "type": "function"
    },
    {
      "constant": false,
      "inputs": [],
      "name": "approveProject",
      "outputs": [],
      "payable": false,
      "stateMutability": "nonpayable",
      "type": "function"
    },
    {
      "constant": false,
      "inputs": [
        {
          "name": "_supplierAddress",
          "type": "address"
        },
        {
          "name": "_processName",
          "type": "bytes32"
        }
      ],
      "name": "addProcess",
      "outputs": [],
      "payable": false,
      "stateMutability": "nonpayable",
      "type": "function"
    },
    {
      "constant": true,
      "inputs": [],
      "name": "contractDetails",
      "outputs": [
        {
          "name": "",
          "type": "bytes32"
        },
        {
          "name": "",
          "type": "address"
        },
        {
          "name": "",
          "type": "uint256"
        },
        {
          "name": "",
          "type": "bytes32"
        },
        {
          "name": "",
          "type": "bool"
        },
        {
          "name": "",
          "type": "bytes32[]"
        },
        {
          "name": "",
          "type": "address[]"
        },
        {
          "name": "",
          "type": "address"
        }
      ],
      "payable": false,
      "stateMutability": "view",
      "type": "function"
    },
    {
      "constant": false,
      "inputs": [],
      "name": "closeContract",
      "outputs": [],
      "payable": false,
      "stateMutability": "nonpayable",
      "type": "function"
    },
    {
      "constant": true,
      "inputs": [],
      "name": "returnAllDocuments",
      "outputs": [
        {
          "name": "",
          "type": "bytes32[]"
        }
      ],
      "payable": false,
      "stateMutability": "view",
      "type": "function"
    },
    {
      "constant": true,
      "inputs": [],
      "name": "returnAllProcess",
      "outputs": [
        {
          "name": "",
          "type": "address[]"
        }
      ],
      "payable": false,
      "stateMutability": "view",
      "type": "function"
    },
    {
      "constant": true,
      "inputs": [
        {
          "name": "_supplierAddress",
          "type": "address"
        }
      ],
      "name": "returnProcessByOwner",
      "outputs": [
        {
          "name": "",
          "type": "bytes32"
        },
        {
          "name": "",
          "type": "bytes32[]"
        }
      ],
      "payable": false,
      "stateMutability": "view",
      "type": "function"
    }
  ],
  "bytecode": "0x608060405234801561001057600080fd5b5060405160a08061188c833981018060405260a081101561003057600080fd5b810190808051906020019092919080519060200190929190805190602001909291908051906020019092919080519060200190929190505050846000819055508360048190555082600160026101000a81548173ffffffffffffffffffffffffffffffffffffffff021916908373ffffffffffffffffffffffffffffffffffffffff16021790555033600260006101000a81548173ffffffffffffffffffffffffffffffffffffffff021916908373ffffffffffffffffffffffffffffffffffffffff16021790555081600360006101000a81548173ffffffffffffffffffffffffffffffffffffffff021916908373ffffffffffffffffffffffffffffffffffffffff1602179055508060058190555060018060016101000a81548160ff021916908315150217905550505050505061171d8061016f6000396000f3fe6080604052600436106100af576000357c0100000000000000000000000000000000000000000000000000000000900463ffffffff168063290127cd146100b457806339571d6e14610120578063610be6541461025a57806367f71cb9146102715780637569b184146102e45780637643d7311461033f578063b4e830f1146103ba578063cdee934e146103d1578063d525201514610420578063d98c10bc146104a5578063e7f497f014610511575b600080fd5b3480156100c057600080fd5b506100c96105be565b6040518080602001828103825283818151815260200191508051906020019060200280838360005b8381101561010c5780820151818401526020810190506100f1565b505050509050019250505060405180910390f35b34801561012c57600080fd5b5061013561064c565b604051808981526020018873ffffffffffffffffffffffffffffffffffffffff1673ffffffffffffffffffffffffffffffffffffffff1681526020018781526020018681526020018515151515815260200180602001806020018473ffffffffffffffffffffffffffffffffffffffff1673ffffffffffffffffffffffffffffffffffffffff168152602001838103835286818151815260200191508051906020019060200280838360005b838110156101fc5780820151818401526020810190506101e1565b50505050905001838103825285818151815260200191508051906020019060200280838360005b8381101561023e578082015181840152602081019050610223565b505050509050019a505050505050505050505060405180910390f35b34801561026657600080fd5b5061026f61078e565b005b34801561027d57600080fd5b506102e2600480360360c081101561029457600080fd5b8101908080359060200190929190803560ff169060200190929190803560ff16906020019092919080359060200190929190803590602001909291908035906020019092919050505061089b565b005b3480156102f057600080fd5b5061033d6004803603604081101561030757600080fd5b81019080803573ffffffffffffffffffffffffffffffffffffffff16906020019092919080359060200190929190505050610d2b565b005b34801561034b57600080fd5b506103786004803603602081101561036257600080fd5b81019080803590602001909291905050506111b7565b604051808273ffffffffffffffffffffffffffffffffffffffff1673ffffffffffffffffffffffffffffffffffffffff16815260200191505060405180910390f35b3480156103c657600080fd5b506103cf6111f5565b005b3480156103dd57600080fd5b5061040a600480360360208110156103f457600080fd5b81019080803590602001909291905050506113b3565b6040518082815260200191505060405180910390f35b34801561042c57600080fd5b506104596004803603602081101561044357600080fd5b81019080803590602001909291905050506113d6565b604051808881526020018781526020018681526020018560ff1660ff1681526020018460ff1660ff16815260200183815260200182815260200197505050505050505060405180910390f35b3480156104b157600080fd5b506104ba611543565b6040518080602001828103825283818151815260200191508051906020019060200280838360005b838110156104fd5780820151818401526020810190506104e2565b505050509050019250505060405180910390f35b34801561051d57600080fd5b506105606004803603602081101561053457600080fd5b81019080803573ffffffffffffffffffffffffffffffffffffffff16906020019092919050505061159b565b6040518083815260200180602001828103825283818151815260200191508051906020019060200280838360005b838110156105a957808201518184015260208101905061058e565b50505050905001935050505060405180910390f35b6060600680548060200260200160405190810160405280929190818152602001828054801561064257602002820191906000526020600020905b8160009054906101000a900473ffffffffffffffffffffffffffffffffffffffff1673ffffffffffffffffffffffffffffffffffffffff16815260200190600101908083116105f8575b5050505050905090565b60008060008060006060806000600454600160029054906101000a900473ffffffffffffffffffffffffffffffffffffffff16600054600554600160009054906101000a900460ff166007600630828054806020026020016040519081016040528092919081815260200182805480156106e557602002820191906000526020600020905b8154815260200190600101908083116106d1575b505050505092508180548060200260200160405190810160405280929190818152602001828054801561076d57602002820191906000526020600020905b8160009054906101000a900473ffffffffffffffffffffffffffffffffffffffff1673ffffffffffffffffffffffffffffffffffffffff1681526020019060010190808311610723575b50505050509150975097509750975097509750975097509091929394959697565b600360009054906101000a900473ffffffffffffffffffffffffffffffffffffffff1673ffffffffffffffffffffffffffffffffffffffff163373ffffffffffffffffffffffffffffffffffffffff16141515610853576040517f08c379a000000000000000000000000000000000000000000000000000000000815260040180806020018281038252601f8152602001807f48617320746f206265204d6174657269616c204f7267616e697a6174696f6e0081525060200191505060405180910390fd5b60006001806101000a81548160ff0219169083151502179055507fdd2d87603957aa30528bbb6ece5f26fb72b6e34738d004ddf70c393ef7894ef960405160405180910390a1565b6000600102600a60003373ffffffffffffffffffffffffffffffffffffffff1673ffffffffffffffffffffffffffffffffffffffff1681526020019081526020016000206000015414151515610959576040517f08c379a000000000000000000000000000000000000000000000000000000000815260040180806020018281038252601d8152602001807f48617320746f20626520737570706c696572206f662070726f6a65637400000081525060200191505060405180910390fd5b60011515600160009054906101000a900460ff161515141515610a0a576040517f08c379a00000000000000000000000000000000000000000000000000000000081526004018080602001828103825260218152602001807f50726f6a656374206973206e6f7420617070726f76656420627920636c69656e81526020017f740000000000000000000000000000000000000000000000000000000000000081525060400191505060405180910390fd5b60006009600088815260200190815260200160002060050154141515610a98576040517f08c379a00000000000000000000000000000000000000000000000000000000081526004018080602001828103825260188152602001807f446f63756d656e7420616c72656164792063726561746564000000000000000081525060200191505060405180910390fd5b6000600260009054906101000a900473ffffffffffffffffffffffffffffffffffffffff16905060008173ffffffffffffffffffffffffffffffffffffffff166381e19490306040518263ffffffff167c0100000000000000000000000000000000000000000000000000000000028152600401808273ffffffffffffffffffffffffffffffffffffffff1673ffffffffffffffffffffffffffffffffffffffff168152602001915050602060405180830381600087803b158015610b5c57600080fd5b505af1158015610b70573d6000803e3d6000fd5b505050506040513d6020811015610b8657600080fd5b8101908080519060200190929190505050905060e0604051908101604052808581526020018481526020018681526020018860ff1681526020018760ff16815260200182815260200142815250600960008a815260200190815260200160002060008201518160000155602082015181600101556040820151816002015560608201518160030160006101000a81548160ff021916908360ff16021790555060808201518160030160016101000a81548160ff021916908360ff16021790555060a0820151816004015560c082015181600501559050506007889080600181540180825580915050906001820390600052602060002001600090919290919091505550600a60003373ffffffffffffffffffffffffffffffffffffffff1673ffffffffffffffffffffffffffffffffffffffff1681526020019081526020016000206001018890806001815401808255809150509060018203906000526020600020016000909192909190915055507f0ac146a5629d2541f754db3df5197733e7c3002b8cfe1da2416abd2c9a49c28c60405160405180910390a15050505050505050565b600360009054906101000a900473ffffffffffffffffffffffffffffffffffffffff1673ffffffffffffffffffffffffffffffffffffffff163373ffffffffffffffffffffffffffffffffffffffff16141515610df0576040517f08c379a000000000000000000000000000000000000000000000000000000000815260040180806020018281038252601f8152602001807f48617320746f206265204d6174657269616c204f7267616e697a6174696f6e0081525060200191505060405180910390fd5b6000600102600a60008473ffffffffffffffffffffffffffffffffffffffff1673ffffffffffffffffffffffffffffffffffffffff16815260200190815260200160002060000154141515610ead576040517f08c379a00000000000000000000000000000000000000000000000000000000081526004018080602001828103825260178152602001807f50726f6365737320616c7265616479206372656174656400000000000000000081525060200191505060405180910390fd5b60001515600160009054906101000a900460ff161515141515610f5e576040517f08c379a00000000000000000000000000000000000000000000000000000000081526004018080602001828103825260258152602001807f50726f6a65637420697320616c726561647920617070726f766564206279206381526020017f6c69656e7400000000000000000000000000000000000000000000000000000081525060400191505060405180910390fd5b6000600260009054906101000a900473ffffffffffffffffffffffffffffffffffffffff1690508073ffffffffffffffffffffffffffffffffffffffff1663898b659f84306040518363ffffffff167c0100000000000000000000000000000000000000000000000000000000028152600401808373ffffffffffffffffffffffffffffffffffffffff1673ffffffffffffffffffffffffffffffffffffffff1681526020018273ffffffffffffffffffffffffffffffffffffffff1673ffffffffffffffffffffffffffffffffffffffff16815260200192505050600060405180830381600087803b15801561105457600080fd5b505af1158015611068573d6000803e3d6000fd5b505050506060600060405190808252806020026020018201604052801561109e5781602001602082028038833980820191505090505b50905060068490806001815401808255809150509060018203906000526020600020016000909192909190916101000a81548173ffffffffffffffffffffffffffffffffffffffff021916908373ffffffffffffffffffffffffffffffffffffffff16021790555050604080519081016040528084815260200182815250600a60008673ffffffffffffffffffffffffffffffffffffffff1673ffffffffffffffffffffffffffffffffffffffff16815260200190815260200160002060008201518160000155602082015181600101908051906020019061118192919061167f565b509050507f0346a5dd0e6acde7619febdd0d7f470611f6f002fb8cee5f164a3ab74854ec5b60405160405180910390a150505050565b6006818154811015156111c657fe5b906000526020600020016000915054906101000a900473ffffffffffffffffffffffffffffffffffffffff1681565b600160029054906101000a900473ffffffffffffffffffffffffffffffffffffffff1673ffffffffffffffffffffffffffffffffffffffff163373ffffffffffffffffffffffffffffffffffffffff161415156112e0576040517f08c379a00000000000000000000000000000000000000000000000000000000081526004018080602001828103825260378152602001807f4f6e6c7920636c69656e7473206f6620746869732070726f6a6563742063616e81526020017f207265616c697a652074686973206f7065726174696f6e00000000000000000081525060400191505060405180910390fd5b60001515600160009054906101000a900460ff16151514151561136b576040517f08c379a00000000000000000000000000000000000000000000000000000000081526004018080602001828103825260188152602001807f50726f6a65637420616c726561647920617070726f766564000000000000000081525060200191505060405180910390fd5b60018060006101000a81548160ff0219169083151502179055507fe69f676c299b333dca8f06fbbad2158afb93499d1eaf331570780e6afc33889a60405160405180910390a1565b6007818154811015156113c257fe5b906000526020600020016000915090505481565b600080600080600080600080600960008a8152602001908152602001600020600501541415151561146f576040517f08c379a00000000000000000000000000000000000000000000000000000000081526004018080602001828103825260178152602001807f446f63756d656e7420646f6573206e6f7420657869737400000000000000000081525060200191505060405180910390fd5b6009600089815260200190815260200160002060000154600960008a815260200190815260200160002060010154600960008b815260200190815260200160002060020154600960008c815260200190815260200160002060030160009054906101000a900460ff16600960008d815260200190815260200160002060030160019054906101000a900460ff16600960008e815260200190815260200160002060040154600960008f8152602001908152602001600020600501549650965096509650965096509650919395979092949650565b6060600780548060200260200160405190810160405280929190818152602001828054801561159157602002820191906000526020600020905b81548152602001906001019080831161157d575b5050505050905090565b60006060600a60008473ffffffffffffffffffffffffffffffffffffffff1673ffffffffffffffffffffffffffffffffffffffff16815260200190815260200160002060000154600a60008573ffffffffffffffffffffffffffffffffffffffff1673ffffffffffffffffffffffffffffffffffffffff1681526020019081526020016000206001018080548060200260200160405190810160405280929190818152602001828054801561166f57602002820191906000526020600020905b81548152602001906001019080831161165b575b5050505050905091509150915091565b8280548282559060005260206000209081019282156116bb579160200282015b828111156116ba57825182559160200191906001019061169f565b5b5090506116c891906116cc565b5090565b6116ee91905b808211156116ea5760008160009055506001016116d2565b5090565b9056fea165627a7a72305820f5b72dd8760bcffe86f31b4c7f31f82127b1ea75bb4a09da6f90d63ea2ddd2de0029",
  "source": "pragma solidity >=0.5.0 <0.7.0;\r\n\r\nimport \"./NuclearPoE.sol\";\r\n\r\ncontract Project {\r\n\r\n    uint private expediente;\r\n    bool private approved;\r\n    bool private active;\r\n    address private clientAddress;\r\n    address private NuclearPoEAddress;\r\n    address private moAddress;\r\n    bytes32 private title;\r\n    bytes32 private oc;\r\n\r\n    struct Document {\r\n        bytes32 latitude;\r\n        bytes32 longitude;\r\n        bytes32 storageHash;\r\n        uint8 storageFunction;\r\n        uint8 storageSize;\r\n        uint docNumber;\r\n        uint mineTime;\r\n    }\r\n\r\n    struct Process {\r\n        bytes32 processName;\r\n        bytes32[] documentsToOwner;\r\n    }\r\n\r\n    address[] public supplierAddresses;\r\n    bytes32[] public allDocuments;\r\n\r\n    mapping (address => uint) ownerDocumentCount;\r\n\r\n    mapping(bytes32 => Document) private document;\r\n    mapping(address => Process) private process;\r\n\r\n    event AddDocument();\r\n    event AddProcess();\r\n    event ApproveProject();\r\n    event CloseProject();\r\n\r\n    modifier onlyClient() {\r\n        require(msg.sender == clientAddress, \"Only clients of this project can realize this operation\");\r\n        _;\r\n    }\r\n\r\n    modifier onlySupplier() {\r\n                require(process[msg.sender].processName != 0,  'Has to be supplier of project');\r\n        _;\r\n    }\r\n\r\n    modifier onlyMO() {\r\n                require(msg.sender == moAddress,  'Has to be Material Organization');\r\n        _;\r\n    }\r\n\r\n    constructor (uint _expediente, bytes32 _title, address _clientAddress, address _moAddress, bytes32 _oc) public {\r\n        expediente = _expediente;\r\n        title = _title;\r\n        clientAddress = _clientAddress;\r\n        NuclearPoEAddress = msg.sender;\r\n        moAddress = _moAddress;\r\n        oc = _oc;\r\n        active = true;\r\n    }\r\n\r\n    function addDocument (bytes32 _hash, uint8 storageFunction, uint8 storageSize, bytes32 storageHash, bytes32 latitude, bytes32 longitude) external onlySupplier() {\r\n        require(approved == true,\"Project is not approved by client\");\r\n        require(document[_hash].mineTime == 0, \"Document already created\");\r\n\r\n        NuclearPoE main = NuclearPoE(NuclearPoEAddress);\r\n        uint docNumber = main.incrementDocNumber(address(this));\r\n\r\n        document[_hash] = Document(latitude, longitude, storageHash, storageFunction, storageSize, docNumber, now);\r\n        allDocuments.push(_hash);\r\n        process[msg.sender].documentsToOwner.push(_hash);\r\n\r\n        emit AddDocument();\r\n    }\r\n\r\n\r\n    function findDocument(bytes32 _hash) external view returns (bytes32, bytes32, bytes32, uint8, uint8, uint, uint) {\r\n        require(document[_hash].mineTime != 0, \"Document does not exist\");\r\n        return (\r\n            document[_hash].latitude,\r\n            document[_hash].longitude,\r\n            document[_hash].storageHash,\r\n            document[_hash].storageFunction,\r\n            document[_hash].storageSize,\r\n            document[_hash].docNumber,\r\n            document[_hash].mineTime\r\n            );\r\n    }\r\n\r\n    function approveProject() external onlyClient() {\r\n        require(approved == false, \"Project already approved\");\r\n        approved = true;\r\n\r\n        emit ApproveProject();\r\n    }\r\n\r\n    function addProcess(address _supplierAddress, bytes32 _processName) external onlyMO() {\r\n        require(process[_supplierAddress].processName == 0,\"Process already created\");\r\n        require(approved == false,\"Project is already approved by client\");\r\n\r\n        NuclearPoE main = NuclearPoE(NuclearPoEAddress);\r\n        main.addSupplierToProject(_supplierAddress,address(this));\r\n\r\n        bytes32[] memory documents = new bytes32[](0);\r\n        supplierAddresses.push(_supplierAddress);\r\n        process[_supplierAddress] = Process(_processName, documents);\r\n\r\n        emit AddProcess();\r\n    }\r\n\r\n    function contractDetails() external view returns (bytes32, address, uint, bytes32, bool, bytes32[] memory, address[] memory,address) {\r\n        return (title, clientAddress, expediente, oc, approved, allDocuments, supplierAddresses, address(this));\r\n    }\r\n    \r\n    function closeContract() external onlyMO() {\r\n        active = false;\r\n        emit CloseProject();\r\n    }\r\n\r\n    function returnAllDocuments() external view returns(bytes32[] memory) {\r\n        return allDocuments;\r\n    }\r\n\r\n    function returnAllProcess() external view returns(address[] memory) {\r\n        return supplierAddresses;\r\n    }\r\n\r\n    function returnProcessByOwner(address _supplierAddress) external view returns(bytes32, bytes32[] memory) {\r\n        return (process[_supplierAddress].processName, process[_supplierAddress].documentsToOwner);\r\n    }\r\n}",
  "sourcePath": "C:\\Users\\smartinez.nuclearis\\Documents\\GitHub\\NUCLEARIS-Material-Organization\\contracts\\Project.sol",
  "compiler": {
    "name": "solc",
    "version": "0.5.0+commit.1d4f565a.Emscripten.clang"
  },
  "schemaVersion": "3.0.5",
  "updatedAt": "2019-10-30T14:14:44.140Z",
  "devdoc": {
    "methods": {}
  },
  "userdoc": {
    "methods": {}
  }
}