{
  "contractName": "Project",
  "abi": [
    {
      "constant": true,
      "inputs": [
        {
          "name": "",
          "type": "uint256"
        }
      ],
      "name": "supplierAddresses",
      "outputs": [
        {
          "name": "",
          "type": "address"
        }
      ],
      "payable": false,
      "stateMutability": "view",
      "type": "function"
    },
    {
      "constant": true,
      "inputs": [
        {
          "name": "",
          "type": "uint256"
        }
      ],
      "name": "allDocuments",
      "outputs": [
        {
          "name": "",
          "type": "bytes32"
        }
      ],
      "payable": false,
      "stateMutability": "view",
      "type": "function"
    },
    {
      "inputs": [
        {
          "name": "_expediente",
          "type": "uint256"
        },
        {
          "name": "_title",
          "type": "bytes32"
        },
        {
          "name": "_clientAddress",
          "type": "address"
        },
        {
          "name": "_moAddress",
          "type": "address"
        },
        {
          "name": "_oc",
          "type": "bytes32"
        }
      ],
      "payable": false,
      "stateMutability": "nonpayable",
      "type": "constructor"
    },
    {
      "anonymous": false,
      "inputs": [],
      "name": "AddDocument",
      "type": "event"
    },
    {
      "anonymous": false,
      "inputs": [],
      "name": "AddProcess",
      "type": "event"
    },
    {
      "anonymous": false,
      "inputs": [],
      "name": "ApproveProject",
      "type": "event"
    },
    {
      "constant": false,
      "inputs": [
        {
          "name": "_hash",
          "type": "bytes32"
        },
        {
          "name": "_documentName",
          "type": "bytes32"
        },
        {
          "name": "storageHash",
          "type": "string"
        }
      ],
      "name": "addDocument",
      "outputs": [],
      "payable": false,
      "stateMutability": "nonpayable",
      "type": "function"
    },
    {
      "constant": true,
      "inputs": [
        {
          "name": "_hash",
          "type": "bytes32"
        }
      ],
      "name": "findDocument",
      "outputs": [
        {
          "name": "",
          "type": "uint256"
        },
        {
          "name": "",
          "type": "bytes32"
        },
        {
          "name": "",
          "type": "string"
        }
      ],
      "payable": false,
      "stateMutability": "view",
      "type": "function"
    },
    {
      "constant": false,
      "inputs": [],
      "name": "approveProject",
      "outputs": [],
      "payable": false,
      "stateMutability": "nonpayable",
      "type": "function"
    },
    {
      "constant": false,
      "inputs": [
        {
          "name": "_supplierAddress",
          "type": "address"
        },
        {
          "name": "_processName",
          "type": "bytes32"
        }
      ],
      "name": "addProcess",
      "outputs": [],
      "payable": false,
      "stateMutability": "nonpayable",
      "type": "function"
    },
    {
      "constant": true,
      "inputs": [],
      "name": "contractDetails",
      "outputs": [
        {
          "name": "",
          "type": "bytes32"
        },
        {
          "name": "",
          "type": "address"
        },
        {
          "name": "",
          "type": "uint256"
        },
        {
          "name": "",
          "type": "bytes32"
        },
        {
          "name": "",
          "type": "bool"
        },
        {
          "name": "",
          "type": "bytes32[]"
        },
        {
          "name": "",
          "type": "address[]"
        },
        {
          "name": "",
          "type": "address"
        }
      ],
      "payable": false,
      "stateMutability": "view",
      "type": "function"
    },
    {
      "constant": true,
      "inputs": [],
      "name": "returnAllDocuments",
      "outputs": [
        {
          "name": "",
          "type": "bytes32[]"
        }
      ],
      "payable": false,
      "stateMutability": "view",
      "type": "function"
    },
    {
      "constant": true,
      "inputs": [],
      "name": "returnAllProcess",
      "outputs": [
        {
          "name": "",
          "type": "address[]"
        }
      ],
      "payable": false,
      "stateMutability": "view",
      "type": "function"
    },
    {
      "constant": true,
      "inputs": [
        {
          "name": "_supplierAddress",
          "type": "address"
        }
      ],
      "name": "returnProcessByOwner",
      "outputs": [
        {
          "name": "",
          "type": "bytes32"
        },
        {
          "name": "",
          "type": "bytes32[]"
        }
      ],
      "payable": false,
      "stateMutability": "view",
      "type": "function"
    }
  ],
  "bytecode": "0x608060405234801561001057600080fd5b5060405160a080611825833981018060405260a081101561003057600080fd5b8101908080519060200190929190805190602001909291908051906020019092919080519060200190929190805190602001909291905050508460008190555083600481905550826001806101000a81548173ffffffffffffffffffffffffffffffffffffffff021916908373ffffffffffffffffffffffffffffffffffffffff16021790555033600260006101000a81548173ffffffffffffffffffffffffffffffffffffffff021916908373ffffffffffffffffffffffffffffffffffffffff16021790555081600360006101000a81548173ffffffffffffffffffffffffffffffffffffffff021916908373ffffffffffffffffffffffffffffffffffffffff1602179055508060058190555050505050506116d1806101546000396000f3fe6080604052600436106100a4576000357c0100000000000000000000000000000000000000000000000000000000900463ffffffff168063290127cd146100a957806339571d6e146101155780637569b1841461024f5780637643d731146102aa578063b4e830f114610325578063cdee934e1461033c578063d52520151461038b578063d98c10bc1461044d578063e7f497f0146104b9578063f6c47d2914610566575b600080fd5b3480156100b557600080fd5b506100be610600565b6040518080602001828103825283818151815260200191508051906020019060200280838360005b838110156101015780820151818401526020810190506100e6565b505050509050019250505060405180910390f35b34801561012157600080fd5b5061012a61068e565b604051808981526020018873ffffffffffffffffffffffffffffffffffffffff1673ffffffffffffffffffffffffffffffffffffffff1681526020018781526020018681526020018515151515815260200180602001806020018473ffffffffffffffffffffffffffffffffffffffff1673ffffffffffffffffffffffffffffffffffffffff168152602001838103835286818151815260200191508051906020019060200280838360005b838110156101f15780820151818401526020810190506101d6565b50505050905001838103825285818151815260200191508051906020019060200280838360005b83811015610233578082015181840152602081019050610218565b505050509050019a505050505050505050505060405180910390f35b34801561025b57600080fd5b506102a86004803603604081101561027257600080fd5b81019080803573ffffffffffffffffffffffffffffffffffffffff169060200190929190803590602001909291905050506107cf565b005b3480156102b657600080fd5b506102e3600480360360208110156102cd57600080fd5b8101908080359060200190929190505050610c5b565b604051808273ffffffffffffffffffffffffffffffffffffffff1673ffffffffffffffffffffffffffffffffffffffff16815260200191505060405180910390f35b34801561033157600080fd5b5061033a610c99565b005b34801561034857600080fd5b506103756004803603602081101561035f57600080fd5b8101908080359060200190929190505050610f40565b6040518082815260200191505060405180910390f35b34801561039757600080fd5b506103c4600480360360208110156103ae57600080fd5b8101908080359060200190929190505050610f63565b6040518084815260200183815260200180602001828103825283818151815260200191508051906020019080838360005b838110156104105780820151818401526020810190506103f5565b50505050905090810190601f16801561043d5780820380516001836020036101000a031916815260200191505b5094505050505060405180910390f35b34801561045957600080fd5b506104626110e4565b6040518080602001828103825283818151815260200191508051906020019060200280838360005b838110156104a557808201518184015260208101905061048a565b505050509050019250505060405180910390f35b3480156104c557600080fd5b50610508600480360360208110156104dc57600080fd5b81019080803573ffffffffffffffffffffffffffffffffffffffff16906020019092919050505061113c565b6040518083815260200180602001828103825283818151815260200191508051906020019060200280838360005b83811015610551578082015181840152602081019050610536565b50505050905001935050505060405180910390f35b34801561057257600080fd5b506105fe6004803603606081101561058957600080fd5b810190808035906020019092919080359060200190929190803590602001906401000000008111156105ba57600080fd5b8201836020820111156105cc57600080fd5b803590602001918460018302840111640100000000831117156105ee57600080fd5b9091929391929390505050611220565b005b6060600680548060200260200160405190810160405280929190818152602001828054801561068457602002820191906000526020600020905b8160009054906101000a900473ffffffffffffffffffffffffffffffffffffffff1673ffffffffffffffffffffffffffffffffffffffff168152602001906001019080831161063a575b5050505050905090565b600080600080600060608060006004546001809054906101000a900473ffffffffffffffffffffffffffffffffffffffff16600054600554600160009054906101000a900460ff1660076006308280548060200260200160405190810160405280929190818152602001828054801561072657602002820191906000526020600020905b815481526020019060010190808311610712575b50505050509250818054806020026020016040519081016040528092919081815260200182805480156107ae57602002820191906000526020600020905b8160009054906101000a900473ffffffffffffffffffffffffffffffffffffffff1673ffffffffffffffffffffffffffffffffffffffff1681526020019060010190808311610764575b50505050509150975097509750975097509750975097509091929394959697565b600360009054906101000a900473ffffffffffffffffffffffffffffffffffffffff1673ffffffffffffffffffffffffffffffffffffffff163373ffffffffffffffffffffffffffffffffffffffff16141515610894576040517f08c379a000000000000000000000000000000000000000000000000000000000815260040180806020018281038252601f8152602001807f48617320746f206265204d6174657269616c204f7267616e697a6174696f6e0081525060200191505060405180910390fd5b6000600102600a60008473ffffffffffffffffffffffffffffffffffffffff1673ffffffffffffffffffffffffffffffffffffffff16815260200190815260200160002060000154141515610951576040517f08c379a00000000000000000000000000000000000000000000000000000000081526004018080602001828103825260178152602001807f50726f6365737320616c7265616479206372656174656400000000000000000081525060200191505060405180910390fd5b60001515600160009054906101000a900460ff161515141515610a02576040517f08c379a00000000000000000000000000000000000000000000000000000000081526004018080602001828103825260258152602001807f50726f6a65637420697320616c726561647920617070726f766564206279206381526020017f6c69656e7400000000000000000000000000000000000000000000000000000081525060400191505060405180910390fd5b6000600260009054906101000a900473ffffffffffffffffffffffffffffffffffffffff1690508073ffffffffffffffffffffffffffffffffffffffff1663898b659f84306040518363ffffffff167c0100000000000000000000000000000000000000000000000000000000028152600401808373ffffffffffffffffffffffffffffffffffffffff1673ffffffffffffffffffffffffffffffffffffffff1681526020018273ffffffffffffffffffffffffffffffffffffffff1673ffffffffffffffffffffffffffffffffffffffff16815260200192505050600060405180830381600087803b158015610af857600080fd5b505af1158015610b0c573d6000803e3d6000fd5b5050505060606000604051908082528060200260200182016040528015610b425781602001602082028038833980820191505090505b50905060068490806001815401808255809150509060018203906000526020600020016000909192909190916101000a81548173ffffffffffffffffffffffffffffffffffffffff021916908373ffffffffffffffffffffffffffffffffffffffff16021790555050604080519081016040528084815260200182815250600a60008673ffffffffffffffffffffffffffffffffffffffff1673ffffffffffffffffffffffffffffffffffffffff168152602001908152602001600020600082015181600001556020820151816001019080519060200190610c2592919061158e565b509050507f0346a5dd0e6acde7619febdd0d7f470611f6f002fb8cee5f164a3ab74854ec5b60405160405180910390a150505050565b600681815481101515610c6a57fe5b906000526020600020016000915054906101000a900473ffffffffffffffffffffffffffffffffffffffff1681565b6001809054906101000a900473ffffffffffffffffffffffffffffffffffffffff1673ffffffffffffffffffffffffffffffffffffffff163373ffffffffffffffffffffffffffffffffffffffff16141515610d83576040517f08c379a00000000000000000000000000000000000000000000000000000000081526004018080602001828103825260378152602001807f4f6e6c7920636c69656e7473206f6620746869732070726f6a6563742063616e81526020017f207265616c697a652074686973206f7065726174696f6e00000000000000000081525060400191505060405180910390fd5b6001809054906101000a900473ffffffffffffffffffffffffffffffffffffffff1673ffffffffffffffffffffffffffffffffffffffff163373ffffffffffffffffffffffffffffffffffffffff16141515610e6d576040517f08c379a00000000000000000000000000000000000000000000000000000000081526004018080602001828103825260378152602001807f4f6e6c7920636c69656e7473206f6620746869732070726f6a6563742063616e81526020017f207265616c697a652074686973206f7065726174696f6e00000000000000000081525060400191505060405180910390fd5b60001515600160009054906101000a900460ff161515141515610ef8576040517f08c379a00000000000000000000000000000000000000000000000000000000081526004018080602001828103825260188152602001807f50726f6a65637420616c726561647920617070726f766564000000000000000081525060200191505060405180910390fd5b60018060006101000a81548160ff0219169083151502179055507fe69f676c299b333dca8f06fbbad2158afb93499d1eaf331570780e6afc33889a60405160405180910390a1565b600781815481101515610f4f57fe5b906000526020600020016000915090505481565b60008060606000600960008681526020019081526020016000206002015414151515610ff7576040517f08c379a00000000000000000000000000000000000000000000000000000000081526004018080602001828103825260178152602001807f446f63756d656e7420646f6573206e6f7420657869737400000000000000000081525060200191505060405180910390fd5b6009600085815260200190815260200160002060020154600960008681526020019081526020016000206000015460096000878152602001908152602001600020600101808054600181600116156101000203166002900480601f0160208091040260200160405190810160405280929190818152602001828054600181600116156101000203166002900480156110d05780601f106110a5576101008083540402835291602001916110d0565b820191906000526020600020905b8154815290600101906020018083116110b357829003601f168201915b505050505090509250925092509193909250565b6060600780548060200260200160405190810160405280929190818152602001828054801561113257602002820191906000526020600020905b81548152602001906001019080831161111e575b5050505050905090565b60006060600a60008473ffffffffffffffffffffffffffffffffffffffff1673ffffffffffffffffffffffffffffffffffffffff16815260200190815260200160002060000154600a60008573ffffffffffffffffffffffffffffffffffffffff1673ffffffffffffffffffffffffffffffffffffffff1681526020019081526020016000206001018080548060200260200160405190810160405280929190818152602001828054801561121057602002820191906000526020600020905b8154815260200190600101908083116111fc575b5050505050905091509150915091565b6000600102600a60003373ffffffffffffffffffffffffffffffffffffffff1673ffffffffffffffffffffffffffffffffffffffff16815260200190815260200160002060000154141515156112de576040517f08c379a000000000000000000000000000000000000000000000000000000000815260040180806020018281038252601d8152602001807f48617320746f20626520737570706c696572206f662070726f6a65637400000081525060200191505060405180910390fd5b60011515600160009054906101000a900460ff16151514151561138f576040517f08c379a00000000000000000000000000000000000000000000000000000000081526004018080602001828103825260218152602001807f50726f6a656374206973206e6f7420617070726f76656420627920636c69656e81526020017f740000000000000000000000000000000000000000000000000000000000000081525060400191505060405180910390fd5b6000600960008681526020019081526020016000206002015414151561141d576040517f08c379a00000000000000000000000000000000000000000000000000000000081526004018080602001828103825260188152602001807f446f63756d656e7420616c72656164792063726561746564000000000000000081525060200191505060405180910390fd5b60606040519081016040528084815260200183838080601f016020809104026020016040519081016040528093929190818152602001838380828437600081840152601f19601f82011690508083019250505050505050815260200142815250600960008681526020019081526020016000206000820151816000015560208201518160010190805190602001906114b69291906115db565b50604082015181600201559050506007849080600181540180825580915050906001820390600052602060002001600090919290919091505550600a60003373ffffffffffffffffffffffffffffffffffffffff1673ffffffffffffffffffffffffffffffffffffffff1681526020019081526020016000206001018490806001815401808255809150509060018203906000526020600020016000909192909190915055507f0ac146a5629d2541f754db3df5197733e7c3002b8cfe1da2416abd2c9a49c28c60405160405180910390a150505050565b8280548282559060005260206000209081019282156115ca579160200282015b828111156115c95782518255916020019190600101906115ae565b5b5090506115d7919061165b565b5090565b828054600181600116156101000203166002900490600052602060002090601f016020900481019282601f1061161c57805160ff191683800117855561164a565b8280016001018555821561164a579182015b8281111561164957825182559160200191906001019061162e565b5b5090506116579190611680565b5090565b61167d91905b80821115611679576000816000905550600101611661565b5090565b90565b6116a291905b8082111561169e576000816000905550600101611686565b5090565b9056fea165627a7a7230582040e226c3361ffbfa78842ed2c9c28836e2f16da0018d314041bdbcc3d1a2e6c40029",
  "source": "pragma solidity >=0.5.0 <0.7.0;\r\n\r\nimport \"./NuclearPoE.sol\";\r\n\r\ncontract Project {\r\n\r\n    uint private expediente;\r\n    bool private approved;\r\n    address private clientAddress;\r\n    address private NuclearPoEAddress;\r\n    address private moAddress;\r\n    bytes32 private title;\r\n    bytes32 private oc;\r\n\r\n    struct Document {\r\n        bytes32 documentTitle;\r\n        string storageHash;\r\n        uint mineTime;\r\n    }\r\n\r\n    struct Process {\r\n        bytes32 processName;\r\n        bytes32[] documentsToOwner;\r\n    }\r\n\r\n    address[] public supplierAddresses;\r\n    bytes32[] public allDocuments;\r\n\r\n    mapping (address => uint) ownerDocumentCount;\r\n\r\n    mapping(bytes32 => Document) private document;\r\n    mapping(address => Process) private process;\r\n\r\n    event AddDocument();\r\n    event AddProcess();\r\n    event ApproveProject();\r\n\r\n    modifier onlyClient() {\r\n        require(msg.sender == clientAddress, \"Only clients of this project can realize this operation\");\r\n        _;\r\n    }\r\n\r\n    modifier onlySupplier() {\r\n                require(process[msg.sender].processName != 0,  'Has to be supplier of project');\r\n        _;\r\n    }\r\n\r\n    modifier onlyMO() {\r\n                require(msg.sender == moAddress,  'Has to be Material Organization');\r\n        _;\r\n    }\r\n\r\n    constructor (uint _expediente, bytes32 _title, address _clientAddress, address _moAddress, bytes32 _oc) public {\r\n        expediente = _expediente;\r\n        title = _title;\r\n        clientAddress = _clientAddress;\r\n        NuclearPoEAddress = msg.sender;\r\n        moAddress = _moAddress;\r\n        oc = _oc;\r\n    }\r\n\r\n    function addDocument (bytes32 _hash, bytes32 _documentName, string calldata storageHash) external onlySupplier() {\r\n        require(approved == true,\"Project is not approved by client\");\r\n        require(document[_hash].mineTime == 0, \"Document already created\");\r\n\r\n        document[_hash] = Document(_documentName, storageHash, now);\r\n        allDocuments.push(_hash);\r\n        process[msg.sender].documentsToOwner.push(_hash);\r\n\r\n        emit AddDocument();\r\n    }\r\n\r\n\r\n    function findDocument(bytes32 _hash) external view returns (uint, bytes32, string memory) {\r\n        require(document[_hash].mineTime != 0, \"Document does not exist\");\r\n        return (\r\n            document[_hash].mineTime,\r\n            document[_hash].documentTitle,\r\n            document[_hash].storageHash\r\n            );\r\n    }\r\n\r\n    function approveProject() external onlyClient() {\r\n        require(msg.sender == clientAddress,\"Only clients of this project can realize this operation\");\r\n        require(approved == false,\"Project already approved\");\r\n        approved = true;\r\n\r\n        emit ApproveProject();\r\n    }\r\n\r\n    function addProcess(address _supplierAddress, bytes32 _processName) external onlyMO() {\r\n        require(process[_supplierAddress].processName == 0,\"Process already created\");\r\n        require(approved == false,\"Project is already approved by client\");\r\n\r\n        NuclearPoE main = NuclearPoE(NuclearPoEAddress);\r\n        main.addSupplierToProject(_supplierAddress,address(this));\r\n\r\n        bytes32[] memory documents = new bytes32[](0);\r\n        supplierAddresses.push(_supplierAddress);\r\n        process[_supplierAddress] = Process(_processName, documents);\r\n\r\n        emit AddProcess();\r\n    }\r\n\r\n    function contractDetails() external view returns (bytes32, address, uint, bytes32, bool, bytes32[] memory, address[] memory,address) {\r\n        return (title, clientAddress, expediente, oc, approved, allDocuments, supplierAddresses, address(this));\r\n    }\r\n\r\n    function returnAllDocuments() external view returns(bytes32[] memory) {\r\n        return allDocuments;\r\n    }\r\n\r\n    function returnAllProcess() external view returns(address[] memory) {\r\n        return supplierAddresses;\r\n    }\r\n    \r\n    function returnProcessByOwner(address _supplierAddress) external view returns(bytes32, bytes32[] memory) {\r\n        return (process[_supplierAddress].processName, process[_supplierAddress].documentsToOwner);\r\n    }\r\n}",
  "sourcePath": "C:\\Users\\smartinez.nuclearis\\Documents\\GitHub\\NUCLEARIS-Material-Organization\\contracts\\Project.sol",
  "compiler": {
    "name": "solc",
    "version": "0.5.0+commit.1d4f565a.Emscripten.clang"
  },
  "schemaVersion": "3.0.5",
  "updatedAt": "2019-10-21T16:11:28.088Z",
  "devdoc": {
    "methods": {}
  },
  "userdoc": {
    "methods": {}
  }
}