{
  "contractName": "Supplier",
  "abi": [
    {
      "inputs": [
        {
          "name": "supplierName",
          "type": "bytes32"
        }
      ],
      "payable": false,
      "stateMutability": "nonpayable",
      "type": "constructor"
    },
    {
      "constant": true,
      "inputs": [],
      "name": "contractDetails",
      "outputs": [
        {
          "name": "",
          "type": "bytes32"
        },
        {
          "name": "",
          "type": "address[]"
        }
      ],
      "payable": false,
      "stateMutability": "view",
      "type": "function"
    },
    {
      "constant": false,
      "inputs": [
        {
          "name": "_a",
          "type": "address"
        }
      ],
      "name": "addProject",
      "outputs": [],
      "payable": false,
      "stateMutability": "nonpayable",
      "type": "function"
    }
  ],
  "bytecode": "0x608060405234801561001057600080fd5b506040516020806102ad8339810180604052602081101561003057600080fd5b81019080805190602001909291905050508060008190555050610255806100586000396000f3fe60806040526004361061004c576000357c0100000000000000000000000000000000000000000000000000000000900463ffffffff16806339571d6e146100515780637c56b798146100c4575b600080fd5b34801561005d57600080fd5b50610066610115565b6040518083815260200180602001828103825283818151815260200191508051906020019060200280838360005b838110156100af578082015181840152602081019050610094565b50505050905001935050505060405180910390f35b3480156100d057600080fd5b50610113600480360360208110156100e757600080fd5b81019080803573ffffffffffffffffffffffffffffffffffffffff1690602001909291905050506101ae565b005b6000606060005460018080548060200260200160405190810160405280929190818152602001828054801561019f57602002820191906000526020600020905b8160009054906101000a900473ffffffffffffffffffffffffffffffffffffffff1673ffffffffffffffffffffffffffffffffffffffff1681526020019060010190808311610155575b50505050509050915091509091565b60018190806001815401808255809150509060018203906000526020600020016000909192909190916101000a81548173ffffffffffffffffffffffffffffffffffffffff021916908373ffffffffffffffffffffffffffffffffffffffff160217905550506002600081548092919060010191905055505056fea165627a7a723058208469bd3f49aa5f233a9700bb9dae1c275a49324e6fd6898144eb1f78b8ada8160029",
  "source": "pragma solidity >=0.5.0 <0.7.0;\n\n//Contrato general que manejo los subcontratos que se crean en runtime\ncontract NuclearPoE {\n\n    address payable private owner;\n\n    constructor() public {\n      owner = msg.sender;\n    }\n\n    struct ProjectStruct {\n        address contractAddress;\n        bool created;\n    }\n\n    struct ClientStruct {\n        address contractAddress;\n        bool created;\n    }\n\n    struct SupplierStruct {\n        address contractAddress;\n        bool created;\n    }\n\n    mapping(uint => ProjectStruct) private projectContracts;\n    mapping(address => ClientStruct) private client;\n    mapping(address => SupplierStruct) private supplier;\n\n    address[] public projectContractsArray;\n    address[] private supplierContractsArray;\n    address[] private clientContractsArray;\n    uint8 public projectCount;\n    uint8 private clientCount;\n    uint8 private supplierCount;\n\n    modifier onlyOwner() {\n    require(msg.sender == owner,\"Only owner can make this change\");_;\n    }\n\n    event CreateProject(address newProjectContractAddress);\n    event CreateClient(address ContractAddress);\n    event CreateSupplier(address ContractAddress);\n\n    function createProject(uint _expediente, bytes32 _projectTitle, address _clientAddress) external onlyOwner() {\n        require(projectContracts[_expediente].created == false, \"Project already created\");\n        require(client[_clientAddress].created == true, \"Client does not exist\");\n\n        address ProjectContractAddress = address(new Project(_expediente, _projectTitle, _clientAddress));\n        projectContracts[_expediente] = ProjectStruct(ProjectContractAddress, true);\n\n        projectContractsArray.push(ProjectContractAddress);\n        projectCount++;\n\n        emit CreateProject(ProjectContractAddress);\n    }\n\n    function kill() public onlyOwner() {\n        selfdestruct(owner);\n    }\n\n    function createSupplier(address _supplierAddress, bytes32 _supplierName) external onlyOwner() {\n        require(supplier[_supplierAddress].created == false,\"Supplier already created\");\n\n        address ContractAddress = address(new Supplier(_supplierName));\n\n        supplier[_supplierAddress] = SupplierStruct(ContractAddress, true);\n        supplierCount++;\n\n        emit CreateSupplier(ContractAddress);\n    }\n\n    function createClient(address _clientAddress, bytes32 _clientName) external onlyOwner() {\n        require(client[_clientAddress].created == false,\"Client already created\");\n\n        address ContractAddress = address(new Client(_clientName));\n\n        client[_clientAddress] = ClientStruct(ContractAddress, true);\n        clientCount++;\n\n        emit CreateClient(ContractAddress);\n    }\n}\n\n// Contrato de proyectos, cada vez que se crea un proyecto nuevo se debe generar un contrato proyecto.\ncontract Project {\n\n    uint private expediente;\n    bool private approved;\n    address private clientAddress;\n    bytes32 private title;\n    address payable owner;\n\n    struct Document {\n        address supplierAddress;\n        bytes32 documentTitle;\n        uint mineTime;\n        bool created;\n    }\n\n    struct Process {\n        bytes32 processName;\n        bytes32 supplierName;\n        address supplierContractAddress;\n        bool created;\n    }\n\n    uint private supplierCount;\n    uint private documentQty;\n    address[] private supplierAddresses;\n    bytes32[] private allDocuments;\n\n    mapping(address => Process) private process;\n    mapping(bytes32 => Document) private document;\n\n    event AddDocument();\n    event AddProcess();\n    event ApproveProject();\n\n    constructor (uint _expediente, bytes32 _title,address _clientAddress) public {\n        expediente = _expediente;\n        title = _title;\n        clientAddress = _clientAddress;\n        owner = msg.sender; // TEMP\n    }\n\n    function addDocument (address _supplierAddress, bytes32 _hash, bytes32 _documentName) external {\n        require(approved == true,\"Project is not approved by client\");\n        require(process[_supplierAddress].created == true, \"Process does not exist\");\n        require(document[_hash].created == false, \"Document already created\");\n\n        document[_hash] = Document(_supplierAddress, _documentName, now, true);\n        allDocuments.push(_hash);\n        documentQty++;\n        emit AddDocument();\n    }\n\n\n    function findDocument(bytes32 _hash) external view returns (address, uint, bytes32) {\n        require(document[_hash].created == true, \"Document does not exist\");\n        return (\n            document[_hash].supplierAddress,\n            document[_hash].mineTime,\n            document[_hash].documentTitle\n            );\n    }\n    // TEMP\n    function kill() public {\n        selfdestruct(owner);\n    }\n\n    function approveProject() external {\n        require(msg.sender == clientAddress,\"Only clients of this project can realize this operation\");\n        require(approved == false,\"Project already approved\");\n        approved = true;\n        emit ApproveProject();\n    }\n\n    function addProcess(address _supplierContractAddress, address _supplierAddress, bytes32 _processName, bytes32 _supplierName) external {\n        require(process[_supplierAddress].created == false,\"Process already created\");\n        require(approved == false,\"Project is already approved by client\");\n\n        supplierCount++;\n        supplierAddresses.push(_supplierAddress);\n\n        process[_supplierAddress] = Process(_processName, _supplierName, _supplierContractAddress, true);\n\n        emit AddProcess();\n    }\n\n    function contractDetails() external view returns (uint, address, address, bytes32, bool, bytes32[] memory, address[] memory) {\n        return (expediente, address(this), clientAddress, title, approved, allDocuments, supplierAddresses);\n    }\n\n    function returnAllDocuments() external view returns(bytes32[] memory) {\n        return allDocuments;\n    }\n}\n\n\n// Contrato de cliente que se genera para cada cliente nuevo y hace seguimiento a los proyectos nuevos asignados\ncontract Client {\n\n    bytes32 private name;\n    address[] private projectAddresses;\n    uint private projectCount;\n    address payable owner;\n\n    constructor (bytes32 _name) public {\n        name = _name;\n        owner = msg.sender; // TEMP\n    }\n\n    function contractDetails() external view returns (bytes32, address[] memory) {\n        return (name, projectAddresses);\n    }\n\n    // TEMP\n    function kill() public {\n        selfdestruct(owner);\n    }\n\n    function addProject(address _a) external {\n        projectAddresses.push(_a);\n        projectCount++;\n    }\n\n}\n\n// Contrato de proveedores que se genera para cada proveedor nuevo y hace seguimiento a los proyectos nuevos asignados\ncontract Supplier {\n\n    bytes32 private name;\n    address[] private projectAddresses;\n    uint private projectCount;\n\n    constructor (bytes32 supplierName) public {\n        name = supplierName;\n    }\n\n    function contractDetails() external view returns (bytes32, address[] memory) {\n        return (name, projectAddresses);\n    }\n\n    function addProject(address _a) external {\n        projectAddresses.push(_a);\n        projectCount++;\n    }\n}",
  "sourcePath": "/Users/admin/Documents/GitHub/NUCLEARIS-Material-Organization/contracts/NuclearPoE.sol",
  "compiler": {
    "name": "solc",
    "version": "0.5.0+commit.1d4f565a.Emscripten.clang"
  },
  "schemaVersion": "3.0.1",
  "updatedAt": "2019-09-27T22:39:24.903Z",
  "devdoc": {
    "methods": {}
  },
  "userdoc": {
    "methods": {}
  }
}