{
  "contractName": "Supplier",
  "abi": [
    {
      "constant": true,
      "inputs": [],
      "name": "name",
      "outputs": [
        {
          "name": "",
          "type": "bytes32"
        }
      ],
      "payable": false,
      "stateMutability": "view",
      "type": "function"
    },
    {
      "constant": true,
      "inputs": [
        {
          "name": "",
          "type": "uint256"
        }
      ],
      "name": "contractAddresses",
      "outputs": [
        {
          "name": "",
          "type": "address"
        }
      ],
      "payable": false,
      "stateMutability": "view",
      "type": "function"
    },
    {
      "constant": true,
      "inputs": [],
      "name": "contractAddress",
      "outputs": [
        {
          "name": "",
          "type": "address"
        }
      ],
      "payable": false,
      "stateMutability": "view",
      "type": "function"
    },
    {
      "inputs": [
        {
          "name": "supplierName",
          "type": "bytes32"
        }
      ],
      "payable": false,
      "stateMutability": "nonpayable",
      "type": "constructor"
    },
    {
      "constant": true,
      "inputs": [],
      "name": "contractDetails",
      "outputs": [
        {
          "name": "",
          "type": "bytes32"
        },
        {
          "name": "",
          "type": "address[]"
        }
      ],
      "payable": false,
      "stateMutability": "view",
      "type": "function"
    }
  ],
  "bytecode": "0x608060405234801561001057600080fd5b5060405160208061039f8339810180604052602081101561003057600080fd5b81019080805190602001909291905050508060008190555030600260006101000a81548173ffffffffffffffffffffffffffffffffffffffff021916908373ffffffffffffffffffffffffffffffffffffffff16021790555050610306806100996000396000f3fe608060405260043610610062576000357c0100000000000000000000000000000000000000000000000000000000900463ffffffff16806306fdde03146100675780633263b5451461009257806339571d6e1461010d578063f6b4dfb414610180575b600080fd5b34801561007357600080fd5b5061007c6101d7565b6040518082815260200191505060405180910390f35b34801561009e57600080fd5b506100cb600480360360208110156100b557600080fd5b81019080803590602001909291905050506101dd565b604051808273ffffffffffffffffffffffffffffffffffffffff1673ffffffffffffffffffffffffffffffffffffffff16815260200191505060405180910390f35b34801561011957600080fd5b5061012261021b565b6040518083815260200180602001828103825283818151815260200191508051906020019060200280838360005b8381101561016b578082015181840152602081019050610150565b50505050905001935050505060405180910390f35b34801561018c57600080fd5b506101956102b4565b604051808273ffffffffffffffffffffffffffffffffffffffff1673ffffffffffffffffffffffffffffffffffffffff16815260200191505060405180910390f35b60005481565b6001818154811015156101ec57fe5b906000526020600020016000915054906101000a900473ffffffffffffffffffffffffffffffffffffffff1681565b600060606000546001808054806020026020016040519081016040528092919081815260200182805480156102a557602002820191906000526020600020905b8160009054906101000a900473ffffffffffffffffffffffffffffffffffffffff1673ffffffffffffffffffffffffffffffffffffffff168152602001906001019080831161025b575b50505050509050915091509091565b600260009054906101000a900473ffffffffffffffffffffffffffffffffffffffff168156fea165627a7a723058208facb6fa56de9d5c70dd24b9f8e34dce62ef13545da0658113beae126d9ef91a0029",
  "source": "pragma solidity >=0.5.0 <0.7.0;\n\n//Contrato general que manejo los subcontratos que se crean en runtime\ncontract NuclearPoE {\n\n    address payable public owner;\n\n    constructor() public {\n      owner = msg.sender;\n    }\n\n    struct ProjectStruct {\n        address contractAddress;\n        bool created;\n    }\n\n    struct ClientStruct {\n        address contractAddress;\n        bool created;\n    }\n\n    struct SupplierStruct {\n        address contractAddress;\n        bool created;\n    }\n\n    mapping(uint => ProjectStruct) public projectContracts;\n    mapping(address => ClientStruct) public clientContracts;\n    mapping(address => SupplierStruct) public supplierContracts;\n\n    address[] public projectContractsArray;\n    uint public projectCount = 0;\n\n    modifier onlyOwner() {\n    require(msg.sender == owner,\"Only owner can make this change\");_;\n    }\n\n    event CreateNewProject(address newProjectContractAddress, address ClientContractAddress, uint expediente,bytes32 projectTitle);\n\n    function createProject(uint expediente, bytes32 projectTitle, address client, bytes32 clientName) public onlyOwner() returns (address) {\n        require(projectContracts[expediente].created == false, \"Project already created\");\n\n        // Creacion de un nuevo contrato para el proyecto y lo guarda en el struct de proyectos.\n        Project newProject = new Project(expediente, projectTitle, address(this));\n        address newProjectContractAddress = newProject.contractAddress();\n        projectContracts[expediente] = ProjectStruct(newProjectContractAddress,true);\n\n        address ClientContractAddress;\n\n        // Verificacion de existencia de contrato de cliente\n        if(clientContracts[client].created == false) {\n            Client newClient = new Client(clientName);\n            ClientContractAddress = newClient.contractAddress();\n            newClient.addProject(newProjectContractAddress);\n        } else {\n            ClientContractAddress = clientContracts[client].contractAddress;\n            Client newClient = Client(ClientContractAddress);\n            newClient.addProject(newProjectContractAddress);\n        }\n\n        clientContracts[client] = ClientStruct(ClientContractAddress, true);\n\n        newProject.setClientAddress(client);\n\n        projectContractsArray.push(newProjectContractAddress);\n        projectCount++;\n\n        emit CreateNewProject(newProjectContractAddress, ClientContractAddress, expediente, projectTitle);\n        return newProjectContractAddress;\n    }\n\n\n    function addNewSupplier(address supplierAddress, address SupplierContractAddress) public onlyOwner() {\n        supplierContracts[supplierAddress] = SupplierStruct(SupplierContractAddress, true);\n    }\n\n}\n\n// Contrato de proyectos, cada vez que se crea un proyecto nuevo se debe generar un contrato proyecto.\ncontract Project {\n\n    uint public expediente;\n    bool public approved = false;\n    address public mainContract;\n    address public contractAddress;\n    address public clientAddress;\n    bytes32 public title;\n\n    struct Document {\n        address supplierAddress;\n        uint mineTime;\n        uint256 blockNumber;\n        bytes32 documentTitle;\n        bool created;\n    }\n\n    struct Process {\n        bytes32 processName;\n        bytes32 supplierName;\n        address supplierContractAddress;\n        bool created;\n    }\n\n    uint public supplierCount = 0;\n    address[] public supplierAddresses;\n    bytes32[] public allDocuments;\n    uint public documentQty = 0;\n\n    mapping(address => Process) public process;\n    mapping(bytes32 => Document) public document;\n\n    event AddDocument(bytes32 hash, uint mineTime, uint blockNumber);\n    event AddProcess(address _supplierAddress, bytes32 processTitle);\n    event ApproveProject(uint expediente);\n\n    constructor (uint _expediente, bytes32 _title, address _mainContract) public {\n        expediente = _expediente;\n        title = _title;\n        contractAddress = address(this);\n        mainContract = _mainContract;\n        documentQty = 0;\n    }\n\n    function contractDetails() public view returns (uint, address, address, bytes32, bool, bytes32[] memory, address[] memory) {\n        return (expediente, contractAddress, clientAddress, title, approved, allDocuments,supplierAddresses);\n    }\n\n    function setClientAddress(address _a) public {\n        clientAddress = _a;\n    }\n\n    function addDocument (address supplierAddress, bytes32 hash, bytes32 documentName) public {\n        require(approved == true,\"Project is not approved by client\");\n        require(process[supplierAddress].created == true, \"Process does not exist\");\n        require(document[hash].created == false, \"Document already created\");\n\n        document[hash] = Document(supplierAddress, now, block.number, documentName, true);\n        allDocuments.push(hash);\n        documentQty++;\n        emit AddDocument(hash, now, block.number);\n    }\n\n    function returnDocument() public view returns(bytes32[] memory) {\n        return allDocuments;\n    }\n\n    function findDocument(bytes32 hash) public view returns (address, uint, uint, bytes32) {\n        require(document[hash].created == true, \"Document does not exist\");\n        return (\n            document[hash].supplierAddress,\n            document[hash].mineTime,\n            document[hash].blockNumber,\n            document[hash].documentTitle\n            );\n    }\n\n    function approveProject() public {\n        require(msg.sender == clientAddress,\"Only clients of this project can realize this operation\");\n        require(approved == false,\"Project already approved\");\n        approved = true;\n        emit ApproveProject(expediente);\n    }\n\n    function addProcess(address supplierAddress, bytes32 processName, bytes32 supplierName) public {\n        require(process[supplierAddress].created == false,\"Process already created\");\n        require(approved == false,\"Project is already approved by client\");\n\n        \n\n        address supplierContractAddress;\n\n        // Verificacion de existencia de contrato de supplier\n        if(process[supplierAddress].created == false) {\n            Supplier newSupplier = new Supplier(supplierName);\n            supplierContractAddress = newSupplier.contractAddress();\n        } else {\n            supplierContractAddress = process[supplierAddress].supplierContractAddress;\n        }\n\n        NuclearPoE main = NuclearPoE(mainContract);\n        main.supplierContracts(supplierContractAddress);\n\n        supplierCount++;\n        supplierAddresses.push(supplierAddress);\n\n        process[supplierAddress] = Process(processName, supplierName, supplierContractAddress, true);\n\n        emit AddProcess(supplierAddress, processName);\n    }\n\n}\n\n\n// Contrato de cliente que se genera para cada cliente nuevo y hace seguimiento a los proyectos nuevos asignados\ncontract Client {\n\n    bytes32 public name;\n    address public contractAddress;\n    address[] public projectAddresses;\n\n    constructor (bytes32 _name) public {\n        name = _name;\n        contractAddress = address(this);\n    }\n\n    function contractDetails() public view returns (bytes32, address[] memory) {\n        return (name, projectAddresses);\n    }\n\n    function addProject(address _a) public {\n        projectAddresses.push(_a);\n    }\n\n}\n\n// Contrato de proveedores que se genera para cada proveedor nuevo y hace seguimiento a los proyectos nuevos asignados\ncontract Supplier {\n\n    bytes32 public name;\n    address[] public contractAddresses;\n    address public contractAddress;\n    \n    constructor (bytes32 supplierName) public {\n        name = supplierName;\n        contractAddress = address(this);\n    }\n    \n    function contractDetails() public view returns (bytes32, address[] memory) {\n        return (name, contractAddresses);\n    }\n}",
  "sourcePath": "/Users/admin/Documents/GitHub/NUCLEARIS-Material-Organization/contracts/NuclearPoE.sol",
  "compiler": {
    "name": "solc",
    "version": "0.5.0+commit.1d4f565a.Emscripten.clang"
  },
  "schemaVersion": "3.0.1",
  "updatedAt": "2019-09-23T00:54:11.980Z",
  "devdoc": {
    "methods": {}
  },
  "userdoc": {
    "methods": {}
  }
}