{
  "contractName": "User",
  "abi": [
    {
      "constant": true,
      "inputs": [],
      "name": "userAddress",
      "outputs": [
        {
          "name": "",
          "type": "address"
        }
      ],
      "payable": false,
      "stateMutability": "view",
      "type": "function"
    },
    {
      "inputs": [
        {
          "name": "_name",
          "type": "bytes32"
        },
        {
          "name": "_address",
          "type": "address"
        }
      ],
      "payable": false,
      "stateMutability": "nonpayable",
      "type": "constructor"
    },
    {
      "constant": true,
      "inputs": [],
      "name": "contractDetails",
      "outputs": [
        {
          "name": "",
          "type": "bytes32"
        },
        {
          "name": "",
          "type": "address[]"
        }
      ],
      "payable": false,
      "stateMutability": "view",
      "type": "function"
    },
    {
      "constant": false,
      "inputs": [],
      "name": "kill",
      "outputs": [],
      "payable": false,
      "stateMutability": "nonpayable",
      "type": "function"
    },
    {
      "constant": false,
      "inputs": [
        {
          "name": "_a",
          "type": "address"
        }
      ],
      "name": "addProject",
      "outputs": [],
      "payable": false,
      "stateMutability": "nonpayable",
      "type": "function"
    }
  ],
  "bytecode": "0x608060405234801561001057600080fd5b506040516040806103bc8339810180604052604081101561003057600080fd5b8101908080519060200190929190805190602001909291905050508160008190555080600160006101000a81548173ffffffffffffffffffffffffffffffffffffffff021916908373ffffffffffffffffffffffffffffffffffffffff1602179055505050610318806100a46000396000f3fe608060405260043610610062576000357c0100000000000000000000000000000000000000000000000000000000900463ffffffff16806339571d6e1461006757806341c0e1b5146100da5780637c56b798146100f1578063e4128fb314610142575b600080fd5b34801561007357600080fd5b5061007c610199565b6040518083815260200180602001828103825283818151815260200191508051906020019060200280838360005b838110156100c55780820151818401526020810190506100aa565b50505050905001935050505060405180910390f35b3480156100e657600080fd5b506100ef610232565b005b3480156100fd57600080fd5b506101406004803603602081101561011457600080fd5b81019080803573ffffffffffffffffffffffffffffffffffffffff16906020019092919050505061024b565b005b34801561014e57600080fd5b506101576102c6565b604051808273ffffffffffffffffffffffffffffffffffffffff1673ffffffffffffffffffffffffffffffffffffffff16815260200191505060405180910390f35b6000606060005460028080548060200260200160405190810160405280929190818152602001828054801561022357602002820191906000526020600020905b8160009054906101000a900473ffffffffffffffffffffffffffffffffffffffff1673ffffffffffffffffffffffffffffffffffffffff16815260200190600101908083116101d9575b50505050509050915091509091565b3373ffffffffffffffffffffffffffffffffffffffff16ff5b60028190806001815401808255809150509060018203906000526020600020016000909192909190916101000a81548173ffffffffffffffffffffffffffffffffffffffff021916908373ffffffffffffffffffffffffffffffffffffffff1602179055505060036000815480929190600101919050555050565b600160009054906101000a900473ffffffffffffffffffffffffffffffffffffffff168156fea165627a7a723058203b1740c01c8149efd883b99fde1fa44245b94545c71f4b0fdeb699f6f7cc3aac0029",
  "source": "pragma solidity >=0.5.0 <0.7.0;\r\n\r\n//Contrato general que manejo los subcontratos que se crean en runtime\r\ncontract NuclearPoE {\r\n\r\n    address payable private owner;\r\n    enum UserType {Client, Supplier, User}\r\n\r\n    constructor() public {\r\n      owner = msg.sender;\r\n    }\r\n\r\n    struct ProjectStruct {\r\n        address contractAddress;\r\n        bool created;\r\n    }\r\n\r\n    struct UserStruct {\r\n        address contractAddress;\r\n        uint8 userType;\r\n        bool created;\r\n    }\r\n\r\n\r\n    mapping(uint => ProjectStruct) private projectContracts;\r\n    mapping(address => UserStruct) private user;\r\n\r\n    address[] public projectContractsArray;\r\n    address[] public userContractsArray;\r\n    uint8 public projectCount;\r\n    uint8 public userCount;\r\n\r\n    modifier onlyOwner() {\r\n    require(msg.sender == owner,\"Only owner can make this change\");_;\r\n    }\r\n\r\n    event CreateProject(address newProjectContractAddress);\r\n    event CreateUser(address ContractAddress);\r\n\r\n\r\n    function createProject(uint _expediente, bytes32 _projectTitle, address _userAddress) external onlyOwner() {\r\n        require(projectContracts[_expediente].created == false, \"Project already created\");\r\n        require(user[_userAddress].created == true, \"User does not exist\");\r\n\r\n        address ProjectContractAddress = address(new Project(_expediente, _projectTitle, _userAddress));\r\n        projectContracts[_expediente] = ProjectStruct(ProjectContractAddress, true);\r\n\r\n        User userContractInstance = User(user[_userAddress].contractAddress);\r\n        userContractInstance.addProject(ProjectContractAddress);\r\n\r\n        projectContractsArray.push(ProjectContractAddress);\r\n        projectCount++;\r\n\r\n        emit CreateProject(ProjectContractAddress);\r\n    }\r\n\r\n    function kill() public onlyOwner() {\r\n        selfdestruct(owner);\r\n    }\r\n\r\n    function createUser(address _userAddress, bytes32 _userName, uint8 userType) external onlyOwner() {\r\n        require(user[_userAddress].created == false,\"User already created\");\r\n\r\n        address UserContractAddress = address(new User(_userName, _userAddress));\r\n\r\n        user[_userAddress] = UserStruct(UserContractAddress, userType, true);\r\n        userContractsArray.push(UserContractAddress);\r\n        userCount++;\r\n\r\n        emit CreateUser(UserContractAddress);\r\n    }\r\n\r\n    function addProcessToProject(address _supplierAddress, address _projectContractAddress, bytes32 _processName) external onlyOwner() {\r\n        require(user[_supplierAddress].created == true,\"User does not exist\");\r\n\r\n        User userContractInstance = User(user[_supplierAddress].contractAddress);\r\n        userContractInstance.addProject(_projectContractAddress);\r\n\r\n        Project project = Project(_projectContractAddress);\r\n        project.addProcess(_supplierAddress, _processName);\r\n    }\r\n}\r\n\r\n// Contrato de proyectos, cada vez que se crea un proyecto nuevo se debe generar un contrato proyecto.\r\ncontract Project {\r\n\r\n    uint private expediente;\r\n    bool private approved;\r\n    address private clientAddress;\r\n    bytes32 private title;\r\n    address payable owner;\r\n\r\n    struct Document {\r\n        address supplierAddress;\r\n        bytes32 documentTitle;\r\n        string storageHash;\r\n        uint mineTime;\r\n        bool created;\r\n    }\r\n\r\n    struct Process {\r\n        bytes32 processName;\r\n        address supplierAddress;\r\n        bool created;\r\n    }\r\n\r\n    uint public supplierCount;\r\n    uint public documentQty;\r\n    address[] public supplierAddresses;\r\n    bytes32[] public allDocuments;\r\n\r\n    mapping(address => Process) private process;\r\n    mapping(bytes32 => Document) private document;\r\n\r\n    event AddDocument();\r\n    event AddProcess();\r\n    event ApproveProject();\r\n\r\n    constructor (uint _expediente, bytes32 _title,address _clientAddress) public {\r\n        expediente = _expediente;\r\n        title = _title;\r\n        clientAddress = _clientAddress;\r\n    }\r\n\r\n    function addDocument (bytes32 _hash, bytes32 _documentName, string calldata storageHash) external {\r\n        require(approved == true,\"Project is not approved by client\");\r\n        require(process[msg.sender].created == true, \"Process does not exist\");\r\n        require(document[_hash].created == false, \"Document already created\");\r\n\r\n        document[_hash] = Document(msg.sender, _documentName, storageHash, now, true);\r\n        allDocuments.push(_hash);\r\n        documentQty++;\r\n        emit AddDocument();\r\n    }\r\n\r\n\r\n    function findDocument(bytes32 _hash) external view returns (address, uint, bytes32, string memory) {\r\n        require(document[_hash].created == true, \"Document does not exist\");\r\n        return (\r\n            document[_hash].supplierAddress,\r\n            document[_hash].mineTime,\r\n            document[_hash].documentTitle,\r\n            document[_hash].storageHash\r\n        \r\n            );\r\n    }\r\n\r\n    // TEMP\r\n    function kill() public {\r\n        selfdestruct(msg.sender);\r\n    }\r\n\r\n    function approveProject() external {\r\n        require(msg.sender == clientAddress,\"Only clients of this project can realize this operation\");\r\n        require(approved == false,\"Project already approved\");\r\n        approved = true;\r\n        emit ApproveProject();\r\n    }\r\n\r\n    function addProcess(address _supplierAddress, bytes32 _processName) external {\r\n        require(process[_supplierAddress].created == false,\"Process already created\");\r\n        require(approved == false,\"Project is already approved by client\");\r\n\r\n        supplierCount++;\r\n        supplierAddresses.push(_supplierAddress);\r\n        process[_supplierAddress] = Process(_processName, _supplierAddress, true);\r\n\r\n        emit AddProcess();\r\n    }\r\n\r\n    function contractDetails() external view returns (uint, address, address, bytes32, bool, bytes32[] memory, address[] memory) {\r\n        return (expediente, address(this), clientAddress, title, approved, allDocuments, supplierAddresses);\r\n    }\r\n\r\n    function returnAllDocuments() external view returns(bytes32[] memory) {\r\n        return allDocuments;\r\n    }\r\n}\r\n\r\n\r\n// Contrato de cliente que se genera para cada cliente nuevo y hace seguimiento a los proyectos nuevos asignados\r\ncontract User {\r\n\r\n    bytes32 private name;\r\n    address public userAddress;\r\n    address[] private projectAddresses;\r\n    uint private projectCount;\r\n    address payable owner;\r\n\r\n    constructor (bytes32 _name, address _address) public {\r\n        name = _name;\r\n        userAddress = _address;\r\n    }\r\n\r\n    function contractDetails() external view returns (bytes32, address[] memory) {\r\n        return (name, projectAddresses);\r\n    }\r\n\r\n    // TEMP\r\n    function kill() public {\r\n        selfdestruct(msg.sender);\r\n    }\r\n\r\n    function addProject(address _a) external {\r\n        projectAddresses.push(_a);\r\n        projectCount++;\r\n    }\r\n\r\n}",
  "sourcePath": "C:/Users/smartinez.nuclearis/Documents/GitHub/NUCLEARIS-Material-Organization/contracts/NuclearPoE.sol",
  "compiler": {
    "name": "solc",
    "version": "0.5.0+commit.1d4f565a.Emscripten.clang"
  },
  "schemaVersion": "3.0.5",
  "updatedAt": "2019-10-11T20:08:43.948Z",
  "devdoc": {
    "methods": {}
  },
  "userdoc": {
    "methods": {}
  }
}